{
  "_format": "hh-sol-artifact-1",
  "contractName": "AsyncVault",
  "sourceName": "contracts/erc7540/AsyncVault.sol",
  "abi": [
    {
      "inputs": [
        {
          "internalType": "contract IERC20",
          "name": "underlying_",
          "type": "address"
        },
        {
          "internalType": "string",
          "name": "name_",
          "type": "string"
        },
        {
          "internalType": "string",
          "name": "symbol_",
          "type": "string"
        },
        {
          "components": [
            {
              "internalType": "address",
              "name": "receiver",
              "type": "address"
            },
            {
              "internalType": "address",
              "name": "token",
              "type": "address"
            },
            {
              "internalType": "uint256",
              "name": "feePercentage",
              "type": "uint256"
            }
          ],
          "internalType": "struct FeeConfiguration.FeeConfig",
          "name": "feeConfig_",
          "type": "tuple"
        },
        {
          "internalType": "address",
          "name": "vaultRewardController_",
          "type": "address"
        },
        {
          "internalType": "address",
          "name": "feeConfigController_",
          "type": "address"
        },
        {
          "internalType": "uint32",
          "name": "cliff_",
          "type": "uint32"
        },
        {
          "internalType": "uint32",
          "name": "unlockDuration_",
          "type": "uint32"
        }
      ],
      "stateMutability": "payable",
      "type": "constructor"
    },
    {
      "inputs": [],
      "name": "AccessControlBadConfirmation",
      "type": "error"
    },
    {
      "inputs": [
        {
          "internalType": "address",
          "name": "account",
          "type": "address"
        },
        {
          "internalType": "bytes32",
          "name": "neededRole",
          "type": "bytes32"
        }
      ],
      "name": "AccessControlUnauthorizedAccount",
      "type": "error"
    },
    {
      "inputs": [
        {
          "internalType": "address",
          "name": "target",
          "type": "address"
        }
      ],
      "name": "AddressEmptyCode",
      "type": "error"
    },
    {
      "inputs": [
        {
          "internalType": "address",
          "name": "account",
          "type": "address"
        }
      ],
      "name": "AddressInsufficientBalance",
      "type": "error"
    },
    {
      "inputs": [],
      "name": "ECDSAInvalidSignature",
      "type": "error"
    },
    {
      "inputs": [
        {
          "internalType": "uint256",
          "name": "length",
          "type": "uint256"
        }
      ],
      "name": "ECDSAInvalidSignatureLength",
      "type": "error"
    },
    {
      "inputs": [
        {
          "internalType": "bytes32",
          "name": "s",
          "type": "bytes32"
        }
      ],
      "name": "ECDSAInvalidSignatureS",
      "type": "error"
    },
    {
      "inputs": [
        {
          "internalType": "address",
          "name": "spender",
          "type": "address"
        },
        {
          "internalType": "uint256",
          "name": "allowance",
          "type": "uint256"
        },
        {
          "internalType": "uint256",
          "name": "needed",
          "type": "uint256"
        }
      ],
      "name": "ERC20InsufficientAllowance",
      "type": "error"
    },
    {
      "inputs": [
        {
          "internalType": "address",
          "name": "sender",
          "type": "address"
        },
        {
          "internalType": "uint256",
          "name": "balance",
          "type": "uint256"
        },
        {
          "internalType": "uint256",
          "name": "needed",
          "type": "uint256"
        }
      ],
      "name": "ERC20InsufficientBalance",
      "type": "error"
    },
    {
      "inputs": [
        {
          "internalType": "address",
          "name": "approver",
          "type": "address"
        }
      ],
      "name": "ERC20InvalidApprover",
      "type": "error"
    },
    {
      "inputs": [
        {
          "internalType": "address",
          "name": "receiver",
          "type": "address"
        }
      ],
      "name": "ERC20InvalidReceiver",
      "type": "error"
    },
    {
      "inputs": [
        {
          "internalType": "address",
          "name": "sender",
          "type": "address"
        }
      ],
      "name": "ERC20InvalidSender",
      "type": "error"
    },
    {
      "inputs": [
        {
          "internalType": "address",
          "name": "spender",
          "type": "address"
        }
      ],
      "name": "ERC20InvalidSpender",
      "type": "error"
    },
    {
      "inputs": [
        {
          "internalType": "uint256",
          "name": "deadline",
          "type": "uint256"
        }
      ],
      "name": "ERC2612ExpiredSignature",
      "type": "error"
    },
    {
      "inputs": [
        {
          "internalType": "address",
          "name": "signer",
          "type": "address"
        },
        {
          "internalType": "address",
          "name": "owner",
          "type": "address"
        }
      ],
      "name": "ERC2612InvalidSigner",
      "type": "error"
    },
    {
      "inputs": [
        {
          "internalType": "address",
          "name": "receiver",
          "type": "address"
        },
        {
          "internalType": "uint256",
          "name": "assets",
          "type": "uint256"
        },
        {
          "internalType": "uint256",
          "name": "max",
          "type": "uint256"
        }
      ],
      "name": "ERC4626ExceededMaxDeposit",
      "type": "error"
    },
    {
      "inputs": [
        {
          "internalType": "address",
          "name": "receiver",
          "type": "address"
        },
        {
          "internalType": "uint256",
          "name": "shares",
          "type": "uint256"
        },
        {
          "internalType": "uint256",
          "name": "max",
          "type": "uint256"
        }
      ],
      "name": "ERC4626ExceededMaxMint",
      "type": "error"
    },
    {
      "inputs": [
        {
          "internalType": "address",
          "name": "owner",
          "type": "address"
        },
        {
          "internalType": "uint256",
          "name": "shares",
          "type": "uint256"
        },
        {
          "internalType": "uint256",
          "name": "max",
          "type": "uint256"
        }
      ],
      "name": "ERC4626ExceededMaxRedeem",
      "type": "error"
    },
    {
      "inputs": [
        {
          "internalType": "address",
          "name": "owner",
          "type": "address"
        },
        {
          "internalType": "uint256",
          "name": "assets",
          "type": "uint256"
        },
        {
          "internalType": "uint256",
          "name": "max",
          "type": "uint256"
        }
      ],
      "name": "ERC4626ExceededMaxWithdraw",
      "type": "error"
    },
    {
      "inputs": [],
      "name": "FailedInnerCall",
      "type": "error"
    },
    {
      "inputs": [
        {
          "internalType": "address",
          "name": "account",
          "type": "address"
        },
        {
          "internalType": "uint256",
          "name": "currentNonce",
          "type": "uint256"
        }
      ],
      "name": "InvalidAccountNonce",
      "type": "error"
    },
    {
      "inputs": [],
      "name": "InvalidController",
      "type": "error"
    },
    {
      "inputs": [],
      "name": "InvalidOperator",
      "type": "error"
    },
    {
      "inputs": [],
      "name": "InvalidShortString",
      "type": "error"
    },
    {
      "inputs": [],
      "name": "MathOverflowedMulDiv",
      "type": "error"
    },
    {
      "inputs": [
        {
          "internalType": "address",
          "name": "controller",
          "type": "address"
        },
        {
          "internalType": "uint256",
          "name": "assets",
          "type": "uint256"
        },
        {
          "internalType": "uint256",
          "name": "maxDeposit",
          "type": "uint256"
        }
      ],
      "name": "MaxDepositRequestExceeded",
      "type": "error"
    },
    {
      "inputs": [
        {
          "internalType": "address",
          "name": "controller",
          "type": "address"
        },
        {
          "internalType": "uint256",
          "name": "shares",
          "type": "uint256"
        },
        {
          "internalType": "uint256",
          "name": "maxShares",
          "type": "uint256"
        }
      ],
      "name": "MaxRedeemRequestExceeded",
      "type": "error"
    },
    {
      "inputs": [],
      "name": "MaxRewardTokensAmount",
      "type": "error"
    },
    {
      "inputs": [
        {
          "internalType": "address",
          "name": "owner",
          "type": "address"
        }
      ],
      "name": "OwnableInvalidOwner",
      "type": "error"
    },
    {
      "inputs": [
        {
          "internalType": "address",
          "name": "account",
          "type": "address"
        }
      ],
      "name": "OwnableUnauthorizedAccount",
      "type": "error"
    },
    {
      "inputs": [
        {
          "internalType": "address",
          "name": "token",
          "type": "address"
        }
      ],
      "name": "SafeERC20FailedOperation",
      "type": "error"
    },
    {
      "inputs": [
        {
          "internalType": "string",
          "name": "str",
          "type": "string"
        }
      ],
      "name": "StringTooLong",
      "type": "error"
    },
    {
      "anonymous": false,
      "inputs": [
        {
          "indexed": true,
          "internalType": "address",
          "name": "owner",
          "type": "address"
        },
        {
          "indexed": true,
          "internalType": "address",
          "name": "spender",
          "type": "address"
        },
        {
          "indexed": false,
          "internalType": "uint256",
          "name": "value",
          "type": "uint256"
        }
      ],
      "name": "Approval",
      "type": "event"
    },
    {
      "anonymous": false,
      "inputs": [
        {
          "indexed": true,
          "internalType": "address",
          "name": "sender",
          "type": "address"
        },
        {
          "indexed": true,
          "internalType": "address",
          "name": "owner",
          "type": "address"
        },
        {
          "indexed": false,
          "internalType": "uint256",
          "name": "assets",
          "type": "uint256"
        },
        {
          "indexed": false,
          "internalType": "uint256",
          "name": "shares",
          "type": "uint256"
        }
      ],
      "name": "Deposit",
      "type": "event"
    },
    {
      "anonymous": false,
      "inputs": [
        {
          "indexed": true,
          "internalType": "address",
          "name": "controller",
          "type": "address"
        },
        {
          "indexed": true,
          "internalType": "address",
          "name": "owner",
          "type": "address"
        },
        {
          "indexed": false,
          "internalType": "address",
          "name": "sender",
          "type": "address"
        },
        {
          "indexed": false,
          "internalType": "uint256",
          "name": "assets",
          "type": "uint256"
        }
      ],
      "name": "DepositRequested",
      "type": "event"
    },
    {
      "anonymous": false,
      "inputs": [],
      "name": "EIP712DomainChanged",
      "type": "event"
    },
    {
      "anonymous": false,
      "inputs": [
        {
          "components": [
            {
              "internalType": "address",
              "name": "receiver",
              "type": "address"
            },
            {
              "internalType": "address",
              "name": "token",
              "type": "address"
            },
            {
              "internalType": "uint256",
              "name": "feePercentage",
              "type": "uint256"
            }
          ],
          "indexed": false,
          "internalType": "struct FeeConfiguration.FeeConfig",
          "name": "feeConfig",
          "type": "tuple"
        }
      ],
      "name": "FeeConfigUpdated",
      "type": "event"
    },
    {
      "anonymous": false,
      "inputs": [
        {
          "indexed": true,
          "internalType": "address",
          "name": "controller",
          "type": "address"
        },
        {
          "indexed": true,
          "internalType": "address",
          "name": "operator",
          "type": "address"
        },
        {
          "indexed": false,
          "internalType": "bool",
          "name": "approved",
          "type": "bool"
        }
      ],
      "name": "OperatorSet",
      "type": "event"
    },
    {
      "anonymous": false,
      "inputs": [
        {
          "indexed": true,
          "internalType": "address",
          "name": "previousOwner",
          "type": "address"
        },
        {
          "indexed": true,
          "internalType": "address",
          "name": "newOwner",
          "type": "address"
        }
      ],
      "name": "OwnershipTransferred",
      "type": "event"
    },
    {
      "anonymous": false,
      "inputs": [
        {
          "indexed": true,
          "internalType": "address",
          "name": "controller",
          "type": "address"
        },
        {
          "indexed": true,
          "internalType": "address",
          "name": "owner",
          "type": "address"
        },
        {
          "indexed": false,
          "internalType": "address",
          "name": "sender",
          "type": "address"
        },
        {
          "indexed": false,
          "internalType": "uint256",
          "name": "shares",
          "type": "uint256"
        }
      ],
      "name": "RedeemRequested",
      "type": "event"
    },
    {
      "anonymous": false,
      "inputs": [
        {
          "indexed": true,
          "internalType": "address",
          "name": "rewardToken",
          "type": "address"
        },
        {
          "indexed": false,
          "internalType": "uint256",
          "name": "amount",
          "type": "uint256"
        }
      ],
      "name": "RewardAdded",
      "type": "event"
    },
    {
      "anonymous": false,
      "inputs": [
        {
          "indexed": true,
          "internalType": "address",
          "name": "rewardToken",
          "type": "address"
        },
        {
          "indexed": true,
          "internalType": "address",
          "name": "receiver",
          "type": "address"
        },
        {
          "indexed": false,
          "internalType": "uint256",
          "name": "amount",
          "type": "uint256"
        }
      ],
      "name": "RewardClaimed",
      "type": "event"
    },
    {
      "anonymous": false,
      "inputs": [
        {
          "indexed": true,
          "internalType": "bytes32",
          "name": "role",
          "type": "bytes32"
        },
        {
          "indexed": true,
          "internalType": "bytes32",
          "name": "previousAdminRole",
          "type": "bytes32"
        },
        {
          "indexed": true,
          "internalType": "bytes32",
          "name": "newAdminRole",
          "type": "bytes32"
        }
      ],
      "name": "RoleAdminChanged",
      "type": "event"
    },
    {
      "anonymous": false,
      "inputs": [
        {
          "indexed": true,
          "internalType": "bytes32",
          "name": "role",
          "type": "bytes32"
        },
        {
          "indexed": true,
          "internalType": "address",
          "name": "account",
          "type": "address"
        },
        {
          "indexed": true,
          "internalType": "address",
          "name": "sender",
          "type": "address"
        }
      ],
      "name": "RoleGranted",
      "type": "event"
    },
    {
      "anonymous": false,
      "inputs": [
        {
          "indexed": true,
          "internalType": "bytes32",
          "name": "role",
          "type": "bytes32"
        },
        {
          "indexed": true,
          "internalType": "address",
          "name": "account",
          "type": "address"
        },
        {
          "indexed": true,
          "internalType": "address",
          "name": "sender",
          "type": "address"
        }
      ],
      "name": "RoleRevoked",
      "type": "event"
    },
    {
      "anonymous": false,
      "inputs": [
        {
          "indexed": false,
          "internalType": "uint32",
          "name": "time",
          "type": "uint32"
        }
      ],
      "name": "SetSharesLockTime",
      "type": "event"
    },
    {
      "anonymous": false,
      "inputs": [
        {
          "indexed": true,
          "internalType": "address",
          "name": "from",
          "type": "address"
        },
        {
          "indexed": true,
          "internalType": "address",
          "name": "to",
          "type": "address"
        },
        {
          "indexed": false,
          "internalType": "uint256",
          "name": "value",
          "type": "uint256"
        }
      ],
      "name": "Transfer",
      "type": "event"
    },
    {
      "anonymous": false,
      "inputs": [
        {
          "indexed": true,
          "internalType": "address",
          "name": "sender",
          "type": "address"
        },
        {
          "indexed": true,
          "internalType": "address",
          "name": "receiver",
          "type": "address"
        },
        {
          "indexed": true,
          "internalType": "address",
          "name": "owner",
          "type": "address"
        },
        {
          "indexed": false,
          "internalType": "uint256",
          "name": "assets",
          "type": "uint256"
        },
        {
          "indexed": false,
          "internalType": "uint256",
          "name": "shares",
          "type": "uint256"
        }
      ],
      "name": "Withdraw",
      "type": "event"
    },
    {
      "inputs": [],
      "name": "DEFAULT_ADMIN_ROLE",
      "outputs": [
        {
          "internalType": "bytes32",
          "name": "",
          "type": "bytes32"
        }
      ],
      "stateMutability": "view",
      "type": "function"
    },
    {
      "inputs": [],
      "name": "DOMAIN_SEPARATOR",
      "outputs": [
        {
          "internalType": "bytes32",
          "name": "",
          "type": "bytes32"
        }
      ],
      "stateMutability": "view",
      "type": "function"
    },
    {
      "inputs": [],
      "name": "FEE_CONFIG_CONTROLLER_ROLE",
      "outputs": [
        {
          "internalType": "bytes32",
          "name": "",
          "type": "bytes32"
        }
      ],
      "stateMutability": "view",
      "type": "function"
    },
    {
      "inputs": [],
      "name": "VAULT_REWARD_CONTROLLER_ROLE",
      "outputs": [
        {
          "internalType": "bytes32",
          "name": "",
          "type": "bytes32"
        }
      ],
      "stateMutability": "view",
      "type": "function"
    },
    {
      "inputs": [
        {
          "internalType": "address",
          "name": "_token",
          "type": "address"
        },
        {
          "internalType": "uint256",
          "name": "_amount",
          "type": "uint256"
        }
      ],
      "name": "addReward",
      "outputs": [],
      "stateMutability": "payable",
      "type": "function"
    },
    {
      "inputs": [
        {
          "internalType": "address",
          "name": "owner",
          "type": "address"
        },
        {
          "internalType": "address",
          "name": "spender",
          "type": "address"
        }
      ],
      "name": "allowance",
      "outputs": [
        {
          "internalType": "uint256",
          "name": "",
          "type": "uint256"
        }
      ],
      "stateMutability": "view",
      "type": "function"
    },
    {
      "inputs": [
        {
          "internalType": "address",
          "name": "spender",
          "type": "address"
        },
        {
          "internalType": "uint256",
          "name": "value",
          "type": "uint256"
        }
      ],
      "name": "approve",
      "outputs": [
        {
          "internalType": "bool",
          "name": "",
          "type": "bool"
        }
      ],
      "stateMutability": "nonpayable",
      "type": "function"
    },
    {
      "inputs": [],
      "name": "asset",
      "outputs": [
        {
          "internalType": "address",
          "name": "",
          "type": "address"
        }
      ],
      "stateMutability": "view",
      "type": "function"
    },
    {
      "inputs": [
        {
          "internalType": "address",
          "name": "account",
          "type": "address"
        }
      ],
      "name": "balanceOf",
      "outputs": [
        {
          "internalType": "uint256",
          "name": "",
          "type": "uint256"
        }
      ],
      "stateMutability": "view",
      "type": "function"
    },
    {
      "inputs": [
        {
          "internalType": "uint256",
          "name": "_startPosition",
          "type": "uint256"
        },
        {
          "internalType": "address",
          "name": "_receiver",
          "type": "address"
        }
      ],
      "name": "claimAllReward",
      "outputs": [
        {
          "internalType": "uint256",
          "name": "",
          "type": "uint256"
        },
        {
          "internalType": "uint256",
          "name": "",
          "type": "uint256"
        }
      ],
      "stateMutability": "nonpayable",
      "type": "function"
    },
    {
      "inputs": [
        {
          "internalType": "address",
          "name": "rewardToken",
          "type": "address"
        },
        {
          "internalType": "address",
          "name": "receiver",
          "type": "address"
        },
        {
          "internalType": "uint256",
          "name": "amount",
          "type": "uint256"
        }
      ],
      "name": "claimExactReward",
      "outputs": [],
      "stateMutability": "nonpayable",
      "type": "function"
    },
    {
      "inputs": [
        {
          "internalType": "uint256",
          "name": "shares",
          "type": "uint256"
        }
      ],
      "name": "convertToAssets",
      "outputs": [
        {
          "internalType": "uint256",
          "name": "",
          "type": "uint256"
        }
      ],
      "stateMutability": "view",
      "type": "function"
    },
    {
      "inputs": [
        {
          "internalType": "uint256",
          "name": "assets",
          "type": "uint256"
        }
      ],
      "name": "convertToShares",
      "outputs": [
        {
          "internalType": "uint256",
          "name": "",
          "type": "uint256"
        }
      ],
      "stateMutability": "view",
      "type": "function"
    },
    {
      "inputs": [],
      "name": "decimals",
      "outputs": [
        {
          "internalType": "uint8",
          "name": "",
          "type": "uint8"
        }
      ],
      "stateMutability": "view",
      "type": "function"
    },
    {
      "inputs": [
        {
          "internalType": "uint256",
          "name": "assets",
          "type": "uint256"
        },
        {
          "internalType": "address",
          "name": "to",
          "type": "address"
        },
        {
          "internalType": "address",
          "name": "controller",
          "type": "address"
        }
      ],
      "name": "deposit",
      "outputs": [
        {
          "internalType": "uint256",
          "name": "shares",
          "type": "uint256"
        }
      ],
      "stateMutability": "nonpayable",
      "type": "function"
    },
    {
      "inputs": [
        {
          "internalType": "uint256",
          "name": "assets",
          "type": "uint256"
        },
        {
          "internalType": "address",
          "name": "to",
          "type": "address"
        }
      ],
      "name": "deposit",
      "outputs": [
        {
          "internalType": "uint256",
          "name": "shares",
          "type": "uint256"
        }
      ],
      "stateMutability": "nonpayable",
      "type": "function"
    },
    {
      "inputs": [],
      "name": "eip712Domain",
      "outputs": [
        {
          "internalType": "bytes1",
          "name": "fields",
          "type": "bytes1"
        },
        {
          "internalType": "string",
          "name": "name",
          "type": "string"
        },
        {
          "internalType": "string",
          "name": "version",
          "type": "string"
        },
        {
          "internalType": "uint256",
          "name": "chainId",
          "type": "uint256"
        },
        {
          "internalType": "address",
          "name": "verifyingContract",
          "type": "address"
        },
        {
          "internalType": "bytes32",
          "name": "salt",
          "type": "bytes32"
        },
        {
          "internalType": "uint256[]",
          "name": "extensions",
          "type": "uint256[]"
        }
      ],
      "stateMutability": "view",
      "type": "function"
    },
    {
      "inputs": [],
      "name": "feeConfig",
      "outputs": [
        {
          "internalType": "address",
          "name": "receiver",
          "type": "address"
        },
        {
          "internalType": "address",
          "name": "token",
          "type": "address"
        },
        {
          "internalType": "uint256",
          "name": "feePercentage",
          "type": "uint256"
        }
      ],
      "stateMutability": "view",
      "type": "function"
    },
    {
      "inputs": [
        {
          "internalType": "address",
          "name": "_user",
          "type": "address"
        }
      ],
      "name": "getAllRewards",
      "outputs": [
        {
          "internalType": "uint256[]",
          "name": "_rewards",
          "type": "uint256[]"
        }
      ],
      "stateMutability": "view",
      "type": "function"
    },
    {
      "inputs": [],
      "name": "getRewardTokens",
      "outputs": [
        {
          "internalType": "address[]",
          "name": "",
          "type": "address[]"
        }
      ],
      "stateMutability": "view",
      "type": "function"
    },
    {
      "inputs": [
        {
          "internalType": "bytes32",
          "name": "role",
          "type": "bytes32"
        }
      ],
      "name": "getRoleAdmin",
      "outputs": [
        {
          "internalType": "bytes32",
          "name": "",
          "type": "bytes32"
        }
      ],
      "stateMutability": "view",
      "type": "function"
    },
    {
      "inputs": [
        {
          "internalType": "address",
          "name": "_user",
          "type": "address"
        },
        {
          "internalType": "address",
          "name": "_rewardToken",
          "type": "address"
        }
      ],
      "name": "getUserReward",
      "outputs": [
        {
          "internalType": "uint256",
          "name": "unclaimedAmount",
          "type": "uint256"
        }
      ],
      "stateMutability": "view",
      "type": "function"
    },
    {
      "inputs": [
        {
          "internalType": "bytes32",
          "name": "role",
          "type": "bytes32"
        },
        {
          "internalType": "address",
          "name": "account",
          "type": "address"
        }
      ],
      "name": "grantRole",
      "outputs": [],
      "stateMutability": "nonpayable",
      "type": "function"
    },
    {
      "inputs": [
        {
          "internalType": "bytes32",
          "name": "role",
          "type": "bytes32"
        },
        {
          "internalType": "address",
          "name": "account",
          "type": "address"
        }
      ],
      "name": "hasRole",
      "outputs": [
        {
          "internalType": "bool",
          "name": "",
          "type": "bool"
        }
      ],
      "stateMutability": "view",
      "type": "function"
    },
    {
      "inputs": [
        {
          "internalType": "address",
          "name": "account",
          "type": "address"
        }
      ],
      "name": "lockedOf",
      "outputs": [
        {
          "internalType": "uint256",
          "name": "",
          "type": "uint256"
        }
      ],
      "stateMutability": "view",
      "type": "function"
    },
    {
      "inputs": [
        {
          "internalType": "address",
          "name": "owner",
          "type": "address"
        }
      ],
      "name": "maxDeposit",
      "outputs": [
        {
          "internalType": "uint256",
          "name": "",
          "type": "uint256"
        }
      ],
      "stateMutability": "view",
      "type": "function"
    },
    {
      "inputs": [
        {
          "internalType": "address",
          "name": "owner",
          "type": "address"
        }
      ],
      "name": "maxMint",
      "outputs": [
        {
          "internalType": "uint256",
          "name": "shares",
          "type": "uint256"
        }
      ],
      "stateMutability": "view",
      "type": "function"
    },
    {
      "inputs": [
        {
          "internalType": "address",
          "name": "owner",
          "type": "address"
        }
      ],
      "name": "maxRedeem",
      "outputs": [
        {
          "internalType": "uint256",
          "name": "",
          "type": "uint256"
        }
      ],
      "stateMutability": "view",
      "type": "function"
    },
    {
      "inputs": [
        {
          "internalType": "address",
          "name": "owner",
          "type": "address"
        }
      ],
      "name": "maxWithdraw",
      "outputs": [
        {
          "internalType": "uint256",
          "name": "assets",
          "type": "uint256"
        }
      ],
      "stateMutability": "view",
      "type": "function"
    },
    {
      "inputs": [
        {
          "internalType": "uint256",
          "name": "shares",
          "type": "uint256"
        },
        {
          "internalType": "address",
          "name": "to",
          "type": "address"
        }
      ],
      "name": "mint",
      "outputs": [
        {
          "internalType": "uint256",
          "name": "assets",
          "type": "uint256"
        }
      ],
      "stateMutability": "nonpayable",
      "type": "function"
    },
    {
      "inputs": [
        {
          "internalType": "uint256",
          "name": "shares",
          "type": "uint256"
        },
        {
          "internalType": "address",
          "name": "to",
          "type": "address"
        },
        {
          "internalType": "address",
          "name": "controller",
          "type": "address"
        }
      ],
      "name": "mint",
      "outputs": [
        {
          "internalType": "uint256",
          "name": "assets",
          "type": "uint256"
        }
      ],
      "stateMutability": "nonpayable",
      "type": "function"
    },
    {
      "inputs": [],
      "name": "name",
      "outputs": [
        {
          "internalType": "string",
          "name": "",
          "type": "string"
        }
      ],
      "stateMutability": "view",
      "type": "function"
    },
    {
      "inputs": [
        {
          "internalType": "address",
          "name": "owner",
          "type": "address"
        }
      ],
      "name": "nonces",
      "outputs": [
        {
          "internalType": "uint256",
          "name": "",
          "type": "uint256"
        }
      ],
      "stateMutability": "view",
      "type": "function"
    },
    {
      "inputs": [],
      "name": "owner",
      "outputs": [
        {
          "internalType": "address",
          "name": "",
          "type": "address"
        }
      ],
      "stateMutability": "view",
      "type": "function"
    },
    {
      "inputs": [
        {
          "internalType": "address",
          "name": "owner",
          "type": "address"
        }
      ],
      "name": "pendingDepositRequest",
      "outputs": [
        {
          "internalType": "uint256",
          "name": "assets",
          "type": "uint256"
        }
      ],
      "stateMutability": "view",
      "type": "function"
    },
    {
      "inputs": [
        {
          "internalType": "address",
          "name": "owner",
          "type": "address"
        }
      ],
      "name": "pendingRedeemRequest",
      "outputs": [
        {
          "internalType": "uint256",
          "name": "shares",
          "type": "uint256"
        }
      ],
      "stateMutability": "view",
      "type": "function"
    },
    {
      "inputs": [
        {
          "internalType": "address",
          "name": "owner",
          "type": "address"
        },
        {
          "internalType": "address",
          "name": "spender",
          "type": "address"
        },
        {
          "internalType": "uint256",
          "name": "value",
          "type": "uint256"
        },
        {
          "internalType": "uint256",
          "name": "deadline",
          "type": "uint256"
        },
        {
          "internalType": "uint8",
          "name": "v",
          "type": "uint8"
        },
        {
          "internalType": "bytes32",
          "name": "r",
          "type": "bytes32"
        },
        {
          "internalType": "bytes32",
          "name": "s",
          "type": "bytes32"
        }
      ],
      "name": "permit",
      "outputs": [],
      "stateMutability": "nonpayable",
      "type": "function"
    },
    {
      "inputs": [
        {
          "internalType": "uint256",
          "name": "assets",
          "type": "uint256"
        }
      ],
      "name": "previewDeposit",
      "outputs": [
        {
          "internalType": "uint256",
          "name": "",
          "type": "uint256"
        }
      ],
      "stateMutability": "view",
      "type": "function"
    },
    {
      "inputs": [
        {
          "internalType": "uint256",
          "name": "shares",
          "type": "uint256"
        }
      ],
      "name": "previewMint",
      "outputs": [
        {
          "internalType": "uint256",
          "name": "",
          "type": "uint256"
        }
      ],
      "stateMutability": "view",
      "type": "function"
    },
    {
      "inputs": [
        {
          "internalType": "uint256",
          "name": "shares",
          "type": "uint256"
        }
      ],
      "name": "previewRedeem",
      "outputs": [
        {
          "internalType": "uint256",
          "name": "",
          "type": "uint256"
        }
      ],
      "stateMutability": "view",
      "type": "function"
    },
    {
      "inputs": [
        {
          "internalType": "uint256",
          "name": "assets",
          "type": "uint256"
        }
      ],
      "name": "previewWithdraw",
      "outputs": [
        {
          "internalType": "uint256",
          "name": "",
          "type": "uint256"
        }
      ],
      "stateMutability": "view",
      "type": "function"
    },
    {
      "inputs": [
        {
          "internalType": "uint256",
          "name": "shares",
          "type": "uint256"
        },
        {
          "internalType": "address",
          "name": "receiver",
          "type": "address"
        },
        {
          "internalType": "address",
          "name": "controller",
          "type": "address"
        }
      ],
      "name": "redeem",
      "outputs": [
        {
          "internalType": "uint256",
          "name": "assets",
          "type": "uint256"
        }
      ],
      "stateMutability": "nonpayable",
      "type": "function"
    },
    {
      "inputs": [],
      "name": "renounceOwnership",
      "outputs": [],
      "stateMutability": "nonpayable",
      "type": "function"
    },
    {
      "inputs": [
        {
          "internalType": "bytes32",
          "name": "role",
          "type": "bytes32"
        },
        {
          "internalType": "address",
          "name": "callerConfirmation",
          "type": "address"
        }
      ],
      "name": "renounceRole",
      "outputs": [],
      "stateMutability": "nonpayable",
      "type": "function"
    },
    {
      "inputs": [
        {
          "internalType": "uint256",
          "name": "assets",
          "type": "uint256"
        },
        {
          "internalType": "address",
          "name": "controller",
          "type": "address"
        },
        {
          "internalType": "address",
          "name": "owner",
          "type": "address"
        }
      ],
      "name": "requestDeposit",
      "outputs": [],
      "stateMutability": "nonpayable",
      "type": "function"
    },
    {
      "inputs": [
        {
          "internalType": "uint256",
          "name": "shares",
          "type": "uint256"
        },
        {
          "internalType": "address",
          "name": "controller",
          "type": "address"
        },
        {
          "internalType": "address",
          "name": "owner",
          "type": "address"
        }
      ],
      "name": "requestRedeem",
      "outputs": [],
      "stateMutability": "nonpayable",
      "type": "function"
    },
    {
      "inputs": [
        {
          "internalType": "bytes32",
          "name": "role",
          "type": "bytes32"
        },
        {
          "internalType": "address",
          "name": "account",
          "type": "address"
        }
      ],
      "name": "revokeRole",
      "outputs": [],
      "stateMutability": "nonpayable",
      "type": "function"
    },
    {
      "inputs": [
        {
          "internalType": "address",
          "name": "operator",
          "type": "address"
        },
        {
          "internalType": "bool",
          "name": "approved",
          "type": "bool"
        }
      ],
      "name": "setOperator",
      "outputs": [
        {
          "internalType": "bool",
          "name": "success",
          "type": "bool"
        }
      ],
      "stateMutability": "nonpayable",
      "type": "function"
    },
    {
      "inputs": [
        {
          "internalType": "uint32",
          "name": "time",
          "type": "uint32"
        }
      ],
      "name": "setSharesLockTime",
      "outputs": [],
      "stateMutability": "nonpayable",
      "type": "function"
    },
    {
      "inputs": [
        {
          "internalType": "bytes4",
          "name": "interfaceId",
          "type": "bytes4"
        }
      ],
      "name": "supportsInterface",
      "outputs": [
        {
          "internalType": "bool",
          "name": "",
          "type": "bool"
        }
      ],
      "stateMutability": "view",
      "type": "function"
    },
    {
      "inputs": [],
      "name": "symbol",
      "outputs": [
        {
          "internalType": "string",
          "name": "",
          "type": "string"
        }
      ],
      "stateMutability": "view",
      "type": "function"
    },
    {
      "inputs": [],
      "name": "totalAssets",
      "outputs": [
        {
          "internalType": "uint256",
          "name": "",
          "type": "uint256"
        }
      ],
      "stateMutability": "view",
      "type": "function"
    },
    {
      "inputs": [],
      "name": "totalSupply",
      "outputs": [
        {
          "internalType": "uint256",
          "name": "",
          "type": "uint256"
        }
      ],
      "stateMutability": "view",
      "type": "function"
    },
    {
      "inputs": [
        {
          "internalType": "address",
          "name": "to",
          "type": "address"
        },
        {
          "internalType": "uint256",
          "name": "value",
          "type": "uint256"
        }
      ],
      "name": "transfer",
      "outputs": [
        {
          "internalType": "bool",
          "name": "",
          "type": "bool"
        }
      ],
      "stateMutability": "nonpayable",
      "type": "function"
    },
    {
      "inputs": [
        {
          "internalType": "address",
          "name": "from",
          "type": "address"
        },
        {
          "internalType": "address",
          "name": "to",
          "type": "address"
        },
        {
          "internalType": "uint256",
          "name": "value",
          "type": "uint256"
        }
      ],
      "name": "transferFrom",
      "outputs": [
        {
          "internalType": "bool",
          "name": "",
          "type": "bool"
        }
      ],
      "stateMutability": "nonpayable",
      "type": "function"
    },
    {
      "inputs": [
        {
          "internalType": "address",
          "name": "newOwner",
          "type": "address"
        }
      ],
      "name": "transferOwnership",
      "outputs": [],
      "stateMutability": "nonpayable",
      "type": "function"
    },
    {
      "inputs": [
        {
          "internalType": "address",
          "name": "account",
          "type": "address"
        }
      ],
      "name": "unlockedOf",
      "outputs": [
        {
          "internalType": "uint256",
          "name": "",
          "type": "uint256"
        }
      ],
      "stateMutability": "view",
      "type": "function"
    },
    {
      "inputs": [
        {
          "components": [
            {
              "internalType": "address",
              "name": "receiver",
              "type": "address"
            },
            {
              "internalType": "address",
              "name": "token",
              "type": "address"
            },
            {
              "internalType": "uint256",
              "name": "feePercentage",
              "type": "uint256"
            }
          ],
          "internalType": "struct FeeConfiguration.FeeConfig",
          "name": "_feeConfig",
          "type": "tuple"
        }
      ],
      "name": "updateFeeConfig",
      "outputs": [],
      "stateMutability": "nonpayable",
      "type": "function"
    },
    {
      "inputs": [
        {
          "internalType": "uint256",
          "name": "assets",
          "type": "uint256"
        },
        {
          "internalType": "address",
          "name": "receiver",
          "type": "address"
        },
        {
          "internalType": "address",
          "name": "controller",
          "type": "address"
        }
      ],
      "name": "withdraw",
      "outputs": [
        {
          "internalType": "uint256",
          "name": "shares",
          "type": "uint256"
        }
      ],
      "stateMutability": "nonpayable",
      "type": "function"
    }
  ],
  "bytecode": "0x6101a060405260405162004b3738038062004b378339810160408190526200002791620006ef565b338780604051806040016040528060018152602001603160f81b8152508b808c8c8160039081620000599190620008a1565b506004620000688282620008a1565b5050506000806200007f836200020c60201b60201c565b91509150816200009157601262000093565b805b60ff1660a05250506001600160a01b031660805250620000b5826005620002f1565b61016052620000c6816006620002f1565b61018052815160208084019190912061012052815190820120610140524660e052620001566101205161014051604080517f8b73c3c69bb8fe3d512ecc4cf759cc79239f7b179b0ffacaa9a75d522b39400f60208201529081019290925260608201524660808201523060a082015260009060c00160405160208183030381529060405280519060200120905090565b60c05250503061010052506001600160a01b0381166200019157604051631e4fbdf760e01b8152600060048201526024015b60405180910390fd5b6200019c816200032a565b50620001aa8585856200037c565b60007f66edf448d5bf7be6b4d59d8e281e5b0790ba1fdc49329b14b394277e0547430060050180546001600160401b03191664010000000063ffffffff9586160263ffffffff191617929093169190911790915550620009ff95505050505050565b60408051600481526024810182526020810180516001600160e01b031663313ce56760e01b17905290516000918291829182916001600160a01b0387169162000255916200096d565b600060405180830381855afa9150503d806000811462000292576040519150601f19603f3d011682016040523d82523d6000602084013e62000297565b606091505b5091509150818015620002ac57506020815110155b15620002e457600081806020019051810190620002ca91906200098b565b905060ff8111620002e2576001969095509350505050565b505b5060009485945092505050565b60006020835110156200031157620003098362000402565b905062000324565b816200031e8482620008a1565b5060ff90505b92915050565b600c80546001600160a01b038381166001600160a01b0319831681179093556040519116919082907f8be0079c531659141344cd1fd0a4f28419497f9722a3daafe3b4186f6b6457e090600090a35050565b8251602084015160408501516200039592919062000445565b620003a260003362000505565b50620003cf7f477fc23fb51bb5d5aa814872a393b0e4f35d0916c7503c0fd96584681070d4108362000505565b50620003fc7f74e458455daa935f28c556b43e0cc4ad001a8a090f5feee376681e97d4618f468262000505565b50505050565b600080829050601f8151111562000430578260405163305a27a960e01b8152600401620001889190620009a5565b80516200043d82620009da565b179392505050565b61271081106200048a5760405162461bcd60e51b815260206004820152600f60248201526e46433a20496e76616c69642066656560881b604482015260640162000188565b600980546001600160a01b038581166001600160a01b03199283168117909355600a8054918616919092168117909155600b83905560408051928352602083019190915281018290527febd34b2df88ea5c9f67c04b13b08e5e63c2d17e269aab73b866fe47a8736a2649060600160405180910390a1505050565b60008281526008602090815260408083206001600160a01b038516845290915281205460ff16620005ae5760008381526008602090815260408083206001600160a01b03861684529091529020805460ff19166001179055620005653390565b6001600160a01b0316826001600160a01b0316847f2f8788117e7eff1d82e926ec794901d17c78024a50270940304540a733656f0d60405160405180910390a450600162000324565b50600062000324565b6001600160a01b0381168114620005cd57600080fd5b50565b634e487b7160e01b600052604160045260246000fd5b604051606081016001600160401b03811182821017156200060b576200060b620005d0565b60405290565b60005b838110156200062e57818101518382015260200162000614565b50506000910152565b600082601f8301126200064957600080fd5b81516001600160401b0380821115620006665762000666620005d0565b604051601f8301601f19908116603f01168101908282118183101715620006915762000691620005d0565b81604052838152866020858801011115620006ab57600080fd5b620006be84602083016020890162000611565b9695505050505050565b8051620006d581620005b7565b919050565b805163ffffffff81168114620006d557600080fd5b600080600080600080600080888a036101408112156200070e57600080fd5b89516200071b81620005b7565b60208b01519099506001600160401b03808211156200073957600080fd5b620007478d838e0162000637565b995060408c01519150808211156200075e57600080fd5b506200076d8c828d0162000637565b9750506060605f19820112156200078357600080fd5b506200078e620005e6565b60608a01516200079e81620005b7565b815260808a0151620007b081620005b7565b602082015260a08a015160408201529450620007cf60c08a01620006c8565b9350620007df60e08a01620006c8565b9250620007f06101008a01620006da565b9150620008016101208a01620006da565b90509295985092959890939650565b600181811c908216806200082557607f821691505b6020821081036200084657634e487b7160e01b600052602260045260246000fd5b50919050565b601f8211156200089c576000816000526020600020601f850160051c81016020861015620008775750805b601f850160051c820191505b81811015620008985782815560010162000883565b5050505b505050565b81516001600160401b03811115620008bd57620008bd620005d0565b620008d581620008ce845462000810565b846200084c565b602080601f8311600181146200090d5760008415620008f45750858301515b600019600386901b1c1916600185901b17855562000898565b600085815260208120601f198616915b828110156200093e578886015182559484019460019091019084016200091d565b50858210156200095d5787850151600019600388901b60f8161c191681555b5050505050600190811b01905550565b600082516200098181846020870162000611565b9190910192915050565b6000602082840312156200099e57600080fd5b5051919050565b6020815260008251806020840152620009c681604085016020870162000611565b601f01601f19169190910160400192915050565b80516020808301519190811015620008465760001960209190910360031b1b16919050565b60805160a05160c05160e05161010051610120516101405161016051610180516140c062000a77600039600061257501526000612548015260006121ca015260006121a2015260006120fd0152600061212701526000612151015260006120a8015260008181610abe0152610da301526140c06000f3fe60806040526004361061030c5760003560e01c806384b0196e1161019c578063c4f59f9b116100e2578063d547741f11610090578063d547741f146109c4578063d905777e146109e4578063da39b3e714610a04578063dd62ed3e14610a24578063ef8b30f71461090f578063efa6f42514610a44578063f2fde38b14610a64578063fba8619a14610a8457600080fd5b8063c4f59f9b146108cd578063c63d75b6146108ef578063c6e6f5921461090f578063caad546e1461092f578063cd26c0e61461094f578063ce96cb7714610984578063d505accf146109a457600080fd5b8063a217fddf1161014a578063a217fddf146107c4578063a5f1e282146107d9578063a9059cbb146107f9578063b3d7f6b914610819578063b460af9414610839578063b4f6d61314610859578063ba0876521461088d578063c3702989146108ad57600080fd5b806384b0196e146106f657806385b77f451461071e5780638da5cb5b1461073e57806391d148541461075c57806394bf804d1461077c57806395d89b411461079c5780639feb8f50146107b157600080fd5b8063362a3fad11610261578063558a72971161020f578063558a7297146105eb5780635ab764ed1461060b5780636e553f651461062b5780636f26a4361461064b57806370a082311461066b578063715018a6146106a15780637d41c86e146106b65780637ecebe00146106d657600080fd5b8063362a3fad146105275780633644e5151461055457806336568abe1461056957806338d52e0f14610589578063402d267d146105ab5780634cdad506146103bf57806353dc1dd3146105cb57600080fd5b806318160ddd116102be57806318160ddd1461041f5780631e5eb1d01461043457806323b872dd1461046e578063248a9ca31461048e5780632e2d2984146104be5780632f2ff15d146104de578063313ce5671461050057600080fd5b806301e1d1141461031157806301ffc9a71461033957806305fb2a511461036957806306fdde031461039d57806307a2d13a146103bf578063095ea7b3146103df5780630a28a477146103ff575b600080fd5b34801561031d57600080fd5b50610326610aa4565b6040519081526020015b60405180910390f35b34801561034557600080fd5b50610359610354366004613935565b610b39565b6040519015158152602001610330565b34801561037557600080fd5b506103267f74e458455daa935f28c556b43e0cc4ad001a8a090f5feee376681e97d4618f4681565b3480156103a957600080fd5b506103b2610b64565b60405161033091906139af565b3480156103cb57600080fd5b506103266103da3660046139c2565b610bf6565b3480156103eb57600080fd5b506103596103fa3660046139f7565b610c03565b34801561040b57600080fd5b5061032661041a3660046139c2565b610c1b565b34801561042b57600080fd5b50600254610326565b34801561044057600080fd5b50600954600a54600b5461045f926001600160a01b0390811692169083565b60405161033093929190613a21565b34801561047a57600080fd5b50610359610489366004613a45565b610c28565b34801561049a57600080fd5b506103266104a93660046139c2565b60009081526008602052604090206001015490565b3480156104ca57600080fd5b506103266104d9366004613a81565b610c4e565b3480156104ea57600080fd5b506104fe6104f9366004613abd565b610c66565b005b34801561050c57600080fd5b50610515610c91565b60405160ff9091168152602001610330565b34801561053357600080fd5b50610547610542366004613ae9565b610c9b565b6040516103309190613b40565b34801561056057600080fd5b50610326610d5f565b34801561057557600080fd5b506104fe610584366004613abd565b610d69565b34801561059557600080fd5b5061059e610da1565b6040516103309190613b53565b3480156105b757600080fd5b506103266105c6366004613ae9565b610dc5565b3480156105d757600080fd5b506103266105e6366004613ae9565b610df1565b3480156105f757600080fd5b50610359610606366004613b75565b610e1e565b34801561061757600080fd5b50610326610626366004613bac565b610ec9565b34801561063757600080fd5b50610326610646366004613abd565b610ff0565b34801561065757600080fd5b506104fe610666366004613bd6565b610ffd565b34801561067757600080fd5b50610326610686366004613ae9565b6001600160a01b031660009081526020819052604090205490565b3480156106ad57600080fd5b506104fe611063565b3480156106c257600080fd5b506104fe6106d1366004613a81565b611077565b3480156106e257600080fd5b506103266106f1366004613ae9565b6110a9565b34801561070257600080fd5b5061070b6110c7565b6040516103309796959493929190613bfc565b34801561072a57600080fd5b506104fe610739366004613a81565b61110d565b34801561074a57600080fd5b50600c546001600160a01b031661059e565b34801561076857600080fd5b50610359610777366004613abd565b611148565b34801561078857600080fd5b50610326610797366004613abd565b611173565b3480156107a857600080fd5b506103b2611180565b6104fe6107bf3660046139f7565b61118f565b3480156107d057600080fd5b50610326600081565b3480156107e557600080fd5b506103266107f4366004613ae9565b6114b7565b34801561080557600080fd5b506103596108143660046139f7565b611506565b34801561082557600080fd5b506103266108343660046139c2565b611514565b34801561084557600080fd5b50610326610854366004613a81565b611521565b34801561086557600080fd5b506103267f477fc23fb51bb5d5aa814872a393b0e4f35d0916c7503c0fd96584681070d41081565b34801561089957600080fd5b506103266108a8366004613a81565b611536565b3480156108b957600080fd5b506103266108c8366004613ae9565b611543565b3480156108d957600080fd5b506108e261156d565b6040516103309190613c6c565b3480156108fb57600080fd5b5061032661090a366004613ae9565b6115d7565b34801561091b57600080fd5b5061032661092a3660046139c2565b611606565b34801561093b57600080fd5b5061032661094a366004613ae9565b611613565b34801561095b57600080fd5b5061096f61096a366004613abd565b61161e565b60408051928352602083019190915201610330565b34801561099057600080fd5b5061032661099f366004613ae9565b6117ab565b3480156109b057600080fd5b506104fe6109bf366004613cad565b6117b9565b3480156109d057600080fd5b506104fe6109df366004613abd565b6118f3565b3480156109f057600080fd5b506103266109ff366004613ae9565b611918565b348015610a1057600080fd5b50610326610a1f366004613a81565b611923565b348015610a3057600080fd5b50610326610a3f366004613bac565b61193b565b348015610a5057600080fd5b506104fe610a5f366004613d36565b611966565b348015610a7057600080fd5b506104fe610a7f366004613ae9565b6119ab565b348015610a9057600080fd5b506104fe610a9f366004613a45565b6119e9565b6040516370a0823160e01b81526000906001600160a01b037f000000000000000000000000000000000000000000000000000000000000000016906370a0823190610af3903090600401613b53565b602060405180830381865afa158015610b10573d6000803e3d6000fd5b505050506040513d601f19601f82011682018060405250810190610b349190613dac565b905090565b60006001600160e01b03198216631ee878f360e11b1480610b5e5750610b5e82611c9d565b92915050565b606060038054610b7390613dc5565b80601f0160208091040260200160405190810160405280929190818152602001828054610b9f90613dc5565b8015610bec5780601f10610bc157610100808354040283529160200191610bec565b820191906000526020600020905b815481529060010190602001808311610bcf57829003601f168201915b5050505050905090565b6000610b5e826000611cd2565b600033610c11818585611d0c565b5060019392505050565b6000610b5e826001611d19565b600033610c36858285611d49565b610c41858585611d96565b60019150505b9392505050565b6000610c5b848484611df5565b9050610c4784611ec7565b600082815260086020526040902060010154610c8181612002565b610c8b838361200c565b50505050565b6000610b346120a0565b60606000610ca76120cc565b60068101549091508067ffffffffffffffff811115610cc857610cc8613d20565b604051908082528060200260200182016040528015610cf1578160200160208202803683370190505b50925060005b81811015610d5757610d3285846006018381548110610d1857610d18613dff565b6000918252602090912001546001600160a01b0316610ec9565b848281518110610d4457610d44613dff565b6020908102919091010152600101610cf7565b505050919050565b6000610b346120f0565b6001600160a01b0381163314610d925760405163334bd91960e11b815260040160405180910390fd5b610d9c828261221b565b505050565b7f000000000000000000000000000000000000000000000000000000000000000090565b6000610dcf6120cc565b6001600160a01b03909216600090815260029290920160205250604090205490565b6000610b5e610dfe6120cc565b6001600160a01b0384166000908152600191909101602052604090205490565b60006001600160a01b0383163303610e495760405163ccea9e6f60e01b815260040160405180910390fd5b6000610e536120cc565b33600081815260048301602090815260408083206001600160a01b038a1680855290835292819020805460ff1916891515908117909155905190815293945090927fceb576d9f15e4e200fdb5096d64d5dfd667e16def20c1eefd14256d8e3faa267910160405180910390a35060019392505050565b600080610ed46120cc565b6001600160a01b03808516600081815260088401602090815260408083208054958b168452600787018352818420805495855260048101909352922054949550909390919081158015610f25575080155b15610f395760009650505050505050610b5e565b81600003610f4957809650610fae565b6001600160a01b038816600090815260058401602052604090205484811115610f6f5750835b6000610f7b8287613e2b565b90506000670de0b6b3a7640000610f928684613e3e565b610f9c9190613e6b565b9050610fa88482613e7f565b99505050505b86600003610fbb57600196505b600b5415610fe4576000610fd488600960020154612288565b9050610fe08189613e2b565b9750505b50505050505092915050565b6000610c47838333610c4e565b611005612308565b600061100f6120cc565b60058101805463ffffffff191663ffffffff85169081179091556040519081529091507f30131881e801ec5c72cbec6e47ad340b66e5165fa10332f449a92f188a8f27479060200160405180910390a15050565b61106b612308565b6110756000612335565b565b60006110816120cc565b905061108e848484612387565b610c8b838561109c87610bf6565b84600101856003016124af565b6001600160a01b038116600090815260076020526040812054610b5e565b6000606080600080600060606110db612541565b6110e361256e565b60408051600080825260208201909252600f60f81b9b939a50919850469750309650945092509050565b60006111176120cc565b9050600061112485611606565b905061113185858561259b565b61114184868385600281016126b5565b5050505050565b60009182526008602090815260408084206001600160a01b0393909316845291905290205460ff1690565b6000610c47838333611923565b606060048054610b7390613dc5565b7f477fc23fb51bb5d5aa814872a393b0e4f35d0916c7503c0fd96584681070d4106111b981612002565b8160000361120e5760405162461bcd60e51b815260206004820181905260248201527f4173796e635661756c743a20416d6f756e742063616e2774206265207a65726f60448201526064015b60405180910390fd5b611216610da1565b6001600160a01b0316836001600160a01b03161415801561124057506001600160a01b0383163014155b6112a95760405162461bcd60e51b815260206004820152603460248201527f4173796e635661756c743a2052657761726420616e64205374616b696e6720746044820152736f6b656e732063616e6e6f742062652073616d6560601b6064820152608401611205565b6001600160a01b0383166112ff5760405162461bcd60e51b815260206004820181905260248201527f4173796e635661756c743a20496e76616c69642072657761726420746f6b656e6044820152606401611205565b611307610aa4565b6000036113565760405162461bcd60e51b815260206004820152601f60248201527f4173796e635661756c743a204e6f20746f6b656e207374616b656420796574006044820152606401611205565b60006113606120cc565b6006810154909150600a0361138857604051637561e0ab60e01b815260040160405180910390fd5b60006113a6670de0b6b3a764000061139e610aa4565b86919061273b565b6001600160a01b0386166000908152600884016020526040902060018101549192509060ff166114275760068301805460018082018355600092835260209092200180546001600160a01b0319166001600160a01b038916908117909155828201805460ff191690921790915582825561142290333088612759565b61146c565b6001600160a01b038616600090815260088401602052604081208054849290611451908490613e7f565b9091555061146c90506001600160a01b038716333088612759565b856001600160a01b03167fac24935fd910bc682b5ccb1a07b718cadf8cf2f6d1404c4f3ddc3662dae40e29866040516114a791815260200190565b60405180910390a2505050505050565b6000806114c26120cc565b90506114cd83611613565b6001600160a01b0384166000908152600783016020526040902060028101546001909101546114fc9190613e2b565b610c479190613e2b565b600033610c11818585611d96565b6000610b5e826001611cd2565b600061152e8484846127b3565b949350505050565b600061152e848484612885565b6000610b5e6115506120cc565b6001600160a01b0384166000908152602091909152604090205490565b60606115776120cc565b600601805480602002602001604051908101604052809291908181526020018280548015610bec57602002820191906000526020600020905b81546001600160a01b031681526001909101906020018083116115b0575050505050905090565b60006115e16120cc565b6001600160a01b03909216600090815260029290920160205250604090206001015490565b6000610b5e826000611d19565b6000610b5e8261294c565b600080600061162b6120cc565b6006810154600a54919250906001600160a01b031660008083810361169d5760405162461bcd60e51b815260206004820152602260248201527f4173796e635661756c743a204e6f2072657761726420746f6b656e73206578696044820152611cdd60f21b6064820152608401611205565b885b8481101561179b578560060181815481106116bc576116bc613dff565b6000918252602090912001546001600160a01b031692506116dd3384610ec9565b91508115611793576001600160a01b03808416600081815260088901602090815260408083205433845260078c01835281842094845260059094019091529020558416156117315761172e82612a36565b91505b6117456001600160a01b0384168a84612b38565b886001600160a01b0316836001600160a01b03167f0aa4d283470c904c551d18bb894d37e17674920f3261a7f854be501e25f421b78460405161178a91815260200190565b60405180910390a35b60010161169f565b5097989297509195505050505050565b6000610b5e6103da83611613565b834211156117dd5760405163313c898160e11b815260048101859052602401611205565b60007f6e71edae12b1b97f4d1f60370fef10105fa2faae0126114a169c64845d6126c988888861182a8c6001600160a01b0316600090815260076020526040902080546001810190915590565b6040805160208101969096526001600160a01b0394851690860152929091166060840152608083015260a082015260c0810186905260e001604051602081830303815290604052805190602001209050600061188582612b5e565b9050600061189582878787612b8b565b9050896001600160a01b0316816001600160a01b0316146118dc576040516325c0072360e11b81526001600160a01b0380831660048301528b166024820152604401611205565b6118e78a8a8a611d0c565b50505050505050505050565b60008281526008602052604090206001015461190e81612002565b610c8b838361221b565b6000610b5e82611613565b6000611930848484612bb9565b9050610c4781611ec7565b6001600160a01b03918216600090815260016020908152604080832093909416825291909152205490565b7f74e458455daa935f28c556b43e0cc4ad001a8a090f5feee376681e97d4618f4661199081612002565b6119a7826000015183602001518460400151612c80565b5050565b6119b3612308565b6001600160a01b0381166119dd576000604051631e4fbdf760e01b81526004016112059190613b53565b6119e681612335565b50565b60006119f36120cc565b6001600160a01b0385166000908152600882016020526040902060010154909150339060ff16611a715760405162461bcd60e51b815260206004820152602360248201527f4865646572615661756c743a20496e636f72726563742072657761726420746f60448201526235b2b760e91b6064820152608401611205565b6000611a7d8287610ec9565b905083811015611ae65760405162461bcd60e51b815260206004820152602e60248201527f4865646572615661756c743a2041637475616c20726577617264206973206c6560448201526d1cdcc81d1a185b881c185cdcd95960921b6064820152608401611205565b6001600160a01b03821660009081526007840160205260409020548015611b65576000611b1c86670de0b6b3a76400008461273b565b6001600160a01b0380861660009081526007880160209081526040808320938d1683526005909301905290812080549293508392909190611b5e908490613e7f565b9091555050505b6001600160a01b0380841660009081526007860160209081526040808320938b1683526004909301905220548015611c1557858110611be6576001600160a01b0380851660009081526007870160209081526040808320938c168352600490930190529081208054889290611bdb908490613e2b565b90915550611c159050565b6001600160a01b0380851660009081526007870160209081526040808320938c16835260049093019052908120555b600a546001600160a01b031615611c3257611c2f86612a36565b95505b611c466001600160a01b0389168888612b38565b866001600160a01b0316886001600160a01b03167f0aa4d283470c904c551d18bb894d37e17674920f3261a7f854be501e25f421b788604051611c8b91815260200190565b60405180910390a35050505050505050565b60006001600160e01b03198216637965db0b60e01b1480610b5e57506301ffc9a760e01b6001600160e01b0319831614610b5e565b6000610c47611cdf610aa4565b611cea906001613e7f565b611cf66000600a613f76565b600254611d039190613e7f565b85919085612d3e565b610d9c8383836001612d8f565b6000610c47611d2982600a613f76565b600254611d369190613e7f565b611d3e610aa4565b611d03906001613e7f565b6000611d55848461193b565b90506000198114610c8b5781811015611d8757828183604051637dc7a0d960e11b815260040161120593929190613f85565b610c8b84848484036000612d8f565b6001600160a01b038316611dc0576000604051634b637e8f60e11b81526004016112059190613b53565b6001600160a01b038216611dea57600060405163ec442f0560e01b81526004016112059190613b53565b610d9c838383612e64565b600080611e006120cc565b6001600160a01b03841660009081526004820160209081526040808320338452909152902054909150611e3790849060ff16612f7b565b611e4083610dc5565b851115611e6e578285611e5285610dc5565b6040516356f1421360e01b815260040161120593929190613f85565b6001600160a01b03831660009081526002820160209081526040918290208251808401909352805483526001015490820152611eaa8187612faf565b9250611ebc8684878786600201612fc4565b509695505050505050565b6000611ed16120cc565b33600090815260078201602052604090206006015490915060ff16611f975760068101546000805b82811015611f5f57836006018181548110611f1657611f16613dff565b60009182526020808320909101546001600160a01b0316808352600887018252604080842054338552600789018452818520838652600501909352909220559150600101611ef9565b50503360009081526007929092016020525060409020818155600180820192909255426003820155600601805460ff19169091179055565b33600090815260078201602052604081208054849290611fb8908490613e7f565b909155505033600090815260078201602052604081206001018054849290611fe1908490613e7f565b90915550503360009081526007820160205260409020426003909101555050565b6119e68133613043565b60006120188383611148565b6120985760008381526008602090815260408083206001600160a01b03861684529091529020805460ff191660011790556120503390565b6001600160a01b0316826001600160a01b0316847f2f8788117e7eff1d82e926ec794901d17c78024a50270940304540a733656f0d60405160405180910390a4506001610b5e565b506000610b5e565b6000610b34817f0000000000000000000000000000000000000000000000000000000000000000613fa6565b7f66edf448d5bf7be6b4d59d8e281e5b0790ba1fdc49329b14b394277e0547430090565b6000306001600160a01b037f00000000000000000000000000000000000000000000000000000000000000001614801561214957507f000000000000000000000000000000000000000000000000000000000000000046145b1561217357507f000000000000000000000000000000000000000000000000000000000000000090565b610b34604080517f8b73c3c69bb8fe3d512ecc4cf759cc79239f7b179b0ffacaa9a75d522b39400f60208201527f0000000000000000000000000000000000000000000000000000000000000000918101919091527f000000000000000000000000000000000000000000000000000000000000000060608201524660808201523060a082015260009060c00160405160208183030381529060405280519060200120905090565b60006122278383611148565b156120985760008381526008602090815260408083206001600160a01b0386168085529252808320805460ff1916905551339286917ff6391f5c32d9c69d2a47ea670b442974b53935d1edc7fd64eb21e047a839171b9190a4506001610b5e565b60006127106122978385613e3e565b10156122f15760405162461bcd60e51b8152602060048201526024808201527f46433a20546f6f20736d616c6c20616d6f756e7420746f20636f6e73696465726044820152632066656560e01b6064820152608401611205565b6127106122fe8385613e3e565b610c479190613e6b565b600c546001600160a01b03163314611075573360405163118cdaa760e01b81526004016112059190613b53565b600c80546001600160a01b038381166001600160a01b0319831681179093556040519116919082907f8be0079c531659141344cd1fd0a4f28419497f9722a3daafe3b4186f6b6457e090600090a35050565b826000036123e15760405162461bcd60e51b815260206004820152602160248201527f4173796e635661756c743a20496e76616c69642073686172657320616d6f756e6044820152601d60fa1b6064820152608401611205565b6001600160a01b0382161580159061240157506001600160a01b03811615155b61241d5760405162461bcd60e51b815260040161120590613fbf565b60006124276120cc565b6001600160a01b038316600090815260048201602090815260408083203384529091528120549192509060ff1661245e5733612460565b825b6001600160a01b0385166000908152600184016020526040902054909150612488908661306e565b6001600160a01b03851660009081526001840160205260409020556111418585858461307a565b6001600160a01b0385166000908152602083905260409020546124d290856130ca565b6001600160a01b038616600090815260208481526040808320939093558390529081208054859290612505908490613e7f565b90915550506001600160a01b03851660009081526020829052604081206001018054869290612535908490613e7f565b90915550505050505050565b6060610b347f000000000000000000000000000000000000000000000000000000000000000060056130d6565b6060610b347f000000000000000000000000000000000000000000000000000000000000000060066130d6565b826000036125eb5760405162461bcd60e51b815260206004820181905260248201527f4173796e635661756c743a20496e76616c696420617373657420616d6f756e746044820152606401611205565b6001600160a01b0382161580159061260b57506001600160a01b03811615155b6126275760405162461bcd60e51b815260040161120590613fbf565b60006126316120cc565b6001600160a01b038316600090815260048201602090815260408083203384529091528120549192509060ff16612668573361266a565b825b6001600160a01b038516600090815260208490526040902054909150612690908661306e565b6001600160a01b03851660009081526020849052604090205561114185858584613181565b6001600160a01b0385166000908152602083905260409020546126d890856130ca565b6001600160a01b03861660009081526020848152604080832093909355839052908120805486929061270b908490613e7f565b90915550506001600160a01b03851660009081526020829052604081206001018054859290612535908490613e7f565b600082600019048411830215820261275257600080fd5b5091020490565b610c8b84856001600160a01b03166323b872dd86868660405160240161278193929190613a21565b604051602081830303815290604052915060e01b6020820180516001600160e01b0383818316178352505050506131e5565b6000806127be6120cc565b6001600160a01b038416600090815260048201602090815260408083203384529091529020549091506127f590849060ff16612f7b565b6127fe836117ab565b85111561282c578285612810856117ab565b604051633fa733bb60e21b815260040161120593929190613f85565b6001600160a01b038316600090815260038201602090815260409182902082518084019093528054835260010154908201526128688187612faf565b925061287a868487878660030161323f565b979650505050505050565b6000806128906120cc565b6001600160a01b038416600090815260048201602090815260408083203384529091529020549091506128c790849060ff16612f7b565b6128d083611918565b8511156128fe5782856128e285611918565b60405163f046f30360e01b815260040161120593929190613f85565b6001600160a01b0383166000908152600382016020908152604091829020825180840190935280548352600101549082015261293a8187613266565b9250611ebc838787878660030161323f565b6000806129576120cc565b6001600160a01b0384166000908152600782016020526040812060028101546001820154939450909261298a9190613e2b565b600584015460038401549192506000916129b291640100000000900463ffffffff1690613e7f565b9050804210806129c0575081155b156129d15750600095945050505050565b60058401546000906129e99063ffffffff1683613e7f565b90508042106129fa57829550612a2c565b6000612a068342613e2b565b600587015490915063ffffffff16612a1e8286613e3e565b612a289190613e6b565b9650505b5050505050919050565b600a54600b546000916001600160a01b0316908290612a56908590612288565b905080826001600160a01b03166370a08231306040518263ffffffff1660e01b8152600401612a859190613b53565b602060405180830381865afa158015612aa2573d6000803e3d6000fd5b505050506040513d601f19601f82011682018060405250810190612ac69190613dac565b1015612b145760405162461bcd60e51b815260206004820152601e60248201527f46433a20496e73756666696369656e7420746f6b656e2062616c616e636500006044820152606401611205565b600954612b2e906001600160a01b03848116911683612b38565b61152e8185613e2b565b610d9c83846001600160a01b031663a9059cbb8585604051602401612781929190614000565b6000610b5e612b6b6120f0565b8360405161190160f01b8152600281019290925260228201526042902090565b600080600080612b9d8888888861327b565b925092509250612bad8282613340565b50909695505050505050565b600080612bc46120cc565b6001600160a01b03841660009081526004820160209081526040808320338452909152902054909150612bfb90849060ff16612f7b565b612c04836115d7565b851115612c32578385612c16856115d7565b60405163284ff66760e01b815260040161120593929190613f85565b6001600160a01b03831660009081526002820160209081526040918290208251808401909352805483526001015490820152612c6e8187613266565b925061287a8387878786600201612fc4565b6127108110612cc35760405162461bcd60e51b815260206004820152600f60248201526e46433a20496e76616c69642066656560881b6044820152606401611205565b600980546001600160a01b038581166001600160a01b03199283168117909355600a8054918616919092168117909155600b83905560408051928352602083019190915281018290527febd34b2df88ea5c9f67c04b13b08e5e63c2d17e269aab73b866fe47a8736a2649060600160405180910390a1505050565b600080612d4c8686866133f9565b9050612d57836134bd565b8015612d73575060008480612d6e57612d6e613e55565b868809115b15612d8657612d83600182613e7f565b90505b95945050505050565b6001600160a01b038416612db957600060405163e602df0560e01b81526004016112059190613b53565b6001600160a01b038316612de3576000604051634a1406b160e11b81526004016112059190613b53565b6001600160a01b0380851660009081526001602090815260408083209387168352929052208290558015610c8b57826001600160a01b0316846001600160a01b03167f8c5be1e5ebec7d5bd14f71427d1e84f3dd0314c0f7b2291e5b200ac8c7c3b92584604051612e5691815260200190565b60405180910390a350505050565b6001600160a01b038316612e8f578060026000828254612e849190613e7f565b90915550612eee9050565b6001600160a01b03831660009081526020819052604090205481811015612ecf5783818360405163391434e360e21b815260040161120593929190613f85565b6001600160a01b03841660009081526020819052604090209082900390555b6001600160a01b038216612f0a57600280548290039055612f29565b6001600160a01b03821660009081526020819052604090208054820190555b816001600160a01b0316836001600160a01b03167fddf252ad1be2c89b69c2b068fc378daa952ba7f163c4a11628f55a4df523b3ef83604051612f6e91815260200190565b60405180910390a3505050565b336001600160a01b03831614801590612f915750805b156119a7576040516336abb4df60e11b815260040160405180910390fd5b6000610c47836020015183856000015161273b565b6001600160a01b0382811660008181526020848152604080832080548b9003815560010180548a9003905580518a8152918201899052919384939088169290917fdcbc1c05240f31ff3ad067ef1ee35ce4997762752e3a095284754544f4c709d7910160405180910390a361303985876134ea565b5093959350505050565b61304d8282611148565b6119a757808260405163e2517d3f60e01b8152600401611205929190614000565b6000610c478284613e7f565b613085813086612e64565b816001600160a01b0316836001600160a01b03167f9d2f438fa9d25ba84aa5ca2b229d4ad0edad29fa7299e8f7dab10d9bc582391c8387604051612e56929190614000565b6000610c478284613e2b565b606060ff83146130f0576130e983613520565b9050610b5e565b8180546130fc90613dc5565b80601f016020809104026020016040519081016040528092919081815260200182805461312890613dc5565b80156131755780601f1061314a57610100808354040283529160200191613175565b820191906000526020600020905b81548152906001019060200180831161315857829003601f168201915b50505050509050610b5e565b6131a081308661318f610da1565b6001600160a01b0316929190612759565b816001600160a01b0316836001600160a01b03167f21c9033b0fdf75a8e4138c4bd5aeae053eee01f1fbd47d59cde75ea492c156e38387604051612e56929190614000565b60006131fa6001600160a01b0384168361355f565b9050805160001415801561321f57508080602001905181019061321d9190614019565b155b15610d9c5782604051635274afe760e01b81526004016112059190613b53565b60008061324b8761356d565b61325887878787876135d8565b915091509550959350505050565b6000610c47836000015183856020015161273b565b600080806fa2a8918ca85bafe22016d0b997e4df60600160ff1b038411156132ac5750600091506003905082613336565b604080516000808252602082018084528a905260ff891692820192909252606081018790526080810186905260019060a0016020604051602081039080840390855afa158015613300573d6000803e3d6000fd5b5050604051601f1901519150506001600160a01b03811661332c57506000925060019150829050613336565b9250600091508190505b9450945094915050565b600082600381111561335457613354614036565b0361335d575050565b600182600381111561337157613371614036565b0361338f5760405163f645eedf60e01b815260040160405180910390fd5b60028260038111156133a3576133a3614036565b036133c45760405163fce698f760e01b815260048101829052602401611205565b60038260038111156133d8576133d8614036565b036119a7576040516335e2f38360e21b815260048101829052602401611205565b60008383028160001985870982811083820303915050806000036134305783828161342657613426613e55565b0492505050610c47565b8084116134505760405163227bc15360e01b815260040160405180910390fd5b6000848688096000868103871696879004966002600389028118808a02820302808a02820302808a02820302808a02820302808a02820302808a02909103029181900381900460010186841190950394909402919094039290920491909117919091029150509392505050565b600060028260038111156134d3576134d3614036565b6134dd919061404c565b60ff166001149050919050565b6001600160a01b03821661351457600060405163ec442f0560e01b81526004016112059190613b53565b6119a760008383612e64565b6060600061352d8361367f565b604080516020808252818301909252919250600091906020820181803683375050509182525060208101929092525090565b6060610c47838360006136a7565b61357633613744565b60006135806120cc565b3360009081526007820160205260408120805492935084929091906135a6908490613e2b565b9091555050336000908152600782016020526040812060020180548492906135cf908490613e7f565b90915550505050565b6001600160a01b038216600090815260208290526040812080548790038155600101805486900390558061360c3087613883565b6136298588613619610da1565b6001600160a01b03169190612b38565b60408051888152602081018890526001600160a01b03808716929088169133917ffbde797d201c681b91056529119e0b02407c7bb96a4a2c75c01fc9667232c8db910160405180910390a4509495939450505050565b600060ff8216601f811115610b5e57604051632cd44ac360e21b815260040160405180910390fd5b6060814710156136cc573060405163cd78605960e01b81526004016112059190613b53565b600080856001600160a01b031684866040516136e8919061406e565b60006040518083038185875af1925050503d8060008114613725576040519150601f19603f3d011682016040523d82523d6000602084013e61372a565b606091505b509150915061373a8683836138b9565b9695505050505050565b600061374e6120cc565b6001600160a01b0383166000908152600782016020526040812091925080808080805b60068801548110156138785787600601818154811061379257613792613dff565b60009182526020808320909101546001600160a01b031680835260088b0182526040808420805460058d0190945293205490985090965094508486116137d95760006137e3565b6137e38587613e2b565b93508315806137f157508754155b156137fc5750613870565b8754670de0b6b3a764000090613813908690613e3e565b61381d9190613e6b565b6001600160a01b038816600090815260048a01602052604081208054929550859290919061384c908490613e7f565b9091555050506001600160a01b038616600090815260058801602052604090208590555b600101613771565b505050505050505050565b6001600160a01b0382166138ad576000604051634b637e8f60e11b81526004016112059190613b53565b6119a782600083612e64565b6060826138ce576138c98261390c565b610c47565b81511580156138e557506001600160a01b0384163b155b156139055783604051639996b31560e01b81526004016112059190613b53565b5080610c47565b80511561391c5780518082602001fd5b604051630a12f52160e11b815260040160405180910390fd5b60006020828403121561394757600080fd5b81356001600160e01b031981168114610c4757600080fd5b60005b8381101561397a578181015183820152602001613962565b50506000910152565b6000815180845261399b81602086016020860161395f565b601f01601f19169290920160200192915050565b602081526000610c476020830184613983565b6000602082840312156139d457600080fd5b5035919050565b80356001600160a01b03811681146139f257600080fd5b919050565b60008060408385031215613a0a57600080fd5b613a13836139db565b946020939093013593505050565b6001600160a01b039384168152919092166020820152604081019190915260600190565b600080600060608486031215613a5a57600080fd5b613a63846139db565b9250613a71602085016139db565b9150604084013590509250925092565b600080600060608486031215613a9657600080fd5b83359250613aa6602085016139db565b9150613ab4604085016139db565b90509250925092565b60008060408385031215613ad057600080fd5b82359150613ae0602084016139db565b90509250929050565b600060208284031215613afb57600080fd5b610c47826139db565b60008151808452602080850194506020840160005b83811015613b3557815187529582019590820190600101613b19565b509495945050505050565b602081526000610c476020830184613b04565b6001600160a01b0391909116815260200190565b80151581146119e657600080fd5b60008060408385031215613b8857600080fd5b613b91836139db565b91506020830135613ba181613b67565b809150509250929050565b60008060408385031215613bbf57600080fd5b613bc8836139db565b9150613ae0602084016139db565b600060208284031215613be857600080fd5b813563ffffffff81168114610c4757600080fd5b60ff60f81b8816815260e060208201526000613c1b60e0830189613983565b8281036040840152613c2d8189613983565b606084018890526001600160a01b038716608085015260a0840186905283810360c08501529050613c5e8185613b04565b9a9950505050505050505050565b6020808252825182820181905260009190848201906040850190845b81811015612bad5783516001600160a01b031683529284019291840191600101613c88565b600080600080600080600060e0888a031215613cc857600080fd5b613cd1886139db565b9650613cdf602089016139db565b95506040880135945060608801359350608088013560ff81168114613d0357600080fd5b9699959850939692959460a0840135945060c09093013592915050565b634e487b7160e01b600052604160045260246000fd5b600060608284031215613d4857600080fd5b6040516060810181811067ffffffffffffffff82111715613d7957634e487b7160e01b600052604160045260246000fd5b604052613d85836139db565b8152613d93602084016139db565b6020820152604083013560408201528091505092915050565b600060208284031215613dbe57600080fd5b5051919050565b600181811c90821680613dd957607f821691505b602082108103613df957634e487b7160e01b600052602260045260246000fd5b50919050565b634e487b7160e01b600052603260045260246000fd5b634e487b7160e01b600052601160045260246000fd5b81810381811115610b5e57610b5e613e15565b8082028115828204841417610b5e57610b5e613e15565b634e487b7160e01b600052601260045260246000fd5b600082613e7a57613e7a613e55565b500490565b80820180821115610b5e57610b5e613e15565b600181815b80851115613ecd578160001904821115613eb357613eb3613e15565b80851615613ec057918102915b93841c9390800290613e97565b509250929050565b600082613ee457506001610b5e565b81613ef157506000610b5e565b8160018114613f075760028114613f1157613f2d565b6001915050610b5e565b60ff841115613f2257613f22613e15565b50506001821b610b5e565b5060208310610133831016604e8410600b8410161715613f50575081810a610b5e565b613f5a8383613e92565b8060001904821115613f6e57613f6e613e15565b029392505050565b6000610c4760ff841683613ed5565b6001600160a01b039390931683526020830191909152604082015260600190565b60ff8181168382160190811115610b5e57610b5e613e15565b60208082526021908201527f4173796e635661756c743a20496e76616c6964206f776e6572206164647265736040820152607360f81b606082015260800190565b6001600160a01b03929092168252602082015260400190565b60006020828403121561402b57600080fd5b8151610c4781613b67565b634e487b7160e01b600052602160045260246000fd5b600060ff83168061405f5761405f613e55565b8060ff84160691505092915050565b6000825161408081846020870161395f565b919091019291505056fea2646970667358221220d9e02722e2714974aa2914dbbedc554d3917d1dfda6250e7a53bcf2e3bfba00b64736f6c63430008180033",
  "linkReferences": {},
  "deployedLinkReferences": {}
}