{
  "_format": "hh-sol-artifact-1",
  "contractName": "AuditRegistry",
  "sourceName": "contracts/audit/AuditRegistry.sol",
  "abi": [
    {
      "inputs": [
        {
          "internalType": "address",
          "name": "initialOwner",
          "type": "address"
        }
      ],
      "stateMutability": "nonpayable",
      "type": "constructor"
    },
    {
      "inputs": [],
      "name": "AccessControlBadConfirmation",
      "type": "error"
    },
    {
      "inputs": [
        {
          "internalType": "address",
          "name": "account",
          "type": "address"
        },
        {
          "internalType": "bytes32",
          "name": "neededRole",
          "type": "bytes32"
        }
      ],
      "name": "AccessControlUnauthorizedAccount",
      "type": "error"
    },
    {
      "inputs": [],
      "name": "DuplicateIpfsHash",
      "type": "error"
    },
    {
      "anonymous": false,
      "inputs": [
        {
          "indexed": true,
          "internalType": "uint256",
          "name": "recordId",
          "type": "uint256"
        },
        {
          "indexed": true,
          "internalType": "address",
          "name": "building",
          "type": "address"
        },
        {
          "indexed": true,
          "internalType": "address",
          "name": "auditor",
          "type": "address"
        },
        {
          "indexed": false,
          "internalType": "string",
          "name": "ipfsHash",
          "type": "string"
        },
        {
          "indexed": false,
          "internalType": "uint256",
          "name": "timestamp",
          "type": "uint256"
        }
      ],
      "name": "AuditRecordAdded",
      "type": "event"
    },
    {
      "anonymous": false,
      "inputs": [
        {
          "indexed": true,
          "internalType": "uint256",
          "name": "recordId",
          "type": "uint256"
        },
        {
          "indexed": false,
          "internalType": "uint256",
          "name": "timestamp",
          "type": "uint256"
        }
      ],
      "name": "AuditRecordRevoked",
      "type": "event"
    },
    {
      "anonymous": false,
      "inputs": [
        {
          "indexed": true,
          "internalType": "uint256",
          "name": "recordId",
          "type": "uint256"
        },
        {
          "indexed": false,
          "internalType": "string",
          "name": "newIpfsHash",
          "type": "string"
        },
        {
          "indexed": false,
          "internalType": "uint256",
          "name": "timestamp",
          "type": "uint256"
        }
      ],
      "name": "AuditRecordUpdated",
      "type": "event"
    },
    {
      "anonymous": false,
      "inputs": [
        {
          "indexed": true,
          "internalType": "address",
          "name": "auditor",
          "type": "address"
        }
      ],
      "name": "AuditorAdded",
      "type": "event"
    },
    {
      "anonymous": false,
      "inputs": [
        {
          "indexed": true,
          "internalType": "address",
          "name": "auditor",
          "type": "address"
        }
      ],
      "name": "AuditorRemoved",
      "type": "event"
    },
    {
      "anonymous": false,
      "inputs": [
        {
          "indexed": true,
          "internalType": "address",
          "name": "governance",
          "type": "address"
        }
      ],
      "name": "GovernanceGranted",
      "type": "event"
    },
    {
      "anonymous": false,
      "inputs": [
        {
          "indexed": true,
          "internalType": "bytes32",
          "name": "role",
          "type": "bytes32"
        },
        {
          "indexed": true,
          "internalType": "bytes32",
          "name": "previousAdminRole",
          "type": "bytes32"
        },
        {
          "indexed": true,
          "internalType": "bytes32",
          "name": "newAdminRole",
          "type": "bytes32"
        }
      ],
      "name": "RoleAdminChanged",
      "type": "event"
    },
    {
      "anonymous": false,
      "inputs": [
        {
          "indexed": true,
          "internalType": "bytes32",
          "name": "role",
          "type": "bytes32"
        },
        {
          "indexed": true,
          "internalType": "address",
          "name": "account",
          "type": "address"
        },
        {
          "indexed": true,
          "internalType": "address",
          "name": "sender",
          "type": "address"
        }
      ],
      "name": "RoleGranted",
      "type": "event"
    },
    {
      "anonymous": false,
      "inputs": [
        {
          "indexed": true,
          "internalType": "bytes32",
          "name": "role",
          "type": "bytes32"
        },
        {
          "indexed": true,
          "internalType": "address",
          "name": "account",
          "type": "address"
        },
        {
          "indexed": true,
          "internalType": "address",
          "name": "sender",
          "type": "address"
        }
      ],
      "name": "RoleRevoked",
      "type": "event"
    },
    {
      "inputs": [],
      "name": "AUDITOR_ROLE",
      "outputs": [
        {
          "internalType": "bytes32",
          "name": "",
          "type": "bytes32"
        }
      ],
      "stateMutability": "view",
      "type": "function"
    },
    {
      "inputs": [],
      "name": "DEFAULT_ADMIN_ROLE",
      "outputs": [
        {
          "internalType": "bytes32",
          "name": "",
          "type": "bytes32"
        }
      ],
      "stateMutability": "view",
      "type": "function"
    },
    {
      "inputs": [],
      "name": "GOVERNANCE_ROLE",
      "outputs": [
        {
          "internalType": "bytes32",
          "name": "",
          "type": "bytes32"
        }
      ],
      "stateMutability": "view",
      "type": "function"
    },
    {
      "inputs": [
        {
          "internalType": "address",
          "name": "_building",
          "type": "address"
        },
        {
          "internalType": "string",
          "name": "_ipfsHash",
          "type": "string"
        }
      ],
      "name": "addAuditRecord",
      "outputs": [],
      "stateMutability": "nonpayable",
      "type": "function"
    },
    {
      "inputs": [
        {
          "internalType": "address",
          "name": "account",
          "type": "address"
        }
      ],
      "name": "addAuditor",
      "outputs": [],
      "stateMutability": "nonpayable",
      "type": "function"
    },
    {
      "inputs": [],
      "name": "auditRecordCounter",
      "outputs": [
        {
          "internalType": "uint256",
          "name": "",
          "type": "uint256"
        }
      ],
      "stateMutability": "view",
      "type": "function"
    },
    {
      "inputs": [
        {
          "internalType": "uint256",
          "name": "",
          "type": "uint256"
        }
      ],
      "name": "auditRecords",
      "outputs": [
        {
          "internalType": "address",
          "name": "building",
          "type": "address"
        },
        {
          "internalType": "address",
          "name": "auditor",
          "type": "address"
        },
        {
          "internalType": "uint64",
          "name": "timestamp",
          "type": "uint64"
        },
        {
          "internalType": "bool",
          "name": "revoked",
          "type": "bool"
        },
        {
          "internalType": "string",
          "name": "ipfsHash",
          "type": "string"
        }
      ],
      "stateMutability": "view",
      "type": "function"
    },
    {
      "inputs": [
        {
          "internalType": "address",
          "name": "",
          "type": "address"
        },
        {
          "internalType": "uint256",
          "name": "",
          "type": "uint256"
        }
      ],
      "name": "buildingAuditRecords",
      "outputs": [
        {
          "internalType": "uint256",
          "name": "",
          "type": "uint256"
        }
      ],
      "stateMutability": "view",
      "type": "function"
    },
    {
      "inputs": [
        {
          "internalType": "uint256",
          "name": "_recordId",
          "type": "uint256"
        }
      ],
      "name": "getAuditRecordDetails",
      "outputs": [
        {
          "components": [
            {
              "internalType": "address",
              "name": "building",
              "type": "address"
            },
            {
              "internalType": "address",
              "name": "auditor",
              "type": "address"
            },
            {
              "internalType": "uint64",
              "name": "timestamp",
              "type": "uint64"
            },
            {
              "internalType": "bool",
              "name": "revoked",
              "type": "bool"
            },
            {
              "internalType": "string",
              "name": "ipfsHash",
              "type": "string"
            }
          ],
          "internalType": "struct AuditRegistry.AuditRecord",
          "name": "",
          "type": "tuple"
        }
      ],
      "stateMutability": "view",
      "type": "function"
    },
    {
      "inputs": [
        {
          "internalType": "address",
          "name": "_building",
          "type": "address"
        }
      ],
      "name": "getAuditRecordsByBuilding",
      "outputs": [
        {
          "internalType": "uint256[]",
          "name": "",
          "type": "uint256[]"
        }
      ],
      "stateMutability": "view",
      "type": "function"
    },
    {
      "inputs": [],
      "name": "getAuditors",
      "outputs": [
        {
          "internalType": "address[]",
          "name": "",
          "type": "address[]"
        }
      ],
      "stateMutability": "view",
      "type": "function"
    },
    {
      "inputs": [
        {
          "internalType": "bytes32",
          "name": "role",
          "type": "bytes32"
        }
      ],
      "name": "getRoleAdmin",
      "outputs": [
        {
          "internalType": "bytes32",
          "name": "",
          "type": "bytes32"
        }
      ],
      "stateMutability": "view",
      "type": "function"
    },
    {
      "inputs": [
        {
          "internalType": "address",
          "name": "governance",
          "type": "address"
        }
      ],
      "name": "grantGovernanceRole",
      "outputs": [],
      "stateMutability": "nonpayable",
      "type": "function"
    },
    {
      "inputs": [
        {
          "internalType": "bytes32",
          "name": "role",
          "type": "bytes32"
        },
        {
          "internalType": "address",
          "name": "account",
          "type": "address"
        }
      ],
      "name": "grantRole",
      "outputs": [],
      "stateMutability": "nonpayable",
      "type": "function"
    },
    {
      "inputs": [
        {
          "internalType": "bytes32",
          "name": "role",
          "type": "bytes32"
        },
        {
          "internalType": "address",
          "name": "account",
          "type": "address"
        }
      ],
      "name": "hasRole",
      "outputs": [
        {
          "internalType": "bool",
          "name": "",
          "type": "bool"
        }
      ],
      "stateMutability": "view",
      "type": "function"
    },
    {
      "inputs": [
        {
          "internalType": "address",
          "name": "account",
          "type": "address"
        }
      ],
      "name": "removeAuditor",
      "outputs": [],
      "stateMutability": "nonpayable",
      "type": "function"
    },
    {
      "inputs": [
        {
          "internalType": "bytes32",
          "name": "role",
          "type": "bytes32"
        },
        {
          "internalType": "address",
          "name": "callerConfirmation",
          "type": "address"
        }
      ],
      "name": "renounceRole",
      "outputs": [],
      "stateMutability": "nonpayable",
      "type": "function"
    },
    {
      "inputs": [
        {
          "internalType": "uint256",
          "name": "_recordId",
          "type": "uint256"
        }
      ],
      "name": "revokeAuditRecord",
      "outputs": [],
      "stateMutability": "nonpayable",
      "type": "function"
    },
    {
      "inputs": [
        {
          "internalType": "bytes32",
          "name": "role",
          "type": "bytes32"
        },
        {
          "internalType": "address",
          "name": "account",
          "type": "address"
        }
      ],
      "name": "revokeRole",
      "outputs": [],
      "stateMutability": "nonpayable",
      "type": "function"
    },
    {
      "inputs": [
        {
          "internalType": "bytes4",
          "name": "interfaceId",
          "type": "bytes4"
        }
      ],
      "name": "supportsInterface",
      "outputs": [
        {
          "internalType": "bool",
          "name": "",
          "type": "bool"
        }
      ],
      "stateMutability": "view",
      "type": "function"
    },
    {
      "inputs": [
        {
          "internalType": "uint256",
          "name": "_recordId",
          "type": "uint256"
        },
        {
          "internalType": "string",
          "name": "_newIpfsHash",
          "type": "string"
        }
      ],
      "name": "updateAuditRecord",
      "outputs": [],
      "stateMutability": "nonpayable",
      "type": "function"
    }
  ],
  "bytecode": "0x60806040523480156200001157600080fd5b5060405162001aa238038062001aa28339810160408190526200003491620000f8565b6200004160008262000049565b50506200012a565b6000828152602081815260408083206001600160a01b038516845290915281205460ff16620000ee576000838152602081815260408083206001600160a01b03861684529091529020805460ff19166001179055620000a53390565b6001600160a01b0316826001600160a01b0316847f2f8788117e7eff1d82e926ec794901d17c78024a50270940304540a733656f0d60405160405180910390a4506001620000f2565b5060005b92915050565b6000602082840312156200010b57600080fd5b81516001600160a01b03811681146200012357600080fd5b9392505050565b611968806200013a6000396000f3fe608060405234801561001057600080fd5b50600436106101375760003560e01c806360360700116100b8578063d547741f1161007c578063d547741f14610297578063e429cef1146102aa578063e6116cfd146102bd578063e74e786d146102d0578063e95cf444146102f4578063f36c8f5c1461030757600080fd5b806360360700146102415780636e1d616e1461025457806391d1485414610269578063a217fddf1461027c578063c9e398441461028457600080fd5b806336568abe116100ff57806336568abe146101dd5780633f76730f146101f05780634afb29c61461021057806357de4a6e146102195780635949ea691461022e57600080fd5b806301ffc9a71461013c578063129b25af14610164578063237f4bcc14610179578063248a9ca3146101995780632f2ff15d146101ca575b600080fd5b61014f61014a366004611245565b61031c565b60405190151581526020015b60405180910390f35b6101776101723660046112d3565b610353565b005b61018c610187366004611325565b6105ad565b60405161015b9190611340565b6101bc6101a7366004611384565b60009081526020819052604090206001015490565b60405190815260200161015b565b6101776101d836600461139d565b610619565b6101776101eb36600461139d565b610644565b6102036101fe366004611384565b61067c565b60405161015b919061140f565b6101bc60015481565b6102216107a7565b60405161015b9190611471565b61017761023c3660046114b2565b610809565b61017761024f366004611325565b61099a565b6101bc60008051602061191383398151915281565b61014f61027736600461139d565b610a5e565b6101bc600081565b610177610292366004611384565b610a87565b6101776102a536600461139d565b610b8b565b6101776102b8366004611325565b610bb0565b6101776102cb366004611325565b610c8a565b6102e36102de366004611384565b610e91565b60405161015b9594939291906114e4565b6101bc610302366004611532565b610f68565b6101bc6000805160206118f383398151915281565b60006001600160e01b03198216637965db0b60e01b148061034d57506301ffc9a760e01b6001600160e01b03198316145b92915050565b60008051602061191383398151915261036b81610f99565b6001600160a01b0384166103d65760405162461bcd60e51b815260206004820152602760248201527f417564697452656769737472793a20496e76616c6964206275696c64696e67206044820152666164647265737360c81b60648201526084015b60405180910390fd5b816103f35760405162461bcd60e51b81526004016103cd9061155c565b6103fe848484610fa6565b1561041c57604051635d922ec360e01b815260040160405180910390fd5b6001805490600061042c836115b6565b90915550506001546040805160a0810182526001600160a01b0387168152336020808301919091526001600160401b03421682840152600060608301528251601f8701829004820281018201909352858352909160808301918790879081908401838280828437600092018290525093909452505083815260026020818152604092839020855181546001600160a01b039182166001600160a01b0319909116178255918601516001820180549588015160608901511515600160e01b0260ff60e01b196001600160401b03909216600160a01b026001600160e01b0319909816939095169290921795909517169190911790925560808401519192508201906105369082611684565b5050506001600160a01b0385166000818152600360209081526040808320805460018101825590845291909220018390555133919083907f9238fb7e1f523c52ddf4024bdcb41357b62ed007c90dac38ee13e1c72e0c0a809061059e9089908990429061173d565b60405180910390a45050505050565b6001600160a01b03811660009081526003602090815260409182902080548351818402810184019094528084526060939283018282801561060d57602002820191906000526020600020905b8154815260200190600101908083116105f9575b50505050509050919050565b60008281526020819052604090206001015461063481610f99565b61063e83836110e5565b50505050565b6001600160a01b038116331461066d5760405163334bd91960e11b815260040160405180910390fd5b6106778282611177565b505050565b6040805160a0810182526000808252602082018190529181018290526060808201929092526080810191909152600082815260026020818152604092839020835160a08101855281546001600160a01b039081168252600183015490811693820193909352600160a01b83046001600160401b031694810194909452600160e01b90910460ff1615156060840152908101805460808401919061071e906115e5565b80601f016020809104026020016040519081016040528092919081815260200182805461074a906115e5565b80156107975780601f1061076c57610100808354040283529160200191610797565b820191906000526020600020905b81548152906001019060200180831161077a57829003601f168201915b5050505050815250509050919050565b606060048054806020026020016040519081016040528092919081815260200182805480156107ff57602002820191906000526020600020905b81546001600160a01b031681526001909101906020018083116107e1575b5050505050905090565b60008051602061191383398151915261082181610f99565b8161083e5760405162461bcd60e51b81526004016103cd9061155c565b600084815260026020526040902060018101546001600160a01b031633146108785760405162461bcd60e51b81526004016103cd90611776565b6001810154600160e01b900460ff16156108ea5760405162461bcd60e51b815260206004820152602d60248201527f417564697452656769737472793a2043616e6e6f74207570646174652061207260448201526c195d9bdad959081c9958dbdc99609a1b60648201526084016103cd565b8054610900906001600160a01b03168585610fa6565b1561091e57604051635d922ec360e01b815260040160405180910390fd5b6002810161092d8486836117bd565b50428160010160146101000a8154816001600160401b0302191690836001600160401b03160217905550847f7d88a6413bdea2f765837b2027d150e8d9eff6811a00e7b32ce22566577ae32185854260405161098b9392919061173d565b60405180910390a25050505050565b60006109a581610f99565b6001600160a01b038216610a0d5760405162461bcd60e51b815260206004820152602960248201527f417564697452656769737472793a20496e76616c696420676f7665726e616e6360448201526865206164647265737360b81b60648201526084016103cd565b610a256000805160206118f3833981519152836110e5565b506040516001600160a01b038316907f99d301cb63de6de357dff7544322430ca35a4aad08d16db2b426e61def18e44a90600090a25050565b6000918252602082815260408084206001600160a01b0393909316845291905290205460ff1690565b600080516020611913833981519152610a9f81610f99565b600082815260026020526040902060018101546001600160a01b03163314610ad95760405162461bcd60e51b81526004016103cd90611776565b6001810154600160e01b900460ff1615610b355760405162461bcd60e51b815260206004820152601e60248201527f417564697452656769737472793a20416c7265616479207265766f6b6564000060448201526064016103cd565b60018101805460ff60e01b1916600160e01b17905560405183907fe4839e81aa65ee9120ee35c9291915fa224f6ae0bfab747215ee7f0b5368a19390610b7e9042815260200190565b60405180910390a2505050565b600082815260208190526040902060010154610ba681610f99565b61063e8383611177565b6000805160206118f3833981519152610bc881610f99565b6001600160a01b038216610bee5760405162461bcd60e51b81526004016103cd90611877565b600480546001810182556000919091527f8a35acfbc15ff81a39ae7d344fd709f28e8600b4aa8c65c6b64bfe7fe36bd19b0180546001600160a01b0319166001600160a01b038416179055610c51600080516020611913833981519152836110e5565b506040516001600160a01b038316907f2c31044378cc14466459f09320dd4057d7ad6e99b194c0800c78227383a2529690600090a25050565b6000805160206118f3833981519152610ca281610f99565b6001600160a01b038216610cc85760405162461bcd60e51b81526004016103cd90611877565b610ce060008051602061191383398151915283610a5e565b610d285760405162461bcd60e51b815260206004820152601960248201527820b1b1b7bab73a1034b9903737ba1030b71030bab234ba37b960391b60448201526064016103cd565b60005b600454811015610e3f57826001600160a01b031660048281548110610d5257610d526118a0565b6000918252602090912001546001600160a01b031603610e3757805b600454610d7d906001906118b6565b811015610dfe576004610d918260016118c9565b81548110610da157610da16118a0565b600091825260209091200154600480546001600160a01b039092169183908110610dcd57610dcd6118a0565b600091825260209091200180546001600160a01b0319166001600160a01b0392909216919091179055600101610d6e565b506004805480610e1057610e106118dc565b600082815260209020810160001990810180546001600160a01b0319169055019055610e3f565b600101610d2b565b50610e5860008051602061191383398151915283611177565b506040516001600160a01b038316907fd3e803f2dfdacd206b7d19aa46d847206386d84e3dc6b8de0926e54affa6fddc90600090a25050565b60026020819052600091825260409091208054600182015492820180546001600160a01b039283169492831693600160a01b84046001600160401b031693600160e01b900460ff16929091610ee5906115e5565b80601f0160208091040260200160405190810160405280929190818152602001828054610f11906115e5565b8015610f5e5780601f10610f3357610100808354040283529160200191610f5e565b820191906000526020600020905b815481529060010190602001808311610f4157829003601f168201915b5050505050905085565b60036020528160005260406000208181548110610f8457600080fd5b90600052602060002001600091509150505481565b610fa381336111e2565b50565b6001600160a01b0383166000908152600360205260408120815b81548110156110db576110c360026000848481548110610fe257610fe26118a0565b906000526020600020015481526020019081526020016000206002018054611009906115e5565b80601f0160208091040260200160405190810160405280929190818152602001828054611035906115e5565b80156110825780601f1061105757610100808354040283529160200191611082565b820191906000526020600020905b81548152906001019060200180831161106557829003601f168201915b505050505086868080601f01602080910402602001604051908101604052809392919081815260200183838082843760009201919091525061121f92505050565b156110d3576001925050506110de565b600101610fc0565b50505b9392505050565b60006110f18383610a5e565b61116f576000838152602081815260408083206001600160a01b03861684529091529020805460ff191660011790556111273390565b6001600160a01b0316826001600160a01b0316847f2f8788117e7eff1d82e926ec794901d17c78024a50270940304540a733656f0d60405160405180910390a450600161034d565b50600061034d565b60006111838383610a5e565b1561116f576000838152602081815260408083206001600160a01b0386168085529252808320805460ff1916905551339286917ff6391f5c32d9c69d2a47ea670b442974b53935d1edc7fd64eb21e047a839171b9190a450600161034d565b6111ec8282610a5e565b61121b5760405163e2517d3f60e01b81526001600160a01b0382166004820152602481018390526044016103cd565b5050565b6000815183511480156110de575081805190602001208380519060200120149392505050565b60006020828403121561125757600080fd5b81356001600160e01b0319811681146110de57600080fd5b80356001600160a01b038116811461128657600080fd5b919050565b60008083601f84011261129d57600080fd5b5081356001600160401b038111156112b457600080fd5b6020830191508360208285010111156112cc57600080fd5b9250929050565b6000806000604084860312156112e857600080fd5b6112f18461126f565b925060208401356001600160401b0381111561130c57600080fd5b6113188682870161128b565b9497909650939450505050565b60006020828403121561133757600080fd5b6110de8261126f565b6020808252825182820181905260009190848201906040850190845b818110156113785783518352928401929184019160010161135c565b50909695505050505050565b60006020828403121561139657600080fd5b5035919050565b600080604083850312156113b057600080fd5b823591506113c06020840161126f565b90509250929050565b6000815180845260005b818110156113ef576020818501810151868301820152016113d3565b506000602082860101526020601f19601f83011685010191505092915050565b60208152600060018060a01b03808451166020840152806020850151166040840152506001600160401b036040840151166060830152606083015115156080830152608083015160a08084015261146960c08401826113c9565b949350505050565b6020808252825182820181905260009190848201906040850190845b818110156113785783516001600160a01b03168352928401929184019160010161148d565b6000806000604084860312156114c757600080fd5b8335925060208401356001600160401b0381111561130c57600080fd5b6001600160a01b038681168252851660208201526001600160401b0384166040820152821515606082015260a060808201819052600090611527908301846113c9565b979650505050505050565b6000806040838503121561154557600080fd5b61154e8361126f565b946020939093013593505050565b60208082526024908201527f417564697452656769737472793a2049504653206861736820697320726571756040820152631a5c995960e21b606082015260800190565b634e487b7160e01b600052601160045260246000fd5b6000600182016115c8576115c86115a0565b5060010190565b634e487b7160e01b600052604160045260246000fd5b600181811c908216806115f957607f821691505b60208210810361161957634e487b7160e01b600052602260045260246000fd5b50919050565b601f821115610677576000816000526020600020601f850160051c810160208610156116485750805b601f850160051c820191505b8181101561166757828155600101611654565b505050505050565b600019600383901b1c191660019190911b1790565b81516001600160401b0381111561169d5761169d6115cf565b6116b1816116ab84546115e5565b8461161f565b602080601f8311600181146116e057600084156116ce5750858301515b6116d8858261166f565b865550611667565b600085815260208120601f198616915b8281101561170f578886015182559484019460019091019084016116f0565b508582101561172d5787850151600019600388901b60f8161c191681555b5050505050600190811b01905550565b604081528260408201528284606083013760006060848301015260006060601f19601f8601168301019050826020830152949350505050565b60208082526027908201527f417564697452656769737472793a204e6f7420746865206f726967696e616c2060408201526630bab234ba37b960c91b606082015260800190565b6001600160401b038311156117d4576117d46115cf565b6117e8836117e283546115e5565b8361161f565b6000601f84116001811461181657600085156118045750838201355b61180e868261166f565b845550611870565b600083815260209020601f19861690835b828110156118475786850135825560209485019460019092019101611827565b50868210156118645760001960f88860031b161c19848701351681555b505060018560011b0183555b5050505050565b6020808252600f908201526e496e76616c6964206164647265737360881b604082015260600190565b634e487b7160e01b600052603260045260246000fd5b8181038181111561034d5761034d6115a0565b8082018082111561034d5761034d6115a0565b634e487b7160e01b600052603160045260246000fdfe71840dc4906352362b0cdaf79870196c8e42acafade72d5d5a6d59291253ceb159a1c48e5837ad7a7f3dcedcbe129bf3249ec4fbf651fd4f5e2600ead39fe2f5a2646970667358221220085bdf384c043da7f668ecaf227370296b9922978582e7fa56ec46b2c14e2f3d64736f6c63430008180033",
  "linkReferences": {},
  "deployedLinkReferences": {}
}