{
  "_format": "hh-sol-artifact-1",
  "contractName": "BuildingIdentityFactory",
  "sourceName": "contracts/buildings/BuildingIdentityFactory.sol",
  "abi": [
    {
      "inputs": [
        {
          "internalType": "address",
          "name": "_idFactory",
          "type": "address"
        }
      ],
      "stateMutability": "nonpayable",
      "type": "constructor"
    },
    {
      "inputs": [],
      "name": "AccessControlBadConfirmation",
      "type": "error"
    },
    {
      "inputs": [
        {
          "internalType": "address",
          "name": "account",
          "type": "address"
        },
        {
          "internalType": "bytes32",
          "name": "neededRole",
          "type": "bytes32"
        }
      ],
      "name": "AccessControlUnauthorizedAccount",
      "type": "error"
    },
    {
      "inputs": [
        {
          "internalType": "uint256",
          "name": "value",
          "type": "uint256"
        },
        {
          "internalType": "uint256",
          "name": "length",
          "type": "uint256"
        }
      ],
      "name": "StringsInsufficientHexLength",
      "type": "error"
    },
    {
      "inputs": [],
      "name": "ZeroAddress",
      "type": "error"
    },
    {
      "anonymous": false,
      "inputs": [
        {
          "indexed": true,
          "internalType": "bytes32",
          "name": "role",
          "type": "bytes32"
        },
        {
          "indexed": true,
          "internalType": "bytes32",
          "name": "previousAdminRole",
          "type": "bytes32"
        },
        {
          "indexed": true,
          "internalType": "bytes32",
          "name": "newAdminRole",
          "type": "bytes32"
        }
      ],
      "name": "RoleAdminChanged",
      "type": "event"
    },
    {
      "anonymous": false,
      "inputs": [
        {
          "indexed": true,
          "internalType": "bytes32",
          "name": "role",
          "type": "bytes32"
        },
        {
          "indexed": true,
          "internalType": "address",
          "name": "account",
          "type": "address"
        },
        {
          "indexed": true,
          "internalType": "address",
          "name": "sender",
          "type": "address"
        }
      ],
      "name": "RoleGranted",
      "type": "event"
    },
    {
      "anonymous": false,
      "inputs": [
        {
          "indexed": true,
          "internalType": "bytes32",
          "name": "role",
          "type": "bytes32"
        },
        {
          "indexed": true,
          "internalType": "address",
          "name": "account",
          "type": "address"
        },
        {
          "indexed": true,
          "internalType": "address",
          "name": "sender",
          "type": "address"
        }
      ],
      "name": "RoleRevoked",
      "type": "event"
    },
    {
      "inputs": [],
      "name": "DEFAULT_ADMIN_ROLE",
      "outputs": [
        {
          "internalType": "bytes32",
          "name": "",
          "type": "bytes32"
        }
      ],
      "stateMutability": "view",
      "type": "function"
    },
    {
      "inputs": [],
      "name": "IDENTITY_DEPLOYER_ROLE",
      "outputs": [
        {
          "internalType": "bytes32",
          "name": "",
          "type": "bytes32"
        }
      ],
      "stateMutability": "view",
      "type": "function"
    },
    {
      "inputs": [
        {
          "internalType": "address",
          "name": "identityOwner",
          "type": "address"
        }
      ],
      "name": "createIdentity",
      "outputs": [
        {
          "internalType": "address",
          "name": "",
          "type": "address"
        }
      ],
      "stateMutability": "nonpayable",
      "type": "function"
    },
    {
      "inputs": [
        {
          "internalType": "address",
          "name": "identityOwner",
          "type": "address"
        }
      ],
      "name": "getIdentity",
      "outputs": [
        {
          "internalType": "address",
          "name": "",
          "type": "address"
        }
      ],
      "stateMutability": "view",
      "type": "function"
    },
    {
      "inputs": [
        {
          "internalType": "bytes32",
          "name": "role",
          "type": "bytes32"
        }
      ],
      "name": "getRoleAdmin",
      "outputs": [
        {
          "internalType": "bytes32",
          "name": "",
          "type": "bytes32"
        }
      ],
      "stateMutability": "view",
      "type": "function"
    },
    {
      "inputs": [
        {
          "internalType": "bytes32",
          "name": "role",
          "type": "bytes32"
        },
        {
          "internalType": "address",
          "name": "account",
          "type": "address"
        }
      ],
      "name": "grantRole",
      "outputs": [],
      "stateMutability": "nonpayable",
      "type": "function"
    },
    {
      "inputs": [
        {
          "internalType": "bytes32",
          "name": "role",
          "type": "bytes32"
        },
        {
          "internalType": "address",
          "name": "account",
          "type": "address"
        }
      ],
      "name": "hasRole",
      "outputs": [
        {
          "internalType": "bool",
          "name": "",
          "type": "bool"
        }
      ],
      "stateMutability": "view",
      "type": "function"
    },
    {
      "inputs": [
        {
          "internalType": "bytes32",
          "name": "role",
          "type": "bytes32"
        },
        {
          "internalType": "address",
          "name": "callerConfirmation",
          "type": "address"
        }
      ],
      "name": "renounceRole",
      "outputs": [],
      "stateMutability": "nonpayable",
      "type": "function"
    },
    {
      "inputs": [
        {
          "internalType": "bytes32",
          "name": "role",
          "type": "bytes32"
        },
        {
          "internalType": "address",
          "name": "account",
          "type": "address"
        }
      ],
      "name": "revokeRole",
      "outputs": [],
      "stateMutability": "nonpayable",
      "type": "function"
    },
    {
      "inputs": [
        {
          "internalType": "bytes4",
          "name": "interfaceId",
          "type": "bytes4"
        }
      ],
      "name": "supportsInterface",
      "outputs": [
        {
          "internalType": "bool",
          "name": "",
          "type": "bool"
        }
      ],
      "stateMutability": "view",
      "type": "function"
    }
  ],
  "bytecode": "0x608060405234801561001057600080fd5b50604051610a11380380610a1183398101604081905261002f91610133565b600180546001600160a01b0319166001600160a01b038316179055610055600033610087565b506100807f8c4743b6327fce0f1875729bcd1bd8e2f2bdc7ca72e7b28962dcc76b0ecaa3da33610087565b5050610163565b6000828152602081815260408083206001600160a01b038516845290915281205460ff16610129576000838152602081815260408083206001600160a01b03861684529091529020805460ff191660011790556100e13390565b6001600160a01b0316826001600160a01b0316847f2f8788117e7eff1d82e926ec794901d17c78024a50270940304540a733656f0d60405160405180910390a450600161012d565b5060005b92915050565b60006020828403121561014557600080fd5b81516001600160a01b038116811461015c57600080fd5b9392505050565b61089f806101726000396000f3fe608060405234801561001057600080fd5b506004361061009e5760003560e01c80635b2ab06c116100665780635b2ab06c1461014f5780637de52b631461016257806391d1485414610189578063a217fddf1461019c578063d547741f146101a457600080fd5b806301ffc9a7146100a3578063248a9ca3146100cb5780632f2ff15d146100fc5780632fea7b811461011157806336568abe1461013c575b600080fd5b6100b66100b13660046106c5565b6101b7565b60405190151581526020015b60405180910390f35b6100ee6100d93660046106ef565b60009081526020819052604090206001015490565b6040519081526020016100c2565b61010f61010a36600461071d565b6101ee565b005b61012461011f36600461074d565b610219565b6040516001600160a01b0390911681526020016100c2565b61010f61014a36600461071d565b610288565b61012461015d36600461074d565b6102c0565b6100ee7f8c4743b6327fce0f1875729bcd1bd8e2f2bdc7ca72e7b28962dcc76b0ecaa3da81565b6100b661019736600461071d565b610395565b6100ee600081565b61010f6101b236600461071d565b6103be565b60006001600160e01b03198216637965db0b60e01b14806101e857506301ffc9a760e01b6001600160e01b03198316145b92915050565b600082815260208190526040902060010154610209816103e3565b61021383836103f0565b50505050565b600154604051632fea7b8160e01b81526001600160a01b0383811660048301526000921690632fea7b8190602401602060405180830381865afa158015610264573d6000803e3d6000fd5b505050506040513d601f19601f820116820180604052508101906101e8919061076a565b6001600160a01b03811633146102b15760405163334bd91960e11b815260040160405180910390fd5b6102bb8282610482565b505050565b60007f8c4743b6327fce0f1875729bcd1bd8e2f2bdc7ca72e7b28962dcc76b0ecaa3da6102ec816103e3565b6001600160a01b0383166103135760405163d92e233d60e01b815260040160405180910390fd5b6001546001600160a01b0316638e952bfe8461032e816104ed565b6040518363ffffffff1660e01b815260040161034b929190610787565b6020604051808303816000875af115801561036a573d6000803e3d6000fd5b505050506040513d601f19601f8201168201806040525081019061038e919061076a565b9392505050565b6000918252602082815260408084206001600160a01b0393909316845291905290205460ff1690565b6000828152602081905260409020600101546103d9816103e3565b6102138383610482565b6103ed8133610503565b50565b60006103fc8383610395565b61047a576000838152602081815260408083206001600160a01b03861684529091529020805460ff191660011790556104323390565b6001600160a01b0316826001600160a01b0316847f2f8788117e7eff1d82e926ec794901d17c78024a50270940304540a733656f0d60405160405180910390a45060016101e8565b5060006101e8565b600061048e8383610395565b1561047a576000838152602081815260408083206001600160a01b0386168085529252808320805460ff1916905551339286917ff6391f5c32d9c69d2a47ea670b442974b53935d1edc7fd64eb21e047a839171b9190a45060016101e8565b60606101e86001600160a01b0383166014610545565b61050d8282610395565b6105415760405163e2517d3f60e01b81526001600160a01b0382166004820152602481018390526044015b60405180910390fd5b5050565b60608260006105558460026107fc565b610560906002610813565b67ffffffffffffffff81111561057857610578610826565b6040519080825280601f01601f1916602001820160405280156105a2576020820181803683370190505b509050600360fc1b816000815181106105bd576105bd61083c565b60200101906001600160f81b031916908160001a905350600f60fb1b816001815181106105ec576105ec61083c565b60200101906001600160f81b031916908160001a90535060006106108560026107fc565b61061b906001610813565b90505b6001811115610693576f181899199a1a9b1b9c1cb0b131b232b360811b83600f166010811061064f5761064f61083c565b1a60f81b8282815181106106655761066561083c565b60200101906001600160f81b031916908160001a90535060049290921c9161068c81610852565b905061061e565b5081156106bd5760405163e22e27eb60e01b81526004810186905260248101859052604401610538565b949350505050565b6000602082840312156106d757600080fd5b81356001600160e01b03198116811461038e57600080fd5b60006020828403121561070157600080fd5b5035919050565b6001600160a01b03811681146103ed57600080fd5b6000806040838503121561073057600080fd5b82359150602083013561074281610708565b809150509250929050565b60006020828403121561075f57600080fd5b813561038e81610708565b60006020828403121561077c57600080fd5b815161038e81610708565b60018060a01b03831681526000602060406020840152835180604085015260005b818110156107c4578581018301518582016060015282016107a8565b506000606082860101526060601f19601f830116850101925050509392505050565b634e487b7160e01b600052601160045260246000fd5b80820281158282048414176101e8576101e86107e6565b808201808211156101e8576101e86107e6565b634e487b7160e01b600052604160045260246000fd5b634e487b7160e01b600052603260045260246000fd5b600081610861576108616107e6565b50600019019056fea2646970667358221220f4139903d118ceb5b5d7e954d5d2949a8ea90b3aff9310b4097f971c449d812664736f6c63430008180033",
  "linkReferences": {},
  "deployedLinkReferences": {}
}