{
  "_format": "hh-sol-artifact-1",
  "contractName": "BuildingFactoryMock",
  "sourceName": "contracts/buildings/mock/BuildingFactoryMock.sol",
  "abi": [
    {
      "inputs": [],
      "name": "InvalidInitialization",
      "type": "error"
    },
    {
      "inputs": [],
      "name": "NotInitializing",
      "type": "error"
    },
    {
      "inputs": [
        {
          "internalType": "address",
          "name": "owner",
          "type": "address"
        }
      ],
      "name": "OwnableInvalidOwner",
      "type": "error"
    },
    {
      "inputs": [
        {
          "internalType": "address",
          "name": "account",
          "type": "address"
        }
      ],
      "name": "OwnableUnauthorizedAccount",
      "type": "error"
    },
    {
      "anonymous": false,
      "inputs": [
        {
          "indexed": false,
          "internalType": "address",
          "name": "building",
          "type": "address"
        },
        {
          "indexed": false,
          "internalType": "address",
          "name": "module",
          "type": "address"
        }
      ],
      "name": "ComplianceModuleAdded",
      "type": "event"
    },
    {
      "anonymous": false,
      "inputs": [
        {
          "indexed": false,
          "internalType": "address",
          "name": "building",
          "type": "address"
        },
        {
          "indexed": false,
          "internalType": "address",
          "name": "wallet",
          "type": "address"
        },
        {
          "indexed": false,
          "internalType": "address",
          "name": "identity",
          "type": "address"
        },
        {
          "indexed": false,
          "internalType": "uint16",
          "name": "country",
          "type": "uint16"
        }
      ],
      "name": "IdentityRegistered",
      "type": "event"
    },
    {
      "anonymous": false,
      "inputs": [
        {
          "indexed": false,
          "internalType": "uint64",
          "name": "version",
          "type": "uint64"
        }
      ],
      "name": "Initialized",
      "type": "event"
    },
    {
      "anonymous": false,
      "inputs": [
        {
          "indexed": false,
          "internalType": "address",
          "name": "buildingAddress",
          "type": "address"
        },
        {
          "indexed": false,
          "internalType": "address",
          "name": "erc3643Token",
          "type": "address"
        },
        {
          "indexed": false,
          "internalType": "address",
          "name": "treasury",
          "type": "address"
        },
        {
          "indexed": false,
          "internalType": "address",
          "name": "vault",
          "type": "address"
        },
        {
          "indexed": false,
          "internalType": "address",
          "name": "governance",
          "type": "address"
        },
        {
          "indexed": false,
          "internalType": "address",
          "name": "initialOwner",
          "type": "address"
        },
        {
          "indexed": false,
          "internalType": "address",
          "name": "autoCompounder",
          "type": "address"
        }
      ],
      "name": "NewBuilding",
      "type": "event"
    },
    {
      "anonymous": false,
      "inputs": [
        {
          "indexed": true,
          "internalType": "address",
          "name": "previousOwner",
          "type": "address"
        },
        {
          "indexed": true,
          "internalType": "address",
          "name": "newOwner",
          "type": "address"
        }
      ],
      "name": "OwnershipTransferred",
      "type": "event"
    },
    {
      "anonymous": false,
      "inputs": [
        {
          "indexed": false,
          "internalType": "address",
          "name": "agent",
          "type": "address"
        }
      ],
      "name": "RegistryAgentRemoved",
      "type": "event"
    },
    {
      "anonymous": false,
      "inputs": [
        {
          "indexed": false,
          "internalType": "address[]",
          "name": "agents",
          "type": "address[]"
        }
      ],
      "name": "RegistryAgentsAdded",
      "type": "event"
    },
    {
      "inputs": [
        {
          "internalType": "address[]",
          "name": "agents",
          "type": "address[]"
        }
      ],
      "name": "addRegistryAgents",
      "outputs": [],
      "stateMutability": "nonpayable",
      "type": "function"
    },
    {
      "inputs": [
        {
          "internalType": "address",
          "name": "wallet",
          "type": "address"
        }
      ],
      "name": "deployIdentityForWallet",
      "outputs": [
        {
          "internalType": "address",
          "name": "",
          "type": "address"
        }
      ],
      "stateMutability": "nonpayable",
      "type": "function"
    },
    {
      "inputs": [
        {
          "internalType": "address",
          "name": "buildingAddress",
          "type": "address"
        }
      ],
      "name": "getBuildingDetails",
      "outputs": [
        {
          "components": [
            {
              "internalType": "address",
              "name": "addr",
              "type": "address"
            },
            {
              "internalType": "uint256",
              "name": "nftId",
              "type": "uint256"
            },
            {
              "internalType": "string",
              "name": "tokenURI",
              "type": "string"
            },
            {
              "internalType": "address",
              "name": "identity",
              "type": "address"
            },
            {
              "internalType": "address",
              "name": "erc3643Token",
              "type": "address"
            },
            {
              "internalType": "address",
              "name": "treasury",
              "type": "address"
            },
            {
              "internalType": "address",
              "name": "governance",
              "type": "address"
            },
            {
              "internalType": "address",
              "name": "vault",
              "type": "address"
            },
            {
              "internalType": "address",
              "name": "autoCompounder",
              "type": "address"
            }
          ],
          "internalType": "struct BuildingFactoryStorage.BuildingDetails",
          "name": "",
          "type": "tuple"
        }
      ],
      "stateMutability": "view",
      "type": "function"
    },
    {
      "inputs": [],
      "name": "getBuildingList",
      "outputs": [
        {
          "components": [
            {
              "internalType": "address",
              "name": "addr",
              "type": "address"
            },
            {
              "internalType": "uint256",
              "name": "nftId",
              "type": "uint256"
            },
            {
              "internalType": "string",
              "name": "tokenURI",
              "type": "string"
            },
            {
              "internalType": "address",
              "name": "identity",
              "type": "address"
            },
            {
              "internalType": "address",
              "name": "erc3643Token",
              "type": "address"
            },
            {
              "internalType": "address",
              "name": "treasury",
              "type": "address"
            },
            {
              "internalType": "address",
              "name": "governance",
              "type": "address"
            },
            {
              "internalType": "address",
              "name": "vault",
              "type": "address"
            },
            {
              "internalType": "address",
              "name": "autoCompounder",
              "type": "address"
            }
          ],
          "internalType": "struct BuildingFactoryStorage.BuildingDetails[]",
          "name": "",
          "type": "tuple[]"
        }
      ],
      "stateMutability": "view",
      "type": "function"
    },
    {
      "inputs": [
        {
          "internalType": "address",
          "name": "wallet",
          "type": "address"
        }
      ],
      "name": "getIdentity",
      "outputs": [
        {
          "internalType": "contract IIdentity",
          "name": "",
          "type": "address"
        }
      ],
      "stateMutability": "view",
      "type": "function"
    },
    {
      "inputs": [],
      "name": "getRegistryAgents",
      "outputs": [
        {
          "internalType": "address[]",
          "name": "",
          "type": "address[]"
        }
      ],
      "stateMutability": "view",
      "type": "function"
    },
    {
      "inputs": [
        {
          "internalType": "address",
          "name": "_nft",
          "type": "address"
        },
        {
          "internalType": "address",
          "name": "_uniswapRouter",
          "type": "address"
        },
        {
          "internalType": "address",
          "name": "_uniswapFactory",
          "type": "address"
        },
        {
          "internalType": "address",
          "name": "_onchainIdGateway",
          "type": "address"
        },
        {
          "internalType": "address",
          "name": "_trexGateway",
          "type": "address"
        },
        {
          "internalType": "address",
          "name": "_usdc",
          "type": "address"
        },
        {
          "internalType": "address",
          "name": "_buildingBeacon",
          "type": "address"
        },
        {
          "internalType": "address",
          "name": "_treasuryBeacon",
          "type": "address"
        },
        {
          "internalType": "address",
          "name": "_governanceBeacon",
          "type": "address"
        }
      ],
      "name": "initialize",
      "outputs": [],
      "stateMutability": "nonpayable",
      "type": "function"
    },
    {
      "inputs": [
        {
          "components": [
            {
              "internalType": "string",
              "name": "tokenURI",
              "type": "string"
            },
            {
              "internalType": "string",
              "name": "tokenName",
              "type": "string"
            },
            {
              "internalType": "string",
              "name": "tokenSymbol",
              "type": "string"
            },
            {
              "internalType": "uint8",
              "name": "tokenDecimals",
              "type": "uint8"
            },
            {
              "internalType": "uint256",
              "name": "tokenMintAmount",
              "type": "uint256"
            },
            {
              "internalType": "uint256",
              "name": "treasuryReserveAmount",
              "type": "uint256"
            },
            {
              "internalType": "uint256",
              "name": "treasuryNPercent",
              "type": "uint256"
            },
            {
              "internalType": "string",
              "name": "governanceName",
              "type": "string"
            },
            {
              "internalType": "string",
              "name": "vaultShareTokenName",
              "type": "string"
            },
            {
              "internalType": "string",
              "name": "vaultShareTokenSymbol",
              "type": "string"
            },
            {
              "internalType": "address",
              "name": "vaultFeeReceiver",
              "type": "address"
            },
            {
              "internalType": "address",
              "name": "vaultFeeToken",
              "type": "address"
            },
            {
              "internalType": "uint256",
              "name": "vaultFeePercentage",
              "type": "uint256"
            },
            {
              "internalType": "uint32",
              "name": "vaultCliff",
              "type": "uint32"
            },
            {
              "internalType": "uint32",
              "name": "vaultUnlockDuration",
              "type": "uint32"
            },
            {
              "internalType": "string",
              "name": "aTokenName",
              "type": "string"
            },
            {
              "internalType": "string",
              "name": "aTokenSymbol",
              "type": "string"
            }
          ],
          "internalType": "struct BuildingFactoryStorage.NewBuildingDetails",
          "name": "details",
          "type": "tuple"
        }
      ],
      "name": "newBuilding",
      "outputs": [
        {
          "components": [
            {
              "internalType": "address",
              "name": "addr",
              "type": "address"
            },
            {
              "internalType": "uint256",
              "name": "nftId",
              "type": "uint256"
            },
            {
              "internalType": "string",
              "name": "tokenURI",
              "type": "string"
            },
            {
              "internalType": "address",
              "name": "identity",
              "type": "address"
            },
            {
              "internalType": "address",
              "name": "erc3643Token",
              "type": "address"
            },
            {
              "internalType": "address",
              "name": "treasury",
              "type": "address"
            },
            {
              "internalType": "address",
              "name": "governance",
              "type": "address"
            },
            {
              "internalType": "address",
              "name": "vault",
              "type": "address"
            },
            {
              "internalType": "address",
              "name": "autoCompounder",
              "type": "address"
            }
          ],
          "internalType": "struct BuildingFactoryStorage.BuildingDetails",
          "name": "buildingDetails",
          "type": "tuple"
        }
      ],
      "stateMutability": "nonpayable",
      "type": "function"
    },
    {
      "inputs": [],
      "name": "owner",
      "outputs": [
        {
          "internalType": "address",
          "name": "",
          "type": "address"
        }
      ],
      "stateMutability": "view",
      "type": "function"
    },
    {
      "inputs": [
        {
          "internalType": "address",
          "name": "buildingAddress",
          "type": "address"
        },
        {
          "internalType": "address",
          "name": "wallet",
          "type": "address"
        },
        {
          "internalType": "uint16",
          "name": "country",
          "type": "uint16"
        }
      ],
      "name": "registerIdentity",
      "outputs": [],
      "stateMutability": "nonpayable",
      "type": "function"
    },
    {
      "inputs": [
        {
          "internalType": "address",
          "name": "agent",
          "type": "address"
        }
      ],
      "name": "removeRegistryAgent",
      "outputs": [],
      "stateMutability": "nonpayable",
      "type": "function"
    },
    {
      "inputs": [],
      "name": "renounceOwnership",
      "outputs": [],
      "stateMutability": "nonpayable",
      "type": "function"
    },
    {
      "inputs": [
        {
          "internalType": "address",
          "name": "newOwner",
          "type": "address"
        }
      ],
      "name": "transferOwnership",
      "outputs": [],
      "stateMutability": "nonpayable",
      "type": "function"
    },
    {
      "inputs": [],
      "name": "version",
      "outputs": [
        {
          "internalType": "string",
          "name": "",
          "type": "string"
        }
      ],
      "stateMutability": "pure",
      "type": "function"
    }
  ],
  "bytecode": "0x60806040523480156200001157600080fd5b506200001c62000022565b620000d6565b7ff0c57e16840df040f15088dc2f81fe391c3923bec73e23a9662efc9c229c6a00805468010000000000000000900460ff1615620000735760405163f92ee8a960e01b815260040160405180910390fd5b80546001600160401b0390811614620000d35780546001600160401b0319166001600160401b0390811782556040519081527fc7f505b2f371ae2175ee4913f4499e1f2633a7b5936321eed1cdaeb6115181d29060200160405180910390a15b50565b613bde80620000e66000396000f3fe60806040523480156200001157600080fd5b5060043610620000da5760003560e01c8063715018a61162000086578063715018a614620001bb578063899a0ebe14620001c55780638da5cb5b14620001dc578063d5f51ccd14620001e6578063db652ec814620001fd578063f2fde38b1462000216578063f5e95acb146200022d57600080fd5b806240c4b014620000df5780632fea7b8114620001015780633e8e6e8b1462000127578063454a03e0146200013e57806354fd4d501462000157578063665fa4a1146200017e57806370fb525714620001a4575b600080fd5b620000e962000244565b604051620000f8919062002aff565b60405180910390f35b620001186200011236600462002b76565b620002b4565b604051620000f8919062002b96565b620001186200013836600462002b76565b620003be565b620001556200014f36600462002baa565b6200044c565b005b60408051808201825260038152620322e360ec1b60208201529051620000f8919062002c4a565b620001956200018f36600462002b76565b620007f5565b604051620000f8919062002d1e565b62000155620001b536600462002b76565b62000945565b6200015562000adb565b62000195620001d636600462002d33565b62000af3565b6200011862000b0e565b62000155620001f736600462002d87565b62000b3c565b6200020762000c96565b604051620000f8919062002e59565b620001556200022736600462002b76565b62000e15565b620001556200023e36600462002ec1565b62000e5a565b606060006200025262000f6f565b60098101805460408051602080840282018101909252828152939450830182828015620002a957602002820191906000526020600020905b81546001600160a01b031681526001909101906020018083116200028a575b505050505091505090565b600080620002c162000f6f565b905060008160040160009054906101000a90046001600160a01b03166001600160a01b03166378e751a66040518163ffffffff1660e01b8152600401602060405180830381865afa1580156200031b573d6000803e3d6000fd5b505050506040513d601f19601f8201168201806040525081019062000341919062002f90565b604051632fea7b8160e01b81529091506001600160a01b03821690632fea7b81906200037290879060040162002b96565b602060405180830381865afa15801562000390573d6000803e3d6000fd5b505050506040513d601f19601f82011682018060405250810190620003b6919062002f90565b949350505050565b600080620003cb62000f6f565b600480820154604051633e8e6e8b60e01b81529293506001600160a01b031691633e8e6e8b91620003ff9187910162002b96565b6020604051808303816000875af11580156200041f573d6000803e3d6000fd5b505050506040513d601f19601f8201168201806040525081019062000445919062002f90565b9392505050565b60006200045862000f6f565b6001600160a01b038086166000908152600c830160209081526040808320815161012081018352815490951685526001810154928501929092526002820180549596509294919290840191620004ae9062002fb0565b80601f0160208091040260200160405190810160405280929190818152602001828054620004dc9062002fb0565b80156200052d5780601f1062000501576101008083540402835291602001916200052d565b820191906000526020600020905b8154815290600101906020018083116200050f57829003601f168201915b505050918352505060038201546001600160a01b039081166020808401919091526004808501548316604080860191909152600586015484166060860152600686015484166080808701919091526007870154851660a0870152600890960154841660c09095019490945293850151878501548451633c73a8d360e11b81529451969750909560009591909316936378e751a693818301939290918290030181865afa158015620005e2573d6000803e3d6000fd5b505050506040513d601f19601f8201168201806040525081019062000608919062002f90565b90506000826001600160a01b031663134e18f46040518163ffffffff1660e01b8152600401602060405180830381865afa1580156200064b573d6000803e3d6000fd5b505050506040513d601f19601f8201168201806040525081019062000671919062002f90565b90506000826001600160a01b0316632fea7b81896040518263ffffffff1660e01b8152600401620006a3919062002b96565b602060405180830381865afa158015620006c1573d6000803e3d6000fd5b505050506040513d601f19601f82011682018060405250810190620006e7919062002f90565b90506001600160a01b038116620007455760405162461bcd60e51b815260206004820152601d60248201527f4964656e7469747920666f722077616c6c6574206e6f7420666f756e6400000060448201526064015b60405180910390fd5b60405163022a501f60e51b81526001600160a01b0383169063454a03e09062000777908b9085908c9060040162002fec565b600060405180830381600087803b1580156200079257600080fd5b505af1158015620007a7573d6000803e3d6000fd5b505050507f6680dc6d23915f02197cb4ac29f4b00443a14ca1cbe22d6b93045c32b98a82378989838a604051620007e2949392919062003013565b60405180910390a1505050505050505050565b620007ff62002a97565b60006200080b62000f6f565b6001600160a01b038085166000908152600c8301602090815260409182902082516101208101845281549094168452600181015491840191909152600281018054949550929390929184019190620008639062002fb0565b80601f0160208091040260200160405190810160405280929190818152602001828054620008919062002fb0565b8015620008e25780601f10620008b657610100808354040283529160200191620008e2565b820191906000526020600020905b815481529060010190602001808311620008c457829003601f168201915b505050918352505060038201546001600160a01b0390811660208301526004830154811660408301526005830154811660608301526006830154811660808301526007830154811660a083015260089092015490911660c0909101529392505050565b6200094f62000f93565b6001600160a01b038116620009785760405162461bcd60e51b81526004016200073c9062003040565b60006200098462000f6f565b90506009810160005b815481101562000ad557836001600160a01b0316828281548110620009b657620009b66200306f565b6000918252602090912001546001600160a01b03160362000acc5781548290620009e3906001906200309b565b81548110620009f657620009f66200306f565b9060005260206000200160009054906101000a90046001600160a01b031682828154811062000a295762000a296200306f565b9060005260206000200160006101000a8154816001600160a01b0302191690836001600160a01b031602179055508180548062000a6a5762000a6a620030b1565b600082815260209020810160001990810180546001600160a01b03191690550190556040517ffd640fa9b46f14c0708e03114f4007b6a72edb4389a12da691527d9ffb6d0de29062000abe90869062002b96565b60405180910390a162000ad5565b6001016200098d565b50505050565b62000ae562000f93565b62000af1600062000fca565b565b62000afd62002a97565b62000b08826200103b565b92915050565b7f9016d09d72d40fdae2fd8ceac6b6234c7706214fd39c1cd1e609a0528c199300546001600160a01b031690565b62000b4662000f93565b601e8151111562000b8d5760405162461bcd60e51b815260206004820152601060248201526f06d6178206167656e74732069732033360841b60448201526064016200073c565b600062000b9962000f6f565b905060005b825181101562000c585760006001600160a01b031683828151811062000bc85762000bc86200306f565b60200260200101516001600160a01b03160362000bf95760405162461bcd60e51b81526004016200073c9062003040565b8160090183828151811062000c125762000c126200306f565b60209081029190910181015182546001808201855560009485529290932090920180546001600160a01b0319166001600160a01b03909316929092179091550162000b9e565b507f841421fc38b9d27338042dbea7f73d4c58c28c36fc74c5a5aa3d363043e76fae8260405162000c8a919062002aff565b60405180910390a15050565b6060600062000ca462000f6f565b600b810180546040805160208084028201810190925282815293945060009084015b8282101562000e0b57600084815260209081902060408051610120810182526009860290920180546001600160a01b031683526001810154938301939093526002830180549293929184019162000d1d9062002fb0565b80601f016020809104026020016040519081016040528092919081815260200182805462000d4b9062002fb0565b801562000d9c5780601f1062000d705761010080835404028352916020019162000d9c565b820191906000526020600020905b81548152906001019060200180831162000d7e57829003601f168201915b505050918352505060038201546001600160a01b039081166020808401919091526004840154821660408401526005840154821660608401526006840154821660808401526007840154821660a08401526008909301541660c090910152908252600192909201910162000cc6565b5050505091505090565b62000e1f62000f93565b6001600160a01b03811662000e4c576000604051631e4fbdf760e01b81526004016200073c919062002b96565b62000e578162000fca565b50565b600062000e6662001f98565b805490915060ff600160401b82041615906001600160401b031660008115801562000e8e5750825b90506000826001600160401b0316600114801562000eab5750303b155b90508115801562000eba575080155b1562000ed95760405163f92ee8a960e01b815260040160405180910390fd5b845467ffffffffffffffff19166001178555831562000f0457845460ff60401b1916600160401b1785555b62000f178e8e8e8e8e8e8e8e8e62001fbc565b831562000f5f57845460ff60401b19168555604051600181527fc7f505b2f371ae2175ee4913f4499e1f2633a7b5936321eed1cdaeb6115181d2906020015b60405180910390a15b5050505050505050505050505050565b7f0f40dde8b99b0722537b774c6ef775b5e5a0af035d95bf9802cd87411f806f0090565b3362000f9e62000b0e565b6001600160a01b03161462000af1573360405163118cdaa760e01b81526004016200073c919062002b96565b7f9016d09d72d40fdae2fd8ceac6b6234c7706214fd39c1cd1e609a0528c19930080546001600160a01b031981166001600160a01b03848116918217845560405192169182907f8be0079c531659141344cd1fd0a4f28419497f9722a3daafe3b4186f6b6457e090600090a3505050565b6200104562002a97565b60006200105162000f6f565b600381015460405191925033916000916001600160a01b03169063189acdbd60e31b906200108490859060240162002b96565b60408051601f198184030181529181526020820180516001600160e01b03166001600160e01b0319909416939093179092529051620010c39062002ae4565b620010d0929190620030c7565b604051809103906000f080158015620010ed573d6000803e3d6000fd5b506040805160e0810182526001600160a01b03808616825260058701541660208083019190915292935060009273__$6bcf1faf5c0920414dc51cd0daeb07e0f7$__92633af9cf1e92919082019062001149908b018b620030ed565b8080601f0160208091040260200160405190810160405280939291908181526020018383808284376000920191909152505050908252506020016200119260408b018b620030ed565b8080601f016020809104026020016040519081016040528093929190818152602001838380828437600092019190915250505090825250602001620011de60808b0160608c0162003136565b60ff168152602001620011f062002235565b8152602001620011ff620023a7565b8152506040518263ffffffff1660e01b8152600401620012209190620031a2565b602060405180830381865af41580156200123e573d6000803e3d6000fd5b505050506040513d601f19601f8201168201806040525081019062001264919062002f90565b6040805160e08101825260068701546001600160a01b0390811682528681166020830181815260a08c81013585870190815260c0808f0135606088019081526080880195865260078e0154871693880193845230918801918252975163af15b96960e01b8152965186166004880152925185166024870152516044860152945160648501529051821660848401529251811660a4830152915190911660c482015290915060009073__$6dd86c1de004dc2dd48a17c9065be1de70$__9063af15b9699060e401602060405180830381865af415801562001348573d6000803e3d6000fd5b505050506040513d601f19601f820116820180604052508101906200136e919062002f90565b9050600073__$e6502af67ab2c746a64bc3775a7b8857c1$__63cd6856ef604051806101400160405280866001600160a01b031681526020018b806101000190620013ba9190620030ed565b8080601f016020809104026020016040519081016040528093929190818152602001838380828437600092019190915250505090825250602001620014046101208d018d620030ed565b8080601f016020809104026020016040519081016040528093929190818152602001838380828437600092019190915250505090825250602001620014526101608d016101408e0162002b76565b6001600160a01b03168152602001620014746101808d016101608e0162002b76565b6001600160a01b0390811682526101808d013560208301528916604082018190526060820152608001620014b16101c08d016101a08e0162003267565b63ffffffff168152602001620014d06101e08d016101c08e0162003267565b63ffffffff168152506040518263ffffffff1660e01b8152600401620014f791906200328f565b602060405180830381865af415801562001515573d6000803e3d6000fd5b505050506040513d601f19601f820116820180604052508101906200153b919062002f90565b6040805160a08101825260088901546001600160a01b0390811682528616602082015291925060009173__$9b19b7f7ded493586f11dad0d7ebc9ca26$__9163d88d8110919081016200159260e08e018e620030ed565b8080601f0160208091040260200160405190810160405280939291908181526020018383808284376000920191909152505050908252506001600160a01b0380881660208301528a16604091820152516001600160e01b031960e084901b16815262001602919060040162003374565b602060405180830381865af415801562001620573d6000803e3d6000fd5b505050506040513d601f19601f8201168201806040525081019062001646919062002f90565b6040805160c08101825260018a01546001600160a01b039081168252858116602083015260078b0154169181019190915290915060009073__$3080f05ed92e5505050a1e3d528e8c5fcb$__9063ea5fb3369060608101620016ad6101e08f018f620030ed565b8080601f016020809104026020016040519081016040528093929190818152602001838380828437600092019190915250505090825250602001620016f76102008f018f620030ed565b8080601f0160208091040260200160405190810160405280939291908181526020018383808284376000920191909152505050908252506001600160a01b038b166020909101526040516001600160e01b031960e084901b168152620017619190600401620033d6565b602060405180830381865af41580156200177f573d6000803e3d6000fd5b505050506040513d601f19601f82011682018060405250810190620017a5919062002f90565b88549091506000906001600160a01b031663d0def52188620017c88e80620030ed565b6040518463ffffffff1660e01b8152600401620017e89392919062003458565b6020604051808303816000875af115801562001808573d6000803e3d6000fd5b505050506040513d601f19601f820116820180604052508101906200182e919062003498565b60408051600580825260c08201909252919250600091906020820160a08036833701905050905088816000815181106200186c576200186c6200306f565b6001600160a01b0392831660209182029290920101526001808c015483519216918391908110620018a157620018a16200306f565b60200260200101906001600160a01b031690816001600160a01b0316815250508481600281518110620018d857620018d86200306f565b60200260200101906001600160a01b031690816001600160a01b03168152505082816003815181106200190f576200190f6200306f565b6001600160a01b03928316602091820292909201015260028b015460078c01546200194192918216918a911662002490565b816004815181106200195757620019576200306f565b60200260200101906001600160a01b031690816001600160a01b0316815250506200198488888362002562565b6040516260360760e81b81526001600160a01b03871690636036070090620019b190879060040162002b96565b600060405180830381600087803b158015620019cc57600080fd5b505af1158015620019e1573d6000803e3d6000fd5b50506040516312b5ad0160e11b81526001600160a01b038916925063256b5a02915062001a1390889060040162002b96565b600060405180830381600087803b15801562001a2e57600080fd5b505af115801562001a43573d6000803e3d6000fd5b5050604051632f2ff15d60e01b81527f477fc23fb51bb5d5aa814872a393b0e4f35d0916c7503c0fd96584681070d41060048201526001600160a01b03898116602483015288169250632f2ff15d9150604401600060405180830381600087803b15801562001ab157600080fd5b505af115801562001ac6573d6000803e3d6000fd5b50505050866001600160a01b03166340c10f198a8e608001356040518363ffffffff1660e01b815260040162001b119291906001600160a01b03929092168252602082015260400190565b600060405180830381600087803b15801562001b2c57600080fd5b505af115801562001b41573d6000803e3d6000fd5b505060405163f2fde38b60e01b81526001600160a01b038816925063f2fde38b915062001b73908c9060040162002b96565b600060405180830381600087803b15801562001b8e57600080fd5b505af115801562001ba3573d6000803e3d6000fd5b505060405163f2fde38b60e01b81526001600160a01b038616925063f2fde38b915062001bd5908c9060040162002b96565b600060405180830381600087803b15801562001bf057600080fd5b505af115801562001c05573d6000803e3d6000fd5b505060408051610120810182526001600160a01b038c1681526020810186905292508201905062001c378e80620030ed565b8080601f016020809104026020016040519081016040528093929190818152602001838380828437600092018290525093855250505060208083018290526001600160a01b038b81166040808601919091528b8216606086015289821660808601528a821660a086015288821660c0909501949094528c81168352600c8f01825291839020845181546001600160a01b0319169316929092178255830151600182015590820151919c508c91600282019062001cf4908262003507565b5060608201518160030160006101000a8154816001600160a01b0302191690836001600160a01b0316021790555060808201518160040160006101000a8154816001600160a01b0302191690836001600160a01b0316021790555060a08201518160050160006101000a8154816001600160a01b0302191690836001600160a01b0316021790555060c08201518160060160006101000a8154816001600160a01b0302191690836001600160a01b0316021790555060e08201518160070160006101000a8154816001600160a01b0302191690836001600160a01b031602179055506101008201518160080160006101000a8154816001600160a01b0302191690836001600160a01b0316021790555090505089600b018b908060018154018082558091505060019003906000526020600020906009020160009091909190915060008201518160000160006101000a8154816001600160a01b0302191690836001600160a01b0316021790555060208201518160010155604082015181600201908162001e83919062003507565b506060828101516003830180546001600160a01b03199081166001600160a01b0393841617909155608080860151600486018054841691851691909117905560a080870151600587018054851691861691909117905560c080880151600688018054861691871691909117905560e0808901516007890180548716918816919091179055610100909801516008909701805490941696851696909617909255604080518f851681528e851660208201528d8516918101919091528b841694810194909452898316908401528d8216908301528616918101919091527f3163bceb365c85326c53476ceb0b49cfacb67f6d675e6eeb739c58ceb8b20bb6910160405180910390a150505050505050505050919050565b7ff0c57e16840df040f15088dc2f81fe391c3923bec73e23a9662efc9c229c6a0090565b600062001fc862001f98565b805490915060ff600160401b82041615906001600160401b031660008115801562001ff05750825b90506000826001600160401b031660011480156200200d5750303b155b9050811580156200201c575080155b156200203b5760405163f92ee8a960e01b815260040160405180910390fd5b845467ffffffffffffffff1916600117855583156200206657845460ff60401b1916600160401b1785555b620020713362002937565b60006200207d62000f6f565b90508e8160000160006101000a8154816001600160a01b0302191690836001600160a01b031602179055508d8160010160006101000a8154816001600160a01b0302191690836001600160a01b031602179055508c8160020160006101000a8154816001600160a01b0302191690836001600160a01b03160217905550888160030160006101000a8154816001600160a01b0302191690836001600160a01b031602179055508b8160040160006101000a8154816001600160a01b0302191690836001600160a01b031602179055508a8160050160006101000a8154816001600160a01b0302191690836001600160a01b03160217905550878160060160006101000a8154816001600160a01b0302191690836001600160a01b03160217905550898160070160006101000a8154816001600160a01b0302191690836001600160a01b03160217905550868160080160006101000a8154816001600160a01b0302191690836001600160a01b0316021790555050831562000f5f57845460ff60401b19168555604051600181527fc7f505b2f371ae2175ee4913f4499e1f2633a7b5936321eed1cdaeb6115181d29060200162000f56565b606060006200224362000f6f565b60098101549091506000906200225b906002620035d3565b6001600160401b0381111562002275576200227562002d71565b6040519080825280602002602001820160405280156200229f578160200160208202803683370190505b50905060005b60098301548110156200231e57826009018181548110620022ca57620022ca6200306f565b9060005260206000200160009054906101000a90046001600160a01b0316828281518110620022fd57620022fd6200306f565b6001600160a01b0390921660209283029190910190910152600101620022a5565b503081600183516200233191906200309b565b815181106200234457620023446200306f565b60200260200101906001600160a01b031690816001600160a01b0316815250503381600283516200237691906200309b565b815181106200238957620023896200306f565b6001600160a01b039092166020928302919091019091015292915050565b60606000620023b562000f6f565b600a810154909150600090620023cd906002620035d3565b6001600160401b03811115620023e757620023e762002d71565b60405190808252806020026020018201604052801562002411578160200160208202803683370190505b50905060005b600a8301548110156200231e5782600a0181815481106200243c576200243c6200306f565b9060005260206000200160009054906101000a90046001600160a01b03168282815181106200246f576200246f6200306f565b6001600160a01b039092166020928302919091019091015260010162002417565b6000806000620024a185856200294c565b6040516001600160601b0319606084811b8216602084015283901b1660348201529193509150869060480160405160208183030381529060405280519060200120604051602001620025409291906001600160f81b0319815260609290921b6001600160601b031916600183015260158201527fdea1222ed22817f96ed20157be156c80808da15c079040548d4487a79708fe8e603582015260550190565b60408051601f1981840301815291905280516020909101209695505050505050565b60006200256e62000f6f565b905060008160040160009054906101000a90046001600160a01b031690506000846001600160a01b031663134e18f46040518163ffffffff1660e01b8152600401602060405180830381865afa158015620025cd573d6000803e3d6000fd5b505050506040513d601f19601f82011682018060405250810190620025f3919062002f90565b905060005b84518110156200292e576000836001600160a01b03166378e751a66040518163ffffffff1660e01b8152600401602060405180830381865afa15801562002643573d6000803e3d6000fd5b505050506040513d601f19601f8201168201806040525081019062002669919062002f90565b6001600160a01b0316632fea7b818784815181106200268c576200268c6200306f565b60200260200101516040518263ffffffff1660e01b8152600401620026b2919062002b96565b602060405180830381865afa158015620026d0573d6000803e3d6000fd5b505050506040513d601f19601f82011682018060405250810190620026f6919062002f90565b90506103486001600160a01b0382166200279d57846001600160a01b0316633e8e6e8b8885815181106200272e576200272e6200306f565b60200260200101516040518263ffffffff1660e01b815260040162002754919062002b96565b6020604051808303816000875af115801562002774573d6000803e3d6000fd5b505050506040513d601f19601f820116820180604052508101906200279a919062002f90565b91505b60006001600160a01b0316846001600160a01b031663f0eb5e54898681518110620027cc57620027cc6200306f565b60200260200101516040518263ffffffff1660e01b8152600401620027f2919062002b96565b602060405180830381865afa15801562002810573d6000803e3d6000fd5b505050506040513d601f19601f8201168201806040525081019062002836919062002f90565b6001600160a01b0316036200292357836001600160a01b031663454a03e08885815181106200286957620028696200306f565b602002602001015184846040518463ffffffff1660e01b8152600401620028939392919062002fec565b600060405180830381600087803b158015620028ae57600080fd5b505af1158015620028c3573d6000803e3d6000fd5b505050507f6680dc6d23915f02197cb4ac29f4b00443a14ca1cbe22d6b93045c32b98a823789888581518110620028fe57620028fe6200306f565b602002602001015184846040516200291a949392919062003013565b60405180910390a15b5050600101620025f8565b50505050505050565b6200294162002a49565b62000e578162002a71565b600080826001600160a01b0316846001600160a01b031603620029c05760405162461bcd60e51b815260206004820152602560248201527f556e697377617056324c6962726172793a204944454e544943414c5f41444452604482015264455353455360d81b60648201526084016200073c565b826001600160a01b0316846001600160a01b031610620029e2578284620029e5565b83835b90925090506001600160a01b03821662002a425760405162461bcd60e51b815260206004820152601e60248201527f556e697377617056324c6962726172793a205a45524f5f41444452455353000060448201526064016200073c565b9250929050565b62002a5362002a7b565b62000af157604051631afcd79f60e31b815260040160405180910390fd5b62000e1f62002a49565b600062002a8762001f98565b54600160401b900460ff16919050565b604080516101208101825260008082526020820181905260609282018390529181018290526080810182905260a0810182905260c0810182905260e0810182905261010081019190915290565b6105bf80620035ea83390190565b6001600160a01b03169052565b6020808252825182820181905260009190848201906040850190845b8181101562002b425783516001600160a01b03168352928401929184019160010162002b1b565b50909695505050505050565b6001600160a01b038116811462000e5757600080fd5b803562002b718162002b4e565b919050565b60006020828403121562002b8957600080fd5b8135620004458162002b4e565b6001600160a01b0391909116815260200190565b60008060006060848603121562002bc057600080fd5b833562002bcd8162002b4e565b9250602084013562002bdf8162002b4e565b9150604084013561ffff8116811462002bf757600080fd5b809150509250925092565b6000815180845260005b8181101562002c2a5760208185018101518683018201520162002c0c565b506000602082860101526020601f19601f83011685010191505092915050565b60208152600062000445602083018462002c02565b600061012060018060a01b03835116845260208301516020850152604083015181604086015262002c938286018262002c02565b915050606083015162002caa606086018262002af2565b50608083015162002cbf608086018262002af2565b5060a083015162002cd460a086018262002af2565b5060c083015162002ce960c086018262002af2565b5060e083015162002cfe60e086018262002af2565b506101008084015162002d148287018262002af2565b5090949350505050565b60208152600062000445602083018462002c5f565b60006020828403121562002d4657600080fd5b81356001600160401b0381111562002d5d57600080fd5b820161022081850312156200044557600080fd5b634e487b7160e01b600052604160045260246000fd5b6000602080838503121562002d9b57600080fd5b82356001600160401b038082111562002db357600080fd5b818501915085601f83011262002dc857600080fd5b81358181111562002ddd5762002ddd62002d71565b8060051b604051601f19603f8301168101818110858211171562002e055762002e0562002d71565b60405291825284820192508381018501918883111562002e2457600080fd5b938501935b8285101562002e4d5762002e3d8562002b64565b8452938501939285019262002e29565b98975050505050505050565b600060208083016020845280855180835260408601915060408160051b87010192506020870160005b8281101562002eb457603f1988860301845262002ea185835162002c5f565b9450928501929085019060010162002e82565b5092979650505050505050565b60008060008060008060008060006101208a8c03121562002ee157600080fd5b893562002eee8162002b4e565b985060208a013562002f008162002b4e565b975060408a013562002f128162002b4e565b965060608a013562002f248162002b4e565b955060808a013562002f368162002b4e565b945060a08a013562002f488162002b4e565b935060c08a013562002f5a8162002b4e565b925060e08a013562002f6c8162002b4e565b91506101008a013562002f7f8162002b4e565b809150509295985092959850929598565b60006020828403121562002fa357600080fd5b8151620004458162002b4e565b600181811c9082168062002fc557607f821691505b60208210810362002fe657634e487b7160e01b600052602260045260246000fd5b50919050565b6001600160a01b03938416815291909216602082015261ffff909116604082015260600190565b6001600160a01b03948516815292841660208401529216604082015261ffff909116606082015260800190565b602080825260159082015274496e76616c6964206167656e74206164647265737360581b604082015260600190565b634e487b7160e01b600052603260045260246000fd5b634e487b7160e01b600052601160045260246000fd5b8181038181111562000b085762000b0862003085565b634e487b7160e01b600052603160045260246000fd5b6001600160a01b0383168152604060208201819052600090620003b69083018462002c02565b6000808335601e198436030181126200310557600080fd5b8301803591506001600160401b038211156200312057600080fd5b60200191503681900382131562002a4257600080fd5b6000602082840312156200314957600080fd5b813560ff811681146200044557600080fd5b60008151808452602080850194506020840160005b83811015620031975781516001600160a01b03168752958201959082019060010162003170565b509495945050505050565b602080825282516001600160a01b031682820152820151600090620031cb604084018262002af2565b50604083015160e06060840152620031e861010084018262002c02565b90506060840151601f198085840301608086015262003208838362002c02565b9250608086015191506200322160a086018360ff169052565b60a08601519150808584030160c08601526200323e83836200315b565b925060c08601519150808584030160e0860152506200325e82826200315b565b95945050505050565b6000602082840312156200327a57600080fd5b813563ffffffff811681146200044557600080fd5b60208152620032a360208201835162002af2565b60006020830151610140806040850152620032c361016085018362002c02565b91506040850151601f19858403016060860152620032e2838262002c02565b9250506060850151620032f9608086018262002af2565b5060808501516200330e60a086018262002af2565b5060a085015160c085015260c08501516200332d60e086018262002af2565b5060e0850151610100620033448187018362002af2565b86015190506101206200335e8682018363ffffffff169052565b86015163ffffffff811683870152905062002d14565b60208152600060018060a01b03808451166020840152806020850151166040840152604084015160a06060850152620033b160c085018262002c02565b90508160608601511660808501528160808601511660a0850152809250505092915050565b60208152600060018060a01b03808451166020840152806020850151166040840152806040850151166060840152606084015160c060808501526200341f60e085018262002c02565b90506080850151601f198583030160a08601526200343e828262002c02565b9150508160a08601511660c0850152809250505092915050565b6001600160a01b03841681526040602082018190528101829052818360608301376000818301606090810191909152601f909201601f1916010192915050565b600060208284031215620034ab57600080fd5b5051919050565b601f82111562003502576000816000526020600020601f850160051c81016020861015620034dd5750805b601f850160051c820191505b81811015620034fe57828155600101620034e9565b5050505b505050565b81516001600160401b0381111562003523576200352362002d71565b6200353b8162003534845462002fb0565b84620034b2565b602080601f8311600181146200357357600084156200355a5750858301515b600019600386901b1c1916600185901b178555620034fe565b600085815260208120601f198616915b82811015620035a45788860151825594840194600190910190840162003583565b5085821015620035c35787850151600019600388901b60f8161c191681555b5050505050600190811b01905550565b8082018082111562000b085762000b086200308556fe60a06040526040516105bf3803806105bf83398101604081905261002291610387565b61002c828261003e565b506001600160a01b031660805261047e565b610047826100fe565b6040516001600160a01b038316907f1cf3b03a6cf19fa2baba4df148e9dcabedea7f8a5c07840e207e5c089be95d3e90600090a28051156100f2576100ed826001600160a01b0316635c60da1b6040518163ffffffff1660e01b8152600401602060405180830381865afa1580156100c3573d6000803e3d6000fd5b505050506040513d601f19601f820116820180604052508101906100e79190610447565b82610211565b505050565b6100fa610288565b5050565b806001600160a01b03163b60000361013957604051631933b43b60e21b81526001600160a01b03821660048201526024015b60405180910390fd5b807fa3f0ad74e5423aebfd80d3ef4346578335a9a72aeaee59ff6cb3582b35133d5080546001600160a01b0319166001600160a01b0392831617905560408051635c60da1b60e01b81529051600092841691635c60da1b9160048083019260209291908290030181865afa1580156101b5573d6000803e3d6000fd5b505050506040513d601f19601f820116820180604052508101906101d99190610447565b9050806001600160a01b03163b6000036100fa57604051634c9c8ce360e01b81526001600160a01b0382166004820152602401610130565b6060600080846001600160a01b03168460405161022e9190610462565b600060405180830381855af49150503d8060008114610269576040519150601f19603f3d011682016040523d82523d6000602084013e61026e565b606091505b50909250905061027f8583836102a9565b95945050505050565b34156102a75760405163b398979f60e01b815260040160405180910390fd5b565b6060826102be576102b982610308565b610301565b81511580156102d557506001600160a01b0384163b155b156102fe57604051639996b31560e01b81526001600160a01b0385166004820152602401610130565b50805b9392505050565b8051156103185780518082602001fd5b604051630a12f52160e11b815260040160405180910390fd5b80516001600160a01b038116811461034857600080fd5b919050565b634e487b7160e01b600052604160045260246000fd5b60005b8381101561037e578181015183820152602001610366565b50506000910152565b6000806040838503121561039a57600080fd5b6103a383610331565b60208401519092506001600160401b03808211156103c057600080fd5b818501915085601f8301126103d457600080fd5b8151818111156103e6576103e661034d565b604051601f8201601f19908116603f0116810190838211818310171561040e5761040e61034d565b8160405282815288602084870101111561042757600080fd5b610438836020830160208801610363565b80955050505050509250929050565b60006020828403121561045957600080fd5b61030182610331565b60008251610474818460208701610363565b9190910192915050565b6080516101276104986000396000601e01526101276000f3fe6080604052600a600c565b005b60186014601a565b60a0565b565b60007f00000000000000000000000000000000000000000000000000000000000000006001600160a01b0316635c60da1b6040518163ffffffff1660e01b8152600401602060405180830381865afa1580156079573d6000803e3d6000fd5b505050506040513d601f19601f82011682018060405250810190609b919060c3565b905090565b3660008037600080366000845af43d6000803e80801560be573d6000f35b3d6000fd5b60006020828403121560d457600080fd5b81516001600160a01b038116811460ea57600080fd5b939250505056fea26469706673582212205c8a2fcdc6f79c1d43b849e2b03f494652cee222b2ec86046b7caaa1405f985f64736f6c63430008180033a26469706673582212207237fa1f8b9b26decd2116b2599b52decd579ff48756278a788ae3beaabb115e64736f6c63430008180033",
  "linkReferences": {
    "contracts/buildings/library/BuildingAutoCompounder.sol": {
      "BuildingAutoCompounderLib": [
        {
          "length": 20,
          "start": 5989
        }
      ]
    },
    "contracts/buildings/library/BuildingGovernance.sol": {
      "BuildingGovernanceLib": [
        {
          "length": 20,
          "start": 5708
        }
      ]
    },
    "contracts/buildings/library/BuildingToken.sol": {
      "BuildingTokenLib": [
        {
          "length": 20,
          "start": 4610
        }
      ]
    },
    "contracts/buildings/library/BuildingTreasury.sol": {
      "BuildingTreasuryLib": [
        {
          "length": 20,
          "start": 5107
        }
      ]
    },
    "contracts/buildings/library/BuildingVault.sol": {
      "BuildingVaultLib": [
        {
          "length": 20,
          "start": 5210
        }
      ]
    }
  },
  "deployedLinkReferences": {
    "contracts/buildings/library/BuildingAutoCompounder.sol": {
      "BuildingAutoCompounderLib": [
        {
          "length": 20,
          "start": 5759
        }
      ]
    },
    "contracts/buildings/library/BuildingGovernance.sol": {
      "BuildingGovernanceLib": [
        {
          "length": 20,
          "start": 5478
        }
      ]
    },
    "contracts/buildings/library/BuildingToken.sol": {
      "BuildingTokenLib": [
        {
          "length": 20,
          "start": 4380
        }
      ]
    },
    "contracts/buildings/library/BuildingTreasury.sol": {
      "BuildingTreasuryLib": [
        {
          "length": 20,
          "start": 4877
        }
      ]
    },
    "contracts/buildings/library/BuildingVault.sol": {
      "BuildingVaultLib": [
        {
          "length": 20,
          "start": 4980
        }
      ]
    }
  }
}