{
  "_format": "hh-sol-artifact-1",
  "contractName": "BuildingFactory",
  "sourceName": "contracts/buildings/BuildingFactory.sol",
  "abi": [
    {
      "inputs": [],
      "stateMutability": "nonpayable",
      "type": "constructor"
    },
    {
      "inputs": [],
      "name": "InvalidInitialization",
      "type": "error"
    },
    {
      "inputs": [],
      "name": "NotInitializing",
      "type": "error"
    },
    {
      "inputs": [
        {
          "internalType": "address",
          "name": "owner",
          "type": "address"
        }
      ],
      "name": "OwnableInvalidOwner",
      "type": "error"
    },
    {
      "inputs": [
        {
          "internalType": "address",
          "name": "account",
          "type": "address"
        }
      ],
      "name": "OwnableUnauthorizedAccount",
      "type": "error"
    },
    {
      "anonymous": false,
      "inputs": [
        {
          "indexed": false,
          "internalType": "address",
          "name": "building",
          "type": "address"
        },
        {
          "indexed": false,
          "internalType": "address",
          "name": "module",
          "type": "address"
        }
      ],
      "name": "ComplianceModuleAdded",
      "type": "event"
    },
    {
      "anonymous": false,
      "inputs": [
        {
          "indexed": false,
          "internalType": "address",
          "name": "building",
          "type": "address"
        },
        {
          "indexed": false,
          "internalType": "address",
          "name": "wallet",
          "type": "address"
        },
        {
          "indexed": false,
          "internalType": "address",
          "name": "identity",
          "type": "address"
        },
        {
          "indexed": false,
          "internalType": "uint16",
          "name": "country",
          "type": "uint16"
        }
      ],
      "name": "IdentityRegistered",
      "type": "event"
    },
    {
      "anonymous": false,
      "inputs": [
        {
          "indexed": false,
          "internalType": "uint64",
          "name": "version",
          "type": "uint64"
        }
      ],
      "name": "Initialized",
      "type": "event"
    },
    {
      "anonymous": false,
      "inputs": [
        {
          "indexed": false,
          "internalType": "address",
          "name": "buildingAddress",
          "type": "address"
        },
        {
          "indexed": false,
          "internalType": "address",
          "name": "erc3643Token",
          "type": "address"
        },
        {
          "indexed": false,
          "internalType": "address",
          "name": "treasury",
          "type": "address"
        },
        {
          "indexed": false,
          "internalType": "address",
          "name": "vault",
          "type": "address"
        },
        {
          "indexed": false,
          "internalType": "address",
          "name": "governance",
          "type": "address"
        },
        {
          "indexed": false,
          "internalType": "address",
          "name": "initialOwner",
          "type": "address"
        },
        {
          "indexed": false,
          "internalType": "address",
          "name": "autoCompounder",
          "type": "address"
        }
      ],
      "name": "NewBuilding",
      "type": "event"
    },
    {
      "anonymous": false,
      "inputs": [
        {
          "indexed": true,
          "internalType": "address",
          "name": "previousOwner",
          "type": "address"
        },
        {
          "indexed": true,
          "internalType": "address",
          "name": "newOwner",
          "type": "address"
        }
      ],
      "name": "OwnershipTransferred",
      "type": "event"
    },
    {
      "anonymous": false,
      "inputs": [
        {
          "indexed": false,
          "internalType": "address",
          "name": "agent",
          "type": "address"
        }
      ],
      "name": "RegistryAgentRemoved",
      "type": "event"
    },
    {
      "anonymous": false,
      "inputs": [
        {
          "indexed": false,
          "internalType": "address[]",
          "name": "agents",
          "type": "address[]"
        }
      ],
      "name": "RegistryAgentsAdded",
      "type": "event"
    },
    {
      "inputs": [
        {
          "internalType": "address[]",
          "name": "agents",
          "type": "address[]"
        }
      ],
      "name": "addRegistryAgents",
      "outputs": [],
      "stateMutability": "nonpayable",
      "type": "function"
    },
    {
      "inputs": [
        {
          "internalType": "address",
          "name": "wallet",
          "type": "address"
        }
      ],
      "name": "deployIdentityForWallet",
      "outputs": [
        {
          "internalType": "address",
          "name": "",
          "type": "address"
        }
      ],
      "stateMutability": "nonpayable",
      "type": "function"
    },
    {
      "inputs": [
        {
          "internalType": "address",
          "name": "buildingAddress",
          "type": "address"
        }
      ],
      "name": "getBuildingDetails",
      "outputs": [
        {
          "components": [
            {
              "internalType": "address",
              "name": "addr",
              "type": "address"
            },
            {
              "internalType": "uint256",
              "name": "nftId",
              "type": "uint256"
            },
            {
              "internalType": "string",
              "name": "tokenURI",
              "type": "string"
            },
            {
              "internalType": "address",
              "name": "identity",
              "type": "address"
            },
            {
              "internalType": "address",
              "name": "erc3643Token",
              "type": "address"
            },
            {
              "internalType": "address",
              "name": "treasury",
              "type": "address"
            },
            {
              "internalType": "address",
              "name": "governance",
              "type": "address"
            },
            {
              "internalType": "address",
              "name": "vault",
              "type": "address"
            },
            {
              "internalType": "address",
              "name": "autoCompounder",
              "type": "address"
            }
          ],
          "internalType": "struct BuildingFactoryStorage.BuildingDetails",
          "name": "",
          "type": "tuple"
        }
      ],
      "stateMutability": "view",
      "type": "function"
    },
    {
      "inputs": [],
      "name": "getBuildingList",
      "outputs": [
        {
          "components": [
            {
              "internalType": "address",
              "name": "addr",
              "type": "address"
            },
            {
              "internalType": "uint256",
              "name": "nftId",
              "type": "uint256"
            },
            {
              "internalType": "string",
              "name": "tokenURI",
              "type": "string"
            },
            {
              "internalType": "address",
              "name": "identity",
              "type": "address"
            },
            {
              "internalType": "address",
              "name": "erc3643Token",
              "type": "address"
            },
            {
              "internalType": "address",
              "name": "treasury",
              "type": "address"
            },
            {
              "internalType": "address",
              "name": "governance",
              "type": "address"
            },
            {
              "internalType": "address",
              "name": "vault",
              "type": "address"
            },
            {
              "internalType": "address",
              "name": "autoCompounder",
              "type": "address"
            }
          ],
          "internalType": "struct BuildingFactoryStorage.BuildingDetails[]",
          "name": "",
          "type": "tuple[]"
        }
      ],
      "stateMutability": "view",
      "type": "function"
    },
    {
      "inputs": [
        {
          "internalType": "address",
          "name": "wallet",
          "type": "address"
        }
      ],
      "name": "getIdentity",
      "outputs": [
        {
          "internalType": "contract IIdentity",
          "name": "",
          "type": "address"
        }
      ],
      "stateMutability": "view",
      "type": "function"
    },
    {
      "inputs": [],
      "name": "getRegistryAgents",
      "outputs": [
        {
          "internalType": "address[]",
          "name": "",
          "type": "address[]"
        }
      ],
      "stateMutability": "view",
      "type": "function"
    },
    {
      "inputs": [
        {
          "internalType": "address",
          "name": "_nft",
          "type": "address"
        },
        {
          "internalType": "address",
          "name": "_uniswapRouter",
          "type": "address"
        },
        {
          "internalType": "address",
          "name": "_uniswapFactory",
          "type": "address"
        },
        {
          "internalType": "address",
          "name": "_onchainIdGateway",
          "type": "address"
        },
        {
          "internalType": "address",
          "name": "_trexGateway",
          "type": "address"
        },
        {
          "internalType": "address",
          "name": "_usdc",
          "type": "address"
        },
        {
          "internalType": "address",
          "name": "_buildingBeacon",
          "type": "address"
        },
        {
          "internalType": "address",
          "name": "_treasuryBeacon",
          "type": "address"
        },
        {
          "internalType": "address",
          "name": "_governanceBeacon",
          "type": "address"
        }
      ],
      "name": "initialize",
      "outputs": [],
      "stateMutability": "nonpayable",
      "type": "function"
    },
    {
      "inputs": [
        {
          "components": [
            {
              "internalType": "string",
              "name": "tokenURI",
              "type": "string"
            },
            {
              "internalType": "string",
              "name": "tokenName",
              "type": "string"
            },
            {
              "internalType": "string",
              "name": "tokenSymbol",
              "type": "string"
            },
            {
              "internalType": "uint8",
              "name": "tokenDecimals",
              "type": "uint8"
            },
            {
              "internalType": "uint256",
              "name": "tokenMintAmount",
              "type": "uint256"
            },
            {
              "internalType": "uint256",
              "name": "treasuryReserveAmount",
              "type": "uint256"
            },
            {
              "internalType": "uint256",
              "name": "treasuryNPercent",
              "type": "uint256"
            },
            {
              "internalType": "string",
              "name": "governanceName",
              "type": "string"
            },
            {
              "internalType": "string",
              "name": "vaultShareTokenName",
              "type": "string"
            },
            {
              "internalType": "string",
              "name": "vaultShareTokenSymbol",
              "type": "string"
            },
            {
              "internalType": "address",
              "name": "vaultFeeReceiver",
              "type": "address"
            },
            {
              "internalType": "address",
              "name": "vaultFeeToken",
              "type": "address"
            },
            {
              "internalType": "uint256",
              "name": "vaultFeePercentage",
              "type": "uint256"
            },
            {
              "internalType": "uint32",
              "name": "vaultCliff",
              "type": "uint32"
            },
            {
              "internalType": "uint32",
              "name": "vaultUnlockDuration",
              "type": "uint32"
            },
            {
              "internalType": "string",
              "name": "aTokenName",
              "type": "string"
            },
            {
              "internalType": "string",
              "name": "aTokenSymbol",
              "type": "string"
            }
          ],
          "internalType": "struct BuildingFactoryStorage.NewBuildingDetails",
          "name": "details",
          "type": "tuple"
        }
      ],
      "name": "newBuilding",
      "outputs": [
        {
          "components": [
            {
              "internalType": "address",
              "name": "addr",
              "type": "address"
            },
            {
              "internalType": "uint256",
              "name": "nftId",
              "type": "uint256"
            },
            {
              "internalType": "string",
              "name": "tokenURI",
              "type": "string"
            },
            {
              "internalType": "address",
              "name": "identity",
              "type": "address"
            },
            {
              "internalType": "address",
              "name": "erc3643Token",
              "type": "address"
            },
            {
              "internalType": "address",
              "name": "treasury",
              "type": "address"
            },
            {
              "internalType": "address",
              "name": "governance",
              "type": "address"
            },
            {
              "internalType": "address",
              "name": "vault",
              "type": "address"
            },
            {
              "internalType": "address",
              "name": "autoCompounder",
              "type": "address"
            }
          ],
          "internalType": "struct BuildingFactoryStorage.BuildingDetails",
          "name": "buildingDetails",
          "type": "tuple"
        }
      ],
      "stateMutability": "nonpayable",
      "type": "function"
    },
    {
      "inputs": [],
      "name": "owner",
      "outputs": [
        {
          "internalType": "address",
          "name": "",
          "type": "address"
        }
      ],
      "stateMutability": "view",
      "type": "function"
    },
    {
      "inputs": [
        {
          "internalType": "address",
          "name": "buildingAddress",
          "type": "address"
        },
        {
          "internalType": "address",
          "name": "wallet",
          "type": "address"
        },
        {
          "internalType": "uint16",
          "name": "country",
          "type": "uint16"
        }
      ],
      "name": "registerIdentity",
      "outputs": [],
      "stateMutability": "nonpayable",
      "type": "function"
    },
    {
      "inputs": [
        {
          "internalType": "address",
          "name": "agent",
          "type": "address"
        }
      ],
      "name": "removeRegistryAgent",
      "outputs": [],
      "stateMutability": "nonpayable",
      "type": "function"
    },
    {
      "inputs": [],
      "name": "renounceOwnership",
      "outputs": [],
      "stateMutability": "nonpayable",
      "type": "function"
    },
    {
      "inputs": [
        {
          "internalType": "address",
          "name": "newOwner",
          "type": "address"
        }
      ],
      "name": "transferOwnership",
      "outputs": [],
      "stateMutability": "nonpayable",
      "type": "function"
    }
  ],
  "bytecode": "0x60806040523480156200001157600080fd5b506200001c62000022565b620000d6565b7ff0c57e16840df040f15088dc2f81fe391c3923bec73e23a9662efc9c229c6a00805468010000000000000000900460ff1615620000735760405163f92ee8a960e01b815260040160405180910390fd5b80546001600160401b0390811614620000d35780546001600160401b0319166001600160401b0390811782556040519081527fc7f505b2f371ae2175ee4913f4499e1f2633a7b5936321eed1cdaeb6115181d29060200160405180910390a15b50565b613a7380620000e66000396000f3fe60806040523480156200001157600080fd5b5060043610620000ce5760003560e01c8063715018a61162000086578063715018a61462000188578063899a0ebe14620001925780638da5cb5b14620001a9578063d5f51ccd14620001b3578063db652ec814620001ca578063f2fde38b14620001e3578063f5e95acb14620001fa57600080fd5b806240c4b014620000d35780632fea7b8114620000f55780633e8e6e8b146200011b578063454a03e01462000132578063665fa4a1146200014b57806370fb52571462000171575b600080fd5b620000dd62000211565b604051620000ec9190620029a3565b60405180910390f35b6200010c6200010636600462002a1a565b62000281565b604051620000ec919062002a3a565b6200010c6200012c36600462002a1a565b6200038b565b620001496200014336600462002a4e565b62000419565b005b620001626200015c36600462002a1a565b620007c2565b604051620000ec919062002bad565b620001496200018236600462002a1a565b62000912565b6200014962000aa8565b62000162620001a336600462002bc2565b62000ac0565b6200010c62001a1d565b62000149620001c436600462002c16565b62001a4b565b620001d462001ba5565b604051620000ec919062002ce8565b62000149620001f436600462002a1a565b62001d24565b620001496200020b36600462002d50565b62001d69565b606060006200021f62002007565b600981018054604080516020808402820181019092528281529394508301828280156200027657602002820191906000526020600020905b81546001600160a01b0316815260019091019060200180831162000257575b505050505091505090565b6000806200028e62002007565b905060008160040160009054906101000a90046001600160a01b03166001600160a01b03166378e751a66040518163ffffffff1660e01b8152600401602060405180830381865afa158015620002e8573d6000803e3d6000fd5b505050506040513d601f19601f820116820180604052508101906200030e919062002e1f565b604051632fea7b8160e01b81529091506001600160a01b03821690632fea7b81906200033f90879060040162002a3a565b602060405180830381865afa1580156200035d573d6000803e3d6000fd5b505050506040513d601f19601f8201168201806040525081019062000383919062002e1f565b949350505050565b6000806200039862002007565b600480820154604051633e8e6e8b60e01b81529293506001600160a01b031691633e8e6e8b91620003cc9187910162002a3a565b6020604051808303816000875af1158015620003ec573d6000803e3d6000fd5b505050506040513d601f19601f8201168201806040525081019062000412919062002e1f565b9392505050565b60006200042562002007565b6001600160a01b038086166000908152600c8301602090815260408083208151610120810183528154909516855260018101549285019290925260028201805495965092949192908401916200047b9062002e3f565b80601f0160208091040260200160405190810160405280929190818152602001828054620004a99062002e3f565b8015620004fa5780601f10620004ce57610100808354040283529160200191620004fa565b820191906000526020600020905b815481529060010190602001808311620004dc57829003601f168201915b505050918352505060038201546001600160a01b039081166020808401919091526004808501548316604080860191909152600586015484166060860152600686015484166080808701919091526007870154851660a0870152600890960154841660c09095019490945293850151878501548451633c73a8d360e11b81529451969750909560009591909316936378e751a693818301939290918290030181865afa158015620005af573d6000803e3d6000fd5b505050506040513d601f19601f82011682018060405250810190620005d5919062002e1f565b90506000826001600160a01b031663134e18f46040518163ffffffff1660e01b8152600401602060405180830381865afa15801562000618573d6000803e3d6000fd5b505050506040513d601f19601f820116820180604052508101906200063e919062002e1f565b90506000826001600160a01b0316632fea7b81896040518263ffffffff1660e01b815260040162000670919062002a3a565b602060405180830381865afa1580156200068e573d6000803e3d6000fd5b505050506040513d601f19601f82011682018060405250810190620006b4919062002e1f565b90506001600160a01b038116620007125760405162461bcd60e51b815260206004820152601d60248201527f4964656e7469747920666f722077616c6c6574206e6f7420666f756e6400000060448201526064015b60405180910390fd5b60405163022a501f60e51b81526001600160a01b0383169063454a03e09062000744908b9085908c9060040162002e7b565b600060405180830381600087803b1580156200075f57600080fd5b505af115801562000774573d6000803e3d6000fd5b505050507f6680dc6d23915f02197cb4ac29f4b00443a14ca1cbe22d6b93045c32b98a82378989838a604051620007af949392919062002ea2565b60405180910390a1505050505050505050565b620007cc6200293b565b6000620007d862002007565b6001600160a01b038085166000908152600c8301602090815260409182902082516101208101845281549094168452600181015491840191909152600281018054949550929390929184019190620008309062002e3f565b80601f01602080910402602001604051908101604052809291908181526020018280546200085e9062002e3f565b8015620008af5780601f106200088357610100808354040283529160200191620008af565b820191906000526020600020905b8154815290600101906020018083116200089157829003601f168201915b505050918352505060038201546001600160a01b0390811660208301526004830154811660408301526005830154811660608301526006830154811660808301526007830154811660a083015260089092015490911660c0909101529392505050565b6200091c6200202b565b6001600160a01b038116620009455760405162461bcd60e51b8152600401620007099062002ecf565b60006200095162002007565b90506009810160005b815481101562000aa257836001600160a01b031682828154811062000983576200098362002efe565b6000918252602090912001546001600160a01b03160362000a995781548290620009b09060019062002f2a565b81548110620009c357620009c362002efe565b9060005260206000200160009054906101000a90046001600160a01b0316828281548110620009f657620009f662002efe565b9060005260206000200160006101000a8154816001600160a01b0302191690836001600160a01b031602179055508180548062000a375762000a3762002f46565b600082815260209020810160001990810180546001600160a01b03191690550190556040517ffd640fa9b46f14c0708e03114f4007b6a72edb4389a12da691527d9ffb6d0de29062000a8b90869062002a3a565b60405180910390a162000aa2565b6001016200095a565b50505050565b62000ab26200202b565b62000abe600062002062565b565b62000aca6200293b565b600062000ad662002007565b600381015460405191925033916000916001600160a01b03169063189acdbd60e31b9062000b0990859060240162002a3a565b60408051601f198184030181529181526020820180516001600160e01b03166001600160e01b031990941693909317909252905162000b489062002988565b62000b5592919062002f5c565b604051809103906000f08015801562000b72573d6000803e3d6000fd5b506040805160e0810182526001600160a01b03808616825260058701541660208083019190915292935060009273__$6bcf1faf5c0920414dc51cd0daeb07e0f7$__92633af9cf1e92919082019062000bce908b018b62002f82565b8080601f01602080910402602001604051908101604052809392919081815260200183838082843760009201919091525050509082525060200162000c1760408b018b62002f82565b8080601f01602080910402602001604051908101604052809392919081815260200183838082843760009201919091525050509082525060200162000c6360808b0160608c0162002fcb565b60ff16815260200162000c75620020d3565b815260200162000c8462002245565b8152506040518263ffffffff1660e01b815260040162000ca5919062003037565b602060405180830381865af415801562000cc3573d6000803e3d6000fd5b505050506040513d601f19601f8201168201806040525081019062000ce9919062002e1f565b6040805160e08101825260068701546001600160a01b0390811682528681166020830181815260a08c81013585870190815260c0808f0135606088019081526080880195865260078e0154871693880193845230918801918252975163af15b96960e01b8152965186166004880152925185166024870152516044860152945160648501529051821660848401529251811660a4830152915190911660c482015290915060009073__$6dd86c1de004dc2dd48a17c9065be1de70$__9063af15b9699060e401602060405180830381865af415801562000dcd573d6000803e3d6000fd5b505050506040513d601f19601f8201168201806040525081019062000df3919062002e1f565b9050600073__$e6502af67ab2c746a64bc3775a7b8857c1$__63cd6856ef604051806101400160405280866001600160a01b031681526020018b80610100019062000e3f919062002f82565b8080601f01602080910402602001604051908101604052809392919081815260200183838082843760009201919091525050509082525060200162000e896101208d018d62002f82565b8080601f01602080910402602001604051908101604052809392919081815260200183838082843760009201919091525050509082525060200162000ed76101608d016101408e0162002a1a565b6001600160a01b0316815260200162000ef96101808d016101608e0162002a1a565b6001600160a01b0390811682526101808d01356020830152891660408201819052606082015260800162000f366101c08d016101a08e01620030fc565b63ffffffff16815260200162000f556101e08d016101c08e01620030fc565b63ffffffff168152506040518263ffffffff1660e01b815260040162000f7c919062003124565b602060405180830381865af415801562000f9a573d6000803e3d6000fd5b505050506040513d601f19601f8201168201806040525081019062000fc0919062002e1f565b6040805160a08101825260088901546001600160a01b0390811682528616602082015291925060009173__$9b19b7f7ded493586f11dad0d7ebc9ca26$__9163d88d8110919081016200101760e08e018e62002f82565b8080601f0160208091040260200160405190810160405280939291908181526020018383808284376000920191909152505050908252506001600160a01b0380881660208301528a16604091820152516001600160e01b031960e084901b16815262001087919060040162003209565b602060405180830381865af4158015620010a5573d6000803e3d6000fd5b505050506040513d601f19601f82011682018060405250810190620010cb919062002e1f565b6040805160c08101825260018a01546001600160a01b039081168252858116602083015260078b0154169181019190915290915060009073__$3080f05ed92e5505050a1e3d528e8c5fcb$__9063ea5fb3369060608101620011326101e08f018f62002f82565b8080601f0160208091040260200160405190810160405280939291908181526020018383808284376000920191909152505050908252506020016200117c6102008f018f62002f82565b8080601f0160208091040260200160405190810160405280939291908181526020018383808284376000920191909152505050908252506001600160a01b038b166020909101526040516001600160e01b031960e084901b168152620011e691906004016200326b565b602060405180830381865af415801562001204573d6000803e3d6000fd5b505050506040513d601f19601f820116820180604052508101906200122a919062002e1f565b88549091506000906001600160a01b031663d0def521886200124d8e8062002f82565b6040518463ffffffff1660e01b81526004016200126d93929190620032ed565b6020604051808303816000875af11580156200128d573d6000803e3d6000fd5b505050506040513d601f19601f82011682018060405250810190620012b391906200332d565b60408051600580825260c08201909252919250600091906020820160a0803683370190505090508881600081518110620012f157620012f162002efe565b6001600160a01b0392831660209182029290920101526001808c01548351921691839190811062001326576200132662002efe565b60200260200101906001600160a01b031690816001600160a01b03168152505084816002815181106200135d576200135d62002efe565b60200260200101906001600160a01b031690816001600160a01b031681525050828160038151811062001394576200139462002efe565b6001600160a01b03928316602091820292909201015260028b015460078c0154620013c692918216918a91166200232e565b81600481518110620013dc57620013dc62002efe565b60200260200101906001600160a01b031690816001600160a01b0316815250506200140988888362002400565b6040516260360760e81b81526001600160a01b038716906360360700906200143690879060040162002a3a565b600060405180830381600087803b1580156200145157600080fd5b505af115801562001466573d6000803e3d6000fd5b50506040516312b5ad0160e11b81526001600160a01b038916925063256b5a0291506200149890889060040162002a3a565b600060405180830381600087803b158015620014b357600080fd5b505af1158015620014c8573d6000803e3d6000fd5b5050604051632f2ff15d60e01b81527f477fc23fb51bb5d5aa814872a393b0e4f35d0916c7503c0fd96584681070d41060048201526001600160a01b03898116602483015288169250632f2ff15d9150604401600060405180830381600087803b1580156200153657600080fd5b505af11580156200154b573d6000803e3d6000fd5b50505050866001600160a01b03166340c10f198a8e608001356040518363ffffffff1660e01b8152600401620015969291906001600160a01b03929092168252602082015260400190565b600060405180830381600087803b158015620015b157600080fd5b505af1158015620015c6573d6000803e3d6000fd5b505060405163f2fde38b60e01b81526001600160a01b038816925063f2fde38b9150620015f8908c9060040162002a3a565b600060405180830381600087803b1580156200161357600080fd5b505af115801562001628573d6000803e3d6000fd5b505060405163f2fde38b60e01b81526001600160a01b038616925063f2fde38b91506200165a908c9060040162002a3a565b600060405180830381600087803b1580156200167557600080fd5b505af11580156200168a573d6000803e3d6000fd5b505060408051610120810182526001600160a01b038c16815260208101869052925082019050620016bc8e8062002f82565b8080601f016020809104026020016040519081016040528093929190818152602001838380828437600092018290525093855250505060208083018290526001600160a01b038b81166040808601919091528b8216606086015289821660808601528a821660a086015288821660c0909501949094528c81168352600c8f01825291839020845181546001600160a01b0319169316929092178255830151600182015590820151919c508c9160028201906200177990826200339c565b5060608201518160030160006101000a8154816001600160a01b0302191690836001600160a01b0316021790555060808201518160040160006101000a8154816001600160a01b0302191690836001600160a01b0316021790555060a08201518160050160006101000a8154816001600160a01b0302191690836001600160a01b0316021790555060c08201518160060160006101000a8154816001600160a01b0302191690836001600160a01b0316021790555060e08201518160070160006101000a8154816001600160a01b0302191690836001600160a01b031602179055506101008201518160080160006101000a8154816001600160a01b0302191690836001600160a01b0316021790555090505089600b018b908060018154018082558091505060019003906000526020600020906009020160009091909190915060008201518160000160006101000a8154816001600160a01b0302191690836001600160a01b031602179055506020820151816001015560408201518160020190816200190891906200339c565b506060828101516003830180546001600160a01b03199081166001600160a01b0393841617909155608080860151600486018054841691851691909117905560a080870151600587018054851691861691909117905560c080880151600688018054861691871691909117905560e0808901516007890180548716918816919091179055610100909801516008909701805490941696851696909617909255604080518f851681528e851660208201528d8516918101919091528b841694810194909452898316908401528d8216908301528616918101919091527f3163bceb365c85326c53476ceb0b49cfacb67f6d675e6eeb739c58ceb8b20bb6910160405180910390a150505050505050505050919050565b7f9016d09d72d40fdae2fd8ceac6b6234c7706214fd39c1cd1e609a0528c199300546001600160a01b031690565b62001a556200202b565b601e8151111562001a9c5760405162461bcd60e51b815260206004820152601060248201526f06d6178206167656e74732069732033360841b604482015260640162000709565b600062001aa862002007565b905060005b825181101562001b675760006001600160a01b031683828151811062001ad75762001ad762002efe565b60200260200101516001600160a01b03160362001b085760405162461bcd60e51b8152600401620007099062002ecf565b8160090183828151811062001b215762001b2162002efe565b60209081029190910181015182546001808201855560009485529290932090920180546001600160a01b0319166001600160a01b03909316929092179091550162001aad565b507f841421fc38b9d27338042dbea7f73d4c58c28c36fc74c5a5aa3d363043e76fae8260405162001b999190620029a3565b60405180910390a15050565b6060600062001bb362002007565b600b810180546040805160208084028201810190925282815293945060009084015b8282101562001d1a57600084815260209081902060408051610120810182526009860290920180546001600160a01b031683526001810154938301939093526002830180549293929184019162001c2c9062002e3f565b80601f016020809104026020016040519081016040528092919081815260200182805462001c5a9062002e3f565b801562001cab5780601f1062001c7f5761010080835404028352916020019162001cab565b820191906000526020600020905b81548152906001019060200180831162001c8d57829003601f168201915b505050918352505060038201546001600160a01b039081166020808401919091526004840154821660408401526005840154821660608401526006840154821660808401526007840154821660a08401526008909301541660c090910152908252600192909201910162001bd5565b5050505091505090565b62001d2e6200202b565b6001600160a01b03811662001d5b576000604051631e4fbdf760e01b815260040162000709919062002a3a565b62001d668162002062565b50565b7ff0c57e16840df040f15088dc2f81fe391c3923bec73e23a9662efc9c229c6a008054600160401b810460ff1615906001600160401b031660008115801562001daf5750825b90506000826001600160401b0316600114801562001dcc5750303b155b90508115801562001ddb575080155b1562001dfa5760405163f92ee8a960e01b815260040160405180910390fd5b845467ffffffffffffffff19166001178555831562001e2557845460ff60401b1916600160401b1785555b62001e3033620027d5565b600062001e3c62002007565b90508e8160000160006101000a8154816001600160a01b0302191690836001600160a01b031602179055508d8160010160006101000a8154816001600160a01b0302191690836001600160a01b031602179055508c8160020160006101000a8154816001600160a01b0302191690836001600160a01b03160217905550888160030160006101000a8154816001600160a01b0302191690836001600160a01b031602179055508b8160040160006101000a8154816001600160a01b0302191690836001600160a01b031602179055508a8160050160006101000a8154816001600160a01b0302191690836001600160a01b03160217905550878160060160006101000a8154816001600160a01b0302191690836001600160a01b03160217905550898160070160006101000a8154816001600160a01b0302191690836001600160a01b03160217905550868160080160006101000a8154816001600160a01b0302191690836001600160a01b0316021790555050831562001ff757845460ff60401b19168555604051600181527fc7f505b2f371ae2175ee4913f4499e1f2633a7b5936321eed1cdaeb6115181d29060200160405180910390a15b5050505050505050505050505050565b7f0f40dde8b99b0722537b774c6ef775b5e5a0af035d95bf9802cd87411f806f0090565b336200203662001a1d565b6001600160a01b03161462000abe573360405163118cdaa760e01b815260040162000709919062002a3a565b7f9016d09d72d40fdae2fd8ceac6b6234c7706214fd39c1cd1e609a0528c19930080546001600160a01b031981166001600160a01b03848116918217845560405192169182907f8be0079c531659141344cd1fd0a4f28419497f9722a3daafe3b4186f6b6457e090600090a3505050565b60606000620020e162002007565b6009810154909150600090620020f990600262003468565b6001600160401b0381111562002113576200211362002c00565b6040519080825280602002602001820160405280156200213d578160200160208202803683370190505b50905060005b6009830154811015620021bc5782600901818154811062002168576200216862002efe565b9060005260206000200160009054906101000a90046001600160a01b03168282815181106200219b576200219b62002efe565b6001600160a01b039092166020928302919091019091015260010162002143565b50308160018351620021cf919062002f2a565b81518110620021e257620021e262002efe565b60200260200101906001600160a01b031690816001600160a01b03168152505033816002835162002214919062002f2a565b8151811062002227576200222762002efe565b6001600160a01b039092166020928302919091019091015292915050565b606060006200225362002007565b600a8101549091506000906200226b90600262003468565b6001600160401b0381111562002285576200228562002c00565b604051908082528060200260200182016040528015620022af578160200160208202803683370190505b50905060005b600a830154811015620021bc5782600a018181548110620022da57620022da62002efe565b9060005260206000200160009054906101000a90046001600160a01b03168282815181106200230d576200230d62002efe565b6001600160a01b0390921660209283029190910190910152600101620022b5565b60008060006200233f8585620027ea565b6040516001600160601b0319606084811b8216602084015283901b1660348201529193509150869060480160405160208183030381529060405280519060200120604051602001620023de9291906001600160f81b0319815260609290921b6001600160601b031916600183015260158201527fdea1222ed22817f96ed20157be156c80808da15c079040548d4487a79708fe8e603582015260550190565b60408051601f1981840301815291905280516020909101209695505050505050565b60006200240c62002007565b905060008160040160009054906101000a90046001600160a01b031690506000846001600160a01b031663134e18f46040518163ffffffff1660e01b8152600401602060405180830381865afa1580156200246b573d6000803e3d6000fd5b505050506040513d601f19601f8201168201806040525081019062002491919062002e1f565b905060005b8451811015620027cc576000836001600160a01b03166378e751a66040518163ffffffff1660e01b8152600401602060405180830381865afa158015620024e1573d6000803e3d6000fd5b505050506040513d601f19601f8201168201806040525081019062002507919062002e1f565b6001600160a01b0316632fea7b818784815181106200252a576200252a62002efe565b60200260200101516040518263ffffffff1660e01b815260040162002550919062002a3a565b602060405180830381865afa1580156200256e573d6000803e3d6000fd5b505050506040513d601f19601f8201168201806040525081019062002594919062002e1f565b90506103486001600160a01b0382166200263b57846001600160a01b0316633e8e6e8b888581518110620025cc57620025cc62002efe565b60200260200101516040518263ffffffff1660e01b8152600401620025f2919062002a3a565b6020604051808303816000875af115801562002612573d6000803e3d6000fd5b505050506040513d601f19601f8201168201806040525081019062002638919062002e1f565b91505b60006001600160a01b0316846001600160a01b031663f0eb5e548986815181106200266a576200266a62002efe565b60200260200101516040518263ffffffff1660e01b815260040162002690919062002a3a565b602060405180830381865afa158015620026ae573d6000803e3d6000fd5b505050506040513d601f19601f82011682018060405250810190620026d4919062002e1f565b6001600160a01b031603620027c157836001600160a01b031663454a03e088858151811062002707576200270762002efe565b602002602001015184846040518463ffffffff1660e01b8152600401620027319392919062002e7b565b600060405180830381600087803b1580156200274c57600080fd5b505af115801562002761573d6000803e3d6000fd5b505050507f6680dc6d23915f02197cb4ac29f4b00443a14ca1cbe22d6b93045c32b98a8237898885815181106200279c576200279c62002efe565b60200260200101518484604051620027b8949392919062002ea2565b60405180910390a15b505060010162002496565b50505050505050565b620027df620028e7565b62001d668162002931565b600080826001600160a01b0316846001600160a01b0316036200285e5760405162461bcd60e51b815260206004820152602560248201527f556e697377617056324c6962726172793a204944454e544943414c5f41444452604482015264455353455360d81b606482015260840162000709565b826001600160a01b0316846001600160a01b0316106200288057828462002883565b83835b90925090506001600160a01b038216620028e05760405162461bcd60e51b815260206004820152601e60248201527f556e697377617056324c6962726172793a205a45524f5f414444524553530000604482015260640162000709565b9250929050565b7ff0c57e16840df040f15088dc2f81fe391c3923bec73e23a9662efc9c229c6a0054600160401b900460ff1662000abe57604051631afcd79f60e31b815260040160405180910390fd5b62001d2e620028e7565b604080516101208101825260008082526020820181905260609282018390529181018290526080810182905260a0810182905260c0810182905260e0810182905261010081019190915290565b6105bf806200347f83390190565b6001600160a01b03169052565b6020808252825182820181905260009190848201906040850190845b81811015620029e65783516001600160a01b031683529284019291840191600101620029bf565b50909695505050505050565b6001600160a01b038116811462001d6657600080fd5b803562002a1581620029f2565b919050565b60006020828403121562002a2d57600080fd5b81356200041281620029f2565b6001600160a01b0391909116815260200190565b60008060006060848603121562002a6457600080fd5b833562002a7181620029f2565b9250602084013562002a8381620029f2565b9150604084013561ffff8116811462002a9b57600080fd5b809150509250925092565b6000815180845260005b8181101562002ace5760208185018101518683018201520162002ab0565b506000602082860101526020601f19601f83011685010191505092915050565b600061012060018060a01b03835116845260208301516020850152604083015181604086015262002b228286018262002aa6565b915050606083015162002b39606086018262002996565b50608083015162002b4e608086018262002996565b5060a083015162002b6360a086018262002996565b5060c083015162002b7860c086018262002996565b5060e083015162002b8d60e086018262002996565b506101008084015162002ba38287018262002996565b5090949350505050565b60208152600062000412602083018462002aee565b60006020828403121562002bd557600080fd5b81356001600160401b0381111562002bec57600080fd5b820161022081850312156200041257600080fd5b634e487b7160e01b600052604160045260246000fd5b6000602080838503121562002c2a57600080fd5b82356001600160401b038082111562002c4257600080fd5b818501915085601f83011262002c5757600080fd5b81358181111562002c6c5762002c6c62002c00565b8060051b604051601f19603f8301168101818110858211171562002c945762002c9462002c00565b60405291825284820192508381018501918883111562002cb357600080fd5b938501935b8285101562002cdc5762002ccc8562002a08565b8452938501939285019262002cb8565b98975050505050505050565b600060208083016020845280855180835260408601915060408160051b87010192506020870160005b8281101562002d4357603f1988860301845262002d3085835162002aee565b9450928501929085019060010162002d11565b5092979650505050505050565b60008060008060008060008060006101208a8c03121562002d7057600080fd5b893562002d7d81620029f2565b985060208a013562002d8f81620029f2565b975060408a013562002da181620029f2565b965060608a013562002db381620029f2565b955060808a013562002dc581620029f2565b945060a08a013562002dd781620029f2565b935060c08a013562002de981620029f2565b925060e08a013562002dfb81620029f2565b91506101008a013562002e0e81620029f2565b809150509295985092959850929598565b60006020828403121562002e3257600080fd5b81516200041281620029f2565b600181811c9082168062002e5457607f821691505b60208210810362002e7557634e487b7160e01b600052602260045260246000fd5b50919050565b6001600160a01b03938416815291909216602082015261ffff909116604082015260600190565b6001600160a01b03948516815292841660208401529216604082015261ffff909116606082015260800190565b602080825260159082015274496e76616c6964206167656e74206164647265737360581b604082015260600190565b634e487b7160e01b600052603260045260246000fd5b634e487b7160e01b600052601160045260246000fd5b8181038181111562002f405762002f4062002f14565b92915050565b634e487b7160e01b600052603160045260246000fd5b6001600160a01b0383168152604060208201819052600090620003839083018462002aa6565b6000808335601e1984360301811262002f9a57600080fd5b8301803591506001600160401b0382111562002fb557600080fd5b602001915036819003821315620028e057600080fd5b60006020828403121562002fde57600080fd5b813560ff811681146200041257600080fd5b60008151808452602080850194506020840160005b838110156200302c5781516001600160a01b03168752958201959082019060010162003005565b509495945050505050565b602080825282516001600160a01b03168282015282015160009062003060604084018262002996565b50604083015160e060608401526200307d61010084018262002aa6565b90506060840151601f19808584030160808601526200309d838362002aa6565b925060808601519150620030b660a086018360ff169052565b60a08601519150808584030160c0860152620030d3838362002ff0565b925060c08601519150808584030160e086015250620030f3828262002ff0565b95945050505050565b6000602082840312156200310f57600080fd5b813563ffffffff811681146200041257600080fd5b602081526200313860208201835162002996565b600060208301516101408060408501526200315861016085018362002aa6565b91506040850151601f1985840301606086015262003177838262002aa6565b92505060608501516200318e608086018262002996565b506080850151620031a360a086018262002996565b5060a085015160c085015260c0850151620031c260e086018262002996565b5060e0850151610100620031d98187018362002996565b8601519050610120620031f38682018363ffffffff169052565b86015163ffffffff811683870152905062002ba3565b60208152600060018060a01b03808451166020840152806020850151166040840152604084015160a060608501526200324660c085018262002aa6565b90508160608601511660808501528160808601511660a0850152809250505092915050565b60208152600060018060a01b03808451166020840152806020850151166040840152806040850151166060840152606084015160c06080850152620032b460e085018262002aa6565b90506080850151601f198583030160a0860152620032d3828262002aa6565b9150508160a08601511660c0850152809250505092915050565b6001600160a01b03841681526040602082018190528101829052818360608301376000818301606090810191909152601f909201601f1916010192915050565b6000602082840312156200334057600080fd5b5051919050565b601f82111562003397576000816000526020600020601f850160051c81016020861015620033725750805b601f850160051c820191505b8181101562003393578281556001016200337e565b5050505b505050565b81516001600160401b03811115620033b857620033b862002c00565b620033d081620033c9845462002e3f565b8462003347565b602080601f831160018114620034085760008415620033ef5750858301515b600019600386901b1c1916600185901b17855562003393565b600085815260208120601f198616915b82811015620034395788860151825594840194600190910190840162003418565b5085821015620034585787850151600019600388901b60f8161c191681555b5050505050600190811b01905550565b8082018082111562002f405762002f4062002f1456fe60a06040526040516105bf3803806105bf83398101604081905261002291610387565b61002c828261003e565b506001600160a01b031660805261047e565b610047826100fe565b6040516001600160a01b038316907f1cf3b03a6cf19fa2baba4df148e9dcabedea7f8a5c07840e207e5c089be95d3e90600090a28051156100f2576100ed826001600160a01b0316635c60da1b6040518163ffffffff1660e01b8152600401602060405180830381865afa1580156100c3573d6000803e3d6000fd5b505050506040513d601f19601f820116820180604052508101906100e79190610447565b82610211565b505050565b6100fa610288565b5050565b806001600160a01b03163b60000361013957604051631933b43b60e21b81526001600160a01b03821660048201526024015b60405180910390fd5b807fa3f0ad74e5423aebfd80d3ef4346578335a9a72aeaee59ff6cb3582b35133d5080546001600160a01b0319166001600160a01b0392831617905560408051635c60da1b60e01b81529051600092841691635c60da1b9160048083019260209291908290030181865afa1580156101b5573d6000803e3d6000fd5b505050506040513d601f19601f820116820180604052508101906101d99190610447565b9050806001600160a01b03163b6000036100fa57604051634c9c8ce360e01b81526001600160a01b0382166004820152602401610130565b6060600080846001600160a01b03168460405161022e9190610462565b600060405180830381855af49150503d8060008114610269576040519150601f19603f3d011682016040523d82523d6000602084013e61026e565b606091505b50909250905061027f8583836102a9565b95945050505050565b34156102a75760405163b398979f60e01b815260040160405180910390fd5b565b6060826102be576102b982610308565b610301565b81511580156102d557506001600160a01b0384163b155b156102fe57604051639996b31560e01b81526001600160a01b0385166004820152602401610130565b50805b9392505050565b8051156103185780518082602001fd5b604051630a12f52160e11b815260040160405180910390fd5b80516001600160a01b038116811461034857600080fd5b919050565b634e487b7160e01b600052604160045260246000fd5b60005b8381101561037e578181015183820152602001610366565b50506000910152565b6000806040838503121561039a57600080fd5b6103a383610331565b60208401519092506001600160401b03808211156103c057600080fd5b818501915085601f8301126103d457600080fd5b8151818111156103e6576103e661034d565b604051601f8201601f19908116603f0116810190838211818310171561040e5761040e61034d565b8160405282815288602084870101111561042757600080fd5b610438836020830160208801610363565b80955050505050509250929050565b60006020828403121561045957600080fd5b61030182610331565b60008251610474818460208701610363565b9190910192915050565b6080516101276104986000396000601e01526101276000f3fe6080604052600a600c565b005b60186014601a565b60a0565b565b60007f00000000000000000000000000000000000000000000000000000000000000006001600160a01b0316635c60da1b6040518163ffffffff1660e01b8152600401602060405180830381865afa1580156079573d6000803e3d6000fd5b505050506040513d601f19601f82011682018060405250810190609b919060c3565b905090565b3660008037600080366000845af43d6000803e80801560be573d6000f35b3d6000fd5b60006020828403121560d457600080fd5b81516001600160a01b038116811460ea57600080fd5b939250505056fea26469706673582212205c8a2fcdc6f79c1d43b849e2b03f494652cee222b2ec86046b7caaa1405f985f64736f6c63430008180033a2646970667358221220151322119afc35c6d21396cc4fc5fbb8fe1beb358f0ddcb54978399432e6549564736f6c63430008180033",
  "linkReferences": {
    "contracts/buildings/library/BuildingAutoCompounder.sol": {
      "BuildingAutoCompounderLib": [
        {
          "length": 20,
          "start": 4586
        }
      ]
    },
    "contracts/buildings/library/BuildingGovernance.sol": {
      "BuildingGovernanceLib": [
        {
          "length": 20,
          "start": 4305
        }
      ]
    },
    "contracts/buildings/library/BuildingToken.sol": {
      "BuildingTokenLib": [
        {
          "length": 20,
          "start": 3207
        }
      ]
    },
    "contracts/buildings/library/BuildingTreasury.sol": {
      "BuildingTreasuryLib": [
        {
          "length": 20,
          "start": 3704
        }
      ]
    },
    "contracts/buildings/library/BuildingVault.sol": {
      "BuildingVaultLib": [
        {
          "length": 20,
          "start": 3807
        }
      ]
    }
  },
  "deployedLinkReferences": {
    "contracts/buildings/library/BuildingAutoCompounder.sol": {
      "BuildingAutoCompounderLib": [
        {
          "length": 20,
          "start": 4356
        }
      ]
    },
    "contracts/buildings/library/BuildingGovernance.sol": {
      "BuildingGovernanceLib": [
        {
          "length": 20,
          "start": 4075
        }
      ]
    },
    "contracts/buildings/library/BuildingToken.sol": {
      "BuildingTokenLib": [
        {
          "length": 20,
          "start": 2977
        }
      ]
    },
    "contracts/buildings/library/BuildingTreasury.sol": {
      "BuildingTreasuryLib": [
        {
          "length": 20,
          "start": 3474
        }
      ]
    },
    "contracts/buildings/library/BuildingVault.sol": {
      "BuildingVaultLib": [
        {
          "length": 20,
          "start": 3577
        }
      ]
    }
  }
}