{
  "_format": "hh-sol-artifact-1",
  "contractName": "BuildingGovernanceMock",
  "sourceName": "contracts/buildings/governance/mock/BuildingGovernanceMock.sol",
  "abi": [
    {
      "inputs": [
        {
          "internalType": "address",
          "name": "target",
          "type": "address"
        }
      ],
      "name": "AddressEmptyCode",
      "type": "error"
    },
    {
      "inputs": [],
      "name": "CheckpointUnorderedInsertion",
      "type": "error"
    },
    {
      "inputs": [
        {
          "internalType": "address",
          "name": "implementation",
          "type": "address"
        }
      ],
      "name": "ERC1967InvalidImplementation",
      "type": "error"
    },
    {
      "inputs": [],
      "name": "ERC1967NonPayable",
      "type": "error"
    },
    {
      "inputs": [],
      "name": "FailedInnerCall",
      "type": "error"
    },
    {
      "inputs": [
        {
          "internalType": "address",
          "name": "voter",
          "type": "address"
        }
      ],
      "name": "GovernorAlreadyCastVote",
      "type": "error"
    },
    {
      "inputs": [
        {
          "internalType": "uint256",
          "name": "proposalId",
          "type": "uint256"
        }
      ],
      "name": "GovernorAlreadyQueuedProposal",
      "type": "error"
    },
    {
      "inputs": [],
      "name": "GovernorDisabledDeposit",
      "type": "error"
    },
    {
      "inputs": [
        {
          "internalType": "address",
          "name": "proposer",
          "type": "address"
        },
        {
          "internalType": "uint256",
          "name": "votes",
          "type": "uint256"
        },
        {
          "internalType": "uint256",
          "name": "threshold",
          "type": "uint256"
        }
      ],
      "name": "GovernorInsufficientProposerVotes",
      "type": "error"
    },
    {
      "inputs": [
        {
          "internalType": "uint256",
          "name": "targets",
          "type": "uint256"
        },
        {
          "internalType": "uint256",
          "name": "calldatas",
          "type": "uint256"
        },
        {
          "internalType": "uint256",
          "name": "values",
          "type": "uint256"
        }
      ],
      "name": "GovernorInvalidProposalLength",
      "type": "error"
    },
    {
      "inputs": [
        {
          "internalType": "uint256",
          "name": "quorumNumerator",
          "type": "uint256"
        },
        {
          "internalType": "uint256",
          "name": "quorumDenominator",
          "type": "uint256"
        }
      ],
      "name": "GovernorInvalidQuorumFraction",
      "type": "error"
    },
    {
      "inputs": [
        {
          "internalType": "address",
          "name": "voter",
          "type": "address"
        }
      ],
      "name": "GovernorInvalidSignature",
      "type": "error"
    },
    {
      "inputs": [],
      "name": "GovernorInvalidVoteType",
      "type": "error"
    },
    {
      "inputs": [
        {
          "internalType": "uint256",
          "name": "votingPeriod",
          "type": "uint256"
        }
      ],
      "name": "GovernorInvalidVotingPeriod",
      "type": "error"
    },
    {
      "inputs": [
        {
          "internalType": "uint256",
          "name": "proposalId",
          "type": "uint256"
        }
      ],
      "name": "GovernorNonexistentProposal",
      "type": "error"
    },
    {
      "inputs": [
        {
          "internalType": "uint256",
          "name": "proposalId",
          "type": "uint256"
        }
      ],
      "name": "GovernorNotQueuedProposal",
      "type": "error"
    },
    {
      "inputs": [
        {
          "internalType": "address",
          "name": "account",
          "type": "address"
        }
      ],
      "name": "GovernorOnlyExecutor",
      "type": "error"
    },
    {
      "inputs": [
        {
          "internalType": "address",
          "name": "account",
          "type": "address"
        }
      ],
      "name": "GovernorOnlyProposer",
      "type": "error"
    },
    {
      "inputs": [],
      "name": "GovernorQueueNotImplemented",
      "type": "error"
    },
    {
      "inputs": [
        {
          "internalType": "address",
          "name": "proposer",
          "type": "address"
        }
      ],
      "name": "GovernorRestrictedProposer",
      "type": "error"
    },
    {
      "inputs": [
        {
          "internalType": "uint256",
          "name": "proposalId",
          "type": "uint256"
        },
        {
          "internalType": "enum IGovernor.ProposalState",
          "name": "current",
          "type": "uint8"
        },
        {
          "internalType": "bytes32",
          "name": "expectedStates",
          "type": "bytes32"
        }
      ],
      "name": "GovernorUnexpectedProposalState",
      "type": "error"
    },
    {
      "inputs": [
        {
          "internalType": "address",
          "name": "account",
          "type": "address"
        },
        {
          "internalType": "uint256",
          "name": "currentNonce",
          "type": "uint256"
        }
      ],
      "name": "InvalidAccountNonce",
      "type": "error"
    },
    {
      "inputs": [],
      "name": "InvalidInitialization",
      "type": "error"
    },
    {
      "inputs": [],
      "name": "NotInitializing",
      "type": "error"
    },
    {
      "inputs": [
        {
          "internalType": "address",
          "name": "owner",
          "type": "address"
        }
      ],
      "name": "OwnableInvalidOwner",
      "type": "error"
    },
    {
      "inputs": [
        {
          "internalType": "address",
          "name": "account",
          "type": "address"
        }
      ],
      "name": "OwnableUnauthorizedAccount",
      "type": "error"
    },
    {
      "inputs": [],
      "name": "QueueEmpty",
      "type": "error"
    },
    {
      "inputs": [],
      "name": "QueueFull",
      "type": "error"
    },
    {
      "inputs": [
        {
          "internalType": "uint8",
          "name": "bits",
          "type": "uint8"
        },
        {
          "internalType": "uint256",
          "name": "value",
          "type": "uint256"
        }
      ],
      "name": "SafeCastOverflowedUintDowncast",
      "type": "error"
    },
    {
      "inputs": [],
      "name": "UUPSUnauthorizedCallContext",
      "type": "error"
    },
    {
      "inputs": [
        {
          "internalType": "bytes32",
          "name": "slot",
          "type": "bytes32"
        }
      ],
      "name": "UUPSUnsupportedProxiableUUID",
      "type": "error"
    },
    {
      "anonymous": false,
      "inputs": [],
      "name": "EIP712DomainChanged",
      "type": "event"
    },
    {
      "anonymous": false,
      "inputs": [
        {
          "indexed": false,
          "internalType": "uint64",
          "name": "version",
          "type": "uint64"
        }
      ],
      "name": "Initialized",
      "type": "event"
    },
    {
      "anonymous": false,
      "inputs": [
        {
          "indexed": true,
          "internalType": "address",
          "name": "previousOwner",
          "type": "address"
        },
        {
          "indexed": true,
          "internalType": "address",
          "name": "newOwner",
          "type": "address"
        }
      ],
      "name": "OwnershipTransferred",
      "type": "event"
    },
    {
      "anonymous": false,
      "inputs": [
        {
          "indexed": false,
          "internalType": "uint256",
          "name": "proposalId",
          "type": "uint256"
        }
      ],
      "name": "ProposalCanceled",
      "type": "event"
    },
    {
      "anonymous": false,
      "inputs": [
        {
          "indexed": false,
          "internalType": "uint256",
          "name": "proposalId",
          "type": "uint256"
        },
        {
          "indexed": false,
          "internalType": "address",
          "name": "proposer",
          "type": "address"
        },
        {
          "indexed": false,
          "internalType": "address[]",
          "name": "targets",
          "type": "address[]"
        },
        {
          "indexed": false,
          "internalType": "uint256[]",
          "name": "values",
          "type": "uint256[]"
        },
        {
          "indexed": false,
          "internalType": "string[]",
          "name": "signatures",
          "type": "string[]"
        },
        {
          "indexed": false,
          "internalType": "bytes[]",
          "name": "calldatas",
          "type": "bytes[]"
        },
        {
          "indexed": false,
          "internalType": "uint256",
          "name": "voteStart",
          "type": "uint256"
        },
        {
          "indexed": false,
          "internalType": "uint256",
          "name": "voteEnd",
          "type": "uint256"
        },
        {
          "indexed": false,
          "internalType": "string",
          "name": "description",
          "type": "string"
        }
      ],
      "name": "ProposalCreated",
      "type": "event"
    },
    {
      "anonymous": false,
      "inputs": [
        {
          "indexed": false,
          "internalType": "uint256",
          "name": "id",
          "type": "uint256"
        },
        {
          "indexed": false,
          "internalType": "enum BuildingGovernanceStorage.ProposalType",
          "name": "proposalType",
          "type": "uint8"
        },
        {
          "indexed": false,
          "internalType": "address",
          "name": "proposer",
          "type": "address"
        },
        {
          "indexed": false,
          "internalType": "address",
          "name": "receiver",
          "type": "address"
        },
        {
          "indexed": false,
          "internalType": "uint256",
          "name": "amount",
          "type": "uint256"
        }
      ],
      "name": "ProposalDefined",
      "type": "event"
    },
    {
      "anonymous": false,
      "inputs": [
        {
          "indexed": false,
          "internalType": "uint256",
          "name": "proposalId",
          "type": "uint256"
        }
      ],
      "name": "ProposalExecuted",
      "type": "event"
    },
    {
      "anonymous": false,
      "inputs": [
        {
          "indexed": false,
          "internalType": "uint256",
          "name": "proposalId",
          "type": "uint256"
        },
        {
          "indexed": false,
          "internalType": "uint256",
          "name": "etaSeconds",
          "type": "uint256"
        }
      ],
      "name": "ProposalQueued",
      "type": "event"
    },
    {
      "anonymous": false,
      "inputs": [
        {
          "indexed": false,
          "internalType": "uint256",
          "name": "oldQuorumNumerator",
          "type": "uint256"
        },
        {
          "indexed": false,
          "internalType": "uint256",
          "name": "newQuorumNumerator",
          "type": "uint256"
        }
      ],
      "name": "QuorumNumeratorUpdated",
      "type": "event"
    },
    {
      "anonymous": false,
      "inputs": [
        {
          "indexed": true,
          "internalType": "address",
          "name": "implementation",
          "type": "address"
        }
      ],
      "name": "Upgraded",
      "type": "event"
    },
    {
      "anonymous": false,
      "inputs": [
        {
          "indexed": true,
          "internalType": "address",
          "name": "voter",
          "type": "address"
        },
        {
          "indexed": false,
          "internalType": "uint256",
          "name": "proposalId",
          "type": "uint256"
        },
        {
          "indexed": false,
          "internalType": "uint8",
          "name": "support",
          "type": "uint8"
        },
        {
          "indexed": false,
          "internalType": "uint256",
          "name": "weight",
          "type": "uint256"
        },
        {
          "indexed": false,
          "internalType": "string",
          "name": "reason",
          "type": "string"
        }
      ],
      "name": "VoteCast",
      "type": "event"
    },
    {
      "anonymous": false,
      "inputs": [
        {
          "indexed": true,
          "internalType": "address",
          "name": "voter",
          "type": "address"
        },
        {
          "indexed": false,
          "internalType": "uint256",
          "name": "proposalId",
          "type": "uint256"
        },
        {
          "indexed": false,
          "internalType": "uint8",
          "name": "support",
          "type": "uint8"
        },
        {
          "indexed": false,
          "internalType": "uint256",
          "name": "weight",
          "type": "uint256"
        },
        {
          "indexed": false,
          "internalType": "string",
          "name": "reason",
          "type": "string"
        },
        {
          "indexed": false,
          "internalType": "bytes",
          "name": "params",
          "type": "bytes"
        }
      ],
      "name": "VoteCastWithParams",
      "type": "event"
    },
    {
      "inputs": [],
      "name": "BALLOT_TYPEHASH",
      "outputs": [
        {
          "internalType": "bytes32",
          "name": "",
          "type": "bytes32"
        }
      ],
      "stateMutability": "view",
      "type": "function"
    },
    {
      "inputs": [],
      "name": "CLOCK_MODE",
      "outputs": [
        {
          "internalType": "string",
          "name": "",
          "type": "string"
        }
      ],
      "stateMutability": "pure",
      "type": "function"
    },
    {
      "inputs": [],
      "name": "COUNTING_MODE",
      "outputs": [
        {
          "internalType": "string",
          "name": "",
          "type": "string"
        }
      ],
      "stateMutability": "pure",
      "type": "function"
    },
    {
      "inputs": [],
      "name": "EXTENDED_BALLOT_TYPEHASH",
      "outputs": [
        {
          "internalType": "bytes32",
          "name": "",
          "type": "bytes32"
        }
      ],
      "stateMutability": "view",
      "type": "function"
    },
    {
      "inputs": [],
      "name": "UPGRADE_INTERFACE_VERSION",
      "outputs": [
        {
          "internalType": "string",
          "name": "",
          "type": "string"
        }
      ],
      "stateMutability": "view",
      "type": "function"
    },
    {
      "inputs": [
        {
          "internalType": "address[]",
          "name": "targets",
          "type": "address[]"
        },
        {
          "internalType": "uint256[]",
          "name": "values",
          "type": "uint256[]"
        },
        {
          "internalType": "bytes[]",
          "name": "calldatas",
          "type": "bytes[]"
        },
        {
          "internalType": "bytes32",
          "name": "descriptionHash",
          "type": "bytes32"
        }
      ],
      "name": "cancel",
      "outputs": [
        {
          "internalType": "uint256",
          "name": "",
          "type": "uint256"
        }
      ],
      "stateMutability": "nonpayable",
      "type": "function"
    },
    {
      "inputs": [
        {
          "internalType": "uint256",
          "name": "proposalId",
          "type": "uint256"
        },
        {
          "internalType": "uint8",
          "name": "support",
          "type": "uint8"
        }
      ],
      "name": "castVote",
      "outputs": [
        {
          "internalType": "uint256",
          "name": "",
          "type": "uint256"
        }
      ],
      "stateMutability": "nonpayable",
      "type": "function"
    },
    {
      "inputs": [
        {
          "internalType": "uint256",
          "name": "proposalId",
          "type": "uint256"
        },
        {
          "internalType": "uint8",
          "name": "support",
          "type": "uint8"
        },
        {
          "internalType": "address",
          "name": "voter",
          "type": "address"
        },
        {
          "internalType": "bytes",
          "name": "signature",
          "type": "bytes"
        }
      ],
      "name": "castVoteBySig",
      "outputs": [
        {
          "internalType": "uint256",
          "name": "",
          "type": "uint256"
        }
      ],
      "stateMutability": "nonpayable",
      "type": "function"
    },
    {
      "inputs": [
        {
          "internalType": "uint256",
          "name": "proposalId",
          "type": "uint256"
        },
        {
          "internalType": "uint8",
          "name": "support",
          "type": "uint8"
        },
        {
          "internalType": "string",
          "name": "reason",
          "type": "string"
        }
      ],
      "name": "castVoteWithReason",
      "outputs": [
        {
          "internalType": "uint256",
          "name": "",
          "type": "uint256"
        }
      ],
      "stateMutability": "nonpayable",
      "type": "function"
    },
    {
      "inputs": [
        {
          "internalType": "uint256",
          "name": "proposalId",
          "type": "uint256"
        },
        {
          "internalType": "uint8",
          "name": "support",
          "type": "uint8"
        },
        {
          "internalType": "string",
          "name": "reason",
          "type": "string"
        },
        {
          "internalType": "bytes",
          "name": "params",
          "type": "bytes"
        }
      ],
      "name": "castVoteWithReasonAndParams",
      "outputs": [
        {
          "internalType": "uint256",
          "name": "",
          "type": "uint256"
        }
      ],
      "stateMutability": "nonpayable",
      "type": "function"
    },
    {
      "inputs": [
        {
          "internalType": "uint256",
          "name": "proposalId",
          "type": "uint256"
        },
        {
          "internalType": "uint8",
          "name": "support",
          "type": "uint8"
        },
        {
          "internalType": "address",
          "name": "voter",
          "type": "address"
        },
        {
          "internalType": "string",
          "name": "reason",
          "type": "string"
        },
        {
          "internalType": "bytes",
          "name": "params",
          "type": "bytes"
        },
        {
          "internalType": "bytes",
          "name": "signature",
          "type": "bytes"
        }
      ],
      "name": "castVoteWithReasonAndParamsBySig",
      "outputs": [
        {
          "internalType": "uint256",
          "name": "",
          "type": "uint256"
        }
      ],
      "stateMutability": "nonpayable",
      "type": "function"
    },
    {
      "inputs": [],
      "name": "clock",
      "outputs": [
        {
          "internalType": "uint48",
          "name": "",
          "type": "uint48"
        }
      ],
      "stateMutability": "view",
      "type": "function"
    },
    {
      "inputs": [
        {
          "internalType": "address",
          "name": "auditor",
          "type": "address"
        },
        {
          "internalType": "string",
          "name": "description",
          "type": "string"
        }
      ],
      "name": "createAddAuditorProposal",
      "outputs": [
        {
          "internalType": "uint256",
          "name": "proposalId",
          "type": "uint256"
        }
      ],
      "stateMutability": "nonpayable",
      "type": "function"
    },
    {
      "inputs": [
        {
          "internalType": "uint256",
          "name": "amount",
          "type": "uint256"
        },
        {
          "internalType": "string",
          "name": "description",
          "type": "string"
        }
      ],
      "name": "createChangeReserveProposal",
      "outputs": [
        {
          "internalType": "uint256",
          "name": "proposalId",
          "type": "uint256"
        }
      ],
      "stateMutability": "nonpayable",
      "type": "function"
    },
    {
      "inputs": [
        {
          "internalType": "uint256",
          "name": "amount",
          "type": "uint256"
        },
        {
          "internalType": "address",
          "name": "to",
          "type": "address"
        },
        {
          "internalType": "string",
          "name": "description",
          "type": "string"
        }
      ],
      "name": "createPaymentProposal",
      "outputs": [
        {
          "internalType": "uint256",
          "name": "proposalId",
          "type": "uint256"
        }
      ],
      "stateMutability": "nonpayable",
      "type": "function"
    },
    {
      "inputs": [
        {
          "internalType": "address",
          "name": "auditor",
          "type": "address"
        },
        {
          "internalType": "string",
          "name": "description",
          "type": "string"
        }
      ],
      "name": "createRemoveAuditorProposal",
      "outputs": [
        {
          "internalType": "uint256",
          "name": "proposalId",
          "type": "uint256"
        }
      ],
      "stateMutability": "nonpayable",
      "type": "function"
    },
    {
      "inputs": [
        {
          "internalType": "enum BuildingGovernanceStorage.ProposalLevel",
          "name": "",
          "type": "uint8"
        },
        {
          "internalType": "string",
          "name": "description",
          "type": "string"
        }
      ],
      "name": "createTextProposal",
      "outputs": [
        {
          "internalType": "uint256",
          "name": "proposalId",
          "type": "uint256"
        }
      ],
      "stateMutability": "nonpayable",
      "type": "function"
    },
    {
      "inputs": [],
      "name": "eip712Domain",
      "outputs": [
        {
          "internalType": "bytes1",
          "name": "fields",
          "type": "bytes1"
        },
        {
          "internalType": "string",
          "name": "name",
          "type": "string"
        },
        {
          "internalType": "string",
          "name": "version",
          "type": "string"
        },
        {
          "internalType": "uint256",
          "name": "chainId",
          "type": "uint256"
        },
        {
          "internalType": "address",
          "name": "verifyingContract",
          "type": "address"
        },
        {
          "internalType": "bytes32",
          "name": "salt",
          "type": "bytes32"
        },
        {
          "internalType": "uint256[]",
          "name": "extensions",
          "type": "uint256[]"
        }
      ],
      "stateMutability": "view",
      "type": "function"
    },
    {
      "inputs": [
        {
          "internalType": "address[]",
          "name": "targets",
          "type": "address[]"
        },
        {
          "internalType": "uint256[]",
          "name": "values",
          "type": "uint256[]"
        },
        {
          "internalType": "bytes[]",
          "name": "calldatas",
          "type": "bytes[]"
        },
        {
          "internalType": "bytes32",
          "name": "descriptionHash",
          "type": "bytes32"
        }
      ],
      "name": "execute",
      "outputs": [
        {
          "internalType": "uint256",
          "name": "",
          "type": "uint256"
        }
      ],
      "stateMutability": "payable",
      "type": "function"
    },
    {
      "inputs": [
        {
          "internalType": "uint256",
          "name": "proposalId",
          "type": "uint256"
        }
      ],
      "name": "executeAddAuditorProposal",
      "outputs": [],
      "stateMutability": "nonpayable",
      "type": "function"
    },
    {
      "inputs": [
        {
          "internalType": "uint256",
          "name": "proposalId",
          "type": "uint256"
        }
      ],
      "name": "executeChangeReserveProposal",
      "outputs": [],
      "stateMutability": "nonpayable",
      "type": "function"
    },
    {
      "inputs": [
        {
          "internalType": "uint256",
          "name": "proposalId",
          "type": "uint256"
        }
      ],
      "name": "executePaymentProposal",
      "outputs": [],
      "stateMutability": "nonpayable",
      "type": "function"
    },
    {
      "inputs": [
        {
          "internalType": "uint256",
          "name": "proposalId",
          "type": "uint256"
        }
      ],
      "name": "executeRemoveAuditorProposal",
      "outputs": [],
      "stateMutability": "nonpayable",
      "type": "function"
    },
    {
      "inputs": [
        {
          "internalType": "uint256",
          "name": "proposalId",
          "type": "uint256"
        }
      ],
      "name": "executeTextProposal",
      "outputs": [],
      "stateMutability": "nonpayable",
      "type": "function"
    },
    {
      "inputs": [
        {
          "internalType": "address",
          "name": "account",
          "type": "address"
        },
        {
          "internalType": "uint256",
          "name": "timepoint",
          "type": "uint256"
        }
      ],
      "name": "getVotes",
      "outputs": [
        {
          "internalType": "uint256",
          "name": "",
          "type": "uint256"
        }
      ],
      "stateMutability": "view",
      "type": "function"
    },
    {
      "inputs": [
        {
          "internalType": "address",
          "name": "account",
          "type": "address"
        },
        {
          "internalType": "uint256",
          "name": "timepoint",
          "type": "uint256"
        },
        {
          "internalType": "bytes",
          "name": "params",
          "type": "bytes"
        }
      ],
      "name": "getVotesWithParams",
      "outputs": [
        {
          "internalType": "uint256",
          "name": "",
          "type": "uint256"
        }
      ],
      "stateMutability": "view",
      "type": "function"
    },
    {
      "inputs": [
        {
          "internalType": "uint256",
          "name": "proposalId",
          "type": "uint256"
        },
        {
          "internalType": "address",
          "name": "account",
          "type": "address"
        }
      ],
      "name": "hasVoted",
      "outputs": [
        {
          "internalType": "bool",
          "name": "",
          "type": "bool"
        }
      ],
      "stateMutability": "view",
      "type": "function"
    },
    {
      "inputs": [
        {
          "internalType": "address[]",
          "name": "targets",
          "type": "address[]"
        },
        {
          "internalType": "uint256[]",
          "name": "values",
          "type": "uint256[]"
        },
        {
          "internalType": "bytes[]",
          "name": "calldatas",
          "type": "bytes[]"
        },
        {
          "internalType": "bytes32",
          "name": "descriptionHash",
          "type": "bytes32"
        }
      ],
      "name": "hashProposal",
      "outputs": [
        {
          "internalType": "uint256",
          "name": "",
          "type": "uint256"
        }
      ],
      "stateMutability": "pure",
      "type": "function"
    },
    {
      "inputs": [
        {
          "internalType": "contract IVotes",
          "name": "_token",
          "type": "address"
        },
        {
          "internalType": "string",
          "name": "name",
          "type": "string"
        },
        {
          "internalType": "address",
          "name": "initialOwner",
          "type": "address"
        },
        {
          "internalType": "address",
          "name": "treasury",
          "type": "address"
        },
        {
          "internalType": "address",
          "name": "auditRegistry",
          "type": "address"
        }
      ],
      "name": "initialize",
      "outputs": [],
      "stateMutability": "nonpayable",
      "type": "function"
    },
    {
      "inputs": [],
      "name": "name",
      "outputs": [
        {
          "internalType": "string",
          "name": "",
          "type": "string"
        }
      ],
      "stateMutability": "view",
      "type": "function"
    },
    {
      "inputs": [
        {
          "internalType": "address",
          "name": "owner",
          "type": "address"
        }
      ],
      "name": "nonces",
      "outputs": [
        {
          "internalType": "uint256",
          "name": "",
          "type": "uint256"
        }
      ],
      "stateMutability": "view",
      "type": "function"
    },
    {
      "inputs": [
        {
          "internalType": "address",
          "name": "",
          "type": "address"
        },
        {
          "internalType": "address",
          "name": "",
          "type": "address"
        },
        {
          "internalType": "uint256[]",
          "name": "",
          "type": "uint256[]"
        },
        {
          "internalType": "uint256[]",
          "name": "",
          "type": "uint256[]"
        },
        {
          "internalType": "bytes",
          "name": "",
          "type": "bytes"
        }
      ],
      "name": "onERC1155BatchReceived",
      "outputs": [
        {
          "internalType": "bytes4",
          "name": "",
          "type": "bytes4"
        }
      ],
      "stateMutability": "nonpayable",
      "type": "function"
    },
    {
      "inputs": [
        {
          "internalType": "address",
          "name": "",
          "type": "address"
        },
        {
          "internalType": "address",
          "name": "",
          "type": "address"
        },
        {
          "internalType": "uint256",
          "name": "",
          "type": "uint256"
        },
        {
          "internalType": "uint256",
          "name": "",
          "type": "uint256"
        },
        {
          "internalType": "bytes",
          "name": "",
          "type": "bytes"
        }
      ],
      "name": "onERC1155Received",
      "outputs": [
        {
          "internalType": "bytes4",
          "name": "",
          "type": "bytes4"
        }
      ],
      "stateMutability": "nonpayable",
      "type": "function"
    },
    {
      "inputs": [
        {
          "internalType": "address",
          "name": "",
          "type": "address"
        },
        {
          "internalType": "address",
          "name": "",
          "type": "address"
        },
        {
          "internalType": "uint256",
          "name": "",
          "type": "uint256"
        },
        {
          "internalType": "bytes",
          "name": "",
          "type": "bytes"
        }
      ],
      "name": "onERC721Received",
      "outputs": [
        {
          "internalType": "bytes4",
          "name": "",
          "type": "bytes4"
        }
      ],
      "stateMutability": "nonpayable",
      "type": "function"
    },
    {
      "inputs": [],
      "name": "owner",
      "outputs": [
        {
          "internalType": "address",
          "name": "",
          "type": "address"
        }
      ],
      "stateMutability": "view",
      "type": "function"
    },
    {
      "inputs": [
        {
          "internalType": "uint256",
          "name": "proposalId",
          "type": "uint256"
        }
      ],
      "name": "proposalDeadline",
      "outputs": [
        {
          "internalType": "uint256",
          "name": "",
          "type": "uint256"
        }
      ],
      "stateMutability": "view",
      "type": "function"
    },
    {
      "inputs": [
        {
          "internalType": "uint256",
          "name": "proposalId",
          "type": "uint256"
        }
      ],
      "name": "proposalEta",
      "outputs": [
        {
          "internalType": "uint256",
          "name": "",
          "type": "uint256"
        }
      ],
      "stateMutability": "view",
      "type": "function"
    },
    {
      "inputs": [
        {
          "internalType": "uint256",
          "name": "",
          "type": "uint256"
        }
      ],
      "name": "proposalNeedsQueuing",
      "outputs": [
        {
          "internalType": "bool",
          "name": "",
          "type": "bool"
        }
      ],
      "stateMutability": "view",
      "type": "function"
    },
    {
      "inputs": [
        {
          "internalType": "uint256",
          "name": "proposalId",
          "type": "uint256"
        }
      ],
      "name": "proposalProposer",
      "outputs": [
        {
          "internalType": "address",
          "name": "",
          "type": "address"
        }
      ],
      "stateMutability": "view",
      "type": "function"
    },
    {
      "inputs": [
        {
          "internalType": "uint256",
          "name": "proposalId",
          "type": "uint256"
        }
      ],
      "name": "proposalSnapshot",
      "outputs": [
        {
          "internalType": "uint256",
          "name": "",
          "type": "uint256"
        }
      ],
      "stateMutability": "view",
      "type": "function"
    },
    {
      "inputs": [],
      "name": "proposalThreshold",
      "outputs": [
        {
          "internalType": "uint256",
          "name": "",
          "type": "uint256"
        }
      ],
      "stateMutability": "view",
      "type": "function"
    },
    {
      "inputs": [
        {
          "internalType": "uint256",
          "name": "proposalId",
          "type": "uint256"
        }
      ],
      "name": "proposalVotes",
      "outputs": [
        {
          "internalType": "uint256",
          "name": "againstVotes",
          "type": "uint256"
        },
        {
          "internalType": "uint256",
          "name": "forVotes",
          "type": "uint256"
        },
        {
          "internalType": "uint256",
          "name": "abstainVotes",
          "type": "uint256"
        }
      ],
      "stateMutability": "view",
      "type": "function"
    },
    {
      "inputs": [
        {
          "internalType": "address[]",
          "name": "targets",
          "type": "address[]"
        },
        {
          "internalType": "uint256[]",
          "name": "values",
          "type": "uint256[]"
        },
        {
          "internalType": "bytes[]",
          "name": "calldatas",
          "type": "bytes[]"
        },
        {
          "internalType": "string",
          "name": "description",
          "type": "string"
        }
      ],
      "name": "propose",
      "outputs": [
        {
          "internalType": "uint256",
          "name": "",
          "type": "uint256"
        }
      ],
      "stateMutability": "nonpayable",
      "type": "function"
    },
    {
      "inputs": [],
      "name": "proxiableUUID",
      "outputs": [
        {
          "internalType": "bytes32",
          "name": "",
          "type": "bytes32"
        }
      ],
      "stateMutability": "view",
      "type": "function"
    },
    {
      "inputs": [
        {
          "internalType": "address[]",
          "name": "targets",
          "type": "address[]"
        },
        {
          "internalType": "uint256[]",
          "name": "values",
          "type": "uint256[]"
        },
        {
          "internalType": "bytes[]",
          "name": "calldatas",
          "type": "bytes[]"
        },
        {
          "internalType": "bytes32",
          "name": "descriptionHash",
          "type": "bytes32"
        }
      ],
      "name": "queue",
      "outputs": [
        {
          "internalType": "uint256",
          "name": "",
          "type": "uint256"
        }
      ],
      "stateMutability": "nonpayable",
      "type": "function"
    },
    {
      "inputs": [
        {
          "internalType": "uint256",
          "name": "blockNumber",
          "type": "uint256"
        }
      ],
      "name": "quorum",
      "outputs": [
        {
          "internalType": "uint256",
          "name": "",
          "type": "uint256"
        }
      ],
      "stateMutability": "view",
      "type": "function"
    },
    {
      "inputs": [],
      "name": "quorumDenominator",
      "outputs": [
        {
          "internalType": "uint256",
          "name": "",
          "type": "uint256"
        }
      ],
      "stateMutability": "view",
      "type": "function"
    },
    {
      "inputs": [
        {
          "internalType": "uint256",
          "name": "timepoint",
          "type": "uint256"
        }
      ],
      "name": "quorumNumerator",
      "outputs": [
        {
          "internalType": "uint256",
          "name": "",
          "type": "uint256"
        }
      ],
      "stateMutability": "view",
      "type": "function"
    },
    {
      "inputs": [],
      "name": "quorumNumerator",
      "outputs": [
        {
          "internalType": "uint256",
          "name": "",
          "type": "uint256"
        }
      ],
      "stateMutability": "view",
      "type": "function"
    },
    {
      "inputs": [
        {
          "internalType": "address",
          "name": "target",
          "type": "address"
        },
        {
          "internalType": "uint256",
          "name": "value",
          "type": "uint256"
        },
        {
          "internalType": "bytes",
          "name": "data",
          "type": "bytes"
        }
      ],
      "name": "relay",
      "outputs": [],
      "stateMutability": "payable",
      "type": "function"
    },
    {
      "inputs": [],
      "name": "renounceOwnership",
      "outputs": [],
      "stateMutability": "nonpayable",
      "type": "function"
    },
    {
      "inputs": [
        {
          "internalType": "uint256",
          "name": "proposalId",
          "type": "uint256"
        }
      ],
      "name": "state",
      "outputs": [
        {
          "internalType": "enum IGovernor.ProposalState",
          "name": "",
          "type": "uint8"
        }
      ],
      "stateMutability": "view",
      "type": "function"
    },
    {
      "inputs": [
        {
          "internalType": "bytes4",
          "name": "interfaceId",
          "type": "bytes4"
        }
      ],
      "name": "supportsInterface",
      "outputs": [
        {
          "internalType": "bool",
          "name": "",
          "type": "bool"
        }
      ],
      "stateMutability": "view",
      "type": "function"
    },
    {
      "inputs": [],
      "name": "token",
      "outputs": [
        {
          "internalType": "contract IERC5805",
          "name": "",
          "type": "address"
        }
      ],
      "stateMutability": "view",
      "type": "function"
    },
    {
      "inputs": [
        {
          "internalType": "address",
          "name": "newOwner",
          "type": "address"
        }
      ],
      "name": "transferOwnership",
      "outputs": [],
      "stateMutability": "nonpayable",
      "type": "function"
    },
    {
      "inputs": [
        {
          "internalType": "uint256",
          "name": "newQuorumNumerator",
          "type": "uint256"
        }
      ],
      "name": "updateQuorumNumerator",
      "outputs": [],
      "stateMutability": "nonpayable",
      "type": "function"
    },
    {
      "inputs": [
        {
          "internalType": "address",
          "name": "newImplementation",
          "type": "address"
        },
        {
          "internalType": "bytes",
          "name": "data",
          "type": "bytes"
        }
      ],
      "name": "upgradeToAndCall",
      "outputs": [],
      "stateMutability": "payable",
      "type": "function"
    },
    {
      "inputs": [],
      "name": "version",
      "outputs": [
        {
          "internalType": "string",
          "name": "",
          "type": "string"
        }
      ],
      "stateMutability": "pure",
      "type": "function"
    },
    {
      "inputs": [],
      "name": "votingDelay",
      "outputs": [
        {
          "internalType": "uint256",
          "name": "",
          "type": "uint256"
        }
      ],
      "stateMutability": "pure",
      "type": "function"
    },
    {
      "inputs": [],
      "name": "votingPeriod",
      "outputs": [
        {
          "internalType": "uint256",
          "name": "",
          "type": "uint256"
        }
      ],
      "stateMutability": "pure",
      "type": "function"
    },
    {
      "stateMutability": "payable",
      "type": "receive"
    }
  ],
  "bytecode": "0x60a0604052306080523480156200001557600080fd5b506200002062000026565b620000da565b7ff0c57e16840df040f15088dc2f81fe391c3923bec73e23a9662efc9c229c6a00805468010000000000000000900460ff1615620000775760405163f92ee8a960e01b815260040160405180910390fd5b80546001600160401b0390811614620000d75780546001600160401b0319166001600160401b0390811782556040519081527fc7f505b2f371ae2175ee4913f4499e1f2633a7b5936321eed1cdaeb6115181d29060200160405180910390a15b50565b6080516157276200010460003960008181612e3401528181612e5d0152612f9a01526157276000f3fe60806040526004361061031b5760003560e01c806384b0196e1161019c578063b58131b0116100e2578063eb9019d411610090578063eb9019d414610a59578063ec58278014610a79578063f0a75c6314610a99578063f23a6e6114610ab9578063f2fde38b14610ae5578063f8486c9714610b05578063f8ce560a14610b25578063fc0c546a14610b4557600080fd5b8063b58131b01461094c578063bc197c8114610960578063c01f9e371461098c578063c28bc2fa146109ac578063c59057e4146109bf578063dd4e2ba5146109df578063deaaa7cc14610a2557600080fd5b806398f936f71161014a57806398f936f7146108455780639a34a2bd146108655780639a802a6d14610885578063a277136e146108a5578063a7713a70146108c5578063a9a95294146108da578063ab58fb8e146108fb578063ad3cb1cc1461091b57600080fd5b806384b0196e146107715780638da5cb5b146107995780638ff262e3146107ae57806391ddadf4146107ce57806397073ae6146107f1578063974dc13d1461081157806397c3d3341461083157600080fd5b8063452115d6116102615780635a4d64261161020f5780635a4d6426146106475780635b8d0e0d146106675780635f398a141461068757806360c4247f146106a7578063715018a6146106c75780637b3c71d3146106dc5780637d5e81e2146106fc5780637ecebe001461071c57600080fd5b8063452115d6146105585780634bf5d7e9146105785780634f1ef286146105af57806352d1902d146105c2578063544ffc9c146105d757806354fd4d5014610612578063567813881461062757600080fd5b8063234da0b1116102c9578063234da0b114610450578063250dcd4d146104705780632656227d146104905780632d63f693146104a35780632fe3e261146104c35780633932abb1146104f75780633e4f49e61461050b578063438596321461053857600080fd5b806301ffc9a71461032957806302a251a31461035e57806306f3f9e61461037d57806306fdde031461039d578063143489d0146103bf578063150b7a02146103ec578063160cbed71461043057600080fd5b3661032457005b005b600080fd5b34801561033557600080fd5b5061034961034436600461444a565b610b5a565b60405190151581526020015b60405180910390f35b34801561036a57600080fd5b50610e105b604051908152602001610355565b34801561038957600080fd5b50610322610398366004614474565b610bac565b3480156103a957600080fd5b506103b2610bc0565b60405161035591906144dd565b3480156103cb57600080fd5b506103df6103da366004614474565b610c61565b60405161035591906144f0565b3480156103f857600080fd5b506104176104073660046145ce565b630a85bd0160e11b949350505050565b6040516001600160e01b03199091168152602001610355565b34801561043c57600080fd5b5061036f61044b3660046147a7565b610c8a565b34801561045c57600080fd5b5061032261046b366004614474565b610ce1565b34801561047c57600080fd5b5061032261048b366004614474565b610ee6565b61036f61049e3660046147a7565b6110b0565b3480156104af57600080fd5b5061036f6104be366004614474565b6111ec565b3480156104cf57600080fd5b5061036f7f3e83946653575f9a39005e1545185629e92736b7528ab20ca3816f315424a81181565b34801561050357600080fd5b50603c61036f565b34801561051757600080fd5b5061052b610526366004614474565b61121b565b6040516103559190614860565b34801561054457600080fd5b5061034961055336600461486e565b611343565b34801561056457600080fd5b5061036f6105733660046147a7565b61137d565b34801561058457600080fd5b5060408051808201909152600e81526d06d6f64653d74696d657374616d760941b60208201526103b2565b6103226105bd36600461489e565b6113ef565b3480156105ce57600080fd5b5061036f61140e565b3480156105e357600080fd5b506105f76105f2366004614474565b61142b565b60408051938452602084019290925290820152606001610355565b34801561061e57600080fd5b506103b261145e565b34801561063357600080fd5b5061036f610642366004614903565b61147b565b34801561065357600080fd5b5061036f61066236600461489e565b6114a4565b34801561067357600080fd5b5061036f610682366004614977565b61168a565b34801561069357600080fd5b5061036f6106a2366004614a31565b6117c2565b3480156106b357600080fd5b5061036f6106c2366004614474565b611817565b3480156106d357600080fd5b506103226118b0565b3480156106e857600080fd5b5061036f6106f7366004614ab4565b6118c4565b34801561070857600080fd5b5061036f610717366004614b0d565b61190c565b34801561072857600080fd5b5061036f610737366004614bad565b6001600160a01b031660009081527f5ab42ced628888259c08ac98db1eb0cf702fc1501344311d8b100cd1bfe4bb00602052604090205490565b34801561077d57600080fd5b50610786611973565b6040516103559796959493929190614c06565b3480156107a557600080fd5b506103df611a1c565b3480156107ba57600080fd5b5061036f6107c9366004614c76565b611a51565b3480156107da57600080fd5b5060405165ffffffffffff42168152602001610355565b3480156107fd57600080fd5b5061032261080c366004614cc7565b611afc565b34801561081d57600080fd5b5061036f61082c36600461489e565b611c75565b34801561083d57600080fd5b50606461036f565b34801561085157600080fd5b50610322610860366004614474565b611e49565b34801561087157600080fd5b50610322610880366004614474565b61200e565b34801561089157600080fd5b5061036f6108a0366004614d50565b612184565b3480156108b157600080fd5b5061036f6108c0366004614da8565b61219b565b3480156108d157600080fd5b5061036f612366565b3480156108e657600080fd5b506103496108f5366004614474565b50600090565b34801561090757600080fd5b5061036f610916366004614474565b61238b565b34801561092757600080fd5b506103b2604051806040016040528060058152602001640352e302e360dc1b81525081565b34801561095857600080fd5b50600061036f565b34801561096c57600080fd5b5061041761097b366004614dea565b63bc197c8160e01b95945050505050565b34801561099857600080fd5b5061036f6109a7366004614474565b6123ba565b6103226109ba366004614e7d565b61240e565b3480156109cb57600080fd5b5061036f6109da3660046147a7565b61248e565b3480156109eb57600080fd5b506040805180820190915260208082527f737570706f72743d627261766f2671756f72756d3d666f722c6162737461696e908201526103b2565b348015610a3157600080fd5b5061036f7ff2aad550cf55f045cb27e9c559f9889fdfb6e6cdaa032301d6ea397784ae51d781565b348015610a6557600080fd5b5061036f610a74366004614ec0565b6124c8565b348015610a8557600080fd5b5061036f610a94366004614eec565b6124e9565b348015610aa557600080fd5b5061036f610ab4366004614f0e565b612653565b348015610ac557600080fd5b50610417610ad4366004614f3e565b63f23a6e6160e01b95945050505050565b348015610af157600080fd5b50610322610b00366004614bad565b6127ec565b348015610b1157600080fd5b50610322610b20366004614474565b612827565b348015610b3157600080fd5b5061036f610b40366004614474565b6129d9565b348015610b5157600080fd5b506103df6129e4565b60006001600160e01b031982166332a2ad4360e11b1480610b8b57506001600160e01b03198216630271189760e51b145b80610ba657506301ffc9a760e01b6001600160e01b03198316145b92915050565b610bb4612a0d565b610bbd81612a51565b50565b60606000610bcc612aec565b9050806000018054610bdd90614fa6565b80601f0160208091040260200160405190810160405280929190818152602001828054610c0990614fa6565b8015610c565780601f10610c2b57610100808354040283529160200191610c56565b820191906000526020600020905b815481529060010190602001808311610c3957829003601f168201915b505050505091505090565b600080610c6c612aec565b6000938452600101602052505060409020546001600160a01b031690565b600080610c95612aec565b90506000610ca58787878761248e565b9050610cba81610cb56004612b10565b612b33565b506000604051634844252360e11b815260040160405180910390fd5b509695505050505050565b6000610ceb612b72565b600083815260028201602052604090205490915060ff16610d275760405162461bcd60e51b8152600401610d1e90614fe0565b60405180910390fd5b60036000838152600283016020526040902054610100900460ff166004811115610d5357610d53614836565b14610d705760405162461bcd60e51b8152600401610d1e90615027565b60408051600180825281830190925260009160208083019080368337505050600183015481519192506001600160a01b0316908290600090610db457610db4615070565b6001600160a01b039290921660209283029190910190910152604080516001808252818301909252600091816020016020820280368337019050509050600081600081518110610e0657610e06615070565b6020908102919091010152604080516001808252818301909252600091816020015b6060815260200190600190039081610e2857905050600086815260028601602052604090819020549051919250610e7291620100009091046001600160a01b0316906024016144f0565b60408051601f198184030181529190526020810180516001600160e01b031663e429cef160e01b17905281518290600090610eaf57610eaf615070565b6020026020010181905250610ede8383838760020160008a8152602001908152602001600020600201546110b0565b505050505050565b6000610ef0612b72565b600083815260028201602052604090205490915060ff16610f235760405162461bcd60e51b8152600401610d1e90614fe0565b60016000838152600283016020526040902054610100900460ff166004811115610f4f57610f4f614836565b14610f6c5760405162461bcd60e51b8152600401610d1e90615027565b604080516001808252818301909252600091602080830190803683375050835482519293506001600160a01b031691839150600090610fad57610fad615070565b6001600160a01b039290921660209283029190910190910152604080516001808252818301909252600091816020016020820280368337019050509050600081600081518110610fff57610fff615070565b6020908102919091010152604080516001808252818301909252600091816020015b6060815260200190600190039081611021579050506000868152600286016020526040908190208054600190910154915192935061107392620100009091046001600160a01b03169190602401615086565b60408051601f198184030181529190526020810180516001600160e01b0316633e633c1f60e21b17905281518290600090610eaf57610eaf615070565b6000806110bb612aec565b905060006110cb8787878761248e565b90506110eb816110db6005612b10565b6110e56004612b10565b17612b33565b5060008181526001830160205260409020805460ff60f01b1916600160f01b179055306111153090565b6001600160a01b0316146111a15760005b875181101561119f57306001600160a01b031688828151811061114b5761114b615070565b60200260200101516001600160a01b0316036111975761119786828151811061117657611176615070565b60200260200101518051906020012084600201612b9690919063ffffffff16565b600101611126565b505b6111ae8188888888612c07565b6040518181527f712ae1383f79ac853f8d882153778e0260ef8f03b504e2866e0593e04d2b291f906020015b60405180910390a19695505050505050565b6000806111f7612aec565b600093845260010160205250506040902054600160a01b900465ffffffffffff1690565b600080611226612aec565b6000848152600182016020526040902080549192509060ff600160f01b8204811691600160f81b90041681156112625750600795945050505050565b80156112745750600295945050505050565b600061127f876111ec565b9050806000036112a557604051636ad0607560e01b815260048101889052602401610d1e565b65ffffffffffff42168082106112c357506000979650505050505050565b60006112ce896123ba565b90508181106112e65750600198975050505050505050565b6112ef89612cd9565b158061130157506112ff89612d21565b155b156113155750600398975050505050505050565b61131e8961238b565b6000036113345750600498975050505050505050565b50600598975050505050505050565b60008061134e612d46565b6000858152602091825260408082206001600160a01b0387168352600301909252205460ff1691505092915050565b60008061138c8686868661248e565b905061139c81610cb56000612b10565b506113a681610c61565b6001600160a01b0316336001600160a01b0316146113d9573360405163233d98e360e01b8152600401610d1e91906144f0565b6113e586868686612d6a565b9695505050505050565b6113f7612e29565b61140082612ece565b61140a8282612ed6565b5050565b6000611418612f8f565b506000805160206156b283398151915290565b600080600080611439612d46565b6000958652602052505060409092208054600182015460029092015490949193509150565b6040805180820190915260038152620322e360ec1b602082015290565b60008033905061149c84828560405180602001604052806000815250612fd8565b949350505050565b6000806114af612b72565b90506001600160a01b0384166114d75760405162461bcd60e51b8152600401610d1e9061509f565b60408051600180825281830190925260009160208083019080368337505050600183015481519192506001600160a01b031690829060009061151b5761151b615070565b6001600160a01b03929092166020928302919091019091015260408051600180825281830190925260009181602001602082028036833701905050905060008160008151811061156d5761156d615070565b6020908102919091010152604080516001808252818301909252600091816020015b606081526020019060019003908161158f579050509050866040516024016115b791906144f0565b60408051601f198184030181529190526020810180516001600160e01b031663e6116cfd60e01b179052815182906000906115f4576115f4615070565b602002602001018190525061160b8383838961190c565b600081815260028681016020908152604080842080546001600160a01b038e1662010000026001600160b01b0319909116176104011781558b51928c01929092209190920155519196506000805160206156d28339815191529161167891889160049133918d91906150fa565b60405180910390a15050505092915050565b60008061174f876117497f3e83946653575f9a39005e1545185629e92736b7528ab20ca3816f315424a8118c8c8c6116c18e613004565b8d8d6040516116d1929190615136565b60405180910390208c8051906020012060405160200161172e9796959493929190968752602087019590955260ff9390931660408601526001600160a01b03919091166060850152608084015260a083015260c082015260e00190565b60405160208183030381529060405280519060200120613046565b85613073565b90508061177157866040516394ab6c0760e01b8152600401610d1e91906144f0565b6117b589888a89898080601f0160208091040260200160405190810160405280939291908181526020018383808284376000920191909152508b92506130cb915050565b9998505050505050505050565b60008033905061180c87828888888080601f0160208091040260200160405190810160405280939291908181526020018383808284376000920191909152508a92506130cb915050565b979650505050505050565b6000806118226131a8565b805490915060008261183560018461515c565b8154811061184557611845615070565b6000918252602090912001805490915065ffffffffffff811690600160301b90046001600160d01b0316868211611889576001600160d01b03169695505050505050565b61189c611895886131cc565b8690613203565b6001600160d01b0316979650505050505050565b6118b86132b8565b6118c260006132ea565b565b6000803390506113e586828787878080601f016020809104026020016040519081016040528093929190818152602001838380828437600092019190915250612fd892505050565b600033611919818461335b565b611938578060405163d9b3955760e01b8152600401610d1e91906144f0565b60006119568261194960014261516f565b65ffffffffffff166124c8565b905060006119678888888887613446565b98975050505050505050565b600060608060008060006060600061198961364b565b805490915015801561199d57506001810154155b6119e15760405162461bcd60e51b81526020600482015260156024820152741152540dcc4c8e88155b9a5b9a5d1a585b1a5e9959605a1b6044820152606401610d1e565b6119e961366f565b6119f161368c565b60408051600080825260208201909252600f60f81b9c939b5091995046985030975095509350915050565b6000807f9016d09d72d40fdae2fd8ceac6b6234c7706214fd39c1cd1e609a0528c1993005b546001600160a01b031692915050565b600080611abf846117497ff2aad550cf55f045cb27e9c559f9889fdfb6e6cdaa032301d6ea397784ae51d7898989611a888b613004565b60408051602081019690965285019390935260ff90911660608401526001600160a01b0316608083015260a082015260c00161172e565b905080611ae157836040516394ab6c0760e01b8152600401610d1e91906144f0565b6113e586858760405180602001604052806000815250612fd8565b7ff0c57e16840df040f15088dc2f81fe391c3923bec73e23a9662efc9c229c6a008054600160401b810460ff1615906001600160401b0316600081158015611b415750825b90506000826001600160401b03166001148015611b5d5750303b155b905081158015611b6b575080155b15611b895760405163f92ee8a960e01b815260040160405180910390fd5b845467ffffffffffffffff191660011785558315611bb357845460ff60401b1916600160401b1785555b611bbc896136a9565b611bc46136cb565b611bcd8a6136d3565b611bd760016136e4565b611be0886136f5565b611be86136cb565b6000611bf2612b72565b80546001600160a01b03808b166001600160a01b031992831617835560019092018054928a1692909116919091179055508315611c6957845460ff60401b19168555604051600181527fc7f505b2f371ae2175ee4913f4499e1f2633a7b5936321eed1cdaeb6115181d29060200160405180910390a15b50505050505050505050565b600080611c80612b72565b90506001600160a01b038416611ca85760405162461bcd60e51b8152600401610d1e9061509f565b60408051600180825281830190925260009160208083019080368337505050600183015481519192506001600160a01b0316908290600090611cec57611cec615070565b6001600160a01b039290921660209283029190910190910152604080516001808252818301909252600091816020016020820280368337019050509050600081600081518110611d3e57611d3e615070565b6020908102919091010152604080516001808252818301909252600091816020015b6060815260200190600190039081611d6057905050905086604051602401611d8891906144f0565b60408051601f198184030181529190526020810180516001600160e01b031663e429cef160e01b17905281518290600090611dc557611dc5615070565b6020026020010181905250611ddc8383838961190c565b600081815260028681016020908152604080842080546001600160a01b038e1662010000026001600160b01b0319909116176103011781558b51928c01929092209190920155519196506000805160206156d28339815191529161167891889160039133918d91906150fa565b6000611e53612b72565b600083815260028201602052604090205490915060ff16611e865760405162461bcd60e51b8152600401610d1e90614fe0565b60046000838152600283016020526040902054610100900460ff166004811115611eb257611eb2614836565b14611ecf5760405162461bcd60e51b8152600401610d1e90615027565b60408051600180825281830190925260009160208083019080368337505050600183015481519192506001600160a01b0316908290600090611f1357611f13615070565b6001600160a01b039290921660209283029190910190910152604080516001808252818301909252600091816020016020820280368337019050509050600081600081518110611f6557611f65615070565b6020908102919091010152604080516001808252818301909252600091816020015b6060815260200190600190039081611f8757905050600086815260028601602052604090819020549051919250611fd191620100009091046001600160a01b0316906024016144f0565b60408051601f198184030181529190526020810180516001600160e01b031663e6116cfd60e01b17905281518290600090610eaf57610eaf615070565b6000612018612b72565b600083815260028201602052604090205490915060ff1661204b5760405162461bcd60e51b8152600401610d1e90614fe0565b600080838152600283016020526040902054610100900460ff16600481111561207657612076614836565b146120935760405162461bcd60e51b8152600401610d1e90615027565b60408051600180825281830190925260009160208083019080368337505060408051600180825281830190925292935060009291506020808301908036833750506040805160018082528183019092529293506000929150602082015b60608152602001906001900390816120f057905050905060008360008151811061211c5761211c615070565b60200260200101906001600160a01b031690816001600160a01b03168152505060008260008151811061215157612151615070565b602090810291909101810191909152604080516000808252928101909152905081600081518110610eaf57610eaf615070565b6000612191848484613706565b90505b9392505050565b6000806121a6612b72565b60408051600180825281830190925291925060009190602080830190803683375050835482519293506001600160a01b0316918391506000906121eb576121eb615070565b6001600160a01b03929092166020928302919091019091015260408051600180825281830190925260009181602001602082028036833701905050905060008160008151811061223d5761223d615070565b6020908102919091010152604080516001808252818301909252600091816020015b606081526020019060019003908161225f5790505090508688604051602401612289929190615086565b60408051601f198184030181529190526020810180516001600160e01b0316633e633c1f60e21b179052815182906000906122c6576122c6615070565b60200260200101819052506122dd8383838961190c565b60008181526002868101602090815260409283902080546001600160a01b038d1662010000026001600160b01b03199091161761010117815560018082018e90558b51928c019290922092019190915590519196506000805160206156d28339815191529161235391889133908c908e906150fa565b60405180910390a1505050509392505050565b6000806123716131a8565b905061237c8161377e565b6001600160d01b031691505090565b600080612396612aec565b6000938452600190810160205260409093209092015465ffffffffffff1692915050565b6000806123c5612aec565b60008481526001820160205260409020549091506123ff90600160d01b810463ffffffff1690600160a01b900465ffffffffffff16615195565b65ffffffffffff169392505050565b612416612a0d565b600080856001600160a01b0316858585604051612434929190615136565b60006040518083038185875af1925050503d8060008114612471576040519150601f19603f3d011682016040523d82523d6000602084013e612476565b606091505b509150915061248582826137b7565b50505050505050565b6000848484846040516020016124a79493929190615248565b60408051601f19818403018152919052805160209091012095945050505050565b600061219483836124e460408051602081019091526000815290565b613706565b6000806124f4612b72565b6040805160018082528183019092529192506000919060208083019080368337505060408051600180825281830190925292935060009291506020808301908036833750506040805160018082528183019092529293506000929150602082015b606081526020019060019003908161255557905050905060008360008151811061258157612581615070565b60200260200101906001600160a01b031690816001600160a01b0316815250506000826000815181106125b6576125b6615070565b6020908102919091018101919091526040805160008082529281019091529050816000815181106125e9576125e9615070565b60200260200101819052506126008383838961190c565b6000818152600286810160209081526040808420805461ffff191660011781558b51928c01929092209190920155519196506000805160206156d2833981519152916116789188913390829081906150fa565b60008061265e612b72565b60408051600180825281830190925291925060009190602080830190803683375050835482519293506001600160a01b0316918391506000906126a3576126a3615070565b6001600160a01b0392909216602092830291909101909101526040805160018082528183019092526000918160200160208202803683370190505090506000816000815181106126f5576126f5615070565b6020908102919091010152604080516001808252818301909252600091816020015b60608152602001906001900390816127175750506040516024810189905290915060440160408051601f198184030181529190526020810180516001600160e01b0316638c4a381560e01b1790528151829060009061277857612778615070565b602002602001018190525061278f8383838961190c565b6000818152600286810160209081526040808420805461ffff1916610201178155600181018d90558b51928c019290922091830191909155519297506000805160206156d283398151915292611678928992913391908d906150fa565b6127f46132b8565b6001600160a01b03811661281e576000604051631e4fbdf760e01b8152600401610d1e91906144f0565b610bbd816132ea565b6000612831612b72565b600083815260028201602052604090205490915060ff166128645760405162461bcd60e51b8152600401610d1e90614fe0565b60026000838152600283016020526040902054610100900460ff16600481111561289057612890614836565b146128ad5760405162461bcd60e51b8152600401610d1e90615027565b604080516001808252818301909252600091602080830190803683375050835482519293506001600160a01b0316918391506000906128ee576128ee615070565b6001600160a01b03929092166020928302919091019091015260408051600180825281830190925260009181602001602082028036833701905050905060008160008151811061294057612940615070565b6020908102919091010152604080516001808252818301909252600091816020015b6060815260200190600190039081612962575050600086815260028601602052604090819020600101549051602481019190915290915060440160408051601f198184030181529190526020810180516001600160e01b0316638c4a381560e01b17905281518290600090610eaf57610eaf615070565b6000610ba6826137d3565b6000807f3ba4977254e415696610a40ebf2258dbfa0ec6a2ff64e84bfe715ff16977cc00611a41565b6000612a17612aec565b9050303314610bbd57336040516347096e4760e01b8152600401610d1e91906144f0565b80612a488360020161386a565b03612a3b575050565b6000612a5b6131a8565b9050606480831115612a8a5760405163243e544560e01b81526004810184905260248101829052604401610d1e565b6000612a94612366565b9050612aab42612aa3866138df565b859190613913565b505060408051828152602081018690527f0553476bf02ef2726e8ce5ced78d63e26e602e4a2257b1f559418e24b4633997910160405180910390a150505050565b7f7c712897014dbe49c045ef1299aa2d5f9e67e48eea4403efa21f1e0f3ac0cb0090565b6000816007811115612b2457612b24614836565b600160ff919091161b92915050565b600080612b3f8461121b565b9050600083612b4d83612b10565b1603612194578381846040516331b75e4d60e01b8152600401610d1e93929190615293565b7f72a4ccd47996c0aa9e54efd606e03b13bee57794bd0974b6dda8fcd457f3770090565b81546001600160801b03600160801b820481169181166001830190911603612bd157604051638acb5f2760e01b815260040160405180910390fd5b6001600160801b03808216600090815260018086016020526040909120939093558354919092018216600160801b029116179055565b60005b8451811015610ede57600080868381518110612c2857612c28615070565b60200260200101516001600160a01b0316868481518110612c4b57612c4b615070565b6020026020010151868581518110612c6557612c65615070565b6020026020010151604051612c7a91906152b5565b60006040518083038185875af1925050503d8060008114612cb7576040519150601f19603f3d011682016040523d82523d6000602084013e612cbc565b606091505b5091509150612ccb82826137b7565b505050806001019050612c0a565b600080612ce4612d46565b6000848152602082905260409020600281015460018201549293509091612d0b91906152d1565b612d17610b40866111ec565b1115949350505050565b600080612d2c612d46565b600093845260205250506040902080546001909101541190565b7fa1cefa0f43667ef127a258e673c94202a79b656e62899531c4376d87a7f3980090565b600080612d75612aec565b90506000612d858787878761248e565b9050612dd381612d956007612b10565b612d9f6006612b10565b612da96002612b10565b6001612db66007826152e4565b612dc19060026153e1565b612dcb919061515c565b181818612b33565b5060008181526001830160205260409081902080546001600160f81b0316600160f81b179055517f789cf55be980739dad1d0699b93b58e806b51c9d96619bfa8fe0a28abaa7b30c906111da9083815260200190565b306001600160a01b037f0000000000000000000000000000000000000000000000000000000000000000161480612eb057507f00000000000000000000000000000000000000000000000000000000000000006001600160a01b0316612ea46000805160206156b2833981519152546001600160a01b031690565b6001600160a01b031614155b156118c25760405163703e46dd60e11b815260040160405180910390fd5b610bbd6132b8565b816001600160a01b03166352d1902d6040518163ffffffff1660e01b8152600401602060405180830381865afa925050508015612f30575060408051601f3d908101601f19168201909252612f2d918101906153f0565b60015b612f4f5781604051634c9c8ce360e01b8152600401610d1e91906144f0565b6000805160206156b28339815191528114612f8057604051632a87526960e21b815260048101829052602401610d1e565b612f8a838361392e565b505050565b306001600160a01b037f000000000000000000000000000000000000000000000000000000000000000016146118c25760405163703e46dd60e11b815260040160405180910390fd5b6000612ffb85858585612ff660408051602081019091526000815290565b6130cb565b95945050505050565b6001600160a01b031660009081527f5ab42ced628888259c08ac98db1eb0cf702fc1501344311d8b100cd1bfe4bb006020526040902080546001810190915590565b6000610ba6613053613984565b8360405161190160f01b8152600281019290925260228201526042902090565b60008060006130828585613993565b509092509050600081600381111561309c5761309c614836565b1480156130ba5750856001600160a01b0316826001600160a01b0316145b806113e557506113e58686866139e0565b60006130db86610cb56001612b10565b5060006130f1866130eb896111ec565b85613706565b90506131008787878487613abb565b825160000361315557856001600160a01b03167fb8e138887d0aa13bab447e82de9d5c1777041ecd21ca36ba824ff1e6c07ddda4888784886040516131489493929190615409565b60405180910390a26113e5565b856001600160a01b03167fe2babfbac5889a709b63bb7f598b324e08bc5a4fb9ec647fb3cbc9ec07eb87128887848888604051613196959493929190615431565b60405180910390a29695505050505050565b7fe770710421fd2cad75ad828c61aa98f2d77d423a440b67872d0f65554148e00090565b600065ffffffffffff8211156131ff576040516306dfcc6560e41b81526030600482015260248101839052604401610d1e565b5090565b81546000908181600581111561326257600061321e84613bb7565b613228908561515c565b60008881526020902090915081015465ffffffffffff908116908716101561325257809150613260565b61325d8160016152d1565b92505b505b600061327087878585613c9f565b905080156132ab576132958761328760018461515c565b600091825260209091200190565b54600160301b90046001600160d01b031661180c565b6000979650505050505050565b336132c1611a1c565b6001600160a01b0316146118c2573360405163118cdaa760e01b8152600401610d1e91906144f0565b7f9016d09d72d40fdae2fd8ceac6b6234c7706214fd39c1cd1e609a0528c19930080546001600160a01b031981166001600160a01b03848116918217845560405192169182907f8be0079c531659141344cd1fd0a4f28419497f9722a3daafe3b4186f6b6457e090600090a3505050565b80516000906034811015613373576001915050610ba6565b82810160131901516001600160a01b031981166b046e0e4dee0dee6cae47a60f60a31b146133a657600192505050610ba6565b6000806133b460288561515c565b90505b83811015613425576000806133eb8884815181106133d7576133d7615070565b01602001516001600160f81b031916613d01565b91509150816134035760019650505050505050610ba6565b8060ff166004856001600160a01b0316901b17935050508060010190506133b7565b50856001600160a01b0316816001600160a01b031614935050505092915050565b600080613451612aec565b9050613466878787878051906020012061248e565b91508551875114158061347b57508451875114155b8061348557508651155b156134ba57865185518751604051630447b05d60e41b8152600481019390935260248301919091526044820152606401610d1e565b6000828152600182016020526040902054600160a01b900465ffffffffffff161561350757816134e98361121b565b6040516331b75e4d60e01b8152610d1e929190600090600401615293565b6000613514603c426152d1565b90506000610e106000858152600185016020526040902080546001600160a01b0319166001600160a01b038816178155909150613550836131cc565b815465ffffffffffff91909116600160a01b0265ffffffffffff60a01b1990911617815561357d82613d93565b815463ffffffff91909116600160d01b0263ffffffff60d01b1990911617815589517f7d84a6263ae0d98d3329bd7b46bb4e8d6f98cd35a7adb45c274c8b7fd5ebd5e090869088908d908d906001600160401b038111156135e0576135e0614519565b60405190808252806020026020018201604052801561361357816020015b60608152602001906001900390816135fe5790505b508d896136208a826152d1565b8f6040516136369998979695949392919061546b565b60405180910390a15050505095945050505050565b7fa16a46d94261c7517cc8ff89f61c0ce93598e3c849801011dee649a6a557d10090565b6060600061367b61364b565b9050806002018054610bdd90614fa6565b6060600061369861364b565b9050806003018054610bdd90614fa6565b6136b1613dc4565b6136c2816136bd61145e565b613e0d565b610bbd81613e4e565b6118c2613dc4565b6136db613dc4565b610bbd81613e6d565b6136ec613dc4565b610bbd81613eb6565b6136fd613dc4565b610bbd81613ebe565b60006137106129e4565b6001600160a01b0316633a46b1a885856040518363ffffffff1660e01b815260040161373d929190615086565b602060405180830381865afa15801561375a573d6000803e3d6000fd5b505050506040513d601f19601f8201168201806040525081019061219191906153f0565b805460009080156137ae576137988361328760018461515c565b54600160301b90046001600160d01b0316612194565b60009392505050565b6060826137cc576137c782613ec6565b610ba6565b5080610ba6565b600060646137e083611817565b6137e86129e4565b6001600160a01b0316638e539e8c856040518263ffffffff1660e01b815260040161381591815260200190565b602060405180830381865afa158015613832573d6000803e3d6000fd5b505050506040513d601f19601f8201168201806040525081019061385691906153f0565b6138609190615542565b610ba6919061556f565b80546000906001600160801b0380821691600160801b90041681036138a2576040516375e52f4f60e01b815260040160405180910390fd5b6001600160801b038181166000908152600185810160205260408220805492905585546001600160801b0319169301909116919091179092555090565b60006001600160d01b038211156131ff576040516306dfcc6560e41b815260d0600482015260248101839052604401610d1e565b600080613921858585613eef565b915091505b935093915050565b61393782614069565b6040516001600160a01b038316907fbc7cd75a20ee27fd9adebab32041f755214dbc6bffa90cc0225b39da2e5c2d3b90600090a280511561397c57612f8a82826140c5565b61140a614132565b600061398e614151565b905090565b600080600083516041036139cd5760208401516040850151606086015160001a6139bf888285856141c5565b9550955095505050506139d9565b50508151600091506002905b9250925092565b6000806000856001600160a01b03168585604051602401613a02929190615591565b60408051601f198184030181529181526020820180516001600160e01b0316630b135d3f60e11b17905251613a3791906152b5565b600060405180830381855afa9150503d8060008114613a72576040519150601f19603f3d011682016040523d82523d6000602084013e613a77565b606091505b5091509150818015613a8b57506020815110155b80156113e557508051630b135d3f60e11b90613ab090830160209081019084016153f0565b149695505050505050565b6000613ac5612d46565b6000878152602082815260408083206001600160a01b038a16845260038101909252909120549192509060ff1615613b1257856040516371c6af4960e01b8152600401610d1e91906144f0565b6001600160a01b03861660009081526003820160205260409020805460ff1916600117905560ff8516613b5e5783816000016000828254613b5391906152d1565b909155506124859050565b60001960ff861601613b7e5783816001016000828254613b5391906152d1565b60011960ff861601613b9e5783816002016000828254613b5391906152d1565b6040516303599be160e11b815260040160405180910390fd5b600081600003613bc957506000919050565b60006001613bd68461428a565b901c6001901b90506001818481613bef57613bef615559565b048201901c90506001818481613c0757613c07615559565b048201901c90506001818481613c1f57613c1f615559565b048201901c90506001818481613c3757613c37615559565b048201901c90506001818481613c4f57613c4f615559565b048201901c90506001818481613c6757613c67615559565b048201901c90506001818481613c7f57613c7f615559565b048201901c905061219481828581613c9957613c99615559565b0461431e565b60005b81831015613cf9576000613cb68484614334565b60008781526020902090915065ffffffffffff86169082015465ffffffffffff161115613ce557809250613cf3565b613cf08160016152d1565b93505b50613ca2565b509392505050565b60008060f883901c602f81118015613d1c5750603a8160ff16105b15613d3157600194602f199091019350915050565b8060ff166040108015613d47575060478160ff16105b15613d5c576001946036199091019350915050565b8060ff166060108015613d72575060678160ff16105b15613d87576001946056199091019350915050565b50600093849350915050565b600063ffffffff8211156131ff576040516306dfcc6560e41b81526020600482015260248101839052604401610d1e565b7ff0c57e16840df040f15088dc2f81fe391c3923bec73e23a9662efc9c229c6a0054600160401b900460ff166118c257604051631afcd79f60e31b815260040160405180910390fd5b613e15613dc4565b6000613e1f61364b565b905060028101613e2f84826155f2565b5060038101613e3e83826155f2565b5060008082556001909101555050565b613e56613dc4565b6000613e60612aec565b905080612f8a83826155f2565b613e75613dc4565b7f3ba4977254e415696610a40ebf2258dbfa0ec6a2ff64e84bfe715ff16977cc0080546001600160a01b0319166001600160a01b0392909216919091179055565b610bb4613dc4565b6127f4613dc4565b805115613ed65780518082602001fd5b604051630a12f52160e11b815260040160405180910390fd5b82546000908190801561400e576000613f0d8761328760018561515c565b60408051808201909152905465ffffffffffff808216808452600160301b9092046001600160d01b031660208401529192509087161015613f6157604051632520601d60e01b815260040160405180910390fd5b805165ffffffffffff808816911603613fad5784613f848861328760018661515c565b80546001600160d01b0392909216600160301b0265ffffffffffff909216919091179055613ffe565b6040805180820190915265ffffffffffff80881682526001600160d01b0380881660208085019182528b54600181018d5560008d81529190912094519151909216600160301b029216919091179101555b6020015192508391506139269050565b50506040805180820190915265ffffffffffff80851682526001600160d01b0380851660208085019182528854600181018a5560008a815291822095519251909316600160301b029190931617920191909155905081613926565b806001600160a01b03163b6000036140965780604051634c9c8ce360e01b8152600401610d1e91906144f0565b6000805160206156b283398151915280546001600160a01b0319166001600160a01b0392909216919091179055565b6060600080846001600160a01b0316846040516140e291906152b5565b600060405180830381855af49150503d806000811461411d576040519150601f19603f3d011682016040523d82523d6000602084013e614122565b606091505b5091509150612ffb85838361434f565b34156118c25760405163b398979f60e01b815260040160405180910390fd5b60007f8b73c3c69bb8fe3d512ecc4cf759cc79239f7b179b0ffacaa9a75d522b39400f61417c6143a2565b614184614409565b60408051602081019490945283019190915260608201524660808201523060a082015260c00160405160208183030381529060405280519060200120905090565b600080806fa2a8918ca85bafe22016d0b997e4df60600160ff1b038411156141f65750600091506003905082614280565b604080516000808252602082018084528a905260ff891692820192909252606081018790526080810186905260019060a0016020604051602081039080840390855afa15801561424a573d6000803e3d6000fd5b5050604051601f1901519150506001600160a01b03811661427657506000925060019150829050614280565b9250600091508190505b9450945094915050565b600080608083901c1561429f57608092831c92015b604083901c156142b157604092831c92015b602083901c156142c357602092831c92015b601083901c156142d557601092831c92015b600883901c156142e757600892831c92015b600483901c156142f957600492831c92015b600283901c1561430b57600292831c92015b600183901c15610ba65760010192915050565b600081831061432d5781612194565b5090919050565b6000614343600284841861556f565b612194908484166152d1565b6060826143645761435f82613ec6565b612194565b815115801561437b57506001600160a01b0384163b155b1561439b5783604051639996b31560e01b8152600401610d1e91906144f0565b5080612194565b6000806143ad61364b565b905060006143b961366f565b8051909150156143d157805160209091012092915050565b815480156143e0579392505050565b7fc5d2460186f7233c927e7db2dcc703c0e500b653ca82273b7bfad8045d85a470935050505090565b60008061441461364b565b9050600061442061368c565b80519091501561443857805160209091012092915050565b600182015480156143e0579392505050565b60006020828403121561445c57600080fd5b81356001600160e01b03198116811461219457600080fd5b60006020828403121561448657600080fd5b5035919050565b60005b838110156144a8578181015183820152602001614490565b50506000910152565b600081518084526144c981602086016020860161448d565b601f01601f19169290920160200192915050565b60208152600061219460208301846144b1565b6001600160a01b0391909116815260200190565b6001600160a01b0381168114610bbd57600080fd5b634e487b7160e01b600052604160045260246000fd5b604051601f8201601f191681016001600160401b038111828210171561455757614557614519565b604052919050565b600082601f83011261457057600080fd5b81356001600160401b0381111561458957614589614519565b61459c601f8201601f191660200161452f565b8181528460208386010111156145b157600080fd5b816020850160208301376000918101602001919091529392505050565b600080600080608085870312156145e457600080fd5b84356145ef81614504565b935060208501356145ff81614504565b92506040850135915060608501356001600160401b0381111561462157600080fd5b61462d8782880161455f565b91505092959194509250565b60006001600160401b0382111561465257614652614519565b5060051b60200190565b600082601f83011261466d57600080fd5b8135602061468261467d83614639565b61452f565b8083825260208201915060208460051b8701019350868411156146a457600080fd5b602086015b84811015610cd65780356146bc81614504565b83529183019183016146a9565b600082601f8301126146da57600080fd5b813560206146ea61467d83614639565b8083825260208201915060208460051b87010193508684111561470c57600080fd5b602086015b84811015610cd65780358352918301918301614711565b600082601f83011261473957600080fd5b8135602061474961467d83614639565b82815260059290921b8401810191818101908684111561476857600080fd5b8286015b84811015610cd65780356001600160401b0381111561478b5760008081fd5b6147998986838b010161455f565b84525091830191830161476c565b600080600080608085870312156147bd57600080fd5b84356001600160401b03808211156147d457600080fd5b6147e08883890161465c565b955060208701359150808211156147f657600080fd5b614802888389016146c9565b9450604087013591508082111561481857600080fd5b5061482587828801614728565b949793965093946060013593505050565b634e487b7160e01b600052602160045260246000fd5b6008811061485c5761485c614836565b9052565b60208101610ba6828461484c565b6000806040838503121561488157600080fd5b82359150602083013561489381614504565b809150509250929050565b600080604083850312156148b157600080fd5b82356148bc81614504565b915060208301356001600160401b038111156148d757600080fd5b6148e38582860161455f565b9150509250929050565b803560ff811681146148fe57600080fd5b919050565b6000806040838503121561491657600080fd5b82359150614926602084016148ed565b90509250929050565b60008083601f84011261494157600080fd5b5081356001600160401b0381111561495857600080fd5b60208301915083602082850101111561497057600080fd5b9250929050565b600080600080600080600060c0888a03121561499257600080fd5b873596506149a2602089016148ed565b955060408801356149b281614504565b945060608801356001600160401b03808211156149ce57600080fd5b6149da8b838c0161492f565b909650945060808a01359150808211156149f357600080fd5b6149ff8b838c0161455f565b935060a08a0135915080821115614a1557600080fd5b50614a228a828b0161455f565b91505092959891949750929550565b600080600080600060808688031215614a4957600080fd5b85359450614a59602087016148ed565b935060408601356001600160401b0380821115614a7557600080fd5b614a8189838a0161492f565b90955093506060880135915080821115614a9a57600080fd5b50614aa78882890161455f565b9150509295509295909350565b60008060008060608587031215614aca57600080fd5b84359350614ada602086016148ed565b925060408501356001600160401b03811115614af557600080fd5b614b018782880161492f565b95989497509550505050565b60008060008060808587031215614b2357600080fd5b84356001600160401b0380821115614b3a57600080fd5b614b468883890161465c565b95506020870135915080821115614b5c57600080fd5b614b68888389016146c9565b94506040870135915080821115614b7e57600080fd5b614b8a88838901614728565b93506060870135915080821115614ba057600080fd5b5061462d8782880161455f565b600060208284031215614bbf57600080fd5b813561219481614504565b60008151808452602080850194506020840160005b83811015614bfb57815187529582019590820190600101614bdf565b509495945050505050565b60ff60f81b8816815260e060208201526000614c2560e08301896144b1565b8281036040840152614c3781896144b1565b606084018890526001600160a01b038716608085015260a0840186905283810360c08501529050614c688185614bca565b9a9950505050505050505050565b60008060008060808587031215614c8c57600080fd5b84359350614c9c602086016148ed565b92506040850135614cac81614504565b915060608501356001600160401b0381111561462157600080fd5b600080600080600060a08688031215614cdf57600080fd5b8535614cea81614504565b945060208601356001600160401b03811115614d0557600080fd5b614d118882890161455f565b9450506040860135614d2281614504565b92506060860135614d3281614504565b91506080860135614d4281614504565b809150509295509295909350565b600080600060608486031215614d6557600080fd5b8335614d7081614504565b92506020840135915060408401356001600160401b03811115614d9257600080fd5b614d9e8682870161455f565b9150509250925092565b600080600060608486031215614dbd57600080fd5b833592506020840135614dcf81614504565b915060408401356001600160401b03811115614d9257600080fd5b600080600080600060a08688031215614e0257600080fd5b8535614e0d81614504565b94506020860135614e1d81614504565b935060408601356001600160401b0380821115614e3957600080fd5b614e4589838a016146c9565b94506060880135915080821115614e5b57600080fd5b614e6789838a016146c9565b93506080880135915080821115614a9a57600080fd5b60008060008060608587031215614e9357600080fd5b8435614e9e81614504565b93506020850135925060408501356001600160401b03811115614af557600080fd5b60008060408385031215614ed357600080fd5b8235614ede81614504565b946020939093013593505050565b60008060408385031215614eff57600080fd5b8235600181106148bc57600080fd5b60008060408385031215614f2157600080fd5b8235915060208301356001600160401b038111156148d757600080fd5b600080600080600060a08688031215614f5657600080fd5b8535614f6181614504565b94506020860135614f7181614504565b9350604086013592506060860135915060808601356001600160401b03811115614f9a57600080fd5b614aa78882890161455f565b600181811c90821680614fba57607f821691505b602082108103614fda57634e487b7160e01b600052602260045260246000fd5b50919050565b60208082526027908201527f4275696c64696e67476f7665726e616e63653a20696e76616c69642070726f706040820152661bdcd85b08125160ca1b606082015260800190565b60208082526029908201527f4275696c64696e67476f7665726e616e63653a20696e76616c69642070726f706040820152686f73616c207479706560b81b606082015260800190565b634e487b7160e01b600052603260045260246000fd5b6001600160a01b03929092168252602082015260400190565b6020808252602b908201527f4275696c64696e67476f7665726e616e63653a20496e76616c6964206175646960408201526a746f72206164647265737360a81b606082015260800190565b6005811061485c5761485c614836565b85815260a0810161510e60208301876150ea565b6001600160a01b03948516604083015292909316606084015260809092019190915292915050565b8183823760009101908152919050565b634e487b7160e01b600052601160045260246000fd5b81810381811115610ba657610ba6615146565b65ffffffffffff82811682821603908082111561518e5761518e615146565b5092915050565b65ffffffffffff81811683821601908082111561518e5761518e615146565b60008151808452602080850194506020840160005b83811015614bfb5781516001600160a01b0316875295820195908201906001016151c9565b60008282518085526020808601955060208260051b8401016020860160005b8481101561523b57601f198684030189526152298383516144b1565b9884019892509083019060010161520d565b5090979650505050505050565b60808152600061525b60808301876151b4565b828103602084015261526d8187614bca565b9050828103604084015261528181866151ee565b91505082606083015295945050505050565b838152606081016152a7602083018561484c565b826040830152949350505050565b600082516152c781846020870161448d565b9190910192915050565b80820180821115610ba657610ba6615146565b60ff8181168382160190811115610ba657610ba6615146565b600181815b8085111561533857816000190482111561531e5761531e615146565b8085161561532b57918102915b93841c9390800290615302565b509250929050565b60008261534f57506001610ba6565b8161535c57506000610ba6565b8160018114615372576002811461537c57615398565b6001915050610ba6565b60ff84111561538d5761538d615146565b50506001821b610ba6565b5060208310610133831016604e8410600b84101617156153bb575081810a610ba6565b6153c583836152fd565b80600019048211156153d9576153d9615146565b029392505050565b600061219460ff841683615340565b60006020828403121561540257600080fd5b5051919050565b84815260ff841660208201528260408201526080606082015260006113e560808301846144b1565b85815260ff8516602082015283604082015260a06060820152600061545960a08301856144b1565b828103608084015261196781856144b1565b60006101208b8352602060018060a01b038c16818501528160408501526154948285018c6151b4565b915083820360608501526154a8828b614bca565b915083820360808501528189518084528284019150828160051b850101838c0160005b838110156154f957601f198784030185526154e78383516144b1565b948601949250908501906001016154cb565b505086810360a088015261550d818c6151ee565b9450505050508560c08401528460e084015282810361010084015261553281856144b1565b9c9b505050505050505050505050565b8082028115828204841417610ba657610ba6615146565b634e487b7160e01b600052601260045260246000fd5b60008261558c57634e487b7160e01b600052601260045260246000fd5b500490565b82815260406020820152600061219160408301846144b1565b601f821115612f8a576000816000526020600020601f850160051c810160208610156155d35750805b601f850160051c820191505b81811015610ede578281556001016155df565b81516001600160401b0381111561560b5761560b614519565b61561f816156198454614fa6565b846155aa565b602080601f831160018114615654576000841561563c5750858301515b600019600386901b1c1916600185901b178555610ede565b600085815260208120601f198616915b8281101561568357888601518255948401946001909101908401615664565b50858210156156a15787850151600019600388901b60f8161c191681555b5050505050600190811b0190555056fe360894a13ba1a3210667c828492db98dca3e2076cc3735a920a3ca505d382bbca10c63e075db64b7ba9307d5a86ed168b50b42d1f4228392e575c41b030d180aa264697066735822122055a1bb71f28398f72b5441e3b00e5b90ae51bb8187c95a33570e54b991fb504464736f6c63430008180033",
  "linkReferences": {},
  "deployedLinkReferences": {}
}