{
  "_format": "hh-sol-artifact-1",
  "contractName": "BuildingGovernanceMock",
  "sourceName": "contracts/buildings/governance/mock/BuildingGovernanceMock.sol",
  "abi": [
    {
      "inputs": [
        {
          "internalType": "address",
          "name": "target",
          "type": "address"
        }
      ],
      "name": "AddressEmptyCode",
      "type": "error"
    },
    {
      "inputs": [],
      "name": "CheckpointUnorderedInsertion",
      "type": "error"
    },
    {
      "inputs": [
        {
          "internalType": "address",
          "name": "implementation",
          "type": "address"
        }
      ],
      "name": "ERC1967InvalidImplementation",
      "type": "error"
    },
    {
      "inputs": [],
      "name": "ERC1967NonPayable",
      "type": "error"
    },
    {
      "inputs": [],
      "name": "FailedInnerCall",
      "type": "error"
    },
    {
      "inputs": [
        {
          "internalType": "address",
          "name": "voter",
          "type": "address"
        }
      ],
      "name": "GovernorAlreadyCastVote",
      "type": "error"
    },
    {
      "inputs": [
        {
          "internalType": "uint256",
          "name": "proposalId",
          "type": "uint256"
        }
      ],
      "name": "GovernorAlreadyQueuedProposal",
      "type": "error"
    },
    {
      "inputs": [],
      "name": "GovernorDisabledDeposit",
      "type": "error"
    },
    {
      "inputs": [
        {
          "internalType": "address",
          "name": "proposer",
          "type": "address"
        },
        {
          "internalType": "uint256",
          "name": "votes",
          "type": "uint256"
        },
        {
          "internalType": "uint256",
          "name": "threshold",
          "type": "uint256"
        }
      ],
      "name": "GovernorInsufficientProposerVotes",
      "type": "error"
    },
    {
      "inputs": [
        {
          "internalType": "uint256",
          "name": "targets",
          "type": "uint256"
        },
        {
          "internalType": "uint256",
          "name": "calldatas",
          "type": "uint256"
        },
        {
          "internalType": "uint256",
          "name": "values",
          "type": "uint256"
        }
      ],
      "name": "GovernorInvalidProposalLength",
      "type": "error"
    },
    {
      "inputs": [
        {
          "internalType": "uint256",
          "name": "quorumNumerator",
          "type": "uint256"
        },
        {
          "internalType": "uint256",
          "name": "quorumDenominator",
          "type": "uint256"
        }
      ],
      "name": "GovernorInvalidQuorumFraction",
      "type": "error"
    },
    {
      "inputs": [
        {
          "internalType": "address",
          "name": "voter",
          "type": "address"
        }
      ],
      "name": "GovernorInvalidSignature",
      "type": "error"
    },
    {
      "inputs": [],
      "name": "GovernorInvalidVoteType",
      "type": "error"
    },
    {
      "inputs": [
        {
          "internalType": "uint256",
          "name": "votingPeriod",
          "type": "uint256"
        }
      ],
      "name": "GovernorInvalidVotingPeriod",
      "type": "error"
    },
    {
      "inputs": [
        {
          "internalType": "uint256",
          "name": "proposalId",
          "type": "uint256"
        }
      ],
      "name": "GovernorNonexistentProposal",
      "type": "error"
    },
    {
      "inputs": [
        {
          "internalType": "uint256",
          "name": "proposalId",
          "type": "uint256"
        }
      ],
      "name": "GovernorNotQueuedProposal",
      "type": "error"
    },
    {
      "inputs": [
        {
          "internalType": "address",
          "name": "account",
          "type": "address"
        }
      ],
      "name": "GovernorOnlyExecutor",
      "type": "error"
    },
    {
      "inputs": [
        {
          "internalType": "address",
          "name": "account",
          "type": "address"
        }
      ],
      "name": "GovernorOnlyProposer",
      "type": "error"
    },
    {
      "inputs": [],
      "name": "GovernorQueueNotImplemented",
      "type": "error"
    },
    {
      "inputs": [
        {
          "internalType": "address",
          "name": "proposer",
          "type": "address"
        }
      ],
      "name": "GovernorRestrictedProposer",
      "type": "error"
    },
    {
      "inputs": [
        {
          "internalType": "uint256",
          "name": "proposalId",
          "type": "uint256"
        },
        {
          "internalType": "enum IGovernor.ProposalState",
          "name": "current",
          "type": "uint8"
        },
        {
          "internalType": "bytes32",
          "name": "expectedStates",
          "type": "bytes32"
        }
      ],
      "name": "GovernorUnexpectedProposalState",
      "type": "error"
    },
    {
      "inputs": [
        {
          "internalType": "address",
          "name": "account",
          "type": "address"
        },
        {
          "internalType": "uint256",
          "name": "currentNonce",
          "type": "uint256"
        }
      ],
      "name": "InvalidAccountNonce",
      "type": "error"
    },
    {
      "inputs": [],
      "name": "InvalidInitialization",
      "type": "error"
    },
    {
      "inputs": [],
      "name": "NotInitializing",
      "type": "error"
    },
    {
      "inputs": [
        {
          "internalType": "address",
          "name": "owner",
          "type": "address"
        }
      ],
      "name": "OwnableInvalidOwner",
      "type": "error"
    },
    {
      "inputs": [
        {
          "internalType": "address",
          "name": "account",
          "type": "address"
        }
      ],
      "name": "OwnableUnauthorizedAccount",
      "type": "error"
    },
    {
      "inputs": [],
      "name": "QueueEmpty",
      "type": "error"
    },
    {
      "inputs": [],
      "name": "QueueFull",
      "type": "error"
    },
    {
      "inputs": [
        {
          "internalType": "uint8",
          "name": "bits",
          "type": "uint8"
        },
        {
          "internalType": "uint256",
          "name": "value",
          "type": "uint256"
        }
      ],
      "name": "SafeCastOverflowedUintDowncast",
      "type": "error"
    },
    {
      "inputs": [],
      "name": "UUPSUnauthorizedCallContext",
      "type": "error"
    },
    {
      "inputs": [
        {
          "internalType": "bytes32",
          "name": "slot",
          "type": "bytes32"
        }
      ],
      "name": "UUPSUnsupportedProxiableUUID",
      "type": "error"
    },
    {
      "anonymous": false,
      "inputs": [],
      "name": "EIP712DomainChanged",
      "type": "event"
    },
    {
      "anonymous": false,
      "inputs": [
        {
          "indexed": false,
          "internalType": "uint64",
          "name": "version",
          "type": "uint64"
        }
      ],
      "name": "Initialized",
      "type": "event"
    },
    {
      "anonymous": false,
      "inputs": [
        {
          "indexed": false,
          "internalType": "uint256",
          "name": "id",
          "type": "uint256"
        },
        {
          "indexed": false,
          "internalType": "address",
          "name": "safeAddress",
          "type": "address"
        },
        {
          "indexed": false,
          "internalType": "address",
          "name": "receiver",
          "type": "address"
        },
        {
          "indexed": false,
          "internalType": "uint256",
          "name": "amount",
          "type": "uint256"
        }
      ],
      "name": "MultisigProposalExecuted",
      "type": "event"
    },
    {
      "anonymous": false,
      "inputs": [
        {
          "indexed": false,
          "internalType": "uint256",
          "name": "threshold",
          "type": "uint256"
        }
      ],
      "name": "MultisigThresholdUpdated",
      "type": "event"
    },
    {
      "anonymous": false,
      "inputs": [
        {
          "indexed": true,
          "internalType": "address",
          "name": "previousOwner",
          "type": "address"
        },
        {
          "indexed": true,
          "internalType": "address",
          "name": "newOwner",
          "type": "address"
        }
      ],
      "name": "OwnershipTransferred",
      "type": "event"
    },
    {
      "anonymous": false,
      "inputs": [
        {
          "indexed": false,
          "internalType": "uint256",
          "name": "proposalId",
          "type": "uint256"
        }
      ],
      "name": "ProposalCanceled",
      "type": "event"
    },
    {
      "anonymous": false,
      "inputs": [
        {
          "indexed": false,
          "internalType": "uint256",
          "name": "proposalId",
          "type": "uint256"
        },
        {
          "indexed": false,
          "internalType": "address",
          "name": "proposer",
          "type": "address"
        },
        {
          "indexed": false,
          "internalType": "address[]",
          "name": "targets",
          "type": "address[]"
        },
        {
          "indexed": false,
          "internalType": "uint256[]",
          "name": "values",
          "type": "uint256[]"
        },
        {
          "indexed": false,
          "internalType": "string[]",
          "name": "signatures",
          "type": "string[]"
        },
        {
          "indexed": false,
          "internalType": "bytes[]",
          "name": "calldatas",
          "type": "bytes[]"
        },
        {
          "indexed": false,
          "internalType": "uint256",
          "name": "voteStart",
          "type": "uint256"
        },
        {
          "indexed": false,
          "internalType": "uint256",
          "name": "voteEnd",
          "type": "uint256"
        },
        {
          "indexed": false,
          "internalType": "string",
          "name": "description",
          "type": "string"
        }
      ],
      "name": "ProposalCreated",
      "type": "event"
    },
    {
      "anonymous": false,
      "inputs": [
        {
          "indexed": false,
          "internalType": "uint256",
          "name": "id",
          "type": "uint256"
        },
        {
          "indexed": false,
          "internalType": "enum BuildingGovernanceStorage.ProposalType",
          "name": "proposalType",
          "type": "uint8"
        },
        {
          "indexed": false,
          "internalType": "enum BuildingGovernanceStorage.ProposalLevel",
          "name": "level",
          "type": "uint8"
        },
        {
          "indexed": false,
          "internalType": "address",
          "name": "proposer",
          "type": "address"
        },
        {
          "indexed": false,
          "internalType": "address",
          "name": "receiver",
          "type": "address"
        },
        {
          "indexed": false,
          "internalType": "uint256",
          "name": "amount",
          "type": "uint256"
        }
      ],
      "name": "ProposalDefined",
      "type": "event"
    },
    {
      "anonymous": false,
      "inputs": [
        {
          "indexed": false,
          "internalType": "uint256",
          "name": "proposalId",
          "type": "uint256"
        }
      ],
      "name": "ProposalExecuted",
      "type": "event"
    },
    {
      "anonymous": false,
      "inputs": [
        {
          "indexed": false,
          "internalType": "uint256",
          "name": "proposalId",
          "type": "uint256"
        },
        {
          "indexed": false,
          "internalType": "uint256",
          "name": "etaSeconds",
          "type": "uint256"
        }
      ],
      "name": "ProposalQueued",
      "type": "event"
    },
    {
      "anonymous": false,
      "inputs": [
        {
          "indexed": false,
          "internalType": "uint256",
          "name": "oldQuorumNumerator",
          "type": "uint256"
        },
        {
          "indexed": false,
          "internalType": "uint256",
          "name": "newQuorumNumerator",
          "type": "uint256"
        }
      ],
      "name": "QuorumNumeratorUpdated",
      "type": "event"
    },
    {
      "anonymous": false,
      "inputs": [
        {
          "indexed": false,
          "internalType": "address",
          "name": "safeAddress",
          "type": "address"
        }
      ],
      "name": "SafeAddressUpdated",
      "type": "event"
    },
    {
      "anonymous": false,
      "inputs": [
        {
          "indexed": true,
          "internalType": "address",
          "name": "implementation",
          "type": "address"
        }
      ],
      "name": "Upgraded",
      "type": "event"
    },
    {
      "anonymous": false,
      "inputs": [
        {
          "indexed": true,
          "internalType": "address",
          "name": "voter",
          "type": "address"
        },
        {
          "indexed": false,
          "internalType": "uint256",
          "name": "proposalId",
          "type": "uint256"
        },
        {
          "indexed": false,
          "internalType": "uint8",
          "name": "support",
          "type": "uint8"
        },
        {
          "indexed": false,
          "internalType": "uint256",
          "name": "weight",
          "type": "uint256"
        },
        {
          "indexed": false,
          "internalType": "string",
          "name": "reason",
          "type": "string"
        }
      ],
      "name": "VoteCast",
      "type": "event"
    },
    {
      "anonymous": false,
      "inputs": [
        {
          "indexed": true,
          "internalType": "address",
          "name": "voter",
          "type": "address"
        },
        {
          "indexed": false,
          "internalType": "uint256",
          "name": "proposalId",
          "type": "uint256"
        },
        {
          "indexed": false,
          "internalType": "uint8",
          "name": "support",
          "type": "uint8"
        },
        {
          "indexed": false,
          "internalType": "uint256",
          "name": "weight",
          "type": "uint256"
        },
        {
          "indexed": false,
          "internalType": "string",
          "name": "reason",
          "type": "string"
        },
        {
          "indexed": false,
          "internalType": "bytes",
          "name": "params",
          "type": "bytes"
        }
      ],
      "name": "VoteCastWithParams",
      "type": "event"
    },
    {
      "inputs": [],
      "name": "BALLOT_TYPEHASH",
      "outputs": [
        {
          "internalType": "bytes32",
          "name": "",
          "type": "bytes32"
        }
      ],
      "stateMutability": "view",
      "type": "function"
    },
    {
      "inputs": [],
      "name": "CLOCK_MODE",
      "outputs": [
        {
          "internalType": "string",
          "name": "",
          "type": "string"
        }
      ],
      "stateMutability": "pure",
      "type": "function"
    },
    {
      "inputs": [],
      "name": "COUNTING_MODE",
      "outputs": [
        {
          "internalType": "string",
          "name": "",
          "type": "string"
        }
      ],
      "stateMutability": "pure",
      "type": "function"
    },
    {
      "inputs": [],
      "name": "EXTENDED_BALLOT_TYPEHASH",
      "outputs": [
        {
          "internalType": "bytes32",
          "name": "",
          "type": "bytes32"
        }
      ],
      "stateMutability": "view",
      "type": "function"
    },
    {
      "inputs": [],
      "name": "UPGRADE_INTERFACE_VERSION",
      "outputs": [
        {
          "internalType": "string",
          "name": "",
          "type": "string"
        }
      ],
      "stateMutability": "view",
      "type": "function"
    },
    {
      "inputs": [
        {
          "internalType": "address[]",
          "name": "targets",
          "type": "address[]"
        },
        {
          "internalType": "uint256[]",
          "name": "values",
          "type": "uint256[]"
        },
        {
          "internalType": "bytes[]",
          "name": "calldatas",
          "type": "bytes[]"
        },
        {
          "internalType": "bytes32",
          "name": "descriptionHash",
          "type": "bytes32"
        }
      ],
      "name": "cancel",
      "outputs": [
        {
          "internalType": "uint256",
          "name": "",
          "type": "uint256"
        }
      ],
      "stateMutability": "nonpayable",
      "type": "function"
    },
    {
      "inputs": [
        {
          "internalType": "uint256",
          "name": "proposalId",
          "type": "uint256"
        },
        {
          "internalType": "uint8",
          "name": "support",
          "type": "uint8"
        }
      ],
      "name": "castVote",
      "outputs": [
        {
          "internalType": "uint256",
          "name": "",
          "type": "uint256"
        }
      ],
      "stateMutability": "nonpayable",
      "type": "function"
    },
    {
      "inputs": [
        {
          "internalType": "uint256",
          "name": "proposalId",
          "type": "uint256"
        },
        {
          "internalType": "uint8",
          "name": "support",
          "type": "uint8"
        },
        {
          "internalType": "address",
          "name": "voter",
          "type": "address"
        },
        {
          "internalType": "bytes",
          "name": "signature",
          "type": "bytes"
        }
      ],
      "name": "castVoteBySig",
      "outputs": [
        {
          "internalType": "uint256",
          "name": "",
          "type": "uint256"
        }
      ],
      "stateMutability": "nonpayable",
      "type": "function"
    },
    {
      "inputs": [
        {
          "internalType": "uint256",
          "name": "proposalId",
          "type": "uint256"
        },
        {
          "internalType": "uint8",
          "name": "support",
          "type": "uint8"
        },
        {
          "internalType": "string",
          "name": "reason",
          "type": "string"
        }
      ],
      "name": "castVoteWithReason",
      "outputs": [
        {
          "internalType": "uint256",
          "name": "",
          "type": "uint256"
        }
      ],
      "stateMutability": "nonpayable",
      "type": "function"
    },
    {
      "inputs": [
        {
          "internalType": "uint256",
          "name": "proposalId",
          "type": "uint256"
        },
        {
          "internalType": "uint8",
          "name": "support",
          "type": "uint8"
        },
        {
          "internalType": "string",
          "name": "reason",
          "type": "string"
        },
        {
          "internalType": "bytes",
          "name": "params",
          "type": "bytes"
        }
      ],
      "name": "castVoteWithReasonAndParams",
      "outputs": [
        {
          "internalType": "uint256",
          "name": "",
          "type": "uint256"
        }
      ],
      "stateMutability": "nonpayable",
      "type": "function"
    },
    {
      "inputs": [
        {
          "internalType": "uint256",
          "name": "proposalId",
          "type": "uint256"
        },
        {
          "internalType": "uint8",
          "name": "support",
          "type": "uint8"
        },
        {
          "internalType": "address",
          "name": "voter",
          "type": "address"
        },
        {
          "internalType": "string",
          "name": "reason",
          "type": "string"
        },
        {
          "internalType": "bytes",
          "name": "params",
          "type": "bytes"
        },
        {
          "internalType": "bytes",
          "name": "signature",
          "type": "bytes"
        }
      ],
      "name": "castVoteWithReasonAndParamsBySig",
      "outputs": [
        {
          "internalType": "uint256",
          "name": "",
          "type": "uint256"
        }
      ],
      "stateMutability": "nonpayable",
      "type": "function"
    },
    {
      "inputs": [],
      "name": "clock",
      "outputs": [
        {
          "internalType": "uint48",
          "name": "",
          "type": "uint48"
        }
      ],
      "stateMutability": "view",
      "type": "function"
    },
    {
      "inputs": [
        {
          "internalType": "address",
          "name": "auditor",
          "type": "address"
        },
        {
          "internalType": "string",
          "name": "description",
          "type": "string"
        }
      ],
      "name": "createAddAuditorProposal",
      "outputs": [
        {
          "internalType": "uint256",
          "name": "proposalId",
          "type": "uint256"
        }
      ],
      "stateMutability": "nonpayable",
      "type": "function"
    },
    {
      "inputs": [
        {
          "internalType": "uint256",
          "name": "amount",
          "type": "uint256"
        },
        {
          "internalType": "string",
          "name": "description",
          "type": "string"
        }
      ],
      "name": "createChangeReserveProposal",
      "outputs": [
        {
          "internalType": "uint256",
          "name": "proposalId",
          "type": "uint256"
        }
      ],
      "stateMutability": "nonpayable",
      "type": "function"
    },
    {
      "inputs": [
        {
          "internalType": "uint256",
          "name": "amount",
          "type": "uint256"
        },
        {
          "internalType": "address",
          "name": "to",
          "type": "address"
        },
        {
          "internalType": "string",
          "name": "description",
          "type": "string"
        }
      ],
      "name": "createPaymentProposal",
      "outputs": [
        {
          "internalType": "uint256",
          "name": "proposalId",
          "type": "uint256"
        }
      ],
      "stateMutability": "nonpayable",
      "type": "function"
    },
    {
      "inputs": [
        {
          "internalType": "address",
          "name": "auditor",
          "type": "address"
        },
        {
          "internalType": "string",
          "name": "description",
          "type": "string"
        }
      ],
      "name": "createRemoveAuditorProposal",
      "outputs": [
        {
          "internalType": "uint256",
          "name": "proposalId",
          "type": "uint256"
        }
      ],
      "stateMutability": "nonpayable",
      "type": "function"
    },
    {
      "inputs": [
        {
          "internalType": "enum BuildingGovernanceStorage.ProposalLevel",
          "name": "",
          "type": "uint8"
        },
        {
          "internalType": "string",
          "name": "description",
          "type": "string"
        }
      ],
      "name": "createTextProposal",
      "outputs": [
        {
          "internalType": "uint256",
          "name": "proposalId",
          "type": "uint256"
        }
      ],
      "stateMutability": "nonpayable",
      "type": "function"
    },
    {
      "inputs": [],
      "name": "eip712Domain",
      "outputs": [
        {
          "internalType": "bytes1",
          "name": "fields",
          "type": "bytes1"
        },
        {
          "internalType": "string",
          "name": "name",
          "type": "string"
        },
        {
          "internalType": "string",
          "name": "version",
          "type": "string"
        },
        {
          "internalType": "uint256",
          "name": "chainId",
          "type": "uint256"
        },
        {
          "internalType": "address",
          "name": "verifyingContract",
          "type": "address"
        },
        {
          "internalType": "bytes32",
          "name": "salt",
          "type": "bytes32"
        },
        {
          "internalType": "uint256[]",
          "name": "extensions",
          "type": "uint256[]"
        }
      ],
      "stateMutability": "view",
      "type": "function"
    },
    {
      "inputs": [
        {
          "internalType": "address[]",
          "name": "targets",
          "type": "address[]"
        },
        {
          "internalType": "uint256[]",
          "name": "values",
          "type": "uint256[]"
        },
        {
          "internalType": "bytes[]",
          "name": "calldatas",
          "type": "bytes[]"
        },
        {
          "internalType": "bytes32",
          "name": "descriptionHash",
          "type": "bytes32"
        }
      ],
      "name": "execute",
      "outputs": [
        {
          "internalType": "uint256",
          "name": "",
          "type": "uint256"
        }
      ],
      "stateMutability": "payable",
      "type": "function"
    },
    {
      "inputs": [
        {
          "internalType": "uint256",
          "name": "proposalId",
          "type": "uint256"
        }
      ],
      "name": "executeAddAuditorProposal",
      "outputs": [],
      "stateMutability": "nonpayable",
      "type": "function"
    },
    {
      "inputs": [
        {
          "internalType": "uint256",
          "name": "proposalId",
          "type": "uint256"
        }
      ],
      "name": "executeChangeReserveProposal",
      "outputs": [],
      "stateMutability": "nonpayable",
      "type": "function"
    },
    {
      "inputs": [
        {
          "internalType": "uint256",
          "name": "proposalId",
          "type": "uint256"
        },
        {
          "internalType": "bytes",
          "name": "signatures",
          "type": "bytes"
        }
      ],
      "name": "executeMultisigPaymentProposal",
      "outputs": [],
      "stateMutability": "nonpayable",
      "type": "function"
    },
    {
      "inputs": [
        {
          "internalType": "uint256",
          "name": "proposalId",
          "type": "uint256"
        }
      ],
      "name": "executePaymentProposal",
      "outputs": [],
      "stateMutability": "nonpayable",
      "type": "function"
    },
    {
      "inputs": [
        {
          "internalType": "uint256",
          "name": "proposalId",
          "type": "uint256"
        }
      ],
      "name": "executeRemoveAuditorProposal",
      "outputs": [],
      "stateMutability": "nonpayable",
      "type": "function"
    },
    {
      "inputs": [
        {
          "internalType": "uint256",
          "name": "proposalId",
          "type": "uint256"
        }
      ],
      "name": "executeTextProposal",
      "outputs": [],
      "stateMutability": "nonpayable",
      "type": "function"
    },
    {
      "inputs": [],
      "name": "getMultisigThreshold",
      "outputs": [
        {
          "internalType": "uint256",
          "name": "",
          "type": "uint256"
        }
      ],
      "stateMutability": "view",
      "type": "function"
    },
    {
      "inputs": [],
      "name": "getSafeAddress",
      "outputs": [
        {
          "internalType": "address",
          "name": "",
          "type": "address"
        }
      ],
      "stateMutability": "view",
      "type": "function"
    },
    {
      "inputs": [
        {
          "internalType": "address",
          "name": "account",
          "type": "address"
        },
        {
          "internalType": "uint256",
          "name": "timepoint",
          "type": "uint256"
        }
      ],
      "name": "getVotes",
      "outputs": [
        {
          "internalType": "uint256",
          "name": "",
          "type": "uint256"
        }
      ],
      "stateMutability": "view",
      "type": "function"
    },
    {
      "inputs": [
        {
          "internalType": "address",
          "name": "account",
          "type": "address"
        },
        {
          "internalType": "uint256",
          "name": "timepoint",
          "type": "uint256"
        },
        {
          "internalType": "bytes",
          "name": "params",
          "type": "bytes"
        }
      ],
      "name": "getVotesWithParams",
      "outputs": [
        {
          "internalType": "uint256",
          "name": "",
          "type": "uint256"
        }
      ],
      "stateMutability": "view",
      "type": "function"
    },
    {
      "inputs": [
        {
          "internalType": "uint256",
          "name": "proposalId",
          "type": "uint256"
        },
        {
          "internalType": "address",
          "name": "account",
          "type": "address"
        }
      ],
      "name": "hasVoted",
      "outputs": [
        {
          "internalType": "bool",
          "name": "",
          "type": "bool"
        }
      ],
      "stateMutability": "view",
      "type": "function"
    },
    {
      "inputs": [
        {
          "internalType": "address[]",
          "name": "targets",
          "type": "address[]"
        },
        {
          "internalType": "uint256[]",
          "name": "values",
          "type": "uint256[]"
        },
        {
          "internalType": "bytes[]",
          "name": "calldatas",
          "type": "bytes[]"
        },
        {
          "internalType": "bytes32",
          "name": "descriptionHash",
          "type": "bytes32"
        }
      ],
      "name": "hashProposal",
      "outputs": [
        {
          "internalType": "uint256",
          "name": "",
          "type": "uint256"
        }
      ],
      "stateMutability": "pure",
      "type": "function"
    },
    {
      "inputs": [
        {
          "internalType": "contract IVotes",
          "name": "_token",
          "type": "address"
        },
        {
          "internalType": "string",
          "name": "name",
          "type": "string"
        },
        {
          "internalType": "address",
          "name": "initialOwner",
          "type": "address"
        },
        {
          "internalType": "address",
          "name": "treasury",
          "type": "address"
        },
        {
          "internalType": "address",
          "name": "auditRegistry",
          "type": "address"
        }
      ],
      "name": "initialize",
      "outputs": [],
      "stateMutability": "nonpayable",
      "type": "function"
    },
    {
      "inputs": [],
      "name": "name",
      "outputs": [
        {
          "internalType": "string",
          "name": "",
          "type": "string"
        }
      ],
      "stateMutability": "view",
      "type": "function"
    },
    {
      "inputs": [
        {
          "internalType": "address",
          "name": "owner",
          "type": "address"
        }
      ],
      "name": "nonces",
      "outputs": [
        {
          "internalType": "uint256",
          "name": "",
          "type": "uint256"
        }
      ],
      "stateMutability": "view",
      "type": "function"
    },
    {
      "inputs": [
        {
          "internalType": "address",
          "name": "",
          "type": "address"
        },
        {
          "internalType": "address",
          "name": "",
          "type": "address"
        },
        {
          "internalType": "uint256[]",
          "name": "",
          "type": "uint256[]"
        },
        {
          "internalType": "uint256[]",
          "name": "",
          "type": "uint256[]"
        },
        {
          "internalType": "bytes",
          "name": "",
          "type": "bytes"
        }
      ],
      "name": "onERC1155BatchReceived",
      "outputs": [
        {
          "internalType": "bytes4",
          "name": "",
          "type": "bytes4"
        }
      ],
      "stateMutability": "nonpayable",
      "type": "function"
    },
    {
      "inputs": [
        {
          "internalType": "address",
          "name": "",
          "type": "address"
        },
        {
          "internalType": "address",
          "name": "",
          "type": "address"
        },
        {
          "internalType": "uint256",
          "name": "",
          "type": "uint256"
        },
        {
          "internalType": "uint256",
          "name": "",
          "type": "uint256"
        },
        {
          "internalType": "bytes",
          "name": "",
          "type": "bytes"
        }
      ],
      "name": "onERC1155Received",
      "outputs": [
        {
          "internalType": "bytes4",
          "name": "",
          "type": "bytes4"
        }
      ],
      "stateMutability": "nonpayable",
      "type": "function"
    },
    {
      "inputs": [
        {
          "internalType": "address",
          "name": "",
          "type": "address"
        },
        {
          "internalType": "address",
          "name": "",
          "type": "address"
        },
        {
          "internalType": "uint256",
          "name": "",
          "type": "uint256"
        },
        {
          "internalType": "bytes",
          "name": "",
          "type": "bytes"
        }
      ],
      "name": "onERC721Received",
      "outputs": [
        {
          "internalType": "bytes4",
          "name": "",
          "type": "bytes4"
        }
      ],
      "stateMutability": "nonpayable",
      "type": "function"
    },
    {
      "inputs": [],
      "name": "owner",
      "outputs": [
        {
          "internalType": "address",
          "name": "",
          "type": "address"
        }
      ],
      "stateMutability": "view",
      "type": "function"
    },
    {
      "inputs": [
        {
          "internalType": "uint256",
          "name": "proposalId",
          "type": "uint256"
        }
      ],
      "name": "proposalDeadline",
      "outputs": [
        {
          "internalType": "uint256",
          "name": "",
          "type": "uint256"
        }
      ],
      "stateMutability": "view",
      "type": "function"
    },
    {
      "inputs": [
        {
          "internalType": "uint256",
          "name": "proposalId",
          "type": "uint256"
        }
      ],
      "name": "proposalEta",
      "outputs": [
        {
          "internalType": "uint256",
          "name": "",
          "type": "uint256"
        }
      ],
      "stateMutability": "view",
      "type": "function"
    },
    {
      "inputs": [
        {
          "internalType": "uint256",
          "name": "",
          "type": "uint256"
        }
      ],
      "name": "proposalNeedsQueuing",
      "outputs": [
        {
          "internalType": "bool",
          "name": "",
          "type": "bool"
        }
      ],
      "stateMutability": "view",
      "type": "function"
    },
    {
      "inputs": [
        {
          "internalType": "uint256",
          "name": "proposalId",
          "type": "uint256"
        }
      ],
      "name": "proposalProposer",
      "outputs": [
        {
          "internalType": "address",
          "name": "",
          "type": "address"
        }
      ],
      "stateMutability": "view",
      "type": "function"
    },
    {
      "inputs": [
        {
          "internalType": "uint256",
          "name": "proposalId",
          "type": "uint256"
        }
      ],
      "name": "proposalSnapshot",
      "outputs": [
        {
          "internalType": "uint256",
          "name": "",
          "type": "uint256"
        }
      ],
      "stateMutability": "view",
      "type": "function"
    },
    {
      "inputs": [],
      "name": "proposalThreshold",
      "outputs": [
        {
          "internalType": "uint256",
          "name": "",
          "type": "uint256"
        }
      ],
      "stateMutability": "view",
      "type": "function"
    },
    {
      "inputs": [
        {
          "internalType": "uint256",
          "name": "proposalId",
          "type": "uint256"
        }
      ],
      "name": "proposalVotes",
      "outputs": [
        {
          "internalType": "uint256",
          "name": "againstVotes",
          "type": "uint256"
        },
        {
          "internalType": "uint256",
          "name": "forVotes",
          "type": "uint256"
        },
        {
          "internalType": "uint256",
          "name": "abstainVotes",
          "type": "uint256"
        }
      ],
      "stateMutability": "view",
      "type": "function"
    },
    {
      "inputs": [
        {
          "internalType": "address[]",
          "name": "targets",
          "type": "address[]"
        },
        {
          "internalType": "uint256[]",
          "name": "values",
          "type": "uint256[]"
        },
        {
          "internalType": "bytes[]",
          "name": "calldatas",
          "type": "bytes[]"
        },
        {
          "internalType": "string",
          "name": "description",
          "type": "string"
        }
      ],
      "name": "propose",
      "outputs": [
        {
          "internalType": "uint256",
          "name": "",
          "type": "uint256"
        }
      ],
      "stateMutability": "nonpayable",
      "type": "function"
    },
    {
      "inputs": [],
      "name": "proxiableUUID",
      "outputs": [
        {
          "internalType": "bytes32",
          "name": "",
          "type": "bytes32"
        }
      ],
      "stateMutability": "view",
      "type": "function"
    },
    {
      "inputs": [
        {
          "internalType": "address[]",
          "name": "targets",
          "type": "address[]"
        },
        {
          "internalType": "uint256[]",
          "name": "values",
          "type": "uint256[]"
        },
        {
          "internalType": "bytes[]",
          "name": "calldatas",
          "type": "bytes[]"
        },
        {
          "internalType": "bytes32",
          "name": "descriptionHash",
          "type": "bytes32"
        }
      ],
      "name": "queue",
      "outputs": [
        {
          "internalType": "uint256",
          "name": "",
          "type": "uint256"
        }
      ],
      "stateMutability": "nonpayable",
      "type": "function"
    },
    {
      "inputs": [
        {
          "internalType": "uint256",
          "name": "blockNumber",
          "type": "uint256"
        }
      ],
      "name": "quorum",
      "outputs": [
        {
          "internalType": "uint256",
          "name": "",
          "type": "uint256"
        }
      ],
      "stateMutability": "view",
      "type": "function"
    },
    {
      "inputs": [],
      "name": "quorumDenominator",
      "outputs": [
        {
          "internalType": "uint256",
          "name": "",
          "type": "uint256"
        }
      ],
      "stateMutability": "view",
      "type": "function"
    },
    {
      "inputs": [
        {
          "internalType": "uint256",
          "name": "timepoint",
          "type": "uint256"
        }
      ],
      "name": "quorumNumerator",
      "outputs": [
        {
          "internalType": "uint256",
          "name": "",
          "type": "uint256"
        }
      ],
      "stateMutability": "view",
      "type": "function"
    },
    {
      "inputs": [],
      "name": "quorumNumerator",
      "outputs": [
        {
          "internalType": "uint256",
          "name": "",
          "type": "uint256"
        }
      ],
      "stateMutability": "view",
      "type": "function"
    },
    {
      "inputs": [
        {
          "internalType": "address",
          "name": "target",
          "type": "address"
        },
        {
          "internalType": "uint256",
          "name": "value",
          "type": "uint256"
        },
        {
          "internalType": "bytes",
          "name": "data",
          "type": "bytes"
        }
      ],
      "name": "relay",
      "outputs": [],
      "stateMutability": "payable",
      "type": "function"
    },
    {
      "inputs": [],
      "name": "renounceOwnership",
      "outputs": [],
      "stateMutability": "nonpayable",
      "type": "function"
    },
    {
      "inputs": [
        {
          "internalType": "uint256",
          "name": "threshold",
          "type": "uint256"
        }
      ],
      "name": "setMultisigThreshold",
      "outputs": [],
      "stateMutability": "nonpayable",
      "type": "function"
    },
    {
      "inputs": [
        {
          "internalType": "address",
          "name": "safeAddress",
          "type": "address"
        }
      ],
      "name": "setSafeAddress",
      "outputs": [],
      "stateMutability": "nonpayable",
      "type": "function"
    },
    {
      "inputs": [
        {
          "internalType": "uint256",
          "name": "proposalId",
          "type": "uint256"
        }
      ],
      "name": "state",
      "outputs": [
        {
          "internalType": "enum IGovernor.ProposalState",
          "name": "",
          "type": "uint8"
        }
      ],
      "stateMutability": "view",
      "type": "function"
    },
    {
      "inputs": [
        {
          "internalType": "bytes4",
          "name": "interfaceId",
          "type": "bytes4"
        }
      ],
      "name": "supportsInterface",
      "outputs": [
        {
          "internalType": "bool",
          "name": "",
          "type": "bool"
        }
      ],
      "stateMutability": "view",
      "type": "function"
    },
    {
      "inputs": [],
      "name": "token",
      "outputs": [
        {
          "internalType": "contract IERC5805",
          "name": "",
          "type": "address"
        }
      ],
      "stateMutability": "view",
      "type": "function"
    },
    {
      "inputs": [
        {
          "internalType": "address",
          "name": "newOwner",
          "type": "address"
        }
      ],
      "name": "transferOwnership",
      "outputs": [],
      "stateMutability": "nonpayable",
      "type": "function"
    },
    {
      "inputs": [
        {
          "internalType": "uint256",
          "name": "newQuorumNumerator",
          "type": "uint256"
        }
      ],
      "name": "updateQuorumNumerator",
      "outputs": [],
      "stateMutability": "nonpayable",
      "type": "function"
    },
    {
      "inputs": [
        {
          "internalType": "address",
          "name": "newImplementation",
          "type": "address"
        },
        {
          "internalType": "bytes",
          "name": "data",
          "type": "bytes"
        }
      ],
      "name": "upgradeToAndCall",
      "outputs": [],
      "stateMutability": "payable",
      "type": "function"
    },
    {
      "inputs": [],
      "name": "version",
      "outputs": [
        {
          "internalType": "string",
          "name": "",
          "type": "string"
        }
      ],
      "stateMutability": "pure",
      "type": "function"
    },
    {
      "inputs": [],
      "name": "votingDelay",
      "outputs": [
        {
          "internalType": "uint256",
          "name": "",
          "type": "uint256"
        }
      ],
      "stateMutability": "pure",
      "type": "function"
    },
    {
      "inputs": [],
      "name": "votingPeriod",
      "outputs": [
        {
          "internalType": "uint256",
          "name": "",
          "type": "uint256"
        }
      ],
      "stateMutability": "pure",
      "type": "function"
    },
    {
      "stateMutability": "payable",
      "type": "receive"
    }
  ],
  "bytecode": "0x60a0604052306080523480156200001557600080fd5b506200002062000026565b620000da565b7ff0c57e16840df040f15088dc2f81fe391c3923bec73e23a9662efc9c229c6a00805468010000000000000000900460ff1615620000775760405163f92ee8a960e01b815260040160405180910390fd5b80546001600160401b0390811614620000d75780546001600160401b0319166001600160401b0390811782556040519081527fc7f505b2f371ae2175ee4913f4499e1f2633a7b5936321eed1cdaeb6115181d29060200160405180910390a15b50565b608051615f9562000104600039600081816132ca015281816132f301526134300152615f956000f3fe6080604052600436106103525760003560e01c80638203262a116101bd578063b58131b0116100f8578063deaaa7cc1161009b578063deaaa7cc14610ae6578063eb9019d414610b1a578063ec58278014610b3a578063f0a75c6314610b5a578063f23a6e6114610b7a578063f2fde38b14610ba6578063f8486c9714610bc6578063f8ce560a14610be6578063fc0c546a14610c0657600080fd5b8063b58131b0146109d8578063bc197c81146109ec578063c01f9e3714610a18578063c28bc2fa14610a38578063c59057e414610a4b578063c8b8632f14610a6b578063d17b8f9814610a8b578063dd4e2ba514610aa057600080fd5b806398f936f71161016057806398f936f7146108d15780639a34a2bd146108f15780639a802a6d14610911578063a277136e14610931578063a7713a7014610951578063a9a9529414610966578063ab58fb8e14610987578063ad3cb1cc146109a757600080fd5b80638203262a146107e857806384b0196e146107fd5780638da5cb5b146108255780638ff262e31461083a57806391ddadf41461085a57806397073ae61461087d578063974dc13d1461089d57806397c3d334146108bd57600080fd5b8063438596321161028d5780635a4d6426116102305780635a4d6426146106be5780635b8d0e0d146106de5780635f398a14146106fe57806360c4247f1461071e578063715018a61461073e5780637b3c71d3146107535780637d5e81e2146107735780637ecebe001461079357600080fd5b806343859632146105af578063452115d6146105cf5780634bf5d7e9146105ef5780634f1ef2861461062657806352d1902d14610639578063544ffc9c1461064e57806354fd4d5014610689578063567813881461069e57600080fd5b8063234da0b1116102f5578063234da0b1146104a7578063250dcd4d146104c75780632656227d146104e75780632d63f693146104fa5780632fe3e2611461051a5780633932abb11461054e5780633e4f49e6146105625780633f4495291461058f57600080fd5b806301ffc9a71461036057806302a251a31461039557806306f3f9e6146103b457806306fdde03146103d4578063143489d0146103f6578063150b7a0214610423578063160cbed7146104675780631ec499091461048757600080fd5b3661035b57005b005b600080fd5b34801561036c57600080fd5b5061038061037b366004614b41565b610c1b565b60405190151581526020015b60405180910390f35b3480156103a157600080fd5b50610e105b60405190815260200161038c565b3480156103c057600080fd5b506103596103cf366004614b6b565b610c6d565b3480156103e057600080fd5b506103e9610c81565b60405161038c9190614bd4565b34801561040257600080fd5b50610416610411366004614b6b565b610d22565b60405161038c9190614be7565b34801561042f57600080fd5b5061044e61043e366004614cc5565b630a85bd0160e11b949350505050565b6040516001600160e01b0319909116815260200161038c565b34801561047357600080fd5b506103a6610482366004614e9e565b610d4b565b34801561049357600080fd5b506103596104a2366004614f2d565b610da2565b3480156104b357600080fd5b506103596104c2366004614b6b565b610e10565b3480156104d357600080fd5b506103596104e2366004614b6b565b611016565b6103a66104f5366004614e9e565b611281565b34801561050657600080fd5b506103a6610515366004614b6b565b6113bd565b34801561052657600080fd5b506103a67f3e83946653575f9a39005e1545185629e92736b7528ab20ca3816f315424a81181565b34801561055a57600080fd5b50603c6103a6565b34801561056e57600080fd5b5061058261057d366004614b6b565b6113ec565b60405161038c9190614f74565b34801561059b57600080fd5b506103596105aa366004614b6b565b611514565b3480156105bb57600080fd5b506103806105ca366004614f82565b611560565b3480156105db57600080fd5b506103a66105ea366004614e9e565b61159a565b3480156105fb57600080fd5b5060408051808201909152600e81526d06d6f64653d74696d657374616d760941b60208201526103e9565b610359610634366004614fb2565b61160c565b34801561064557600080fd5b506103a661162b565b34801561065a57600080fd5b5061066e610669366004614b6b565b611648565b6040805193845260208401929092529082015260600161038c565b34801561069557600080fd5b506103e961167b565b3480156106aa57600080fd5b506103a66106b9366004615017565b611698565b3480156106ca57600080fd5b506103a66106d9366004614fb2565b6116c1565b3480156106ea57600080fd5b506103a66106f936600461508b565b6118aa565b34801561070a57600080fd5b506103a6610719366004615145565b6119e2565b34801561072a57600080fd5b506103a6610739366004614b6b565b611a37565b34801561074a57600080fd5b50610359611ad0565b34801561075f57600080fd5b506103a661076e3660046151c8565b611ae4565b34801561077f57600080fd5b506103a661078e366004615221565b611b2c565b34801561079f57600080fd5b506103a66107ae366004614f2d565b6001600160a01b031660009081527f5ab42ced628888259c08ac98db1eb0cf702fc1501344311d8b100cd1bfe4bb00602052604090205490565b3480156107f457600080fd5b506103a6611b93565b34801561080957600080fd5b50610812611ba8565b60405161038c97969594939291906152fd565b34801561083157600080fd5b50610416611c51565b34801561084657600080fd5b506103a661085536600461536d565b611c86565b34801561086657600080fd5b5060405165ffffffffffff4216815260200161038c565b34801561088957600080fd5b506103596108983660046153be565b611d31565b3480156108a957600080fd5b506103a66108b8366004614fb2565b611eb1565b3480156108c957600080fd5b5060646103a6565b3480156108dd57600080fd5b506103596108ec366004614b6b565b61208a565b3480156108fd57600080fd5b5061035961090c366004614b6b565b612250565b34801561091d57600080fd5b506103a661092c366004615447565b6123c5565b34801561093d57600080fd5b506103a661094c36600461549f565b6123dc565b34801561095d57600080fd5b506103a661242c565b34801561097257600080fd5b50610380610981366004614b6b565b50600090565b34801561099357600080fd5b506103a66109a2366004614b6b565b612451565b3480156109b357600080fd5b506103e9604051806040016040528060058152602001640352e302e360dc1b81525081565b3480156109e457600080fd5b5060006103a6565b3480156109f857600080fd5b5061044e610a073660046154e1565b63bc197c8160e01b95945050505050565b348015610a2457600080fd5b506103a6610a33366004614b6b565b612480565b610359610a46366004615574565b6124d4565b348015610a5757600080fd5b506103a6610a66366004614e9e565b612554565b348015610a7757600080fd5b50610359610a863660046155b7565b61258e565b348015610a9757600080fd5b50610416612909565b348015610aac57600080fd5b506040805180820190915260208082527f737570706f72743d627261766f2671756f72756d3d666f722c6162737461696e908201526103e9565b348015610af257600080fd5b506103a67ff2aad550cf55f045cb27e9c559f9889fdfb6e6cdaa032301d6ea397784ae51d781565b348015610b2657600080fd5b506103a6610b35366004615602565b612927565b348015610b4657600080fd5b506103a6610b5536600461562e565b612948565b348015610b6657600080fd5b506103a6610b75366004615650565b612ab7565b348015610b8657600080fd5b5061044e610b95366004615680565b63f23a6e6160e01b95945050505050565b348015610bb257600080fd5b50610359610bc1366004614f2d565b612c4f565b348015610bd257600080fd5b50610359610be1366004614b6b565b612c8a565b348015610bf257600080fd5b506103a6610c01366004614b6b565b612e3d565b348015610c1257600080fd5b50610416612e48565b60006001600160e01b031982166332a2ad4360e11b1480610c4c57506001600160e01b03198216630271189760e51b145b80610c6757506301ffc9a760e01b6001600160e01b03198316145b92915050565b610c75612e71565b610c7e81612eb5565b50565b60606000610c8d612f50565b9050806000018054610c9e906156e8565b80601f0160208091040260200160405190810160405280929190818152602001828054610cca906156e8565b8015610d175780601f10610cec57610100808354040283529160200191610d17565b820191906000526020600020905b815481529060010190602001808311610cfa57829003601f168201915b505050505091505090565b600080610d2d612f50565b6000938452600101602052505060409020546001600160a01b031690565b600080610d56612f50565b90506000610d6687878787612554565b9050610d7b81610d766004612f74565b612f97565b506000604051634844252360e11b815260040160405180910390fd5b509695505050505050565b610daa612fd6565b6000610db4613008565b6002810180546001600160a01b0319166001600160a01b0385161790556040519091507ffa30430c77a65b138ffad97ae51cb9c565399a9a1ac557ce1dc72bbc1e149a2890610e04908490614be7565b60405180910390a15050565b6000610e1a613008565b600083815260048201602052604090205490915060ff16610e565760405162461bcd60e51b8152600401610e4d90615722565b60405180910390fd5b600360008381526004838101602052604090912054610100900460ff1690811115610e8357610e83614f4a565b14610ea05760405162461bcd60e51b8152600401610e4d90615769565b60408051600180825281830190925260009160208083019080368337505050600183015481519192506001600160a01b0316908290600090610ee457610ee46157b2565b6001600160a01b039290921660209283029190910190910152604080516001808252818301909252600091816020016020820280368337019050509050600081600081518110610f3657610f366157b2565b6020908102919091010152604080516001808252818301909252600091816020015b6060815260200190600190039081610f5857905050600086815260048601602052604090819020549051919250610fa291620100009091046001600160a01b031690602401614be7565b60408051601f198184030181529190526020810180516001600160e01b031663e429cef160e01b17905281518290600090610fdf57610fdf6157b2565b602002602001018190525061100e8383838760040160008a815260200190815260200160002060020154611281565b505050505050565b6000611020613008565b600083815260048201602052604090205490915060ff166110535760405162461bcd60e51b8152600401610e4d90615722565b600160008381526004838101602052604090912054610100900460ff169081111561108057611080614f4a565b1461109d5760405162461bcd60e51b8152600401610e4d90615769565b600082815260048201602052604090206003015460ff161561113d5760405162461bcd60e51b815260206004820152604d60248201527f4275696c64696e67476f7665726e616e63653a2075736520657865637574654d60448201527f756c74697369675061796d656e7450726f706f73616c20666f72206d756c746960648201526c7369672070726f706f73616c7360981b608482015260a401610e4d565b604080516001808252818301909252600091602080830190803683375050835482519293506001600160a01b03169183915060009061117e5761117e6157b2565b6001600160a01b0392909216602092830291909101909101526040805160018082528183019092526000918160200160208202803683370190505090506000816000815181106111d0576111d06157b2565b6020908102919091010152604080516001808252818301909252600091816020015b60608152602001906001900390816111f2579050506000868152600486016020526040908190208054600190910154915192935061124492620100009091046001600160a01b031691906024016157c8565b60408051601f198184030181529190526020810180516001600160e01b0316633e633c1f60e21b17905281518290600090610fdf57610fdf6157b2565b60008061128c612f50565b9050600061129c87878787612554565b90506112bc816112ac6005612f74565b6112b66004612f74565b17612f97565b5060008181526001830160205260409020805460ff60f01b1916600160f01b179055306112e63090565b6001600160a01b0316146113725760005b875181101561137057306001600160a01b031688828151811061131c5761131c6157b2565b60200260200101516001600160a01b03160361136857611368868281518110611347576113476157b2565b6020026020010151805190602001208460020161302c90919063ffffffff16565b6001016112f7565b505b61137f818888888861309d565b6040518181527f712ae1383f79ac853f8d882153778e0260ef8f03b504e2866e0593e04d2b291f906020015b60405180910390a19695505050505050565b6000806113c8612f50565b600093845260010160205250506040902054600160a01b900465ffffffffffff1690565b6000806113f7612f50565b6000848152600182016020526040902080549192509060ff600160f01b8204811691600160f81b90041681156114335750600795945050505050565b80156114455750600295945050505050565b6000611450876113bd565b90508060000361147657604051636ad0607560e01b815260048101889052602401610e4d565b65ffffffffffff421680821061149457506000979650505050505050565b600061149f89612480565b90508181106114b75750600198975050505050505050565b6114c08961316f565b15806114d257506114d0896131b7565b155b156114e65750600398975050505050505050565b6114ef89612451565b6000036115055750600498975050505050505050565b50600598975050505050505050565b61151c612fd6565b6000611526613008565b600381018390556040518381529091507f8b77fc0c41e5e6289d444110fa28b136e2bc46cdda4c5e5b80eea22ed8dc3b7490602001610e04565b60008061156b6131dc565b6000858152602091825260408082206001600160a01b0387168352600301909252205460ff1691505092915050565b6000806115a986868686612554565b90506115b981610d766000612f74565b506115c381610d22565b6001600160a01b0316336001600160a01b0316146115f6573360405163233d98e360e01b8152600401610e4d9190614be7565b61160286868686613200565b9695505050505050565b6116146132bf565b61161d82613364565b611627828261336c565b5050565b6000611635613425565b50600080516020615f2083398151915290565b6000806000806116566131dc565b6000958652602052505060409092208054600182015460029092015490949193509150565b6040805180820190915260038152620322e360ec1b602082015290565b6000803390506116b98482856040518060200160405280600081525061346e565b949350505050565b6000806116cc613008565b90506001600160a01b0384166116f45760405162461bcd60e51b8152600401610e4d906157e1565b60408051600180825281830190925260009160208083019080368337505050600183015481519192506001600160a01b0316908290600090611738576117386157b2565b6001600160a01b03929092166020928302919091019091015260408051600180825281830190925260009181602001602082028036833701905050905060008160008151811061178a5761178a6157b2565b6020908102919091010152604080516001808252818301909252600091816020015b60608152602001906001900390816117ac579050509050866040516024016117d49190614be7565b60408051601f198184030181529190526020810180516001600160e01b031663e6116cfd60e01b17905281518290600090611811576118116157b2565b602002602001018190525061182883838389611b2c565b600081815260048681016020908152604080842080546001600160a01b038e1662010000026001600160b01b0319909116176104011781558b51928c019290922060029092019190915551929750600080516020615f40833981519152926118989289929133908d90839061584c565b60405180910390a15050505092915050565b60008061196f876119697f3e83946653575f9a39005e1545185629e92736b7528ab20ca3816f315424a8118c8c8c6118e18e61349a565b8d8d6040516118f1929190615896565b60405180910390208c8051906020012060405160200161194e9796959493929190968752602087019590955260ff9390931660408601526001600160a01b03919091166060850152608084015260a083015260c082015260e00190565b604051602081830303815290604052805190602001206134dc565b85613509565b90508061199157866040516394ab6c0760e01b8152600401610e4d9190614be7565b6119d589888a89898080601f0160208091040260200160405190810160405280939291908181526020018383808284376000920191909152508b9250613561915050565b9998505050505050505050565b600080339050611a2c87828888888080601f0160208091040260200160405190810160405280939291908181526020018383808284376000920191909152508a9250613561915050565b979650505050505050565b600080611a4261363e565b8054909150600082611a556001846158bc565b81548110611a6557611a656157b2565b6000918252602090912001805490915065ffffffffffff811690600160301b90046001600160d01b0316868211611aa9576001600160d01b03169695505050505050565b611abc611ab588613662565b8690613699565b6001600160d01b0316979650505050505050565b611ad8612fd6565b611ae2600061374e565b565b60008033905061160286828787878080601f01602080910402602001604051908101604052809392919081815260200183838082843760009201919091525061346e92505050565b600033611b3981846137bf565b611b58578060405163d9b3955760e01b8152600401610e4d9190614be7565b6000611b7682611b696001426158cf565b65ffffffffffff16612927565b90506000611b8788888888876138aa565b98975050505050505050565b600080611b9e613008565b6003015492915050565b6000606080600080600060606000611bbe613aaf565b8054909150158015611bd257506001810154155b611c165760405162461bcd60e51b81526020600482015260156024820152741152540dcc4c8e88155b9a5b9a5d1a585b1a5e9959605a1b6044820152606401610e4d565b611c1e613ad3565b611c26613af0565b60408051600080825260208201909252600f60f81b9c939b5091995046985030975095509350915050565b6000807f9016d09d72d40fdae2fd8ceac6b6234c7706214fd39c1cd1e609a0528c1993005b546001600160a01b031692915050565b600080611cf4846119697ff2aad550cf55f045cb27e9c559f9889fdfb6e6cdaa032301d6ea397784ae51d7898989611cbd8b61349a565b60408051602081019690965285019390935260ff90911660608401526001600160a01b0316608083015260a082015260c00161194e565b905080611d1657836040516394ab6c0760e01b8152600401610e4d9190614be7565b6116028685876040518060200160405280600081525061346e565b7ff0c57e16840df040f15088dc2f81fe391c3923bec73e23a9662efc9c229c6a008054600160401b810460ff1615906001600160401b0316600081158015611d765750825b90506000826001600160401b03166001148015611d925750303b155b905081158015611da0575080155b15611dbe5760405163f92ee8a960e01b815260040160405180910390fd5b845467ffffffffffffffff191660011785558315611de857845460ff60401b1916600160401b1785555b611df189613b0d565b611df9613b2f565b611e028a613b37565b611e0c6001613b48565b611e1588613b59565b611e1d613b2f565b6000611e27613008565b80546001600160a01b03808b166001600160a01b0319928316178355600183018054918b1691909216179055631dcd6500600390910155508315611ea557845460ff60401b19168555604051600181527fc7f505b2f371ae2175ee4913f4499e1f2633a7b5936321eed1cdaeb6115181d29060200160405180910390a15b50505050505050505050565b600080611ebc613008565b90506001600160a01b038416611ee45760405162461bcd60e51b8152600401610e4d906157e1565b60408051600180825281830190925260009160208083019080368337505050600183015481519192506001600160a01b0316908290600090611f2857611f286157b2565b6001600160a01b039290921660209283029190910190910152604080516001808252818301909252600091816020016020820280368337019050509050600081600081518110611f7a57611f7a6157b2565b6020908102919091010152604080516001808252818301909252600091816020015b6060815260200190600190039081611f9c57905050905086604051602401611fc49190614be7565b60408051601f198184030181529190526020810180516001600160e01b031663e429cef160e01b17905281518290600090612001576120016157b2565b602002602001018190525061201883838389611b2c565b6000818152600486016020908152604080832080546001600160a01b038d1662010000026001600160b01b0319909116176103011781558a51928b019290922060029092019190915551919650600080516020615f40833981519152916118989188916003919033908d90839061584c565b6000612094613008565b600083815260048201602052604090205490915060ff166120c75760405162461bcd60e51b8152600401610e4d90615722565b600460008381526004838101602052604090912054610100900460ff16908111156120f4576120f4614f4a565b146121115760405162461bcd60e51b8152600401610e4d90615769565b60408051600180825281830190925260009160208083019080368337505050600183015481519192506001600160a01b0316908290600090612155576121556157b2565b6001600160a01b0392909216602092830291909101909101526040805160018082528183019092526000918160200160208202803683370190505090506000816000815181106121a7576121a76157b2565b6020908102919091010152604080516001808252818301909252600091816020015b60608152602001906001900390816121c95790505060008681526004860160205260409081902054905191925061221391620100009091046001600160a01b031690602401614be7565b60408051601f198184030181529190526020810180516001600160e01b031663e6116cfd60e01b17905281518290600090610fdf57610fdf6157b2565b600061225a613008565b600083815260048201602052604090205490915060ff1661228d5760405162461bcd60e51b8152600401610e4d90615722565b600082815260048281016020526040822054610100900460ff16908111156122b7576122b7614f4a565b146122d45760405162461bcd60e51b8152600401610e4d90615769565b60408051600180825281830190925260009160208083019080368337505060408051600180825281830190925292935060009291506020808301908036833750506040805160018082528183019092529293506000929150602082015b606081526020019060019003908161233157905050905060008360008151811061235d5761235d6157b2565b60200260200101906001600160a01b031690816001600160a01b031681525050600082600081518110612392576123926157b2565b602090810291909101810191909152604080516000808252928101909152905081600081518110610fdf57610fdf6157b2565b60006123d2848484613b6a565b90505b9392505050565b6000806123e7613008565b905080600301548511158015612409575060028101546001600160a01b031615155b1561242157612419858585613be2565b9150506123d5565b612419858585613cac565b60008061243761363e565b905061244281613e75565b6001600160d01b031691505090565b60008061245c612f50565b6000938452600190810160205260409093209092015465ffffffffffff1692915050565b60008061248b612f50565b60008481526001820160205260409020549091506124c590600160d01b810463ffffffff1690600160a01b900465ffffffffffff166158f5565b65ffffffffffff169392505050565b6124dc612e71565b600080856001600160a01b03168585856040516124fa929190615896565b60006040518083038185875af1925050503d8060008114612537576040519150601f19603f3d011682016040523d82523d6000602084013e61253c565b606091505b509150915061254b8282613eae565b50505050505050565b60008484848460405160200161256d94939291906159a8565b60408051601f19818403018152919052805160209091012095945050505050565b6000612598613008565b600085815260048201602052604090205490915060ff166125cb5760405162461bcd60e51b8152600401610e4d90615722565b600160008581526004838101602052604090912054610100900460ff16908111156125f8576125f8614f4a565b146126155760405162461bcd60e51b8152600401610e4d90615769565b600084815260048201602052604090206003015460ff1661268c5760405162461bcd60e51b815260206004820152602b60248201527f4275696c64696e67476f7665726e616e63653a206e6f742061206d756c74697360448201526a1a59c81c1c9bdc1bdcd85b60aa1b6064820152608401610e4d565b60028101546001600160a01b03166126f75760405162461bcd60e51b815260206004820152602860248201527f4275696c64696e67476f7665726e616e63653a20736166652061646472657373604482015267081b9bdd081cd95d60c21b6064820152608401610e4d565b60008481526004820160205260408082208054600190910154915161273092620100009092046001600160a01b031691906024016157c8565b604051602081830303815290604052633e633c1f60e21b6001600160e01b0319166020820180516001600160e01b038381831617835250505050905060008260020160009054906101000a90046001600160a01b03166001600160a01b0316636a7612028460000160009054906101000a90046001600160a01b03166000856000806000806000808f8f6040518c63ffffffff1660e01b81526004016127e09b9a999897969594939291906159f3565b6020604051808303816000875af11580156127ff573d6000803e3d6000fd5b505050506040513d601f19601f820116820180604052508101906128239190615a8b565b9050806128885760405162461bcd60e51b815260206004820152602d60248201527f4275696c64696e67476f7665726e616e63653a206d756c74697369672065786560448201526c18dd5d1a5bdb8819985a5b1959609a1b6064820152608401610e4d565b60028301546000878152600485016020908152604091829020805460019091015483518b81526001600160a01b039586169381019390935262010000909104909316818301526060810192909252517fa486016aaac60a49000cc08d05cd866a3f5158821c86a1f540da646b5b2cd7529181900360800190a1505050505050565b600080612914613008565b600201546001600160a01b031692915050565b60006123d5838361294360408051602081019091526000815290565b613b6a565b600080612953613008565b6040805160018082528183019092529192506000919060208083019080368337505060408051600180825281830190925292935060009291506020808301908036833750506040805160018082528183019092529293506000929150602082015b60608152602001906001900390816129b45790505090506000836000815181106129e0576129e06157b2565b60200260200101906001600160a01b031690816001600160a01b031681525050600082600081518110612a1557612a156157b2565b602090810291909101810191909152604080516000808252928101909152905081600081518110612a4857612a486157b2565b6020026020010181905250612a5f83838389611b2c565b60008181526004860160209081526040808320805461ffff191660011781558a51928b019290922060029092019190915551919650600080516020615f4083398151915291611898918891819033908290819061584c565b600080612ac2613008565b60408051600180825281830190925291925060009190602080830190803683375050835482519293506001600160a01b031691839150600090612b0757612b076157b2565b6001600160a01b039290921660209283029190910190910152604080516001808252818301909252600091816020016020820280368337019050509050600081600081518110612b5957612b596157b2565b6020908102919091010152604080516001808252818301909252600091816020015b6060815260200190600190039081612b7b5750506040516024810189905290915060440160408051601f198184030181529190526020810180516001600160e01b0316638c4a381560e01b17905281518290600090612bdc57612bdc6157b2565b6020026020010181905250612bf383838389611b2c565b60008181526004860160209081526040808320805461ffff1916610201178155600181018c90558a51928b019290922060029283015551929750600080516020615f408339815191529261189892899291339082908e9061584c565b612c57612fd6565b6001600160a01b038116612c81576000604051631e4fbdf760e01b8152600401610e4d9190614be7565b610c7e8161374e565b6000612c94613008565b600083815260048201602052604090205490915060ff16612cc75760405162461bcd60e51b8152600401610e4d90615722565b600260008381526004838101602052604090912054610100900460ff1690811115612cf457612cf4614f4a565b14612d115760405162461bcd60e51b8152600401610e4d90615769565b604080516001808252818301909252600091602080830190803683375050835482519293506001600160a01b031691839150600090612d5257612d526157b2565b6001600160a01b039290921660209283029190910190910152604080516001808252818301909252600091816020016020820280368337019050509050600081600081518110612da457612da46157b2565b6020908102919091010152604080516001808252818301909252600091816020015b6060815260200190600190039081612dc6575050600086815260048601602052604090819020600101549051602481019190915290915060440160408051601f198184030181529190526020810180516001600160e01b0316638c4a381560e01b17905281518290600090610fdf57610fdf6157b2565b6000610c6782613eca565b6000807f3ba4977254e415696610a40ebf2258dbfa0ec6a2ff64e84bfe715ff16977cc00611c76565b6000612e7b612f50565b9050303314610c7e57336040516347096e4760e01b8152600401610e4d9190614be7565b80612eac83600201613f61565b03612e9f575050565b6000612ebf61363e565b9050606480831115612eee5760405163243e544560e01b81526004810184905260248101829052604401610e4d565b6000612ef861242c565b9050612f0f42612f0786613fd6565b85919061400a565b505060408051828152602081018690527f0553476bf02ef2726e8ce5ced78d63e26e602e4a2257b1f559418e24b4633997910160405180910390a150505050565b7f7c712897014dbe49c045ef1299aa2d5f9e67e48eea4403efa21f1e0f3ac0cb0090565b6000816007811115612f8857612f88614f4a565b600160ff919091161b92915050565b600080612fa3846113ec565b9050600083612fb183612f74565b16036123d5578381846040516331b75e4d60e01b8152600401610e4d93929190615aad565b33612fdf611c51565b6001600160a01b031614611ae2573360405163118cdaa760e01b8152600401610e4d9190614be7565b7f72a4ccd47996c0aa9e54efd606e03b13bee57794bd0974b6dda8fcd457f3770090565b81546001600160801b03600160801b82048116918116600183019091160361306757604051638acb5f2760e01b815260040160405180910390fd5b6001600160801b03808216600090815260018086016020526040909120939093558354919092018216600160801b029116179055565b60005b845181101561100e576000808683815181106130be576130be6157b2565b60200260200101516001600160a01b03168684815181106130e1576130e16157b2565b60200260200101518685815181106130fb576130fb6157b2565b60200260200101516040516131109190615acf565b60006040518083038185875af1925050503d806000811461314d576040519150601f19603f3d011682016040523d82523d6000602084013e613152565b606091505b50915091506131618282613eae565b5050508060010190506130a0565b60008061317a6131dc565b60008481526020829052604090206002810154600182015492935090916131a19190615aeb565b6131ad610c01866113bd565b1115949350505050565b6000806131c26131dc565b600093845260205250506040902080546001909101541190565b7fa1cefa0f43667ef127a258e673c94202a79b656e62899531c4376d87a7f3980090565b60008061320b612f50565b9050600061321b87878787612554565b90506132698161322b6007612f74565b6132356006612f74565b61323f6002612f74565b600161324c600782615afe565b613257906002615bfb565b61326191906158bc565b181818612f97565b5060008181526001830160205260409081902080546001600160f81b0316600160f81b179055517f789cf55be980739dad1d0699b93b58e806b51c9d96619bfa8fe0a28abaa7b30c906113ab9083815260200190565b306001600160a01b037f000000000000000000000000000000000000000000000000000000000000000016148061334657507f00000000000000000000000000000000000000000000000000000000000000006001600160a01b031661333a600080516020615f20833981519152546001600160a01b031690565b6001600160a01b031614155b15611ae25760405163703e46dd60e11b815260040160405180910390fd5b610c7e612fd6565b816001600160a01b03166352d1902d6040518163ffffffff1660e01b8152600401602060405180830381865afa9250505080156133c6575060408051601f3d908101601f191682019092526133c391810190615c0a565b60015b6133e55781604051634c9c8ce360e01b8152600401610e4d9190614be7565b600080516020615f20833981519152811461341657604051632a87526960e21b815260048101829052602401610e4d565b6134208383614025565b505050565b306001600160a01b037f00000000000000000000000000000000000000000000000000000000000000001614611ae25760405163703e46dd60e11b815260040160405180910390fd5b60006134918585858561348c60408051602081019091526000815290565b613561565b95945050505050565b6001600160a01b031660009081527f5ab42ced628888259c08ac98db1eb0cf702fc1501344311d8b100cd1bfe4bb006020526040902080546001810190915590565b6000610c676134e961407b565b8360405161190160f01b8152600281019290925260228201526042902090565b6000806000613518858561408a565b509092509050600081600381111561353257613532614f4a565b1480156135505750856001600160a01b0316826001600160a01b0316145b8061160257506116028686866140d7565b600061357186610d766001612f74565b50600061358786613581896113bd565b85613b6a565b905061359687878784876141b2565b82516000036135eb57856001600160a01b03167fb8e138887d0aa13bab447e82de9d5c1777041ecd21ca36ba824ff1e6c07ddda4888784886040516135de9493929190615c23565b60405180910390a2611602565b856001600160a01b03167fe2babfbac5889a709b63bb7f598b324e08bc5a4fb9ec647fb3cbc9ec07eb8712888784888860405161362c959493929190615c4b565b60405180910390a29695505050505050565b7fe770710421fd2cad75ad828c61aa98f2d77d423a440b67872d0f65554148e00090565b600065ffffffffffff821115613695576040516306dfcc6560e41b81526030600482015260248101839052604401610e4d565b5090565b8154600090818160058111156136f85760006136b4846142ae565b6136be90856158bc565b60008881526020902090915081015465ffffffffffff90811690871610156136e8578091506136f6565b6136f3816001615aeb565b92505b505b600061370687878585614396565b905080156137415761372b8761371d6001846158bc565b600091825260209091200190565b54600160301b90046001600160d01b0316611a2c565b6000979650505050505050565b7f9016d09d72d40fdae2fd8ceac6b6234c7706214fd39c1cd1e609a0528c19930080546001600160a01b031981166001600160a01b03848116918217845560405192169182907f8be0079c531659141344cd1fd0a4f28419497f9722a3daafe3b4186f6b6457e090600090a3505050565b805160009060348110156137d7576001915050610c67565b82810160131901516001600160a01b031981166b046e0e4dee0dee6cae47a60f60a31b1461380a57600192505050610c67565b6000806138186028856158bc565b90505b838110156138895760008061384f88848151811061383b5761383b6157b2565b01602001516001600160f81b0319166143f8565b91509150816138675760019650505050505050610c67565b8060ff166004856001600160a01b0316901b179350505080600101905061381b565b50856001600160a01b0316816001600160a01b031614935050505092915050565b6000806138b5612f50565b90506138ca8787878780519060200120612554565b9150855187511415806138df57508451875114155b806138e957508651155b1561391e57865185518751604051630447b05d60e41b8152600481019390935260248301919091526044820152606401610e4d565b6000828152600182016020526040902054600160a01b900465ffffffffffff161561396b578161394d836113ec565b6040516331b75e4d60e01b8152610e4d929190600090600401615aad565b6000613978603c42615aeb565b90506000610e106000858152600185016020526040902080546001600160a01b0319166001600160a01b0388161781559091506139b483613662565b815465ffffffffffff91909116600160a01b0265ffffffffffff60a01b199091161781556139e18261448a565b815463ffffffff91909116600160d01b0263ffffffff60d01b1990911617815589517f7d84a6263ae0d98d3329bd7b46bb4e8d6f98cd35a7adb45c274c8b7fd5ebd5e090869088908d908d906001600160401b03811115613a4457613a44614c10565b604051908082528060200260200182016040528015613a7757816020015b6060815260200190600190039081613a625790505b508d89613a848a82615aeb565b8f604051613a9a99989796959493929190615c85565b60405180910390a15050505095945050505050565b7fa16a46d94261c7517cc8ff89f61c0ce93598e3c849801011dee649a6a557d10090565b60606000613adf613aaf565b9050806002018054610c9e906156e8565b60606000613afc613aaf565b9050806003018054610c9e906156e8565b613b156144bb565b613b2681613b2161167b565b614504565b610c7e81614545565b611ae26144bb565b613b3f6144bb565b610c7e81614564565b613b506144bb565b610c7e816145ad565b613b616144bb565b610c7e816145b5565b6000613b74612e48565b6001600160a01b0316633a46b1a885856040518363ffffffff1660e01b8152600401613ba19291906157c8565b602060405180830381865afa158015613bbe573d6000803e3d6000fd5b505050506040513d601f19601f820116820180604052508101906123d29190615c0a565b600080613bed613008565b90504233858786604051602001613c08959493929190615d5c565b60408051601f19818403018152828252805160209182012060008181526004860183529290922080546001600160a01b03891662010000026001600160b01b03199091161761010117815560018082018a90558751928801929092206002820155600301805460ff191682179055909350600080516020615f4083398151915291613c9c918591819033908a908c9061584c565b60405180910390a1509392505050565b600080613cb7613008565b60408051600180825281830190925291925060009190602080830190803683375050835482519293506001600160a01b031691839150600090613cfc57613cfc6157b2565b6001600160a01b039290921660209283029190910190910152604080516001808252818301909252600091816020016020820280368337019050509050600081600081518110613d4e57613d4e6157b2565b6020908102919091010152604080516001808252818301909252600091816020015b6060815260200190600190039081613d705790505090508688604051602401613d9a9291906157c8565b60408051601f198184030181529190526020810180516001600160e01b0316633e633c1f60e21b17905281518290600090613dd757613dd76157b2565b6020026020010181905250613dee83838389611b2c565b6000818152600486016020908152604080832080546001600160a01b038d1662010000026001600160b01b03199091161761010117815560018082018e90558b51938c019390932060029091015551929750600080516020615f4083398151915292613e629289929133908d908f9061584c565b60405180910390a1505050509392505050565b80546000908015613ea557613e8f8361371d6001846158bc565b54600160301b90046001600160d01b03166123d5565b60009392505050565b606082613ec357613ebe826145bd565b610c67565b5080610c67565b60006064613ed783611a37565b613edf612e48565b6001600160a01b0316638e539e8c856040518263ffffffff1660e01b8152600401613f0c91815260200190565b602060405180830381865afa158015613f29573d6000803e3d6000fd5b505050506040513d601f19601f82011682018060405250810190613f4d9190615c0a565b613f579190615db0565b610c679190615ddd565b80546000906001600160801b0380821691600160801b9004168103613f99576040516375e52f4f60e01b815260040160405180910390fd5b6001600160801b038181166000908152600185810160205260408220805492905585546001600160801b0319169301909116919091179092555090565b60006001600160d01b03821115613695576040516306dfcc6560e41b815260d0600482015260248101839052604401610e4d565b6000806140188585856145e6565b915091505b935093915050565b61402e82614760565b6040516001600160a01b038316907fbc7cd75a20ee27fd9adebab32041f755214dbc6bffa90cc0225b39da2e5c2d3b90600090a28051156140735761342082826147bc565b611627614829565b6000614085614848565b905090565b600080600083516041036140c45760208401516040850151606086015160001a6140b6888285856148bc565b9550955095505050506140d0565b50508151600091506002905b9250925092565b6000806000856001600160a01b031685856040516024016140f9929190615dff565b60408051601f198184030181529181526020820180516001600160e01b0316630b135d3f60e11b1790525161412e9190615acf565b600060405180830381855afa9150503d8060008114614169576040519150601f19603f3d011682016040523d82523d6000602084013e61416e565b606091505b509150915081801561418257506020815110155b801561160257508051630b135d3f60e11b906141a79083016020908101908401615c0a565b149695505050505050565b60006141bc6131dc565b6000878152602082815260408083206001600160a01b038a16845260038101909252909120549192509060ff161561420957856040516371c6af4960e01b8152600401610e4d9190614be7565b6001600160a01b03861660009081526003820160205260409020805460ff1916600117905560ff8516614255578381600001600082825461424a9190615aeb565b9091555061254b9050565b60001960ff861601614275578381600101600082825461424a9190615aeb565b60011960ff861601614295578381600201600082825461424a9190615aeb565b6040516303599be160e11b815260040160405180910390fd5b6000816000036142c057506000919050565b600060016142cd84614981565b901c6001901b905060018184816142e6576142e6615dc7565b048201901c905060018184816142fe576142fe615dc7565b048201901c9050600181848161431657614316615dc7565b048201901c9050600181848161432e5761432e615dc7565b048201901c9050600181848161434657614346615dc7565b048201901c9050600181848161435e5761435e615dc7565b048201901c9050600181848161437657614376615dc7565b048201901c90506123d58182858161439057614390615dc7565b04614a15565b60005b818310156143f05760006143ad8484614a2b565b60008781526020902090915065ffffffffffff86169082015465ffffffffffff1611156143dc578092506143ea565b6143e7816001615aeb565b93505b50614399565b509392505050565b60008060f883901c602f811180156144135750603a8160ff16105b1561442857600194602f199091019350915050565b8060ff16604010801561443e575060478160ff16105b15614453576001946036199091019350915050565b8060ff166060108015614469575060678160ff16105b1561447e576001946056199091019350915050565b50600093849350915050565b600063ffffffff821115613695576040516306dfcc6560e41b81526020600482015260248101839052604401610e4d565b7ff0c57e16840df040f15088dc2f81fe391c3923bec73e23a9662efc9c229c6a0054600160401b900460ff16611ae257604051631afcd79f60e31b815260040160405180910390fd5b61450c6144bb565b6000614516613aaf565b9050600281016145268482615e60565b50600381016145358382615e60565b5060008082556001909101555050565b61454d6144bb565b6000614557612f50565b9050806134208382615e60565b61456c6144bb565b7f3ba4977254e415696610a40ebf2258dbfa0ec6a2ff64e84bfe715ff16977cc0080546001600160a01b0319166001600160a01b0392909216919091179055565b610c756144bb565b612c576144bb565b8051156145cd5780518082602001fd5b604051630a12f52160e11b815260040160405180910390fd5b8254600090819080156147055760006146048761371d6001856158bc565b60408051808201909152905465ffffffffffff808216808452600160301b9092046001600160d01b03166020840152919250908716101561465857604051632520601d60e01b815260040160405180910390fd5b805165ffffffffffff8088169116036146a4578461467b8861371d6001866158bc565b80546001600160d01b0392909216600160301b0265ffffffffffff9092169190911790556146f5565b6040805180820190915265ffffffffffff80881682526001600160d01b0380881660208085019182528b54600181018d5560008d81529190912094519151909216600160301b029216919091179101555b60200151925083915061401d9050565b50506040805180820190915265ffffffffffff80851682526001600160d01b0380851660208085019182528854600181018a5560008a815291822095519251909316600160301b02919093161792019190915590508161401d565b806001600160a01b03163b60000361478d5780604051634c9c8ce360e01b8152600401610e4d9190614be7565b600080516020615f2083398151915280546001600160a01b0319166001600160a01b0392909216919091179055565b6060600080846001600160a01b0316846040516147d99190615acf565b600060405180830381855af49150503d8060008114614814576040519150601f19603f3d011682016040523d82523d6000602084013e614819565b606091505b5091509150613491858383614a46565b3415611ae25760405163b398979f60e01b815260040160405180910390fd5b60007f8b73c3c69bb8fe3d512ecc4cf759cc79239f7b179b0ffacaa9a75d522b39400f614873614a99565b61487b614b00565b60408051602081019490945283019190915260608201524660808201523060a082015260c00160405160208183030381529060405280519060200120905090565b600080806fa2a8918ca85bafe22016d0b997e4df60600160ff1b038411156148ed5750600091506003905082614977565b604080516000808252602082018084528a905260ff891692820192909252606081018790526080810186905260019060a0016020604051602081039080840390855afa158015614941573d6000803e3d6000fd5b5050604051601f1901519150506001600160a01b03811661496d57506000925060019150829050614977565b9250600091508190505b9450945094915050565b600080608083901c1561499657608092831c92015b604083901c156149a857604092831c92015b602083901c156149ba57602092831c92015b601083901c156149cc57601092831c92015b600883901c156149de57600892831c92015b600483901c156149f057600492831c92015b600283901c15614a0257600292831c92015b600183901c15610c675760010192915050565b6000818310614a2457816123d5565b5090919050565b6000614a3a6002848418615ddd565b6123d590848416615aeb565b606082614a5b57614a56826145bd565b6123d5565b8151158015614a7257506001600160a01b0384163b155b15614a925783604051639996b31560e01b8152600401610e4d9190614be7565b50806123d5565b600080614aa4613aaf565b90506000614ab0613ad3565b805190915015614ac857805160209091012092915050565b81548015614ad7579392505050565b7fc5d2460186f7233c927e7db2dcc703c0e500b653ca82273b7bfad8045d85a470935050505090565b600080614b0b613aaf565b90506000614b17613af0565b805190915015614b2f57805160209091012092915050565b60018201548015614ad7579392505050565b600060208284031215614b5357600080fd5b81356001600160e01b0319811681146123d557600080fd5b600060208284031215614b7d57600080fd5b5035919050565b60005b83811015614b9f578181015183820152602001614b87565b50506000910152565b60008151808452614bc0816020860160208601614b84565b601f01601f19169290920160200192915050565b6020815260006123d56020830184614ba8565b6001600160a01b0391909116815260200190565b6001600160a01b0381168114610c7e57600080fd5b634e487b7160e01b600052604160045260246000fd5b604051601f8201601f191681016001600160401b0381118282101715614c4e57614c4e614c10565b604052919050565b600082601f830112614c6757600080fd5b81356001600160401b03811115614c8057614c80614c10565b614c93601f8201601f1916602001614c26565b818152846020838601011115614ca857600080fd5b816020850160208301376000918101602001919091529392505050565b60008060008060808587031215614cdb57600080fd5b8435614ce681614bfb565b93506020850135614cf681614bfb565b92506040850135915060608501356001600160401b03811115614d1857600080fd5b614d2487828801614c56565b91505092959194509250565b60006001600160401b03821115614d4957614d49614c10565b5060051b60200190565b600082601f830112614d6457600080fd5b81356020614d79614d7483614d30565b614c26565b8083825260208201915060208460051b870101935086841115614d9b57600080fd5b602086015b84811015610d97578035614db381614bfb565b8352918301918301614da0565b600082601f830112614dd157600080fd5b81356020614de1614d7483614d30565b8083825260208201915060208460051b870101935086841115614e0357600080fd5b602086015b84811015610d975780358352918301918301614e08565b600082601f830112614e3057600080fd5b81356020614e40614d7483614d30565b82815260059290921b84018101918181019086841115614e5f57600080fd5b8286015b84811015610d975780356001600160401b03811115614e825760008081fd5b614e908986838b0101614c56565b845250918301918301614e63565b60008060008060808587031215614eb457600080fd5b84356001600160401b0380821115614ecb57600080fd5b614ed788838901614d53565b95506020870135915080821115614eed57600080fd5b614ef988838901614dc0565b94506040870135915080821115614f0f57600080fd5b50614f1c87828801614e1f565b949793965093946060013593505050565b600060208284031215614f3f57600080fd5b81356123d581614bfb565b634e487b7160e01b600052602160045260246000fd5b60088110614f7057614f70614f4a565b9052565b60208101610c678284614f60565b60008060408385031215614f9557600080fd5b823591506020830135614fa781614bfb565b809150509250929050565b60008060408385031215614fc557600080fd5b8235614fd081614bfb565b915060208301356001600160401b03811115614feb57600080fd5b614ff785828601614c56565b9150509250929050565b803560ff8116811461501257600080fd5b919050565b6000806040838503121561502a57600080fd5b8235915061503a60208401615001565b90509250929050565b60008083601f84011261505557600080fd5b5081356001600160401b0381111561506c57600080fd5b60208301915083602082850101111561508457600080fd5b9250929050565b600080600080600080600060c0888a0312156150a657600080fd5b873596506150b660208901615001565b955060408801356150c681614bfb565b945060608801356001600160401b03808211156150e257600080fd5b6150ee8b838c01615043565b909650945060808a013591508082111561510757600080fd5b6151138b838c01614c56565b935060a08a013591508082111561512957600080fd5b506151368a828b01614c56565b91505092959891949750929550565b60008060008060006080868803121561515d57600080fd5b8535945061516d60208701615001565b935060408601356001600160401b038082111561518957600080fd5b61519589838a01615043565b909550935060608801359150808211156151ae57600080fd5b506151bb88828901614c56565b9150509295509295909350565b600080600080606085870312156151de57600080fd5b843593506151ee60208601615001565b925060408501356001600160401b0381111561520957600080fd5b61521587828801615043565b95989497509550505050565b6000806000806080858703121561523757600080fd5b84356001600160401b038082111561524e57600080fd5b61525a88838901614d53565b9550602087013591508082111561527057600080fd5b61527c88838901614dc0565b9450604087013591508082111561529257600080fd5b61529e88838901614e1f565b935060608701359150808211156152b457600080fd5b50614d2487828801614c56565b60008151808452602080850194506020840160005b838110156152f2578151875295820195908201906001016152d6565b509495945050505050565b60ff60f81b8816815260e06020820152600061531c60e0830189614ba8565b828103604084015261532e8189614ba8565b606084018890526001600160a01b038716608085015260a0840186905283810360c0850152905061535f81856152c1565b9a9950505050505050505050565b6000806000806080858703121561538357600080fd5b8435935061539360208601615001565b925060408501356153a381614bfb565b915060608501356001600160401b03811115614d1857600080fd5b600080600080600060a086880312156153d657600080fd5b85356153e181614bfb565b945060208601356001600160401b038111156153fc57600080fd5b61540888828901614c56565b945050604086013561541981614bfb565b9250606086013561542981614bfb565b9150608086013561543981614bfb565b809150509295509295909350565b60008060006060848603121561545c57600080fd5b833561546781614bfb565b92506020840135915060408401356001600160401b0381111561548957600080fd5b61549586828701614c56565b9150509250925092565b6000806000606084860312156154b457600080fd5b8335925060208401356154c681614bfb565b915060408401356001600160401b0381111561548957600080fd5b600080600080600060a086880312156154f957600080fd5b853561550481614bfb565b9450602086013561551481614bfb565b935060408601356001600160401b038082111561553057600080fd5b61553c89838a01614dc0565b9450606088013591508082111561555257600080fd5b61555e89838a01614dc0565b935060808801359150808211156151ae57600080fd5b6000806000806060858703121561558a57600080fd5b843561559581614bfb565b93506020850135925060408501356001600160401b0381111561520957600080fd5b6000806000604084860312156155cc57600080fd5b8335925060208401356001600160401b038111156155e957600080fd5b6155f586828701615043565b9497909650939450505050565b6000806040838503121561561557600080fd5b823561562081614bfb565b946020939093013593505050565b6000806040838503121561564157600080fd5b823560028110614fd057600080fd5b6000806040838503121561566357600080fd5b8235915060208301356001600160401b03811115614feb57600080fd5b600080600080600060a0868803121561569857600080fd5b85356156a381614bfb565b945060208601356156b381614bfb565b9350604086013592506060860135915060808601356001600160401b038111156156dc57600080fd5b6151bb88828901614c56565b600181811c908216806156fc57607f821691505b60208210810361571c57634e487b7160e01b600052602260045260246000fd5b50919050565b60208082526027908201527f4275696c64696e67476f7665726e616e63653a20696e76616c69642070726f706040820152661bdcd85b08125160ca1b606082015260800190565b60208082526029908201527f4275696c64696e67476f7665726e616e63653a20696e76616c69642070726f706040820152686f73616c207479706560b81b606082015260800190565b634e487b7160e01b600052603260045260246000fd5b6001600160a01b03929092168252602082015260400190565b6020808252602b908201527f4275696c64696e67476f7665726e616e63653a20496e76616c6964206175646960408201526a746f72206164647265737360a81b606082015260800190565b60058110614f7057614f70614f4a565b60028110614f7057614f70614f4a565b86815260c08101615860602083018861582c565b61586d604083018761583c565b6001600160a01b03948516606083015292909316608084015260a0909201919091529392505050565b8183823760009101908152919050565b634e487b7160e01b600052601160045260246000fd5b81810381811115610c6757610c676158a6565b65ffffffffffff8281168282160390808211156158ee576158ee6158a6565b5092915050565b65ffffffffffff8181168382160190808211156158ee576158ee6158a6565b60008151808452602080850194506020840160005b838110156152f25781516001600160a01b031687529582019590820190600101615929565b60008282518085526020808601955060208260051b8401016020860160005b8481101561599b57601f19868403018952615989838351614ba8565b9884019892509083019060010161596d565b5090979650505050505050565b6080815260006159bb6080830187615914565b82810360208401526159cd81876152c1565b905082810360408401526159e1818661594e565b91505082606083015295945050505050565b6001600160a01b038c81168252602082018c905261014060408301819052600091615a208483018e614ba8565b915060ff8c1660608501528a60808501528960a08501528860c085015280881660e085015280871661010085015250828103610120840152838152838560208301376000602085830101526020601f19601f8601168201019150509c9b505050505050505050505050565b600060208284031215615a9d57600080fd5b815180151581146123d557600080fd5b83815260608101615ac16020830185614f60565b826040830152949350505050565b60008251615ae1818460208701614b84565b9190910192915050565b80820180821115610c6757610c676158a6565b60ff8181168382160190811115610c6757610c676158a6565b600181815b80851115615b52578160001904821115615b3857615b386158a6565b80851615615b4557918102915b93841c9390800290615b1c565b509250929050565b600082615b6957506001610c67565b81615b7657506000610c67565b8160018114615b8c5760028114615b9657615bb2565b6001915050610c67565b60ff841115615ba757615ba76158a6565b50506001821b610c67565b5060208310610133831016604e8410600b8410161715615bd5575081810a610c67565b615bdf8383615b17565b8060001904821115615bf357615bf36158a6565b029392505050565b60006123d560ff841683615b5a565b600060208284031215615c1c57600080fd5b5051919050565b84815260ff841660208201528260408201526080606082015260006116026080830184614ba8565b85815260ff8516602082015283604082015260a060608201526000615c7360a0830185614ba8565b8281036080840152611b878185614ba8565b60006101208b8352602060018060a01b038c1681850152816040850152615cae8285018c615914565b91508382036060850152615cc2828b6152c1565b915083820360808501528189518084528284019150828160051b850101838c0160005b83811015615d1357601f19878403018552615d01838351614ba8565b94860194925090850190600101615ce5565b505086810360a0880152615d27818c61594e565b9450505050508560c08401528460e0840152828103610100840152615d4c8185614ba8565b9c9b505050505050505050505050565b85815260006bffffffffffffffffffffffff19808760601b166020840152808660601b166034840152508360488301528251615d9f816068850160208701614b84565b919091016068019695505050505050565b8082028115828204841417610c6757610c676158a6565b634e487b7160e01b600052601260045260246000fd5b600082615dfa57634e487b7160e01b600052601260045260246000fd5b500490565b8281526040602082015260006123d26040830184614ba8565b601f821115613420576000816000526020600020601f850160051c81016020861015615e415750805b601f850160051c820191505b8181101561100e57828155600101615e4d565b81516001600160401b03811115615e7957615e79614c10565b615e8d81615e8784546156e8565b84615e18565b602080601f831160018114615ec25760008415615eaa5750858301515b600019600386901b1c1916600185901b17855561100e565b600085815260208120601f198616915b82811015615ef157888601518255948401946001909101908401615ed2565b5085821015615f0f5787850151600019600388901b60f8161c191681555b5050505050600190811b0190555056fe360894a13ba1a3210667c828492db98dca3e2076cc3735a920a3ca505d382bbca1027fc0bdf54601634d22d7ed20e33088067c31d01e43c9d7c25de37fe22999a2646970667358221220b0166eb0d379614c71897840e44ad50f11d1e45cce91a60ca6935e1e54e5f15764736f6c63430008180033",
  "linkReferences": {},
  "deployedLinkReferences": {}
}