{
  "_format": "hh-sol-artifact-1",
  "contractName": "BuildingMock",
  "sourceName": "contracts/buildings/mock/BuildingMock.sol",
  "abi": [
    {
      "inputs": [],
      "name": "InvalidInitialization",
      "type": "error"
    },
    {
      "inputs": [],
      "name": "NotInitializing",
      "type": "error"
    },
    {
      "inputs": [
        {
          "internalType": "address",
          "name": "owner",
          "type": "address"
        }
      ],
      "name": "OwnableInvalidOwner",
      "type": "error"
    },
    {
      "inputs": [
        {
          "internalType": "address",
          "name": "account",
          "type": "address"
        }
      ],
      "name": "OwnableUnauthorizedAccount",
      "type": "error"
    },
    {
      "anonymous": false,
      "inputs": [
        {
          "indexed": false,
          "internalType": "uint64",
          "name": "version",
          "type": "uint64"
        }
      ],
      "name": "Initialized",
      "type": "event"
    },
    {
      "anonymous": false,
      "inputs": [
        {
          "indexed": false,
          "internalType": "address",
          "name": "addr",
          "type": "address"
        }
      ],
      "name": "NewAuditRegistry",
      "type": "event"
    },
    {
      "anonymous": false,
      "inputs": [
        {
          "indexed": true,
          "internalType": "address",
          "name": "previousOwner",
          "type": "address"
        },
        {
          "indexed": true,
          "internalType": "address",
          "name": "newOwner",
          "type": "address"
        }
      ],
      "name": "OwnershipTransferred",
      "type": "event"
    },
    {
      "inputs": [
        {
          "internalType": "address",
          "name": "tokenA",
          "type": "address"
        },
        {
          "internalType": "uint256",
          "name": "tokenAAmount",
          "type": "uint256"
        },
        {
          "internalType": "address",
          "name": "tokenB",
          "type": "address"
        },
        {
          "internalType": "uint256",
          "name": "tokenBAmount",
          "type": "uint256"
        }
      ],
      "name": "addLiquidity",
      "outputs": [
        {
          "internalType": "uint256",
          "name": "",
          "type": "uint256"
        },
        {
          "internalType": "uint256",
          "name": "",
          "type": "uint256"
        },
        {
          "internalType": "uint256",
          "name": "",
          "type": "uint256"
        },
        {
          "internalType": "address",
          "name": "",
          "type": "address"
        }
      ],
      "stateMutability": "nonpayable",
      "type": "function"
    },
    {
      "inputs": [],
      "name": "amountA",
      "outputs": [
        {
          "internalType": "uint256",
          "name": "",
          "type": "uint256"
        }
      ],
      "stateMutability": "view",
      "type": "function"
    },
    {
      "inputs": [],
      "name": "amountB",
      "outputs": [
        {
          "internalType": "uint256",
          "name": "",
          "type": "uint256"
        }
      ],
      "stateMutability": "view",
      "type": "function"
    },
    {
      "inputs": [
        {
          "internalType": "address",
          "name": "callableContract",
          "type": "address"
        },
        {
          "internalType": "bytes",
          "name": "data",
          "type": "bytes"
        }
      ],
      "name": "callContract",
      "outputs": [
        {
          "internalType": "bytes",
          "name": "",
          "type": "bytes"
        }
      ],
      "stateMutability": "payable",
      "type": "function"
    },
    {
      "inputs": [
        {
          "internalType": "address",
          "name": "tokenA",
          "type": "address"
        },
        {
          "internalType": "address",
          "name": "tokenB",
          "type": "address"
        }
      ],
      "name": "createLiquidityPair",
      "outputs": [
        {
          "internalType": "address",
          "name": "pair",
          "type": "address"
        }
      ],
      "stateMutability": "nonpayable",
      "type": "function"
    },
    {
      "inputs": [],
      "name": "getAuditRegistry",
      "outputs": [
        {
          "internalType": "address",
          "name": "",
          "type": "address"
        }
      ],
      "stateMutability": "view",
      "type": "function"
    },
    {
      "inputs": [],
      "name": "getUniswapFactory",
      "outputs": [
        {
          "internalType": "address",
          "name": "",
          "type": "address"
        }
      ],
      "stateMutability": "view",
      "type": "function"
    },
    {
      "inputs": [],
      "name": "getUniswapRouter",
      "outputs": [
        {
          "internalType": "address",
          "name": "",
          "type": "address"
        }
      ],
      "stateMutability": "view",
      "type": "function"
    },
    {
      "inputs": [
        {
          "internalType": "address",
          "name": "_uniswapRouter",
          "type": "address"
        },
        {
          "internalType": "address",
          "name": "_uniswapFactory",
          "type": "address"
        },
        {
          "internalType": "address",
          "name": "_nftAddress",
          "type": "address"
        }
      ],
      "name": "initialize",
      "outputs": [],
      "stateMutability": "nonpayable",
      "type": "function"
    },
    {
      "inputs": [],
      "name": "liquidity",
      "outputs": [
        {
          "internalType": "uint256",
          "name": "",
          "type": "uint256"
        }
      ],
      "stateMutability": "view",
      "type": "function"
    },
    {
      "inputs": [
        {
          "internalType": "address",
          "name": "",
          "type": "address"
        },
        {
          "internalType": "address",
          "name": "",
          "type": "address"
        },
        {
          "internalType": "uint256",
          "name": "",
          "type": "uint256"
        },
        {
          "internalType": "bytes",
          "name": "",
          "type": "bytes"
        }
      ],
      "name": "onERC721Received",
      "outputs": [
        {
          "internalType": "bytes4",
          "name": "",
          "type": "bytes4"
        }
      ],
      "stateMutability": "pure",
      "type": "function"
    },
    {
      "inputs": [],
      "name": "owner",
      "outputs": [
        {
          "internalType": "address",
          "name": "",
          "type": "address"
        }
      ],
      "stateMutability": "view",
      "type": "function"
    },
    {
      "inputs": [],
      "name": "pair",
      "outputs": [
        {
          "internalType": "address",
          "name": "",
          "type": "address"
        }
      ],
      "stateMutability": "view",
      "type": "function"
    },
    {
      "inputs": [],
      "name": "renounceOwnership",
      "outputs": [],
      "stateMutability": "nonpayable",
      "type": "function"
    },
    {
      "inputs": [
        {
          "internalType": "address",
          "name": "newOwner",
          "type": "address"
        }
      ],
      "name": "transferOwnership",
      "outputs": [],
      "stateMutability": "nonpayable",
      "type": "function"
    },
    {
      "inputs": [],
      "name": "version",
      "outputs": [
        {
          "internalType": "string",
          "name": "",
          "type": "string"
        }
      ],
      "stateMutability": "pure",
      "type": "function"
    }
  ],
  "bytecode": "0x608060405234801561001057600080fd5b5061001961001e565b6100d0565b7ff0c57e16840df040f15088dc2f81fe391c3923bec73e23a9662efc9c229c6a00805468010000000000000000900460ff161561006e5760405163f92ee8a960e01b815260040160405180910390fd5b80546001600160401b03908116146100cd5780546001600160401b0319166001600160401b0390811782556040519081527fc7f505b2f371ae2175ee4913f4499e1f2633a7b5936321eed1cdaeb6115181d29060200160405180910390a15b50565b6125b3806100df6000396000f3fe6080604052600436106100d35760003560e01c806354fd4d501161007a57806354fd4d50146102165780636bdcd34114610242578063715018a6146102625780638da5cb5b14610279578063a8aa1b311461028e578063bb6e15dc146102ae578063c0c53b8b146102c3578063f2fde38b146102e357600080fd5b806303710668146100d8578063150b7a0214610101578063156dcbf0146101465780631a6865021461016a5780632efe91ef14610180578063376d3d5d146101965780633e6dfa36146101df578063524900b514610201575b600080fd5b6100eb6100e6366004610d15565b610303565b6040516100f89190610e29565b60405180910390f35b34801561010d57600080fd5b5061012d61011c366004610e3c565b630a85bd0160e11b95945050505050565b6040516001600160e01b031990911681526020016100f8565b34801561015257600080fd5b5061015c60005481565b6040519081526020016100f8565b34801561017657600080fd5b5061015c60025481565b34801561018c57600080fd5b5061015c60015481565b3480156101a257600080fd5b506101b66101b1366004610edb565b610320565b604080519485526020850193909352918301526001600160a01b031660608201526080016100f8565b3480156101eb57600080fd5b506101f461037a565b6040516100f89190610f23565b34801561020d57600080fd5b506101f4610398565b34801561022257600080fd5b506040805180820190915260038152620322e360ec1b60208201526100eb565b34801561024e57600080fd5b506101f461025d366004610f37565b6103b3565b34801561026e57600080fd5b5061027761043e565b005b34801561028557600080fd5b506101f4610452565b34801561029a57600080fd5b506003546101f4906001600160a01b031681565b3480156102ba57600080fd5b506101f461047b565b3480156102cf57600080fd5b506102776102de366004610f70565b6104a4565b3480156102ef57600080fd5b506102776102fe366004610fbb565b6104b4565b606061030d6104fb565b610317838361052d565b90505b92915050565b60008060008061032e6104fb565b61033a888888886105d7565b600380546001600160a01b0319166001600160a01b03929092169182179055600282905560018390556000849055929b919a509850909650945050505050565b6000806103856106e2565b600101546001600160a01b031692915050565b6000806103a36106e2565b546001600160a01b031692915050565b6000806103be6106e2565b60018101546040516364e329cb60e11b81529192506001600160a01b03169063c9c65396906103f39087908790600401610fdf565b6020604051808303816000875af1158015610412573d6000803e3d6000fd5b505050506040513d601f19601f820116820180604052508101906104369190610ff9565b949350505050565b6104466104fb565b6104506000610706565b565b6000807f9016d09d72d40fdae2fd8ceac6b6234c7706214fd39c1cd1e609a0528c1993006103a3565b6000807f1398114c786fd2d5dbcf29c302f594800c3b9ea470c98dbb34a8fb40a97e71006103a3565b6104af838383610777565b505050565b6104bc6104fb565b6001600160a01b0381166104ef576000604051631e4fbdf760e01b81526004016104e69190610f23565b60405180910390fd5b6104f881610706565b50565b33610504610452565b6001600160a01b031614610450573360405163118cdaa760e01b81526004016104e69190610f23565b6060600080846001600160a01b0316348560405161054b9190611016565b60006040518083038185875af1925050503d8060008114610588576040519150601f19603f3d011682016040523d82523d6000602084013e61058d565b606091505b5091509150816104365760405162461bcd60e51b8152602060048201526015602482015274109d5a5b191a5b99ce8818d85b1b0819985a5b1959605a1b60448201526064016104e6565b60008080806001600160a01b0388166323b872dd33308a6040518463ffffffff1660e01b815260040161060c93929190611032565b6020604051808303816000875af115801561062b573d6000803e3d6000fd5b505050506040513d601f19601f8201168201806040525081019061064f9190611056565b506040516323b872dd60e01b81526001600160a01b038716906323b872dd9061068090339030908a90600401611032565b6020604051808303816000875af115801561069f573d6000803e3d6000fd5b505050506040513d601f19601f820116820180604052508101906106c39190611056565b506106d08887898861089b565b929b919a509850909650945050505050565b7f75fd97eeafae39525b32773f2af3e4b201521c02695ece8bd2fe94e4c5024f0090565b7f9016d09d72d40fdae2fd8ceac6b6234c7706214fd39c1cd1e609a0528c19930080546001600160a01b031981166001600160a01b03848116918217845560405192169182907f8be0079c531659141344cd1fd0a4f28419497f9722a3daafe3b4186f6b6457e090600090a3505050565b7ff0c57e16840df040f15088dc2f81fe391c3923bec73e23a9662efc9c229c6a008054600160401b810460ff16159067ffffffffffffffff166000811580156107bd5750825b905060008267ffffffffffffffff1660011480156107da5750303b155b9050811580156107e8575080155b156108065760405163f92ee8a960e01b815260040160405180910390fd5b845467ffffffffffffffff19166001178555831561083057845460ff60401b1916600160401b1785555b61083986610b70565b6108438888610b81565b61084b610bc6565b831561089157845460ff60401b19168555604051600181527fc7f505b2f371ae2175ee4913f4499e1f2633a7b5936321eed1cdaeb6115181d29060200160405180910390a15b5050505050505050565b60008060008060006108ab6106e2565b600181015460405163e6a4390560e01b81529192506001600160a01b03169063e6a43905906108e0908c908c90600401610fdf565b602060405180830381865afa1580156108fd573d6000803e3d6000fd5b505050506040513d601f19601f820116820180604052508101906109219190610ff9565b91506001600160a01b0382166109ab5760018101546040516364e329cb60e11b81526001600160a01b039091169063c9c6539690610965908c908c90600401610fdf565b6020604051808303816000875af1158015610984573d6000803e3d6000fd5b505050506040513d601f19601f820116820180604052508101906109a89190610ff9565b91505b805460405163095ea7b360e01b81526001600160a01b03918216600482015260248101899052908a169063095ea7b3906044016020604051808303816000875af11580156109fd573d6000803e3d6000fd5b505050506040513d601f19601f82011682018060405250810190610a219190611056565b50805460405163095ea7b360e01b81526001600160a01b039182166004820152602481018890529089169063095ea7b3906044016020604051808303816000875af1158015610a74573d6000803e3d6000fd5b505050506040513d601f19601f82011682018060405250810190610a989190611056565b5080546001600160a01b031663e8e337008a8a8a8a818130610abc4261012c611078565b60405160e08a901b6001600160e01b03191681526001600160a01b039889166004820152968816602488015260448701959095526064860193909352608485019190915260a484015290921660c482015260e4810191909152610104016060604051808303816000875af1158015610b38573d6000803e3d6000fd5b505050506040513d601f19601f82011682018060405250810190610b5c9190611099565b919b909a5090985091965090945050505050565b610b78610c14565b6104f881610c5d565b610b89610c14565b6000610b936106e2565b80546001600160a01b039485166001600160a01b0319918216178255600190910180549390941692169190911790915550565b610bce610c14565b7f1398114c786fd2d5dbcf29c302f594800c3b9ea470c98dbb34a8fb40a97e7100610bf7610c6e565b81546001600160a01b0319166001600160a01b0391909116179055565b7ff0c57e16840df040f15088dc2f81fe391c3923bec73e23a9662efc9c229c6a0054600160401b900460ff1661045057604051631afcd79f60e31b815260040160405180910390fd5b610c65610c14565b6104f881610cd5565b6000604051610c7c90610cdd565b604051809103906000f080158015610c98573d6000803e3d6000fd5b5090507f86391fba409e44e3af18aa6478dfccdb9b93ae68a497e6bbe24ff16b75196f1881604051610cca9190610f23565b60405180910390a190565b6104bc610c14565b6114b6806110c883390190565b6001600160a01b03811681146104f857600080fd5b634e487b7160e01b600052604160045260246000fd5b60008060408385031215610d2857600080fd5b8235610d3381610cea565b9150602083013567ffffffffffffffff80821115610d5057600080fd5b818501915085601f830112610d6457600080fd5b813581811115610d7657610d76610cff565b604051601f8201601f19908116603f01168101908382118183101715610d9e57610d9e610cff565b81604052828152886020848701011115610db757600080fd5b8260208601602083013760006020848301015280955050505050509250929050565b60005b83811015610df4578181015183820152602001610ddc565b50506000910152565b60008151808452610e15816020860160208601610dd9565b601f01601f19169290920160200192915050565b6020815260006103176020830184610dfd565b600080600080600060808688031215610e5457600080fd5b8535610e5f81610cea565b94506020860135610e6f81610cea565b935060408601359250606086013567ffffffffffffffff80821115610e9357600080fd5b818801915088601f830112610ea757600080fd5b813581811115610eb657600080fd5b896020828501011115610ec857600080fd5b9699959850939650602001949392505050565b60008060008060808587031215610ef157600080fd5b8435610efc81610cea565b9350602085013592506040850135610f1381610cea565b9396929550929360600135925050565b6001600160a01b0391909116815260200190565b60008060408385031215610f4a57600080fd5b8235610f5581610cea565b91506020830135610f6581610cea565b809150509250929050565b600080600060608486031215610f8557600080fd5b8335610f9081610cea565b92506020840135610fa081610cea565b91506040840135610fb081610cea565b809150509250925092565b600060208284031215610fcd57600080fd5b8135610fd881610cea565b9392505050565b6001600160a01b0392831681529116602082015260400190565b60006020828403121561100b57600080fd5b8151610fd881610cea565b60008251611028818460208701610dd9565b9190910192915050565b6001600160a01b039384168152919092166020820152604081019190915260600190565b60006020828403121561106857600080fd5b81518015158114610fd857600080fd5b8082018082111561031a57634e487b7160e01b600052601160045260246000fd5b6000806000606084860312156110ae57600080fd5b835192506020840151915060408401519050925092509256fe608060405234801561001057600080fd5b5061001c600033610022565b506100ce565b6000828152602081815260408083206001600160a01b038516845290915281205460ff166100c4576000838152602081815260408083206001600160a01b03861684529091529020805460ff1916600117905561007c3390565b6001600160a01b0316826001600160a01b0316847f2f8788117e7eff1d82e926ec794901d17c78024a50270940304540a733656f0d60405160405180910390a45060016100c8565b5060005b92915050565b6113d9806100dd6000396000f3fe608060405234801561001057600080fd5b50600436106100e05760003560e01c80635949ea69116100875780635949ea69146101c25780636e1d616e146101d557806391d14854146101ea578063a217fddf146101fd578063c9e3984414610205578063d547741f14610218578063e74e786d1461022b578063e95cf4441461024f57600080fd5b806301ffc9a7146100e5578063129b25af1461010d578063237f4bcc14610122578063248a9ca3146101425780632f2ff15d1461017357806336568abe146101865780633f76730f146101995780634afb29c6146101b9575b600080fd5b6100f86100f3366004610d84565b610262565b60405190151581526020015b60405180910390f35b61012061011b366004610e12565b610299565b005b610135610130366004610e64565b6104f3565b6040516101049190610e7f565b610165610150366004610ec3565b60009081526020819052604090206001015490565b604051908152602001610104565b610120610181366004610edc565b61055f565b610120610194366004610edc565b61058a565b6101ac6101a7366004610ec3565b6105c2565b6040516101049190610f4e565b61016560015481565b6101206101d0366004610fb0565b6106ed565b61016560008051602061138483398151915281565b6100f86101f8366004610edc565b61087e565b610165600081565b610120610213366004610ec3565b6108a7565b610120610226366004610edc565b6109ab565b61023e610239366004610ec3565b6109d0565b604051610104959493929190610fe2565b61016561025d366004611030565b610aa7565b60006001600160e01b03198216637965db0b60e01b148061029357506301ffc9a760e01b6001600160e01b03198316145b92915050565b6000805160206113848339815191526102b181610ad8565b6001600160a01b03841661031c5760405162461bcd60e51b815260206004820152602760248201527f417564697452656769737472793a20496e76616c6964206275696c64696e67206044820152666164647265737360c81b60648201526084015b60405180910390fd5b816103395760405162461bcd60e51b81526004016103139061105a565b610344848484610ae5565b1561036257604051635d922ec360e01b815260040160405180910390fd5b600180549060006103728361109e565b90915550506001546040805160a0810182526001600160a01b0387168152336020808301919091526001600160401b03421682840152600060608301528251601f8701829004820281018201909352858352909160808301918790879081908401838280828437600092018290525093909452505083815260026020818152604092839020855181546001600160a01b039182166001600160a01b0319909116178255918601516001820180549588015160608901511515600160e01b0260ff60e01b196001600160401b03909216600160a01b026001600160e01b03199098169390951692909217959095171691909117909255608084015191925082019061047c908261117a565b5050506001600160a01b0385166000818152600360209081526040808320805460018101825590845291909220018390555133919083907f9238fb7e1f523c52ddf4024bdcb41357b62ed007c90dac38ee13e1c72e0c0a80906104e490899089904290611233565b60405180910390a45050505050565b6001600160a01b03811660009081526003602090815260409182902080548351818402810184019094528084526060939283018282801561055357602002820191906000526020600020905b81548152602001906001019080831161053f575b50505050509050919050565b60008281526020819052604090206001015461057a81610ad8565b6105848383610c24565b50505050565b6001600160a01b03811633146105b35760405163334bd91960e11b815260040160405180910390fd5b6105bd8282610cb6565b505050565b6040805160a0810182526000808252602082018190529181018290526060808201929092526080810191909152600082815260026020818152604092839020835160a08101855281546001600160a01b039081168252600183015490811693820193909352600160a01b83046001600160401b031694810194909452600160e01b90910460ff16151560608401529081018054608084019190610664906110db565b80601f0160208091040260200160405190810160405280929190818152602001828054610690906110db565b80156106dd5780601f106106b2576101008083540402835291602001916106dd565b820191906000526020600020905b8154815290600101906020018083116106c057829003601f168201915b5050505050815250509050919050565b60008051602061138483398151915261070581610ad8565b816107225760405162461bcd60e51b81526004016103139061105a565b600084815260026020526040902060018101546001600160a01b0316331461075c5760405162461bcd60e51b81526004016103139061126c565b6001810154600160e01b900460ff16156107ce5760405162461bcd60e51b815260206004820152602d60248201527f417564697452656769737472793a2043616e6e6f74207570646174652061207260448201526c195d9bdad959081c9958dbdc99609a1b6064820152608401610313565b80546107e4906001600160a01b03168585610ae5565b1561080257604051635d922ec360e01b815260040160405180910390fd5b600281016108118486836112b3565b50428160010160146101000a8154816001600160401b0302191690836001600160401b03160217905550847f7d88a6413bdea2f765837b2027d150e8d9eff6811a00e7b32ce22566577ae32185854260405161086f93929190611233565b60405180910390a25050505050565b6000918252602082815260408084206001600160a01b0393909316845291905290205460ff1690565b6000805160206113848339815191526108bf81610ad8565b600082815260026020526040902060018101546001600160a01b031633146108f95760405162461bcd60e51b81526004016103139061126c565b6001810154600160e01b900460ff16156109555760405162461bcd60e51b815260206004820152601e60248201527f417564697452656769737472793a20416c7265616479207265766f6b656400006044820152606401610313565b60018101805460ff60e01b1916600160e01b17905560405183907fe4839e81aa65ee9120ee35c9291915fa224f6ae0bfab747215ee7f0b5368a1939061099e9042815260200190565b60405180910390a2505050565b6000828152602081905260409020600101546109c681610ad8565b6105848383610cb6565b60026020819052600091825260409091208054600182015492820180546001600160a01b039283169492831693600160a01b84046001600160401b031693600160e01b900460ff16929091610a24906110db565b80601f0160208091040260200160405190810160405280929190818152602001828054610a50906110db565b8015610a9d5780601f10610a7257610100808354040283529160200191610a9d565b820191906000526020600020905b815481529060010190602001808311610a8057829003601f168201915b5050505050905085565b60036020528160005260406000208181548110610ac357600080fd5b90600052602060002001600091509150505481565b610ae28133610d21565b50565b6001600160a01b0383166000908152600360205260408120815b8154811015610c1a57610c0260026000848481548110610b2157610b2161136d565b906000526020600020015481526020019081526020016000206002018054610b48906110db565b80601f0160208091040260200160405190810160405280929190818152602001828054610b74906110db565b8015610bc15780601f10610b9657610100808354040283529160200191610bc1565b820191906000526020600020905b815481529060010190602001808311610ba457829003601f168201915b505050505086868080601f016020809104026020016040519081016040528093929190818152602001838380828437600092019190915250610d5e92505050565b15610c1257600192505050610c1d565b600101610aff565b50505b9392505050565b6000610c30838361087e565b610cae576000838152602081815260408083206001600160a01b03861684529091529020805460ff19166001179055610c663390565b6001600160a01b0316826001600160a01b0316847f2f8788117e7eff1d82e926ec794901d17c78024a50270940304540a733656f0d60405160405180910390a4506001610293565b506000610293565b6000610cc2838361087e565b15610cae576000838152602081815260408083206001600160a01b0386168085529252808320805460ff1916905551339286917ff6391f5c32d9c69d2a47ea670b442974b53935d1edc7fd64eb21e047a839171b9190a4506001610293565b610d2b828261087e565b610d5a5760405163e2517d3f60e01b81526001600160a01b038216600482015260248101839052604401610313565b5050565b600081518351148015610c1d575081805190602001208380519060200120149392505050565b600060208284031215610d9657600080fd5b81356001600160e01b031981168114610c1d57600080fd5b80356001600160a01b0381168114610dc557600080fd5b919050565b60008083601f840112610ddc57600080fd5b5081356001600160401b03811115610df357600080fd5b602083019150836020828501011115610e0b57600080fd5b9250929050565b600080600060408486031215610e2757600080fd5b610e3084610dae565b925060208401356001600160401b03811115610e4b57600080fd5b610e5786828701610dca565b9497909650939450505050565b600060208284031215610e7657600080fd5b610c1d82610dae565b6020808252825182820181905260009190848201906040850190845b81811015610eb757835183529284019291840191600101610e9b565b50909695505050505050565b600060208284031215610ed557600080fd5b5035919050565b60008060408385031215610eef57600080fd5b82359150610eff60208401610dae565b90509250929050565b6000815180845260005b81811015610f2e57602081850181015186830182015201610f12565b506000602082860101526020601f19601f83011685010191505092915050565b60208152600060018060a01b03808451166020840152806020850151166040840152506001600160401b036040840151166060830152606083015115156080830152608083015160a080840152610fa860c0840182610f08565b949350505050565b600080600060408486031215610fc557600080fd5b8335925060208401356001600160401b03811115610e4b57600080fd5b6001600160a01b038681168252851660208201526001600160401b0384166040820152821515606082015260a06080820181905260009061102590830184610f08565b979650505050505050565b6000806040838503121561104357600080fd5b61104c83610dae565b946020939093013593505050565b60208082526024908201527f417564697452656769737472793a2049504653206861736820697320726571756040820152631a5c995960e21b606082015260800190565b6000600182016110be57634e487b7160e01b600052601160045260246000fd5b5060010190565b634e487b7160e01b600052604160045260246000fd5b600181811c908216806110ef57607f821691505b60208210810361110f57634e487b7160e01b600052602260045260246000fd5b50919050565b601f8211156105bd576000816000526020600020601f850160051c8101602086101561113e5750805b601f850160051c820191505b8181101561115d5782815560010161114a565b505050505050565b600019600383901b1c191660019190911b1790565b81516001600160401b03811115611193576111936110c5565b6111a7816111a184546110db565b84611115565b602080601f8311600181146111d657600084156111c45750858301515b6111ce8582611165565b86555061115d565b600085815260208120601f198616915b82811015611205578886015182559484019460019091019084016111e6565b50858210156112235787850151600019600388901b60f8161c191681555b5050505050600190811b01905550565b604081528260408201528284606083013760006060848301015260006060601f19601f8601168301019050826020830152949350505050565b60208082526027908201527f417564697452656769737472793a204e6f7420746865206f726967696e616c2060408201526630bab234ba37b960c91b606082015260800190565b6001600160401b038311156112ca576112ca6110c5565b6112de836112d883546110db565b83611115565b6000601f84116001811461130c57600085156112fa5750838201355b6113048682611165565b845550611366565b600083815260209020601f19861690835b8281101561133d578685013582556020948501946001909201910161131d565b508682101561135a5760001960f88860031b161c19848701351681555b505060018560011b0183555b5050505050565b634e487b7160e01b600052603260045260246000fdfe59a1c48e5837ad7a7f3dcedcbe129bf3249ec4fbf651fd4f5e2600ead39fe2f5a264697066735822122086848fe47a0469f926563ec1db36a3e376a7415f364d73d1ef19f6e7fe6a755f64736f6c63430008180033a2646970667358221220d705bfedbdcfc6d2e0072a68f06d55e0711cfcc0222128adda13469ad6dc5a4864736f6c63430008180033",
  "linkReferences": {},
  "deployedLinkReferences": {}
}