{
  "_format": "hh-sol-artifact-1",
  "contractName": "BuildingGovernance",
  "sourceName": "contracts/buildings/governance/BuildingGovernance.sol",
  "abi": [
    {
      "inputs": [],
      "stateMutability": "nonpayable",
      "type": "constructor"
    },
    {
      "inputs": [
        {
          "internalType": "address",
          "name": "target",
          "type": "address"
        }
      ],
      "name": "AddressEmptyCode",
      "type": "error"
    },
    {
      "inputs": [],
      "name": "CheckpointUnorderedInsertion",
      "type": "error"
    },
    {
      "inputs": [
        {
          "internalType": "address",
          "name": "implementation",
          "type": "address"
        }
      ],
      "name": "ERC1967InvalidImplementation",
      "type": "error"
    },
    {
      "inputs": [],
      "name": "ERC1967NonPayable",
      "type": "error"
    },
    {
      "inputs": [],
      "name": "FailedInnerCall",
      "type": "error"
    },
    {
      "inputs": [
        {
          "internalType": "address",
          "name": "voter",
          "type": "address"
        }
      ],
      "name": "GovernorAlreadyCastVote",
      "type": "error"
    },
    {
      "inputs": [
        {
          "internalType": "uint256",
          "name": "proposalId",
          "type": "uint256"
        }
      ],
      "name": "GovernorAlreadyQueuedProposal",
      "type": "error"
    },
    {
      "inputs": [],
      "name": "GovernorDisabledDeposit",
      "type": "error"
    },
    {
      "inputs": [
        {
          "internalType": "address",
          "name": "proposer",
          "type": "address"
        },
        {
          "internalType": "uint256",
          "name": "votes",
          "type": "uint256"
        },
        {
          "internalType": "uint256",
          "name": "threshold",
          "type": "uint256"
        }
      ],
      "name": "GovernorInsufficientProposerVotes",
      "type": "error"
    },
    {
      "inputs": [
        {
          "internalType": "uint256",
          "name": "targets",
          "type": "uint256"
        },
        {
          "internalType": "uint256",
          "name": "calldatas",
          "type": "uint256"
        },
        {
          "internalType": "uint256",
          "name": "values",
          "type": "uint256"
        }
      ],
      "name": "GovernorInvalidProposalLength",
      "type": "error"
    },
    {
      "inputs": [
        {
          "internalType": "uint256",
          "name": "quorumNumerator",
          "type": "uint256"
        },
        {
          "internalType": "uint256",
          "name": "quorumDenominator",
          "type": "uint256"
        }
      ],
      "name": "GovernorInvalidQuorumFraction",
      "type": "error"
    },
    {
      "inputs": [
        {
          "internalType": "address",
          "name": "voter",
          "type": "address"
        }
      ],
      "name": "GovernorInvalidSignature",
      "type": "error"
    },
    {
      "inputs": [],
      "name": "GovernorInvalidVoteType",
      "type": "error"
    },
    {
      "inputs": [
        {
          "internalType": "uint256",
          "name": "votingPeriod",
          "type": "uint256"
        }
      ],
      "name": "GovernorInvalidVotingPeriod",
      "type": "error"
    },
    {
      "inputs": [
        {
          "internalType": "uint256",
          "name": "proposalId",
          "type": "uint256"
        }
      ],
      "name": "GovernorNonexistentProposal",
      "type": "error"
    },
    {
      "inputs": [
        {
          "internalType": "uint256",
          "name": "proposalId",
          "type": "uint256"
        }
      ],
      "name": "GovernorNotQueuedProposal",
      "type": "error"
    },
    {
      "inputs": [
        {
          "internalType": "address",
          "name": "account",
          "type": "address"
        }
      ],
      "name": "GovernorOnlyExecutor",
      "type": "error"
    },
    {
      "inputs": [
        {
          "internalType": "address",
          "name": "account",
          "type": "address"
        }
      ],
      "name": "GovernorOnlyProposer",
      "type": "error"
    },
    {
      "inputs": [],
      "name": "GovernorQueueNotImplemented",
      "type": "error"
    },
    {
      "inputs": [
        {
          "internalType": "address",
          "name": "proposer",
          "type": "address"
        }
      ],
      "name": "GovernorRestrictedProposer",
      "type": "error"
    },
    {
      "inputs": [
        {
          "internalType": "uint256",
          "name": "proposalId",
          "type": "uint256"
        },
        {
          "internalType": "enum IGovernor.ProposalState",
          "name": "current",
          "type": "uint8"
        },
        {
          "internalType": "bytes32",
          "name": "expectedStates",
          "type": "bytes32"
        }
      ],
      "name": "GovernorUnexpectedProposalState",
      "type": "error"
    },
    {
      "inputs": [
        {
          "internalType": "address",
          "name": "account",
          "type": "address"
        },
        {
          "internalType": "uint256",
          "name": "currentNonce",
          "type": "uint256"
        }
      ],
      "name": "InvalidAccountNonce",
      "type": "error"
    },
    {
      "inputs": [],
      "name": "InvalidInitialization",
      "type": "error"
    },
    {
      "inputs": [],
      "name": "NotInitializing",
      "type": "error"
    },
    {
      "inputs": [
        {
          "internalType": "address",
          "name": "owner",
          "type": "address"
        }
      ],
      "name": "OwnableInvalidOwner",
      "type": "error"
    },
    {
      "inputs": [
        {
          "internalType": "address",
          "name": "account",
          "type": "address"
        }
      ],
      "name": "OwnableUnauthorizedAccount",
      "type": "error"
    },
    {
      "inputs": [],
      "name": "QueueEmpty",
      "type": "error"
    },
    {
      "inputs": [],
      "name": "QueueFull",
      "type": "error"
    },
    {
      "inputs": [
        {
          "internalType": "uint8",
          "name": "bits",
          "type": "uint8"
        },
        {
          "internalType": "uint256",
          "name": "value",
          "type": "uint256"
        }
      ],
      "name": "SafeCastOverflowedUintDowncast",
      "type": "error"
    },
    {
      "inputs": [],
      "name": "UUPSUnauthorizedCallContext",
      "type": "error"
    },
    {
      "inputs": [
        {
          "internalType": "bytes32",
          "name": "slot",
          "type": "bytes32"
        }
      ],
      "name": "UUPSUnsupportedProxiableUUID",
      "type": "error"
    },
    {
      "anonymous": false,
      "inputs": [],
      "name": "EIP712DomainChanged",
      "type": "event"
    },
    {
      "anonymous": false,
      "inputs": [
        {
          "indexed": false,
          "internalType": "uint64",
          "name": "version",
          "type": "uint64"
        }
      ],
      "name": "Initialized",
      "type": "event"
    },
    {
      "anonymous": false,
      "inputs": [
        {
          "indexed": true,
          "internalType": "address",
          "name": "previousOwner",
          "type": "address"
        },
        {
          "indexed": true,
          "internalType": "address",
          "name": "newOwner",
          "type": "address"
        }
      ],
      "name": "OwnershipTransferred",
      "type": "event"
    },
    {
      "anonymous": false,
      "inputs": [
        {
          "indexed": false,
          "internalType": "uint256",
          "name": "proposalId",
          "type": "uint256"
        }
      ],
      "name": "ProposalCanceled",
      "type": "event"
    },
    {
      "anonymous": false,
      "inputs": [
        {
          "indexed": false,
          "internalType": "uint256",
          "name": "proposalId",
          "type": "uint256"
        },
        {
          "indexed": false,
          "internalType": "address",
          "name": "proposer",
          "type": "address"
        },
        {
          "indexed": false,
          "internalType": "address[]",
          "name": "targets",
          "type": "address[]"
        },
        {
          "indexed": false,
          "internalType": "uint256[]",
          "name": "values",
          "type": "uint256[]"
        },
        {
          "indexed": false,
          "internalType": "string[]",
          "name": "signatures",
          "type": "string[]"
        },
        {
          "indexed": false,
          "internalType": "bytes[]",
          "name": "calldatas",
          "type": "bytes[]"
        },
        {
          "indexed": false,
          "internalType": "uint256",
          "name": "voteStart",
          "type": "uint256"
        },
        {
          "indexed": false,
          "internalType": "uint256",
          "name": "voteEnd",
          "type": "uint256"
        },
        {
          "indexed": false,
          "internalType": "string",
          "name": "description",
          "type": "string"
        }
      ],
      "name": "ProposalCreated",
      "type": "event"
    },
    {
      "anonymous": false,
      "inputs": [
        {
          "indexed": false,
          "internalType": "uint256",
          "name": "id",
          "type": "uint256"
        },
        {
          "indexed": false,
          "internalType": "enum BuildingGovernanceStorage.ProposalType",
          "name": "proposalType",
          "type": "uint8"
        },
        {
          "indexed": false,
          "internalType": "address",
          "name": "proposer",
          "type": "address"
        },
        {
          "indexed": false,
          "internalType": "address",
          "name": "receiver",
          "type": "address"
        },
        {
          "indexed": false,
          "internalType": "uint256",
          "name": "amount",
          "type": "uint256"
        }
      ],
      "name": "ProposalDefined",
      "type": "event"
    },
    {
      "anonymous": false,
      "inputs": [
        {
          "indexed": false,
          "internalType": "uint256",
          "name": "proposalId",
          "type": "uint256"
        }
      ],
      "name": "ProposalExecuted",
      "type": "event"
    },
    {
      "anonymous": false,
      "inputs": [
        {
          "indexed": false,
          "internalType": "uint256",
          "name": "proposalId",
          "type": "uint256"
        },
        {
          "indexed": false,
          "internalType": "uint256",
          "name": "etaSeconds",
          "type": "uint256"
        }
      ],
      "name": "ProposalQueued",
      "type": "event"
    },
    {
      "anonymous": false,
      "inputs": [
        {
          "indexed": false,
          "internalType": "uint256",
          "name": "oldQuorumNumerator",
          "type": "uint256"
        },
        {
          "indexed": false,
          "internalType": "uint256",
          "name": "newQuorumNumerator",
          "type": "uint256"
        }
      ],
      "name": "QuorumNumeratorUpdated",
      "type": "event"
    },
    {
      "anonymous": false,
      "inputs": [
        {
          "indexed": true,
          "internalType": "address",
          "name": "implementation",
          "type": "address"
        }
      ],
      "name": "Upgraded",
      "type": "event"
    },
    {
      "anonymous": false,
      "inputs": [
        {
          "indexed": true,
          "internalType": "address",
          "name": "voter",
          "type": "address"
        },
        {
          "indexed": false,
          "internalType": "uint256",
          "name": "proposalId",
          "type": "uint256"
        },
        {
          "indexed": false,
          "internalType": "uint8",
          "name": "support",
          "type": "uint8"
        },
        {
          "indexed": false,
          "internalType": "uint256",
          "name": "weight",
          "type": "uint256"
        },
        {
          "indexed": false,
          "internalType": "string",
          "name": "reason",
          "type": "string"
        }
      ],
      "name": "VoteCast",
      "type": "event"
    },
    {
      "anonymous": false,
      "inputs": [
        {
          "indexed": true,
          "internalType": "address",
          "name": "voter",
          "type": "address"
        },
        {
          "indexed": false,
          "internalType": "uint256",
          "name": "proposalId",
          "type": "uint256"
        },
        {
          "indexed": false,
          "internalType": "uint8",
          "name": "support",
          "type": "uint8"
        },
        {
          "indexed": false,
          "internalType": "uint256",
          "name": "weight",
          "type": "uint256"
        },
        {
          "indexed": false,
          "internalType": "string",
          "name": "reason",
          "type": "string"
        },
        {
          "indexed": false,
          "internalType": "bytes",
          "name": "params",
          "type": "bytes"
        }
      ],
      "name": "VoteCastWithParams",
      "type": "event"
    },
    {
      "inputs": [],
      "name": "BALLOT_TYPEHASH",
      "outputs": [
        {
          "internalType": "bytes32",
          "name": "",
          "type": "bytes32"
        }
      ],
      "stateMutability": "view",
      "type": "function"
    },
    {
      "inputs": [],
      "name": "CLOCK_MODE",
      "outputs": [
        {
          "internalType": "string",
          "name": "",
          "type": "string"
        }
      ],
      "stateMutability": "pure",
      "type": "function"
    },
    {
      "inputs": [],
      "name": "COUNTING_MODE",
      "outputs": [
        {
          "internalType": "string",
          "name": "",
          "type": "string"
        }
      ],
      "stateMutability": "pure",
      "type": "function"
    },
    {
      "inputs": [],
      "name": "EXTENDED_BALLOT_TYPEHASH",
      "outputs": [
        {
          "internalType": "bytes32",
          "name": "",
          "type": "bytes32"
        }
      ],
      "stateMutability": "view",
      "type": "function"
    },
    {
      "inputs": [],
      "name": "UPGRADE_INTERFACE_VERSION",
      "outputs": [
        {
          "internalType": "string",
          "name": "",
          "type": "string"
        }
      ],
      "stateMutability": "view",
      "type": "function"
    },
    {
      "inputs": [
        {
          "internalType": "address[]",
          "name": "targets",
          "type": "address[]"
        },
        {
          "internalType": "uint256[]",
          "name": "values",
          "type": "uint256[]"
        },
        {
          "internalType": "bytes[]",
          "name": "calldatas",
          "type": "bytes[]"
        },
        {
          "internalType": "bytes32",
          "name": "descriptionHash",
          "type": "bytes32"
        }
      ],
      "name": "cancel",
      "outputs": [
        {
          "internalType": "uint256",
          "name": "",
          "type": "uint256"
        }
      ],
      "stateMutability": "nonpayable",
      "type": "function"
    },
    {
      "inputs": [
        {
          "internalType": "uint256",
          "name": "proposalId",
          "type": "uint256"
        },
        {
          "internalType": "uint8",
          "name": "support",
          "type": "uint8"
        }
      ],
      "name": "castVote",
      "outputs": [
        {
          "internalType": "uint256",
          "name": "",
          "type": "uint256"
        }
      ],
      "stateMutability": "nonpayable",
      "type": "function"
    },
    {
      "inputs": [
        {
          "internalType": "uint256",
          "name": "proposalId",
          "type": "uint256"
        },
        {
          "internalType": "uint8",
          "name": "support",
          "type": "uint8"
        },
        {
          "internalType": "address",
          "name": "voter",
          "type": "address"
        },
        {
          "internalType": "bytes",
          "name": "signature",
          "type": "bytes"
        }
      ],
      "name": "castVoteBySig",
      "outputs": [
        {
          "internalType": "uint256",
          "name": "",
          "type": "uint256"
        }
      ],
      "stateMutability": "nonpayable",
      "type": "function"
    },
    {
      "inputs": [
        {
          "internalType": "uint256",
          "name": "proposalId",
          "type": "uint256"
        },
        {
          "internalType": "uint8",
          "name": "support",
          "type": "uint8"
        },
        {
          "internalType": "string",
          "name": "reason",
          "type": "string"
        }
      ],
      "name": "castVoteWithReason",
      "outputs": [
        {
          "internalType": "uint256",
          "name": "",
          "type": "uint256"
        }
      ],
      "stateMutability": "nonpayable",
      "type": "function"
    },
    {
      "inputs": [
        {
          "internalType": "uint256",
          "name": "proposalId",
          "type": "uint256"
        },
        {
          "internalType": "uint8",
          "name": "support",
          "type": "uint8"
        },
        {
          "internalType": "string",
          "name": "reason",
          "type": "string"
        },
        {
          "internalType": "bytes",
          "name": "params",
          "type": "bytes"
        }
      ],
      "name": "castVoteWithReasonAndParams",
      "outputs": [
        {
          "internalType": "uint256",
          "name": "",
          "type": "uint256"
        }
      ],
      "stateMutability": "nonpayable",
      "type": "function"
    },
    {
      "inputs": [
        {
          "internalType": "uint256",
          "name": "proposalId",
          "type": "uint256"
        },
        {
          "internalType": "uint8",
          "name": "support",
          "type": "uint8"
        },
        {
          "internalType": "address",
          "name": "voter",
          "type": "address"
        },
        {
          "internalType": "string",
          "name": "reason",
          "type": "string"
        },
        {
          "internalType": "bytes",
          "name": "params",
          "type": "bytes"
        },
        {
          "internalType": "bytes",
          "name": "signature",
          "type": "bytes"
        }
      ],
      "name": "castVoteWithReasonAndParamsBySig",
      "outputs": [
        {
          "internalType": "uint256",
          "name": "",
          "type": "uint256"
        }
      ],
      "stateMutability": "nonpayable",
      "type": "function"
    },
    {
      "inputs": [],
      "name": "clock",
      "outputs": [
        {
          "internalType": "uint48",
          "name": "",
          "type": "uint48"
        }
      ],
      "stateMutability": "view",
      "type": "function"
    },
    {
      "inputs": [
        {
          "internalType": "address",
          "name": "auditor",
          "type": "address"
        },
        {
          "internalType": "string",
          "name": "description",
          "type": "string"
        }
      ],
      "name": "createAddAuditorProposal",
      "outputs": [
        {
          "internalType": "uint256",
          "name": "proposalId",
          "type": "uint256"
        }
      ],
      "stateMutability": "nonpayable",
      "type": "function"
    },
    {
      "inputs": [
        {
          "internalType": "uint256",
          "name": "amount",
          "type": "uint256"
        },
        {
          "internalType": "string",
          "name": "description",
          "type": "string"
        }
      ],
      "name": "createChangeReserveProposal",
      "outputs": [
        {
          "internalType": "uint256",
          "name": "proposalId",
          "type": "uint256"
        }
      ],
      "stateMutability": "nonpayable",
      "type": "function"
    },
    {
      "inputs": [
        {
          "internalType": "uint256",
          "name": "amount",
          "type": "uint256"
        },
        {
          "internalType": "address",
          "name": "to",
          "type": "address"
        },
        {
          "internalType": "string",
          "name": "description",
          "type": "string"
        }
      ],
      "name": "createPaymentProposal",
      "outputs": [
        {
          "internalType": "uint256",
          "name": "proposalId",
          "type": "uint256"
        }
      ],
      "stateMutability": "nonpayable",
      "type": "function"
    },
    {
      "inputs": [
        {
          "internalType": "address",
          "name": "auditor",
          "type": "address"
        },
        {
          "internalType": "string",
          "name": "description",
          "type": "string"
        }
      ],
      "name": "createRemoveAuditorProposal",
      "outputs": [
        {
          "internalType": "uint256",
          "name": "proposalId",
          "type": "uint256"
        }
      ],
      "stateMutability": "nonpayable",
      "type": "function"
    },
    {
      "inputs": [
        {
          "internalType": "enum BuildingGovernanceStorage.ProposalLevel",
          "name": "",
          "type": "uint8"
        },
        {
          "internalType": "string",
          "name": "description",
          "type": "string"
        }
      ],
      "name": "createTextProposal",
      "outputs": [
        {
          "internalType": "uint256",
          "name": "proposalId",
          "type": "uint256"
        }
      ],
      "stateMutability": "nonpayable",
      "type": "function"
    },
    {
      "inputs": [],
      "name": "eip712Domain",
      "outputs": [
        {
          "internalType": "bytes1",
          "name": "fields",
          "type": "bytes1"
        },
        {
          "internalType": "string",
          "name": "name",
          "type": "string"
        },
        {
          "internalType": "string",
          "name": "version",
          "type": "string"
        },
        {
          "internalType": "uint256",
          "name": "chainId",
          "type": "uint256"
        },
        {
          "internalType": "address",
          "name": "verifyingContract",
          "type": "address"
        },
        {
          "internalType": "bytes32",
          "name": "salt",
          "type": "bytes32"
        },
        {
          "internalType": "uint256[]",
          "name": "extensions",
          "type": "uint256[]"
        }
      ],
      "stateMutability": "view",
      "type": "function"
    },
    {
      "inputs": [
        {
          "internalType": "address[]",
          "name": "targets",
          "type": "address[]"
        },
        {
          "internalType": "uint256[]",
          "name": "values",
          "type": "uint256[]"
        },
        {
          "internalType": "bytes[]",
          "name": "calldatas",
          "type": "bytes[]"
        },
        {
          "internalType": "bytes32",
          "name": "descriptionHash",
          "type": "bytes32"
        }
      ],
      "name": "execute",
      "outputs": [
        {
          "internalType": "uint256",
          "name": "",
          "type": "uint256"
        }
      ],
      "stateMutability": "payable",
      "type": "function"
    },
    {
      "inputs": [
        {
          "internalType": "uint256",
          "name": "proposalId",
          "type": "uint256"
        }
      ],
      "name": "executeAddAuditorProposal",
      "outputs": [],
      "stateMutability": "nonpayable",
      "type": "function"
    },
    {
      "inputs": [
        {
          "internalType": "uint256",
          "name": "proposalId",
          "type": "uint256"
        }
      ],
      "name": "executeChangeReserveProposal",
      "outputs": [],
      "stateMutability": "nonpayable",
      "type": "function"
    },
    {
      "inputs": [
        {
          "internalType": "uint256",
          "name": "proposalId",
          "type": "uint256"
        }
      ],
      "name": "executePaymentProposal",
      "outputs": [],
      "stateMutability": "nonpayable",
      "type": "function"
    },
    {
      "inputs": [
        {
          "internalType": "uint256",
          "name": "proposalId",
          "type": "uint256"
        }
      ],
      "name": "executeRemoveAuditorProposal",
      "outputs": [],
      "stateMutability": "nonpayable",
      "type": "function"
    },
    {
      "inputs": [
        {
          "internalType": "uint256",
          "name": "proposalId",
          "type": "uint256"
        }
      ],
      "name": "executeTextProposal",
      "outputs": [],
      "stateMutability": "nonpayable",
      "type": "function"
    },
    {
      "inputs": [
        {
          "internalType": "address",
          "name": "account",
          "type": "address"
        },
        {
          "internalType": "uint256",
          "name": "timepoint",
          "type": "uint256"
        }
      ],
      "name": "getVotes",
      "outputs": [
        {
          "internalType": "uint256",
          "name": "",
          "type": "uint256"
        }
      ],
      "stateMutability": "view",
      "type": "function"
    },
    {
      "inputs": [
        {
          "internalType": "address",
          "name": "account",
          "type": "address"
        },
        {
          "internalType": "uint256",
          "name": "timepoint",
          "type": "uint256"
        },
        {
          "internalType": "bytes",
          "name": "params",
          "type": "bytes"
        }
      ],
      "name": "getVotesWithParams",
      "outputs": [
        {
          "internalType": "uint256",
          "name": "",
          "type": "uint256"
        }
      ],
      "stateMutability": "view",
      "type": "function"
    },
    {
      "inputs": [
        {
          "internalType": "uint256",
          "name": "proposalId",
          "type": "uint256"
        },
        {
          "internalType": "address",
          "name": "account",
          "type": "address"
        }
      ],
      "name": "hasVoted",
      "outputs": [
        {
          "internalType": "bool",
          "name": "",
          "type": "bool"
        }
      ],
      "stateMutability": "view",
      "type": "function"
    },
    {
      "inputs": [
        {
          "internalType": "address[]",
          "name": "targets",
          "type": "address[]"
        },
        {
          "internalType": "uint256[]",
          "name": "values",
          "type": "uint256[]"
        },
        {
          "internalType": "bytes[]",
          "name": "calldatas",
          "type": "bytes[]"
        },
        {
          "internalType": "bytes32",
          "name": "descriptionHash",
          "type": "bytes32"
        }
      ],
      "name": "hashProposal",
      "outputs": [
        {
          "internalType": "uint256",
          "name": "",
          "type": "uint256"
        }
      ],
      "stateMutability": "pure",
      "type": "function"
    },
    {
      "inputs": [
        {
          "internalType": "contract IVotes",
          "name": "_token",
          "type": "address"
        },
        {
          "internalType": "string",
          "name": "name",
          "type": "string"
        },
        {
          "internalType": "address",
          "name": "initialOwner",
          "type": "address"
        },
        {
          "internalType": "address",
          "name": "treasury",
          "type": "address"
        },
        {
          "internalType": "address",
          "name": "auditRegistry",
          "type": "address"
        }
      ],
      "name": "initialize",
      "outputs": [],
      "stateMutability": "nonpayable",
      "type": "function"
    },
    {
      "inputs": [],
      "name": "name",
      "outputs": [
        {
          "internalType": "string",
          "name": "",
          "type": "string"
        }
      ],
      "stateMutability": "view",
      "type": "function"
    },
    {
      "inputs": [
        {
          "internalType": "address",
          "name": "owner",
          "type": "address"
        }
      ],
      "name": "nonces",
      "outputs": [
        {
          "internalType": "uint256",
          "name": "",
          "type": "uint256"
        }
      ],
      "stateMutability": "view",
      "type": "function"
    },
    {
      "inputs": [
        {
          "internalType": "address",
          "name": "",
          "type": "address"
        },
        {
          "internalType": "address",
          "name": "",
          "type": "address"
        },
        {
          "internalType": "uint256[]",
          "name": "",
          "type": "uint256[]"
        },
        {
          "internalType": "uint256[]",
          "name": "",
          "type": "uint256[]"
        },
        {
          "internalType": "bytes",
          "name": "",
          "type": "bytes"
        }
      ],
      "name": "onERC1155BatchReceived",
      "outputs": [
        {
          "internalType": "bytes4",
          "name": "",
          "type": "bytes4"
        }
      ],
      "stateMutability": "nonpayable",
      "type": "function"
    },
    {
      "inputs": [
        {
          "internalType": "address",
          "name": "",
          "type": "address"
        },
        {
          "internalType": "address",
          "name": "",
          "type": "address"
        },
        {
          "internalType": "uint256",
          "name": "",
          "type": "uint256"
        },
        {
          "internalType": "uint256",
          "name": "",
          "type": "uint256"
        },
        {
          "internalType": "bytes",
          "name": "",
          "type": "bytes"
        }
      ],
      "name": "onERC1155Received",
      "outputs": [
        {
          "internalType": "bytes4",
          "name": "",
          "type": "bytes4"
        }
      ],
      "stateMutability": "nonpayable",
      "type": "function"
    },
    {
      "inputs": [
        {
          "internalType": "address",
          "name": "",
          "type": "address"
        },
        {
          "internalType": "address",
          "name": "",
          "type": "address"
        },
        {
          "internalType": "uint256",
          "name": "",
          "type": "uint256"
        },
        {
          "internalType": "bytes",
          "name": "",
          "type": "bytes"
        }
      ],
      "name": "onERC721Received",
      "outputs": [
        {
          "internalType": "bytes4",
          "name": "",
          "type": "bytes4"
        }
      ],
      "stateMutability": "nonpayable",
      "type": "function"
    },
    {
      "inputs": [],
      "name": "owner",
      "outputs": [
        {
          "internalType": "address",
          "name": "",
          "type": "address"
        }
      ],
      "stateMutability": "view",
      "type": "function"
    },
    {
      "inputs": [
        {
          "internalType": "uint256",
          "name": "proposalId",
          "type": "uint256"
        }
      ],
      "name": "proposalDeadline",
      "outputs": [
        {
          "internalType": "uint256",
          "name": "",
          "type": "uint256"
        }
      ],
      "stateMutability": "view",
      "type": "function"
    },
    {
      "inputs": [
        {
          "internalType": "uint256",
          "name": "proposalId",
          "type": "uint256"
        }
      ],
      "name": "proposalEta",
      "outputs": [
        {
          "internalType": "uint256",
          "name": "",
          "type": "uint256"
        }
      ],
      "stateMutability": "view",
      "type": "function"
    },
    {
      "inputs": [
        {
          "internalType": "uint256",
          "name": "",
          "type": "uint256"
        }
      ],
      "name": "proposalNeedsQueuing",
      "outputs": [
        {
          "internalType": "bool",
          "name": "",
          "type": "bool"
        }
      ],
      "stateMutability": "view",
      "type": "function"
    },
    {
      "inputs": [
        {
          "internalType": "uint256",
          "name": "proposalId",
          "type": "uint256"
        }
      ],
      "name": "proposalProposer",
      "outputs": [
        {
          "internalType": "address",
          "name": "",
          "type": "address"
        }
      ],
      "stateMutability": "view",
      "type": "function"
    },
    {
      "inputs": [
        {
          "internalType": "uint256",
          "name": "proposalId",
          "type": "uint256"
        }
      ],
      "name": "proposalSnapshot",
      "outputs": [
        {
          "internalType": "uint256",
          "name": "",
          "type": "uint256"
        }
      ],
      "stateMutability": "view",
      "type": "function"
    },
    {
      "inputs": [],
      "name": "proposalThreshold",
      "outputs": [
        {
          "internalType": "uint256",
          "name": "",
          "type": "uint256"
        }
      ],
      "stateMutability": "view",
      "type": "function"
    },
    {
      "inputs": [
        {
          "internalType": "uint256",
          "name": "proposalId",
          "type": "uint256"
        }
      ],
      "name": "proposalVotes",
      "outputs": [
        {
          "internalType": "uint256",
          "name": "againstVotes",
          "type": "uint256"
        },
        {
          "internalType": "uint256",
          "name": "forVotes",
          "type": "uint256"
        },
        {
          "internalType": "uint256",
          "name": "abstainVotes",
          "type": "uint256"
        }
      ],
      "stateMutability": "view",
      "type": "function"
    },
    {
      "inputs": [
        {
          "internalType": "address[]",
          "name": "targets",
          "type": "address[]"
        },
        {
          "internalType": "uint256[]",
          "name": "values",
          "type": "uint256[]"
        },
        {
          "internalType": "bytes[]",
          "name": "calldatas",
          "type": "bytes[]"
        },
        {
          "internalType": "string",
          "name": "description",
          "type": "string"
        }
      ],
      "name": "propose",
      "outputs": [
        {
          "internalType": "uint256",
          "name": "",
          "type": "uint256"
        }
      ],
      "stateMutability": "nonpayable",
      "type": "function"
    },
    {
      "inputs": [],
      "name": "proxiableUUID",
      "outputs": [
        {
          "internalType": "bytes32",
          "name": "",
          "type": "bytes32"
        }
      ],
      "stateMutability": "view",
      "type": "function"
    },
    {
      "inputs": [
        {
          "internalType": "address[]",
          "name": "targets",
          "type": "address[]"
        },
        {
          "internalType": "uint256[]",
          "name": "values",
          "type": "uint256[]"
        },
        {
          "internalType": "bytes[]",
          "name": "calldatas",
          "type": "bytes[]"
        },
        {
          "internalType": "bytes32",
          "name": "descriptionHash",
          "type": "bytes32"
        }
      ],
      "name": "queue",
      "outputs": [
        {
          "internalType": "uint256",
          "name": "",
          "type": "uint256"
        }
      ],
      "stateMutability": "nonpayable",
      "type": "function"
    },
    {
      "inputs": [
        {
          "internalType": "uint256",
          "name": "blockNumber",
          "type": "uint256"
        }
      ],
      "name": "quorum",
      "outputs": [
        {
          "internalType": "uint256",
          "name": "",
          "type": "uint256"
        }
      ],
      "stateMutability": "view",
      "type": "function"
    },
    {
      "inputs": [],
      "name": "quorumDenominator",
      "outputs": [
        {
          "internalType": "uint256",
          "name": "",
          "type": "uint256"
        }
      ],
      "stateMutability": "view",
      "type": "function"
    },
    {
      "inputs": [
        {
          "internalType": "uint256",
          "name": "timepoint",
          "type": "uint256"
        }
      ],
      "name": "quorumNumerator",
      "outputs": [
        {
          "internalType": "uint256",
          "name": "",
          "type": "uint256"
        }
      ],
      "stateMutability": "view",
      "type": "function"
    },
    {
      "inputs": [],
      "name": "quorumNumerator",
      "outputs": [
        {
          "internalType": "uint256",
          "name": "",
          "type": "uint256"
        }
      ],
      "stateMutability": "view",
      "type": "function"
    },
    {
      "inputs": [
        {
          "internalType": "address",
          "name": "target",
          "type": "address"
        },
        {
          "internalType": "uint256",
          "name": "value",
          "type": "uint256"
        },
        {
          "internalType": "bytes",
          "name": "data",
          "type": "bytes"
        }
      ],
      "name": "relay",
      "outputs": [],
      "stateMutability": "payable",
      "type": "function"
    },
    {
      "inputs": [],
      "name": "renounceOwnership",
      "outputs": [],
      "stateMutability": "nonpayable",
      "type": "function"
    },
    {
      "inputs": [
        {
          "internalType": "uint256",
          "name": "proposalId",
          "type": "uint256"
        }
      ],
      "name": "state",
      "outputs": [
        {
          "internalType": "enum IGovernor.ProposalState",
          "name": "",
          "type": "uint8"
        }
      ],
      "stateMutability": "view",
      "type": "function"
    },
    {
      "inputs": [
        {
          "internalType": "bytes4",
          "name": "interfaceId",
          "type": "bytes4"
        }
      ],
      "name": "supportsInterface",
      "outputs": [
        {
          "internalType": "bool",
          "name": "",
          "type": "bool"
        }
      ],
      "stateMutability": "view",
      "type": "function"
    },
    {
      "inputs": [],
      "name": "token",
      "outputs": [
        {
          "internalType": "contract IERC5805",
          "name": "",
          "type": "address"
        }
      ],
      "stateMutability": "view",
      "type": "function"
    },
    {
      "inputs": [
        {
          "internalType": "address",
          "name": "newOwner",
          "type": "address"
        }
      ],
      "name": "transferOwnership",
      "outputs": [],
      "stateMutability": "nonpayable",
      "type": "function"
    },
    {
      "inputs": [
        {
          "internalType": "uint256",
          "name": "newQuorumNumerator",
          "type": "uint256"
        }
      ],
      "name": "updateQuorumNumerator",
      "outputs": [],
      "stateMutability": "nonpayable",
      "type": "function"
    },
    {
      "inputs": [
        {
          "internalType": "address",
          "name": "newImplementation",
          "type": "address"
        },
        {
          "internalType": "bytes",
          "name": "data",
          "type": "bytes"
        }
      ],
      "name": "upgradeToAndCall",
      "outputs": [],
      "stateMutability": "payable",
      "type": "function"
    },
    {
      "inputs": [],
      "name": "version",
      "outputs": [
        {
          "internalType": "string",
          "name": "",
          "type": "string"
        }
      ],
      "stateMutability": "view",
      "type": "function"
    },
    {
      "inputs": [],
      "name": "votingDelay",
      "outputs": [
        {
          "internalType": "uint256",
          "name": "",
          "type": "uint256"
        }
      ],
      "stateMutability": "pure",
      "type": "function"
    },
    {
      "inputs": [],
      "name": "votingPeriod",
      "outputs": [
        {
          "internalType": "uint256",
          "name": "",
          "type": "uint256"
        }
      ],
      "stateMutability": "pure",
      "type": "function"
    },
    {
      "stateMutability": "payable",
      "type": "receive"
    }
  ],
  "bytecode": "0x60a0604052306080523480156200001557600080fd5b506200002062000026565b620000da565b7ff0c57e16840df040f15088dc2f81fe391c3923bec73e23a9662efc9c229c6a00805468010000000000000000900460ff1615620000775760405163f92ee8a960e01b815260040160405180910390fd5b80546001600160401b0390811614620000d75780546001600160401b0319166001600160401b0390811782556040519081527fc7f505b2f371ae2175ee4913f4499e1f2633a7b5936321eed1cdaeb6115181d29060200160405180910390a15b50565b6080516157256200010460003960008181612e3201528181612e5b0152612f9801526157256000f3fe60806040526004361061031b5760003560e01c806384b0196e1161019c578063b58131b0116100e2578063eb9019d411610090578063eb9019d414610a59578063ec58278014610a79578063f0a75c6314610a99578063f23a6e6114610ab9578063f2fde38b14610ae5578063f8486c9714610b05578063f8ce560a14610b25578063fc0c546a14610b4557600080fd5b8063b58131b01461094c578063bc197c8114610960578063c01f9e371461098c578063c28bc2fa146109ac578063c59057e4146109bf578063dd4e2ba5146109df578063deaaa7cc14610a2557600080fd5b806398f936f71161014a57806398f936f7146108455780639a34a2bd146108655780639a802a6d14610885578063a277136e146108a5578063a7713a70146108c5578063a9a95294146108da578063ab58fb8e146108fb578063ad3cb1cc1461091b57600080fd5b806384b0196e146107715780638da5cb5b146107995780638ff262e3146107ae57806391ddadf4146107ce57806397073ae6146107f1578063974dc13d1461081157806397c3d3341461083157600080fd5b8063452115d6116102615780635a4d64261161020f5780635a4d6426146106475780635b8d0e0d146106675780635f398a141461068757806360c4247f146106a7578063715018a6146106c75780637b3c71d3146106dc5780637d5e81e2146106fc5780637ecebe001461071c57600080fd5b8063452115d6146105585780634bf5d7e9146105785780634f1ef286146105af57806352d1902d146105c2578063544ffc9c146105d757806354fd4d5014610612578063567813881461062757600080fd5b8063234da0b1116102c9578063234da0b114610450578063250dcd4d146104705780632656227d146104905780632d63f693146104a35780632fe3e261146104c35780633932abb1146104f75780633e4f49e61461050b578063438596321461053857600080fd5b806301ffc9a71461032957806302a251a31461035e57806306f3f9e61461037d57806306fdde031461039d578063143489d0146103bf578063150b7a02146103ec578063160cbed71461043057600080fd5b3661032457005b005b600080fd5b34801561033557600080fd5b50610349610344366004614448565b610b5a565b60405190151581526020015b60405180910390f35b34801561036a57600080fd5b50610e105b604051908152602001610355565b34801561038957600080fd5b50610322610398366004614472565b610bac565b3480156103a957600080fd5b506103b2610bc0565b60405161035591906144db565b3480156103cb57600080fd5b506103df6103da366004614472565b610c61565b60405161035591906144ee565b3480156103f857600080fd5b506104176104073660046145cc565b630a85bd0160e11b949350505050565b6040516001600160e01b03199091168152602001610355565b34801561043c57600080fd5b5061036f61044b3660046147a5565b610c8a565b34801561045c57600080fd5b5061032261046b366004614472565b610ce1565b34801561047c57600080fd5b5061032261048b366004614472565b610ee6565b61036f61049e3660046147a5565b6110b0565b3480156104af57600080fd5b5061036f6104be366004614472565b6111ec565b3480156104cf57600080fd5b5061036f7f3e83946653575f9a39005e1545185629e92736b7528ab20ca3816f315424a81181565b34801561050357600080fd5b50603c61036f565b34801561051757600080fd5b5061052b610526366004614472565b61121b565b604051610355919061485e565b34801561054457600080fd5b5061034961055336600461486c565b611343565b34801561056457600080fd5b5061036f6105733660046147a5565b61137d565b34801561058457600080fd5b5060408051808201909152600e81526d06d6f64653d74696d657374616d760941b60208201526103b2565b6103226105bd36600461489c565b6113ef565b3480156105ce57600080fd5b5061036f61140e565b3480156105e357600080fd5b506105f76105f2366004614472565b61142b565b60408051938452602084019290925290820152606001610355565b34801561061e57600080fd5b506103b261145e565b34801561063357600080fd5b5061036f610642366004614901565b611479565b34801561065357600080fd5b5061036f61066236600461489c565b6114a2565b34801561067357600080fd5b5061036f610682366004614975565b611688565b34801561069357600080fd5b5061036f6106a2366004614a2f565b6117c0565b3480156106b357600080fd5b5061036f6106c2366004614472565b611815565b3480156106d357600080fd5b506103226118ae565b3480156106e857600080fd5b5061036f6106f7366004614ab2565b6118c2565b34801561070857600080fd5b5061036f610717366004614b0b565b61190a565b34801561072857600080fd5b5061036f610737366004614bab565b6001600160a01b031660009081527f5ab42ced628888259c08ac98db1eb0cf702fc1501344311d8b100cd1bfe4bb00602052604090205490565b34801561077d57600080fd5b50610786611971565b6040516103559796959493929190614c04565b3480156107a557600080fd5b506103df611a1a565b3480156107ba57600080fd5b5061036f6107c9366004614c74565b611a4f565b3480156107da57600080fd5b5060405165ffffffffffff42168152602001610355565b3480156107fd57600080fd5b5061032261080c366004614cc5565b611afa565b34801561081d57600080fd5b5061036f61082c36600461489c565b611c73565b34801561083d57600080fd5b50606461036f565b34801561085157600080fd5b50610322610860366004614472565b611e47565b34801561087157600080fd5b50610322610880366004614472565b61200c565b34801561089157600080fd5b5061036f6108a0366004614d4e565b612182565b3480156108b157600080fd5b5061036f6108c0366004614da6565b612199565b3480156108d157600080fd5b5061036f612364565b3480156108e657600080fd5b506103496108f5366004614472565b50600090565b34801561090757600080fd5b5061036f610916366004614472565b612389565b34801561092757600080fd5b506103b2604051806040016040528060058152602001640352e302e360dc1b81525081565b34801561095857600080fd5b50600061036f565b34801561096c57600080fd5b5061041761097b366004614de8565b63bc197c8160e01b95945050505050565b34801561099857600080fd5b5061036f6109a7366004614472565b6123b8565b6103226109ba366004614e7b565b61240c565b3480156109cb57600080fd5b5061036f6109da3660046147a5565b61248c565b3480156109eb57600080fd5b506040805180820190915260208082527f737570706f72743d627261766f2671756f72756d3d666f722c6162737461696e908201526103b2565b348015610a3157600080fd5b5061036f7ff2aad550cf55f045cb27e9c559f9889fdfb6e6cdaa032301d6ea397784ae51d781565b348015610a6557600080fd5b5061036f610a74366004614ebe565b6124c6565b348015610a8557600080fd5b5061036f610a94366004614eea565b6124e7565b348015610aa557600080fd5b5061036f610ab4366004614f0c565b612651565b348015610ac557600080fd5b50610417610ad4366004614f3c565b63f23a6e6160e01b95945050505050565b348015610af157600080fd5b50610322610b00366004614bab565b6127ea565b348015610b1157600080fd5b50610322610b20366004614472565b612825565b348015610b3157600080fd5b5061036f610b40366004614472565b6129d7565b348015610b5157600080fd5b506103df6129e2565b60006001600160e01b031982166332a2ad4360e11b1480610b8b57506001600160e01b03198216630271189760e51b145b80610ba657506301ffc9a760e01b6001600160e01b03198316145b92915050565b610bb4612a0b565b610bbd81612a4f565b50565b60606000610bcc612aea565b9050806000018054610bdd90614fa4565b80601f0160208091040260200160405190810160405280929190818152602001828054610c0990614fa4565b8015610c565780601f10610c2b57610100808354040283529160200191610c56565b820191906000526020600020905b815481529060010190602001808311610c3957829003601f168201915b505050505091505090565b600080610c6c612aea565b6000938452600101602052505060409020546001600160a01b031690565b600080610c95612aea565b90506000610ca58787878761248c565b9050610cba81610cb56004612b0e565b612b31565b506000604051634844252360e11b815260040160405180910390fd5b509695505050505050565b6000610ceb612b70565b600083815260028201602052604090205490915060ff16610d275760405162461bcd60e51b8152600401610d1e90614fde565b60405180910390fd5b60036000838152600283016020526040902054610100900460ff166004811115610d5357610d53614834565b14610d705760405162461bcd60e51b8152600401610d1e90615025565b60408051600180825281830190925260009160208083019080368337505050600183015481519192506001600160a01b0316908290600090610db457610db461506e565b6001600160a01b039290921660209283029190910190910152604080516001808252818301909252600091816020016020820280368337019050509050600081600081518110610e0657610e0661506e565b6020908102919091010152604080516001808252818301909252600091816020015b6060815260200190600190039081610e2857905050600086815260028601602052604090819020549051919250610e7291620100009091046001600160a01b0316906024016144ee565b60408051601f198184030181529190526020810180516001600160e01b031663e429cef160e01b17905281518290600090610eaf57610eaf61506e565b6020026020010181905250610ede8383838760020160008a8152602001908152602001600020600201546110b0565b505050505050565b6000610ef0612b70565b600083815260028201602052604090205490915060ff16610f235760405162461bcd60e51b8152600401610d1e90614fde565b60016000838152600283016020526040902054610100900460ff166004811115610f4f57610f4f614834565b14610f6c5760405162461bcd60e51b8152600401610d1e90615025565b604080516001808252818301909252600091602080830190803683375050835482519293506001600160a01b031691839150600090610fad57610fad61506e565b6001600160a01b039290921660209283029190910190910152604080516001808252818301909252600091816020016020820280368337019050509050600081600081518110610fff57610fff61506e565b6020908102919091010152604080516001808252818301909252600091816020015b6060815260200190600190039081611021579050506000868152600286016020526040908190208054600190910154915192935061107392620100009091046001600160a01b03169190602401615084565b60408051601f198184030181529190526020810180516001600160e01b0316633e633c1f60e21b17905281518290600090610eaf57610eaf61506e565b6000806110bb612aea565b905060006110cb8787878761248c565b90506110eb816110db6005612b0e565b6110e56004612b0e565b17612b31565b5060008181526001830160205260409020805460ff60f01b1916600160f01b179055306111153090565b6001600160a01b0316146111a15760005b875181101561119f57306001600160a01b031688828151811061114b5761114b61506e565b60200260200101516001600160a01b031603611197576111978682815181106111765761117661506e565b60200260200101518051906020012084600201612b9490919063ffffffff16565b600101611126565b505b6111ae8188888888612c05565b6040518181527f712ae1383f79ac853f8d882153778e0260ef8f03b504e2866e0593e04d2b291f906020015b60405180910390a19695505050505050565b6000806111f7612aea565b600093845260010160205250506040902054600160a01b900465ffffffffffff1690565b600080611226612aea565b6000848152600182016020526040902080549192509060ff600160f01b8204811691600160f81b90041681156112625750600795945050505050565b80156112745750600295945050505050565b600061127f876111ec565b9050806000036112a557604051636ad0607560e01b815260048101889052602401610d1e565b65ffffffffffff42168082106112c357506000979650505050505050565b60006112ce896123b8565b90508181106112e65750600198975050505050505050565b6112ef89612cd7565b158061130157506112ff89612d1f565b155b156113155750600398975050505050505050565b61131e89612389565b6000036113345750600498975050505050505050565b50600598975050505050505050565b60008061134e612d44565b6000858152602091825260408082206001600160a01b0387168352600301909252205460ff1691505092915050565b60008061138c8686868661248c565b905061139c81610cb56000612b0e565b506113a681610c61565b6001600160a01b0316336001600160a01b0316146113d9573360405163233d98e360e01b8152600401610d1e91906144ee565b6113e586868686612d68565b9695505050505050565b6113f7612e27565b61140082612ecc565b61140a8282612ed4565b5050565b6000611418612f8d565b506000805160206156b083398151915290565b600080600080611439612d44565b6000958652602052505060409092208054600182015460029092015490949193509150565b6040805180820190915260018152603160f81b602082015290565b60008033905061149a84828560405180602001604052806000815250612fd6565b949350505050565b6000806114ad612b70565b90506001600160a01b0384166114d55760405162461bcd60e51b8152600401610d1e9061509d565b60408051600180825281830190925260009160208083019080368337505050600183015481519192506001600160a01b03169082906000906115195761151961506e565b6001600160a01b03929092166020928302919091019091015260408051600180825281830190925260009181602001602082028036833701905050905060008160008151811061156b5761156b61506e565b6020908102919091010152604080516001808252818301909252600091816020015b606081526020019060019003908161158d579050509050866040516024016115b591906144ee565b60408051601f198184030181529190526020810180516001600160e01b031663e6116cfd60e01b179052815182906000906115f2576115f261506e565b60200260200101819052506116098383838961190a565b600081815260028681016020908152604080842080546001600160a01b038e1662010000026001600160b01b0319909116176104011781558b51928c01929092209190920155519196506000805160206156d08339815191529161167691889160049133918d91906150f8565b60405180910390a15050505092915050565b60008061174d876117477f3e83946653575f9a39005e1545185629e92736b7528ab20ca3816f315424a8118c8c8c6116bf8e613002565b8d8d6040516116cf929190615134565b60405180910390208c8051906020012060405160200161172c9796959493929190968752602087019590955260ff9390931660408601526001600160a01b03919091166060850152608084015260a083015260c082015260e00190565b60405160208183030381529060405280519060200120613044565b85613071565b90508061176f57866040516394ab6c0760e01b8152600401610d1e91906144ee565b6117b389888a89898080601f0160208091040260200160405190810160405280939291908181526020018383808284376000920191909152508b92506130c9915050565b9998505050505050505050565b60008033905061180a87828888888080601f0160208091040260200160405190810160405280939291908181526020018383808284376000920191909152508a92506130c9915050565b979650505050505050565b6000806118206131a6565b805490915060008261183360018461515a565b815481106118435761184361506e565b6000918252602090912001805490915065ffffffffffff811690600160301b90046001600160d01b0316868211611887576001600160d01b03169695505050505050565b61189a611893886131ca565b8690613201565b6001600160d01b0316979650505050505050565b6118b66132b6565b6118c060006132e8565b565b6000803390506113e586828787878080601f016020809104026020016040519081016040528093929190818152602001838380828437600092019190915250612fd692505050565b6000336119178184613359565b611936578060405163d9b3955760e01b8152600401610d1e91906144ee565b60006119548261194760014261516d565b65ffffffffffff166124c6565b905060006119658888888887613444565b98975050505050505050565b6000606080600080600060606000611987613649565b805490915015801561199b57506001810154155b6119df5760405162461bcd60e51b81526020600482015260156024820152741152540dcc4c8e88155b9a5b9a5d1a585b1a5e9959605a1b6044820152606401610d1e565b6119e761366d565b6119ef61368a565b60408051600080825260208201909252600f60f81b9c939b5091995046985030975095509350915050565b6000807f9016d09d72d40fdae2fd8ceac6b6234c7706214fd39c1cd1e609a0528c1993005b546001600160a01b031692915050565b600080611abd846117477ff2aad550cf55f045cb27e9c559f9889fdfb6e6cdaa032301d6ea397784ae51d7898989611a868b613002565b60408051602081019690965285019390935260ff90911660608401526001600160a01b0316608083015260a082015260c00161172c565b905080611adf57836040516394ab6c0760e01b8152600401610d1e91906144ee565b6113e586858760405180602001604052806000815250612fd6565b7ff0c57e16840df040f15088dc2f81fe391c3923bec73e23a9662efc9c229c6a008054600160401b810460ff1615906001600160401b0316600081158015611b3f5750825b90506000826001600160401b03166001148015611b5b5750303b155b905081158015611b69575080155b15611b875760405163f92ee8a960e01b815260040160405180910390fd5b845467ffffffffffffffff191660011785558315611bb157845460ff60401b1916600160401b1785555b611bba896136a7565b611bc26136c9565b611bcb8a6136d1565b611bd560016136e2565b611bde886136f3565b611be66136c9565b6000611bf0612b70565b80546001600160a01b03808b166001600160a01b031992831617835560019092018054928a1692909116919091179055508315611c6757845460ff60401b19168555604051600181527fc7f505b2f371ae2175ee4913f4499e1f2633a7b5936321eed1cdaeb6115181d29060200160405180910390a15b50505050505050505050565b600080611c7e612b70565b90506001600160a01b038416611ca65760405162461bcd60e51b8152600401610d1e9061509d565b60408051600180825281830190925260009160208083019080368337505050600183015481519192506001600160a01b0316908290600090611cea57611cea61506e565b6001600160a01b039290921660209283029190910190910152604080516001808252818301909252600091816020016020820280368337019050509050600081600081518110611d3c57611d3c61506e565b6020908102919091010152604080516001808252818301909252600091816020015b6060815260200190600190039081611d5e57905050905086604051602401611d8691906144ee565b60408051601f198184030181529190526020810180516001600160e01b031663e429cef160e01b17905281518290600090611dc357611dc361506e565b6020026020010181905250611dda8383838961190a565b600081815260028681016020908152604080842080546001600160a01b038e1662010000026001600160b01b0319909116176103011781558b51928c01929092209190920155519196506000805160206156d08339815191529161167691889160039133918d91906150f8565b6000611e51612b70565b600083815260028201602052604090205490915060ff16611e845760405162461bcd60e51b8152600401610d1e90614fde565b60046000838152600283016020526040902054610100900460ff166004811115611eb057611eb0614834565b14611ecd5760405162461bcd60e51b8152600401610d1e90615025565b60408051600180825281830190925260009160208083019080368337505050600183015481519192506001600160a01b0316908290600090611f1157611f1161506e565b6001600160a01b039290921660209283029190910190910152604080516001808252818301909252600091816020016020820280368337019050509050600081600081518110611f6357611f6361506e565b6020908102919091010152604080516001808252818301909252600091816020015b6060815260200190600190039081611f8557905050600086815260028601602052604090819020549051919250611fcf91620100009091046001600160a01b0316906024016144ee565b60408051601f198184030181529190526020810180516001600160e01b031663e6116cfd60e01b17905281518290600090610eaf57610eaf61506e565b6000612016612b70565b600083815260028201602052604090205490915060ff166120495760405162461bcd60e51b8152600401610d1e90614fde565b600080838152600283016020526040902054610100900460ff16600481111561207457612074614834565b146120915760405162461bcd60e51b8152600401610d1e90615025565b60408051600180825281830190925260009160208083019080368337505060408051600180825281830190925292935060009291506020808301908036833750506040805160018082528183019092529293506000929150602082015b60608152602001906001900390816120ee57905050905060008360008151811061211a5761211a61506e565b60200260200101906001600160a01b031690816001600160a01b03168152505060008260008151811061214f5761214f61506e565b602090810291909101810191909152604080516000808252928101909152905081600081518110610eaf57610eaf61506e565b600061218f848484613704565b90505b9392505050565b6000806121a4612b70565b60408051600180825281830190925291925060009190602080830190803683375050835482519293506001600160a01b0316918391506000906121e9576121e961506e565b6001600160a01b03929092166020928302919091019091015260408051600180825281830190925260009181602001602082028036833701905050905060008160008151811061223b5761223b61506e565b6020908102919091010152604080516001808252818301909252600091816020015b606081526020019060019003908161225d5790505090508688604051602401612287929190615084565b60408051601f198184030181529190526020810180516001600160e01b0316633e633c1f60e21b179052815182906000906122c4576122c461506e565b60200260200101819052506122db8383838961190a565b60008181526002868101602090815260409283902080546001600160a01b038d1662010000026001600160b01b03199091161761010117815560018082018e90558b51928c019290922092019190915590519196506000805160206156d08339815191529161235191889133908c908e906150f8565b60405180910390a1505050509392505050565b60008061236f6131a6565b905061237a8161377c565b6001600160d01b031691505090565b600080612394612aea565b6000938452600190810160205260409093209092015465ffffffffffff1692915050565b6000806123c3612aea565b60008481526001820160205260409020549091506123fd90600160d01b810463ffffffff1690600160a01b900465ffffffffffff16615193565b65ffffffffffff169392505050565b612414612a0b565b600080856001600160a01b0316858585604051612432929190615134565b60006040518083038185875af1925050503d806000811461246f576040519150601f19603f3d011682016040523d82523d6000602084013e612474565b606091505b509150915061248382826137b5565b50505050505050565b6000848484846040516020016124a59493929190615246565b60408051601f19818403018152919052805160209091012095945050505050565b600061219283836124e260408051602081019091526000815290565b613704565b6000806124f2612b70565b6040805160018082528183019092529192506000919060208083019080368337505060408051600180825281830190925292935060009291506020808301908036833750506040805160018082528183019092529293506000929150602082015b606081526020019060019003908161255357905050905060008360008151811061257f5761257f61506e565b60200260200101906001600160a01b031690816001600160a01b0316815250506000826000815181106125b4576125b461506e565b6020908102919091018101919091526040805160008082529281019091529050816000815181106125e7576125e761506e565b60200260200101819052506125fe8383838961190a565b6000818152600286810160209081526040808420805461ffff191660011781558b51928c01929092209190920155519196506000805160206156d0833981519152916116769188913390829081906150f8565b60008061265c612b70565b60408051600180825281830190925291925060009190602080830190803683375050835482519293506001600160a01b0316918391506000906126a1576126a161506e565b6001600160a01b0392909216602092830291909101909101526040805160018082528183019092526000918160200160208202803683370190505090506000816000815181106126f3576126f361506e565b6020908102919091010152604080516001808252818301909252600091816020015b60608152602001906001900390816127155750506040516024810189905290915060440160408051601f198184030181529190526020810180516001600160e01b0316638c4a381560e01b179052815182906000906127765761277661506e565b602002602001018190525061278d8383838961190a565b6000818152600286810160209081526040808420805461ffff1916610201178155600181018d90558b51928c019290922091830191909155519297506000805160206156d083398151915292611676928992913391908d906150f8565b6127f26132b6565b6001600160a01b03811661281c576000604051631e4fbdf760e01b8152600401610d1e91906144ee565b610bbd816132e8565b600061282f612b70565b600083815260028201602052604090205490915060ff166128625760405162461bcd60e51b8152600401610d1e90614fde565b60026000838152600283016020526040902054610100900460ff16600481111561288e5761288e614834565b146128ab5760405162461bcd60e51b8152600401610d1e90615025565b604080516001808252818301909252600091602080830190803683375050835482519293506001600160a01b0316918391506000906128ec576128ec61506e565b6001600160a01b03929092166020928302919091019091015260408051600180825281830190925260009181602001602082028036833701905050905060008160008151811061293e5761293e61506e565b6020908102919091010152604080516001808252818301909252600091816020015b6060815260200190600190039081612960575050600086815260028601602052604090819020600101549051602481019190915290915060440160408051601f198184030181529190526020810180516001600160e01b0316638c4a381560e01b17905281518290600090610eaf57610eaf61506e565b6000610ba6826137d1565b6000807f3ba4977254e415696610a40ebf2258dbfa0ec6a2ff64e84bfe715ff16977cc00611a3f565b6000612a15612aea565b9050303314610bbd57336040516347096e4760e01b8152600401610d1e91906144ee565b80612a4683600201613868565b03612a39575050565b6000612a596131a6565b9050606480831115612a885760405163243e544560e01b81526004810184905260248101829052604401610d1e565b6000612a92612364565b9050612aa942612aa1866138dd565b859190613911565b505060408051828152602081018690527f0553476bf02ef2726e8ce5ced78d63e26e602e4a2257b1f559418e24b4633997910160405180910390a150505050565b7f7c712897014dbe49c045ef1299aa2d5f9e67e48eea4403efa21f1e0f3ac0cb0090565b6000816007811115612b2257612b22614834565b600160ff919091161b92915050565b600080612b3d8461121b565b9050600083612b4b83612b0e565b1603612192578381846040516331b75e4d60e01b8152600401610d1e93929190615291565b7f72a4ccd47996c0aa9e54efd606e03b13bee57794bd0974b6dda8fcd457f3770090565b81546001600160801b03600160801b820481169181166001830190911603612bcf57604051638acb5f2760e01b815260040160405180910390fd5b6001600160801b03808216600090815260018086016020526040909120939093558354919092018216600160801b029116179055565b60005b8451811015610ede57600080868381518110612c2657612c2661506e565b60200260200101516001600160a01b0316868481518110612c4957612c4961506e565b6020026020010151868581518110612c6357612c6361506e565b6020026020010151604051612c7891906152b3565b60006040518083038185875af1925050503d8060008114612cb5576040519150601f19603f3d011682016040523d82523d6000602084013e612cba565b606091505b5091509150612cc982826137b5565b505050806001019050612c08565b600080612ce2612d44565b6000848152602082905260409020600281015460018201549293509091612d0991906152cf565b612d15610b40866111ec565b1115949350505050565b600080612d2a612d44565b600093845260205250506040902080546001909101541190565b7fa1cefa0f43667ef127a258e673c94202a79b656e62899531c4376d87a7f3980090565b600080612d73612aea565b90506000612d838787878761248c565b9050612dd181612d936007612b0e565b612d9d6006612b0e565b612da76002612b0e565b6001612db46007826152e2565b612dbf9060026153df565b612dc9919061515a565b181818612b31565b5060008181526001830160205260409081902080546001600160f81b0316600160f81b179055517f789cf55be980739dad1d0699b93b58e806b51c9d96619bfa8fe0a28abaa7b30c906111da9083815260200190565b306001600160a01b037f0000000000000000000000000000000000000000000000000000000000000000161480612eae57507f00000000000000000000000000000000000000000000000000000000000000006001600160a01b0316612ea26000805160206156b0833981519152546001600160a01b031690565b6001600160a01b031614155b156118c05760405163703e46dd60e11b815260040160405180910390fd5b610bbd6132b6565b816001600160a01b03166352d1902d6040518163ffffffff1660e01b8152600401602060405180830381865afa925050508015612f2e575060408051601f3d908101601f19168201909252612f2b918101906153ee565b60015b612f4d5781604051634c9c8ce360e01b8152600401610d1e91906144ee565b6000805160206156b08339815191528114612f7e57604051632a87526960e21b815260048101829052602401610d1e565b612f88838361392c565b505050565b306001600160a01b037f000000000000000000000000000000000000000000000000000000000000000016146118c05760405163703e46dd60e11b815260040160405180910390fd5b6000612ff985858585612ff460408051602081019091526000815290565b6130c9565b95945050505050565b6001600160a01b031660009081527f5ab42ced628888259c08ac98db1eb0cf702fc1501344311d8b100cd1bfe4bb006020526040902080546001810190915590565b6000610ba6613051613982565b8360405161190160f01b8152600281019290925260228201526042902090565b60008060006130808585613991565b509092509050600081600381111561309a5761309a614834565b1480156130b85750856001600160a01b0316826001600160a01b0316145b806113e557506113e58686866139de565b60006130d986610cb56001612b0e565b5060006130ef866130e9896111ec565b85613704565b90506130fe8787878487613ab9565b825160000361315357856001600160a01b03167fb8e138887d0aa13bab447e82de9d5c1777041ecd21ca36ba824ff1e6c07ddda4888784886040516131469493929190615407565b60405180910390a26113e5565b856001600160a01b03167fe2babfbac5889a709b63bb7f598b324e08bc5a4fb9ec647fb3cbc9ec07eb8712888784888860405161319495949392919061542f565b60405180910390a29695505050505050565b7fe770710421fd2cad75ad828c61aa98f2d77d423a440b67872d0f65554148e00090565b600065ffffffffffff8211156131fd576040516306dfcc6560e41b81526030600482015260248101839052604401610d1e565b5090565b81546000908181600581111561326057600061321c84613bb5565b613226908561515a565b60008881526020902090915081015465ffffffffffff90811690871610156132505780915061325e565b61325b8160016152cf565b92505b505b600061326e87878585613c9d565b905080156132a9576132938761328560018461515a565b600091825260209091200190565b54600160301b90046001600160d01b031661180a565b6000979650505050505050565b336132bf611a1a565b6001600160a01b0316146118c0573360405163118cdaa760e01b8152600401610d1e91906144ee565b7f9016d09d72d40fdae2fd8ceac6b6234c7706214fd39c1cd1e609a0528c19930080546001600160a01b031981166001600160a01b03848116918217845560405192169182907f8be0079c531659141344cd1fd0a4f28419497f9722a3daafe3b4186f6b6457e090600090a3505050565b80516000906034811015613371576001915050610ba6565b82810160131901516001600160a01b031981166b046e0e4dee0dee6cae47a60f60a31b146133a457600192505050610ba6565b6000806133b260288561515a565b90505b83811015613423576000806133e98884815181106133d5576133d561506e565b01602001516001600160f81b031916613cff565b91509150816134015760019650505050505050610ba6565b8060ff166004856001600160a01b0316901b17935050508060010190506133b5565b50856001600160a01b0316816001600160a01b031614935050505092915050565b60008061344f612aea565b9050613464878787878051906020012061248c565b91508551875114158061347957508451875114155b8061348357508651155b156134b857865185518751604051630447b05d60e41b8152600481019390935260248301919091526044820152606401610d1e565b6000828152600182016020526040902054600160a01b900465ffffffffffff161561350557816134e78361121b565b6040516331b75e4d60e01b8152610d1e929190600090600401615291565b6000613512603c426152cf565b90506000610e106000858152600185016020526040902080546001600160a01b0319166001600160a01b03881617815590915061354e836131ca565b815465ffffffffffff91909116600160a01b0265ffffffffffff60a01b1990911617815561357b82613d91565b815463ffffffff91909116600160d01b0263ffffffff60d01b1990911617815589517f7d84a6263ae0d98d3329bd7b46bb4e8d6f98cd35a7adb45c274c8b7fd5ebd5e090869088908d908d906001600160401b038111156135de576135de614517565b60405190808252806020026020018201604052801561361157816020015b60608152602001906001900390816135fc5790505b508d8961361e8a826152cf565b8f60405161363499989796959493929190615469565b60405180910390a15050505095945050505050565b7fa16a46d94261c7517cc8ff89f61c0ce93598e3c849801011dee649a6a557d10090565b60606000613679613649565b9050806002018054610bdd90614fa4565b60606000613696613649565b9050806003018054610bdd90614fa4565b6136af613dc2565b6136c0816136bb61145e565b613e0b565b610bbd81613e4c565b6118c0613dc2565b6136d9613dc2565b610bbd81613e6b565b6136ea613dc2565b610bbd81613eb4565b6136fb613dc2565b610bbd81613ebc565b600061370e6129e2565b6001600160a01b0316633a46b1a885856040518363ffffffff1660e01b815260040161373b929190615084565b602060405180830381865afa158015613758573d6000803e3d6000fd5b505050506040513d601f19601f8201168201806040525081019061218f91906153ee565b805460009080156137ac576137968361328560018461515a565b54600160301b90046001600160d01b0316612192565b60009392505050565b6060826137ca576137c582613ec4565b610ba6565b5080610ba6565b600060646137de83611815565b6137e66129e2565b6001600160a01b0316638e539e8c856040518263ffffffff1660e01b815260040161381391815260200190565b602060405180830381865afa158015613830573d6000803e3d6000fd5b505050506040513d601f19601f8201168201806040525081019061385491906153ee565b61385e9190615540565b610ba6919061556d565b80546000906001600160801b0380821691600160801b90041681036138a0576040516375e52f4f60e01b815260040160405180910390fd5b6001600160801b038181166000908152600185810160205260408220805492905585546001600160801b0319169301909116919091179092555090565b60006001600160d01b038211156131fd576040516306dfcc6560e41b815260d0600482015260248101839052604401610d1e565b60008061391f858585613eed565b915091505b935093915050565b61393582614067565b6040516001600160a01b038316907fbc7cd75a20ee27fd9adebab32041f755214dbc6bffa90cc0225b39da2e5c2d3b90600090a280511561397a57612f8882826140c3565b61140a614130565b600061398c61414f565b905090565b600080600083516041036139cb5760208401516040850151606086015160001a6139bd888285856141c3565b9550955095505050506139d7565b50508151600091506002905b9250925092565b6000806000856001600160a01b03168585604051602401613a0092919061558f565b60408051601f198184030181529181526020820180516001600160e01b0316630b135d3f60e11b17905251613a3591906152b3565b600060405180830381855afa9150503d8060008114613a70576040519150601f19603f3d011682016040523d82523d6000602084013e613a75565b606091505b5091509150818015613a8957506020815110155b80156113e557508051630b135d3f60e11b90613aae90830160209081019084016153ee565b149695505050505050565b6000613ac3612d44565b6000878152602082815260408083206001600160a01b038a16845260038101909252909120549192509060ff1615613b1057856040516371c6af4960e01b8152600401610d1e91906144ee565b6001600160a01b03861660009081526003820160205260409020805460ff1916600117905560ff8516613b5c5783816000016000828254613b5191906152cf565b909155506124839050565b60001960ff861601613b7c5783816001016000828254613b5191906152cf565b60011960ff861601613b9c5783816002016000828254613b5191906152cf565b6040516303599be160e11b815260040160405180910390fd5b600081600003613bc757506000919050565b60006001613bd484614288565b901c6001901b90506001818481613bed57613bed615557565b048201901c90506001818481613c0557613c05615557565b048201901c90506001818481613c1d57613c1d615557565b048201901c90506001818481613c3557613c35615557565b048201901c90506001818481613c4d57613c4d615557565b048201901c90506001818481613c6557613c65615557565b048201901c90506001818481613c7d57613c7d615557565b048201901c905061219281828581613c9757613c97615557565b0461431c565b60005b81831015613cf7576000613cb48484614332565b60008781526020902090915065ffffffffffff86169082015465ffffffffffff161115613ce357809250613cf1565b613cee8160016152cf565b93505b50613ca0565b509392505050565b60008060f883901c602f81118015613d1a5750603a8160ff16105b15613d2f57600194602f199091019350915050565b8060ff166040108015613d45575060478160ff16105b15613d5a576001946036199091019350915050565b8060ff166060108015613d70575060678160ff16105b15613d85576001946056199091019350915050565b50600093849350915050565b600063ffffffff8211156131fd576040516306dfcc6560e41b81526020600482015260248101839052604401610d1e565b7ff0c57e16840df040f15088dc2f81fe391c3923bec73e23a9662efc9c229c6a0054600160401b900460ff166118c057604051631afcd79f60e31b815260040160405180910390fd5b613e13613dc2565b6000613e1d613649565b905060028101613e2d84826155f0565b5060038101613e3c83826155f0565b5060008082556001909101555050565b613e54613dc2565b6000613e5e612aea565b905080612f8883826155f0565b613e73613dc2565b7f3ba4977254e415696610a40ebf2258dbfa0ec6a2ff64e84bfe715ff16977cc0080546001600160a01b0319166001600160a01b0392909216919091179055565b610bb4613dc2565b6127f2613dc2565b805115613ed45780518082602001fd5b604051630a12f52160e11b815260040160405180910390fd5b82546000908190801561400c576000613f0b8761328560018561515a565b60408051808201909152905465ffffffffffff808216808452600160301b9092046001600160d01b031660208401529192509087161015613f5f57604051632520601d60e01b815260040160405180910390fd5b805165ffffffffffff808816911603613fab5784613f828861328560018661515a565b80546001600160d01b0392909216600160301b0265ffffffffffff909216919091179055613ffc565b6040805180820190915265ffffffffffff80881682526001600160d01b0380881660208085019182528b54600181018d5560008d81529190912094519151909216600160301b029216919091179101555b6020015192508391506139249050565b50506040805180820190915265ffffffffffff80851682526001600160d01b0380851660208085019182528854600181018a5560008a815291822095519251909316600160301b029190931617920191909155905081613924565b806001600160a01b03163b6000036140945780604051634c9c8ce360e01b8152600401610d1e91906144ee565b6000805160206156b083398151915280546001600160a01b0319166001600160a01b0392909216919091179055565b6060600080846001600160a01b0316846040516140e091906152b3565b600060405180830381855af49150503d806000811461411b576040519150601f19603f3d011682016040523d82523d6000602084013e614120565b606091505b5091509150612ff985838361434d565b34156118c05760405163b398979f60e01b815260040160405180910390fd5b60007f8b73c3c69bb8fe3d512ecc4cf759cc79239f7b179b0ffacaa9a75d522b39400f61417a6143a0565b614182614407565b60408051602081019490945283019190915260608201524660808201523060a082015260c00160405160208183030381529060405280519060200120905090565b600080806fa2a8918ca85bafe22016d0b997e4df60600160ff1b038411156141f4575060009150600390508261427e565b604080516000808252602082018084528a905260ff891692820192909252606081018790526080810186905260019060a0016020604051602081039080840390855afa158015614248573d6000803e3d6000fd5b5050604051601f1901519150506001600160a01b0381166142745750600092506001915082905061427e565b9250600091508190505b9450945094915050565b600080608083901c1561429d57608092831c92015b604083901c156142af57604092831c92015b602083901c156142c157602092831c92015b601083901c156142d357601092831c92015b600883901c156142e557600892831c92015b600483901c156142f757600492831c92015b600283901c1561430957600292831c92015b600183901c15610ba65760010192915050565b600081831061432b5781612192565b5090919050565b6000614341600284841861556d565b612192908484166152cf565b6060826143625761435d82613ec4565b612192565b815115801561437957506001600160a01b0384163b155b156143995783604051639996b31560e01b8152600401610d1e91906144ee565b5080612192565b6000806143ab613649565b905060006143b761366d565b8051909150156143cf57805160209091012092915050565b815480156143de579392505050565b7fc5d2460186f7233c927e7db2dcc703c0e500b653ca82273b7bfad8045d85a470935050505090565b600080614412613649565b9050600061441e61368a565b80519091501561443657805160209091012092915050565b600182015480156143de579392505050565b60006020828403121561445a57600080fd5b81356001600160e01b03198116811461219257600080fd5b60006020828403121561448457600080fd5b5035919050565b60005b838110156144a657818101518382015260200161448e565b50506000910152565b600081518084526144c781602086016020860161448b565b601f01601f19169290920160200192915050565b60208152600061219260208301846144af565b6001600160a01b0391909116815260200190565b6001600160a01b0381168114610bbd57600080fd5b634e487b7160e01b600052604160045260246000fd5b604051601f8201601f191681016001600160401b038111828210171561455557614555614517565b604052919050565b600082601f83011261456e57600080fd5b81356001600160401b0381111561458757614587614517565b61459a601f8201601f191660200161452d565b8181528460208386010111156145af57600080fd5b816020850160208301376000918101602001919091529392505050565b600080600080608085870312156145e257600080fd5b84356145ed81614502565b935060208501356145fd81614502565b92506040850135915060608501356001600160401b0381111561461f57600080fd5b61462b8782880161455d565b91505092959194509250565b60006001600160401b0382111561465057614650614517565b5060051b60200190565b600082601f83011261466b57600080fd5b8135602061468061467b83614637565b61452d565b8083825260208201915060208460051b8701019350868411156146a257600080fd5b602086015b84811015610cd65780356146ba81614502565b83529183019183016146a7565b600082601f8301126146d857600080fd5b813560206146e861467b83614637565b8083825260208201915060208460051b87010193508684111561470a57600080fd5b602086015b84811015610cd6578035835291830191830161470f565b600082601f83011261473757600080fd5b8135602061474761467b83614637565b82815260059290921b8401810191818101908684111561476657600080fd5b8286015b84811015610cd65780356001600160401b038111156147895760008081fd5b6147978986838b010161455d565b84525091830191830161476a565b600080600080608085870312156147bb57600080fd5b84356001600160401b03808211156147d257600080fd5b6147de8883890161465a565b955060208701359150808211156147f457600080fd5b614800888389016146c7565b9450604087013591508082111561481657600080fd5b5061482387828801614726565b949793965093946060013593505050565b634e487b7160e01b600052602160045260246000fd5b6008811061485a5761485a614834565b9052565b60208101610ba6828461484a565b6000806040838503121561487f57600080fd5b82359150602083013561489181614502565b809150509250929050565b600080604083850312156148af57600080fd5b82356148ba81614502565b915060208301356001600160401b038111156148d557600080fd5b6148e18582860161455d565b9150509250929050565b803560ff811681146148fc57600080fd5b919050565b6000806040838503121561491457600080fd5b82359150614924602084016148eb565b90509250929050565b60008083601f84011261493f57600080fd5b5081356001600160401b0381111561495657600080fd5b60208301915083602082850101111561496e57600080fd5b9250929050565b600080600080600080600060c0888a03121561499057600080fd5b873596506149a0602089016148eb565b955060408801356149b081614502565b945060608801356001600160401b03808211156149cc57600080fd5b6149d88b838c0161492d565b909650945060808a01359150808211156149f157600080fd5b6149fd8b838c0161455d565b935060a08a0135915080821115614a1357600080fd5b50614a208a828b0161455d565b91505092959891949750929550565b600080600080600060808688031215614a4757600080fd5b85359450614a57602087016148eb565b935060408601356001600160401b0380821115614a7357600080fd5b614a7f89838a0161492d565b90955093506060880135915080821115614a9857600080fd5b50614aa58882890161455d565b9150509295509295909350565b60008060008060608587031215614ac857600080fd5b84359350614ad8602086016148eb565b925060408501356001600160401b03811115614af357600080fd5b614aff8782880161492d565b95989497509550505050565b60008060008060808587031215614b2157600080fd5b84356001600160401b0380821115614b3857600080fd5b614b448883890161465a565b95506020870135915080821115614b5a57600080fd5b614b66888389016146c7565b94506040870135915080821115614b7c57600080fd5b614b8888838901614726565b93506060870135915080821115614b9e57600080fd5b5061462b8782880161455d565b600060208284031215614bbd57600080fd5b813561219281614502565b60008151808452602080850194506020840160005b83811015614bf957815187529582019590820190600101614bdd565b509495945050505050565b60ff60f81b8816815260e060208201526000614c2360e08301896144af565b8281036040840152614c3581896144af565b606084018890526001600160a01b038716608085015260a0840186905283810360c08501529050614c668185614bc8565b9a9950505050505050505050565b60008060008060808587031215614c8a57600080fd5b84359350614c9a602086016148eb565b92506040850135614caa81614502565b915060608501356001600160401b0381111561461f57600080fd5b600080600080600060a08688031215614cdd57600080fd5b8535614ce881614502565b945060208601356001600160401b03811115614d0357600080fd5b614d0f8882890161455d565b9450506040860135614d2081614502565b92506060860135614d3081614502565b91506080860135614d4081614502565b809150509295509295909350565b600080600060608486031215614d6357600080fd5b8335614d6e81614502565b92506020840135915060408401356001600160401b03811115614d9057600080fd5b614d9c8682870161455d565b9150509250925092565b600080600060608486031215614dbb57600080fd5b833592506020840135614dcd81614502565b915060408401356001600160401b03811115614d9057600080fd5b600080600080600060a08688031215614e0057600080fd5b8535614e0b81614502565b94506020860135614e1b81614502565b935060408601356001600160401b0380821115614e3757600080fd5b614e4389838a016146c7565b94506060880135915080821115614e5957600080fd5b614e6589838a016146c7565b93506080880135915080821115614a9857600080fd5b60008060008060608587031215614e9157600080fd5b8435614e9c81614502565b93506020850135925060408501356001600160401b03811115614af357600080fd5b60008060408385031215614ed157600080fd5b8235614edc81614502565b946020939093013593505050565b60008060408385031215614efd57600080fd5b8235600181106148ba57600080fd5b60008060408385031215614f1f57600080fd5b8235915060208301356001600160401b038111156148d557600080fd5b600080600080600060a08688031215614f5457600080fd5b8535614f5f81614502565b94506020860135614f6f81614502565b9350604086013592506060860135915060808601356001600160401b03811115614f9857600080fd5b614aa58882890161455d565b600181811c90821680614fb857607f821691505b602082108103614fd857634e487b7160e01b600052602260045260246000fd5b50919050565b60208082526027908201527f4275696c64696e67476f7665726e616e63653a20696e76616c69642070726f706040820152661bdcd85b08125160ca1b606082015260800190565b60208082526029908201527f4275696c64696e67476f7665726e616e63653a20696e76616c69642070726f706040820152686f73616c207479706560b81b606082015260800190565b634e487b7160e01b600052603260045260246000fd5b6001600160a01b03929092168252602082015260400190565b6020808252602b908201527f4275696c64696e67476f7665726e616e63653a20496e76616c6964206175646960408201526a746f72206164647265737360a81b606082015260800190565b6005811061485a5761485a614834565b85815260a0810161510c60208301876150e8565b6001600160a01b03948516604083015292909316606084015260809092019190915292915050565b8183823760009101908152919050565b634e487b7160e01b600052601160045260246000fd5b81810381811115610ba657610ba6615144565b65ffffffffffff82811682821603908082111561518c5761518c615144565b5092915050565b65ffffffffffff81811683821601908082111561518c5761518c615144565b60008151808452602080850194506020840160005b83811015614bf95781516001600160a01b0316875295820195908201906001016151c7565b60008282518085526020808601955060208260051b8401016020860160005b8481101561523957601f198684030189526152278383516144af565b9884019892509083019060010161520b565b5090979650505050505050565b60808152600061525960808301876151b2565b828103602084015261526b8187614bc8565b9050828103604084015261527f81866151ec565b91505082606083015295945050505050565b838152606081016152a5602083018561484a565b826040830152949350505050565b600082516152c581846020870161448b565b9190910192915050565b80820180821115610ba657610ba6615144565b60ff8181168382160190811115610ba657610ba6615144565b600181815b8085111561533657816000190482111561531c5761531c615144565b8085161561532957918102915b93841c9390800290615300565b509250929050565b60008261534d57506001610ba6565b8161535a57506000610ba6565b8160018114615370576002811461537a57615396565b6001915050610ba6565b60ff84111561538b5761538b615144565b50506001821b610ba6565b5060208310610133831016604e8410600b84101617156153b9575081810a610ba6565b6153c383836152fb565b80600019048211156153d7576153d7615144565b029392505050565b600061219260ff84168361533e565b60006020828403121561540057600080fd5b5051919050565b84815260ff841660208201528260408201526080606082015260006113e560808301846144af565b85815260ff8516602082015283604082015260a06060820152600061545760a08301856144af565b828103608084015261196581856144af565b60006101208b8352602060018060a01b038c16818501528160408501526154928285018c6151b2565b915083820360608501526154a6828b614bc8565b915083820360808501528189518084528284019150828160051b850101838c0160005b838110156154f757601f198784030185526154e58383516144af565b948601949250908501906001016154c9565b505086810360a088015261550b818c6151ec565b9450505050508560c08401528460e084015282810361010084015261553081856144af565b9c9b505050505050505050505050565b8082028115828204841417610ba657610ba6615144565b634e487b7160e01b600052601260045260246000fd5b60008261558a57634e487b7160e01b600052601260045260246000fd5b500490565b82815260406020820152600061218f60408301846144af565b601f821115612f88576000816000526020600020601f850160051c810160208610156155d15750805b601f850160051c820191505b81811015610ede578281556001016155dd565b81516001600160401b0381111561560957615609614517565b61561d816156178454614fa4565b846155a8565b602080601f831160018114615652576000841561563a5750858301515b600019600386901b1c1916600185901b178555610ede565b600085815260208120601f198616915b8281101561568157888601518255948401946001909101908401615662565b508582101561569f5787850151600019600388901b60f8161c191681555b5050505050600190811b0190555056fe360894a13ba1a3210667c828492db98dca3e2076cc3735a920a3ca505d382bbca10c63e075db64b7ba9307d5a86ed168b50b42d1f4228392e575c41b030d180aa2646970667358221220361f1afd7c7420612635dd690c6769dfc51e940fc5064d7e987eeeb6c6378a8164736f6c63430008180033",
  "linkReferences": {},
  "deployedLinkReferences": {}
}