{
  "_format": "hh-sol-artifact-1",
  "contractName": "BuildingFactoryMock",
  "sourceName": "contracts/buildings/mock/BuildingFactoryMock.sol",
  "abi": [
    {
      "inputs": [],
      "name": "InvalidInitialization",
      "type": "error"
    },
    {
      "inputs": [],
      "name": "NotInitializing",
      "type": "error"
    },
    {
      "anonymous": false,
      "inputs": [
        {
          "indexed": false,
          "internalType": "uint64",
          "name": "version",
          "type": "uint64"
        }
      ],
      "name": "Initialized",
      "type": "event"
    },
    {
      "anonymous": false,
      "inputs": [
        {
          "indexed": false,
          "internalType": "address",
          "name": "buildingAddress",
          "type": "address"
        },
        {
          "indexed": false,
          "internalType": "address",
          "name": "erc3643Token",
          "type": "address"
        },
        {
          "indexed": false,
          "internalType": "address",
          "name": "treasury",
          "type": "address"
        },
        {
          "indexed": false,
          "internalType": "address",
          "name": "vault",
          "type": "address"
        },
        {
          "indexed": false,
          "internalType": "address",
          "name": "governance",
          "type": "address"
        },
        {
          "indexed": false,
          "internalType": "address",
          "name": "initialOwner",
          "type": "address"
        },
        {
          "indexed": false,
          "internalType": "address",
          "name": "autoCompounder",
          "type": "address"
        }
      ],
      "name": "NewBuilding",
      "type": "event"
    },
    {
      "inputs": [
        {
          "internalType": "address",
          "name": "building",
          "type": "address"
        },
        {
          "internalType": "address",
          "name": "module",
          "type": "address"
        },
        {
          "internalType": "bytes",
          "name": "callData",
          "type": "bytes"
        }
      ],
      "name": "addComplianceModule",
      "outputs": [],
      "stateMutability": "nonpayable",
      "type": "function"
    },
    {
      "inputs": [
        {
          "internalType": "address",
          "name": "wallet",
          "type": "address"
        }
      ],
      "name": "deployIdentityForWallet",
      "outputs": [
        {
          "internalType": "address",
          "name": "",
          "type": "address"
        }
      ],
      "stateMutability": "nonpayable",
      "type": "function"
    },
    {
      "inputs": [
        {
          "internalType": "address",
          "name": "buildingAddress",
          "type": "address"
        }
      ],
      "name": "getBuildingDetails",
      "outputs": [
        {
          "components": [
            {
              "internalType": "address",
              "name": "addr",
              "type": "address"
            },
            {
              "internalType": "uint256",
              "name": "nftId",
              "type": "uint256"
            },
            {
              "internalType": "string",
              "name": "tokenURI",
              "type": "string"
            },
            {
              "internalType": "address",
              "name": "identity",
              "type": "address"
            },
            {
              "internalType": "address",
              "name": "erc3643Token",
              "type": "address"
            },
            {
              "internalType": "address",
              "name": "treasury",
              "type": "address"
            },
            {
              "internalType": "address",
              "name": "governance",
              "type": "address"
            },
            {
              "internalType": "address",
              "name": "vault",
              "type": "address"
            },
            {
              "internalType": "address",
              "name": "autoCompounder",
              "type": "address"
            }
          ],
          "internalType": "struct BuildingFactoryStorage.BuildingDetails",
          "name": "",
          "type": "tuple"
        }
      ],
      "stateMutability": "view",
      "type": "function"
    },
    {
      "inputs": [],
      "name": "getBuildingList",
      "outputs": [
        {
          "components": [
            {
              "internalType": "address",
              "name": "addr",
              "type": "address"
            },
            {
              "internalType": "uint256",
              "name": "nftId",
              "type": "uint256"
            },
            {
              "internalType": "string",
              "name": "tokenURI",
              "type": "string"
            },
            {
              "internalType": "address",
              "name": "identity",
              "type": "address"
            },
            {
              "internalType": "address",
              "name": "erc3643Token",
              "type": "address"
            },
            {
              "internalType": "address",
              "name": "treasury",
              "type": "address"
            },
            {
              "internalType": "address",
              "name": "governance",
              "type": "address"
            },
            {
              "internalType": "address",
              "name": "vault",
              "type": "address"
            },
            {
              "internalType": "address",
              "name": "autoCompounder",
              "type": "address"
            }
          ],
          "internalType": "struct BuildingFactoryStorage.BuildingDetails[]",
          "name": "",
          "type": "tuple[]"
        }
      ],
      "stateMutability": "view",
      "type": "function"
    },
    {
      "inputs": [
        {
          "internalType": "address",
          "name": "wallet",
          "type": "address"
        }
      ],
      "name": "getIdentity",
      "outputs": [
        {
          "internalType": "contract IIdentity",
          "name": "",
          "type": "address"
        }
      ],
      "stateMutability": "view",
      "type": "function"
    },
    {
      "inputs": [
        {
          "internalType": "address",
          "name": "_nft",
          "type": "address"
        },
        {
          "internalType": "address",
          "name": "_uniswapRouter",
          "type": "address"
        },
        {
          "internalType": "address",
          "name": "_uniswapFactory",
          "type": "address"
        },
        {
          "internalType": "address",
          "name": "_onchainIdGateway",
          "type": "address"
        },
        {
          "internalType": "address",
          "name": "_trexGateway",
          "type": "address"
        },
        {
          "internalType": "address",
          "name": "_usdc",
          "type": "address"
        },
        {
          "internalType": "address",
          "name": "_buildingBeacon",
          "type": "address"
        },
        {
          "internalType": "address",
          "name": "_treasuryBeacon",
          "type": "address"
        },
        {
          "internalType": "address",
          "name": "_governanceBeacon",
          "type": "address"
        }
      ],
      "name": "initialize",
      "outputs": [],
      "stateMutability": "nonpayable",
      "type": "function"
    },
    {
      "inputs": [
        {
          "components": [
            {
              "internalType": "string",
              "name": "tokenURI",
              "type": "string"
            },
            {
              "internalType": "string",
              "name": "tokenName",
              "type": "string"
            },
            {
              "internalType": "string",
              "name": "tokenSymbol",
              "type": "string"
            },
            {
              "internalType": "uint8",
              "name": "tokenDecimals",
              "type": "uint8"
            },
            {
              "internalType": "uint256",
              "name": "tokenMintAmount",
              "type": "uint256"
            },
            {
              "internalType": "uint256",
              "name": "treasuryReserveAmount",
              "type": "uint256"
            },
            {
              "internalType": "uint256",
              "name": "treasuryNPercent",
              "type": "uint256"
            },
            {
              "internalType": "string",
              "name": "governanceName",
              "type": "string"
            },
            {
              "internalType": "string",
              "name": "vaultShareTokenName",
              "type": "string"
            },
            {
              "internalType": "string",
              "name": "vaultShareTokenSymbol",
              "type": "string"
            },
            {
              "internalType": "address",
              "name": "vaultFeeReceiver",
              "type": "address"
            },
            {
              "internalType": "address",
              "name": "vaultFeeToken",
              "type": "address"
            },
            {
              "internalType": "uint256",
              "name": "vaultFeePercentage",
              "type": "uint256"
            },
            {
              "internalType": "uint32",
              "name": "vaultCliff",
              "type": "uint32"
            },
            {
              "internalType": "uint32",
              "name": "vaultUnlockDuration",
              "type": "uint32"
            },
            {
              "internalType": "string",
              "name": "aTokenName",
              "type": "string"
            },
            {
              "internalType": "string",
              "name": "aTokenSymbol",
              "type": "string"
            }
          ],
          "internalType": "struct BuildingFactoryStorage.NewBuildingDetails",
          "name": "details",
          "type": "tuple"
        }
      ],
      "name": "newBuilding",
      "outputs": [
        {
          "components": [
            {
              "internalType": "address",
              "name": "addr",
              "type": "address"
            },
            {
              "internalType": "uint256",
              "name": "nftId",
              "type": "uint256"
            },
            {
              "internalType": "string",
              "name": "tokenURI",
              "type": "string"
            },
            {
              "internalType": "address",
              "name": "identity",
              "type": "address"
            },
            {
              "internalType": "address",
              "name": "erc3643Token",
              "type": "address"
            },
            {
              "internalType": "address",
              "name": "treasury",
              "type": "address"
            },
            {
              "internalType": "address",
              "name": "governance",
              "type": "address"
            },
            {
              "internalType": "address",
              "name": "vault",
              "type": "address"
            },
            {
              "internalType": "address",
              "name": "autoCompounder",
              "type": "address"
            }
          ],
          "internalType": "struct BuildingFactoryStorage.BuildingDetails",
          "name": "buildingDetails",
          "type": "tuple"
        }
      ],
      "stateMutability": "nonpayable",
      "type": "function"
    },
    {
      "inputs": [
        {
          "internalType": "address",
          "name": "buildingAddress",
          "type": "address"
        },
        {
          "internalType": "address",
          "name": "wallet",
          "type": "address"
        },
        {
          "internalType": "uint16",
          "name": "country",
          "type": "uint16"
        }
      ],
      "name": "registerIdentity",
      "outputs": [],
      "stateMutability": "nonpayable",
      "type": "function"
    },
    {
      "inputs": [],
      "name": "version",
      "outputs": [
        {
          "internalType": "string",
          "name": "",
          "type": "string"
        }
      ],
      "stateMutability": "pure",
      "type": "function"
    }
  ],
  "bytecode": "0x60806040523480156200001157600080fd5b506200001c62000022565b620000d6565b7ff0c57e16840df040f15088dc2f81fe391c3923bec73e23a9662efc9c229c6a00805468010000000000000000900460ff1615620000735760405163f92ee8a960e01b815260040160405180910390fd5b80546001600160401b0390811614620000d35780546001600160401b0319166001600160401b0390811782556040519081527fc7f505b2f371ae2175ee4913f4499e1f2633a7b5936321eed1cdaeb6115181d29060200160405180910390a15b50565b6133eb80620000e66000396000f3fe60806040523480156200001157600080fd5b50600436106200008e5760003560e01c80632fea7b8114620000935780633e8e6e8b14620000c2578063454a03e014620000d957806354fd4d5014620000f2578063665fa4a11462000119578063899a0ebe146200013f578063db652ec81462000156578063e891294c146200016f578063f5e95acb1462000186575b600080fd5b620000aa620000a4366004620023e8565b6200019d565b604051620000b9919062002408565b60405180910390f35b620000aa620000d3366004620023e8565b620002a7565b620000f0620000ea36600462002429565b62000335565b005b60408051808201825260038152620322e360ec1b60208201529051620000b99190620024c9565b620001306200012a366004620023e8565b620006a8565b604051620000b991906200259d565b6200013062000150366004620025b2565b620007f8565b6200016062000813565b604051620000b99190620025f0565b620000f06200018036600462002658565b62000992565b620000f062000197366004620026f2565b62000c1c565b600080620001aa62000d43565b905060008160040160009054906101000a90046001600160a01b03166001600160a01b03166378e751a66040518163ffffffff1660e01b8152600401602060405180830381865afa15801562000204573d6000803e3d6000fd5b505050506040513d601f19601f820116820180604052508101906200022a9190620027c1565b604051632fea7b8160e01b81529091506001600160a01b03821690632fea7b81906200025b90879060040162002408565b602060405180830381865afa15801562000279573d6000803e3d6000fd5b505050506040513d601f19601f820116820180604052508101906200029f9190620027c1565b949350505050565b600080620002b462000d43565b600480820154604051633e8e6e8b60e01b81529293506001600160a01b031691633e8e6e8b91620002e89187910162002408565b6020604051808303816000875af115801562000308573d6000803e3d6000fd5b505050506040513d601f19601f820116820180604052508101906200032e9190620027c1565b9392505050565b60006200034162000d43565b6001600160a01b038086166000908152600a8301602090815260408083208151610120810183528154909516855260018101549285019290925260028201805495965092949192908401916200039790620027e1565b80601f0160208091040260200160405190810160405280929190818152602001828054620003c590620027e1565b8015620004165780601f10620003ea5761010080835404028352916020019162000416565b820191906000526020600020905b815481529060010190602001808311620003f857829003601f168201915b505050918352505060038201546001600160a01b039081166020808401919091526004808501548316604080860191909152600586015484166060860152600686015484166080808701919091526007870154851660a0870152600890960154841660c09095019490945293850151878501548451633c73a8d360e11b81529451969750909560009591909316936378e751a693818301939290918290030181865afa158015620004cb573d6000803e3d6000fd5b505050506040513d601f19601f82011682018060405250810190620004f19190620027c1565b90506000826001600160a01b031663134e18f46040518163ffffffff1660e01b8152600401602060405180830381865afa15801562000534573d6000803e3d6000fd5b505050506040513d601f19601f820116820180604052508101906200055a9190620027c1565b90506000826001600160a01b0316632fea7b81896040518263ffffffff1660e01b81526004016200058c919062002408565b602060405180830381865afa158015620005aa573d6000803e3d6000fd5b505050506040513d601f19601f82011682018060405250810190620005d09190620027c1565b90506001600160a01b0381166200062e5760405162461bcd60e51b815260206004820152601d60248201527f4964656e7469747920666f722077616c6c6574206e6f7420666f756e6400000060448201526064015b60405180910390fd5b60405163022a501f60e51b81526001600160a01b038981166004830152828116602483015261ffff8916604483015283169063454a03e090606401600060405180830381600087803b1580156200068457600080fd5b505af115801562000699573d6000803e3d6000fd5b50505050505050505050505050565b620006b262002374565b6000620006be62000d43565b6001600160a01b038085166000908152600a83016020908152604091829020825161012081018452815490941684526001810154918401919091526002810180549495509293909291840191906200071690620027e1565b80601f01602080910402602001604051908101604052809291908181526020018280546200074490620027e1565b8015620007955780601f10620007695761010080835404028352916020019162000795565b820191906000526020600020905b8154815290600101906020018083116200077757829003601f168201915b505050918352505060038201546001600160a01b0390811660208301526004830154811660408301526005830154811660608301526006830154811660808301526007830154811660a083015260089092015490911660c0909101529392505050565b6200080262002374565b6200080d8262000d67565b92915050565b606060006200082162000d43565b6009810180546040805160208084028201810190925282815293945060009084015b828210156200098857600084815260209081902060408051610120810182526009860290920180546001600160a01b03168352600181015493830193909352600283018054929392918401916200089a90620027e1565b80601f0160208091040260200160405190810160405280929190818152602001828054620008c890620027e1565b8015620009195780601f10620008ed5761010080835404028352916020019162000919565b820191906000526020600020905b815481529060010190602001808311620008fb57829003601f168201915b505050918352505060038201546001600160a01b039081166020808401919091526004840154821660408401526005840154821660608401526006840154821660808401526007840154821660a08401526008909301541660c090910152908252600192909201910162000843565b5050505091505090565b60006200099e62000d43565b6001600160a01b038087166000908152600a83016020526040902060040154919250168062000a0b5760405162461bcd60e51b8152602060048201526018602482015277109d5a5b191a5b99c81d1bdad95b881b9bdd08199bdd5b9960421b604482015260640162000625565b336001600160a01b0316816001600160a01b0316638da5cb5b6040518163ffffffff1660e01b8152600401602060405180830381865afa15801562000a54573d6000803e3d6000fd5b505050506040513d601f19601f8201168201806040525081019062000a7a9190620027c1565b6001600160a01b03160362000ae15760405162461bcd60e51b815260206004820152602660248201527f4f6e6c79206275696c64696e67206f776e65722063616e2061646420636f6d706044820152656c69616e636560d01b606482015260840162000625565b6000816001600160a01b0316636290865d6040518163ffffffff1660e01b8152600401602060405180830381865afa15801562000b22573d6000803e3d6000fd5b505050506040513d601f19601f8201168201806040525081019062000b489190620027c1565b604051631ed86f1960e01b81529091506001600160a01b03821690631ed86f199062000b7990899060040162002408565b600060405180830381600087803b15801562000b9457600080fd5b505af115801562000ba9573d6000803e3d6000fd5b505060405163efb22d3360e01b81526001600160a01b038416925063efb22d33915062000bdf90889088908b9060040162002846565b600060405180830381600087803b15801562000bfa57600080fd5b505af115801562000c0f573d6000803e3d6000fd5b5050505050505050505050565b7ff0c57e16840df040f15088dc2f81fe391c3923bec73e23a9662efc9c229c6a008054600160401b810460ff1615906001600160401b031660008115801562000c625750825b90506000826001600160401b0316600114801562000c7f5750303b155b90508115801562000c8e575080155b1562000cad5760405163f92ee8a960e01b815260040160405180910390fd5b845467ffffffffffffffff19166001178555831562000cd857845460ff60401b1916600160401b1785555b62000ceb8e8e8e8e8e8e8e8e8e62001fa0565b831562000d3357845460ff60401b19168555604051600181527fc7f505b2f371ae2175ee4913f4499e1f2633a7b5936321eed1cdaeb6115181d2906020015b60405180910390a15b5050505050505050505050505050565b7f0f40dde8b99b0722537b774c6ef775b5e5a0af035d95bf9802cd87411f806f0090565b62000d7162002374565b600062000d7d62000d43565b604080516101408101825260006020808301829052828401829052606083018290526080830182905260a0830182905260c0830182905260e083018290526101008301919091523380835260018501546001600160a01b039081166101208501819052600387015460028801548751602481019390935283166044830152606480830194909452865180830390940184526084909101865292820180516001600160e01b031663c0c53b8b60e01b1790529351949550919392169162000e4390620023c1565b62000e5092919062002874565b604051809103906000f08015801562000e6d573d6000803e3d6000fd5b506001600160a01b039081166020808401919091526040805160a08101825284518416815260058601549093168383015273__$6bcf1faf5c0920414dc51cd0daeb07e0f7$__92633af9cf1e92909182019062000ecd908901896200289a565b8080601f01602080910402602001604051908101604052809392919081815260200183838082843760009201919091525050509082525060200162000f1660408901896200289a565b8080601f01602080910402602001604051908101604052809392919081815260200183838082843760009201919091525050509082525060200162000f626080890160608a01620028ea565b60ff168152506040518263ffffffff1660e01b815260040162000f8691906200290f565b602060405180830381865af415801562000fa4573d6000803e3d6000fd5b505050506040513d601f19601f8201168201806040525081019062000fca9190620027c1565b6001600160a01b039081166080838101919091526040805160e081018252600686015484168152845184166020820190815260a08981013583850190815260c0808c0135606086019081528951891697860197885260078b0154891693860193845230918601918252955163af15b96960e01b8152945188166004860152925187166024850152516044840152925160648301529251841660848201529051831660a4820152905190911660c482015273__$6dd86c1de004dc2dd48a17c9065be1de70$__9063af15b9699060e401602060405180830381865af4158015620010b7573d6000803e3d6000fd5b505050506040513d601f19601f82011682018060405250810190620010dd9190620027c1565b6001600160a01b0390811660a08301526040805161014081019091526080830151909116815273__$e6502af67ab2c746a64bc3775a7b8857c1$__9063cd6856ef9060208101620011336101008901896200289a565b8080601f0160208091040260200160405190810160405280939291908181526020018383808284376000920191909152505050908252506020016200117d6101208901896200289a565b8080601f016020809104026020016040519081016040528093929190818152602001838380828437600092019190915250505090825250602001620011cb61016089016101408a01620023e8565b6001600160a01b03168152602001620011ed61018089016101608a01620023e8565b6001600160a01b039081168252610180890135602083015285518116604083015285511660608201526080016200122d6101c089016101a08a0162002986565b63ffffffff1681526020016200124c6101e089016101c08a0162002986565b63ffffffff168152506040518263ffffffff1660e01b8152600401620012739190620029ae565b602060405180830381865af415801562001291573d6000803e3d6000fd5b505050506040513d601f19601f82011682018060405250810190620012b79190620027c1565b6001600160a01b0390811660c08301526040805160a0810182526008850154831681526080840151909216602083015273__$9b19b7f7ded493586f11dad0d7ebc9ca26$__9163d88d81109181016200131460e08901896200289a565b8080601f01602080910402602001604051908101604052809392919081815260200183838082843760009201919091525050509082525060a08501516001600160a01b039081166020830152855116604091820152516001600160e01b031960e084901b1681526200138a919060040162002a93565b602060405180830381865af4158015620013a8573d6000803e3d6000fd5b505050506040513d601f19601f82011682018060405250810190620013ce9190620027c1565b6001600160a01b0390811660e08301526040805160c080820183526001860154841682528401518316602082015260078501549092169082015273__$3080f05ed92e5505050a1e3d528e8c5fcb$__9063ea5fb3369060608101620014386101e08901896200289a565b8080601f016020809104026020016040519081016040528093929190818152602001838380828437600092019190915250505090825250602001620014826102008901896200289a565b8080601f01602080910402602001604051908101604052809392919081815260200183838082843760009201919091525050509082525084516001600160a01b03166020909101526040516001600160e01b031960e084901b168152620014ed919060040162002af5565b602060405180830381865af41580156200150b573d6000803e3d6000fd5b505050506040513d601f19601f82011682018060405250810190620015319190620027c1565b6001600160a01b039081166101008301526004808401546080840151604080516304d3863d60e21b815290519285169460009492169263134e18f4928281019260209291908290030181865afa15801562001590573d6000803e3d6000fd5b505050506040513d601f19601f82011682018060405250810190620015b69190620027c1565b90506000620015c58462002220565b9050600081516001600160401b03811115620015e557620015e562002b77565b6040519080825280602002602001820160405280156200160f578160200160208202803683370190505b509050600082516001600160401b0381111562001630576200163062002b77565b6040519080825280602002602001820160405280156200165a578160200160208202803683370190505b50905060005b83518110156200187b576000866001600160a01b03166378e751a66040518163ffffffff1660e01b8152600401602060405180830381865afa158015620016ab573d6000803e3d6000fd5b505050506040513d601f19601f82011682018060405250810190620016d19190620027c1565b6001600160a01b0316632fea7b81868481518110620016f457620016f462002b8d565b60200260200101516040518263ffffffff1660e01b81526004016200171a919062002408565b602060405180830381865afa15801562001738573d6000803e3d6000fd5b505050506040513d601f19601f820116820180604052508101906200175e9190620027c1565b90506001600160a01b0381166200183a57866001600160a01b0316633e8e6e8b86848151811062001793576200179362002b8d565b60200260200101516040518263ffffffff1660e01b8152600401620017b9919062002408565b6020604051808303816000875af1158015620017d9573d6000803e3d6000fd5b505050506040513d601f19601f82011682018060405250810190620017ff9190620027c1565b84838151811062001814576200181462002b8d565b60200260200101906001600160a01b031690816001600160a01b03168152505062001871565b8084838151811062001850576200185062002b8d565b60200260200101906001600160a01b031690816001600160a01b0316815250505b5060010162001660565b5060005b8351811015620018bd57610348828281518110620018a157620018a162002b8d565b61ffff909216602092830291909101909101526001016200187f565b5060405163653dc9f160e01b81526001600160a01b0385169063653dc9f190620018f09086908690869060040162002be5565b600060405180830381600087803b1580156200190b57600080fd5b505af115801562001920573d6000803e3d6000fd5b5050885460208901516001600160a01b03909116925063d0def5219150620019498c806200289a565b6040518463ffffffff1660e01b8152600401620019699392919062002c8b565b6020604051808303816000875af115801562001989573d6000803e3d6000fd5b505050506040513d601f19601f82011682018060405250810190620019af919062002cbb565b8660400181815250508560a001516001600160a01b031663603607008760e001516040518263ffffffff1660e01b8152600401620019ee919062002408565b600060405180830381600087803b15801562001a0957600080fd5b505af115801562001a1e573d6000803e3d6000fd5b505050508560a001516001600160a01b031663256b5a028760c001516040518263ffffffff1660e01b815260040162001a58919062002408565b600060405180830381600087803b15801562001a7357600080fd5b505af115801562001a88573d6000803e3d6000fd5b5050505060c086015160a0870151604051632f2ff15d60e01b81527f477fc23fb51bb5d5aa814872a393b0e4f35d0916c7503c0fd96584681070d41060048201526001600160a01b039182166024820152911690632f2ff15d90604401600060405180830381600087803b15801562001b0057600080fd5b505af115801562001b15573d6000803e3d6000fd5b5050505060c0860151865160405163f2fde38b60e01b81526001600160a01b039092169163f2fde38b9162001b4d9160040162002408565b600060405180830381600087803b15801562001b6857600080fd5b505af115801562001b7d573d6000803e3d6000fd5b5050505060808681015187516040516340c10f1960e01b81526001600160a01b039182166004820152928c0135602484015216906340c10f1990604401600060405180830381600087803b15801562001bd557600080fd5b505af115801562001bea573d6000803e3d6000fd5b50505050610100860151865160405163f2fde38b60e01b81526001600160a01b039092169163f2fde38b9162001c239160040162002408565b600060405180830381600087803b15801562001c3e57600080fd5b505af115801562001c53573d6000803e3d6000fd5b505060408051610120810182526020808b01516001600160a01b031682528a8301519082015292508201905062001c8b8b806200289a565b8080601f01602080910402602001604051908101604052809392919081815260200183838082843760009201829052509385525050506060898101516001600160a01b039081166020808601919091526080808d0151831660408088019190915260a0808f015185169588019590955260e08e015184169187019190915260c0808e01518416948701949094526101008d015183169390950192909252818b015181168352600a8c01825291839020845181546001600160a01b03191693169290921782558301516001820155908201519199508991600282019062001d72908262002d2a565b5060608201516003820180546001600160a01b03199081166001600160a01b03938416179091556080840151600484018054831691841691909117905560a0840151600584018054831691841691909117905560c0840151600684018054831691841691909117905560e084015160078401805483169184169190911790556101009093015160089092018054841692821692909217909155600989810180546001818101835560009283526020928390208e519290940290930180549095169316929092178355908a0151908201556040890151899190600282019062001e5b908262002d2a565b5060608201516003820180546001600160a01b039283166001600160a01b03199182161790915560808085015160048501805491851691841691909117905560a08086015160058601805491861691851691909117905560c08087015160068701805491871691861691909117905560e080880151600788018054918816918716919091179055610100978801516008909701805497909616969094169590951790935560208b0151908b0151928b0151938b0151918b01518b51958c01516040517f3163bceb365c85326c53476ceb0b49cfacb67f6d675e6eeb739c58ceb8b20bb69762001f8c97949695939290916001600160a01b03978816815295871660208701529386166040860152918516606085015284166080840152831660a083015290911660c082015260e00190565b60405180910390a150505050505050919050565b7ff0c57e16840df040f15088dc2f81fe391c3923bec73e23a9662efc9c229c6a008054600160401b810460ff1615906001600160401b031660008115801562001fe65750825b90506000826001600160401b03166001148015620020035750303b155b90508115801562002012575080155b15620020315760405163f92ee8a960e01b815260040160405180910390fd5b845467ffffffffffffffff1916600117855583156200205c57845460ff60401b1916600160401b1785555b60006200206862000d43565b90508e8160000160006101000a8154816001600160a01b0302191690836001600160a01b031602179055508d8160010160006101000a8154816001600160a01b0302191690836001600160a01b031602179055508c8160020160006101000a8154816001600160a01b0302191690836001600160a01b03160217905550888160030160006101000a8154816001600160a01b0302191690836001600160a01b031602179055508b8160040160006101000a8154816001600160a01b0302191690836001600160a01b031602179055508a8160050160006101000a8154816001600160a01b0302191690836001600160a01b03160217905550878160060160006101000a8154816001600160a01b0302191690836001600160a01b03160217905550898160070160006101000a8154816001600160a01b0302191690836001600160a01b03160217905550868160080160006101000a8154816001600160a01b0302191690836001600160a01b0316021790555050831562000d3357845460ff60401b19168555604051600181527fc7f505b2f371ae2175ee4913f4499e1f2633a7b5936321eed1cdaeb6115181d29060200162000d2a565b60408051600580825260c0820190925260609190816020820160a08036833701905050915082600001518260008151811062002260576200226062002b8d565b60200260200101906001600160a01b031690816001600160a01b0316815250508260c00151826001815181106200229b576200229b62002b8d565b60200260200101906001600160a01b031690816001600160a01b03168152505082610100015182600281518110620022d757620022d762002b8d565b60200260200101906001600160a01b031690816001600160a01b03168152505082602001518260038151811062002312576200231262002b8d565b60200260200101906001600160a01b031690816001600160a01b031681525050826101200151826004815181106200234e576200234e62002b8d565b60200260200101906001600160a01b031690816001600160a01b03168152505050919050565b604080516101208101825260008082526020820181905260609282018390529181018290526080810182905260a0810182905260c0810182905260e0810182905261010081019190915290565b6105bf8062002df783390190565b6001600160a01b0381168114620023e557600080fd5b50565b600060208284031215620023fb57600080fd5b81356200032e81620023cf565b6001600160a01b0391909116815260200190565b6001600160a01b03169052565b6000806000606084860312156200243f57600080fd5b83356200244c81620023cf565b925060208401356200245e81620023cf565b9150604084013561ffff811681146200247657600080fd5b809150509250925092565b6000815180845260005b81811015620024a9576020818501810151868301820152016200248b565b506000602082860101526020601f19601f83011685010191505092915050565b6020815260006200032e602083018462002481565b600061012060018060a01b038351168452602083015160208501526040830151816040860152620025128286018262002481565b91505060608301516200252960608601826200241c565b5060808301516200253e60808601826200241c565b5060a08301516200255360a08601826200241c565b5060c08301516200256860c08601826200241c565b5060e08301516200257d60e08601826200241c565b506101008084015162002593828701826200241c565b5090949350505050565b6020815260006200032e6020830184620024de565b600060208284031215620025c557600080fd5b81356001600160401b03811115620025dc57600080fd5b820161022081850312156200032e57600080fd5b600060208083016020845280855180835260408601915060408160051b87010192506020870160005b828110156200264b57603f1988860301845262002638858351620024de565b9450928501929085019060010162002619565b5092979650505050505050565b600080600080606085870312156200266f57600080fd5b84356200267c81620023cf565b935060208501356200268e81620023cf565b925060408501356001600160401b0380821115620026ab57600080fd5b818701915087601f830112620026c057600080fd5b813581811115620026d057600080fd5b886020828501011115620026e357600080fd5b95989497505060200194505050565b60008060008060008060008060006101208a8c0312156200271257600080fd5b89356200271f81620023cf565b985060208a01356200273181620023cf565b975060408a01356200274381620023cf565b965060608a01356200275581620023cf565b955060808a01356200276781620023cf565b945060a08a01356200277981620023cf565b935060c08a01356200278b81620023cf565b925060e08a01356200279d81620023cf565b91506101008a0135620027b081620023cf565b809150509295985092959850929598565b600060208284031215620027d457600080fd5b81516200032e81620023cf565b600181811c90821680620027f657607f821691505b6020821081036200281757634e487b7160e01b600052602260045260246000fd5b50919050565b81835281816020850137506000828201602090810191909152601f909101601f19169091010190565b6040815260006200285c6040830185876200281d565b905060018060a01b0383166020830152949350505050565b6001600160a01b03831681526040602082018190526000906200029f9083018462002481565b6000808335601e19843603018112620028b257600080fd5b8301803591506001600160401b03821115620028cd57600080fd5b602001915036819003821315620028e357600080fd5b9250929050565b600060208284031215620028fd57600080fd5b813560ff811681146200032e57600080fd5b60208152600060018060a01b0380845116602084015280602085015116604084015250604083015160a060608401526200294d60c084018262002481565b90506060840151601f198483030160808501526200296c828262002481565b91505060ff60808501511660a08401528091505092915050565b6000602082840312156200299957600080fd5b813563ffffffff811681146200032e57600080fd5b60208152620029c26020820183516200241c565b60006020830151610140806040850152620029e261016085018362002481565b91506040850151601f1985840301606086015262002a01838262002481565b925050606085015162002a1860808601826200241c565b50608085015162002a2d60a08601826200241c565b5060a085015160c085015260c085015162002a4c60e08601826200241c565b5060e085015161010062002a63818701836200241c565b860151905061012062002a7d8682018363ffffffff169052565b86015163ffffffff811683870152905062002593565b60208152600060018060a01b03808451166020840152806020850151166040840152604084015160a0606085015262002ad060c085018262002481565b90508160608601511660808501528160808601511660a0850152809250505092915050565b60208152600060018060a01b03808451166020840152806020850151166040840152806040850151166060840152606084015160c0608085015262002b3e60e085018262002481565b90506080850151601f198583030160a086015262002b5d828262002481565b9150508160a08601511660c0850152809250505092915050565b634e487b7160e01b600052604160045260246000fd5b634e487b7160e01b600052603260045260246000fd5b60008151808452602080850194506020840160005b8381101562002bda57815161ffff168752958201959082019060010162002bb8565b509495945050505050565b606080825284519082018190526000906020906080840190828801845b8281101562002c295781516001600160a01b03168452928401929084019060010162002c02565b5050508381038285015285518082528683019183019060005b8181101562002c695783516001600160a01b03168352928401929184019160010162002c42565b5050848103604086015262002c7f818762002ba3565b98975050505050505050565b6001600160a01b038416815260406020820181905260009062002cb290830184866200281d565b95945050505050565b60006020828403121562002cce57600080fd5b5051919050565b601f82111562002d25576000816000526020600020601f850160051c8101602086101562002d005750805b601f850160051c820191505b8181101562002d215782815560010162002d0c565b5050505b505050565b81516001600160401b0381111562002d465762002d4662002b77565b62002d5e8162002d578454620027e1565b8462002cd5565b602080601f83116001811462002d96576000841562002d7d5750858301515b600019600386901b1c1916600185901b17855562002d21565b600085815260208120601f198616915b8281101562002dc75788860151825594840194600190910190840162002da6565b508582101562002de65787850151600019600388901b60f8161c191681555b5050505050600190811b0190555056fe60a06040526040516105bf3803806105bf83398101604081905261002291610387565b61002c828261003e565b506001600160a01b031660805261047e565b610047826100fe565b6040516001600160a01b038316907f1cf3b03a6cf19fa2baba4df148e9dcabedea7f8a5c07840e207e5c089be95d3e90600090a28051156100f2576100ed826001600160a01b0316635c60da1b6040518163ffffffff1660e01b8152600401602060405180830381865afa1580156100c3573d6000803e3d6000fd5b505050506040513d601f19601f820116820180604052508101906100e79190610447565b82610211565b505050565b6100fa610288565b5050565b806001600160a01b03163b60000361013957604051631933b43b60e21b81526001600160a01b03821660048201526024015b60405180910390fd5b807fa3f0ad74e5423aebfd80d3ef4346578335a9a72aeaee59ff6cb3582b35133d5080546001600160a01b0319166001600160a01b0392831617905560408051635c60da1b60e01b81529051600092841691635c60da1b9160048083019260209291908290030181865afa1580156101b5573d6000803e3d6000fd5b505050506040513d601f19601f820116820180604052508101906101d99190610447565b9050806001600160a01b03163b6000036100fa57604051634c9c8ce360e01b81526001600160a01b0382166004820152602401610130565b6060600080846001600160a01b03168460405161022e9190610462565b600060405180830381855af49150503d8060008114610269576040519150601f19603f3d011682016040523d82523d6000602084013e61026e565b606091505b50909250905061027f8583836102a9565b95945050505050565b34156102a75760405163b398979f60e01b815260040160405180910390fd5b565b6060826102be576102b982610308565b610301565b81511580156102d557506001600160a01b0384163b155b156102fe57604051639996b31560e01b81526001600160a01b0385166004820152602401610130565b50805b9392505050565b8051156103185780518082602001fd5b604051630a12f52160e11b815260040160405180910390fd5b80516001600160a01b038116811461034857600080fd5b919050565b634e487b7160e01b600052604160045260246000fd5b60005b8381101561037e578181015183820152602001610366565b50506000910152565b6000806040838503121561039a57600080fd5b6103a383610331565b60208401519092506001600160401b03808211156103c057600080fd5b818501915085601f8301126103d457600080fd5b8151818111156103e6576103e661034d565b604051601f8201601f19908116603f0116810190838211818310171561040e5761040e61034d565b8160405282815288602084870101111561042757600080fd5b610438836020830160208801610363565b80955050505050509250929050565b60006020828403121561045957600080fd5b61030182610331565b60008251610474818460208701610363565b9190910192915050565b6080516101276104986000396000601e01526101276000f3fe6080604052600a600c565b005b60186014601a565b60a0565b565b60007f00000000000000000000000000000000000000000000000000000000000000006001600160a01b0316635c60da1b6040518163ffffffff1660e01b8152600401602060405180830381865afa1580156079573d6000803e3d6000fd5b505050506040513d601f19601f82011682018060405250810190609b919060c3565b905090565b3660008037600080366000845af43d6000803e80801560be573d6000f35b3d6000fd5b60006020828403121560d457600080fd5b81516001600160a01b038116811460ea57600080fd5b939250505056fea26469706673582212205c8a2fcdc6f79c1d43b849e2b03f494652cee222b2ec86046b7caaa1405f985f64736f6c63430008180033a2646970667358221220570fc9ea4931b719aee9a836ce5dc3bc868f0612cd782575239782b6ca01d30464736f6c63430008180033",
  "linkReferences": {
    "contracts/buildings/library/BuildingAutoCompounder.sol": {
      "BuildingAutoCompounderLib": [
        {
          "length": 20,
          "start": 5360
        }
      ]
    },
    "contracts/buildings/library/BuildingGovernance.sol": {
      "BuildingGovernanceLib": [
        {
          "length": 20,
          "start": 5071
        }
      ]
    },
    "contracts/buildings/library/BuildingToken.sol": {
      "BuildingTokenLib": [
        {
          "length": 20,
          "start": 3974
        }
      ]
    },
    "contracts/buildings/library/BuildingTreasury.sol": {
      "BuildingTreasuryLib": [
        {
          "length": 20,
          "start": 4450
        }
      ]
    },
    "contracts/buildings/library/BuildingVault.sol": {
      "BuildingVaultLib": [
        {
          "length": 20,
          "start": 4587
        }
      ]
    }
  },
  "deployedLinkReferences": {
    "contracts/buildings/library/BuildingAutoCompounder.sol": {
      "BuildingAutoCompounderLib": [
        {
          "length": 20,
          "start": 5130
        }
      ]
    },
    "contracts/buildings/library/BuildingGovernance.sol": {
      "BuildingGovernanceLib": [
        {
          "length": 20,
          "start": 4841
        }
      ]
    },
    "contracts/buildings/library/BuildingToken.sol": {
      "BuildingTokenLib": [
        {
          "length": 20,
          "start": 3744
        }
      ]
    },
    "contracts/buildings/library/BuildingTreasury.sol": {
      "BuildingTreasuryLib": [
        {
          "length": 20,
          "start": 4220
        }
      ]
    },
    "contracts/buildings/library/BuildingVault.sol": {
      "BuildingVaultLib": [
        {
          "length": 20,
          "start": 4357
        }
      ]
    }
  }
}