{
  "_format": "hh-sol-artifact-1",
  "contractName": "BuildingFactoryMock",
  "sourceName": "contracts/buildings/mock/BuildingFactoryMock.sol",
  "abi": [
    {
      "inputs": [],
      "name": "InvalidInitialization",
      "type": "error"
    },
    {
      "inputs": [],
      "name": "NotInitializing",
      "type": "error"
    },
    {
      "inputs": [
        {
          "internalType": "address",
          "name": "owner",
          "type": "address"
        }
      ],
      "name": "OwnableInvalidOwner",
      "type": "error"
    },
    {
      "inputs": [
        {
          "internalType": "address",
          "name": "account",
          "type": "address"
        }
      ],
      "name": "OwnableUnauthorizedAccount",
      "type": "error"
    },
    {
      "anonymous": false,
      "inputs": [
        {
          "indexed": false,
          "internalType": "address",
          "name": "buildingAddress",
          "type": "address"
        }
      ],
      "name": "BuildingConfigured",
      "type": "event"
    },
    {
      "anonymous": false,
      "inputs": [
        {
          "indexed": false,
          "internalType": "address",
          "name": "building",
          "type": "address"
        },
        {
          "indexed": false,
          "internalType": "address",
          "name": "module",
          "type": "address"
        }
      ],
      "name": "ComplianceModuleAdded",
      "type": "event"
    },
    {
      "anonymous": false,
      "inputs": [
        {
          "indexed": false,
          "internalType": "address",
          "name": "building",
          "type": "address"
        },
        {
          "indexed": false,
          "internalType": "address",
          "name": "wallet",
          "type": "address"
        },
        {
          "indexed": false,
          "internalType": "address",
          "name": "identity",
          "type": "address"
        },
        {
          "indexed": false,
          "internalType": "uint16",
          "name": "country",
          "type": "uint16"
        }
      ],
      "name": "IdentityRegistered",
      "type": "event"
    },
    {
      "anonymous": false,
      "inputs": [
        {
          "indexed": false,
          "internalType": "uint64",
          "name": "version",
          "type": "uint64"
        }
      ],
      "name": "Initialized",
      "type": "event"
    },
    {
      "anonymous": false,
      "inputs": [
        {
          "indexed": false,
          "internalType": "address",
          "name": "buildingAddress",
          "type": "address"
        },
        {
          "indexed": false,
          "internalType": "address",
          "name": "erc3643Token",
          "type": "address"
        },
        {
          "indexed": false,
          "internalType": "address",
          "name": "treasury",
          "type": "address"
        },
        {
          "indexed": false,
          "internalType": "address",
          "name": "vault",
          "type": "address"
        },
        {
          "indexed": false,
          "internalType": "address",
          "name": "governance",
          "type": "address"
        },
        {
          "indexed": false,
          "internalType": "address",
          "name": "initialOwner",
          "type": "address"
        },
        {
          "indexed": false,
          "internalType": "address",
          "name": "autoCompounder",
          "type": "address"
        }
      ],
      "name": "NewBuilding",
      "type": "event"
    },
    {
      "anonymous": false,
      "inputs": [
        {
          "indexed": true,
          "internalType": "address",
          "name": "previousOwner",
          "type": "address"
        },
        {
          "indexed": true,
          "internalType": "address",
          "name": "newOwner",
          "type": "address"
        }
      ],
      "name": "OwnershipTransferred",
      "type": "event"
    },
    {
      "anonymous": false,
      "inputs": [
        {
          "indexed": false,
          "internalType": "address",
          "name": "agent",
          "type": "address"
        }
      ],
      "name": "RegistryAgentRemoved",
      "type": "event"
    },
    {
      "anonymous": false,
      "inputs": [
        {
          "indexed": false,
          "internalType": "address[]",
          "name": "agents",
          "type": "address[]"
        }
      ],
      "name": "RegistryAgentsAdded",
      "type": "event"
    },
    {
      "inputs": [
        {
          "internalType": "address[]",
          "name": "agents",
          "type": "address[]"
        }
      ],
      "name": "addRegistryAgents",
      "outputs": [],
      "stateMutability": "nonpayable",
      "type": "function"
    },
    {
      "inputs": [
        {
          "internalType": "address",
          "name": "buildingAddress",
          "type": "address"
        }
      ],
      "name": "configNewBuilding",
      "outputs": [],
      "stateMutability": "nonpayable",
      "type": "function"
    },
    {
      "inputs": [
        {
          "internalType": "address",
          "name": "wallet",
          "type": "address"
        }
      ],
      "name": "deployIdentityForWallet",
      "outputs": [
        {
          "internalType": "address",
          "name": "",
          "type": "address"
        }
      ],
      "stateMutability": "nonpayable",
      "type": "function"
    },
    {
      "inputs": [
        {
          "internalType": "address",
          "name": "buildingAddress",
          "type": "address"
        }
      ],
      "name": "getBuildingDetails",
      "outputs": [
        {
          "components": [
            {
              "internalType": "address",
              "name": "addr",
              "type": "address"
            },
            {
              "internalType": "uint256",
              "name": "nftId",
              "type": "uint256"
            },
            {
              "internalType": "string",
              "name": "tokenURI",
              "type": "string"
            },
            {
              "internalType": "address",
              "name": "auditRegistry",
              "type": "address"
            },
            {
              "internalType": "address",
              "name": "erc3643Token",
              "type": "address"
            },
            {
              "internalType": "address",
              "name": "treasury",
              "type": "address"
            },
            {
              "internalType": "address",
              "name": "governance",
              "type": "address"
            },
            {
              "internalType": "address",
              "name": "vault",
              "type": "address"
            },
            {
              "internalType": "address",
              "name": "autoCompounder",
              "type": "address"
            },
            {
              "internalType": "address",
              "name": "initialOwner",
              "type": "address"
            },
            {
              "internalType": "uint256",
              "name": "tokenMintAmount",
              "type": "uint256"
            },
            {
              "internalType": "bool",
              "name": "isConfigured",
              "type": "bool"
            }
          ],
          "internalType": "struct BuildingFactoryStorage.BuildingDetails",
          "name": "",
          "type": "tuple"
        }
      ],
      "stateMutability": "view",
      "type": "function"
    },
    {
      "inputs": [],
      "name": "getBuildingList",
      "outputs": [
        {
          "components": [
            {
              "internalType": "address",
              "name": "addr",
              "type": "address"
            },
            {
              "internalType": "uint256",
              "name": "nftId",
              "type": "uint256"
            },
            {
              "internalType": "string",
              "name": "tokenURI",
              "type": "string"
            },
            {
              "internalType": "address",
              "name": "auditRegistry",
              "type": "address"
            },
            {
              "internalType": "address",
              "name": "erc3643Token",
              "type": "address"
            },
            {
              "internalType": "address",
              "name": "treasury",
              "type": "address"
            },
            {
              "internalType": "address",
              "name": "governance",
              "type": "address"
            },
            {
              "internalType": "address",
              "name": "vault",
              "type": "address"
            },
            {
              "internalType": "address",
              "name": "autoCompounder",
              "type": "address"
            },
            {
              "internalType": "address",
              "name": "initialOwner",
              "type": "address"
            },
            {
              "internalType": "uint256",
              "name": "tokenMintAmount",
              "type": "uint256"
            },
            {
              "internalType": "bool",
              "name": "isConfigured",
              "type": "bool"
            }
          ],
          "internalType": "struct BuildingFactoryStorage.BuildingDetails[]",
          "name": "",
          "type": "tuple[]"
        }
      ],
      "stateMutability": "view",
      "type": "function"
    },
    {
      "inputs": [
        {
          "internalType": "address",
          "name": "wallet",
          "type": "address"
        }
      ],
      "name": "getIdentity",
      "outputs": [
        {
          "internalType": "contract IIdentity",
          "name": "",
          "type": "address"
        }
      ],
      "stateMutability": "view",
      "type": "function"
    },
    {
      "inputs": [],
      "name": "getRegistryAgents",
      "outputs": [
        {
          "internalType": "address[]",
          "name": "",
          "type": "address[]"
        }
      ],
      "stateMutability": "view",
      "type": "function"
    },
    {
      "inputs": [
        {
          "components": [
            {
              "internalType": "address",
              "name": "nft",
              "type": "address"
            },
            {
              "internalType": "address",
              "name": "uniswapRouter",
              "type": "address"
            },
            {
              "internalType": "address",
              "name": "uniswapFactory",
              "type": "address"
            },
            {
              "internalType": "address",
              "name": "identityFactory",
              "type": "address"
            },
            {
              "internalType": "address",
              "name": "trexFactory",
              "type": "address"
            },
            {
              "internalType": "address",
              "name": "usdc",
              "type": "address"
            },
            {
              "internalType": "address",
              "name": "buildingBeacon",
              "type": "address"
            },
            {
              "internalType": "address",
              "name": "treasuryBeacon",
              "type": "address"
            },
            {
              "internalType": "address",
              "name": "governanceBeacon",
              "type": "address"
            },
            {
              "internalType": "address",
              "name": "upkeeper",
              "type": "address"
            }
          ],
          "internalType": "struct BuildingFactoryInit",
          "name": "init",
          "type": "tuple"
        }
      ],
      "name": "initialize",
      "outputs": [],
      "stateMutability": "nonpayable",
      "type": "function"
    },
    {
      "inputs": [
        {
          "components": [
            {
              "internalType": "string",
              "name": "tokenURI",
              "type": "string"
            },
            {
              "internalType": "string",
              "name": "tokenName",
              "type": "string"
            },
            {
              "internalType": "string",
              "name": "tokenSymbol",
              "type": "string"
            },
            {
              "internalType": "uint8",
              "name": "tokenDecimals",
              "type": "uint8"
            },
            {
              "internalType": "uint256",
              "name": "tokenMintAmount",
              "type": "uint256"
            },
            {
              "internalType": "uint256",
              "name": "treasuryReserveAmount",
              "type": "uint256"
            },
            {
              "internalType": "uint256",
              "name": "treasuryNPercent",
              "type": "uint256"
            },
            {
              "internalType": "string",
              "name": "governanceName",
              "type": "string"
            },
            {
              "internalType": "string",
              "name": "vaultShareTokenName",
              "type": "string"
            },
            {
              "internalType": "string",
              "name": "vaultShareTokenSymbol",
              "type": "string"
            },
            {
              "internalType": "address",
              "name": "vaultFeeReceiver",
              "type": "address"
            },
            {
              "internalType": "address",
              "name": "vaultFeeToken",
              "type": "address"
            },
            {
              "internalType": "uint256",
              "name": "vaultFeePercentage",
              "type": "uint256"
            },
            {
              "internalType": "uint32",
              "name": "vaultCliff",
              "type": "uint32"
            },
            {
              "internalType": "uint32",
              "name": "vaultUnlockDuration",
              "type": "uint32"
            },
            {
              "internalType": "string",
              "name": "aTokenName",
              "type": "string"
            },
            {
              "internalType": "string",
              "name": "aTokenSymbol",
              "type": "string"
            }
          ],
          "internalType": "struct BuildingFactoryStorage.NewBuildingDetails",
          "name": "details",
          "type": "tuple"
        }
      ],
      "name": "newBuilding",
      "outputs": [
        {
          "components": [
            {
              "internalType": "address",
              "name": "addr",
              "type": "address"
            },
            {
              "internalType": "uint256",
              "name": "nftId",
              "type": "uint256"
            },
            {
              "internalType": "string",
              "name": "tokenURI",
              "type": "string"
            },
            {
              "internalType": "address",
              "name": "auditRegistry",
              "type": "address"
            },
            {
              "internalType": "address",
              "name": "erc3643Token",
              "type": "address"
            },
            {
              "internalType": "address",
              "name": "treasury",
              "type": "address"
            },
            {
              "internalType": "address",
              "name": "governance",
              "type": "address"
            },
            {
              "internalType": "address",
              "name": "vault",
              "type": "address"
            },
            {
              "internalType": "address",
              "name": "autoCompounder",
              "type": "address"
            },
            {
              "internalType": "address",
              "name": "initialOwner",
              "type": "address"
            },
            {
              "internalType": "uint256",
              "name": "tokenMintAmount",
              "type": "uint256"
            },
            {
              "internalType": "bool",
              "name": "isConfigured",
              "type": "bool"
            }
          ],
          "internalType": "struct BuildingFactoryStorage.BuildingDetails",
          "name": "buildingDetails",
          "type": "tuple"
        }
      ],
      "stateMutability": "nonpayable",
      "type": "function"
    },
    {
      "inputs": [],
      "name": "owner",
      "outputs": [
        {
          "internalType": "address",
          "name": "",
          "type": "address"
        }
      ],
      "stateMutability": "view",
      "type": "function"
    },
    {
      "inputs": [
        {
          "internalType": "address",
          "name": "buildingAddress",
          "type": "address"
        },
        {
          "internalType": "address",
          "name": "wallet",
          "type": "address"
        },
        {
          "internalType": "uint16",
          "name": "country",
          "type": "uint16"
        }
      ],
      "name": "registerIdentity",
      "outputs": [],
      "stateMutability": "nonpayable",
      "type": "function"
    },
    {
      "inputs": [
        {
          "internalType": "address",
          "name": "agent",
          "type": "address"
        }
      ],
      "name": "removeRegistryAgent",
      "outputs": [],
      "stateMutability": "nonpayable",
      "type": "function"
    },
    {
      "inputs": [],
      "name": "renounceOwnership",
      "outputs": [],
      "stateMutability": "nonpayable",
      "type": "function"
    },
    {
      "inputs": [
        {
          "internalType": "address",
          "name": "newOwner",
          "type": "address"
        }
      ],
      "name": "transferOwnership",
      "outputs": [],
      "stateMutability": "nonpayable",
      "type": "function"
    },
    {
      "inputs": [],
      "name": "version",
      "outputs": [
        {
          "internalType": "string",
          "name": "",
          "type": "string"
        }
      ],
      "stateMutability": "pure",
      "type": "function"
    }
  ],
  "bytecode": "0x60806040523480156200001157600080fd5b506200001c62000022565b620000d6565b7ff0c57e16840df040f15088dc2f81fe391c3923bec73e23a9662efc9c229c6a00805468010000000000000000900460ff1615620000735760405163f92ee8a960e01b815260040160405180910390fd5b80546001600160401b0390811614620000d35780546001600160401b0319166001600160401b0390811782556040519081527fc7f505b2f371ae2175ee4913f4499e1f2633a7b5936321eed1cdaeb6115181d29060200160405180910390a15b50565b6141d280620000e66000396000f3fe60806040523480156200001157600080fd5b5060043610620000e65760003560e01c806370fb5257116200009257806370fb525714620001c7578063715018a614620001de578063899a0ebe14620001e85780638da5cb5b14620001ff578063c6bb9e961462000209578063d5f51ccd1462000220578063db652ec81462000237578063f2fde38b146200025057600080fd5b806240c4b014620000eb5780632fea7b81146200010d5780633a4338cf14620001335780633e8e6e8b146200014c578063454a03e0146200016357806354fd4d50146200017a578063665fa4a114620001a1575b600080fd5b620000f562000267565b6040516200010491906200315b565b60405180910390f35b620001246200011e366004620031d2565b620002d7565b604051620001049190620031f2565b6200014a62000144366004620031d2565b620003e1565b005b620001246200015d366004620031d2565b62000af9565b6200014a6200017436600462003206565b62000b87565b60408051808201825260038152620322e360ec1b60208201529051620001049190620032a6565b620001b8620001b2366004620031d2565b62000f53565b604051620001049190620033ae565b6200014a620001d8366004620031d2565b620010c8565b6200014a6200125e565b620001b8620001f9366004620033c3565b62001276565b6200012462001291565b6200014a6200021a36600462003401565b620012bf565b6200014a6200023136600462003431565b620013c4565b620002416200151e565b60405162000104919062003503565b6200014a62000261366004620031d2565b620016c6565b60606000620002756200170b565b600a8101805460408051602080840282018101909252828152939450830182828015620002cc57602002820191906000526020600020905b81546001600160a01b03168152600190910190602001808311620002ad575b505050505091505090565b600080620002e46200170b565b905060008160040160009054906101000a90046001600160a01b03166001600160a01b03166378e751a66040518163ffffffff1660e01b8152600401602060405180830381865afa1580156200033e573d6000803e3d6000fd5b505050506040513d601f19601f820116820180604052508101906200036491906200356b565b604051632fea7b8160e01b81529091506001600160a01b03821690632fea7b819062000395908790600401620031f2565b602060405180830381865afa158015620003b3573d6000803e3d6000fd5b505050506040513d601f19601f82011682018060405250810190620003d991906200356b565b949350505050565b6000620003ed6200170b565b6001600160a01b038084166000908152600d83016020526040902080549293509116620004565760405162461bcd60e51b8152602060048201526012602482015271109d5a5b191a5b99c81b9bdd08199bdd5b9960721b60448201526064015b60405180910390fd5b600b81015460ff1615620004ad5760405162461bcd60e51b815260206004820152601b60248201527f4275696c64696e6720616c726561647920636f6e66696775726564000000000060448201526064016200044d565b60098101546001600160a01b031633146200051d5760405162461bcd60e51b815260206004820152602960248201527f4f6e6c7920746865206f776e65722063616e20636f6e66696775726520746865604482015268206275696c64696e6760b81b60648201526084016200044d565b60408051600580825260c082019092526000916020820160a080368337505050600983015481519192506001600160a01b03169082906000906200056557620005656200358b565b6001600160a01b039283166020918202929092010152600180850154835192169183919081106200059a576200059a6200358b565b6001600160a01b0392831660209182029290920101526007830154825191169082906002908110620005d057620005d06200358b565b6001600160a01b03928316602091820292909201015260088301548251911690829060039081106200060657620006066200358b565b6001600160a01b0392831660209182029290920101526002840154600484015460078601546200063f939283169291821691166200172f565b816004815181106200065557620006556200358b565b6001600160a01b03928316602091820292909201015260048301546200067f918691168362001801565b6004828101546009840154600a8501546040516340c10f1960e01b81526001600160a01b0392831694810194909452602484015216906340c10f1990604401600060405180830381600087803b158015620006d957600080fd5b505af1158015620006ee573d6000803e3d6000fd5b505050600583015460068401546040516260360760e81b81526001600160a01b0392831693506360360700926200072a921690600401620031f2565b600060405180830381600087803b1580156200074557600080fd5b505af11580156200075a573d6000803e3d6000fd5b505050600583015460078401546040516312b5ad0160e11b81526001600160a01b03928316935063256b5a029262000797921690600401620031f2565b600060405180830381600087803b158015620007b257600080fd5b505af1158015620007c7573d6000803e3d6000fd5b50505060078301546005840154604051632f2ff15d60e01b81526001600160a01b039283169350632f2ff15d9262000827927f477fc23fb51bb5d5aa814872a393b0e4f35d0916c7503c0fd96584681070d41092911690600401620035a1565b600060405180830381600087803b1580156200084257600080fd5b505af115801562000857573d6000803e3d6000fd5b50505060038301546006840154604051632f2ff15d60e01b81526001600160a01b039283169350632f2ff15d92620008b7927f71840dc4906352362b0cdaf79870196c8e42acafade72d5d5a6d59291253ceb192911690600401620035a1565b600060405180830381600087803b158015620008d257600080fd5b505af1158015620008e7573d6000803e3d6000fd5b50505060038301546009840154604051632f2ff15d60e01b81526001600160a01b039283169350632f2ff15d926200092892600092911690600401620035a1565b600060405180830381600087803b1580156200094357600080fd5b505af115801562000958573d6000803e3d6000fd5b5050506007830154600984015460405163f2fde38b60e01b81526001600160a01b03928316935063f2fde38b9262000995921690600401620031f2565b600060405180830381600087803b158015620009b057600080fd5b505af1158015620009c5573d6000803e3d6000fd5b5050506008830154600984015460405163f2fde38b60e01b81526001600160a01b03928316935063f2fde38b9262000a02921690600401620031f2565b600060405180830381600087803b15801562000a1d57600080fd5b505af115801562000a32573d6000803e3d6000fd5b5050505060098301546008830154604051630be2f08b60e31b81526001600160a01b039182166004820152634e71d92d60e01b6024820152911690635f17845890604401600060405180830381600087803b15801562000a9157600080fd5b505af115801562000aa6573d6000803e3d6000fd5b505050600b8301805460ff19166001179055506040517f13e082287ff01b095c7a56d08c6e81bc08794d833c506cd9d4d93b4cd88dc6209062000aeb908690620031f2565b60405180910390a150505050565b60008062000b066200170b565b600480820154604051633e8e6e8b60e01b81529293506001600160a01b031691633e8e6e8b9162000b3a91879101620031f2565b6020604051808303816000875af115801562000b5a573d6000803e3d6000fd5b505050506040513d601f19601f8201168201806040525081019062000b8091906200356b565b9392505050565b600062000b936200170b565b6001600160a01b038086166000908152600d83016020908152604080832081516101808101835281549095168552600181015492850192909252600282018054959650929491929084019162000be990620035b8565b80601f016020809104026020016040519081016040528092919081815260200182805462000c1790620035b8565b801562000c685780601f1062000c3c5761010080835404028352916020019162000c68565b820191906000526020600020905b81548152906001019060200180831162000c4a57829003601f168201915b505050918352505060038201546001600160a01b039081166020808401919091526004808501548316604080860191909152600586015484166060860152600686015484166080808701919091526007870154851660a08701526008870154851660c08701526009870154851660e0870152600a870154610100870152600b9096015460ff1615156101209095019490945293850151878501548451633c73a8d360e11b81529451969750909560009591909316936378e751a693818301939290918290030181865afa15801562000d44573d6000803e3d6000fd5b505050506040513d601f19601f8201168201806040525081019062000d6a91906200356b565b90506000826001600160a01b031663134e18f46040518163ffffffff1660e01b8152600401602060405180830381865afa15801562000dad573d6000803e3d6000fd5b505050506040513d601f19601f8201168201806040525081019062000dd391906200356b565b90506000826001600160a01b0316632fea7b81896040518263ffffffff1660e01b815260040162000e059190620031f2565b602060405180830381865afa15801562000e23573d6000803e3d6000fd5b505050506040513d601f19601f8201168201806040525081019062000e4991906200356b565b90506001600160a01b03811662000ea35760405162461bcd60e51b815260206004820152601d60248201527f4964656e7469747920666f722077616c6c6574206e6f7420666f756e6400000060448201526064016200044d565b60405163022a501f60e51b81526001600160a01b0383169063454a03e09062000ed5908b9085908c90600401620035ee565b600060405180830381600087803b15801562000ef057600080fd5b505af115801562000f05573d6000803e3d6000fd5b505050507f6680dc6d23915f02197cb4ac29f4b00443a14ca1cbe22d6b93045c32b98a82378989838a60405162000f40949392919062003615565b60405180910390a1505050505050505050565b62000f5d620030db565b600062000f696200170b565b6001600160a01b038085166000908152600d830160209081526040918290208251610180810184528154909416845260018101549184019190915260028101805494955092939092918401919062000fc190620035b8565b80601f016020809104026020016040519081016040528092919081815260200182805462000fef90620035b8565b8015620010405780601f10620010145761010080835404028352916020019162001040565b820191906000526020600020905b8154815290600101906020018083116200102257829003601f168201915b505050918352505060038201546001600160a01b0390811660208301526004830154811660408301526005830154811660608301526006830154811660808301526007830154811660a08301526008830154811660c083015260098301541660e0820152600a820154610100820152600b9091015460ff161515610120909101529392505050565b620010d262001bd6565b6001600160a01b038116620010fb5760405162461bcd60e51b81526004016200044d9062003642565b6000620011076200170b565b9050600a810160005b81548110156200125857836001600160a01b03168282815481106200113957620011396200358b565b6000918252602090912001546001600160a01b0316036200124f5781548290620011669060019062003687565b815481106200117957620011796200358b565b9060005260206000200160009054906101000a90046001600160a01b0316828281548110620011ac57620011ac6200358b565b9060005260206000200160006101000a8154816001600160a01b0302191690836001600160a01b0316021790555081805480620011ed57620011ed6200369d565b600082815260209020810160001990810180546001600160a01b03191690550190556040517ffd640fa9b46f14c0708e03114f4007b6a72edb4389a12da691527d9ffb6d0de29062001241908690620031f2565b60405180910390a162001258565b60010162001110565b50505050565b6200126862001bd6565b62001274600062001c0d565b565b62001280620030db565b6200128b8262001c7e565b92915050565b7f9016d09d72d40fdae2fd8ceac6b6234c7706214fd39c1cd1e609a0528c199300546001600160a01b031690565b6000620012cb620029f1565b805490915060ff600160401b82041615906001600160401b0316600081158015620012f35750825b90506000826001600160401b03166001148015620013105750303b155b9050811580156200131f575080155b156200133e5760405163f92ee8a960e01b815260040160405180910390fd5b845467ffffffffffffffff1916600117855583156200136957845460ff60401b1916600160401b1785555b620013748662002a15565b8315620013bc57845460ff60401b19168555604051600181527fc7f505b2f371ae2175ee4913f4499e1f2633a7b5936321eed1cdaeb6115181d2906020015b60405180910390a15b505050505050565b620013ce62001bd6565b601e81511115620014155760405162461bcd60e51b815260206004820152601060248201526f06d6178206167656e74732069732033360841b60448201526064016200044d565b6000620014216200170b565b905060005b8251811015620014e05760006001600160a01b03168382815181106200145057620014506200358b565b60200260200101516001600160a01b031603620014815760405162461bcd60e51b81526004016200044d9062003642565b81600a018382815181106200149a576200149a6200358b565b60209081029190910181015182546001808201855560009485529290932090920180546001600160a01b0319166001600160a01b03909316929092179091550162001426565b507f841421fc38b9d27338042dbea7f73d4c58c28c36fc74c5a5aa3d363043e76fae826040516200151291906200315b565b60405180910390a15050565b606060006200152c6200170b565b600c810180546040805160208084028201810190925282815293945060009084015b82821015620016bc5760008481526020908190206040805161018081018252600c860290920180546001600160a01b0316835260018101549383019390935260028301805492939291840191620015a590620035b8565b80601f0160208091040260200160405190810160405280929190818152602001828054620015d390620035b8565b8015620016245780601f10620015f85761010080835404028352916020019162001624565b820191906000526020600020905b8154815290600101906020018083116200160657829003601f168201915b505050918352505060038201546001600160a01b039081166020808401919091526004840154821660408401526005840154821660608401526006840154821660808401526007840154821660a08401526008840154821660c0840152600984015490911660e0830152600a830154610100830152600b9092015460ff1615156101209091015290825260019290920191016200154e565b5050505091505090565b620016d062001bd6565b6001600160a01b038116620016fd576000604051631e4fbdf760e01b81526004016200044d9190620031f2565b620017088162001c0d565b50565b7f0f40dde8b99b0722537b774c6ef775b5e5a0af035d95bf9802cd87411f806f0090565b600080600062001740858562002d20565b6040516001600160601b0319606084811b8216602084015283901b1660348201529193509150869060480160405160208183030381529060405280519060200120604051602001620017df9291906001600160f81b0319815260609290921b6001600160601b031916600183015260158201527fdea1222ed22817f96ed20157be156c80808da15c079040548d4487a79708fe8e603582015260550190565b60408051601f1981840301815291905280516020909101209695505050505050565b60006200180d6200170b565b905060008160040160009054906101000a90046001600160a01b031690506000846001600160a01b031663134e18f46040518163ffffffff1660e01b8152600401602060405180830381865afa1580156200186c573d6000803e3d6000fd5b505050506040513d601f19601f820116820180604052508101906200189291906200356b565b905060005b845181101562001bcd576000836001600160a01b03166378e751a66040518163ffffffff1660e01b8152600401602060405180830381865afa158015620018e2573d6000803e3d6000fd5b505050506040513d601f19601f820116820180604052508101906200190891906200356b565b6001600160a01b0316632fea7b818784815181106200192b576200192b6200358b565b60200260200101516040518263ffffffff1660e01b8152600401620019519190620031f2565b602060405180830381865afa1580156200196f573d6000803e3d6000fd5b505050506040513d601f19601f820116820180604052508101906200199591906200356b565b90506103486001600160a01b03821662001a3c57846001600160a01b0316633e8e6e8b888581518110620019cd57620019cd6200358b565b60200260200101516040518263ffffffff1660e01b8152600401620019f39190620031f2565b6020604051808303816000875af115801562001a13573d6000803e3d6000fd5b505050506040513d601f19601f8201168201806040525081019062001a3991906200356b565b91505b60006001600160a01b0316846001600160a01b031663f0eb5e5489868151811062001a6b5762001a6b6200358b565b60200260200101516040518263ffffffff1660e01b815260040162001a919190620031f2565b602060405180830381865afa15801562001aaf573d6000803e3d6000fd5b505050506040513d601f19601f8201168201806040525081019062001ad591906200356b565b6001600160a01b03160362001bc257836001600160a01b031663454a03e088858151811062001b085762001b086200358b565b602002602001015184846040518463ffffffff1660e01b815260040162001b3293929190620035ee565b600060405180830381600087803b15801562001b4d57600080fd5b505af115801562001b62573d6000803e3d6000fd5b505050507f6680dc6d23915f02197cb4ac29f4b00443a14ca1cbe22d6b93045c32b98a82378988858151811062001b9d5762001b9d6200358b565b6020026020010151848460405162001bb9949392919062003615565b60405180910390a15b505060010162001897565b50505050505050565b3362001be162001291565b6001600160a01b03161462001274573360405163118cdaa760e01b81526004016200044d9190620031f2565b7f9016d09d72d40fdae2fd8ceac6b6234c7706214fd39c1cd1e609a0528c19930080546001600160a01b031981166001600160a01b03848116918217845560405192169182907f8be0079c531659141344cd1fd0a4f28419497f9722a3daafe3b4186f6b6457e090600090a3505050565b62001c88620030db565b600062001c946200170b565b600381015460405191925033916000916001600160a01b03169063189acdbd60e31b9062001cc7908590602401620031f2565b60408051601f198184030181529181526020820180516001600160e01b03166001600160e01b031990941693909317909252905162001d069062003140565b62001d13929190620036b3565b604051809103906000f08015801562001d30573d6000803e3d6000fd5b5090506000816001600160a01b031663bb6e15dc6040518163ffffffff1660e01b8152600401602060405180830381865afa15801562001d74573d6000803e3d6000fd5b505050506040513d601f19601f8201168201806040525081019062001d9a91906200356b565b6040805160e0810182526001600160a01b03808716825260058801541660208083019190915292935060009273__$6bcf1faf5c0920414dc51cd0daeb07e0f7$__92633af9cf1e92919082019062001df5908c018c620036d9565b8080601f01602080910402602001604051908101604052809392919081815260200183838082843760009201919091525050509082525060200162001e3e60408c018c620036d9565b8080601f01602080910402602001604051908101604052809392919081815260200183838082843760009201919091525050509082525060200162001e8a60808c0160608d0162003722565b60ff16815260200162001e9c62002e1d565b815260200162001eab62002f8f565b8152506040518263ffffffff1660e01b815260040162001ecc91906200378e565b602060405180830381865af415801562001eea573d6000803e3d6000fd5b505050506040513d601f19601f8201168201806040525081019062001f1091906200356b565b6040805160e08101825260068801546001600160a01b0390811682528781166020830181905260a0808d01358486015260c0808e01356060860152608085019290925260078b0154909216918301919091523090820152905163af15b96960e01b815291925060009173__$6dd86c1de004dc2dd48a17c9065be1de70$__9163af15b9699162001ff9919060040181516001600160a01b039081168252602080840151821690830152604080840151908301526060808401519083015260808084015182169083015260a08381015182169083015260c092830151169181019190915260e00190565b602060405180830381865af415801562002017573d6000803e3d6000fd5b505050506040513d601f19601f820116820180604052508101906200203d91906200356b565b9050600073__$e6502af67ab2c746a64bc3775a7b8857c1$__63cd6856ef604051806101400160405280866001600160a01b031681526020018c806101000190620020899190620036d9565b8080601f016020809104026020016040519081016040528093929190818152602001838380828437600092019190915250505090825250602001620020d36101208e018e620036d9565b8080601f016020809104026020016040519081016040528093929190818152602001838380828437600092019190915250505090825250602001620021216101608e016101408f01620031d2565b6001600160a01b03168152602001620021436101808e016101608f01620031d2565b6001600160a01b0390811682526101808e013560208301528a16604082018190526060820152608001620021806101c08e016101a08f0162003853565b63ffffffff1681526020016200219f6101e08e016101c08f0162003853565b63ffffffff168152506040518263ffffffff1660e01b8152600401620021c691906200387b565b602060405180830381865af4158015620021e4573d6000803e3d6000fd5b505050506040513d601f19601f820116820180604052508101906200220a91906200356b565b6040805160c08101825260088a01546001600160a01b0390811682528616602082015291925060009173__$9b19b7f7ded493586f11dad0d7ebc9ca26$__9163d88d8110919081016200226160e08f018f620036d9565b8080601f0160208091040260200160405190810160405280939291908181526020018383808284376000920191909152505050908252506001600160a01b038088166020830152898116604080840191909152908c16606090920191909152516001600160e01b031960e084901b168152620022e1919060040162003960565b602060405180830381865af4158015620022ff573d6000803e3d6000fd5b505050506040513d601f19601f820116820180604052508101906200232591906200356b565b9050600073__$3080f05ed92e5505050a1e3d528e8c5fcb$__63ea5fb3366040518060c001604052808c60010160009054906101000a90046001600160a01b03166001600160a01b03168152602001866001600160a01b031681526020018c60070160009054906101000a90046001600160a01b03166001600160a01b031681526020018e806101e00190620023bc9190620036d9565b8080601f016020809104026020016040519081016040528093929190818152602001838380828437600081840152601f19601f8201169050808301925050505050505081526020018e806102000190620024179190620036d9565b8080601f0160208091040260200160405190810160405280939291908181526020018383808284376000920191909152505050908252506001600160a01b038c166020909101526040516001600160e01b031960e084901b168152620024819190600401620039ce565b602060405180830381865af41580156200249f573d6000803e3d6000fd5b505050506040513d601f19601f82011682018060405250810190620024c591906200356b565b89549091506000906001600160a01b031663d0def52189620024e88f80620036d9565b6040518463ffffffff1660e01b8152600401620025089392919062003a50565b6020604051808303816000875af115801562002528573d6000803e3d6000fd5b505050506040513d601f19601f820116820180604052508101906200254e919062003a90565b60408051610180810182526001600160a01b038b1681526020810183905291925081016200257d8e80620036d9565b8080601f016020809104026020016040519081016040528093929190818152602001838380828437600081840152601f19601f820116905080830192505050505050508152602001886001600160a01b03168152602001876001600160a01b03168152602001866001600160a01b03168152602001846001600160a01b03168152602001856001600160a01b03168152602001836001600160a01b031681526020018a6001600160a01b031681526020018d608001358152602001600015158152509a508a8a600d0160008a6001600160a01b03166001600160a01b0316815260200190815260200160002060008201518160000160006101000a8154816001600160a01b0302191690836001600160a01b03160217905550602082015181600101556040820151816002019081620026b7919062003afb565b5060608201518160030160006101000a8154816001600160a01b0302191690836001600160a01b0316021790555060808201518160040160006101000a8154816001600160a01b0302191690836001600160a01b0316021790555060a08201518160050160006101000a8154816001600160a01b0302191690836001600160a01b0316021790555060c08201518160060160006101000a8154816001600160a01b0302191690836001600160a01b0316021790555060e08201518160070160006101000a8154816001600160a01b0302191690836001600160a01b031602179055506101008201518160080160006101000a8154816001600160a01b0302191690836001600160a01b031602179055506101208201518160090160006101000a8154816001600160a01b0302191690836001600160a01b0316021790555061014082015181600a015561016082015181600b0160006101000a81548160ff02191690831515021790555090505089600c018b90806001815401808255809150506001900390600052602060002090600c020160009091909190915060008201518160000160006101000a8154816001600160a01b0302191690836001600160a01b03160217905550602082015181600101556040820151816002019081620028a0919062003afb565b506060828101516003830180546001600160a01b03199081166001600160a01b0393841617909155608080860151600486018054841691851691909117905560a080870151600587018054851691861691909117905560c080880151600688018054861691871691909117905560e0808901516007890180548716918816919091179055610100890151600889018054871691881691909117905561012089015160098901805490961690871617909455610140880151600a88015561016090970151600b909601805460ff191696151596909617909555604080518f851681528d851660208201528c8516918101919091528a841694810194909452888316908401528d8216938301939093528516928101929092527f3163bceb365c85326c53476ceb0b49cfacb67f6d675e6eeb739c58ceb8b20bb6910160405180910390a150505050505050505050919050565b7ff0c57e16840df040f15088dc2f81fe391c3923bec73e23a9662efc9c229c6a0090565b600062002a21620029f1565b805490915060ff600160401b82041615906001600160401b031660008115801562002a495750825b90506000826001600160401b0316600114801562002a665750303b155b90508115801562002a75575080155b1562002a945760405163f92ee8a960e01b815260040160405180910390fd5b845467ffffffffffffffff19166001178555831562002abf57845460ff60401b1916600160401b1785555b62002aca3362003078565b600062002ad66200170b565b905062002ae76020880188620031d2565b81546001600160a01b0319166001600160a01b039190911617815562002b146040880160208901620031d2565b6001820180546001600160a01b0319166001600160a01b039290921691909117905562002b486060880160408901620031d2565b6002820180546001600160a01b0319166001600160a01b039290921691909117905562002b7c60e0880160c08901620031d2565b6003820180546001600160a01b0319166001600160a01b039290921691909117905562002bb06080880160608901620031d2565b6004820180546001600160a01b0319166001600160a01b039290921691909117905562002be460a0880160808901620031d2565b6005820180546001600160a01b0319166001600160a01b039290921691909117905562002c19610100880160e08901620031d2565b6006820180546001600160a01b0319166001600160a01b039290921691909117905562002c4d60c0880160a08901620031d2565b6007820180546001600160a01b0319166001600160a01b039290921691909117905562002c8361012088016101008901620031d2565b6008820180546001600160a01b0319166001600160a01b039290921691909117905562002cb961014088016101208901620031d2565b60099190910180546001600160a01b0319166001600160a01b039092169190911790558315620013bc57845460ff60401b19168555604051600181527fc7f505b2f371ae2175ee4913f4499e1f2633a7b5936321eed1cdaeb6115181d290602001620013b3565b600080826001600160a01b0316846001600160a01b03160362002d945760405162461bcd60e51b815260206004820152602560248201527f556e697377617056324c6962726172793a204944454e544943414c5f41444452604482015264455353455360d81b60648201526084016200044d565b826001600160a01b0316846001600160a01b03161062002db657828462002db9565b83835b90925090506001600160a01b03821662002e165760405162461bcd60e51b815260206004820152601e60248201527f556e697377617056324c6962726172793a205a45524f5f41444452455353000060448201526064016200044d565b9250929050565b6060600062002e2b6200170b565b600a81015490915060009062002e4390600262003bc7565b6001600160401b0381111562002e5d5762002e5d6200341b565b60405190808252806020026020018201604052801562002e87578160200160208202803683370190505b50905060005b600a83015481101562002f065782600a01818154811062002eb25762002eb26200358b565b9060005260206000200160009054906101000a90046001600160a01b031682828151811062002ee55762002ee56200358b565b6001600160a01b039092166020928302919091019091015260010162002e8d565b5030816001835162002f19919062003687565b8151811062002f2c5762002f2c6200358b565b60200260200101906001600160a01b031690816001600160a01b03168152505033816002835162002f5e919062003687565b8151811062002f715762002f716200358b565b6001600160a01b039092166020928302919091019091015292915050565b6060600062002f9d6200170b565b600b81015490915060009062002fb590600262003bc7565b6001600160401b0381111562002fcf5762002fcf6200341b565b60405190808252806020026020018201604052801562002ff9578160200160208202803683370190505b50905060005b600b83015481101562002f065782600b0181815481106200302457620030246200358b565b9060005260206000200160009054906101000a90046001600160a01b03168282815181106200305757620030576200358b565b6001600160a01b039092166020928302919091019091015260010162002fff565b620030826200308d565b6200170881620030b5565b62003097620030bf565b6200127457604051631afcd79f60e31b815260040160405180910390fd5b620016d06200308d565b6000620030cb620029f1565b54600160401b900460ff16919050565b604080516101808101825260008082526020820181905260609282018390529181018290526080810182905260a0810182905260c0810182905260e0810182905261010081018290526101208101829052610140810182905261016081019190915290565b6105bf8062003bde83390190565b6001600160a01b03169052565b6020808252825182820181905260009190848201906040850190845b818110156200319e5783516001600160a01b03168352928401929184019160010162003177565b50909695505050505050565b6001600160a01b03811681146200170857600080fd5b8035620031cd81620031aa565b919050565b600060208284031215620031e557600080fd5b813562000b8081620031aa565b6001600160a01b0391909116815260200190565b6000806000606084860312156200321c57600080fd5b83356200322981620031aa565b925060208401356200323b81620031aa565b9150604084013561ffff811681146200325357600080fd5b809150509250925092565b6000815180845260005b81811015620032865760208185018101518683018201520162003268565b506000602082860101526020601f19601f83011685010191505092915050565b60208152600062000b8060208301846200325e565b6000610180620032cd8484516200314e565b602083015160208501526040830151816040860152620032f0828601826200325e565b91505060608301516200330760608601826200314e565b5060808301516200331c60808601826200314e565b5060a08301516200333160a08601826200314e565b5060c08301516200334660c08601826200314e565b5060e08301516200335b60e08601826200314e565b506101008084015162003371828701826200314e565b50506101208084015162003388828701826200314e565b5050610140838101519085015261016080840151801515828701525b5090949350505050565b60208152600062000b806020830184620032bb565b600060208284031215620033d657600080fd5b81356001600160401b03811115620033ed57600080fd5b8201610220818503121562000b8057600080fd5b600061014082840312156200341557600080fd5b50919050565b634e487b7160e01b600052604160045260246000fd5b600060208083850312156200344557600080fd5b82356001600160401b03808211156200345d57600080fd5b818501915085601f8301126200347257600080fd5b8135818111156200348757620034876200341b565b8060051b604051601f19603f83011681018181108582111715620034af57620034af6200341b565b604052918252848201925083810185019188831115620034ce57600080fd5b938501935b82851015620034f757620034e785620031c0565b84529385019392850192620034d3565b98975050505050505050565b600060208083016020845280855180835260408601915060408160051b87010192506020870160005b828110156200355e57603f198886030184526200354b858351620032bb565b945092850192908501906001016200352c565b5092979650505050505050565b6000602082840312156200357e57600080fd5b815162000b8081620031aa565b634e487b7160e01b600052603260045260246000fd5b9182526001600160a01b0316602082015260400190565b600181811c90821680620035cd57607f821691505b6020821081036200341557634e487b7160e01b600052602260045260246000fd5b6001600160a01b03938416815291909216602082015261ffff909116604082015260600190565b6001600160a01b03948516815292841660208401529216604082015261ffff909116606082015260800190565b602080825260159082015274496e76616c6964206167656e74206164647265737360581b604082015260600190565b634e487b7160e01b600052601160045260246000fd5b818103818111156200128b576200128b62003671565b634e487b7160e01b600052603160045260246000fd5b6001600160a01b0383168152604060208201819052600090620003d9908301846200325e565b6000808335601e19843603018112620036f157600080fd5b8301803591506001600160401b038211156200370c57600080fd5b60200191503681900382131562002e1657600080fd5b6000602082840312156200373557600080fd5b813560ff8116811462000b8057600080fd5b60008151808452602080850194506020840160005b83811015620037835781516001600160a01b0316875295820195908201906001016200375c565b509495945050505050565b602080825282516001600160a01b031682820152820151600090620037b760408401826200314e565b50604083015160e06060840152620037d46101008401826200325e565b90506060840151601f1980858403016080860152620037f483836200325e565b9250608086015191506200380d60a086018360ff169052565b60a08601519150808584030160c08601526200382a838362003747565b925060c08601519150808584030160e0860152506200384a828262003747565b95945050505050565b6000602082840312156200386657600080fd5b813563ffffffff8116811462000b8057600080fd5b602081526200388f6020820183516200314e565b60006020830151610140806040850152620038af6101608501836200325e565b91506040850151601f19858403016060860152620038ce83826200325e565b9250506060850151620038e560808601826200314e565b506080850151620038fa60a08601826200314e565b5060a085015160c085015260c08501516200391960e08601826200314e565b5060e085015161010062003930818701836200314e565b86015190506101206200394a8682018363ffffffff169052565b86015163ffffffff8116838701529050620033a4565b60208152600060018060a01b03808451166020840152806020850151166040840152604084015160c060608501526200399d60e08501826200325e565b90508160608601511660808501528160808601511660a08501528160a08601511660c0850152809250505092915050565b60208152600060018060a01b03808451166020840152806020850151166040840152806040850151166060840152606084015160c0608085015262003a1760e08501826200325e565b90506080850151601f198583030160a086015262003a3682826200325e565b9150508160a08601511660c0850152809250505092915050565b6001600160a01b03841681526040602082018190528101829052818360608301376000818301606090810191909152601f909201601f1916010192915050565b60006020828403121562003aa357600080fd5b5051919050565b601f82111562003af6576000816000526020600020601f850160051c8101602086101562003ad55750805b601f850160051c820191505b81811015620013bc5782815560010162003ae1565b505050565b81516001600160401b0381111562003b175762003b176200341b565b62003b2f8162003b288454620035b8565b8462003aaa565b602080601f83116001811462003b67576000841562003b4e5750858301515b600019600386901b1c1916600185901b178555620013bc565b600085815260208120601f198616915b8281101562003b985788860151825594840194600190910190840162003b77565b508582101562003bb75787850151600019600388901b60f8161c191681555b5050505050600190811b01905550565b808201808211156200128b576200128b6200367156fe60a06040526040516105bf3803806105bf83398101604081905261002291610387565b61002c828261003e565b506001600160a01b031660805261047e565b610047826100fe565b6040516001600160a01b038316907f1cf3b03a6cf19fa2baba4df148e9dcabedea7f8a5c07840e207e5c089be95d3e90600090a28051156100f2576100ed826001600160a01b0316635c60da1b6040518163ffffffff1660e01b8152600401602060405180830381865afa1580156100c3573d6000803e3d6000fd5b505050506040513d601f19601f820116820180604052508101906100e79190610447565b82610211565b505050565b6100fa610288565b5050565b806001600160a01b03163b60000361013957604051631933b43b60e21b81526001600160a01b03821660048201526024015b60405180910390fd5b807fa3f0ad74e5423aebfd80d3ef4346578335a9a72aeaee59ff6cb3582b35133d5080546001600160a01b0319166001600160a01b0392831617905560408051635c60da1b60e01b81529051600092841691635c60da1b9160048083019260209291908290030181865afa1580156101b5573d6000803e3d6000fd5b505050506040513d601f19601f820116820180604052508101906101d99190610447565b9050806001600160a01b03163b6000036100fa57604051634c9c8ce360e01b81526001600160a01b0382166004820152602401610130565b6060600080846001600160a01b03168460405161022e9190610462565b600060405180830381855af49150503d8060008114610269576040519150601f19603f3d011682016040523d82523d6000602084013e61026e565b606091505b50909250905061027f8583836102a9565b95945050505050565b34156102a75760405163b398979f60e01b815260040160405180910390fd5b565b6060826102be576102b982610308565b610301565b81511580156102d557506001600160a01b0384163b155b156102fe57604051639996b31560e01b81526001600160a01b0385166004820152602401610130565b50805b9392505050565b8051156103185780518082602001fd5b604051630a12f52160e11b815260040160405180910390fd5b80516001600160a01b038116811461034857600080fd5b919050565b634e487b7160e01b600052604160045260246000fd5b60005b8381101561037e578181015183820152602001610366565b50506000910152565b6000806040838503121561039a57600080fd5b6103a383610331565b60208401519092506001600160401b03808211156103c057600080fd5b818501915085601f8301126103d457600080fd5b8151818111156103e6576103e661034d565b604051601f8201601f19908116603f0116810190838211818310171561040e5761040e61034d565b8160405282815288602084870101111561042757600080fd5b610438836020830160208801610363565b80955050505050509250929050565b60006020828403121561045957600080fd5b61030182610331565b60008251610474818460208701610363565b9190910192915050565b6080516101276104986000396000601e01526101276000f3fe6080604052600a600c565b005b60186014601a565b60a0565b565b60007f00000000000000000000000000000000000000000000000000000000000000006001600160a01b0316635c60da1b6040518163ffffffff1660e01b8152600401602060405180830381865afa1580156079573d6000803e3d6000fd5b505050506040513d601f19601f82011682018060405250810190609b919060c3565b905090565b3660008037600080366000845af43d6000803e80801560be573d6000f35b3d6000fd5b60006020828403121560d457600080fd5b81516001600160a01b038116811460ea57600080fd5b939250505056fea26469706673582212205c8a2fcdc6f79c1d43b849e2b03f494652cee222b2ec86046b7caaa1405f985f64736f6c63430008180033a26469706673582212204dfc22730329db2deb4ffcceb874d348b6c1e5e8d24cd57d995c98599f452e5164736f6c63430008180033",
  "linkReferences": {
    "contracts/buildings/library/BuildingAutoCompounder.sol": {
      "BuildingAutoCompounderLib": [
        {
          "length": 20,
          "start": 8866
        }
      ]
    },
    "contracts/buildings/library/BuildingGovernance.sol": {
      "BuildingGovernanceLib": [
        {
          "length": 20,
          "start": 8620
        }
      ]
    },
    "contracts/buildings/library/BuildingToken.sol": {
      "BuildingTokenLib": [
        {
          "length": 20,
          "start": 7487
        }
      ]
    },
    "contracts/buildings/library/BuildingTreasury.sol": {
      "BuildingTreasuryLib": [
        {
          "length": 20,
          "start": 7922
        }
      ]
    },
    "contracts/buildings/library/BuildingVault.sol": {
      "BuildingVaultLib": [
        {
          "length": 20,
          "start": 8122
        }
      ]
    }
  },
  "deployedLinkReferences": {
    "contracts/buildings/library/BuildingAutoCompounder.sol": {
      "BuildingAutoCompounderLib": [
        {
          "length": 20,
          "start": 8636
        }
      ]
    },
    "contracts/buildings/library/BuildingGovernance.sol": {
      "BuildingGovernanceLib": [
        {
          "length": 20,
          "start": 8390
        }
      ]
    },
    "contracts/buildings/library/BuildingToken.sol": {
      "BuildingTokenLib": [
        {
          "length": 20,
          "start": 7257
        }
      ]
    },
    "contracts/buildings/library/BuildingTreasury.sol": {
      "BuildingTreasuryLib": [
        {
          "length": 20,
          "start": 7692
        }
      ]
    },
    "contracts/buildings/library/BuildingVault.sol": {
      "BuildingVaultLib": [
        {
          "length": 20,
          "start": 7892
        }
      ]
    }
  }
}