{
  "_format": "hh-sol-artifact-1",
  "contractName": "BuildingFactoryMock",
  "sourceName": "contracts/buildings/mock/BuildingFactoryMock.sol",
  "abi": [
    {
      "inputs": [],
      "name": "InvalidInitialization",
      "type": "error"
    },
    {
      "inputs": [],
      "name": "NotInitializing",
      "type": "error"
    },
    {
      "inputs": [
        {
          "internalType": "address",
          "name": "owner",
          "type": "address"
        }
      ],
      "name": "OwnableInvalidOwner",
      "type": "error"
    },
    {
      "inputs": [
        {
          "internalType": "address",
          "name": "account",
          "type": "address"
        }
      ],
      "name": "OwnableUnauthorizedAccount",
      "type": "error"
    },
    {
      "anonymous": false,
      "inputs": [
        {
          "indexed": false,
          "internalType": "address",
          "name": "buildingAddress",
          "type": "address"
        }
      ],
      "name": "BuildingConfigured",
      "type": "event"
    },
    {
      "anonymous": false,
      "inputs": [
        {
          "indexed": false,
          "internalType": "address",
          "name": "building",
          "type": "address"
        },
        {
          "indexed": false,
          "internalType": "address",
          "name": "module",
          "type": "address"
        }
      ],
      "name": "ComplianceModuleAdded",
      "type": "event"
    },
    {
      "anonymous": false,
      "inputs": [
        {
          "indexed": false,
          "internalType": "address",
          "name": "building",
          "type": "address"
        },
        {
          "indexed": false,
          "internalType": "address",
          "name": "wallet",
          "type": "address"
        },
        {
          "indexed": false,
          "internalType": "address",
          "name": "identity",
          "type": "address"
        },
        {
          "indexed": false,
          "internalType": "uint16",
          "name": "country",
          "type": "uint16"
        }
      ],
      "name": "IdentityRegistered",
      "type": "event"
    },
    {
      "anonymous": false,
      "inputs": [
        {
          "indexed": false,
          "internalType": "uint64",
          "name": "version",
          "type": "uint64"
        }
      ],
      "name": "Initialized",
      "type": "event"
    },
    {
      "anonymous": false,
      "inputs": [
        {
          "indexed": false,
          "internalType": "address",
          "name": "buildingAddress",
          "type": "address"
        },
        {
          "indexed": false,
          "internalType": "address",
          "name": "erc3643Token",
          "type": "address"
        },
        {
          "indexed": false,
          "internalType": "address",
          "name": "treasury",
          "type": "address"
        },
        {
          "indexed": false,
          "internalType": "address",
          "name": "vault",
          "type": "address"
        },
        {
          "indexed": false,
          "internalType": "address",
          "name": "governance",
          "type": "address"
        },
        {
          "indexed": false,
          "internalType": "address",
          "name": "initialOwner",
          "type": "address"
        },
        {
          "indexed": false,
          "internalType": "address",
          "name": "autoCompounder",
          "type": "address"
        }
      ],
      "name": "NewBuilding",
      "type": "event"
    },
    {
      "anonymous": false,
      "inputs": [
        {
          "indexed": true,
          "internalType": "address",
          "name": "previousOwner",
          "type": "address"
        },
        {
          "indexed": true,
          "internalType": "address",
          "name": "newOwner",
          "type": "address"
        }
      ],
      "name": "OwnershipTransferred",
      "type": "event"
    },
    {
      "anonymous": false,
      "inputs": [
        {
          "indexed": false,
          "internalType": "address",
          "name": "agent",
          "type": "address"
        }
      ],
      "name": "RegistryAgentRemoved",
      "type": "event"
    },
    {
      "anonymous": false,
      "inputs": [
        {
          "indexed": false,
          "internalType": "address[]",
          "name": "agents",
          "type": "address[]"
        }
      ],
      "name": "RegistryAgentsAdded",
      "type": "event"
    },
    {
      "inputs": [
        {
          "internalType": "address[]",
          "name": "agents",
          "type": "address[]"
        }
      ],
      "name": "addRegistryAgents",
      "outputs": [],
      "stateMutability": "nonpayable",
      "type": "function"
    },
    {
      "inputs": [
        {
          "internalType": "address",
          "name": "buildingAddress",
          "type": "address"
        }
      ],
      "name": "configNewBuilding",
      "outputs": [],
      "stateMutability": "nonpayable",
      "type": "function"
    },
    {
      "inputs": [
        {
          "internalType": "address",
          "name": "wallet",
          "type": "address"
        }
      ],
      "name": "deployIdentityForWallet",
      "outputs": [
        {
          "internalType": "address",
          "name": "",
          "type": "address"
        }
      ],
      "stateMutability": "nonpayable",
      "type": "function"
    },
    {
      "inputs": [
        {
          "internalType": "address",
          "name": "buildingAddress",
          "type": "address"
        }
      ],
      "name": "getBuildingDetails",
      "outputs": [
        {
          "components": [
            {
              "internalType": "address",
              "name": "addr",
              "type": "address"
            },
            {
              "internalType": "uint256",
              "name": "nftId",
              "type": "uint256"
            },
            {
              "internalType": "string",
              "name": "tokenURI",
              "type": "string"
            },
            {
              "internalType": "address",
              "name": "auditRegistry",
              "type": "address"
            },
            {
              "internalType": "address",
              "name": "erc3643Token",
              "type": "address"
            },
            {
              "internalType": "address",
              "name": "treasury",
              "type": "address"
            },
            {
              "internalType": "address",
              "name": "governance",
              "type": "address"
            },
            {
              "internalType": "address",
              "name": "vault",
              "type": "address"
            },
            {
              "internalType": "address",
              "name": "autoCompounder",
              "type": "address"
            },
            {
              "internalType": "address",
              "name": "initialOwner",
              "type": "address"
            },
            {
              "internalType": "uint256",
              "name": "tokenMintAmount",
              "type": "uint256"
            },
            {
              "internalType": "bool",
              "name": "isConfigured",
              "type": "bool"
            }
          ],
          "internalType": "struct BuildingFactoryStorage.BuildingDetails",
          "name": "",
          "type": "tuple"
        }
      ],
      "stateMutability": "view",
      "type": "function"
    },
    {
      "inputs": [],
      "name": "getBuildingList",
      "outputs": [
        {
          "components": [
            {
              "internalType": "address",
              "name": "addr",
              "type": "address"
            },
            {
              "internalType": "uint256",
              "name": "nftId",
              "type": "uint256"
            },
            {
              "internalType": "string",
              "name": "tokenURI",
              "type": "string"
            },
            {
              "internalType": "address",
              "name": "auditRegistry",
              "type": "address"
            },
            {
              "internalType": "address",
              "name": "erc3643Token",
              "type": "address"
            },
            {
              "internalType": "address",
              "name": "treasury",
              "type": "address"
            },
            {
              "internalType": "address",
              "name": "governance",
              "type": "address"
            },
            {
              "internalType": "address",
              "name": "vault",
              "type": "address"
            },
            {
              "internalType": "address",
              "name": "autoCompounder",
              "type": "address"
            },
            {
              "internalType": "address",
              "name": "initialOwner",
              "type": "address"
            },
            {
              "internalType": "uint256",
              "name": "tokenMintAmount",
              "type": "uint256"
            },
            {
              "internalType": "bool",
              "name": "isConfigured",
              "type": "bool"
            }
          ],
          "internalType": "struct BuildingFactoryStorage.BuildingDetails[]",
          "name": "",
          "type": "tuple[]"
        }
      ],
      "stateMutability": "view",
      "type": "function"
    },
    {
      "inputs": [
        {
          "internalType": "address",
          "name": "wallet",
          "type": "address"
        }
      ],
      "name": "getIdentity",
      "outputs": [
        {
          "internalType": "contract IIdentity",
          "name": "",
          "type": "address"
        }
      ],
      "stateMutability": "view",
      "type": "function"
    },
    {
      "inputs": [],
      "name": "getRegistryAgents",
      "outputs": [
        {
          "internalType": "address[]",
          "name": "",
          "type": "address[]"
        }
      ],
      "stateMutability": "view",
      "type": "function"
    },
    {
      "inputs": [
        {
          "components": [
            {
              "internalType": "address",
              "name": "nft",
              "type": "address"
            },
            {
              "internalType": "address",
              "name": "uniswapRouter",
              "type": "address"
            },
            {
              "internalType": "address",
              "name": "uniswapFactory",
              "type": "address"
            },
            {
              "internalType": "address",
              "name": "identityFactory",
              "type": "address"
            },
            {
              "internalType": "address",
              "name": "trexFactory",
              "type": "address"
            },
            {
              "internalType": "address",
              "name": "usdc",
              "type": "address"
            },
            {
              "internalType": "address",
              "name": "buildingBeacon",
              "type": "address"
            },
            {
              "internalType": "address",
              "name": "treasuryBeacon",
              "type": "address"
            },
            {
              "internalType": "address",
              "name": "governanceBeacon",
              "type": "address"
            },
            {
              "internalType": "address",
              "name": "upkeeper",
              "type": "address"
            }
          ],
          "internalType": "struct BuildingFactoryInit",
          "name": "init",
          "type": "tuple"
        }
      ],
      "name": "initialize",
      "outputs": [],
      "stateMutability": "nonpayable",
      "type": "function"
    },
    {
      "inputs": [
        {
          "components": [
            {
              "internalType": "string",
              "name": "tokenURI",
              "type": "string"
            },
            {
              "internalType": "string",
              "name": "tokenName",
              "type": "string"
            },
            {
              "internalType": "string",
              "name": "tokenSymbol",
              "type": "string"
            },
            {
              "internalType": "uint8",
              "name": "tokenDecimals",
              "type": "uint8"
            },
            {
              "internalType": "uint256",
              "name": "tokenMintAmount",
              "type": "uint256"
            },
            {
              "internalType": "uint256",
              "name": "treasuryReserveAmount",
              "type": "uint256"
            },
            {
              "internalType": "uint256",
              "name": "treasuryNPercent",
              "type": "uint256"
            },
            {
              "internalType": "string",
              "name": "governanceName",
              "type": "string"
            },
            {
              "internalType": "string",
              "name": "vaultShareTokenName",
              "type": "string"
            },
            {
              "internalType": "string",
              "name": "vaultShareTokenSymbol",
              "type": "string"
            },
            {
              "internalType": "address",
              "name": "vaultFeeReceiver",
              "type": "address"
            },
            {
              "internalType": "address",
              "name": "vaultFeeToken",
              "type": "address"
            },
            {
              "internalType": "uint256",
              "name": "vaultFeePercentage",
              "type": "uint256"
            },
            {
              "internalType": "uint32",
              "name": "vaultCliff",
              "type": "uint32"
            },
            {
              "internalType": "uint32",
              "name": "vaultUnlockDuration",
              "type": "uint32"
            },
            {
              "internalType": "string",
              "name": "aTokenName",
              "type": "string"
            },
            {
              "internalType": "string",
              "name": "aTokenSymbol",
              "type": "string"
            }
          ],
          "internalType": "struct BuildingFactoryStorage.NewBuildingDetails",
          "name": "details",
          "type": "tuple"
        }
      ],
      "name": "newBuilding",
      "outputs": [
        {
          "components": [
            {
              "internalType": "address",
              "name": "addr",
              "type": "address"
            },
            {
              "internalType": "uint256",
              "name": "nftId",
              "type": "uint256"
            },
            {
              "internalType": "string",
              "name": "tokenURI",
              "type": "string"
            },
            {
              "internalType": "address",
              "name": "auditRegistry",
              "type": "address"
            },
            {
              "internalType": "address",
              "name": "erc3643Token",
              "type": "address"
            },
            {
              "internalType": "address",
              "name": "treasury",
              "type": "address"
            },
            {
              "internalType": "address",
              "name": "governance",
              "type": "address"
            },
            {
              "internalType": "address",
              "name": "vault",
              "type": "address"
            },
            {
              "internalType": "address",
              "name": "autoCompounder",
              "type": "address"
            },
            {
              "internalType": "address",
              "name": "initialOwner",
              "type": "address"
            },
            {
              "internalType": "uint256",
              "name": "tokenMintAmount",
              "type": "uint256"
            },
            {
              "internalType": "bool",
              "name": "isConfigured",
              "type": "bool"
            }
          ],
          "internalType": "struct BuildingFactoryStorage.BuildingDetails",
          "name": "buildingDetails",
          "type": "tuple"
        }
      ],
      "stateMutability": "nonpayable",
      "type": "function"
    },
    {
      "inputs": [],
      "name": "owner",
      "outputs": [
        {
          "internalType": "address",
          "name": "",
          "type": "address"
        }
      ],
      "stateMutability": "view",
      "type": "function"
    },
    {
      "inputs": [
        {
          "internalType": "address",
          "name": "buildingAddress",
          "type": "address"
        },
        {
          "internalType": "address",
          "name": "wallet",
          "type": "address"
        },
        {
          "internalType": "uint16",
          "name": "country",
          "type": "uint16"
        }
      ],
      "name": "registerIdentity",
      "outputs": [],
      "stateMutability": "nonpayable",
      "type": "function"
    },
    {
      "inputs": [
        {
          "internalType": "address",
          "name": "agent",
          "type": "address"
        }
      ],
      "name": "removeRegistryAgent",
      "outputs": [],
      "stateMutability": "nonpayable",
      "type": "function"
    },
    {
      "inputs": [],
      "name": "renounceOwnership",
      "outputs": [],
      "stateMutability": "nonpayable",
      "type": "function"
    },
    {
      "inputs": [
        {
          "internalType": "address",
          "name": "newOwner",
          "type": "address"
        }
      ],
      "name": "transferOwnership",
      "outputs": [],
      "stateMutability": "nonpayable",
      "type": "function"
    },
    {
      "inputs": [],
      "name": "version",
      "outputs": [
        {
          "internalType": "string",
          "name": "",
          "type": "string"
        }
      ],
      "stateMutability": "pure",
      "type": "function"
    }
  ],
  "bytecode": "0x60806040523480156200001157600080fd5b506200001c62000022565b620000d6565b7ff0c57e16840df040f15088dc2f81fe391c3923bec73e23a9662efc9c229c6a00805468010000000000000000900460ff1615620000735760405163f92ee8a960e01b815260040160405180910390fd5b80546001600160401b0390811614620000d35780546001600160401b0319166001600160401b0390811782556040519081527fc7f505b2f371ae2175ee4913f4499e1f2633a7b5936321eed1cdaeb6115181d29060200160405180910390a15b50565b61406a80620000e66000396000f3fe60806040523480156200001157600080fd5b5060043610620000e65760003560e01c806370fb5257116200009257806370fb525714620001c7578063715018a614620001de578063899a0ebe14620001e85780638da5cb5b14620001ff578063c6bb9e961462000209578063d5f51ccd1462000220578063db652ec81462000237578063f2fde38b146200025057600080fd5b806240c4b014620000eb5780632fea7b81146200010d5780633a4338cf14620001335780633e8e6e8b146200014c578063454a03e0146200016357806354fd4d50146200017a578063665fa4a114620001a1575b600080fd5b620000f562000267565b60405162000104919062002fec565b60405180910390f35b620001246200011e36600462003063565b620002d7565b6040516200010491906200308a565b6200014a6200014436600462003063565b62000366565b005b620001246200015d36600462003063565b62000a7e565b6200014a620001743660046200309e565b62000ae1565b60408051808201825260038152620322e360ec1b602082015290516200010491906200313e565b620001b8620001b236600462003063565b62000e48565b60405162000104919062003246565b6200014a620001d836600462003063565b62000fbd565b6200014a62001153565b620001b8620001f93660046200325b565b6200116b565b6200012462001186565b6200014a6200021a36600462003299565b620011b4565b6200014a62000231366004620032c9565b620012b9565b6200024162001413565b6040516200010491906200339b565b6200014a6200026136600462003063565b620015bb565b606060006200027562001600565b600a8101805460408051602080840282018101909252828152939450830182828015620002cc57602002820191906000526020600020905b81546001600160a01b03168152600190910190602001808311620002ad575b505050505091505090565b600080620002e462001600565b600480820154604051632fea7b8160e01b81529293506001600160a01b0316918291632fea7b81916200031a918891016200308a565b602060405180830381865afa15801562000338573d6000803e3d6000fd5b505050506040513d601f19601f820116820180604052508101906200035e919062003403565b949350505050565b60006200037262001600565b6001600160a01b038084166000908152600d83016020526040902080549293509116620003db5760405162461bcd60e51b8152602060048201526012602482015271109d5a5b191a5b99c81b9bdd08199bdd5b9960721b60448201526064015b60405180910390fd5b600b81015460ff1615620004325760405162461bcd60e51b815260206004820152601b60248201527f4275696c64696e6720616c726561647920636f6e6669677572656400000000006044820152606401620003d2565b60098101546001600160a01b03163314620004a25760405162461bcd60e51b815260206004820152602960248201527f4f6e6c7920746865206f776e65722063616e20636f6e66696775726520746865604482015268206275696c64696e6760b81b6064820152608401620003d2565b60408051600580825260c082019092526000916020820160a080368337505050600983015481519192506001600160a01b0316908290600090620004ea57620004ea62003423565b6001600160a01b039283166020918202929092010152600180850154835192169183919081106200051f576200051f62003423565b6001600160a01b039283166020918202929092010152600783015482519116908290600290811062000555576200055562003423565b6001600160a01b03928316602091820292909201015260088301548251911690829060039081106200058b576200058b62003423565b6001600160a01b039283166020918202929092010152600284015460048401546007860154620005c49392831692918216911662001624565b81600481518110620005da57620005da62003423565b6001600160a01b0392831660209182029290920101526004830154620006049186911683620016f6565b6004828101546009840154600a8501546040516340c10f1960e01b81526001600160a01b0392831694810194909452602484015216906340c10f1990604401600060405180830381600087803b1580156200065e57600080fd5b505af115801562000673573d6000803e3d6000fd5b505050600583015460068401546040516260360760e81b81526001600160a01b039283169350636036070092620006af9216906004016200308a565b600060405180830381600087803b158015620006ca57600080fd5b505af1158015620006df573d6000803e3d6000fd5b505050600583015460078401546040516312b5ad0160e11b81526001600160a01b03928316935063256b5a02926200071c9216906004016200308a565b600060405180830381600087803b1580156200073757600080fd5b505af11580156200074c573d6000803e3d6000fd5b50505060078301546005840154604051632f2ff15d60e01b81526001600160a01b039283169350632f2ff15d92620007ac927f477fc23fb51bb5d5aa814872a393b0e4f35d0916c7503c0fd96584681070d4109291169060040162003439565b600060405180830381600087803b158015620007c757600080fd5b505af1158015620007dc573d6000803e3d6000fd5b50505060038301546006840154604051632f2ff15d60e01b81526001600160a01b039283169350632f2ff15d926200083c927f71840dc4906352362b0cdaf79870196c8e42acafade72d5d5a6d59291253ceb19291169060040162003439565b600060405180830381600087803b1580156200085757600080fd5b505af11580156200086c573d6000803e3d6000fd5b50505060038301546009840154604051632f2ff15d60e01b81526001600160a01b039283169350632f2ff15d92620008ad9260009291169060040162003439565b600060405180830381600087803b158015620008c857600080fd5b505af1158015620008dd573d6000803e3d6000fd5b5050506007830154600984015460405163f2fde38b60e01b81526001600160a01b03928316935063f2fde38b926200091a9216906004016200308a565b600060405180830381600087803b1580156200093557600080fd5b505af11580156200094a573d6000803e3d6000fd5b5050506008830154600984015460405163f2fde38b60e01b81526001600160a01b03928316935063f2fde38b92620009879216906004016200308a565b600060405180830381600087803b158015620009a257600080fd5b505af1158015620009b7573d6000803e3d6000fd5b5050505060098301546008830154604051630be2f08b60e31b81526001600160a01b039182166004820152634e71d92d60e01b6024820152911690635f17845890604401600060405180830381600087803b15801562000a1657600080fd5b505af115801562000a2b573d6000803e3d6000fd5b505050600b8301805460ff19166001179055506040517f13e082287ff01b095c7a56d08c6e81bc08794d833c506cd9d4d93b4cd88dc6209062000a709086906200308a565b60405180910390a150505050565b60008062000a8b62001600565b6004808201546040516316caac1b60e21b81529293506001600160a01b0316918291635b2ab06c9162000ac1918891016200308a565b6020604051808303816000875af115801562000338573d6000803e3d6000fd5b600062000aed62001600565b6001600160a01b038086166000908152600d83016020908152604080832081516101808101835281549095168552600181015492850192909252600282018054959650929491929084019162000b439062003450565b80601f016020809104026020016040519081016040528092919081815260200182805462000b719062003450565b801562000bc25780601f1062000b965761010080835404028352916020019162000bc2565b820191906000526020600020905b81548152906001019060200180831162000ba457829003601f168201915b505050918352505060038201546001600160a01b039081166020808401919091526004808501548316604080860191909152600586015484166060860152600686015484166080808701919091526007870154851660a08701526008870154851660c08701526009870154851660e0870152600a870154610100870152600b9096015460ff16151561012090950194909452938501518785015484516304d3863d60e21b815294519697509095908316946000949387169363134e18f49381830193909290918290030181865afa15801562000ca2573d6000803e3d6000fd5b505050506040513d601f19601f8201168201806040525081019062000cc8919062003403565b90506000826001600160a01b0316632fea7b81896040518263ffffffff1660e01b815260040162000cfa91906200308a565b602060405180830381865afa15801562000d18573d6000803e3d6000fd5b505050506040513d601f19601f8201168201806040525081019062000d3e919062003403565b90506001600160a01b03811662000d985760405162461bcd60e51b815260206004820152601d60248201527f4964656e7469747920666f722077616c6c6574206e6f7420666f756e640000006044820152606401620003d2565b60405163022a501f60e51b81526001600160a01b0383169063454a03e09062000dca908b9085908c9060040162003486565b600060405180830381600087803b15801562000de557600080fd5b505af115801562000dfa573d6000803e3d6000fd5b505050507f6680dc6d23915f02197cb4ac29f4b00443a14ca1cbe22d6b93045c32b98a82378989838a60405162000e359493929190620034ad565b60405180910390a1505050505050505050565b62000e5262002f6c565b600062000e5e62001600565b6001600160a01b038085166000908152600d830160209081526040918290208251610180810184528154909416845260018101549184019190915260028101805494955092939092918401919062000eb69062003450565b80601f016020809104026020016040519081016040528092919081815260200182805462000ee49062003450565b801562000f355780601f1062000f095761010080835404028352916020019162000f35565b820191906000526020600020905b81548152906001019060200180831162000f1757829003601f168201915b505050918352505060038201546001600160a01b0390811660208301526004830154811660408301526005830154811660608301526006830154811660808301526007830154811660a08301526008830154811660c083015260098301541660e0820152600a820154610100820152600b9091015460ff161515610120909101529392505050565b62000fc762001a67565b6001600160a01b03811662000ff05760405162461bcd60e51b8152600401620003d290620034da565b600062000ffc62001600565b9050600a810160005b81548110156200114d57836001600160a01b03168282815481106200102e576200102e62003423565b6000918252602090912001546001600160a01b0316036200114457815482906200105b906001906200351f565b815481106200106e576200106e62003423565b9060005260206000200160009054906101000a90046001600160a01b0316828281548110620010a157620010a162003423565b9060005260206000200160006101000a8154816001600160a01b0302191690836001600160a01b0316021790555081805480620010e257620010e262003535565b600082815260209020810160001990810180546001600160a01b03191690550190556040517ffd640fa9b46f14c0708e03114f4007b6a72edb4389a12da691527d9ffb6d0de290620011369086906200308a565b60405180910390a16200114d565b60010162001005565b50505050565b6200115d62001a67565b62001169600062001a9e565b565b6200117562002f6c565b620011808262001b0f565b92915050565b7f9016d09d72d40fdae2fd8ceac6b6234c7706214fd39c1cd1e609a0528c199300546001600160a01b031690565b6000620011c062002882565b805490915060ff600160401b82041615906001600160401b0316600081158015620011e85750825b90506000826001600160401b03166001148015620012055750303b155b90508115801562001214575080155b15620012335760405163f92ee8a960e01b815260040160405180910390fd5b845467ffffffffffffffff1916600117855583156200125e57845460ff60401b1916600160401b1785555b6200126986620028a6565b8315620012b157845460ff60401b19168555604051600181527fc7f505b2f371ae2175ee4913f4499e1f2633a7b5936321eed1cdaeb6115181d2906020015b60405180910390a15b505050505050565b620012c362001a67565b601e815111156200130a5760405162461bcd60e51b815260206004820152601060248201526f06d6178206167656e74732069732033360841b6044820152606401620003d2565b60006200131662001600565b905060005b8251811015620013d55760006001600160a01b031683828151811062001345576200134562003423565b60200260200101516001600160a01b031603620013765760405162461bcd60e51b8152600401620003d290620034da565b81600a018382815181106200138f576200138f62003423565b60209081029190910181015182546001808201855560009485529290932090920180546001600160a01b0319166001600160a01b0390931692909217909155016200131b565b507f841421fc38b9d27338042dbea7f73d4c58c28c36fc74c5a5aa3d363043e76fae8260405162001407919062002fec565b60405180910390a15050565b606060006200142162001600565b600c810180546040805160208084028201810190925282815293945060009084015b82821015620015b15760008481526020908190206040805161018081018252600c860290920180546001600160a01b03168352600181015493830193909352600283018054929392918401916200149a9062003450565b80601f0160208091040260200160405190810160405280929190818152602001828054620014c89062003450565b8015620015195780601f10620014ed5761010080835404028352916020019162001519565b820191906000526020600020905b815481529060010190602001808311620014fb57829003601f168201915b505050918352505060038201546001600160a01b039081166020808401919091526004840154821660408401526005840154821660608401526006840154821660808401526007840154821660a08401526008840154821660c0840152600984015490911660e0830152600a830154610100830152600b9092015460ff16151561012090910152908252600192909201910162001443565b5050505091505090565b620015c562001a67565b6001600160a01b038116620015f2576000604051631e4fbdf760e01b8152600401620003d291906200308a565b620015fd8162001a9e565b50565b7f0f40dde8b99b0722537b774c6ef775b5e5a0af035d95bf9802cd87411f806f0090565b600080600062001635858562002bb1565b6040516001600160601b0319606084811b8216602084015283901b1660348201529193509150869060480160405160208183030381529060405280519060200120604051602001620016d49291906001600160f81b0319815260609290921b6001600160601b031916600183015260158201527fdea1222ed22817f96ed20157be156c80808da15c079040548d4487a79708fe8e603582015260550190565b60408051601f1981840301815291905280516020909101209695505050505050565b60006200170262001600565b905060008160040160009054906101000a90046001600160a01b031690506000846001600160a01b031663134e18f46040518163ffffffff1660e01b8152600401602060405180830381865afa15801562001761573d6000803e3d6000fd5b505050506040513d601f19601f8201168201806040525081019062001787919062003403565b905060005b845181101562001a5e576000836001600160a01b0316632fea7b81878481518110620017bc57620017bc62003423565b60200260200101516040518263ffffffff1660e01b8152600401620017e291906200308a565b602060405180830381865afa15801562001800573d6000803e3d6000fd5b505050506040513d601f19601f8201168201806040525081019062001826919062003403565b90506103486001600160a01b038216620018cd57846001600160a01b0316635b2ab06c8885815181106200185e576200185e62003423565b60200260200101516040518263ffffffff1660e01b81526004016200188491906200308a565b6020604051808303816000875af1158015620018a4573d6000803e3d6000fd5b505050506040513d601f19601f82011682018060405250810190620018ca919062003403565b91505b60006001600160a01b0316846001600160a01b031663f0eb5e54898681518110620018fc57620018fc62003423565b60200260200101516040518263ffffffff1660e01b81526004016200192291906200308a565b602060405180830381865afa15801562001940573d6000803e3d6000fd5b505050506040513d601f19601f8201168201806040525081019062001966919062003403565b6001600160a01b03160362001a5357836001600160a01b031663454a03e088858151811062001999576200199962003423565b602002602001015184846040518463ffffffff1660e01b8152600401620019c39392919062003486565b600060405180830381600087803b158015620019de57600080fd5b505af1158015620019f3573d6000803e3d6000fd5b505050507f6680dc6d23915f02197cb4ac29f4b00443a14ca1cbe22d6b93045c32b98a82378988858151811062001a2e5762001a2e62003423565b6020026020010151848460405162001a4a9493929190620034ad565b60405180910390a15b50506001016200178c565b50505050505050565b3362001a7262001186565b6001600160a01b03161462001169573360405163118cdaa760e01b8152600401620003d291906200308a565b7f9016d09d72d40fdae2fd8ceac6b6234c7706214fd39c1cd1e609a0528c19930080546001600160a01b031981166001600160a01b03848116918217845560405192169182907f8be0079c531659141344cd1fd0a4f28419497f9722a3daafe3b4186f6b6457e090600090a3505050565b62001b1962002f6c565b600062001b2562001600565b600381015460405191925033916000916001600160a01b03169063189acdbd60e31b9062001b589085906024016200308a565b60408051601f198184030181529181526020820180516001600160e01b03166001600160e01b031990941693909317909252905162001b979062002fd1565b62001ba49291906200354b565b604051809103906000f08015801562001bc1573d6000803e3d6000fd5b5090506000816001600160a01b031663bb6e15dc6040518163ffffffff1660e01b8152600401602060405180830381865afa15801562001c05573d6000803e3d6000fd5b505050506040513d601f19601f8201168201806040525081019062001c2b919062003403565b6040805160e0810182526001600160a01b03808716825260058801541660208083019190915292935060009273__$6bcf1faf5c0920414dc51cd0daeb07e0f7$__92633af9cf1e92919082019062001c86908c018c62003571565b8080601f01602080910402602001604051908101604052809392919081815260200183838082843760009201919091525050509082525060200162001ccf60408c018c62003571565b8080601f01602080910402602001604051908101604052809392919081815260200183838082843760009201919091525050509082525060200162001d1b60808c0160608d01620035ba565b60ff16815260200162001d2d62002cae565b815260200162001d3c62002e20565b8152506040518263ffffffff1660e01b815260040162001d5d919062003626565b602060405180830381865af415801562001d7b573d6000803e3d6000fd5b505050506040513d601f19601f8201168201806040525081019062001da1919062003403565b6040805160e08101825260068801546001600160a01b0390811682528781166020830181905260a0808d01358486015260c0808e01356060860152608085019290925260078b0154909216918301919091523090820152905163af15b96960e01b815291925060009173__$6dd86c1de004dc2dd48a17c9065be1de70$__9163af15b9699162001e8a919060040181516001600160a01b039081168252602080840151821690830152604080840151908301526060808401519083015260808084015182169083015260a08381015182169083015260c092830151169181019190915260e00190565b602060405180830381865af415801562001ea8573d6000803e3d6000fd5b505050506040513d601f19601f8201168201806040525081019062001ece919062003403565b9050600073__$e6502af67ab2c746a64bc3775a7b8857c1$__63cd6856ef604051806101400160405280866001600160a01b031681526020018c80610100019062001f1a919062003571565b8080601f01602080910402602001604051908101604052809392919081815260200183838082843760009201919091525050509082525060200162001f646101208e018e62003571565b8080601f01602080910402602001604051908101604052809392919081815260200183838082843760009201919091525050509082525060200162001fb26101608e016101408f0162003063565b6001600160a01b0316815260200162001fd46101808e016101608f0162003063565b6001600160a01b0390811682526101808e013560208301528a16604082018190526060820152608001620020116101c08e016101a08f01620036eb565b63ffffffff168152602001620020306101e08e016101c08f01620036eb565b63ffffffff168152506040518263ffffffff1660e01b815260040162002057919062003713565b602060405180830381865af415801562002075573d6000803e3d6000fd5b505050506040513d601f19601f820116820180604052508101906200209b919062003403565b6040805160c08101825260088a01546001600160a01b0390811682528616602082015291925060009173__$9b19b7f7ded493586f11dad0d7ebc9ca26$__9163d88d811091908101620020f260e08f018f62003571565b8080601f0160208091040260200160405190810160405280939291908181526020018383808284376000920191909152505050908252506001600160a01b038088166020830152898116604080840191909152908c16606090920191909152516001600160e01b031960e084901b168152620021729190600401620037f8565b602060405180830381865af415801562002190573d6000803e3d6000fd5b505050506040513d601f19601f82011682018060405250810190620021b6919062003403565b9050600073__$3080f05ed92e5505050a1e3d528e8c5fcb$__63ea5fb3366040518060c001604052808c60010160009054906101000a90046001600160a01b03166001600160a01b03168152602001866001600160a01b031681526020018c60070160009054906101000a90046001600160a01b03166001600160a01b031681526020018e806101e001906200224d919062003571565b8080601f016020809104026020016040519081016040528093929190818152602001838380828437600081840152601f19601f8201169050808301925050505050505081526020018e806102000190620022a8919062003571565b8080601f0160208091040260200160405190810160405280939291908181526020018383808284376000920191909152505050908252506001600160a01b038c166020909101526040516001600160e01b031960e084901b16815262002312919060040162003866565b602060405180830381865af415801562002330573d6000803e3d6000fd5b505050506040513d601f19601f8201168201806040525081019062002356919062003403565b89549091506000906001600160a01b031663d0def52189620023798f8062003571565b6040518463ffffffff1660e01b81526004016200239993929190620038e8565b6020604051808303816000875af1158015620023b9573d6000803e3d6000fd5b505050506040513d601f19601f82011682018060405250810190620023df919062003928565b60408051610180810182526001600160a01b038b1681526020810183905291925081016200240e8e8062003571565b8080601f016020809104026020016040519081016040528093929190818152602001838380828437600081840152601f19601f820116905080830192505050505050508152602001886001600160a01b03168152602001876001600160a01b03168152602001866001600160a01b03168152602001846001600160a01b03168152602001856001600160a01b03168152602001836001600160a01b031681526020018a6001600160a01b031681526020018d608001358152602001600015158152509a508a8a600d0160008a6001600160a01b03166001600160a01b0316815260200190815260200160002060008201518160000160006101000a8154816001600160a01b0302191690836001600160a01b0316021790555060208201518160010155604082015181600201908162002548919062003993565b5060608201518160030160006101000a8154816001600160a01b0302191690836001600160a01b0316021790555060808201518160040160006101000a8154816001600160a01b0302191690836001600160a01b0316021790555060a08201518160050160006101000a8154816001600160a01b0302191690836001600160a01b0316021790555060c08201518160060160006101000a8154816001600160a01b0302191690836001600160a01b0316021790555060e08201518160070160006101000a8154816001600160a01b0302191690836001600160a01b031602179055506101008201518160080160006101000a8154816001600160a01b0302191690836001600160a01b031602179055506101208201518160090160006101000a8154816001600160a01b0302191690836001600160a01b0316021790555061014082015181600a015561016082015181600b0160006101000a81548160ff02191690831515021790555090505089600c018b90806001815401808255809150506001900390600052602060002090600c020160009091909190915060008201518160000160006101000a8154816001600160a01b0302191690836001600160a01b0316021790555060208201518160010155604082015181600201908162002731919062003993565b506060828101516003830180546001600160a01b03199081166001600160a01b0393841617909155608080860151600486018054841691851691909117905560a080870151600587018054851691861691909117905560c080880151600688018054861691871691909117905560e0808901516007890180548716918816919091179055610100890151600889018054871691881691909117905561012089015160098901805490961690871617909455610140880151600a88015561016090970151600b909601805460ff191696151596909617909555604080518f851681528d851660208201528c8516918101919091528a841694810194909452888316908401528d8216938301939093528516928101929092527f3163bceb365c85326c53476ceb0b49cfacb67f6d675e6eeb739c58ceb8b20bb6910160405180910390a150505050505050505050919050565b7ff0c57e16840df040f15088dc2f81fe391c3923bec73e23a9662efc9c229c6a0090565b6000620028b262002882565b805490915060ff600160401b82041615906001600160401b0316600081158015620028da5750825b90506000826001600160401b03166001148015620028f75750303b155b90508115801562002906575080155b15620029255760405163f92ee8a960e01b815260040160405180910390fd5b845467ffffffffffffffff1916600117855583156200295057845460ff60401b1916600160401b1785555b6200295b3362002f09565b60006200296762001600565b905062002978602088018862003063565b81546001600160a01b0319166001600160a01b0391909116178155620029a5604088016020890162003063565b6001820180546001600160a01b0319166001600160a01b0392909216919091179055620029d9606088016040890162003063565b6002820180546001600160a01b0319166001600160a01b039290921691909117905562002a0d60e0880160c0890162003063565b6003820180546001600160a01b0319166001600160a01b039290921691909117905562002a41608088016060890162003063565b6004820180546001600160a01b0319166001600160a01b039290921691909117905562002a7560a088016080890162003063565b6005820180546001600160a01b0319166001600160a01b039290921691909117905562002aaa610100880160e0890162003063565b6006820180546001600160a01b0319166001600160a01b039290921691909117905562002ade60c0880160a0890162003063565b6007820180546001600160a01b0319166001600160a01b039290921691909117905562002b146101208801610100890162003063565b6008820180546001600160a01b0319166001600160a01b039290921691909117905562002b4a6101408801610120890162003063565b60099190910180546001600160a01b0319166001600160a01b039092169190911790558315620012b157845460ff60401b19168555604051600181527fc7f505b2f371ae2175ee4913f4499e1f2633a7b5936321eed1cdaeb6115181d290602001620012a8565b600080826001600160a01b0316846001600160a01b03160362002c255760405162461bcd60e51b815260206004820152602560248201527f556e697377617056324c6962726172793a204944454e544943414c5f41444452604482015264455353455360d81b6064820152608401620003d2565b826001600160a01b0316846001600160a01b03161062002c4757828462002c4a565b83835b90925090506001600160a01b03821662002ca75760405162461bcd60e51b815260206004820152601e60248201527f556e697377617056324c6962726172793a205a45524f5f4144445245535300006044820152606401620003d2565b9250929050565b6060600062002cbc62001600565b600a81015490915060009062002cd490600262003a5f565b6001600160401b0381111562002cee5762002cee620032b3565b60405190808252806020026020018201604052801562002d18578160200160208202803683370190505b50905060005b600a83015481101562002d975782600a01818154811062002d435762002d4362003423565b9060005260206000200160009054906101000a90046001600160a01b031682828151811062002d765762002d7662003423565b6001600160a01b039092166020928302919091019091015260010162002d1e565b5030816001835162002daa91906200351f565b8151811062002dbd5762002dbd62003423565b60200260200101906001600160a01b031690816001600160a01b03168152505033816002835162002def91906200351f565b8151811062002e025762002e0262003423565b6001600160a01b039092166020928302919091019091015292915050565b6060600062002e2e62001600565b600b81015490915060009062002e4690600262003a5f565b6001600160401b0381111562002e605762002e60620032b3565b60405190808252806020026020018201604052801562002e8a578160200160208202803683370190505b50905060005b600b83015481101562002d975782600b01818154811062002eb55762002eb562003423565b9060005260206000200160009054906101000a90046001600160a01b031682828151811062002ee85762002ee862003423565b6001600160a01b039092166020928302919091019091015260010162002e90565b62002f1362002f1e565b620015fd8162002f46565b62002f2862002f50565b6200116957604051631afcd79f60e31b815260040160405180910390fd5b620015c562002f1e565b600062002f5c62002882565b54600160401b900460ff16919050565b604080516101808101825260008082526020820181905260609282018390529181018290526080810182905260a0810182905260c0810182905260e0810182905261010081018290526101208101829052610140810182905261016081019190915290565b6105bf8062003a7683390190565b6001600160a01b03169052565b6020808252825182820181905260009190848201906040850190845b818110156200302f5783516001600160a01b03168352928401929184019160010162003008565b50909695505050505050565b6001600160a01b0381168114620015fd57600080fd5b80356200305e816200303b565b919050565b6000602082840312156200307657600080fd5b813562003083816200303b565b9392505050565b6001600160a01b0391909116815260200190565b600080600060608486031215620030b457600080fd5b8335620030c1816200303b565b92506020840135620030d3816200303b565b9150604084013561ffff81168114620030eb57600080fd5b809150509250925092565b6000815180845260005b818110156200311e5760208185018101518683018201520162003100565b506000602082860101526020601f19601f83011685010191505092915050565b602081526000620030836020830184620030f6565b60006101806200316584845162002fdf565b6020830151602085015260408301518160408601526200318882860182620030f6565b91505060608301516200319f606086018262002fdf565b506080830151620031b4608086018262002fdf565b5060a0830151620031c960a086018262002fdf565b5060c0830151620031de60c086018262002fdf565b5060e0830151620031f360e086018262002fdf565b5061010080840151620032098287018262002fdf565b505061012080840151620032208287018262002fdf565b5050610140838101519085015261016080840151801515828701525b5090949350505050565b60208152600062003083602083018462003153565b6000602082840312156200326e57600080fd5b81356001600160401b038111156200328557600080fd5b820161022081850312156200308357600080fd5b60006101408284031215620032ad57600080fd5b50919050565b634e487b7160e01b600052604160045260246000fd5b60006020808385031215620032dd57600080fd5b82356001600160401b0380821115620032f557600080fd5b818501915085601f8301126200330a57600080fd5b8135818111156200331f576200331f620032b3565b8060051b604051601f19603f83011681018181108582111715620033475762003347620032b3565b6040529182528482019250838101850191888311156200336657600080fd5b938501935b828510156200338f576200337f8562003051565b845293850193928501926200336b565b98975050505050505050565b600060208083016020845280855180835260408601915060408160051b87010192506020870160005b82811015620033f657603f19888603018452620033e385835162003153565b94509285019290850190600101620033c4565b5092979650505050505050565b6000602082840312156200341657600080fd5b815162003083816200303b565b634e487b7160e01b600052603260045260246000fd5b9182526001600160a01b0316602082015260400190565b600181811c908216806200346557607f821691505b602082108103620032ad57634e487b7160e01b600052602260045260246000fd5b6001600160a01b03938416815291909216602082015261ffff909116604082015260600190565b6001600160a01b03948516815292841660208401529216604082015261ffff909116606082015260800190565b602080825260159082015274496e76616c6964206167656e74206164647265737360581b604082015260600190565b634e487b7160e01b600052601160045260246000fd5b8181038181111562001180576200118062003509565b634e487b7160e01b600052603160045260246000fd5b6001600160a01b03831681526040602082018190526000906200035e90830184620030f6565b6000808335601e198436030181126200358957600080fd5b8301803591506001600160401b03821115620035a457600080fd5b60200191503681900382131562002ca757600080fd5b600060208284031215620035cd57600080fd5b813560ff811681146200308357600080fd5b60008151808452602080850194506020840160005b838110156200361b5781516001600160a01b031687529582019590820190600101620035f4565b509495945050505050565b602080825282516001600160a01b0316828201528201516000906200364f604084018262002fdf565b50604083015160e060608401526200366c610100840182620030f6565b90506060840151601f19808584030160808601526200368c8383620030f6565b925060808601519150620036a560a086018360ff169052565b60a08601519150808584030160c0860152620036c28383620035df565b925060c08601519150808584030160e086015250620036e28282620035df565b95945050505050565b600060208284031215620036fe57600080fd5b813563ffffffff811681146200308357600080fd5b602081526200372760208201835162002fdf565b6000602083015161014080604085015262003747610160850183620030f6565b91506040850151601f19858403016060860152620037668382620030f6565b92505060608501516200377d608086018262002fdf565b5060808501516200379260a086018262002fdf565b5060a085015160c085015260c0850151620037b160e086018262002fdf565b5060e0850151610100620037c88187018362002fdf565b8601519050610120620037e28682018363ffffffff169052565b86015163ffffffff81168387015290506200323c565b60208152600060018060a01b03808451166020840152806020850151166040840152604084015160c060608501526200383560e0850182620030f6565b90508160608601511660808501528160808601511660a08501528160a08601511660c0850152809250505092915050565b60208152600060018060a01b03808451166020840152806020850151166040840152806040850151166060840152606084015160c06080850152620038af60e0850182620030f6565b90506080850151601f198583030160a0860152620038ce8282620030f6565b9150508160a08601511660c0850152809250505092915050565b6001600160a01b03841681526040602082018190528101829052818360608301376000818301606090810191909152601f909201601f1916010192915050565b6000602082840312156200393b57600080fd5b5051919050565b601f8211156200398e576000816000526020600020601f850160051c810160208610156200396d5750805b601f850160051c820191505b81811015620012b15782815560010162003979565b505050565b81516001600160401b03811115620039af57620039af620032b3565b620039c781620039c0845462003450565b8462003942565b602080601f831160018114620039ff5760008415620039e65750858301515b600019600386901b1c1916600185901b178555620012b1565b600085815260208120601f198616915b8281101562003a305788860151825594840194600190910190840162003a0f565b508582101562003a4f5787850151600019600388901b60f8161c191681555b5050505050600190811b01905550565b808201808211156200118057620011806200350956fe60a06040526040516105bf3803806105bf83398101604081905261002291610387565b61002c828261003e565b506001600160a01b031660805261047e565b610047826100fe565b6040516001600160a01b038316907f1cf3b03a6cf19fa2baba4df148e9dcabedea7f8a5c07840e207e5c089be95d3e90600090a28051156100f2576100ed826001600160a01b0316635c60da1b6040518163ffffffff1660e01b8152600401602060405180830381865afa1580156100c3573d6000803e3d6000fd5b505050506040513d601f19601f820116820180604052508101906100e79190610447565b82610211565b505050565b6100fa610288565b5050565b806001600160a01b03163b60000361013957604051631933b43b60e21b81526001600160a01b03821660048201526024015b60405180910390fd5b807fa3f0ad74e5423aebfd80d3ef4346578335a9a72aeaee59ff6cb3582b35133d5080546001600160a01b0319166001600160a01b0392831617905560408051635c60da1b60e01b81529051600092841691635c60da1b9160048083019260209291908290030181865afa1580156101b5573d6000803e3d6000fd5b505050506040513d601f19601f820116820180604052508101906101d99190610447565b9050806001600160a01b03163b6000036100fa57604051634c9c8ce360e01b81526001600160a01b0382166004820152602401610130565b6060600080846001600160a01b03168460405161022e9190610462565b600060405180830381855af49150503d8060008114610269576040519150601f19603f3d011682016040523d82523d6000602084013e61026e565b606091505b50909250905061027f8583836102a9565b95945050505050565b34156102a75760405163b398979f60e01b815260040160405180910390fd5b565b6060826102be576102b982610308565b610301565b81511580156102d557506001600160a01b0384163b155b156102fe57604051639996b31560e01b81526001600160a01b0385166004820152602401610130565b50805b9392505050565b8051156103185780518082602001fd5b604051630a12f52160e11b815260040160405180910390fd5b80516001600160a01b038116811461034857600080fd5b919050565b634e487b7160e01b600052604160045260246000fd5b60005b8381101561037e578181015183820152602001610366565b50506000910152565b6000806040838503121561039a57600080fd5b6103a383610331565b60208401519092506001600160401b03808211156103c057600080fd5b818501915085601f8301126103d457600080fd5b8151818111156103e6576103e661034d565b604051601f8201601f19908116603f0116810190838211818310171561040e5761040e61034d565b8160405282815288602084870101111561042757600080fd5b610438836020830160208801610363565b80955050505050509250929050565b60006020828403121561045957600080fd5b61030182610331565b60008251610474818460208701610363565b9190910192915050565b6080516101276104986000396000601e01526101276000f3fe6080604052600a600c565b005b60186014601a565b60a0565b565b60007f00000000000000000000000000000000000000000000000000000000000000006001600160a01b0316635c60da1b6040518163ffffffff1660e01b8152600401602060405180830381865afa1580156079573d6000803e3d6000fd5b505050506040513d601f19601f82011682018060405250810190609b919060c3565b905090565b3660008037600080366000845af43d6000803e80801560be573d6000f35b3d6000fd5b60006020828403121560d457600080fd5b81516001600160a01b038116811460ea57600080fd5b939250505056fea26469706673582212205c8a2fcdc6f79c1d43b849e2b03f494652cee222b2ec86046b7caaa1405f985f64736f6c63430008180033a264697066735822122013b8ed56a15aa90556dd7572ed123f50b925c57b8debe17c04eb71266648c51464736f6c63430008180033",
  "linkReferences": {
    "contracts/buildings/library/BuildingAutoCompounder.sol": {
      "BuildingAutoCompounderLib": [
        {
          "length": 20,
          "start": 8866
        }
      ]
    },
    "contracts/buildings/library/BuildingGovernance.sol": {
      "BuildingGovernanceLib": [
        {
          "length": 20,
          "start": 8620
        }
      ]
    },
    "contracts/buildings/library/BuildingToken.sol": {
      "BuildingTokenLib": [
        {
          "length": 20,
          "start": 7487
        }
      ]
    },
    "contracts/buildings/library/BuildingTreasury.sol": {
      "BuildingTreasuryLib": [
        {
          "length": 20,
          "start": 7922
        }
      ]
    },
    "contracts/buildings/library/BuildingVault.sol": {
      "BuildingVaultLib": [
        {
          "length": 20,
          "start": 8122
        }
      ]
    }
  },
  "deployedLinkReferences": {
    "contracts/buildings/library/BuildingAutoCompounder.sol": {
      "BuildingAutoCompounderLib": [
        {
          "length": 20,
          "start": 8636
        }
      ]
    },
    "contracts/buildings/library/BuildingGovernance.sol": {
      "BuildingGovernanceLib": [
        {
          "length": 20,
          "start": 8390
        }
      ]
    },
    "contracts/buildings/library/BuildingToken.sol": {
      "BuildingTokenLib": [
        {
          "length": 20,
          "start": 7257
        }
      ]
    },
    "contracts/buildings/library/BuildingTreasury.sol": {
      "BuildingTreasuryLib": [
        {
          "length": 20,
          "start": 7692
        }
      ]
    },
    "contracts/buildings/library/BuildingVault.sol": {
      "BuildingVaultLib": [
        {
          "length": 20,
          "start": 7892
        }
      ]
    }
  }
}