{
  "_format": "hh-sol-artifact-1",
  "contractName": "BuildingFactory",
  "sourceName": "contracts/buildings/BuildingFactory.sol",
  "abi": [
    {
      "inputs": [],
      "stateMutability": "nonpayable",
      "type": "constructor"
    },
    {
      "inputs": [],
      "name": "InvalidInitialization",
      "type": "error"
    },
    {
      "inputs": [],
      "name": "NotInitializing",
      "type": "error"
    },
    {
      "inputs": [
        {
          "internalType": "address",
          "name": "owner",
          "type": "address"
        }
      ],
      "name": "OwnableInvalidOwner",
      "type": "error"
    },
    {
      "inputs": [
        {
          "internalType": "address",
          "name": "account",
          "type": "address"
        }
      ],
      "name": "OwnableUnauthorizedAccount",
      "type": "error"
    },
    {
      "anonymous": false,
      "inputs": [
        {
          "indexed": false,
          "internalType": "address",
          "name": "buildingAddress",
          "type": "address"
        }
      ],
      "name": "BuildingConfigured",
      "type": "event"
    },
    {
      "anonymous": false,
      "inputs": [
        {
          "indexed": false,
          "internalType": "address",
          "name": "building",
          "type": "address"
        },
        {
          "indexed": false,
          "internalType": "address",
          "name": "module",
          "type": "address"
        }
      ],
      "name": "ComplianceModuleAdded",
      "type": "event"
    },
    {
      "anonymous": false,
      "inputs": [
        {
          "indexed": false,
          "internalType": "address",
          "name": "building",
          "type": "address"
        },
        {
          "indexed": false,
          "internalType": "address",
          "name": "wallet",
          "type": "address"
        },
        {
          "indexed": false,
          "internalType": "address",
          "name": "identity",
          "type": "address"
        },
        {
          "indexed": false,
          "internalType": "uint16",
          "name": "country",
          "type": "uint16"
        }
      ],
      "name": "IdentityRegistered",
      "type": "event"
    },
    {
      "anonymous": false,
      "inputs": [
        {
          "indexed": false,
          "internalType": "uint64",
          "name": "version",
          "type": "uint64"
        }
      ],
      "name": "Initialized",
      "type": "event"
    },
    {
      "anonymous": false,
      "inputs": [
        {
          "indexed": false,
          "internalType": "address",
          "name": "buildingAddress",
          "type": "address"
        },
        {
          "indexed": false,
          "internalType": "address",
          "name": "erc3643Token",
          "type": "address"
        },
        {
          "indexed": false,
          "internalType": "address",
          "name": "treasury",
          "type": "address"
        },
        {
          "indexed": false,
          "internalType": "address",
          "name": "vault",
          "type": "address"
        },
        {
          "indexed": false,
          "internalType": "address",
          "name": "governance",
          "type": "address"
        },
        {
          "indexed": false,
          "internalType": "address",
          "name": "initialOwner",
          "type": "address"
        },
        {
          "indexed": false,
          "internalType": "address",
          "name": "autoCompounder",
          "type": "address"
        }
      ],
      "name": "NewBuilding",
      "type": "event"
    },
    {
      "anonymous": false,
      "inputs": [
        {
          "indexed": true,
          "internalType": "address",
          "name": "previousOwner",
          "type": "address"
        },
        {
          "indexed": true,
          "internalType": "address",
          "name": "newOwner",
          "type": "address"
        }
      ],
      "name": "OwnershipTransferred",
      "type": "event"
    },
    {
      "anonymous": false,
      "inputs": [
        {
          "indexed": false,
          "internalType": "address",
          "name": "agent",
          "type": "address"
        }
      ],
      "name": "RegistryAgentRemoved",
      "type": "event"
    },
    {
      "anonymous": false,
      "inputs": [
        {
          "indexed": false,
          "internalType": "address[]",
          "name": "agents",
          "type": "address[]"
        }
      ],
      "name": "RegistryAgentsAdded",
      "type": "event"
    },
    {
      "inputs": [
        {
          "internalType": "address[]",
          "name": "agents",
          "type": "address[]"
        }
      ],
      "name": "addRegistryAgents",
      "outputs": [],
      "stateMutability": "nonpayable",
      "type": "function"
    },
    {
      "inputs": [
        {
          "internalType": "address",
          "name": "buildingAddress",
          "type": "address"
        }
      ],
      "name": "configNewBuilding",
      "outputs": [],
      "stateMutability": "nonpayable",
      "type": "function"
    },
    {
      "inputs": [
        {
          "internalType": "address",
          "name": "wallet",
          "type": "address"
        }
      ],
      "name": "deployIdentityForWallet",
      "outputs": [
        {
          "internalType": "address",
          "name": "",
          "type": "address"
        }
      ],
      "stateMutability": "nonpayable",
      "type": "function"
    },
    {
      "inputs": [
        {
          "internalType": "address",
          "name": "buildingAddress",
          "type": "address"
        }
      ],
      "name": "getBuildingDetails",
      "outputs": [
        {
          "components": [
            {
              "internalType": "address",
              "name": "addr",
              "type": "address"
            },
            {
              "internalType": "uint256",
              "name": "nftId",
              "type": "uint256"
            },
            {
              "internalType": "string",
              "name": "tokenURI",
              "type": "string"
            },
            {
              "internalType": "address",
              "name": "auditRegistry",
              "type": "address"
            },
            {
              "internalType": "address",
              "name": "erc3643Token",
              "type": "address"
            },
            {
              "internalType": "address",
              "name": "treasury",
              "type": "address"
            },
            {
              "internalType": "address",
              "name": "governance",
              "type": "address"
            },
            {
              "internalType": "address",
              "name": "vault",
              "type": "address"
            },
            {
              "internalType": "address",
              "name": "autoCompounder",
              "type": "address"
            },
            {
              "internalType": "address",
              "name": "initialOwner",
              "type": "address"
            },
            {
              "internalType": "uint256",
              "name": "tokenMintAmount",
              "type": "uint256"
            },
            {
              "internalType": "bool",
              "name": "isConfigured",
              "type": "bool"
            }
          ],
          "internalType": "struct BuildingFactoryStorage.BuildingDetails",
          "name": "",
          "type": "tuple"
        }
      ],
      "stateMutability": "view",
      "type": "function"
    },
    {
      "inputs": [],
      "name": "getBuildingList",
      "outputs": [
        {
          "components": [
            {
              "internalType": "address",
              "name": "addr",
              "type": "address"
            },
            {
              "internalType": "uint256",
              "name": "nftId",
              "type": "uint256"
            },
            {
              "internalType": "string",
              "name": "tokenURI",
              "type": "string"
            },
            {
              "internalType": "address",
              "name": "auditRegistry",
              "type": "address"
            },
            {
              "internalType": "address",
              "name": "erc3643Token",
              "type": "address"
            },
            {
              "internalType": "address",
              "name": "treasury",
              "type": "address"
            },
            {
              "internalType": "address",
              "name": "governance",
              "type": "address"
            },
            {
              "internalType": "address",
              "name": "vault",
              "type": "address"
            },
            {
              "internalType": "address",
              "name": "autoCompounder",
              "type": "address"
            },
            {
              "internalType": "address",
              "name": "initialOwner",
              "type": "address"
            },
            {
              "internalType": "uint256",
              "name": "tokenMintAmount",
              "type": "uint256"
            },
            {
              "internalType": "bool",
              "name": "isConfigured",
              "type": "bool"
            }
          ],
          "internalType": "struct BuildingFactoryStorage.BuildingDetails[]",
          "name": "",
          "type": "tuple[]"
        }
      ],
      "stateMutability": "view",
      "type": "function"
    },
    {
      "inputs": [
        {
          "internalType": "address",
          "name": "wallet",
          "type": "address"
        }
      ],
      "name": "getIdentity",
      "outputs": [
        {
          "internalType": "contract IIdentity",
          "name": "",
          "type": "address"
        }
      ],
      "stateMutability": "view",
      "type": "function"
    },
    {
      "inputs": [],
      "name": "getRegistryAgents",
      "outputs": [
        {
          "internalType": "address[]",
          "name": "",
          "type": "address[]"
        }
      ],
      "stateMutability": "view",
      "type": "function"
    },
    {
      "inputs": [
        {
          "components": [
            {
              "internalType": "address",
              "name": "nft",
              "type": "address"
            },
            {
              "internalType": "address",
              "name": "uniswapRouter",
              "type": "address"
            },
            {
              "internalType": "address",
              "name": "uniswapFactory",
              "type": "address"
            },
            {
              "internalType": "address",
              "name": "identityFactory",
              "type": "address"
            },
            {
              "internalType": "address",
              "name": "trexFactory",
              "type": "address"
            },
            {
              "internalType": "address",
              "name": "usdc",
              "type": "address"
            },
            {
              "internalType": "address",
              "name": "buildingBeacon",
              "type": "address"
            },
            {
              "internalType": "address",
              "name": "treasuryBeacon",
              "type": "address"
            },
            {
              "internalType": "address",
              "name": "governanceBeacon",
              "type": "address"
            },
            {
              "internalType": "address",
              "name": "upkeeper",
              "type": "address"
            }
          ],
          "internalType": "struct BuildingFactoryInit",
          "name": "init",
          "type": "tuple"
        }
      ],
      "name": "initialize",
      "outputs": [],
      "stateMutability": "nonpayable",
      "type": "function"
    },
    {
      "inputs": [
        {
          "components": [
            {
              "internalType": "string",
              "name": "tokenURI",
              "type": "string"
            },
            {
              "internalType": "string",
              "name": "tokenName",
              "type": "string"
            },
            {
              "internalType": "string",
              "name": "tokenSymbol",
              "type": "string"
            },
            {
              "internalType": "uint8",
              "name": "tokenDecimals",
              "type": "uint8"
            },
            {
              "internalType": "uint256",
              "name": "tokenMintAmount",
              "type": "uint256"
            },
            {
              "internalType": "uint256",
              "name": "treasuryReserveAmount",
              "type": "uint256"
            },
            {
              "internalType": "uint256",
              "name": "treasuryNPercent",
              "type": "uint256"
            },
            {
              "internalType": "string",
              "name": "governanceName",
              "type": "string"
            },
            {
              "internalType": "string",
              "name": "vaultShareTokenName",
              "type": "string"
            },
            {
              "internalType": "string",
              "name": "vaultShareTokenSymbol",
              "type": "string"
            },
            {
              "internalType": "address",
              "name": "vaultFeeReceiver",
              "type": "address"
            },
            {
              "internalType": "address",
              "name": "vaultFeeToken",
              "type": "address"
            },
            {
              "internalType": "uint256",
              "name": "vaultFeePercentage",
              "type": "uint256"
            },
            {
              "internalType": "uint32",
              "name": "vaultCliff",
              "type": "uint32"
            },
            {
              "internalType": "uint32",
              "name": "vaultUnlockDuration",
              "type": "uint32"
            },
            {
              "internalType": "string",
              "name": "aTokenName",
              "type": "string"
            },
            {
              "internalType": "string",
              "name": "aTokenSymbol",
              "type": "string"
            }
          ],
          "internalType": "struct BuildingFactoryStorage.NewBuildingDetails",
          "name": "details",
          "type": "tuple"
        }
      ],
      "name": "newBuilding",
      "outputs": [
        {
          "components": [
            {
              "internalType": "address",
              "name": "addr",
              "type": "address"
            },
            {
              "internalType": "uint256",
              "name": "nftId",
              "type": "uint256"
            },
            {
              "internalType": "string",
              "name": "tokenURI",
              "type": "string"
            },
            {
              "internalType": "address",
              "name": "auditRegistry",
              "type": "address"
            },
            {
              "internalType": "address",
              "name": "erc3643Token",
              "type": "address"
            },
            {
              "internalType": "address",
              "name": "treasury",
              "type": "address"
            },
            {
              "internalType": "address",
              "name": "governance",
              "type": "address"
            },
            {
              "internalType": "address",
              "name": "vault",
              "type": "address"
            },
            {
              "internalType": "address",
              "name": "autoCompounder",
              "type": "address"
            },
            {
              "internalType": "address",
              "name": "initialOwner",
              "type": "address"
            },
            {
              "internalType": "uint256",
              "name": "tokenMintAmount",
              "type": "uint256"
            },
            {
              "internalType": "bool",
              "name": "isConfigured",
              "type": "bool"
            }
          ],
          "internalType": "struct BuildingFactoryStorage.BuildingDetails",
          "name": "buildingDetails",
          "type": "tuple"
        }
      ],
      "stateMutability": "nonpayable",
      "type": "function"
    },
    {
      "inputs": [],
      "name": "owner",
      "outputs": [
        {
          "internalType": "address",
          "name": "",
          "type": "address"
        }
      ],
      "stateMutability": "view",
      "type": "function"
    },
    {
      "inputs": [
        {
          "internalType": "address",
          "name": "buildingAddress",
          "type": "address"
        },
        {
          "internalType": "address",
          "name": "wallet",
          "type": "address"
        },
        {
          "internalType": "uint16",
          "name": "country",
          "type": "uint16"
        }
      ],
      "name": "registerIdentity",
      "outputs": [],
      "stateMutability": "nonpayable",
      "type": "function"
    },
    {
      "inputs": [
        {
          "internalType": "address",
          "name": "agent",
          "type": "address"
        }
      ],
      "name": "removeRegistryAgent",
      "outputs": [],
      "stateMutability": "nonpayable",
      "type": "function"
    },
    {
      "inputs": [],
      "name": "renounceOwnership",
      "outputs": [],
      "stateMutability": "nonpayable",
      "type": "function"
    },
    {
      "inputs": [
        {
          "internalType": "address",
          "name": "newOwner",
          "type": "address"
        }
      ],
      "name": "transferOwnership",
      "outputs": [],
      "stateMutability": "nonpayable",
      "type": "function"
    }
  ],
  "bytecode": "0x60806040523480156200001157600080fd5b506200001c62000022565b620000d6565b7ff0c57e16840df040f15088dc2f81fe391c3923bec73e23a9662efc9c229c6a00805468010000000000000000900460ff1615620000735760405163f92ee8a960e01b815260040160405180910390fd5b80546001600160401b0390811614620000d35780546001600160401b0319166001600160401b0390811782556040519081527fc7f505b2f371ae2175ee4913f4499e1f2633a7b5936321eed1cdaeb6115181d29060200160405180910390a15b50565b613d0780620000e66000396000f3fe60806040523480156200001157600080fd5b5060043610620000da5760003560e01c8063715018a61162000086578063715018a614620001ab578063899a0ebe14620001b55780638da5cb5b14620001cc578063c6bb9e9614620001d6578063d5f51ccd14620001ed578063db652ec81462000204578063f2fde38b146200021d57600080fd5b806240c4b014620000df5780632fea7b8114620001015780633a4338cf14620001275780633e8e6e8b1462000140578063454a03e01462000157578063665fa4a1146200016e57806370fb52571462000194575b600080fd5b620000e962000234565b604051620000f8919062002d0e565b60405180910390f35b620001186200011236600462002d85565b620002a4565b604051620000f8919062002dac565b6200013e6200013836600462002d85565b62000333565b005b620001186200015136600462002d85565b62000948565b6200013e6200016836600462002dc0565b620009ab565b620001856200017f36600462002d85565b62000d12565b604051620000f8919062002f4f565b6200013e620001a536600462002d85565b62000e87565b6200013e6200101d565b62000185620001c636600462002f64565b62001035565b6200011862001d21565b6200013e620001e736600462002fa2565b62001d4f565b6200013e620001fe36600462002fd2565b62002077565b6200020e620021d1565b604051620000f89190620030a4565b6200013e6200022e36600462002d85565b62002379565b6060600062000242620023be565b600a81018054604080516020808402820181019092528281529394508301828280156200029957602002820191906000526020600020905b81546001600160a01b031681526001909101906020018083116200027a575b505050505091505090565b600080620002b1620023be565b600480820154604051632fea7b8160e01b81529293506001600160a01b0316918291632fea7b8191620002e79188910162002dac565b602060405180830381865afa15801562000305573d6000803e3d6000fd5b505050506040513d601f19601f820116820180604052508101906200032b91906200310c565b949350505050565b60006200033f620023be565b6001600160a01b038084166000908152600d83016020526040902080549293509116620003a85760405162461bcd60e51b8152602060048201526012602482015271109d5a5b191a5b99c81b9bdd08199bdd5b9960721b60448201526064015b60405180910390fd5b600b81015460ff1615620003ff5760405162461bcd60e51b815260206004820152601b60248201527f4275696c64696e6720616c726561647920636f6e66696775726564000000000060448201526064016200039f565b60098101546001600160a01b031633146200046f5760405162461bcd60e51b815260206004820152602960248201527f4f6e6c7920746865206f776e65722063616e20636f6e66696775726520746865604482015268206275696c64696e6760b81b60648201526084016200039f565b60408051600580825260c082019092526000916020820160a080368337505050600983015481519192506001600160a01b0316908290600090620004b757620004b76200312c565b6001600160a01b03928316602091820292909201015260018085015483519216918391908110620004ec57620004ec6200312c565b6001600160a01b03928316602091820292909201015260078301548251911690829060029081106200052257620005226200312c565b6001600160a01b03928316602091820292909201015260088301548251911690829060039081106200055857620005586200312c565b6001600160a01b0392831660209182029290920101526002840154600484015460078601546200059193928316929182169116620023e2565b81600481518110620005a757620005a76200312c565b6001600160a01b0392831660209182029290920101526004830154620005d19186911683620024b4565b6004828101546009840154600a8501546040516340c10f1960e01b81526001600160a01b0392831694810194909452602484015216906340c10f1990604401600060405180830381600087803b1580156200062b57600080fd5b505af115801562000640573d6000803e3d6000fd5b505050600583015460068401546040516260360760e81b81526001600160a01b0392831693506360360700926200067c92169060040162002dac565b600060405180830381600087803b1580156200069757600080fd5b505af1158015620006ac573d6000803e3d6000fd5b505050600583015460078401546040516312b5ad0160e11b81526001600160a01b03928316935063256b5a0292620006e992169060040162002dac565b600060405180830381600087803b1580156200070457600080fd5b505af115801562000719573d6000803e3d6000fd5b5050505060038201546006830154604051632f2ff15d60e01b81527f71840dc4906352362b0cdaf79870196c8e42acafade72d5d5a6d59291253ceb160048201526001600160a01b039182166024820152911690632f2ff15d90604401600060405180830381600087803b1580156200079157600080fd5b505af1158015620007a6573d6000803e3d6000fd5b5050505060038201546009830154604051632f2ff15d60e01b8152600060048201526001600160a01b039182166024820152911690632f2ff15d90604401600060405180830381600087803b158015620007ff57600080fd5b505af115801562000814573d6000803e3d6000fd5b5050506008830154600984015460405163f2fde38b60e01b81526001600160a01b03928316935063f2fde38b926200085192169060040162002dac565b600060405180830381600087803b1580156200086c57600080fd5b505af115801562000881573d6000803e3d6000fd5b5050505060098301546008830154604051630be2f08b60e31b81526001600160a01b03918216600482015263410e02bb60e11b6024820152911690635f17845890604401600060405180830381600087803b158015620008e057600080fd5b505af1158015620008f5573d6000803e3d6000fd5b505050600b8301805460ff19166001179055506040517f13e082287ff01b095c7a56d08c6e81bc08794d833c506cd9d4d93b4cd88dc620906200093a90869062002dac565b60405180910390a150505050565b60008062000955620023be565b6004808201546040516316caac1b60e21b81529293506001600160a01b0316918291635b2ab06c916200098b9188910162002dac565b6020604051808303816000875af115801562000305573d6000803e3d6000fd5b6000620009b7620023be565b6001600160a01b038086166000908152600d83016020908152604080832081516101808101835281549095168552600181015492850192909252600282018054959650929491929084019162000a0d9062003142565b80601f016020809104026020016040519081016040528092919081815260200182805462000a3b9062003142565b801562000a8c5780601f1062000a605761010080835404028352916020019162000a8c565b820191906000526020600020905b81548152906001019060200180831162000a6e57829003601f168201915b505050918352505060038201546001600160a01b039081166020808401919091526004808501548316604080860191909152600586015484166060860152600686015484166080808701919091526007870154851660a08701526008870154851660c08701526009870154851660e0870152600a870154610100870152600b9096015460ff16151561012090950194909452938501518785015484516304d3863d60e21b815294519697509095908316946000949387169363134e18f49381830193909290918290030181865afa15801562000b6c573d6000803e3d6000fd5b505050506040513d601f19601f8201168201806040525081019062000b9291906200310c565b90506000826001600160a01b0316632fea7b81896040518263ffffffff1660e01b815260040162000bc4919062002dac565b602060405180830381865afa15801562000be2573d6000803e3d6000fd5b505050506040513d601f19601f8201168201806040525081019062000c0891906200310c565b90506001600160a01b03811662000c625760405162461bcd60e51b815260206004820152601d60248201527f4964656e7469747920666f722077616c6c6574206e6f7420666f756e6400000060448201526064016200039f565b60405163022a501f60e51b81526001600160a01b0383169063454a03e09062000c94908b9085908c9060040162003178565b600060405180830381600087803b15801562000caf57600080fd5b505af115801562000cc4573d6000803e3d6000fd5b505050507f6680dc6d23915f02197cb4ac29f4b00443a14ca1cbe22d6b93045c32b98a82378989838a60405162000cff94939291906200319f565b60405180910390a1505050505050505050565b62000d1c62002c8e565b600062000d28620023be565b6001600160a01b038085166000908152600d830160209081526040918290208251610180810184528154909416845260018101549184019190915260028101805494955092939092918401919062000d809062003142565b80601f016020809104026020016040519081016040528092919081815260200182805462000dae9062003142565b801562000dff5780601f1062000dd35761010080835404028352916020019162000dff565b820191906000526020600020905b81548152906001019060200180831162000de157829003601f168201915b505050918352505060038201546001600160a01b0390811660208301526004830154811660408301526005830154811660608301526006830154811660808301526007830154811660a08301526008830154811660c083015260098301541660e0820152600a820154610100820152600b9091015460ff161515610120909101529392505050565b62000e9162002825565b6001600160a01b03811662000eba5760405162461bcd60e51b81526004016200039f90620031cc565b600062000ec6620023be565b9050600a810160005b81548110156200101757836001600160a01b031682828154811062000ef85762000ef86200312c565b6000918252602090912001546001600160a01b0316036200100e578154829062000f259060019062003211565b8154811062000f385762000f386200312c565b9060005260206000200160009054906101000a90046001600160a01b031682828154811062000f6b5762000f6b6200312c565b9060005260206000200160006101000a8154816001600160a01b0302191690836001600160a01b031602179055508180548062000fac5762000fac6200322d565b600082815260209020810160001990810180546001600160a01b03191690550190556040517ffd640fa9b46f14c0708e03114f4007b6a72edb4389a12da691527d9ffb6d0de2906200100090869062002dac565b60405180910390a162001017565b60010162000ecf565b50505050565b6200102762002825565b6200103360006200285c565b565b6200103f62002c8e565b60006200104b620023be565b600381015460405191925033916000916001600160a01b03169063189acdbd60e31b906200107e90859060240162002dac565b60408051601f198184030181529181526020820180516001600160e01b03166001600160e01b0319909416939093179092529051620010bd9062002cf3565b620010ca92919062003243565b604051809103906000f080158015620010e7573d6000803e3d6000fd5b5090506000816001600160a01b031663bb6e15dc6040518163ffffffff1660e01b8152600401602060405180830381865afa1580156200112b573d6000803e3d6000fd5b505050506040513d601f19601f820116820180604052508101906200115191906200310c565b6040805160e0810182526001600160a01b03808716825260058801541660208083019190915292935060009273__$6bcf1faf5c0920414dc51cd0daeb07e0f7$__92633af9cf1e929190820190620011ac908c018c62003269565b8080601f016020809104026020016040519081016040528093929190818152602001838380828437600092019190915250505090825250602001620011f560408c018c62003269565b8080601f0160208091040260200160405190810160405280939291908181526020018383808284376000920191909152505050908252506020016200124160808c0160608d01620032b2565b60ff16815260200162001253620028cd565b81526020016200126262002a3f565b8152506040518263ffffffff1660e01b81526004016200128391906200331e565b602060405180830381865af4158015620012a1573d6000803e3d6000fd5b505050506040513d601f19601f82011682018060405250810190620012c791906200310c565b6040805160e08101825260068801546001600160a01b0390811682528781166020830181905260a0808d01358486015260c0808e01356060860152608085019290925260078b0154909216918301919091523090820152905163af15b96960e01b815291925060009173__$6dd86c1de004dc2dd48a17c9065be1de70$__9163af15b96991620013b0919060040181516001600160a01b039081168252602080840151821690830152604080840151908301526060808401519083015260808084015182169083015260a08381015182169083015260c092830151169181019190915260e00190565b602060405180830381865af4158015620013ce573d6000803e3d6000fd5b505050506040513d601f19601f82011682018060405250810190620013f491906200310c565b9050600073__$e6502af67ab2c746a64bc3775a7b8857c1$__63cd6856ef6040518060c00160405280856001600160a01b03168152602001866001600160a01b031681526020018c8061010001906200144e919062003269565b8080601f016020809104026020016040519081016040528093929190818152602001838380828437600092019190915250505090825250602001620014986101208e018e62003269565b8080601f01602080910402602001604051908101604052809392919081815260200183838082843760009201919091525050509082525060126020820152604001620014ed6101e08e016101c08f01620033e3565b63ffffffff168152506040518263ffffffff1660e01b81526004016200151491906200340b565b602060405180830381865af415801562001532573d6000803e3d6000fd5b505050506040513d601f19601f820116820180604052508101906200155891906200310c565b6040805160c08101825260088a01546001600160a01b0390811682528616602082015291925060009173__$9b19b7f7ded493586f11dad0d7ebc9ca26$__9163d88d811091908101620015af60e08f018f62003269565b8080601f0160208091040260200160405190810160405280939291908181526020018383808284376000920191909152505050908252506001600160a01b038088166020830152898116604080840191909152908c16606090920191909152516001600160e01b031960e084901b1681526200162f91906004016200348c565b602060405180830381865af41580156200164d573d6000803e3d6000fd5b505050506040513d601f19601f820116820180604052508101906200167391906200310c565b9050600073__$3080f05ed92e5505050a1e3d528e8c5fcb$__63ea5fb3366040518060e00160405280866001600160a01b031681526020018e806101e00190620016be919062003269565b8080601f016020809104026020016040519081016040528093929190818152602001838380828437600081840152601f19601f8201169050808301925050505050505081526020018e80610200019062001719919062003269565b8080601f016020809104026020016040519081016040528093929190818152602001838380828437600092019190915250505090825250670de0b6b3a7640000602082015260018d01546001600160a01b0390811660408084019190915260078f0154909116606083015261012c608090920191909152516001600160e01b031960e084901b168152620017b19190600401620034fa565b602060405180830381865af4158015620017cf573d6000803e3d6000fd5b505050506040513d601f19601f82011682018060405250810190620017f591906200310c565b89549091506000906001600160a01b031663d0def52189620018188f8062003269565b6040518463ffffffff1660e01b8152600401620018389392919062003585565b6020604051808303816000875af115801562001858573d6000803e3d6000fd5b505050506040513d601f19601f820116820180604052508101906200187e9190620035c5565b60408051610180810182526001600160a01b038b168152602081018390529192508101620018ad8e8062003269565b8080601f016020809104026020016040519081016040528093929190818152602001838380828437600081840152601f19601f820116905080830192505050505050508152602001886001600160a01b03168152602001876001600160a01b03168152602001866001600160a01b03168152602001846001600160a01b03168152602001856001600160a01b03168152602001836001600160a01b031681526020018a6001600160a01b031681526020018d608001358152602001600015158152509a508a8a600d0160008a6001600160a01b03166001600160a01b0316815260200190815260200160002060008201518160000160006101000a8154816001600160a01b0302191690836001600160a01b03160217905550602082015181600101556040820151816002019081620019e7919062003630565b5060608201518160030160006101000a8154816001600160a01b0302191690836001600160a01b0316021790555060808201518160040160006101000a8154816001600160a01b0302191690836001600160a01b0316021790555060a08201518160050160006101000a8154816001600160a01b0302191690836001600160a01b0316021790555060c08201518160060160006101000a8154816001600160a01b0302191690836001600160a01b0316021790555060e08201518160070160006101000a8154816001600160a01b0302191690836001600160a01b031602179055506101008201518160080160006101000a8154816001600160a01b0302191690836001600160a01b031602179055506101208201518160090160006101000a8154816001600160a01b0302191690836001600160a01b0316021790555061014082015181600a015561016082015181600b0160006101000a81548160ff02191690831515021790555090505089600c018b90806001815401808255809150506001900390600052602060002090600c020160009091909190915060008201518160000160006101000a8154816001600160a01b0302191690836001600160a01b0316021790555060208201518160010155604082015181600201908162001bd0919062003630565b506060828101516003830180546001600160a01b03199081166001600160a01b0393841617909155608080860151600486018054841691851691909117905560a080870151600587018054851691861691909117905560c080880151600688018054861691871691909117905560e0808901516007890180548716918816919091179055610100890151600889018054871691881691909117905561012089015160098901805490961690871617909455610140880151600a88015561016090970151600b909601805460ff191696151596909617909555604080518f851681528d851660208201528c8516918101919091528a841694810194909452888316908401528d8216938301939093528516928101929092527f3163bceb365c85326c53476ceb0b49cfacb67f6d675e6eeb739c58ceb8b20bb6910160405180910390a150505050505050505050919050565b7f9016d09d72d40fdae2fd8ceac6b6234c7706214fd39c1cd1e609a0528c199300546001600160a01b031690565b7ff0c57e16840df040f15088dc2f81fe391c3923bec73e23a9662efc9c229c6a008054600160401b810460ff1615906001600160401b031660008115801562001d955750825b90506000826001600160401b0316600114801562001db25750303b155b90508115801562001dc1575080155b1562001de05760405163f92ee8a960e01b815260040160405180910390fd5b845467ffffffffffffffff19166001178555831562001e0b57845460ff60401b1916600160401b1785555b62001e163362002b28565b600062001e22620023be565b905062001e33602088018862002d85565b81546001600160a01b0319166001600160a01b039190911617815562001e60604088016020890162002d85565b6001820180546001600160a01b0319166001600160a01b039290921691909117905562001e94606088016040890162002d85565b6002820180546001600160a01b0319166001600160a01b039290921691909117905562001ec860e0880160c0890162002d85565b6003820180546001600160a01b0319166001600160a01b039290921691909117905562001efc608088016060890162002d85565b6004820180546001600160a01b0319166001600160a01b039290921691909117905562001f3060a088016080890162002d85565b6005820180546001600160a01b0319166001600160a01b039290921691909117905562001f65610100880160e0890162002d85565b6006820180546001600160a01b0319166001600160a01b039290921691909117905562001f9960c0880160a0890162002d85565b6007820180546001600160a01b0319166001600160a01b039290921691909117905562001fcf6101208801610100890162002d85565b6008820180546001600160a01b0319166001600160a01b0392909216919091179055620020056101408801610120890162002d85565b60099190910180546001600160a01b0319166001600160a01b0390921691909117905583156200206f57845460ff60401b19168555604051600181527fc7f505b2f371ae2175ee4913f4499e1f2633a7b5936321eed1cdaeb6115181d29060200160405180910390a15b505050505050565b6200208162002825565b601e81511115620020c85760405162461bcd60e51b815260206004820152601060248201526f06d6178206167656e74732069732033360841b60448201526064016200039f565b6000620020d4620023be565b905060005b8251811015620021935760006001600160a01b03168382815181106200210357620021036200312c565b60200260200101516001600160a01b031603620021345760405162461bcd60e51b81526004016200039f90620031cc565b81600a018382815181106200214d576200214d6200312c565b60209081029190910181015182546001808201855560009485529290932090920180546001600160a01b0319166001600160a01b039093169290921790915501620020d9565b507f841421fc38b9d27338042dbea7f73d4c58c28c36fc74c5a5aa3d363043e76fae82604051620021c5919062002d0e565b60405180910390a15050565b60606000620021df620023be565b600c810180546040805160208084028201810190925282815293945060009084015b828210156200236f5760008481526020908190206040805161018081018252600c860290920180546001600160a01b0316835260018101549383019390935260028301805492939291840191620022589062003142565b80601f0160208091040260200160405190810160405280929190818152602001828054620022869062003142565b8015620022d75780601f10620022ab57610100808354040283529160200191620022d7565b820191906000526020600020905b815481529060010190602001808311620022b957829003601f168201915b505050918352505060038201546001600160a01b039081166020808401919091526004840154821660408401526005840154821660608401526006840154821660808401526007840154821660a08401526008840154821660c0840152600984015490911660e0830152600a830154610100830152600b9092015460ff16151561012090910152908252600192909201910162002201565b5050505091505090565b6200238362002825565b6001600160a01b038116620023b0576000604051631e4fbdf760e01b81526004016200039f919062002dac565b620023bb816200285c565b50565b7f0f40dde8b99b0722537b774c6ef775b5e5a0af035d95bf9802cd87411f806f0090565b6000806000620023f3858562002b3d565b6040516001600160601b0319606084811b8216602084015283901b1660348201529193509150869060480160405160208183030381529060405280519060200120604051602001620024929291906001600160f81b0319815260609290921b6001600160601b031916600183015260158201527fdea1222ed22817f96ed20157be156c80808da15c079040548d4487a79708fe8e603582015260550190565b60408051601f1981840301815291905280516020909101209695505050505050565b6000620024c0620023be565b905060008160040160009054906101000a90046001600160a01b031690506000846001600160a01b031663134e18f46040518163ffffffff1660e01b8152600401602060405180830381865afa1580156200251f573d6000803e3d6000fd5b505050506040513d601f19601f820116820180604052508101906200254591906200310c565b905060005b84518110156200281c576000836001600160a01b0316632fea7b818784815181106200257a576200257a6200312c565b60200260200101516040518263ffffffff1660e01b8152600401620025a0919062002dac565b602060405180830381865afa158015620025be573d6000803e3d6000fd5b505050506040513d601f19601f82011682018060405250810190620025e491906200310c565b90506103486001600160a01b0382166200268b57846001600160a01b0316635b2ab06c8885815181106200261c576200261c6200312c565b60200260200101516040518263ffffffff1660e01b815260040162002642919062002dac565b6020604051808303816000875af115801562002662573d6000803e3d6000fd5b505050506040513d601f19601f820116820180604052508101906200268891906200310c565b91505b60006001600160a01b0316846001600160a01b031663f0eb5e54898681518110620026ba57620026ba6200312c565b60200260200101516040518263ffffffff1660e01b8152600401620026e0919062002dac565b602060405180830381865afa158015620026fe573d6000803e3d6000fd5b505050506040513d601f19601f820116820180604052508101906200272491906200310c565b6001600160a01b0316036200281157836001600160a01b031663454a03e08885815181106200275757620027576200312c565b602002602001015184846040518463ffffffff1660e01b8152600401620027819392919062003178565b600060405180830381600087803b1580156200279c57600080fd5b505af1158015620027b1573d6000803e3d6000fd5b505050507f6680dc6d23915f02197cb4ac29f4b00443a14ca1cbe22d6b93045c32b98a823789888581518110620027ec57620027ec6200312c565b602002602001015184846040516200280894939291906200319f565b60405180910390a15b50506001016200254a565b50505050505050565b336200283062001d21565b6001600160a01b03161462001033573360405163118cdaa760e01b81526004016200039f919062002dac565b7f9016d09d72d40fdae2fd8ceac6b6234c7706214fd39c1cd1e609a0528c19930080546001600160a01b031981166001600160a01b03848116918217845560405192169182907f8be0079c531659141344cd1fd0a4f28419497f9722a3daafe3b4186f6b6457e090600090a3505050565b60606000620028db620023be565b600a810154909150600090620028f3906002620036fc565b6001600160401b038111156200290d576200290d62002fbc565b60405190808252806020026020018201604052801562002937578160200160208202803683370190505b50905060005b600a830154811015620029b65782600a0181815481106200296257620029626200312c565b9060005260206000200160009054906101000a90046001600160a01b03168282815181106200299557620029956200312c565b6001600160a01b03909216602092830291909101909101526001016200293d565b50308160018351620029c9919062003211565b81518110620029dc57620029dc6200312c565b60200260200101906001600160a01b031690816001600160a01b03168152505033816002835162002a0e919062003211565b8151811062002a215762002a216200312c565b6001600160a01b039092166020928302919091019091015292915050565b6060600062002a4d620023be565b600b81015490915060009062002a65906002620036fc565b6001600160401b0381111562002a7f5762002a7f62002fbc565b60405190808252806020026020018201604052801562002aa9578160200160208202803683370190505b50905060005b600b830154811015620029b65782600b01818154811062002ad45762002ad46200312c565b9060005260206000200160009054906101000a90046001600160a01b031682828151811062002b075762002b076200312c565b6001600160a01b039092166020928302919091019091015260010162002aaf565b62002b3262002c3a565b620023bb8162002c84565b600080826001600160a01b0316846001600160a01b03160362002bb15760405162461bcd60e51b815260206004820152602560248201527f556e697377617056324c6962726172793a204944454e544943414c5f41444452604482015264455353455360d81b60648201526084016200039f565b826001600160a01b0316846001600160a01b03161062002bd357828462002bd6565b83835b90925090506001600160a01b03821662002c335760405162461bcd60e51b815260206004820152601e60248201527f556e697377617056324c6962726172793a205a45524f5f41444452455353000060448201526064016200039f565b9250929050565b7ff0c57e16840df040f15088dc2f81fe391c3923bec73e23a9662efc9c229c6a0054600160401b900460ff166200103357604051631afcd79f60e31b815260040160405180910390fd5b6200238362002c3a565b604080516101808101825260008082526020820181905260609282018390529181018290526080810182905260a0810182905260c0810182905260e0810182905261010081018290526101208101829052610140810182905261016081019190915290565b6105bf806200371383390190565b6001600160a01b03169052565b6020808252825182820181905260009190848201906040850190845b8181101562002d515783516001600160a01b03168352928401929184019160010162002d2a565b50909695505050505050565b6001600160a01b0381168114620023bb57600080fd5b803562002d808162002d5d565b919050565b60006020828403121562002d9857600080fd5b813562002da58162002d5d565b9392505050565b6001600160a01b0391909116815260200190565b60008060006060848603121562002dd657600080fd5b833562002de38162002d5d565b9250602084013562002df58162002d5d565b9150604084013561ffff8116811462002e0d57600080fd5b809150509250925092565b6000815180845260005b8181101562002e405760208185018101518683018201520162002e22565b506000602082860101526020601f19601f83011685010191505092915050565b600061018062002e7284845162002d01565b60208301516020850152604083015181604086015262002e958286018262002e18565b915050606083015162002eac606086018262002d01565b50608083015162002ec1608086018262002d01565b5060a083015162002ed660a086018262002d01565b5060c083015162002eeb60c086018262002d01565b5060e083015162002f0060e086018262002d01565b506101008084015162002f168287018262002d01565b50506101208084015162002f2d8287018262002d01565b5050610140838101519085015261016092830151151592909301919091525090565b60208152600062002da5602083018462002e60565b60006020828403121562002f7757600080fd5b81356001600160401b0381111562002f8e57600080fd5b8201610220818503121562002da557600080fd5b6000610140828403121562002fb657600080fd5b50919050565b634e487b7160e01b600052604160045260246000fd5b6000602080838503121562002fe657600080fd5b82356001600160401b038082111562002ffe57600080fd5b818501915085601f8301126200301357600080fd5b81358181111562003028576200302862002fbc565b8060051b604051601f19603f8301168101818110858211171562003050576200305062002fbc565b6040529182528482019250838101850191888311156200306f57600080fd5b938501935b828510156200309857620030888562002d73565b8452938501939285019262003074565b98975050505050505050565b600060208083016020845280855180835260408601915060408160051b87010192506020870160005b82811015620030ff57603f19888603018452620030ec85835162002e60565b94509285019290850190600101620030cd565b5092979650505050505050565b6000602082840312156200311f57600080fd5b815162002da58162002d5d565b634e487b7160e01b600052603260045260246000fd5b600181811c908216806200315757607f821691505b60208210810362002fb657634e487b7160e01b600052602260045260246000fd5b6001600160a01b03938416815291909216602082015261ffff909116604082015260600190565b6001600160a01b03948516815292841660208401529216604082015261ffff909116606082015260800190565b602080825260159082015274496e76616c6964206167656e74206164647265737360581b604082015260600190565b634e487b7160e01b600052601160045260246000fd5b81810381811115620032275762003227620031fb565b92915050565b634e487b7160e01b600052603160045260246000fd5b6001600160a01b03831681526040602082018190526000906200032b9083018462002e18565b6000808335601e198436030181126200328157600080fd5b8301803591506001600160401b038211156200329c57600080fd5b60200191503681900382131562002c3357600080fd5b600060208284031215620032c557600080fd5b813560ff8116811462002da557600080fd5b60008151808452602080850194506020840160005b83811015620033135781516001600160a01b031687529582019590820190600101620032ec565b509495945050505050565b602080825282516001600160a01b03168282015282015160009062003347604084018262002d01565b50604083015160e060608401526200336461010084018262002e18565b90506060840151601f198085840301608086015262003384838362002e18565b9250608086015191506200339d60a086018360ff169052565b60a08601519150808584030160c0860152620033ba8383620032d7565b925060c08601519150808584030160e086015250620033da8282620032d7565b95945050505050565b600060208284031215620033f657600080fd5b813563ffffffff8116811462002da557600080fd5b60208152600060018060a01b0380845116602084015280602085015116604084015250604083015160c060608401526200344960e084018262002e18565b90506060840151601f1984830301608085015262003468828262002e18565b91505060ff60808501511660a084015260a084015160c08401528091505092915050565b60208152600060018060a01b03808451166020840152806020850151166040840152604084015160c06060850152620034c960e085018262002e18565b90508160608601511660808501528160808601511660a08501528160a08601511660c0850152809250505092915050565b60208152600060018060a01b03808451166020840152602084015160e060408501526200352c61010085018262002e18565b90506040850151601f198583030160608601526200354b828262002e18565b915050606085015160808501528160808601511660a08501528160a08601511660c085015260c085015160e0850152809250505092915050565b6001600160a01b03841681526040602082018190528101829052818360608301376000818301606090810191909152601f909201601f1916010192915050565b600060208284031215620035d857600080fd5b5051919050565b601f8211156200362b576000816000526020600020601f850160051c810160208610156200360a5750805b601f850160051c820191505b818110156200206f5782815560010162003616565b505050565b81516001600160401b038111156200364c576200364c62002fbc565b62003664816200365d845462003142565b84620035df565b602080601f8311600181146200369c5760008415620036835750858301515b600019600386901b1c1916600185901b1785556200206f565b600085815260208120601f198616915b82811015620036cd57888601518255948401946001909101908401620036ac565b5085821015620036ec5787850151600019600388901b60f8161c191681555b5050505050600190811b01905550565b80820180821115620032275762003227620031fb56fe60a06040526040516105bf3803806105bf83398101604081905261002291610387565b61002c828261003e565b506001600160a01b031660805261047e565b610047826100fe565b6040516001600160a01b038316907f1cf3b03a6cf19fa2baba4df148e9dcabedea7f8a5c07840e207e5c089be95d3e90600090a28051156100f2576100ed826001600160a01b0316635c60da1b6040518163ffffffff1660e01b8152600401602060405180830381865afa1580156100c3573d6000803e3d6000fd5b505050506040513d601f19601f820116820180604052508101906100e79190610447565b82610211565b505050565b6100fa610288565b5050565b806001600160a01b03163b60000361013957604051631933b43b60e21b81526001600160a01b03821660048201526024015b60405180910390fd5b807fa3f0ad74e5423aebfd80d3ef4346578335a9a72aeaee59ff6cb3582b35133d5080546001600160a01b0319166001600160a01b0392831617905560408051635c60da1b60e01b81529051600092841691635c60da1b9160048083019260209291908290030181865afa1580156101b5573d6000803e3d6000fd5b505050506040513d601f19601f820116820180604052508101906101d99190610447565b9050806001600160a01b03163b6000036100fa57604051634c9c8ce360e01b81526001600160a01b0382166004820152602401610130565b6060600080846001600160a01b03168460405161022e9190610462565b600060405180830381855af49150503d8060008114610269576040519150601f19603f3d011682016040523d82523d6000602084013e61026e565b606091505b50909250905061027f8583836102a9565b95945050505050565b34156102a75760405163b398979f60e01b815260040160405180910390fd5b565b6060826102be576102b982610308565b610301565b81511580156102d557506001600160a01b0384163b155b156102fe57604051639996b31560e01b81526001600160a01b0385166004820152602401610130565b50805b9392505050565b8051156103185780518082602001fd5b604051630a12f52160e11b815260040160405180910390fd5b80516001600160a01b038116811461034857600080fd5b919050565b634e487b7160e01b600052604160045260246000fd5b60005b8381101561037e578181015183820152602001610366565b50506000910152565b6000806040838503121561039a57600080fd5b6103a383610331565b60208401519092506001600160401b03808211156103c057600080fd5b818501915085601f8301126103d457600080fd5b8151818111156103e6576103e661034d565b604051601f8201601f19908116603f0116810190838211818310171561040e5761040e61034d565b8160405282815288602084870101111561042757600080fd5b610438836020830160208801610363565b80955050505050509250929050565b60006020828403121561045957600080fd5b61030182610331565b60008251610474818460208701610363565b9190910192915050565b6080516101276104986000396000601e01526101276000f3fe6080604052600a600c565b005b60186014601a565b60a0565b565b60007f00000000000000000000000000000000000000000000000000000000000000006001600160a01b0316635c60da1b6040518163ffffffff1660e01b8152600401602060405180830381865afa1580156079573d6000803e3d6000fd5b505050506040513d601f19601f82011682018060405250810190609b919060c3565b905090565b3660008037600080366000845af43d6000803e80801560be573d6000f35b3d6000fd5b60006020828403121560d457600080fd5b81516001600160a01b038116811460ea57600080fd5b939250505056fea26469706673582212205c8a2fcdc6f79c1d43b849e2b03f494652cee222b2ec86046b7caaa1405f985f64736f6c63430008180033a2646970667358221220bcffb444d76bba92da00471f98aab3ec791a73dc9d7cce63fa02133799956fdc64736f6c63430008180033",
  "linkReferences": {
    "contracts/buildings/library/BuildingAutoCompounder.sol": {
      "BuildingAutoCompounderLib": [
        {
          "length": 20,
          "start": 5983
        }
      ]
    },
    "contracts/buildings/library/BuildingGovernance.sol": {
      "BuildingGovernanceLib": [
        {
          "length": 20,
          "start": 5737
        }
      ]
    },
    "contracts/buildings/library/BuildingToken.sol": {
      "BuildingTokenLib": [
        {
          "length": 20,
          "start": 4709
        }
      ]
    },
    "contracts/buildings/library/BuildingTreasury.sol": {
      "BuildingTreasuryLib": [
        {
          "length": 20,
          "start": 5144
        }
      ]
    },
    "contracts/buildings/library/BuildingVault.sol": {
      "BuildingVaultLib": [
        {
          "length": 20,
          "start": 5344
        }
      ]
    }
  },
  "deployedLinkReferences": {
    "contracts/buildings/library/BuildingAutoCompounder.sol": {
      "BuildingAutoCompounderLib": [
        {
          "length": 20,
          "start": 5753
        }
      ]
    },
    "contracts/buildings/library/BuildingGovernance.sol": {
      "BuildingGovernanceLib": [
        {
          "length": 20,
          "start": 5507
        }
      ]
    },
    "contracts/buildings/library/BuildingToken.sol": {
      "BuildingTokenLib": [
        {
          "length": 20,
          "start": 4479
        }
      ]
    },
    "contracts/buildings/library/BuildingTreasury.sol": {
      "BuildingTreasuryLib": [
        {
          "length": 20,
          "start": 4914
        }
      ]
    },
    "contracts/buildings/library/BuildingVault.sol": {
      "BuildingVaultLib": [
        {
          "length": 20,
          "start": 5114
        }
      ]
    }
  }
}