{
  "_format": "hh-sol-artifact-1",
  "contractName": "BuildingFactory",
  "sourceName": "contracts/buildings/BuildingFactory.sol",
  "abi": [
    {
      "inputs": [],
      "stateMutability": "nonpayable",
      "type": "constructor"
    },
    {
      "inputs": [],
      "name": "InvalidInitialization",
      "type": "error"
    },
    {
      "inputs": [],
      "name": "NotInitializing",
      "type": "error"
    },
    {
      "anonymous": false,
      "inputs": [
        {
          "indexed": false,
          "internalType": "address",
          "name": "building",
          "type": "address"
        },
        {
          "indexed": false,
          "internalType": "address",
          "name": "module",
          "type": "address"
        }
      ],
      "name": "ComplianceModuleAdded",
      "type": "event"
    },
    {
      "anonymous": false,
      "inputs": [
        {
          "indexed": false,
          "internalType": "address",
          "name": "wallet",
          "type": "address"
        },
        {
          "indexed": false,
          "internalType": "address",
          "name": "identity",
          "type": "address"
        },
        {
          "indexed": false,
          "internalType": "uint16",
          "name": "country",
          "type": "uint16"
        }
      ],
      "name": "IdentityRegistered",
      "type": "event"
    },
    {
      "anonymous": false,
      "inputs": [
        {
          "indexed": false,
          "internalType": "uint64",
          "name": "version",
          "type": "uint64"
        }
      ],
      "name": "Initialized",
      "type": "event"
    },
    {
      "anonymous": false,
      "inputs": [
        {
          "indexed": false,
          "internalType": "address",
          "name": "buildingAddress",
          "type": "address"
        },
        {
          "indexed": false,
          "internalType": "address",
          "name": "erc3643Token",
          "type": "address"
        },
        {
          "indexed": false,
          "internalType": "address",
          "name": "treasury",
          "type": "address"
        },
        {
          "indexed": false,
          "internalType": "address",
          "name": "vault",
          "type": "address"
        },
        {
          "indexed": false,
          "internalType": "address",
          "name": "governance",
          "type": "address"
        },
        {
          "indexed": false,
          "internalType": "address",
          "name": "initialOwner",
          "type": "address"
        },
        {
          "indexed": false,
          "internalType": "address",
          "name": "autoCompounder",
          "type": "address"
        }
      ],
      "name": "NewBuilding",
      "type": "event"
    },
    {
      "inputs": [
        {
          "internalType": "address",
          "name": "building",
          "type": "address"
        },
        {
          "internalType": "address",
          "name": "module",
          "type": "address"
        },
        {
          "internalType": "bytes",
          "name": "callData",
          "type": "bytes"
        }
      ],
      "name": "addComplianceModule",
      "outputs": [],
      "stateMutability": "nonpayable",
      "type": "function"
    },
    {
      "inputs": [
        {
          "internalType": "address",
          "name": "wallet",
          "type": "address"
        }
      ],
      "name": "deployIdentityForWallet",
      "outputs": [
        {
          "internalType": "address",
          "name": "",
          "type": "address"
        }
      ],
      "stateMutability": "nonpayable",
      "type": "function"
    },
    {
      "inputs": [
        {
          "internalType": "address",
          "name": "buildingAddress",
          "type": "address"
        }
      ],
      "name": "getBuildingDetails",
      "outputs": [
        {
          "components": [
            {
              "internalType": "address",
              "name": "addr",
              "type": "address"
            },
            {
              "internalType": "uint256",
              "name": "nftId",
              "type": "uint256"
            },
            {
              "internalType": "string",
              "name": "tokenURI",
              "type": "string"
            },
            {
              "internalType": "address",
              "name": "identity",
              "type": "address"
            },
            {
              "internalType": "address",
              "name": "erc3643Token",
              "type": "address"
            },
            {
              "internalType": "address",
              "name": "treasury",
              "type": "address"
            },
            {
              "internalType": "address",
              "name": "governance",
              "type": "address"
            },
            {
              "internalType": "address",
              "name": "vault",
              "type": "address"
            },
            {
              "internalType": "address",
              "name": "autoCompounder",
              "type": "address"
            }
          ],
          "internalType": "struct BuildingFactoryStorage.BuildingDetails",
          "name": "",
          "type": "tuple"
        }
      ],
      "stateMutability": "view",
      "type": "function"
    },
    {
      "inputs": [],
      "name": "getBuildingList",
      "outputs": [
        {
          "components": [
            {
              "internalType": "address",
              "name": "addr",
              "type": "address"
            },
            {
              "internalType": "uint256",
              "name": "nftId",
              "type": "uint256"
            },
            {
              "internalType": "string",
              "name": "tokenURI",
              "type": "string"
            },
            {
              "internalType": "address",
              "name": "identity",
              "type": "address"
            },
            {
              "internalType": "address",
              "name": "erc3643Token",
              "type": "address"
            },
            {
              "internalType": "address",
              "name": "treasury",
              "type": "address"
            },
            {
              "internalType": "address",
              "name": "governance",
              "type": "address"
            },
            {
              "internalType": "address",
              "name": "vault",
              "type": "address"
            },
            {
              "internalType": "address",
              "name": "autoCompounder",
              "type": "address"
            }
          ],
          "internalType": "struct BuildingFactoryStorage.BuildingDetails[]",
          "name": "",
          "type": "tuple[]"
        }
      ],
      "stateMutability": "view",
      "type": "function"
    },
    {
      "inputs": [
        {
          "internalType": "address",
          "name": "wallet",
          "type": "address"
        }
      ],
      "name": "getIdentity",
      "outputs": [
        {
          "internalType": "contract IIdentity",
          "name": "",
          "type": "address"
        }
      ],
      "stateMutability": "view",
      "type": "function"
    },
    {
      "inputs": [
        {
          "internalType": "address",
          "name": "_nft",
          "type": "address"
        },
        {
          "internalType": "address",
          "name": "_uniswapRouter",
          "type": "address"
        },
        {
          "internalType": "address",
          "name": "_uniswapFactory",
          "type": "address"
        },
        {
          "internalType": "address",
          "name": "_onchainIdGateway",
          "type": "address"
        },
        {
          "internalType": "address",
          "name": "_trexGateway",
          "type": "address"
        },
        {
          "internalType": "address",
          "name": "_usdc",
          "type": "address"
        },
        {
          "internalType": "address",
          "name": "_buildingBeacon",
          "type": "address"
        },
        {
          "internalType": "address",
          "name": "_treasuryBeacon",
          "type": "address"
        },
        {
          "internalType": "address",
          "name": "_governanceBeacon",
          "type": "address"
        }
      ],
      "name": "initialize",
      "outputs": [],
      "stateMutability": "nonpayable",
      "type": "function"
    },
    {
      "inputs": [
        {
          "components": [
            {
              "internalType": "string",
              "name": "tokenURI",
              "type": "string"
            },
            {
              "internalType": "string",
              "name": "tokenName",
              "type": "string"
            },
            {
              "internalType": "string",
              "name": "tokenSymbol",
              "type": "string"
            },
            {
              "internalType": "uint8",
              "name": "tokenDecimals",
              "type": "uint8"
            },
            {
              "internalType": "uint256",
              "name": "tokenMintAmount",
              "type": "uint256"
            },
            {
              "internalType": "uint256",
              "name": "treasuryReserveAmount",
              "type": "uint256"
            },
            {
              "internalType": "uint256",
              "name": "treasuryNPercent",
              "type": "uint256"
            },
            {
              "internalType": "string",
              "name": "governanceName",
              "type": "string"
            },
            {
              "internalType": "string",
              "name": "vaultShareTokenName",
              "type": "string"
            },
            {
              "internalType": "string",
              "name": "vaultShareTokenSymbol",
              "type": "string"
            },
            {
              "internalType": "address",
              "name": "vaultFeeReceiver",
              "type": "address"
            },
            {
              "internalType": "address",
              "name": "vaultFeeToken",
              "type": "address"
            },
            {
              "internalType": "uint256",
              "name": "vaultFeePercentage",
              "type": "uint256"
            },
            {
              "internalType": "uint32",
              "name": "vaultCliff",
              "type": "uint32"
            },
            {
              "internalType": "uint32",
              "name": "vaultUnlockDuration",
              "type": "uint32"
            },
            {
              "internalType": "string",
              "name": "aTokenName",
              "type": "string"
            },
            {
              "internalType": "string",
              "name": "aTokenSymbol",
              "type": "string"
            }
          ],
          "internalType": "struct BuildingFactoryStorage.NewBuildingDetails",
          "name": "details",
          "type": "tuple"
        }
      ],
      "name": "newBuilding",
      "outputs": [
        {
          "components": [
            {
              "internalType": "address",
              "name": "addr",
              "type": "address"
            },
            {
              "internalType": "uint256",
              "name": "nftId",
              "type": "uint256"
            },
            {
              "internalType": "string",
              "name": "tokenURI",
              "type": "string"
            },
            {
              "internalType": "address",
              "name": "identity",
              "type": "address"
            },
            {
              "internalType": "address",
              "name": "erc3643Token",
              "type": "address"
            },
            {
              "internalType": "address",
              "name": "treasury",
              "type": "address"
            },
            {
              "internalType": "address",
              "name": "governance",
              "type": "address"
            },
            {
              "internalType": "address",
              "name": "vault",
              "type": "address"
            },
            {
              "internalType": "address",
              "name": "autoCompounder",
              "type": "address"
            }
          ],
          "internalType": "struct BuildingFactoryStorage.BuildingDetails",
          "name": "buildingDetails",
          "type": "tuple"
        }
      ],
      "stateMutability": "nonpayable",
      "type": "function"
    },
    {
      "inputs": [
        {
          "internalType": "address",
          "name": "buildingAddress",
          "type": "address"
        },
        {
          "internalType": "address",
          "name": "wallet",
          "type": "address"
        },
        {
          "internalType": "uint16",
          "name": "country",
          "type": "uint16"
        }
      ],
      "name": "registerIdentity",
      "outputs": [],
      "stateMutability": "nonpayable",
      "type": "function"
    }
  ],
  "bytecode": "0x60806040523480156200001157600080fd5b506200001c62000022565b620000d6565b7ff0c57e16840df040f15088dc2f81fe391c3923bec73e23a9662efc9c229c6a00805468010000000000000000900460ff1615620000735760405163f92ee8a960e01b815260040160405180910390fd5b80546001600160401b0390811614620000d35780546001600160401b0319166001600160401b0390811782556040519081527fc7f505b2f371ae2175ee4913f4499e1f2633a7b5936321eed1cdaeb6115181d29060200160405180910390a15b50565b6131b180620000e66000396000f3fe60806040523480156200001157600080fd5b5060043610620000825760003560e01c80632fea7b8114620000875780633e8e6e8b14620000b6578063454a03e014620000cd578063665fa4a114620000e6578063899a0ebe146200010c578063db652ec81462000123578063e891294c146200013c578063f5e95acb1462000153575b600080fd5b6200009e6200009836600462002280565b6200016a565b604051620000ad9190620022a0565b60405180910390f35b6200009e620000c736600462002280565b62000274565b620000e4620000de366004620022c1565b62000302565b005b620000fd620000f736600462002280565b620006a9565b604051620000ad919062002420565b620000fd6200011d36600462002435565b620007f9565b6200012d620019b2565b604051620000ad919062002474565b620000e46200014d366004620024dc565b62001b31565b620000e46200016436600462002577565b62001dff565b6000806200017762002094565b905060008160040160009054906101000a90046001600160a01b03166001600160a01b03166378e751a66040518163ffffffff1660e01b8152600401602060405180830381865afa158015620001d1573d6000803e3d6000fd5b505050506040513d601f19601f82011682018060405250810190620001f7919062002646565b604051632fea7b8160e01b81529091506001600160a01b03821690632fea7b819062000228908790600401620022a0565b602060405180830381865afa15801562000246573d6000803e3d6000fd5b505050506040513d601f19601f820116820180604052508101906200026c919062002646565b949350505050565b6000806200028162002094565b600480820154604051633e8e6e8b60e01b81529293506001600160a01b031691633e8e6e8b91620002b591879101620022a0565b6020604051808303816000875af1158015620002d5573d6000803e3d6000fd5b505050506040513d601f19601f82011682018060405250810190620002fb919062002646565b9392505050565b60006200030e62002094565b6001600160a01b038086166000908152600a830160209081526040808320815161012081018352815490951685526001810154928501929092526002820180549596509294919290840191620003649062002666565b80601f0160208091040260200160405190810160405280929190818152602001828054620003929062002666565b8015620003e35780601f10620003b757610100808354040283529160200191620003e3565b820191906000526020600020905b815481529060010190602001808311620003c557829003601f168201915b505050918352505060038201546001600160a01b039081166020808401919091526004808501548316604080860191909152600586015484166060860152600686015484166080808701919091526007870154851660a0870152600890960154841660c09095019490945293850151878501548451633c73a8d360e11b81529451969750909560009591909316936378e751a693818301939290918290030181865afa15801562000498573d6000803e3d6000fd5b505050506040513d601f19601f82011682018060405250810190620004be919062002646565b90506000826001600160a01b031663134e18f46040518163ffffffff1660e01b8152600401602060405180830381865afa15801562000501573d6000803e3d6000fd5b505050506040513d601f19601f8201168201806040525081019062000527919062002646565b90506000826001600160a01b0316632fea7b81896040518263ffffffff1660e01b8152600401620005599190620022a0565b602060405180830381865afa15801562000577573d6000803e3d6000fd5b505050506040513d601f19601f820116820180604052508101906200059d919062002646565b90506001600160a01b038116620005fb5760405162461bcd60e51b815260206004820152601d60248201527f4964656e7469747920666f722077616c6c6574206e6f7420666f756e6400000060448201526064015b60405180910390fd5b60405163022a501f60e51b81526001600160a01b0383169063454a03e0906200062d908b9085908c90600401620026a2565b600060405180830381600087803b1580156200064857600080fd5b505af11580156200065d573d6000803e3d6000fd5b505050507f74cfd0a46a2905d52ee4947cc1ac80b597bd474e7a0496263f14119e749472868882896040516200069693929190620026a2565b60405180910390a1505050505050505050565b620006b36200220c565b6000620006bf62002094565b6001600160a01b038085166000908152600a8301602090815260409182902082516101208101845281549094168452600181015491840191909152600281018054949550929390929184019190620007179062002666565b80601f0160208091040260200160405190810160405280929190818152602001828054620007459062002666565b8015620007965780601f106200076a5761010080835404028352916020019162000796565b820191906000526020600020905b8154815290600101906020018083116200077857829003601f168201915b505050918352505060038201546001600160a01b0390811660208301526004830154811660408301526005830154811660608301526006830154811660808301526007830154811660a083015260089092015490911660c0909101529392505050565b620008036200220c565b60006200080f62002094565b604080516101408101825260006020808301829052828401829052606083018290526080830182905260a0830182905260c0830182905260e083018290526101008301919091523380835260018501546001600160a01b039081166101208501819052600387015460028801548751602481019390935283166044830152606480830194909452865180830390940184526084909101865292820180516001600160e01b031663c0c53b8b60e01b17905293519495509193921691620008d59062002259565b620008e2929190620026c9565b604051809103906000f080158015620008ff573d6000803e3d6000fd5b506001600160a01b039081166020808401919091526040805160a08101825284518416815260058601549093168383015273__$6bcf1faf5c0920414dc51cd0daeb07e0f7$__92633af9cf1e9290918201906200095f90890189620026ef565b8080601f016020809104026020016040519081016040528093929190818152602001838380828437600092019190915250505090825250602001620009a86040890189620026ef565b8080601f016020809104026020016040519081016040528093929190818152602001838380828437600092019190915250505090825250602001620009f46080890160608a0162002740565b60ff168152506040518263ffffffff1660e01b815260040162000a18919062002765565b602060405180830381865af415801562000a36573d6000803e3d6000fd5b505050506040513d601f19601f8201168201806040525081019062000a5c919062002646565b6001600160a01b039081166080838101919091526040805160e081018252600686015484168152845184166020820190815260a08981013583850190815260c0808c0135606086019081528951891697860197885260078b0154891693860193845230918601918252955163af15b96960e01b8152945188166004860152925187166024850152516044840152925160648301529251841660848201529051831660a4820152905190911660c482015273__$6dd86c1de004dc2dd48a17c9065be1de70$__9063af15b9699060e401602060405180830381865af415801562000b49573d6000803e3d6000fd5b505050506040513d601f19601f8201168201806040525081019062000b6f919062002646565b6001600160a01b0390811660a08301526040805161014081019091526080830151909116815273__$e6502af67ab2c746a64bc3775a7b8857c1$__9063cd6856ef906020810162000bc5610100890189620026ef565b8080601f01602080910402602001604051908101604052809392919081815260200183838082843760009201919091525050509082525060200162000c0f610120890189620026ef565b8080601f01602080910402602001604051908101604052809392919081815260200183838082843760009201919091525050509082525060200162000c5d61016089016101408a0162002280565b6001600160a01b0316815260200162000c7f61018089016101608a0162002280565b6001600160a01b0390811682526101808901356020830152855181166040830152855116606082015260800162000cbf6101c089016101a08a01620027dc565b63ffffffff16815260200162000cde6101e089016101c08a01620027dc565b63ffffffff168152506040518263ffffffff1660e01b815260040162000d05919062002804565b602060405180830381865af415801562000d23573d6000803e3d6000fd5b505050506040513d601f19601f8201168201806040525081019062000d49919062002646565b6001600160a01b0390811660c08301526040805160a0810182526008850154831681526080840151909216602083015273__$9b19b7f7ded493586f11dad0d7ebc9ca26$__9163d88d811091810162000da660e0890189620026ef565b8080601f01602080910402602001604051908101604052809392919081815260200183838082843760009201919091525050509082525060a08501516001600160a01b039081166020830152855116604091820152516001600160e01b031960e084901b16815262000e1c9190600401620028e9565b602060405180830381865af415801562000e3a573d6000803e3d6000fd5b505050506040513d601f19601f8201168201806040525081019062000e60919062002646565b6001600160a01b0390811660e08301526040805160c080820183526001860154841682528401518316602082015260078501549092169082015273__$3080f05ed92e5505050a1e3d528e8c5fcb$__9063ea5fb336906060810162000eca6101e0890189620026ef565b8080601f01602080910402602001604051908101604052809392919081815260200183838082843760009201919091525050509082525060200162000f14610200890189620026ef565b8080601f01602080910402602001604051908101604052809392919081815260200183838082843760009201919091525050509082525084516001600160a01b03166020909101526040516001600160e01b031960e084901b16815262000f7f91906004016200294b565b602060405180830381865af415801562000f9d573d6000803e3d6000fd5b505050506040513d601f19601f8201168201806040525081019062000fc3919062002646565b6001600160a01b039081166101008301526004808401546080840151604080516304d3863d60e21b815290519285169460009492169263134e18f4928281019260209291908290030181865afa15801562001022573d6000803e3d6000fd5b505050506040513d601f19601f8201168201806040525081019062001048919062002646565b905060006200105784620020b8565b905060005b815181101562001337576000846001600160a01b03166378e751a66040518163ffffffff1660e01b8152600401602060405180830381865afa158015620010a7573d6000803e3d6000fd5b505050506040513d601f19601f82011682018060405250810190620010cd919062002646565b6001600160a01b0316632fea7b81848481518110620010f057620010f0620029cd565b60200260200101516040518263ffffffff1660e01b8152600401620011169190620022a0565b602060405180830381865afa15801562001134573d6000803e3d6000fd5b505050506040513d601f19601f820116820180604052508101906200115a919062002646565b90506103486001600160a01b0382166200120157856001600160a01b0316633e8e6e8b858581518110620011925762001192620029cd565b60200260200101516040518263ffffffff1660e01b8152600401620011b89190620022a0565b6020604051808303816000875af1158015620011d8573d6000803e3d6000fd5b505050506040513d601f19601f82011682018060405250810190620011fe919062002646565b91505b60006001600160a01b0316856001600160a01b031663f0eb5e54868681518110620012305762001230620029cd565b60200260200101516040518263ffffffff1660e01b8152600401620012569190620022a0565b602060405180830381865afa15801562001274573d6000803e3d6000fd5b505050506040513d601f19601f820116820180604052508101906200129a919062002646565b6001600160a01b0316036200132c57846001600160a01b031663454a03e0858581518110620012cd57620012cd620029cd565b602002602001015184846040518463ffffffff1660e01b8152600401620012f793929190620026a2565b600060405180830381600087803b1580156200131257600080fd5b505af115801562001327573d6000803e3d6000fd5b505050505b50506001016200105c565b50845460208501516001600160a01b039091169063d0def521906200135d8a80620026ef565b6040518463ffffffff1660e01b81526004016200137d9392919062002a0c565b6020604051808303816000875af11580156200139d573d6000803e3d6000fd5b505050506040513d601f19601f82011682018060405250810190620013c3919062002a3c565b8460400181815250508360a001516001600160a01b031663603607008560e001516040518263ffffffff1660e01b8152600401620014029190620022a0565b600060405180830381600087803b1580156200141d57600080fd5b505af115801562001432573d6000803e3d6000fd5b505050508360a001516001600160a01b031663256b5a028560c001516040518263ffffffff1660e01b81526004016200146c9190620022a0565b600060405180830381600087803b1580156200148757600080fd5b505af11580156200149c573d6000803e3d6000fd5b5050505060c084015160a0850151604051632f2ff15d60e01b81527f477fc23fb51bb5d5aa814872a393b0e4f35d0916c7503c0fd96584681070d41060048201526001600160a01b039182166024820152911690632f2ff15d90604401600060405180830381600087803b1580156200151457600080fd5b505af115801562001529573d6000803e3d6000fd5b5050505060c0840151845160405163f2fde38b60e01b81526001600160a01b039092169163f2fde38b916200156191600401620022a0565b600060405180830381600087803b1580156200157c57600080fd5b505af115801562001591573d6000803e3d6000fd5b5050505060808481015185516040516340c10f1960e01b81526001600160a01b039182166004820152928a0135602484015216906340c10f1990604401600060405180830381600087803b158015620015e957600080fd5b505af1158015620015fe573d6000803e3d6000fd5b50505050610100840151845160405163f2fde38b60e01b81526001600160a01b039092169163f2fde38b916200163791600401620022a0565b600060405180830381600087803b1580156200165257600080fd5b505af115801562001667573d6000803e3d6000fd5b505060408051610120810182526020808901516001600160a01b0316825288830151908201529250820190506200169f8980620026ef565b8080601f01602080910402602001604051908101604052809392919081815260200183838082843760009201829052509385525050506060878101516001600160a01b039081166020808601919091526080808b0151831660408088019190915260a0808d015185169588019590955260e08c015184169187019190915260c0808c01518416948701949094526101008b0151831693909501929092528189015181168352600a8a01825291839020845181546001600160a01b03191693169290921782558301516001820155908201519197508791600282019062001786908262002ac1565b5060608201516003820180546001600160a01b03199081166001600160a01b03938416179091556080840151600484018054831691841691909117905560a0840151600584018054831691841691909117905560c0840151600684018054831691841691909117905560e084015160078401805483169184169190911790556101009093015160089092018054841692821692909217909155600987810180546001818101835560009283526020928390208c5192909402909301805490951693169290921783559088015190820155604087015187919060028201906200186f908262002ac1565b5060608201516003820180546001600160a01b039283166001600160a01b03199182161790915560808085015160048501805491851691841691909117905560a08086015160058601805491861691851691909117905560c08087015160068701805491871691861691909117905560e08088015160078801805491881691871691909117905561010097880151600890970180549790961696909416959095179093556020890151908901519289015193890151918901518951958a01516040517f3163bceb365c85326c53476ceb0b49cfacb67f6d675e6eeb739c58ceb8b20bb697620019a097949695939290916001600160a01b03978816815295871660208701529386166040860152918516606085015284166080840152831660a083015290911660c082015260e00190565b60405180910390a15050505050919050565b60606000620019c062002094565b6009810180546040805160208084028201810190925282815293945060009084015b8282101562001b2757600084815260209081902060408051610120810182526009860290920180546001600160a01b031683526001810154938301939093526002830180549293929184019162001a399062002666565b80601f016020809104026020016040519081016040528092919081815260200182805462001a679062002666565b801562001ab85780601f1062001a8c5761010080835404028352916020019162001ab8565b820191906000526020600020905b81548152906001019060200180831162001a9a57829003601f168201915b505050918352505060038201546001600160a01b039081166020808401919091526004840154821660408401526005840154821660608401526006840154821660808401526007840154821660a08401526008909301541660c0909101529082526001929092019101620019e2565b5050505091505090565b600062001b3d62002094565b6001600160a01b038087166000908152600a83016020526040902060040154919250168062001baa5760405162461bcd60e51b8152602060048201526018602482015277109d5a5b191a5b99c81d1bdad95b881b9bdd08199bdd5b9960421b6044820152606401620005f2565b336001600160a01b0316816001600160a01b0316638da5cb5b6040518163ffffffff1660e01b8152600401602060405180830381865afa15801562001bf3573d6000803e3d6000fd5b505050506040513d601f19601f8201168201806040525081019062001c19919062002646565b6001600160a01b03160362001c805760405162461bcd60e51b815260206004820152602660248201527f4f6e6c79206275696c64696e67206f776e65722063616e2061646420636f6d706044820152656c69616e636560d01b6064820152608401620005f2565b6000816001600160a01b0316636290865d6040518163ffffffff1660e01b8152600401602060405180830381865afa15801562001cc1573d6000803e3d6000fd5b505050506040513d601f19601f8201168201806040525081019062001ce7919062002646565b604051631ed86f1960e01b81529091506001600160a01b03821690631ed86f199062001d18908990600401620022a0565b600060405180830381600087803b15801562001d3357600080fd5b505af115801562001d48573d6000803e3d6000fd5b505060405163efb22d3360e01b81526001600160a01b038416925063efb22d33915062001d7e90889088908b9060040162002b8e565b600060405180830381600087803b15801562001d9957600080fd5b505af115801562001dae573d6000803e3d6000fd5b5050604080516001600160a01b03808c1682528a1660208201527f206d5ad91f2b853f57f138b9f7af9887b85321df6602565c1015986af2452d82935001905060405180910390a150505050505050565b7ff0c57e16840df040f15088dc2f81fe391c3923bec73e23a9662efc9c229c6a008054600160401b810460ff16159067ffffffffffffffff1660008115801562001e465750825b905060008267ffffffffffffffff16600114801562001e645750303b155b90508115801562001e73575080155b1562001e925760405163f92ee8a960e01b815260040160405180910390fd5b845467ffffffffffffffff19166001178555831562001ebd57845460ff60401b1916600160401b1785555b600062001ec962002094565b90508e8160000160006101000a8154816001600160a01b0302191690836001600160a01b031602179055508d8160010160006101000a8154816001600160a01b0302191690836001600160a01b031602179055508c8160020160006101000a8154816001600160a01b0302191690836001600160a01b03160217905550888160030160006101000a8154816001600160a01b0302191690836001600160a01b031602179055508b8160040160006101000a8154816001600160a01b0302191690836001600160a01b031602179055508a8160050160006101000a8154816001600160a01b0302191690836001600160a01b03160217905550878160060160006101000a8154816001600160a01b0302191690836001600160a01b03160217905550898160070160006101000a8154816001600160a01b0302191690836001600160a01b03160217905550868160080160006101000a8154816001600160a01b0302191690836001600160a01b031602179055505083156200208457845460ff60401b19168555604051600181527fc7f505b2f371ae2175ee4913f4499e1f2633a7b5936321eed1cdaeb6115181d29060200160405180910390a15b5050505050505050505050505050565b7f0f40dde8b99b0722537b774c6ef775b5e5a0af035d95bf9802cd87411f806f0090565b60408051600580825260c0820190925260609190816020820160a080368337019050509150826000015182600081518110620020f857620020f8620029cd565b60200260200101906001600160a01b031690816001600160a01b0316815250508260c0015182600181518110620021335762002133620029cd565b60200260200101906001600160a01b031690816001600160a01b031681525050826101000151826002815181106200216f576200216f620029cd565b60200260200101906001600160a01b031690816001600160a01b031681525050826020015182600381518110620021aa57620021aa620029cd565b60200260200101906001600160a01b031690816001600160a01b03168152505082610120015182600481518110620021e657620021e6620029cd565b60200260200101906001600160a01b031690816001600160a01b03168152505050919050565b604080516101208101825260008082526020820181905260609282018390529181018290526080810182905260a0810182905260c0810182905260e0810182905261010081019190915290565b6105bf8062002bbd83390190565b6001600160a01b03811681146200227d57600080fd5b50565b6000602082840312156200229357600080fd5b8135620002fb8162002267565b6001600160a01b0391909116815260200190565b6001600160a01b03169052565b600080600060608486031215620022d757600080fd5b8335620022e48162002267565b92506020840135620022f68162002267565b9150604084013561ffff811681146200230e57600080fd5b809150509250925092565b6000815180845260005b81811015620023415760208185018101518683018201520162002323565b506000602082860101526020601f19601f83011685010191505092915050565b600061012060018060a01b038351168452602083015160208501526040830151816040860152620023958286018262002319565b9150506060830151620023ac6060860182620022b4565b506080830151620023c16080860182620022b4565b5060a0830151620023d660a0860182620022b4565b5060c0830151620023eb60c0860182620022b4565b5060e08301516200240060e0860182620022b4565b50610100808401516200241682870182620022b4565b5090949350505050565b602081526000620002fb602083018462002361565b6000602082840312156200244857600080fd5b813567ffffffffffffffff8111156200246057600080fd5b82016102208185031215620002fb57600080fd5b600060208083016020845280855180835260408601915060408160051b87010192506020870160005b82811015620024cf57603f19888603018452620024bc85835162002361565b945092850192908501906001016200249d565b5092979650505050505050565b60008060008060608587031215620024f357600080fd5b8435620025008162002267565b93506020850135620025128162002267565b9250604085013567ffffffffffffffff808211156200253057600080fd5b818701915087601f8301126200254557600080fd5b8135818111156200255557600080fd5b8860208285010111156200256857600080fd5b95989497505060200194505050565b60008060008060008060008060006101208a8c0312156200259757600080fd5b8935620025a48162002267565b985060208a0135620025b68162002267565b975060408a0135620025c88162002267565b965060608a0135620025da8162002267565b955060808a0135620025ec8162002267565b945060a08a0135620025fe8162002267565b935060c08a0135620026108162002267565b925060e08a0135620026228162002267565b91506101008a0135620026358162002267565b809150509295985092959850929598565b6000602082840312156200265957600080fd5b8151620002fb8162002267565b600181811c908216806200267b57607f821691505b6020821081036200269c57634e487b7160e01b600052602260045260246000fd5b50919050565b6001600160a01b03938416815291909216602082015261ffff909116604082015260600190565b6001600160a01b03831681526040602082018190526000906200026c9083018462002319565b6000808335601e198436030181126200270757600080fd5b83018035915067ffffffffffffffff8211156200272357600080fd5b6020019150368190038213156200273957600080fd5b9250929050565b6000602082840312156200275357600080fd5b813560ff81168114620002fb57600080fd5b60208152600060018060a01b0380845116602084015280602085015116604084015250604083015160a06060840152620027a360c084018262002319565b90506060840151601f19848303016080850152620027c2828262002319565b91505060ff60808501511660a08401528091505092915050565b600060208284031215620027ef57600080fd5b813563ffffffff81168114620002fb57600080fd5b6020815262002818602082018351620022b4565b600060208301516101408060408501526200283861016085018362002319565b91506040850151601f1985840301606086015262002857838262002319565b92505060608501516200286e6080860182620022b4565b5060808501516200288360a0860182620022b4565b5060a085015160c085015260c0850151620028a260e0860182620022b4565b5060e0850151610100620028b981870183620022b4565b8601519050610120620028d38682018363ffffffff169052565b86015163ffffffff811683870152905062002416565b60208152600060018060a01b03808451166020840152806020850151166040840152604084015160a060608501526200292660c085018262002319565b90508160608601511660808501528160808601511660a0850152809250505092915050565b60208152600060018060a01b03808451166020840152806020850151166040840152806040850151166060840152606084015160c060808501526200299460e085018262002319565b90506080850151601f198583030160a0860152620029b3828262002319565b9150508160a08601511660c0850152809250505092915050565b634e487b7160e01b600052603260045260246000fd5b81835281816020850137506000828201602090810191909152601f909101601f19169091010190565b6001600160a01b038416815260406020820181905260009062002a339083018486620029e3565b95945050505050565b60006020828403121562002a4f57600080fd5b5051919050565b634e487b7160e01b600052604160045260246000fd5b601f82111562002abc576000816000526020600020601f850160051c8101602086101562002a975750805b601f850160051c820191505b8181101562002ab85782815560010162002aa3565b5050505b505050565b815167ffffffffffffffff81111562002ade5762002ade62002a56565b62002af68162002aef845462002666565b8462002a6c565b602080601f83116001811462002b2e576000841562002b155750858301515b600019600386901b1c1916600185901b17855562002ab8565b600085815260208120601f198616915b8281101562002b5f5788860151825594840194600190910190840162002b3e565b508582101562002b7e5787850151600019600388901b60f8161c191681555b5050505050600190811b01905550565b60408152600062002ba4604083018587620029e3565b905060018060a01b038316602083015294935050505056fe60a06040526040516105bf3803806105bf83398101604081905261002291610387565b61002c828261003e565b506001600160a01b031660805261047e565b610047826100fe565b6040516001600160a01b038316907f1cf3b03a6cf19fa2baba4df148e9dcabedea7f8a5c07840e207e5c089be95d3e90600090a28051156100f2576100ed826001600160a01b0316635c60da1b6040518163ffffffff1660e01b8152600401602060405180830381865afa1580156100c3573d6000803e3d6000fd5b505050506040513d601f19601f820116820180604052508101906100e79190610447565b82610211565b505050565b6100fa610288565b5050565b806001600160a01b03163b60000361013957604051631933b43b60e21b81526001600160a01b03821660048201526024015b60405180910390fd5b807fa3f0ad74e5423aebfd80d3ef4346578335a9a72aeaee59ff6cb3582b35133d5080546001600160a01b0319166001600160a01b0392831617905560408051635c60da1b60e01b81529051600092841691635c60da1b9160048083019260209291908290030181865afa1580156101b5573d6000803e3d6000fd5b505050506040513d601f19601f820116820180604052508101906101d99190610447565b9050806001600160a01b03163b6000036100fa57604051634c9c8ce360e01b81526001600160a01b0382166004820152602401610130565b6060600080846001600160a01b03168460405161022e9190610462565b600060405180830381855af49150503d8060008114610269576040519150601f19603f3d011682016040523d82523d6000602084013e61026e565b606091505b50909250905061027f8583836102a9565b95945050505050565b34156102a75760405163b398979f60e01b815260040160405180910390fd5b565b6060826102be576102b982610308565b610301565b81511580156102d557506001600160a01b0384163b155b156102fe57604051639996b31560e01b81526001600160a01b0385166004820152602401610130565b50805b9392505050565b8051156103185780518082602001fd5b604051630a12f52160e11b815260040160405180910390fd5b80516001600160a01b038116811461034857600080fd5b919050565b634e487b7160e01b600052604160045260246000fd5b60005b8381101561037e578181015183820152602001610366565b50506000910152565b6000806040838503121561039a57600080fd5b6103a383610331565b60208401519092506001600160401b03808211156103c057600080fd5b818501915085601f8301126103d457600080fd5b8151818111156103e6576103e661034d565b604051601f8201601f19908116603f0116810190838211818310171561040e5761040e61034d565b8160405282815288602084870101111561042757600080fd5b610438836020830160208801610363565b80955050505050509250929050565b60006020828403121561045957600080fd5b61030182610331565b60008251610474818460208701610363565b9190910192915050565b6080516101276104986000396000601e01526101276000f3fe6080604052600a600c565b005b60186014601a565b60a0565b565b60007f00000000000000000000000000000000000000000000000000000000000000006001600160a01b0316635c60da1b6040518163ffffffff1660e01b8152600401602060405180830381865afa1580156079573d6000803e3d6000fd5b505050506040513d601f19601f82011682018060405250810190609b919060c3565b905090565b3660008037600080366000845af43d6000803e80801560be573d6000f35b3d6000fd5b60006020828403121560d457600080fd5b81516001600160a01b038116811460ea57600080fd5b939250505056fea26469706673582212205c8a2fcdc6f79c1d43b849e2b03f494652cee222b2ec86046b7caaa1405f985f64736f6c63430008180033a26469706673582212203355c2c8fc02d7e3d4c0980f648182132bf0a513c758f2289356d193cc95e09b64736f6c63430008180033",
  "linkReferences": {
    "contracts/buildings/library/BuildingAutoCompounder.sol": {
      "BuildingAutoCompounderLib": [
        {
          "length": 20,
          "start": 3970
        }
      ]
    },
    "contracts/buildings/library/BuildingGovernance.sol": {
      "BuildingGovernanceLib": [
        {
          "length": 20,
          "start": 3681
        }
      ]
    },
    "contracts/buildings/library/BuildingToken.sol": {
      "BuildingTokenLib": [
        {
          "length": 20,
          "start": 2584
        }
      ]
    },
    "contracts/buildings/library/BuildingTreasury.sol": {
      "BuildingTreasuryLib": [
        {
          "length": 20,
          "start": 3060
        }
      ]
    },
    "contracts/buildings/library/BuildingVault.sol": {
      "BuildingVaultLib": [
        {
          "length": 20,
          "start": 3197
        }
      ]
    }
  },
  "deployedLinkReferences": {
    "contracts/buildings/library/BuildingAutoCompounder.sol": {
      "BuildingAutoCompounderLib": [
        {
          "length": 20,
          "start": 3740
        }
      ]
    },
    "contracts/buildings/library/BuildingGovernance.sol": {
      "BuildingGovernanceLib": [
        {
          "length": 20,
          "start": 3451
        }
      ]
    },
    "contracts/buildings/library/BuildingToken.sol": {
      "BuildingTokenLib": [
        {
          "length": 20,
          "start": 2354
        }
      ]
    },
    "contracts/buildings/library/BuildingTreasury.sol": {
      "BuildingTreasuryLib": [
        {
          "length": 20,
          "start": 2830
        }
      ]
    },
    "contracts/buildings/library/BuildingVault.sol": {
      "BuildingVaultLib": [
        {
          "length": 20,
          "start": 2967
        }
      ]
    }
  }
}