{
  "_format": "hh-sol-artifact-1",
  "contractName": "BuildingFactory",
  "sourceName": "contracts/buildings/BuildingFactory.sol",
  "abi": [
    {
      "inputs": [],
      "stateMutability": "nonpayable",
      "type": "constructor"
    },
    {
      "inputs": [],
      "name": "InvalidInitialization",
      "type": "error"
    },
    {
      "inputs": [],
      "name": "NotInitializing",
      "type": "error"
    },
    {
      "anonymous": false,
      "inputs": [
        {
          "indexed": false,
          "internalType": "address",
          "name": "building",
          "type": "address"
        },
        {
          "indexed": false,
          "internalType": "address",
          "name": "module",
          "type": "address"
        }
      ],
      "name": "ComplianceModuleAdded",
      "type": "event"
    },
    {
      "anonymous": false,
      "inputs": [
        {
          "indexed": false,
          "internalType": "address",
          "name": "building",
          "type": "address"
        },
        {
          "indexed": false,
          "internalType": "address",
          "name": "wallet",
          "type": "address"
        },
        {
          "indexed": false,
          "internalType": "address",
          "name": "identity",
          "type": "address"
        },
        {
          "indexed": false,
          "internalType": "uint16",
          "name": "country",
          "type": "uint16"
        }
      ],
      "name": "IdentityRegistered",
      "type": "event"
    },
    {
      "anonymous": false,
      "inputs": [
        {
          "indexed": false,
          "internalType": "uint64",
          "name": "version",
          "type": "uint64"
        }
      ],
      "name": "Initialized",
      "type": "event"
    },
    {
      "anonymous": false,
      "inputs": [
        {
          "indexed": false,
          "internalType": "address",
          "name": "buildingAddress",
          "type": "address"
        },
        {
          "indexed": false,
          "internalType": "address",
          "name": "erc3643Token",
          "type": "address"
        },
        {
          "indexed": false,
          "internalType": "address",
          "name": "treasury",
          "type": "address"
        },
        {
          "indexed": false,
          "internalType": "address",
          "name": "vault",
          "type": "address"
        },
        {
          "indexed": false,
          "internalType": "address",
          "name": "governance",
          "type": "address"
        },
        {
          "indexed": false,
          "internalType": "address",
          "name": "initialOwner",
          "type": "address"
        },
        {
          "indexed": false,
          "internalType": "address",
          "name": "autoCompounder",
          "type": "address"
        }
      ],
      "name": "NewBuilding",
      "type": "event"
    },
    {
      "inputs": [
        {
          "internalType": "address",
          "name": "wallet",
          "type": "address"
        }
      ],
      "name": "deployIdentityForWallet",
      "outputs": [
        {
          "internalType": "address",
          "name": "",
          "type": "address"
        }
      ],
      "stateMutability": "nonpayable",
      "type": "function"
    },
    {
      "inputs": [
        {
          "internalType": "address",
          "name": "buildingAddress",
          "type": "address"
        }
      ],
      "name": "getBuildingDetails",
      "outputs": [
        {
          "components": [
            {
              "internalType": "address",
              "name": "addr",
              "type": "address"
            },
            {
              "internalType": "uint256",
              "name": "nftId",
              "type": "uint256"
            },
            {
              "internalType": "string",
              "name": "tokenURI",
              "type": "string"
            },
            {
              "internalType": "address",
              "name": "identity",
              "type": "address"
            },
            {
              "internalType": "address",
              "name": "erc3643Token",
              "type": "address"
            },
            {
              "internalType": "address",
              "name": "treasury",
              "type": "address"
            },
            {
              "internalType": "address",
              "name": "governance",
              "type": "address"
            },
            {
              "internalType": "address",
              "name": "vault",
              "type": "address"
            },
            {
              "internalType": "address",
              "name": "autoCompounder",
              "type": "address"
            }
          ],
          "internalType": "struct BuildingFactoryStorage.BuildingDetails",
          "name": "",
          "type": "tuple"
        }
      ],
      "stateMutability": "view",
      "type": "function"
    },
    {
      "inputs": [],
      "name": "getBuildingList",
      "outputs": [
        {
          "components": [
            {
              "internalType": "address",
              "name": "addr",
              "type": "address"
            },
            {
              "internalType": "uint256",
              "name": "nftId",
              "type": "uint256"
            },
            {
              "internalType": "string",
              "name": "tokenURI",
              "type": "string"
            },
            {
              "internalType": "address",
              "name": "identity",
              "type": "address"
            },
            {
              "internalType": "address",
              "name": "erc3643Token",
              "type": "address"
            },
            {
              "internalType": "address",
              "name": "treasury",
              "type": "address"
            },
            {
              "internalType": "address",
              "name": "governance",
              "type": "address"
            },
            {
              "internalType": "address",
              "name": "vault",
              "type": "address"
            },
            {
              "internalType": "address",
              "name": "autoCompounder",
              "type": "address"
            }
          ],
          "internalType": "struct BuildingFactoryStorage.BuildingDetails[]",
          "name": "",
          "type": "tuple[]"
        }
      ],
      "stateMutability": "view",
      "type": "function"
    },
    {
      "inputs": [
        {
          "internalType": "address",
          "name": "wallet",
          "type": "address"
        }
      ],
      "name": "getIdentity",
      "outputs": [
        {
          "internalType": "contract IIdentity",
          "name": "",
          "type": "address"
        }
      ],
      "stateMutability": "view",
      "type": "function"
    },
    {
      "inputs": [
        {
          "internalType": "address",
          "name": "_nft",
          "type": "address"
        },
        {
          "internalType": "address",
          "name": "_uniswapRouter",
          "type": "address"
        },
        {
          "internalType": "address",
          "name": "_uniswapFactory",
          "type": "address"
        },
        {
          "internalType": "address",
          "name": "_onchainIdGateway",
          "type": "address"
        },
        {
          "internalType": "address",
          "name": "_trexGateway",
          "type": "address"
        },
        {
          "internalType": "address",
          "name": "_usdc",
          "type": "address"
        },
        {
          "internalType": "address",
          "name": "_buildingBeacon",
          "type": "address"
        },
        {
          "internalType": "address",
          "name": "_treasuryBeacon",
          "type": "address"
        },
        {
          "internalType": "address",
          "name": "_governanceBeacon",
          "type": "address"
        }
      ],
      "name": "initialize",
      "outputs": [],
      "stateMutability": "nonpayable",
      "type": "function"
    },
    {
      "inputs": [
        {
          "components": [
            {
              "internalType": "string",
              "name": "tokenURI",
              "type": "string"
            },
            {
              "internalType": "string",
              "name": "tokenName",
              "type": "string"
            },
            {
              "internalType": "string",
              "name": "tokenSymbol",
              "type": "string"
            },
            {
              "internalType": "uint8",
              "name": "tokenDecimals",
              "type": "uint8"
            },
            {
              "internalType": "uint256",
              "name": "tokenMintAmount",
              "type": "uint256"
            },
            {
              "internalType": "uint256",
              "name": "treasuryReserveAmount",
              "type": "uint256"
            },
            {
              "internalType": "uint256",
              "name": "treasuryNPercent",
              "type": "uint256"
            },
            {
              "internalType": "string",
              "name": "governanceName",
              "type": "string"
            },
            {
              "internalType": "string",
              "name": "vaultShareTokenName",
              "type": "string"
            },
            {
              "internalType": "string",
              "name": "vaultShareTokenSymbol",
              "type": "string"
            },
            {
              "internalType": "address",
              "name": "vaultFeeReceiver",
              "type": "address"
            },
            {
              "internalType": "address",
              "name": "vaultFeeToken",
              "type": "address"
            },
            {
              "internalType": "uint256",
              "name": "vaultFeePercentage",
              "type": "uint256"
            },
            {
              "internalType": "uint32",
              "name": "vaultCliff",
              "type": "uint32"
            },
            {
              "internalType": "uint32",
              "name": "vaultUnlockDuration",
              "type": "uint32"
            },
            {
              "internalType": "string",
              "name": "aTokenName",
              "type": "string"
            },
            {
              "internalType": "string",
              "name": "aTokenSymbol",
              "type": "string"
            }
          ],
          "internalType": "struct BuildingFactoryStorage.NewBuildingDetails",
          "name": "details",
          "type": "tuple"
        }
      ],
      "name": "newBuilding",
      "outputs": [
        {
          "components": [
            {
              "internalType": "address",
              "name": "addr",
              "type": "address"
            },
            {
              "internalType": "uint256",
              "name": "nftId",
              "type": "uint256"
            },
            {
              "internalType": "string",
              "name": "tokenURI",
              "type": "string"
            },
            {
              "internalType": "address",
              "name": "identity",
              "type": "address"
            },
            {
              "internalType": "address",
              "name": "erc3643Token",
              "type": "address"
            },
            {
              "internalType": "address",
              "name": "treasury",
              "type": "address"
            },
            {
              "internalType": "address",
              "name": "governance",
              "type": "address"
            },
            {
              "internalType": "address",
              "name": "vault",
              "type": "address"
            },
            {
              "internalType": "address",
              "name": "autoCompounder",
              "type": "address"
            }
          ],
          "internalType": "struct BuildingFactoryStorage.BuildingDetails",
          "name": "buildingDetails",
          "type": "tuple"
        }
      ],
      "stateMutability": "nonpayable",
      "type": "function"
    },
    {
      "inputs": [
        {
          "internalType": "address",
          "name": "buildingAddress",
          "type": "address"
        },
        {
          "internalType": "address",
          "name": "wallet",
          "type": "address"
        },
        {
          "internalType": "uint16",
          "name": "country",
          "type": "uint16"
        }
      ],
      "name": "registerIdentity",
      "outputs": [],
      "stateMutability": "nonpayable",
      "type": "function"
    }
  ],
  "bytecode": "0x60806040523480156200001157600080fd5b506200001c62000022565b620000d6565b7ff0c57e16840df040f15088dc2f81fe391c3923bec73e23a9662efc9c229c6a00805468010000000000000000900460ff1615620000735760405163f92ee8a960e01b815260040160405180910390fd5b80546001600160401b0390811614620000d35780546001600160401b0319166001600160401b0390811782556040519081527fc7f505b2f371ae2175ee4913f4499e1f2633a7b5936321eed1cdaeb6115181d29060200160405180910390a15b50565b6130c980620000e66000396000f3fe60806040523480156200001157600080fd5b5060043610620000765760003560e01c80632fea7b81146200007b5780633e8e6e8b14620000aa578063454a03e014620000c1578063665fa4a114620000da578063899a0ebe1462000100578063db652ec81462000117578063f5e95acb1462000130575b600080fd5b620000926200008c36600462002254565b62000147565b604051620000a1919062002274565b60405180910390f35b62000092620000bb36600462002254565b62000251565b620000d8620000d236600462002295565b620002df565b005b620000f1620000eb36600462002254565b62000688565b604051620000a19190620023f4565b620000f16200011136600462002409565b620007d8565b62000121620019df565b604051620000a1919062002448565b620000d862000141366004620024b0565b62001b5e565b6000806200015462001df3565b905060008160040160009054906101000a90046001600160a01b03166001600160a01b03166378e751a66040518163ffffffff1660e01b8152600401602060405180830381865afa158015620001ae573d6000803e3d6000fd5b505050506040513d601f19601f82011682018060405250810190620001d491906200257f565b604051632fea7b8160e01b81529091506001600160a01b03821690632fea7b81906200020590879060040162002274565b602060405180830381865afa15801562000223573d6000803e3d6000fd5b505050506040513d601f19601f820116820180604052508101906200024991906200257f565b949350505050565b6000806200025e62001df3565b600480820154604051633e8e6e8b60e01b81529293506001600160a01b031691633e8e6e8b91620002929187910162002274565b6020604051808303816000875af1158015620002b2573d6000803e3d6000fd5b505050506040513d601f19601f82011682018060405250810190620002d891906200257f565b9392505050565b6000620002eb62001df3565b6001600160a01b038086166000908152600a83016020908152604080832081516101208101835281549095168552600181015492850192909252600282018054959650929491929084019162000341906200259f565b80601f01602080910402602001604051908101604052809291908181526020018280546200036f906200259f565b8015620003c05780601f106200039457610100808354040283529160200191620003c0565b820191906000526020600020905b815481529060010190602001808311620003a257829003601f168201915b505050918352505060038201546001600160a01b039081166020808401919091526004808501548316604080860191909152600586015484166060860152600686015484166080808701919091526007870154851660a0870152600890960154841660c09095019490945293850151878501548451633c73a8d360e11b81529451969750909560009591909316936378e751a693818301939290918290030181865afa15801562000475573d6000803e3d6000fd5b505050506040513d601f19601f820116820180604052508101906200049b91906200257f565b90506000826001600160a01b031663134e18f46040518163ffffffff1660e01b8152600401602060405180830381865afa158015620004de573d6000803e3d6000fd5b505050506040513d601f19601f820116820180604052508101906200050491906200257f565b90506000826001600160a01b0316632fea7b81896040518263ffffffff1660e01b815260040162000536919062002274565b602060405180830381865afa15801562000554573d6000803e3d6000fd5b505050506040513d601f19601f820116820180604052508101906200057a91906200257f565b90506001600160a01b038116620005d85760405162461bcd60e51b815260206004820152601d60248201527f4964656e7469747920666f722077616c6c6574206e6f7420666f756e6400000060448201526064015b60405180910390fd5b60405163022a501f60e51b81526001600160a01b0383169063454a03e0906200060a908b9085908c90600401620025db565b600060405180830381600087803b1580156200062557600080fd5b505af11580156200063a573d6000803e3d6000fd5b505050507f6680dc6d23915f02197cb4ac29f4b00443a14ca1cbe22d6b93045c32b98a82378989838a60405162000675949392919062002602565b60405180910390a1505050505050505050565b62000692620021e0565b60006200069e62001df3565b6001600160a01b038085166000908152600a8301602090815260409182902082516101208101845281549094168452600181015491840191909152600281018054949550929390929184019190620006f6906200259f565b80601f016020809104026020016040519081016040528092919081815260200182805462000724906200259f565b8015620007755780601f10620007495761010080835404028352916020019162000775565b820191906000526020600020905b8154815290600101906020018083116200075757829003601f168201915b505050918352505060038201546001600160a01b0390811660208301526004830154811660408301526005830154811660608301526006830154811660808301526007830154811660a083015260089092015490911660c0909101529392505050565b620007e2620021e0565b6000620007ee62001df3565b6040805161012081018252600060208201819052818301819052606082018190526080820181905260a0820181905260c0820181905260e08201819052610100820152338082526003840154925193945090926001600160a01b039092169163189acdbd60e31b91620008649160240162002274565b60408051601f198184030181529181526020820180516001600160e01b03166001600160e01b0319909416939093179092529051620008a3906200222d565b620008b09291906200262f565b604051809103906000f080158015620008cd573d6000803e3d6000fd5b506001600160a01b039081166020808401919091526040805160a08101825284518416815260058601549093168383015273__$6bcf1faf5c0920414dc51cd0daeb07e0f7$__92633af9cf1e9290918201906200092d9089018962002655565b8080601f01602080910402602001604051908101604052809392919081815260200183838082843760009201919091525050509082525060200162000976604089018962002655565b8080601f016020809104026020016040519081016040528093929190818152602001838380828437600092019190915250505090825250602001620009c26080890160608a016200269f565b60ff168152506040518263ffffffff1660e01b8152600401620009e69190620026c4565b602060405180830381865af415801562000a04573d6000803e3d6000fd5b505050506040513d601f19601f8201168201806040525081019062000a2a91906200257f565b6001600160a01b039081166080838101919091526040805160e081018252600686015484168152845184166020820190815260a08981013583850190815260c0808c0135606086019081528951891697860197885260078b0154891693860193845230918601918252955163af15b96960e01b8152945188166004860152925187166024850152516044840152925160648301529251841660848201529051831660a4820152905190911660c482015273__$6dd86c1de004dc2dd48a17c9065be1de70$__9063af15b9699060e401602060405180830381865af415801562000b17573d6000803e3d6000fd5b505050506040513d601f19601f8201168201806040525081019062000b3d91906200257f565b6001600160a01b0390811660a08301526040805161014081019091526080830151909116815273__$e6502af67ab2c746a64bc3775a7b8857c1$__9063cd6856ef906020810162000b9361010089018962002655565b8080601f01602080910402602001604051908101604052809392919081815260200183838082843760009201919091525050509082525060200162000bdd61012089018962002655565b8080601f01602080910402602001604051908101604052809392919081815260200183838082843760009201919091525050509082525060200162000c2b61016089016101408a0162002254565b6001600160a01b0316815260200162000c4d61018089016101608a0162002254565b6001600160a01b0390811682526101808901356020830152855181166040830152855116606082015260800162000c8d6101c089016101a08a016200273b565b63ffffffff16815260200162000cac6101e089016101c08a016200273b565b63ffffffff168152506040518263ffffffff1660e01b815260040162000cd3919062002763565b602060405180830381865af415801562000cf1573d6000803e3d6000fd5b505050506040513d601f19601f8201168201806040525081019062000d1791906200257f565b6001600160a01b0390811660c08301526040805160a0810182526008850154831681526080840151909216602083015273__$9b19b7f7ded493586f11dad0d7ebc9ca26$__9163d88d811091810162000d7460e089018962002655565b8080601f01602080910402602001604051908101604052809392919081815260200183838082843760009201919091525050509082525060a08501516001600160a01b039081166020830152855116604091820152516001600160e01b031960e084901b16815262000dea919060040162002848565b602060405180830381865af415801562000e08573d6000803e3d6000fd5b505050506040513d601f19601f8201168201806040525081019062000e2e91906200257f565b6001600160a01b0390811660e08301526040805160c080820183526001860154841682528401518316602082015260078501549092169082015273__$3080f05ed92e5505050a1e3d528e8c5fcb$__9063ea5fb336906060810162000e986101e089018962002655565b8080601f01602080910402602001604051908101604052809392919081815260200183838082843760009201919091525050509082525060200162000ee261020089018962002655565b8080601f01602080910402602001604051908101604052809392919081815260200183838082843760009201919091525050509082525084516001600160a01b03166020909101526040516001600160e01b031960e084901b16815262000f4d9190600401620028aa565b602060405180830381865af415801562000f6b573d6000803e3d6000fd5b505050506040513d601f19601f8201168201806040525081019062000f9191906200257f565b6001600160a01b039081166101008301526004808401546080840151604080516304d3863d60e21b815290519285169460009492169263134e18f4928281019260209291908290030181865afa15801562000ff0573d6000803e3d6000fd5b505050506040513d601f19601f820116820180604052508101906200101691906200257f565b90506000620010258462001e17565b905060005b815181101562001364576000846001600160a01b03166378e751a66040518163ffffffff1660e01b8152600401602060405180830381865afa15801562001075573d6000803e3d6000fd5b505050506040513d601f19601f820116820180604052508101906200109b91906200257f565b6001600160a01b0316632fea7b81848481518110620010be57620010be6200292c565b60200260200101516040518263ffffffff1660e01b8152600401620010e4919062002274565b602060405180830381865afa15801562001102573d6000803e3d6000fd5b505050506040513d601f19601f820116820180604052508101906200112891906200257f565b90506103486001600160a01b038216620011cf57856001600160a01b0316633e8e6e8b8585815181106200116057620011606200292c565b60200260200101516040518263ffffffff1660e01b815260040162001186919062002274565b6020604051808303816000875af1158015620011a6573d6000803e3d6000fd5b505050506040513d601f19601f82011682018060405250810190620011cc91906200257f565b91505b60006001600160a01b0316856001600160a01b031663f0eb5e54868681518110620011fe57620011fe6200292c565b60200260200101516040518263ffffffff1660e01b815260040162001224919062002274565b602060405180830381865afa15801562001242573d6000803e3d6000fd5b505050506040513d601f19601f820116820180604052508101906200126891906200257f565b6001600160a01b0316036200135957846001600160a01b031663454a03e08585815181106200129b576200129b6200292c565b602002602001015184846040518463ffffffff1660e01b8152600401620012c593929190620025db565b600060405180830381600087803b158015620012e057600080fd5b505af1158015620012f5573d6000803e3d6000fd5b505050507f6680dc6d23915f02197cb4ac29f4b00443a14ca1cbe22d6b93045c32b98a823787602001518585815181106200133457620013346200292c565b6020026020010151848460405162001350949392919062002602565b60405180910390a15b50506001016200102a565b50845460208501516001600160a01b039091169063d0def521906200138a8a8062002655565b6040518463ffffffff1660e01b8152600401620013aa9392919062002942565b6020604051808303816000875af1158015620013ca573d6000803e3d6000fd5b505050506040513d601f19601f82011682018060405250810190620013f0919062002982565b8460400181815250508360a001516001600160a01b031663603607008560e001516040518263ffffffff1660e01b81526004016200142f919062002274565b600060405180830381600087803b1580156200144a57600080fd5b505af11580156200145f573d6000803e3d6000fd5b505050508360a001516001600160a01b031663256b5a028560c001516040518263ffffffff1660e01b815260040162001499919062002274565b600060405180830381600087803b158015620014b457600080fd5b505af1158015620014c9573d6000803e3d6000fd5b5050505060c084015160a0850151604051632f2ff15d60e01b81527f477fc23fb51bb5d5aa814872a393b0e4f35d0916c7503c0fd96584681070d41060048201526001600160a01b039182166024820152911690632f2ff15d90604401600060405180830381600087803b1580156200154157600080fd5b505af115801562001556573d6000803e3d6000fd5b5050505060c0840151845160405163f2fde38b60e01b81526001600160a01b039092169163f2fde38b916200158e9160040162002274565b600060405180830381600087803b158015620015a957600080fd5b505af1158015620015be573d6000803e3d6000fd5b5050505060808481015185516040516340c10f1960e01b81526001600160a01b039182166004820152928a0135602484015216906340c10f1990604401600060405180830381600087803b1580156200161657600080fd5b505af11580156200162b573d6000803e3d6000fd5b50505050610100840151845160405163f2fde38b60e01b81526001600160a01b039092169163f2fde38b91620016649160040162002274565b600060405180830381600087803b1580156200167f57600080fd5b505af115801562001694573d6000803e3d6000fd5b505060408051610120810182526020808901516001600160a01b031682528883015190820152925082019050620016cc898062002655565b8080601f01602080910402602001604051908101604052809392919081815260200183838082843760009201829052509385525050506060878101516001600160a01b039081166020808601919091526080808b0151831660408088019190915260a0808d015185169588019590955260e08c015184169187019190915260c0808c01518416948701949094526101008b0151831693909501929092528189015181168352600a8a01825291839020845181546001600160a01b031916931692909217825583015160018201559082015191975087916002820190620017b3908262002a07565b5060608201516003820180546001600160a01b03199081166001600160a01b03938416179091556080840151600484018054831691841691909117905560a0840151600584018054831691841691909117905560c0840151600684018054831691841691909117905560e084015160078401805483169184169190911790556101009093015160089092018054841692821692909217909155600987810180546001818101835560009283526020928390208c5192909402909301805490951693169290921783559088015190820155604087015187919060028201906200189c908262002a07565b5060608201516003820180546001600160a01b039283166001600160a01b03199182161790915560808085015160048501805491851691841691909117905560a08086015160058601805491861691851691909117905560c08087015160068701805491871691861691909117905560e08088015160078801805491881691871691909117905561010097880151600890970180549790961696909416959095179093556020890151908901519289015193890151918901518951958a01516040517f3163bceb365c85326c53476ceb0b49cfacb67f6d675e6eeb739c58ceb8b20bb697620019cd97949695939290916001600160a01b03978816815295871660208701529386166040860152918516606085015284166080840152831660a083015290911660c082015260e00190565b60405180910390a15050505050919050565b60606000620019ed62001df3565b6009810180546040805160208084028201810190925282815293945060009084015b8282101562001b5457600084815260209081902060408051610120810182526009860290920180546001600160a01b031683526001810154938301939093526002830180549293929184019162001a66906200259f565b80601f016020809104026020016040519081016040528092919081815260200182805462001a94906200259f565b801562001ae55780601f1062001ab95761010080835404028352916020019162001ae5565b820191906000526020600020905b81548152906001019060200180831162001ac757829003601f168201915b505050918352505060038201546001600160a01b039081166020808401919091526004840154821660408401526005840154821660608401526006840154821660808401526007840154821660a08401526008909301541660c090910152908252600192909201910162001a0f565b5050505091505090565b7ff0c57e16840df040f15088dc2f81fe391c3923bec73e23a9662efc9c229c6a008054600160401b810460ff16159067ffffffffffffffff1660008115801562001ba55750825b905060008267ffffffffffffffff16600114801562001bc35750303b155b90508115801562001bd2575080155b1562001bf15760405163f92ee8a960e01b815260040160405180910390fd5b845467ffffffffffffffff19166001178555831562001c1c57845460ff60401b1916600160401b1785555b600062001c2862001df3565b90508e8160000160006101000a8154816001600160a01b0302191690836001600160a01b031602179055508d8160010160006101000a8154816001600160a01b0302191690836001600160a01b031602179055508c8160020160006101000a8154816001600160a01b0302191690836001600160a01b03160217905550888160030160006101000a8154816001600160a01b0302191690836001600160a01b031602179055508b8160040160006101000a8154816001600160a01b0302191690836001600160a01b031602179055508a8160050160006101000a8154816001600160a01b0302191690836001600160a01b03160217905550878160060160006101000a8154816001600160a01b0302191690836001600160a01b03160217905550898160070160006101000a8154816001600160a01b0302191690836001600160a01b03160217905550868160080160006101000a8154816001600160a01b0302191690836001600160a01b0316021790555050831562001de357845460ff60401b19168555604051600181527fc7f505b2f371ae2175ee4913f4499e1f2633a7b5936321eed1cdaeb6115181d29060200160405180910390a15b5050505050505050505050505050565b7f0f40dde8b99b0722537b774c6ef775b5e5a0af035d95bf9802cd87411f806f0090565b6060600062001e2562001df3565b604080516007808252610100820190925291925090816020820160e08036833750505060028301546080860151600785015492955060009262001e76926001600160a01b0390811692911662002011565b905084600001518460008151811062001e935762001e936200292c565b60200260200101906001600160a01b031690816001600160a01b0316815250508460c001518460018151811062001ece5762001ece6200292c565b60200260200101906001600160a01b031690816001600160a01b0316815250508461010001518460028151811062001f0a5762001f0a6200292c565b60200260200101906001600160a01b031690816001600160a01b03168152505084602001518460038151811062001f455762001f456200292c565b6001600160a01b039283166020918202929092010152600184015485519116908590600490811062001f7b5762001f7b6200292c565b60200260200101906001600160a01b031690816001600160a01b031681525050308460058151811062001fb25762001fb26200292c565b60200260200101906001600160a01b031690816001600160a01b031681525050808460068151811062001fe95762001fe96200292c565b60200260200101906001600160a01b031690816001600160a01b031681525050505050919050565b6000806000620020228585620020e3565b6040516001600160601b0319606084811b8216602084015283901b1660348201529193509150869060480160405160208183030381529060405280519060200120604051602001620020c19291906001600160f81b0319815260609290921b6001600160601b031916600183015260158201527fdea1222ed22817f96ed20157be156c80808da15c079040548d4487a79708fe8e603582015260550190565b60408051601f1981840301815291905280516020909101209695505050505050565b600080826001600160a01b0316846001600160a01b031603620021575760405162461bcd60e51b815260206004820152602560248201527f556e697377617056324c6962726172793a204944454e544943414c5f41444452604482015264455353455360d81b6064820152608401620005cf565b826001600160a01b0316846001600160a01b031610620021795782846200217c565b83835b90925090506001600160a01b038216620021d95760405162461bcd60e51b815260206004820152601e60248201527f556e697377617056324c6962726172793a205a45524f5f4144445245535300006044820152606401620005cf565b9250929050565b604080516101208101825260008082526020820181905260609282018390529181018290526080810182905260a0810182905260c0810182905260e0810182905261010081019190915290565b6105bf8062002ad583390190565b6001600160a01b03811681146200225157600080fd5b50565b6000602082840312156200226757600080fd5b8135620002d8816200223b565b6001600160a01b0391909116815260200190565b6001600160a01b03169052565b600080600060608486031215620022ab57600080fd5b8335620022b8816200223b565b92506020840135620022ca816200223b565b9150604084013561ffff81168114620022e257600080fd5b809150509250925092565b6000815180845260005b818110156200231557602081850181015186830182015201620022f7565b506000602082860101526020601f19601f83011685010191505092915050565b600061012060018060a01b0383511684526020830151602085015260408301518160408601526200236982860182620022ed565b915050606083015162002380606086018262002288565b50608083015162002395608086018262002288565b5060a0830151620023aa60a086018262002288565b5060c0830151620023bf60c086018262002288565b5060e0830151620023d460e086018262002288565b5061010080840151620023ea8287018262002288565b5090949350505050565b602081526000620002d8602083018462002335565b6000602082840312156200241c57600080fd5b813567ffffffffffffffff8111156200243457600080fd5b82016102208185031215620002d857600080fd5b600060208083016020845280855180835260408601915060408160051b87010192506020870160005b82811015620024a357603f198886030184526200249085835162002335565b9450928501929085019060010162002471565b5092979650505050505050565b60008060008060008060008060006101208a8c031215620024d057600080fd5b8935620024dd816200223b565b985060208a0135620024ef816200223b565b975060408a013562002501816200223b565b965060608a013562002513816200223b565b955060808a013562002525816200223b565b945060a08a013562002537816200223b565b935060c08a013562002549816200223b565b925060e08a01356200255b816200223b565b91506101008a01356200256e816200223b565b809150509295985092959850929598565b6000602082840312156200259257600080fd5b8151620002d8816200223b565b600181811c90821680620025b457607f821691505b602082108103620025d557634e487b7160e01b600052602260045260246000fd5b50919050565b6001600160a01b03938416815291909216602082015261ffff909116604082015260600190565b6001600160a01b03948516815292841660208401529216604082015261ffff909116606082015260800190565b6001600160a01b03831681526040602082018190526000906200024990830184620022ed565b6000808335601e198436030181126200266d57600080fd5b83018035915067ffffffffffffffff8211156200268957600080fd5b602001915036819003821315620021d957600080fd5b600060208284031215620026b257600080fd5b813560ff81168114620002d857600080fd5b60208152600060018060a01b0380845116602084015280602085015116604084015250604083015160a060608401526200270260c0840182620022ed565b90506060840151601f19848303016080850152620027218282620022ed565b91505060ff60808501511660a08401528091505092915050565b6000602082840312156200274e57600080fd5b813563ffffffff81168114620002d857600080fd5b602081526200277760208201835162002288565b6000602083015161014080604085015262002797610160850183620022ed565b91506040850151601f19858403016060860152620027b68382620022ed565b9250506060850151620027cd608086018262002288565b506080850151620027e260a086018262002288565b5060a085015160c085015260c08501516200280160e086018262002288565b5060e0850151610100620028188187018362002288565b8601519050610120620028328682018363ffffffff169052565b86015163ffffffff8116838701529050620023ea565b60208152600060018060a01b03808451166020840152806020850151166040840152604084015160a060608501526200288560c0850182620022ed565b90508160608601511660808501528160808601511660a0850152809250505092915050565b60208152600060018060a01b03808451166020840152806020850151166040840152806040850151166060840152606084015160c06080850152620028f360e0850182620022ed565b90506080850151601f198583030160a0860152620029128282620022ed565b9150508160a08601511660c0850152809250505092915050565b634e487b7160e01b600052603260045260246000fd5b6001600160a01b03841681526040602082018190528101829052818360608301376000818301606090810191909152601f909201601f1916010192915050565b6000602082840312156200299557600080fd5b5051919050565b634e487b7160e01b600052604160045260246000fd5b601f82111562002a02576000816000526020600020601f850160051c81016020861015620029dd5750805b601f850160051c820191505b81811015620029fe57828155600101620029e9565b5050505b505050565b815167ffffffffffffffff81111562002a245762002a246200299c565b62002a3c8162002a3584546200259f565b84620029b2565b602080601f83116001811462002a74576000841562002a5b5750858301515b600019600386901b1c1916600185901b178555620029fe565b600085815260208120601f198616915b8281101562002aa55788860151825594840194600190910190840162002a84565b508582101562002ac45787850151600019600388901b60f8161c191681555b5050505050600190811b0190555056fe60a06040526040516105bf3803806105bf83398101604081905261002291610387565b61002c828261003e565b506001600160a01b031660805261047e565b610047826100fe565b6040516001600160a01b038316907f1cf3b03a6cf19fa2baba4df148e9dcabedea7f8a5c07840e207e5c089be95d3e90600090a28051156100f2576100ed826001600160a01b0316635c60da1b6040518163ffffffff1660e01b8152600401602060405180830381865afa1580156100c3573d6000803e3d6000fd5b505050506040513d601f19601f820116820180604052508101906100e79190610447565b82610211565b505050565b6100fa610288565b5050565b806001600160a01b03163b60000361013957604051631933b43b60e21b81526001600160a01b03821660048201526024015b60405180910390fd5b807fa3f0ad74e5423aebfd80d3ef4346578335a9a72aeaee59ff6cb3582b35133d5080546001600160a01b0319166001600160a01b0392831617905560408051635c60da1b60e01b81529051600092841691635c60da1b9160048083019260209291908290030181865afa1580156101b5573d6000803e3d6000fd5b505050506040513d601f19601f820116820180604052508101906101d99190610447565b9050806001600160a01b03163b6000036100fa57604051634c9c8ce360e01b81526001600160a01b0382166004820152602401610130565b6060600080846001600160a01b03168460405161022e9190610462565b600060405180830381855af49150503d8060008114610269576040519150601f19603f3d011682016040523d82523d6000602084013e61026e565b606091505b50909250905061027f8583836102a9565b95945050505050565b34156102a75760405163b398979f60e01b815260040160405180910390fd5b565b6060826102be576102b982610308565b610301565b81511580156102d557506001600160a01b0384163b155b156102fe57604051639996b31560e01b81526001600160a01b0385166004820152602401610130565b50805b9392505050565b8051156103185780518082602001fd5b604051630a12f52160e11b815260040160405180910390fd5b80516001600160a01b038116811461034857600080fd5b919050565b634e487b7160e01b600052604160045260246000fd5b60005b8381101561037e578181015183820152602001610366565b50506000910152565b6000806040838503121561039a57600080fd5b6103a383610331565b60208401519092506001600160401b03808211156103c057600080fd5b818501915085601f8301126103d457600080fd5b8151818111156103e6576103e661034d565b604051601f8201601f19908116603f0116810190838211818310171561040e5761040e61034d565b8160405282815288602084870101111561042757600080fd5b610438836020830160208801610363565b80955050505050509250929050565b60006020828403121561045957600080fd5b61030182610331565b60008251610474818460208701610363565b9190910192915050565b6080516101276104986000396000601e01526101276000f3fe6080604052600a600c565b005b60186014601a565b60a0565b565b60007f00000000000000000000000000000000000000000000000000000000000000006001600160a01b0316635c60da1b6040518163ffffffff1660e01b8152600401602060405180830381865afa1580156079573d6000803e3d6000fd5b505050506040513d601f19601f82011682018060405250810190609b919060c3565b905090565b3660008037600080366000845af43d6000803e80801560be573d6000f35b3d6000fd5b60006020828403121560d457600080fd5b81516001600160a01b038116811460ea57600080fd5b939250505056fea26469706673582212205c8a2fcdc6f79c1d43b849e2b03f494652cee222b2ec86046b7caaa1405f985f64736f6c63430008180033a2646970667358221220ebe6c433590812f5a8c01abe9c33ac5f463455b00b91ef6624a24ca3d6f8589d64736f6c63430008180033",
  "linkReferences": {
    "contracts/buildings/library/BuildingAutoCompounder.sol": {
      "BuildingAutoCompounderLib": [
        {
          "length": 20,
          "start": 3920
        }
      ]
    },
    "contracts/buildings/library/BuildingGovernance.sol": {
      "BuildingGovernanceLib": [
        {
          "length": 20,
          "start": 3631
        }
      ]
    },
    "contracts/buildings/library/BuildingToken.sol": {
      "BuildingTokenLib": [
        {
          "length": 20,
          "start": 2534
        }
      ]
    },
    "contracts/buildings/library/BuildingTreasury.sol": {
      "BuildingTreasuryLib": [
        {
          "length": 20,
          "start": 3010
        }
      ]
    },
    "contracts/buildings/library/BuildingVault.sol": {
      "BuildingVaultLib": [
        {
          "length": 20,
          "start": 3147
        }
      ]
    }
  },
  "deployedLinkReferences": {
    "contracts/buildings/library/BuildingAutoCompounder.sol": {
      "BuildingAutoCompounderLib": [
        {
          "length": 20,
          "start": 3690
        }
      ]
    },
    "contracts/buildings/library/BuildingGovernance.sol": {
      "BuildingGovernanceLib": [
        {
          "length": 20,
          "start": 3401
        }
      ]
    },
    "contracts/buildings/library/BuildingToken.sol": {
      "BuildingTokenLib": [
        {
          "length": 20,
          "start": 2304
        }
      ]
    },
    "contracts/buildings/library/BuildingTreasury.sol": {
      "BuildingTreasuryLib": [
        {
          "length": 20,
          "start": 2780
        }
      ]
    },
    "contracts/buildings/library/BuildingVault.sol": {
      "BuildingVaultLib": [
        {
          "length": 20,
          "start": 2917
        }
      ]
    }
  }
}