{
  "_format": "hh-sol-artifact-1",
  "contractName": "BuildingFactory",
  "sourceName": "contracts/buildings/BuildingFactory.sol",
  "abi": [
    {
      "inputs": [],
      "stateMutability": "nonpayable",
      "type": "constructor"
    },
    {
      "inputs": [],
      "name": "InvalidInitialization",
      "type": "error"
    },
    {
      "inputs": [],
      "name": "NotInitializing",
      "type": "error"
    },
    {
      "anonymous": false,
      "inputs": [
        {
          "indexed": false,
          "internalType": "uint64",
          "name": "version",
          "type": "uint64"
        }
      ],
      "name": "Initialized",
      "type": "event"
    },
    {
      "anonymous": false,
      "inputs": [
        {
          "indexed": false,
          "internalType": "address",
          "name": "buildingAddress",
          "type": "address"
        },
        {
          "indexed": false,
          "internalType": "address",
          "name": "erc3643Token",
          "type": "address"
        },
        {
          "indexed": false,
          "internalType": "address",
          "name": "treasury",
          "type": "address"
        },
        {
          "indexed": false,
          "internalType": "address",
          "name": "vault",
          "type": "address"
        },
        {
          "indexed": false,
          "internalType": "address",
          "name": "governance",
          "type": "address"
        },
        {
          "indexed": false,
          "internalType": "address",
          "name": "initialOwner",
          "type": "address"
        },
        {
          "indexed": false,
          "internalType": "address",
          "name": "autoCompounder",
          "type": "address"
        }
      ],
      "name": "NewBuilding",
      "type": "event"
    },
    {
      "inputs": [
        {
          "internalType": "address",
          "name": "building",
          "type": "address"
        },
        {
          "internalType": "address",
          "name": "module",
          "type": "address"
        },
        {
          "internalType": "bytes",
          "name": "callData",
          "type": "bytes"
        }
      ],
      "name": "addComplianceModule",
      "outputs": [],
      "stateMutability": "nonpayable",
      "type": "function"
    },
    {
      "inputs": [
        {
          "internalType": "address",
          "name": "wallet",
          "type": "address"
        }
      ],
      "name": "deployIdentityForWallet",
      "outputs": [
        {
          "internalType": "address",
          "name": "",
          "type": "address"
        }
      ],
      "stateMutability": "nonpayable",
      "type": "function"
    },
    {
      "inputs": [
        {
          "internalType": "address",
          "name": "buildingAddress",
          "type": "address"
        }
      ],
      "name": "getBuildingDetails",
      "outputs": [
        {
          "components": [
            {
              "internalType": "address",
              "name": "addr",
              "type": "address"
            },
            {
              "internalType": "uint256",
              "name": "nftId",
              "type": "uint256"
            },
            {
              "internalType": "string",
              "name": "tokenURI",
              "type": "string"
            },
            {
              "internalType": "address",
              "name": "identity",
              "type": "address"
            },
            {
              "internalType": "address",
              "name": "erc3643Token",
              "type": "address"
            },
            {
              "internalType": "address",
              "name": "treasury",
              "type": "address"
            },
            {
              "internalType": "address",
              "name": "governance",
              "type": "address"
            },
            {
              "internalType": "address",
              "name": "vault",
              "type": "address"
            },
            {
              "internalType": "address",
              "name": "autoCompounder",
              "type": "address"
            }
          ],
          "internalType": "struct BuildingFactoryStorage.BuildingDetails",
          "name": "",
          "type": "tuple"
        }
      ],
      "stateMutability": "view",
      "type": "function"
    },
    {
      "inputs": [],
      "name": "getBuildingList",
      "outputs": [
        {
          "components": [
            {
              "internalType": "address",
              "name": "addr",
              "type": "address"
            },
            {
              "internalType": "uint256",
              "name": "nftId",
              "type": "uint256"
            },
            {
              "internalType": "string",
              "name": "tokenURI",
              "type": "string"
            },
            {
              "internalType": "address",
              "name": "identity",
              "type": "address"
            },
            {
              "internalType": "address",
              "name": "erc3643Token",
              "type": "address"
            },
            {
              "internalType": "address",
              "name": "treasury",
              "type": "address"
            },
            {
              "internalType": "address",
              "name": "governance",
              "type": "address"
            },
            {
              "internalType": "address",
              "name": "vault",
              "type": "address"
            },
            {
              "internalType": "address",
              "name": "autoCompounder",
              "type": "address"
            }
          ],
          "internalType": "struct BuildingFactoryStorage.BuildingDetails[]",
          "name": "",
          "type": "tuple[]"
        }
      ],
      "stateMutability": "view",
      "type": "function"
    },
    {
      "inputs": [
        {
          "internalType": "address",
          "name": "wallet",
          "type": "address"
        }
      ],
      "name": "getIdentity",
      "outputs": [
        {
          "internalType": "contract IIdentity",
          "name": "",
          "type": "address"
        }
      ],
      "stateMutability": "view",
      "type": "function"
    },
    {
      "inputs": [
        {
          "internalType": "address",
          "name": "_nft",
          "type": "address"
        },
        {
          "internalType": "address",
          "name": "_uniswapRouter",
          "type": "address"
        },
        {
          "internalType": "address",
          "name": "_uniswapFactory",
          "type": "address"
        },
        {
          "internalType": "address",
          "name": "_onchainIdGateway",
          "type": "address"
        },
        {
          "internalType": "address",
          "name": "_trexGateway",
          "type": "address"
        },
        {
          "internalType": "address",
          "name": "_usdc",
          "type": "address"
        },
        {
          "internalType": "address",
          "name": "_buildingBeacon",
          "type": "address"
        },
        {
          "internalType": "address",
          "name": "_treasuryBeacon",
          "type": "address"
        },
        {
          "internalType": "address",
          "name": "_governanceBeacon",
          "type": "address"
        }
      ],
      "name": "initialize",
      "outputs": [],
      "stateMutability": "nonpayable",
      "type": "function"
    },
    {
      "inputs": [
        {
          "components": [
            {
              "internalType": "string",
              "name": "tokenURI",
              "type": "string"
            },
            {
              "internalType": "string",
              "name": "tokenName",
              "type": "string"
            },
            {
              "internalType": "string",
              "name": "tokenSymbol",
              "type": "string"
            },
            {
              "internalType": "uint8",
              "name": "tokenDecimals",
              "type": "uint8"
            },
            {
              "internalType": "uint256",
              "name": "tokenMintAmount",
              "type": "uint256"
            },
            {
              "internalType": "uint256",
              "name": "treasuryReserveAmount",
              "type": "uint256"
            },
            {
              "internalType": "uint256",
              "name": "treasuryNPercent",
              "type": "uint256"
            },
            {
              "internalType": "string",
              "name": "governanceName",
              "type": "string"
            },
            {
              "internalType": "string",
              "name": "vaultShareTokenName",
              "type": "string"
            },
            {
              "internalType": "string",
              "name": "vaultShareTokenSymbol",
              "type": "string"
            },
            {
              "internalType": "address",
              "name": "vaultFeeReceiver",
              "type": "address"
            },
            {
              "internalType": "address",
              "name": "vaultFeeToken",
              "type": "address"
            },
            {
              "internalType": "uint256",
              "name": "vaultFeePercentage",
              "type": "uint256"
            },
            {
              "internalType": "uint32",
              "name": "vaultCliff",
              "type": "uint32"
            },
            {
              "internalType": "uint32",
              "name": "vaultUnlockDuration",
              "type": "uint32"
            },
            {
              "internalType": "string",
              "name": "aTokenName",
              "type": "string"
            },
            {
              "internalType": "string",
              "name": "aTokenSymbol",
              "type": "string"
            }
          ],
          "internalType": "struct BuildingFactoryStorage.NewBuildingDetails",
          "name": "details",
          "type": "tuple"
        }
      ],
      "name": "newBuilding",
      "outputs": [
        {
          "components": [
            {
              "internalType": "address",
              "name": "addr",
              "type": "address"
            },
            {
              "internalType": "uint256",
              "name": "nftId",
              "type": "uint256"
            },
            {
              "internalType": "string",
              "name": "tokenURI",
              "type": "string"
            },
            {
              "internalType": "address",
              "name": "identity",
              "type": "address"
            },
            {
              "internalType": "address",
              "name": "erc3643Token",
              "type": "address"
            },
            {
              "internalType": "address",
              "name": "treasury",
              "type": "address"
            },
            {
              "internalType": "address",
              "name": "governance",
              "type": "address"
            },
            {
              "internalType": "address",
              "name": "vault",
              "type": "address"
            },
            {
              "internalType": "address",
              "name": "autoCompounder",
              "type": "address"
            }
          ],
          "internalType": "struct BuildingFactoryStorage.BuildingDetails",
          "name": "buildingDetails",
          "type": "tuple"
        }
      ],
      "stateMutability": "nonpayable",
      "type": "function"
    },
    {
      "inputs": [
        {
          "internalType": "address",
          "name": "buildingAddress",
          "type": "address"
        },
        {
          "internalType": "address",
          "name": "wallet",
          "type": "address"
        },
        {
          "internalType": "uint16",
          "name": "country",
          "type": "uint16"
        }
      ],
      "name": "registerIdentity",
      "outputs": [],
      "stateMutability": "nonpayable",
      "type": "function"
    }
  ],
  "bytecode": "0x60806040523480156200001157600080fd5b506200001c62000022565b620000d6565b7ff0c57e16840df040f15088dc2f81fe391c3923bec73e23a9662efc9c229c6a00805468010000000000000000900460ff1615620000735760405163f92ee8a960e01b815260040160405180910390fd5b80546001600160401b0390811614620000d35780546001600160401b0319166001600160401b0390811782556040519081527fc7f505b2f371ae2175ee4913f4499e1f2633a7b5936321eed1cdaeb6115181d29060200160405180910390a15b50565b61327480620000e66000396000f3fe60806040523480156200001157600080fd5b5060043610620000825760003560e01c80632fea7b8114620000875780633e8e6e8b14620000b6578063454a03e014620000cd578063665fa4a114620000e6578063899a0ebe146200010c578063db652ec81462000123578063e891294c146200013c578063f5e95acb1462000153575b600080fd5b6200009e6200009836600462002286565b6200016a565b604051620000ad9190620022a6565b60405180910390f35b6200009e620000c736600462002286565b62000274565b620000e4620000de366004620022c7565b62000302565b005b620000fd620000f736600462002286565b62000675565b604051620000ad919062002426565b620000fd6200011d3660046200243b565b620007c5565b6200012d620019fe565b604051620000ad919062002479565b620000e46200014d366004620024e1565b62001b7d565b620000e4620001643660046200257b565b62001e07565b600080620001776200209a565b905060008160040160009054906101000a90046001600160a01b03166001600160a01b03166378e751a66040518163ffffffff1660e01b8152600401602060405180830381865afa158015620001d1573d6000803e3d6000fd5b505050506040513d601f19601f82011682018060405250810190620001f791906200264a565b604051632fea7b8160e01b81529091506001600160a01b03821690632fea7b819062000228908790600401620022a6565b602060405180830381865afa15801562000246573d6000803e3d6000fd5b505050506040513d601f19601f820116820180604052508101906200026c91906200264a565b949350505050565b600080620002816200209a565b600480820154604051633e8e6e8b60e01b81529293506001600160a01b031691633e8e6e8b91620002b591879101620022a6565b6020604051808303816000875af1158015620002d5573d6000803e3d6000fd5b505050506040513d601f19601f82011682018060405250810190620002fb91906200264a565b9392505050565b60006200030e6200209a565b6001600160a01b038086166000908152600a83016020908152604080832081516101208101835281549095168552600181015492850192909252600282018054959650929491929084019162000364906200266a565b80601f016020809104026020016040519081016040528092919081815260200182805462000392906200266a565b8015620003e35780601f10620003b757610100808354040283529160200191620003e3565b820191906000526020600020905b815481529060010190602001808311620003c557829003601f168201915b505050918352505060038201546001600160a01b039081166020808401919091526004808501548316604080860191909152600586015484166060860152600686015484166080808701919091526007870154851660a0870152600890960154841660c09095019490945293850151878501548451633c73a8d360e11b81529451969750909560009591909316936378e751a693818301939290918290030181865afa15801562000498573d6000803e3d6000fd5b505050506040513d601f19601f82011682018060405250810190620004be91906200264a565b90506000826001600160a01b031663134e18f46040518163ffffffff1660e01b8152600401602060405180830381865afa15801562000501573d6000803e3d6000fd5b505050506040513d601f19601f820116820180604052508101906200052791906200264a565b90506000826001600160a01b0316632fea7b81896040518263ffffffff1660e01b8152600401620005599190620022a6565b602060405180830381865afa15801562000577573d6000803e3d6000fd5b505050506040513d601f19601f820116820180604052508101906200059d91906200264a565b90506001600160a01b038116620005fb5760405162461bcd60e51b815260206004820152601d60248201527f4964656e7469747920666f722077616c6c6574206e6f7420666f756e6400000060448201526064015b60405180910390fd5b60405163022a501f60e51b81526001600160a01b038981166004830152828116602483015261ffff8916604483015283169063454a03e090606401600060405180830381600087803b1580156200065157600080fd5b505af115801562000666573d6000803e3d6000fd5b50505050505050505050505050565b6200067f62002212565b60006200068b6200209a565b6001600160a01b038085166000908152600a8301602090815260409182902082516101208101845281549094168452600181015491840191909152600281018054949550929390929184019190620006e3906200266a565b80601f016020809104026020016040519081016040528092919081815260200182805462000711906200266a565b8015620007625780601f10620007365761010080835404028352916020019162000762565b820191906000526020600020905b8154815290600101906020018083116200074457829003601f168201915b505050918352505060038201546001600160a01b0390811660208301526004830154811660408301526005830154811660608301526006830154811660808301526007830154811660a083015260089092015490911660c0909101529392505050565b620007cf62002212565b6000620007db6200209a565b604080516101408101825260006020808301829052828401829052606083018290526080830182905260a0830182905260c0830182905260e083018290526101008301919091523380835260018501546001600160a01b039081166101208501819052600387015460028801548751602481019390935283166044830152606480830194909452865180830390940184526084909101865292820180516001600160e01b031663c0c53b8b60e01b17905293519495509193921691620008a1906200225f565b620008ae929190620026a6565b604051809103906000f080158015620008cb573d6000803e3d6000fd5b506001600160a01b039081166020808401919091526040805160a08101825284518416815260058601549093168383015273__$6bcf1faf5c0920414dc51cd0daeb07e0f7$__92633af9cf1e9290918201906200092b90890189620026cc565b8080601f016020809104026020016040519081016040528093929190818152602001838380828437600092019190915250505090825250602001620009746040890189620026cc565b8080601f016020809104026020016040519081016040528093929190818152602001838380828437600092019190915250505090825250602001620009c06080890160608a016200271c565b60ff168152506040518263ffffffff1660e01b8152600401620009e4919062002741565b602060405180830381865af415801562000a02573d6000803e3d6000fd5b505050506040513d601f19601f8201168201806040525081019062000a2891906200264a565b6001600160a01b039081166080838101919091526040805160e081018252600686015484168152845184166020820190815260a08981013583850190815260c0808c0135606086019081528951891697860197885260078b0154891693860193845230918601918252955163af15b96960e01b8152945188166004860152925187166024850152516044840152925160648301529251841660848201529051831660a4820152905190911660c482015273__$6dd86c1de004dc2dd48a17c9065be1de70$__9063af15b9699060e401602060405180830381865af415801562000b15573d6000803e3d6000fd5b505050506040513d601f19601f8201168201806040525081019062000b3b91906200264a565b6001600160a01b0390811660a08301526040805161014081019091526080830151909116815273__$e6502af67ab2c746a64bc3775a7b8857c1$__9063cd6856ef906020810162000b91610100890189620026cc565b8080601f01602080910402602001604051908101604052809392919081815260200183838082843760009201919091525050509082525060200162000bdb610120890189620026cc565b8080601f01602080910402602001604051908101604052809392919081815260200183838082843760009201919091525050509082525060200162000c2961016089016101408a0162002286565b6001600160a01b0316815260200162000c4b61018089016101608a0162002286565b6001600160a01b0390811682526101808901356020830152855181166040830152855116606082015260800162000c8b6101c089016101a08a01620027b8565b63ffffffff16815260200162000caa6101e089016101c08a01620027b8565b63ffffffff168152506040518263ffffffff1660e01b815260040162000cd19190620027e0565b602060405180830381865af415801562000cef573d6000803e3d6000fd5b505050506040513d601f19601f8201168201806040525081019062000d1591906200264a565b6001600160a01b0390811660c08301526040805160a0810182526008850154831681526080840151909216602083015273__$9b19b7f7ded493586f11dad0d7ebc9ca26$__9163d88d811091810162000d7260e0890189620026cc565b8080601f01602080910402602001604051908101604052809392919081815260200183838082843760009201919091525050509082525060a08501516001600160a01b039081166020830152855116604091820152516001600160e01b031960e084901b16815262000de89190600401620028c5565b602060405180830381865af415801562000e06573d6000803e3d6000fd5b505050506040513d601f19601f8201168201806040525081019062000e2c91906200264a565b6001600160a01b0390811660e08301526040805160c080820183526001860154841682528401518316602082015260078501549092169082015273__$3080f05ed92e5505050a1e3d528e8c5fcb$__9063ea5fb336906060810162000e966101e0890189620026cc565b8080601f01602080910402602001604051908101604052809392919081815260200183838082843760009201919091525050509082525060200162000ee0610200890189620026cc565b8080601f01602080910402602001604051908101604052809392919081815260200183838082843760009201919091525050509082525084516001600160a01b03166020909101526040516001600160e01b031960e084901b16815262000f4b919060040162002927565b602060405180830381865af415801562000f69573d6000803e3d6000fd5b505050506040513d601f19601f8201168201806040525081019062000f8f91906200264a565b6001600160a01b039081166101008301526004808401546080840151604080516304d3863d60e21b815290519285169460009492169263134e18f4928281019260209291908290030181865afa15801562000fee573d6000803e3d6000fd5b505050506040513d601f19601f820116820180604052508101906200101491906200264a565b905060006200102384620020be565b9050600081516001600160401b03811115620010435762001043620029a9565b6040519080825280602002602001820160405280156200106d578160200160208202803683370190505b509050600082516001600160401b038111156200108e576200108e620029a9565b604051908082528060200260200182016040528015620010b8578160200160208202803683370190505b50905060005b8351811015620012d9576000866001600160a01b03166378e751a66040518163ffffffff1660e01b8152600401602060405180830381865afa15801562001109573d6000803e3d6000fd5b505050506040513d601f19601f820116820180604052508101906200112f91906200264a565b6001600160a01b0316632fea7b81868481518110620011525762001152620029bf565b60200260200101516040518263ffffffff1660e01b8152600401620011789190620022a6565b602060405180830381865afa15801562001196573d6000803e3d6000fd5b505050506040513d601f19601f82011682018060405250810190620011bc91906200264a565b90506001600160a01b0381166200129857866001600160a01b0316633e8e6e8b868481518110620011f157620011f1620029bf565b60200260200101516040518263ffffffff1660e01b8152600401620012179190620022a6565b6020604051808303816000875af115801562001237573d6000803e3d6000fd5b505050506040513d601f19601f820116820180604052508101906200125d91906200264a565b848381518110620012725762001272620029bf565b60200260200101906001600160a01b031690816001600160a01b031681525050620012cf565b80848381518110620012ae57620012ae620029bf565b60200260200101906001600160a01b031690816001600160a01b0316815250505b50600101620010be565b5060005b83518110156200131b57610348828281518110620012ff57620012ff620029bf565b61ffff90921660209283029190910190910152600101620012dd565b5060405163653dc9f160e01b81526001600160a01b0385169063653dc9f1906200134e9086908690869060040162002a17565b600060405180830381600087803b1580156200136957600080fd5b505af11580156200137e573d6000803e3d6000fd5b5050885460208901516001600160a01b03909116925063d0def5219150620013a78c80620026cc565b6040518463ffffffff1660e01b8152600401620013c79392919062002ae6565b6020604051808303816000875af1158015620013e7573d6000803e3d6000fd5b505050506040513d601f19601f820116820180604052508101906200140d919062002b16565b8660400181815250508560a001516001600160a01b031663603607008760e001516040518263ffffffff1660e01b81526004016200144c9190620022a6565b600060405180830381600087803b1580156200146757600080fd5b505af11580156200147c573d6000803e3d6000fd5b505050508560a001516001600160a01b031663256b5a028760c001516040518263ffffffff1660e01b8152600401620014b69190620022a6565b600060405180830381600087803b158015620014d157600080fd5b505af1158015620014e6573d6000803e3d6000fd5b5050505060c086015160a0870151604051632f2ff15d60e01b81527f477fc23fb51bb5d5aa814872a393b0e4f35d0916c7503c0fd96584681070d41060048201526001600160a01b039182166024820152911690632f2ff15d90604401600060405180830381600087803b1580156200155e57600080fd5b505af115801562001573573d6000803e3d6000fd5b5050505060c0860151865160405163f2fde38b60e01b81526001600160a01b039092169163f2fde38b91620015ab91600401620022a6565b600060405180830381600087803b158015620015c657600080fd5b505af1158015620015db573d6000803e3d6000fd5b5050505060808681015187516040516340c10f1960e01b81526001600160a01b039182166004820152928c0135602484015216906340c10f1990604401600060405180830381600087803b1580156200163357600080fd5b505af115801562001648573d6000803e3d6000fd5b50505050610100860151865160405163f2fde38b60e01b81526001600160a01b039092169163f2fde38b916200168191600401620022a6565b600060405180830381600087803b1580156200169c57600080fd5b505af1158015620016b1573d6000803e3d6000fd5b505060408051610120810182526020808b01516001600160a01b031682528a83015190820152925082019050620016e98b80620026cc565b8080601f01602080910402602001604051908101604052809392919081815260200183838082843760009201829052509385525050506060898101516001600160a01b039081166020808601919091526080808d0151831660408088019190915260a0808f015185169588019590955260e08e015184169187019190915260c0808e01518416948701949094526101008d015183169390950192909252818b015181168352600a8c01825291839020845181546001600160a01b031916931692909217825583015160018201559082015191995089916002820190620017d0908262002b85565b5060608201516003820180546001600160a01b03199081166001600160a01b03938416179091556080840151600484018054831691841691909117905560a0840151600584018054831691841691909117905560c0840151600684018054831691841691909117905560e084015160078401805483169184169190911790556101009093015160089092018054841692821692909217909155600989810180546001818101835560009283526020928390208e519290940290930180549095169316929092178355908a01519082015560408901518991906002820190620018b9908262002b85565b5060608201516003820180546001600160a01b039283166001600160a01b03199182161790915560808085015160048501805491851691841691909117905560a08086015160058601805491861691851691909117905560c08087015160068701805491871691861691909117905560e080880151600788018054918816918716919091179055610100978801516008909701805497909616969094169590951790935560208b0151908b0151928b0151938b0151918b01518b51958c01516040517f3163bceb365c85326c53476ceb0b49cfacb67f6d675e6eeb739c58ceb8b20bb697620019ea97949695939290916001600160a01b03978816815295871660208701529386166040860152918516606085015284166080840152831660a083015290911660c082015260e00190565b60405180910390a150505050505050919050565b6060600062001a0c6200209a565b6009810180546040805160208084028201810190925282815293945060009084015b8282101562001b7357600084815260209081902060408051610120810182526009860290920180546001600160a01b031683526001810154938301939093526002830180549293929184019162001a85906200266a565b80601f016020809104026020016040519081016040528092919081815260200182805462001ab3906200266a565b801562001b045780601f1062001ad85761010080835404028352916020019162001b04565b820191906000526020600020905b81548152906001019060200180831162001ae657829003601f168201915b505050918352505060038201546001600160a01b039081166020808401919091526004840154821660408401526005840154821660608401526006840154821660808401526007840154821660a08401526008909301541660c090910152908252600192909201910162001a2e565b5050505091505090565b600062001b896200209a565b6001600160a01b038087166000908152600a83016020526040902060040154919250168062001bf65760405162461bcd60e51b8152602060048201526018602482015277109d5a5b191a5b99c81d1bdad95b881b9bdd08199bdd5b9960421b6044820152606401620005f2565b336001600160a01b0316816001600160a01b0316638da5cb5b6040518163ffffffff1660e01b8152600401602060405180830381865afa15801562001c3f573d6000803e3d6000fd5b505050506040513d601f19601f8201168201806040525081019062001c6591906200264a565b6001600160a01b03160362001ccc5760405162461bcd60e51b815260206004820152602660248201527f4f6e6c79206275696c64696e67206f776e65722063616e2061646420636f6d706044820152656c69616e636560d01b6064820152608401620005f2565b6000816001600160a01b0316636290865d6040518163ffffffff1660e01b8152600401602060405180830381865afa15801562001d0d573d6000803e3d6000fd5b505050506040513d601f19601f8201168201806040525081019062001d3391906200264a565b604051631ed86f1960e01b81529091506001600160a01b03821690631ed86f199062001d64908990600401620022a6565b600060405180830381600087803b15801562001d7f57600080fd5b505af115801562001d94573d6000803e3d6000fd5b505060405163efb22d3360e01b81526001600160a01b038416925063efb22d33915062001dca90889088908b9060040162002c51565b600060405180830381600087803b15801562001de557600080fd5b505af115801562001dfa573d6000803e3d6000fd5b5050505050505050505050565b7ff0c57e16840df040f15088dc2f81fe391c3923bec73e23a9662efc9c229c6a008054600160401b810460ff1615906001600160401b031660008115801562001e4d5750825b90506000826001600160401b0316600114801562001e6a5750303b155b90508115801562001e79575080155b1562001e985760405163f92ee8a960e01b815260040160405180910390fd5b845467ffffffffffffffff19166001178555831562001ec357845460ff60401b1916600160401b1785555b600062001ecf6200209a565b90508e8160000160006101000a8154816001600160a01b0302191690836001600160a01b031602179055508d8160010160006101000a8154816001600160a01b0302191690836001600160a01b031602179055508c8160020160006101000a8154816001600160a01b0302191690836001600160a01b03160217905550888160030160006101000a8154816001600160a01b0302191690836001600160a01b031602179055508b8160040160006101000a8154816001600160a01b0302191690836001600160a01b031602179055508a8160050160006101000a8154816001600160a01b0302191690836001600160a01b03160217905550878160060160006101000a8154816001600160a01b0302191690836001600160a01b03160217905550898160070160006101000a8154816001600160a01b0302191690836001600160a01b03160217905550868160080160006101000a8154816001600160a01b0302191690836001600160a01b031602179055505083156200208a57845460ff60401b19168555604051600181527fc7f505b2f371ae2175ee4913f4499e1f2633a7b5936321eed1cdaeb6115181d29060200160405180910390a15b5050505050505050505050505050565b7f0f40dde8b99b0722537b774c6ef775b5e5a0af035d95bf9802cd87411f806f0090565b60408051600580825260c0820190925260609190816020820160a080368337019050509150826000015182600081518110620020fe57620020fe620029bf565b60200260200101906001600160a01b031690816001600160a01b0316815250508260c0015182600181518110620021395762002139620029bf565b60200260200101906001600160a01b031690816001600160a01b03168152505082610100015182600281518110620021755762002175620029bf565b60200260200101906001600160a01b031690816001600160a01b031681525050826020015182600381518110620021b057620021b0620029bf565b60200260200101906001600160a01b031690816001600160a01b03168152505082610120015182600481518110620021ec57620021ec620029bf565b60200260200101906001600160a01b031690816001600160a01b03168152505050919050565b604080516101208101825260008082526020820181905260609282018390529181018290526080810182905260a0810182905260c0810182905260e0810182905261010081019190915290565b6105bf8062002c8083390190565b6001600160a01b03811681146200228357600080fd5b50565b6000602082840312156200229957600080fd5b8135620002fb816200226d565b6001600160a01b0391909116815260200190565b6001600160a01b03169052565b600080600060608486031215620022dd57600080fd5b8335620022ea816200226d565b92506020840135620022fc816200226d565b9150604084013561ffff811681146200231457600080fd5b809150509250925092565b6000815180845260005b81811015620023475760208185018101518683018201520162002329565b506000602082860101526020601f19601f83011685010191505092915050565b600061012060018060a01b0383511684526020830151602085015260408301518160408601526200239b828601826200231f565b9150506060830151620023b26060860182620022ba565b506080830151620023c76080860182620022ba565b5060a0830151620023dc60a0860182620022ba565b5060c0830151620023f160c0860182620022ba565b5060e08301516200240660e0860182620022ba565b50610100808401516200241c82870182620022ba565b5090949350505050565b602081526000620002fb602083018462002367565b6000602082840312156200244e57600080fd5b81356001600160401b038111156200246557600080fd5b82016102208185031215620002fb57600080fd5b600060208083016020845280855180835260408601915060408160051b87010192506020870160005b82811015620024d457603f19888603018452620024c185835162002367565b94509285019290850190600101620024a2565b5092979650505050505050565b60008060008060608587031215620024f857600080fd5b843562002505816200226d565b9350602085013562002517816200226d565b925060408501356001600160401b03808211156200253457600080fd5b818701915087601f8301126200254957600080fd5b8135818111156200255957600080fd5b8860208285010111156200256c57600080fd5b95989497505060200194505050565b60008060008060008060008060006101208a8c0312156200259b57600080fd5b8935620025a8816200226d565b985060208a0135620025ba816200226d565b975060408a0135620025cc816200226d565b965060608a0135620025de816200226d565b955060808a0135620025f0816200226d565b945060a08a013562002602816200226d565b935060c08a013562002614816200226d565b925060e08a013562002626816200226d565b91506101008a013562002639816200226d565b809150509295985092959850929598565b6000602082840312156200265d57600080fd5b8151620002fb816200226d565b600181811c908216806200267f57607f821691505b602082108103620026a057634e487b7160e01b600052602260045260246000fd5b50919050565b6001600160a01b03831681526040602082018190526000906200026c908301846200231f565b6000808335601e19843603018112620026e457600080fd5b8301803591506001600160401b03821115620026ff57600080fd5b6020019150368190038213156200271557600080fd5b9250929050565b6000602082840312156200272f57600080fd5b813560ff81168114620002fb57600080fd5b60208152600060018060a01b0380845116602084015280602085015116604084015250604083015160a060608401526200277f60c08401826200231f565b90506060840151601f198483030160808501526200279e82826200231f565b91505060ff60808501511660a08401528091505092915050565b600060208284031215620027cb57600080fd5b813563ffffffff81168114620002fb57600080fd5b60208152620027f4602082018351620022ba565b60006020830151610140806040850152620028146101608501836200231f565b91506040850151601f198584030160608601526200283383826200231f565b92505060608501516200284a6080860182620022ba565b5060808501516200285f60a0860182620022ba565b5060a085015160c085015260c08501516200287e60e0860182620022ba565b5060e08501516101006200289581870183620022ba565b8601519050610120620028af8682018363ffffffff169052565b86015163ffffffff81168387015290506200241c565b60208152600060018060a01b03808451166020840152806020850151166040840152604084015160a060608501526200290260c08501826200231f565b90508160608601511660808501528160808601511660a0850152809250505092915050565b60208152600060018060a01b03808451166020840152806020850151166040840152806040850151166060840152606084015160c060808501526200297060e08501826200231f565b90506080850151601f198583030160a08601526200298f82826200231f565b9150508160a08601511660c0850152809250505092915050565b634e487b7160e01b600052604160045260246000fd5b634e487b7160e01b600052603260045260246000fd5b60008151808452602080850194506020840160005b8381101562002a0c57815161ffff1687529582019590820190600101620029ea565b509495945050505050565b606080825284519082018190526000906020906080840190828801845b8281101562002a5b5781516001600160a01b03168452928401929084019060010162002a34565b5050508381038285015285518082528683019183019060005b8181101562002a9b5783516001600160a01b03168352928401929184019160010162002a74565b5050848103604086015262002ab18187620029d5565b98975050505050505050565b81835281816020850137506000828201602090810191909152601f909101601f19169091010190565b6001600160a01b038416815260406020820181905260009062002b0d908301848662002abd565b95945050505050565b60006020828403121562002b2957600080fd5b5051919050565b601f82111562002b80576000816000526020600020601f850160051c8101602086101562002b5b5750805b601f850160051c820191505b8181101562002b7c5782815560010162002b67565b5050505b505050565b81516001600160401b0381111562002ba15762002ba1620029a9565b62002bb98162002bb284546200266a565b8462002b30565b602080601f83116001811462002bf1576000841562002bd85750858301515b600019600386901b1c1916600185901b17855562002b7c565b600085815260208120601f198616915b8281101562002c225788860151825594840194600190910190840162002c01565b508582101562002c415787850151600019600388901b60f8161c191681555b5050505050600190811b01905550565b60408152600062002c6760408301858762002abd565b905060018060a01b038316602083015294935050505056fe60a06040526040516105bf3803806105bf83398101604081905261002291610387565b61002c828261003e565b506001600160a01b031660805261047e565b610047826100fe565b6040516001600160a01b038316907f1cf3b03a6cf19fa2baba4df148e9dcabedea7f8a5c07840e207e5c089be95d3e90600090a28051156100f2576100ed826001600160a01b0316635c60da1b6040518163ffffffff1660e01b8152600401602060405180830381865afa1580156100c3573d6000803e3d6000fd5b505050506040513d601f19601f820116820180604052508101906100e79190610447565b82610211565b505050565b6100fa610288565b5050565b806001600160a01b03163b60000361013957604051631933b43b60e21b81526001600160a01b03821660048201526024015b60405180910390fd5b807fa3f0ad74e5423aebfd80d3ef4346578335a9a72aeaee59ff6cb3582b35133d5080546001600160a01b0319166001600160a01b0392831617905560408051635c60da1b60e01b81529051600092841691635c60da1b9160048083019260209291908290030181865afa1580156101b5573d6000803e3d6000fd5b505050506040513d601f19601f820116820180604052508101906101d99190610447565b9050806001600160a01b03163b6000036100fa57604051634c9c8ce360e01b81526001600160a01b0382166004820152602401610130565b6060600080846001600160a01b03168460405161022e9190610462565b600060405180830381855af49150503d8060008114610269576040519150601f19603f3d011682016040523d82523d6000602084013e61026e565b606091505b50909250905061027f8583836102a9565b95945050505050565b34156102a75760405163b398979f60e01b815260040160405180910390fd5b565b6060826102be576102b982610308565b610301565b81511580156102d557506001600160a01b0384163b155b156102fe57604051639996b31560e01b81526001600160a01b0385166004820152602401610130565b50805b9392505050565b8051156103185780518082602001fd5b604051630a12f52160e11b815260040160405180910390fd5b80516001600160a01b038116811461034857600080fd5b919050565b634e487b7160e01b600052604160045260246000fd5b60005b8381101561037e578181015183820152602001610366565b50506000910152565b6000806040838503121561039a57600080fd5b6103a383610331565b60208401519092506001600160401b03808211156103c057600080fd5b818501915085601f8301126103d457600080fd5b8151818111156103e6576103e661034d565b604051601f8201601f19908116603f0116810190838211818310171561040e5761040e61034d565b8160405282815288602084870101111561042757600080fd5b610438836020830160208801610363565b80955050505050509250929050565b60006020828403121561045957600080fd5b61030182610331565b60008251610474818460208701610363565b9190910192915050565b6080516101276104986000396000601e01526101276000f3fe6080604052600a600c565b005b60186014601a565b60a0565b565b60007f00000000000000000000000000000000000000000000000000000000000000006001600160a01b0316635c60da1b6040518163ffffffff1660e01b8152600401602060405180830381865afa1580156079573d6000803e3d6000fd5b505050506040513d601f19601f82011682018060405250810190609b919060c3565b905090565b3660008037600080366000845af43d6000803e80801560be573d6000f35b3d6000fd5b60006020828403121560d457600080fd5b81516001600160a01b038116811460ea57600080fd5b939250505056fea26469706673582212205c8a2fcdc6f79c1d43b849e2b03f494652cee222b2ec86046b7caaa1405f985f64736f6c63430008180033a264697066735822122097119e0b4f89b4236860f3962225a07c54d0bf9a9a36771a6a1f23975be5ce6a64736f6c63430008180033",
  "linkReferences": {
    "contracts/buildings/library/BuildingAutoCompounder.sol": {
      "BuildingAutoCompounderLib": [
        {
          "length": 20,
          "start": 3918
        }
      ]
    },
    "contracts/buildings/library/BuildingGovernance.sol": {
      "BuildingGovernanceLib": [
        {
          "length": 20,
          "start": 3629
        }
      ]
    },
    "contracts/buildings/library/BuildingToken.sol": {
      "BuildingTokenLib": [
        {
          "length": 20,
          "start": 2532
        }
      ]
    },
    "contracts/buildings/library/BuildingTreasury.sol": {
      "BuildingTreasuryLib": [
        {
          "length": 20,
          "start": 3008
        }
      ]
    },
    "contracts/buildings/library/BuildingVault.sol": {
      "BuildingVaultLib": [
        {
          "length": 20,
          "start": 3145
        }
      ]
    }
  },
  "deployedLinkReferences": {
    "contracts/buildings/library/BuildingAutoCompounder.sol": {
      "BuildingAutoCompounderLib": [
        {
          "length": 20,
          "start": 3688
        }
      ]
    },
    "contracts/buildings/library/BuildingGovernance.sol": {
      "BuildingGovernanceLib": [
        {
          "length": 20,
          "start": 3399
        }
      ]
    },
    "contracts/buildings/library/BuildingToken.sol": {
      "BuildingTokenLib": [
        {
          "length": 20,
          "start": 2302
        }
      ]
    },
    "contracts/buildings/library/BuildingTreasury.sol": {
      "BuildingTreasuryLib": [
        {
          "length": 20,
          "start": 2778
        }
      ]
    },
    "contracts/buildings/library/BuildingVault.sol": {
      "BuildingVaultLib": [
        {
          "length": 20,
          "start": 2915
        }
      ]
    }
  }
}