{
  "_format": "hh-sol-artifact-1",
  "contractName": "BuildingFactoryMock",
  "sourceName": "contracts/buildings/mock/BuildingFactoryMock.sol",
  "abi": [
    {
      "inputs": [],
      "name": "InvalidInitialization",
      "type": "error"
    },
    {
      "inputs": [],
      "name": "NotInitializing",
      "type": "error"
    },
    {
      "anonymous": false,
      "inputs": [
        {
          "indexed": false,
          "internalType": "address",
          "name": "building",
          "type": "address"
        },
        {
          "indexed": false,
          "internalType": "address",
          "name": "module",
          "type": "address"
        }
      ],
      "name": "ComplianceModuleAdded",
      "type": "event"
    },
    {
      "anonymous": false,
      "inputs": [
        {
          "indexed": false,
          "internalType": "address",
          "name": "wallet",
          "type": "address"
        },
        {
          "indexed": false,
          "internalType": "address",
          "name": "identity",
          "type": "address"
        },
        {
          "indexed": false,
          "internalType": "uint16",
          "name": "country",
          "type": "uint16"
        }
      ],
      "name": "IdentityRegistered",
      "type": "event"
    },
    {
      "anonymous": false,
      "inputs": [
        {
          "indexed": false,
          "internalType": "uint64",
          "name": "version",
          "type": "uint64"
        }
      ],
      "name": "Initialized",
      "type": "event"
    },
    {
      "anonymous": false,
      "inputs": [
        {
          "indexed": false,
          "internalType": "address",
          "name": "buildingAddress",
          "type": "address"
        },
        {
          "indexed": false,
          "internalType": "address",
          "name": "erc3643Token",
          "type": "address"
        },
        {
          "indexed": false,
          "internalType": "address",
          "name": "treasury",
          "type": "address"
        },
        {
          "indexed": false,
          "internalType": "address",
          "name": "vault",
          "type": "address"
        },
        {
          "indexed": false,
          "internalType": "address",
          "name": "governance",
          "type": "address"
        },
        {
          "indexed": false,
          "internalType": "address",
          "name": "initialOwner",
          "type": "address"
        },
        {
          "indexed": false,
          "internalType": "address",
          "name": "autoCompounder",
          "type": "address"
        }
      ],
      "name": "NewBuilding",
      "type": "event"
    },
    {
      "inputs": [
        {
          "internalType": "address",
          "name": "building",
          "type": "address"
        },
        {
          "internalType": "address",
          "name": "module",
          "type": "address"
        },
        {
          "internalType": "bytes",
          "name": "callData",
          "type": "bytes"
        }
      ],
      "name": "addComplianceModule",
      "outputs": [],
      "stateMutability": "nonpayable",
      "type": "function"
    },
    {
      "inputs": [
        {
          "internalType": "address",
          "name": "wallet",
          "type": "address"
        }
      ],
      "name": "deployIdentityForWallet",
      "outputs": [
        {
          "internalType": "address",
          "name": "",
          "type": "address"
        }
      ],
      "stateMutability": "nonpayable",
      "type": "function"
    },
    {
      "inputs": [
        {
          "internalType": "address",
          "name": "buildingAddress",
          "type": "address"
        }
      ],
      "name": "getBuildingDetails",
      "outputs": [
        {
          "components": [
            {
              "internalType": "address",
              "name": "addr",
              "type": "address"
            },
            {
              "internalType": "uint256",
              "name": "nftId",
              "type": "uint256"
            },
            {
              "internalType": "string",
              "name": "tokenURI",
              "type": "string"
            },
            {
              "internalType": "address",
              "name": "identity",
              "type": "address"
            },
            {
              "internalType": "address",
              "name": "erc3643Token",
              "type": "address"
            },
            {
              "internalType": "address",
              "name": "treasury",
              "type": "address"
            },
            {
              "internalType": "address",
              "name": "governance",
              "type": "address"
            },
            {
              "internalType": "address",
              "name": "vault",
              "type": "address"
            },
            {
              "internalType": "address",
              "name": "autoCompounder",
              "type": "address"
            }
          ],
          "internalType": "struct BuildingFactoryStorage.BuildingDetails",
          "name": "",
          "type": "tuple"
        }
      ],
      "stateMutability": "view",
      "type": "function"
    },
    {
      "inputs": [],
      "name": "getBuildingList",
      "outputs": [
        {
          "components": [
            {
              "internalType": "address",
              "name": "addr",
              "type": "address"
            },
            {
              "internalType": "uint256",
              "name": "nftId",
              "type": "uint256"
            },
            {
              "internalType": "string",
              "name": "tokenURI",
              "type": "string"
            },
            {
              "internalType": "address",
              "name": "identity",
              "type": "address"
            },
            {
              "internalType": "address",
              "name": "erc3643Token",
              "type": "address"
            },
            {
              "internalType": "address",
              "name": "treasury",
              "type": "address"
            },
            {
              "internalType": "address",
              "name": "governance",
              "type": "address"
            },
            {
              "internalType": "address",
              "name": "vault",
              "type": "address"
            },
            {
              "internalType": "address",
              "name": "autoCompounder",
              "type": "address"
            }
          ],
          "internalType": "struct BuildingFactoryStorage.BuildingDetails[]",
          "name": "",
          "type": "tuple[]"
        }
      ],
      "stateMutability": "view",
      "type": "function"
    },
    {
      "inputs": [
        {
          "internalType": "address",
          "name": "wallet",
          "type": "address"
        }
      ],
      "name": "getIdentity",
      "outputs": [
        {
          "internalType": "contract IIdentity",
          "name": "",
          "type": "address"
        }
      ],
      "stateMutability": "view",
      "type": "function"
    },
    {
      "inputs": [
        {
          "internalType": "address",
          "name": "_nft",
          "type": "address"
        },
        {
          "internalType": "address",
          "name": "_uniswapRouter",
          "type": "address"
        },
        {
          "internalType": "address",
          "name": "_uniswapFactory",
          "type": "address"
        },
        {
          "internalType": "address",
          "name": "_onchainIdGateway",
          "type": "address"
        },
        {
          "internalType": "address",
          "name": "_trexGateway",
          "type": "address"
        },
        {
          "internalType": "address",
          "name": "_usdc",
          "type": "address"
        },
        {
          "internalType": "address",
          "name": "_buildingBeacon",
          "type": "address"
        },
        {
          "internalType": "address",
          "name": "_treasuryBeacon",
          "type": "address"
        },
        {
          "internalType": "address",
          "name": "_governanceBeacon",
          "type": "address"
        }
      ],
      "name": "initialize",
      "outputs": [],
      "stateMutability": "nonpayable",
      "type": "function"
    },
    {
      "inputs": [
        {
          "components": [
            {
              "internalType": "string",
              "name": "tokenURI",
              "type": "string"
            },
            {
              "internalType": "string",
              "name": "tokenName",
              "type": "string"
            },
            {
              "internalType": "string",
              "name": "tokenSymbol",
              "type": "string"
            },
            {
              "internalType": "uint8",
              "name": "tokenDecimals",
              "type": "uint8"
            },
            {
              "internalType": "uint256",
              "name": "tokenMintAmount",
              "type": "uint256"
            },
            {
              "internalType": "uint256",
              "name": "treasuryReserveAmount",
              "type": "uint256"
            },
            {
              "internalType": "uint256",
              "name": "treasuryNPercent",
              "type": "uint256"
            },
            {
              "internalType": "string",
              "name": "governanceName",
              "type": "string"
            },
            {
              "internalType": "string",
              "name": "vaultShareTokenName",
              "type": "string"
            },
            {
              "internalType": "string",
              "name": "vaultShareTokenSymbol",
              "type": "string"
            },
            {
              "internalType": "address",
              "name": "vaultFeeReceiver",
              "type": "address"
            },
            {
              "internalType": "address",
              "name": "vaultFeeToken",
              "type": "address"
            },
            {
              "internalType": "uint256",
              "name": "vaultFeePercentage",
              "type": "uint256"
            },
            {
              "internalType": "uint32",
              "name": "vaultCliff",
              "type": "uint32"
            },
            {
              "internalType": "uint32",
              "name": "vaultUnlockDuration",
              "type": "uint32"
            },
            {
              "internalType": "string",
              "name": "aTokenName",
              "type": "string"
            },
            {
              "internalType": "string",
              "name": "aTokenSymbol",
              "type": "string"
            }
          ],
          "internalType": "struct BuildingFactoryStorage.NewBuildingDetails",
          "name": "details",
          "type": "tuple"
        }
      ],
      "name": "newBuilding",
      "outputs": [
        {
          "components": [
            {
              "internalType": "address",
              "name": "addr",
              "type": "address"
            },
            {
              "internalType": "uint256",
              "name": "nftId",
              "type": "uint256"
            },
            {
              "internalType": "string",
              "name": "tokenURI",
              "type": "string"
            },
            {
              "internalType": "address",
              "name": "identity",
              "type": "address"
            },
            {
              "internalType": "address",
              "name": "erc3643Token",
              "type": "address"
            },
            {
              "internalType": "address",
              "name": "treasury",
              "type": "address"
            },
            {
              "internalType": "address",
              "name": "governance",
              "type": "address"
            },
            {
              "internalType": "address",
              "name": "vault",
              "type": "address"
            },
            {
              "internalType": "address",
              "name": "autoCompounder",
              "type": "address"
            }
          ],
          "internalType": "struct BuildingFactoryStorage.BuildingDetails",
          "name": "buildingDetails",
          "type": "tuple"
        }
      ],
      "stateMutability": "nonpayable",
      "type": "function"
    },
    {
      "inputs": [
        {
          "internalType": "address",
          "name": "buildingAddress",
          "type": "address"
        },
        {
          "internalType": "address",
          "name": "wallet",
          "type": "address"
        },
        {
          "internalType": "uint16",
          "name": "country",
          "type": "uint16"
        }
      ],
      "name": "registerIdentity",
      "outputs": [],
      "stateMutability": "nonpayable",
      "type": "function"
    },
    {
      "inputs": [],
      "name": "version",
      "outputs": [
        {
          "internalType": "string",
          "name": "",
          "type": "string"
        }
      ],
      "stateMutability": "pure",
      "type": "function"
    }
  ],
  "bytecode": "0x60806040523480156200001157600080fd5b506200001c62000022565b620000d6565b7ff0c57e16840df040f15088dc2f81fe391c3923bec73e23a9662efc9c229c6a00805468010000000000000000900460ff1615620000735760405163f92ee8a960e01b815260040160405180910390fd5b80546001600160401b0390811614620000d35780546001600160401b0319166001600160401b0390811782556040519081527fc7f505b2f371ae2175ee4913f4499e1f2633a7b5936321eed1cdaeb6115181d29060200160405180910390a15b50565b61332280620000e66000396000f3fe60806040523480156200001157600080fd5b50600436106200008e5760003560e01c80632fea7b8114620000935780633e8e6e8b14620000c2578063454a03e014620000d957806354fd4d5014620000f2578063665fa4a11462000119578063899a0ebe146200013f578063db652ec81462000156578063e891294c146200016f578063f5e95acb1462000186575b600080fd5b620000aa620000a4366004620023e0565b6200019d565b604051620000b9919062002400565b60405180910390f35b620000aa620000d3366004620023e0565b620002a7565b620000f0620000ea36600462002421565b62000335565b005b60408051808201825260038152620322e360ec1b60208201529051620000b99190620024c1565b620001306200012a366004620023e0565b620006dc565b604051620000b9919062002595565b6200013062000150366004620025aa565b6200082c565b6200016062000847565b604051620000b99190620025e8565b620000f06200018036600462002650565b620009c6565b620000f062000197366004620026ea565b62000c94565b600080620001aa62000dbb565b905060008160040160009054906101000a90046001600160a01b03166001600160a01b03166378e751a66040518163ffffffff1660e01b8152600401602060405180830381865afa15801562000204573d6000803e3d6000fd5b505050506040513d601f19601f820116820180604052508101906200022a9190620027b9565b604051632fea7b8160e01b81529091506001600160a01b03821690632fea7b81906200025b90879060040162002400565b602060405180830381865afa15801562000279573d6000803e3d6000fd5b505050506040513d601f19601f820116820180604052508101906200029f9190620027b9565b949350505050565b600080620002b462000dbb565b600480820154604051633e8e6e8b60e01b81529293506001600160a01b031691633e8e6e8b91620002e89187910162002400565b6020604051808303816000875af115801562000308573d6000803e3d6000fd5b505050506040513d601f19601f820116820180604052508101906200032e9190620027b9565b9392505050565b60006200034162000dbb565b6001600160a01b038086166000908152600a8301602090815260408083208151610120810183528154909516855260018101549285019290925260028201805495965092949192908401916200039790620027d9565b80601f0160208091040260200160405190810160405280929190818152602001828054620003c590620027d9565b8015620004165780601f10620003ea5761010080835404028352916020019162000416565b820191906000526020600020905b815481529060010190602001808311620003f857829003601f168201915b505050918352505060038201546001600160a01b039081166020808401919091526004808501548316604080860191909152600586015484166060860152600686015484166080808701919091526007870154851660a0870152600890960154841660c09095019490945293850151878501548451633c73a8d360e11b81529451969750909560009591909316936378e751a693818301939290918290030181865afa158015620004cb573d6000803e3d6000fd5b505050506040513d601f19601f82011682018060405250810190620004f19190620027b9565b90506000826001600160a01b031663134e18f46040518163ffffffff1660e01b8152600401602060405180830381865afa15801562000534573d6000803e3d6000fd5b505050506040513d601f19601f820116820180604052508101906200055a9190620027b9565b90506000826001600160a01b0316632fea7b81896040518263ffffffff1660e01b81526004016200058c919062002400565b602060405180830381865afa158015620005aa573d6000803e3d6000fd5b505050506040513d601f19601f82011682018060405250810190620005d09190620027b9565b90506001600160a01b0381166200062e5760405162461bcd60e51b815260206004820152601d60248201527f4964656e7469747920666f722077616c6c6574206e6f7420666f756e6400000060448201526064015b60405180910390fd5b60405163022a501f60e51b81526001600160a01b0383169063454a03e09062000660908b9085908c9060040162002815565b600060405180830381600087803b1580156200067b57600080fd5b505af115801562000690573d6000803e3d6000fd5b505050507f74cfd0a46a2905d52ee4947cc1ac80b597bd474e7a0496263f14119e74947286888289604051620006c99392919062002815565b60405180910390a1505050505050505050565b620006e66200236c565b6000620006f262000dbb565b6001600160a01b038085166000908152600a83016020908152604091829020825161012081018452815490941684526001810154918401919091526002810180549495509293909291840191906200074a90620027d9565b80601f01602080910402602001604051908101604052809291908181526020018280546200077890620027d9565b8015620007c95780601f106200079d57610100808354040283529160200191620007c9565b820191906000526020600020905b815481529060010190602001808311620007ab57829003601f168201915b505050918352505060038201546001600160a01b0390811660208301526004830154811660408301526005830154811660608301526006830154811660808301526007830154811660a083015260089092015490911660c0909101529392505050565b620008366200236c565b620008418262000ddf565b92915050565b606060006200085562000dbb565b6009810180546040805160208084028201810190925282815293945060009084015b82821015620009bc57600084815260209081902060408051610120810182526009860290920180546001600160a01b0316835260018101549383019390935260028301805492939291840191620008ce90620027d9565b80601f0160208091040260200160405190810160405280929190818152602001828054620008fc90620027d9565b80156200094d5780601f1062000921576101008083540402835291602001916200094d565b820191906000526020600020905b8154815290600101906020018083116200092f57829003601f168201915b505050918352505060038201546001600160a01b039081166020808401919091526004840154821660408401526005840154821660608401526006840154821660808401526007840154821660a08401526008909301541660c090910152908252600192909201910162000877565b5050505091505090565b6000620009d262000dbb565b6001600160a01b038087166000908152600a83016020526040902060040154919250168062000a3f5760405162461bcd60e51b8152602060048201526018602482015277109d5a5b191a5b99c81d1bdad95b881b9bdd08199bdd5b9960421b604482015260640162000625565b336001600160a01b0316816001600160a01b0316638da5cb5b6040518163ffffffff1660e01b8152600401602060405180830381865afa15801562000a88573d6000803e3d6000fd5b505050506040513d601f19601f8201168201806040525081019062000aae9190620027b9565b6001600160a01b03160362000b155760405162461bcd60e51b815260206004820152602660248201527f4f6e6c79206275696c64696e67206f776e65722063616e2061646420636f6d706044820152656c69616e636560d01b606482015260840162000625565b6000816001600160a01b0316636290865d6040518163ffffffff1660e01b8152600401602060405180830381865afa15801562000b56573d6000803e3d6000fd5b505050506040513d601f19601f8201168201806040525081019062000b7c9190620027b9565b604051631ed86f1960e01b81529091506001600160a01b03821690631ed86f199062000bad90899060040162002400565b600060405180830381600087803b15801562000bc857600080fd5b505af115801562000bdd573d6000803e3d6000fd5b505060405163efb22d3360e01b81526001600160a01b038416925063efb22d33915062000c1390889088908b9060040162002865565b600060405180830381600087803b15801562000c2e57600080fd5b505af115801562000c43573d6000803e3d6000fd5b5050604080516001600160a01b03808c1682528a1660208201527f206d5ad91f2b853f57f138b9f7af9887b85321df6602565c1015986af2452d82935001905060405180910390a150505050505050565b7ff0c57e16840df040f15088dc2f81fe391c3923bec73e23a9662efc9c229c6a008054600160401b810460ff1615906001600160401b031660008115801562000cda5750825b90506000826001600160401b0316600114801562000cf75750303b155b90508115801562000d06575080155b1562000d255760405163f92ee8a960e01b815260040160405180910390fd5b845467ffffffffffffffff19166001178555831562000d5057845460ff60401b1916600160401b1785555b62000d638e8e8e8e8e8e8e8e8e62001f98565b831562000dab57845460ff60401b19168555604051600181527fc7f505b2f371ae2175ee4913f4499e1f2633a7b5936321eed1cdaeb6115181d2906020015b60405180910390a15b5050505050505050505050505050565b7f0f40dde8b99b0722537b774c6ef775b5e5a0af035d95bf9802cd87411f806f0090565b62000de96200236c565b600062000df562000dbb565b604080516101408101825260006020808301829052828401829052606083018290526080830182905260a0830182905260c0830182905260e083018290526101008301919091523380835260018501546001600160a01b039081166101208501819052600387015460028801548751602481019390935283166044830152606480830194909452865180830390940184526084909101865292820180516001600160e01b031663c0c53b8b60e01b1790529351949550919392169162000ebb90620023b9565b62000ec892919062002893565b604051809103906000f08015801562000ee5573d6000803e3d6000fd5b506001600160a01b039081166020808401919091526040805160a08101825284518416815260058601549093168383015273__$6bcf1faf5c0920414dc51cd0daeb07e0f7$__92633af9cf1e92909182019062000f4590890189620028b9565b8080601f01602080910402602001604051908101604052809392919081815260200183838082843760009201919091525050509082525060200162000f8e6040890189620028b9565b8080601f01602080910402602001604051908101604052809392919081815260200183838082843760009201919091525050509082525060200162000fda6080890160608a0162002909565b60ff168152506040518263ffffffff1660e01b815260040162000ffe91906200292e565b602060405180830381865af41580156200101c573d6000803e3d6000fd5b505050506040513d601f19601f82011682018060405250810190620010429190620027b9565b6001600160a01b039081166080838101919091526040805160e081018252600686015484168152845184166020820190815260a08981013583850190815260c0808c0135606086019081528951891697860197885260078b0154891693860193845230918601918252955163af15b96960e01b8152945188166004860152925187166024850152516044840152925160648301529251841660848201529051831660a4820152905190911660c482015273__$6dd86c1de004dc2dd48a17c9065be1de70$__9063af15b9699060e401602060405180830381865af41580156200112f573d6000803e3d6000fd5b505050506040513d601f19601f82011682018060405250810190620011559190620027b9565b6001600160a01b0390811660a08301526040805161014081019091526080830151909116815273__$e6502af67ab2c746a64bc3775a7b8857c1$__9063cd6856ef9060208101620011ab610100890189620028b9565b8080601f016020809104026020016040519081016040528093929190818152602001838380828437600092019190915250505090825250602001620011f5610120890189620028b9565b8080601f0160208091040260200160405190810160405280939291908181526020018383808284376000920191909152505050908252506020016200124361016089016101408a01620023e0565b6001600160a01b031681526020016200126561018089016101608a01620023e0565b6001600160a01b03908116825261018089013560208301528551811660408301528551166060820152608001620012a56101c089016101a08a01620029a5565b63ffffffff168152602001620012c46101e089016101c08a01620029a5565b63ffffffff168152506040518263ffffffff1660e01b8152600401620012eb9190620029cd565b602060405180830381865af415801562001309573d6000803e3d6000fd5b505050506040513d601f19601f820116820180604052508101906200132f9190620027b9565b6001600160a01b0390811660c08301526040805160a0810182526008850154831681526080840151909216602083015273__$9b19b7f7ded493586f11dad0d7ebc9ca26$__9163d88d81109181016200138c60e0890189620028b9565b8080601f01602080910402602001604051908101604052809392919081815260200183838082843760009201919091525050509082525060a08501516001600160a01b039081166020830152855116604091820152516001600160e01b031960e084901b16815262001402919060040162002ab2565b602060405180830381865af415801562001420573d6000803e3d6000fd5b505050506040513d601f19601f82011682018060405250810190620014469190620027b9565b6001600160a01b0390811660e08301526040805160c080820183526001860154841682528401518316602082015260078501549092169082015273__$3080f05ed92e5505050a1e3d528e8c5fcb$__9063ea5fb3369060608101620014b06101e0890189620028b9565b8080601f016020809104026020016040519081016040528093929190818152602001838380828437600092019190915250505090825250602001620014fa610200890189620028b9565b8080601f01602080910402602001604051908101604052809392919081815260200183838082843760009201919091525050509082525084516001600160a01b03166020909101526040516001600160e01b031960e084901b16815262001565919060040162002b14565b602060405180830381865af415801562001583573d6000803e3d6000fd5b505050506040513d601f19601f82011682018060405250810190620015a99190620027b9565b6001600160a01b039081166101008301526004808401546080840151604080516304d3863d60e21b815290519285169460009492169263134e18f4928281019260209291908290030181865afa15801562001608573d6000803e3d6000fd5b505050506040513d601f19601f820116820180604052508101906200162e9190620027b9565b905060006200163d8462002218565b905060005b81518110156200191d576000846001600160a01b03166378e751a66040518163ffffffff1660e01b8152600401602060405180830381865afa1580156200168d573d6000803e3d6000fd5b505050506040513d601f19601f82011682018060405250810190620016b39190620027b9565b6001600160a01b0316632fea7b81848481518110620016d657620016d662002b96565b60200260200101516040518263ffffffff1660e01b8152600401620016fc919062002400565b602060405180830381865afa1580156200171a573d6000803e3d6000fd5b505050506040513d601f19601f82011682018060405250810190620017409190620027b9565b90506103486001600160a01b038216620017e757856001600160a01b0316633e8e6e8b85858151811062001778576200177862002b96565b60200260200101516040518263ffffffff1660e01b81526004016200179e919062002400565b6020604051808303816000875af1158015620017be573d6000803e3d6000fd5b505050506040513d601f19601f82011682018060405250810190620017e49190620027b9565b91505b60006001600160a01b0316856001600160a01b031663f0eb5e5486868151811062001816576200181662002b96565b60200260200101516040518263ffffffff1660e01b81526004016200183c919062002400565b602060405180830381865afa1580156200185a573d6000803e3d6000fd5b505050506040513d601f19601f82011682018060405250810190620018809190620027b9565b6001600160a01b0316036200191257846001600160a01b031663454a03e0858581518110620018b357620018b362002b96565b602002602001015184846040518463ffffffff1660e01b8152600401620018dd9392919062002815565b600060405180830381600087803b158015620018f857600080fd5b505af11580156200190d573d6000803e3d6000fd5b505050505b505060010162001642565b50845460208501516001600160a01b039091169063d0def52190620019438a80620028b9565b6040518463ffffffff1660e01b8152600401620019639392919062002bac565b6020604051808303816000875af115801562001983573d6000803e3d6000fd5b505050506040513d601f19601f82011682018060405250810190620019a9919062002bdc565b8460400181815250508360a001516001600160a01b031663603607008560e001516040518263ffffffff1660e01b8152600401620019e8919062002400565b600060405180830381600087803b15801562001a0357600080fd5b505af115801562001a18573d6000803e3d6000fd5b505050508360a001516001600160a01b031663256b5a028560c001516040518263ffffffff1660e01b815260040162001a52919062002400565b600060405180830381600087803b15801562001a6d57600080fd5b505af115801562001a82573d6000803e3d6000fd5b5050505060c084015160a0850151604051632f2ff15d60e01b81527f477fc23fb51bb5d5aa814872a393b0e4f35d0916c7503c0fd96584681070d41060048201526001600160a01b039182166024820152911690632f2ff15d90604401600060405180830381600087803b15801562001afa57600080fd5b505af115801562001b0f573d6000803e3d6000fd5b5050505060c0840151845160405163f2fde38b60e01b81526001600160a01b039092169163f2fde38b9162001b479160040162002400565b600060405180830381600087803b15801562001b6257600080fd5b505af115801562001b77573d6000803e3d6000fd5b5050505060808481015185516040516340c10f1960e01b81526001600160a01b039182166004820152928a0135602484015216906340c10f1990604401600060405180830381600087803b15801562001bcf57600080fd5b505af115801562001be4573d6000803e3d6000fd5b50505050610100840151845160405163f2fde38b60e01b81526001600160a01b039092169163f2fde38b9162001c1d9160040162002400565b600060405180830381600087803b15801562001c3857600080fd5b505af115801562001c4d573d6000803e3d6000fd5b505060408051610120810182526020808901516001600160a01b03168252888301519082015292508201905062001c858980620028b9565b8080601f01602080910402602001604051908101604052809392919081815260200183838082843760009201829052509385525050506060878101516001600160a01b039081166020808601919091526080808b0151831660408088019190915260a0808d015185169588019590955260e08c015184169187019190915260c0808c01518416948701949094526101008b0151831693909501929092528189015181168352600a8a01825291839020845181546001600160a01b03191693169290921782558301516001820155908201519197508791600282019062001d6c908262002c61565b5060608201516003820180546001600160a01b03199081166001600160a01b03938416179091556080840151600484018054831691841691909117905560a0840151600584018054831691841691909117905560c0840151600684018054831691841691909117905560e084015160078401805483169184169190911790556101009093015160089092018054841692821692909217909155600987810180546001818101835560009283526020928390208c51929094029093018054909516931692909217835590880151908201556040870151879190600282019062001e55908262002c61565b5060608201516003820180546001600160a01b039283166001600160a01b03199182161790915560808085015160048501805491851691841691909117905560a08086015160058601805491861691851691909117905560c08087015160068701805491871691861691909117905560e08088015160078801805491881691871691909117905561010097880151600890970180549790961696909416959095179093556020890151908901519289015193890151918901518951958a01516040517f3163bceb365c85326c53476ceb0b49cfacb67f6d675e6eeb739c58ceb8b20bb69762001f8697949695939290916001600160a01b03978816815295871660208701529386166040860152918516606085015284166080840152831660a083015290911660c082015260e00190565b60405180910390a15050505050919050565b7ff0c57e16840df040f15088dc2f81fe391c3923bec73e23a9662efc9c229c6a008054600160401b810460ff1615906001600160401b031660008115801562001fde5750825b90506000826001600160401b0316600114801562001ffb5750303b155b9050811580156200200a575080155b15620020295760405163f92ee8a960e01b815260040160405180910390fd5b845467ffffffffffffffff1916600117855583156200205457845460ff60401b1916600160401b1785555b60006200206062000dbb565b90508e8160000160006101000a8154816001600160a01b0302191690836001600160a01b031602179055508d8160010160006101000a8154816001600160a01b0302191690836001600160a01b031602179055508c8160020160006101000a8154816001600160a01b0302191690836001600160a01b03160217905550888160030160006101000a8154816001600160a01b0302191690836001600160a01b031602179055508b8160040160006101000a8154816001600160a01b0302191690836001600160a01b031602179055508a8160050160006101000a8154816001600160a01b0302191690836001600160a01b03160217905550878160060160006101000a8154816001600160a01b0302191690836001600160a01b03160217905550898160070160006101000a8154816001600160a01b0302191690836001600160a01b03160217905550868160080160006101000a8154816001600160a01b0302191690836001600160a01b0316021790555050831562000dab57845460ff60401b19168555604051600181527fc7f505b2f371ae2175ee4913f4499e1f2633a7b5936321eed1cdaeb6115181d29060200162000da2565b60408051600580825260c0820190925260609190816020820160a08036833701905050915082600001518260008151811062002258576200225862002b96565b60200260200101906001600160a01b031690816001600160a01b0316815250508260c001518260018151811062002293576200229362002b96565b60200260200101906001600160a01b031690816001600160a01b03168152505082610100015182600281518110620022cf57620022cf62002b96565b60200260200101906001600160a01b031690816001600160a01b0316815250508260200151826003815181106200230a576200230a62002b96565b60200260200101906001600160a01b031690816001600160a01b0316815250508261012001518260048151811062002346576200234662002b96565b60200260200101906001600160a01b031690816001600160a01b03168152505050919050565b604080516101208101825260008082526020820181905260609282018390529181018290526080810182905260a0810182905260c0810182905260e0810182905261010081019190915290565b6105bf8062002d2e83390190565b6001600160a01b0381168114620023dd57600080fd5b50565b600060208284031215620023f357600080fd5b81356200032e81620023c7565b6001600160a01b0391909116815260200190565b6001600160a01b03169052565b6000806000606084860312156200243757600080fd5b83356200244481620023c7565b925060208401356200245681620023c7565b9150604084013561ffff811681146200246e57600080fd5b809150509250925092565b6000815180845260005b81811015620024a15760208185018101518683018201520162002483565b506000602082860101526020601f19601f83011685010191505092915050565b6020815260006200032e602083018462002479565b600061012060018060a01b0383511684526020830151602085015260408301518160408601526200250a8286018262002479565b915050606083015162002521606086018262002414565b50608083015162002536608086018262002414565b5060a08301516200254b60a086018262002414565b5060c08301516200256060c086018262002414565b5060e08301516200257560e086018262002414565b50610100808401516200258b8287018262002414565b5090949350505050565b6020815260006200032e6020830184620024d6565b600060208284031215620025bd57600080fd5b81356001600160401b03811115620025d457600080fd5b820161022081850312156200032e57600080fd5b600060208083016020845280855180835260408601915060408160051b87010192506020870160005b828110156200264357603f1988860301845262002630858351620024d6565b9450928501929085019060010162002611565b5092979650505050505050565b600080600080606085870312156200266757600080fd5b84356200267481620023c7565b935060208501356200268681620023c7565b925060408501356001600160401b0380821115620026a357600080fd5b818701915087601f830112620026b857600080fd5b813581811115620026c857600080fd5b886020828501011115620026db57600080fd5b95989497505060200194505050565b60008060008060008060008060006101208a8c0312156200270a57600080fd5b89356200271781620023c7565b985060208a01356200272981620023c7565b975060408a01356200273b81620023c7565b965060608a01356200274d81620023c7565b955060808a01356200275f81620023c7565b945060a08a01356200277181620023c7565b935060c08a01356200278381620023c7565b925060e08a01356200279581620023c7565b91506101008a0135620027a881620023c7565b809150509295985092959850929598565b600060208284031215620027cc57600080fd5b81516200032e81620023c7565b600181811c90821680620027ee57607f821691505b6020821081036200280f57634e487b7160e01b600052602260045260246000fd5b50919050565b6001600160a01b03938416815291909216602082015261ffff909116604082015260600190565b81835281816020850137506000828201602090810191909152601f909101601f19169091010190565b6040815260006200287b6040830185876200283c565b905060018060a01b0383166020830152949350505050565b6001600160a01b03831681526040602082018190526000906200029f9083018462002479565b6000808335601e19843603018112620028d157600080fd5b8301803591506001600160401b03821115620028ec57600080fd5b6020019150368190038213156200290257600080fd5b9250929050565b6000602082840312156200291c57600080fd5b813560ff811681146200032e57600080fd5b60208152600060018060a01b0380845116602084015280602085015116604084015250604083015160a060608401526200296c60c084018262002479565b90506060840151601f198483030160808501526200298b828262002479565b91505060ff60808501511660a08401528091505092915050565b600060208284031215620029b857600080fd5b813563ffffffff811681146200032e57600080fd5b60208152620029e160208201835162002414565b6000602083015161014080604085015262002a0161016085018362002479565b91506040850151601f1985840301606086015262002a20838262002479565b925050606085015162002a37608086018262002414565b50608085015162002a4c60a086018262002414565b5060a085015160c085015260c085015162002a6b60e086018262002414565b5060e085015161010062002a828187018362002414565b860151905061012062002a9c8682018363ffffffff169052565b86015163ffffffff81168387015290506200258b565b60208152600060018060a01b03808451166020840152806020850151166040840152604084015160a0606085015262002aef60c085018262002479565b90508160608601511660808501528160808601511660a0850152809250505092915050565b60208152600060018060a01b03808451166020840152806020850151166040840152806040850151166060840152606084015160c0608085015262002b5d60e085018262002479565b90506080850151601f198583030160a086015262002b7c828262002479565b9150508160a08601511660c0850152809250505092915050565b634e487b7160e01b600052603260045260246000fd5b6001600160a01b038416815260406020820181905260009062002bd390830184866200283c565b95945050505050565b60006020828403121562002bef57600080fd5b5051919050565b634e487b7160e01b600052604160045260246000fd5b601f82111562002c5c576000816000526020600020601f850160051c8101602086101562002c375750805b601f850160051c820191505b8181101562002c585782815560010162002c43565b5050505b505050565b81516001600160401b0381111562002c7d5762002c7d62002bf6565b62002c958162002c8e8454620027d9565b8462002c0c565b602080601f83116001811462002ccd576000841562002cb45750858301515b600019600386901b1c1916600185901b17855562002c58565b600085815260208120601f198616915b8281101562002cfe5788860151825594840194600190910190840162002cdd565b508582101562002d1d5787850151600019600388901b60f8161c191681555b5050505050600190811b0190555056fe60a06040526040516105bf3803806105bf83398101604081905261002291610387565b61002c828261003e565b506001600160a01b031660805261047e565b610047826100fe565b6040516001600160a01b038316907f1cf3b03a6cf19fa2baba4df148e9dcabedea7f8a5c07840e207e5c089be95d3e90600090a28051156100f2576100ed826001600160a01b0316635c60da1b6040518163ffffffff1660e01b8152600401602060405180830381865afa1580156100c3573d6000803e3d6000fd5b505050506040513d601f19601f820116820180604052508101906100e79190610447565b82610211565b505050565b6100fa610288565b5050565b806001600160a01b03163b60000361013957604051631933b43b60e21b81526001600160a01b03821660048201526024015b60405180910390fd5b807fa3f0ad74e5423aebfd80d3ef4346578335a9a72aeaee59ff6cb3582b35133d5080546001600160a01b0319166001600160a01b0392831617905560408051635c60da1b60e01b81529051600092841691635c60da1b9160048083019260209291908290030181865afa1580156101b5573d6000803e3d6000fd5b505050506040513d601f19601f820116820180604052508101906101d99190610447565b9050806001600160a01b03163b6000036100fa57604051634c9c8ce360e01b81526001600160a01b0382166004820152602401610130565b6060600080846001600160a01b03168460405161022e9190610462565b600060405180830381855af49150503d8060008114610269576040519150601f19603f3d011682016040523d82523d6000602084013e61026e565b606091505b50909250905061027f8583836102a9565b95945050505050565b34156102a75760405163b398979f60e01b815260040160405180910390fd5b565b6060826102be576102b982610308565b610301565b81511580156102d557506001600160a01b0384163b155b156102fe57604051639996b31560e01b81526001600160a01b0385166004820152602401610130565b50805b9392505050565b8051156103185780518082602001fd5b604051630a12f52160e11b815260040160405180910390fd5b80516001600160a01b038116811461034857600080fd5b919050565b634e487b7160e01b600052604160045260246000fd5b60005b8381101561037e578181015183820152602001610366565b50506000910152565b6000806040838503121561039a57600080fd5b6103a383610331565b60208401519092506001600160401b03808211156103c057600080fd5b818501915085601f8301126103d457600080fd5b8151818111156103e6576103e661034d565b604051601f8201601f19908116603f0116810190838211818310171561040e5761040e61034d565b8160405282815288602084870101111561042757600080fd5b610438836020830160208801610363565b80955050505050509250929050565b60006020828403121561045957600080fd5b61030182610331565b60008251610474818460208701610363565b9190910192915050565b6080516101276104986000396000601e01526101276000f3fe6080604052600a600c565b005b60186014601a565b60a0565b565b60007f00000000000000000000000000000000000000000000000000000000000000006001600160a01b0316635c60da1b6040518163ffffffff1660e01b8152600401602060405180830381865afa1580156079573d6000803e3d6000fd5b505050506040513d601f19601f82011682018060405250810190609b919060c3565b905090565b3660008037600080366000845af43d6000803e80801560be573d6000f35b3d6000fd5b60006020828403121560d457600080fd5b81516001600160a01b038116811460ea57600080fd5b939250505056fea26469706673582212205c8a2fcdc6f79c1d43b849e2b03f494652cee222b2ec86046b7caaa1405f985f64736f6c63430008180033a2646970667358221220168e0338a7a4103d151a0454a33c0b1c13d3e5de69746176853091e61e6918b964736f6c63430008180033",
  "linkReferences": {
    "contracts/buildings/library/BuildingAutoCompounder.sol": {
      "BuildingAutoCompounderLib": [
        {
          "length": 20,
          "start": 5480
        }
      ]
    },
    "contracts/buildings/library/BuildingGovernance.sol": {
      "BuildingGovernanceLib": [
        {
          "length": 20,
          "start": 5191
        }
      ]
    },
    "contracts/buildings/library/BuildingToken.sol": {
      "BuildingTokenLib": [
        {
          "length": 20,
          "start": 4094
        }
      ]
    },
    "contracts/buildings/library/BuildingTreasury.sol": {
      "BuildingTreasuryLib": [
        {
          "length": 20,
          "start": 4570
        }
      ]
    },
    "contracts/buildings/library/BuildingVault.sol": {
      "BuildingVaultLib": [
        {
          "length": 20,
          "start": 4707
        }
      ]
    }
  },
  "deployedLinkReferences": {
    "contracts/buildings/library/BuildingAutoCompounder.sol": {
      "BuildingAutoCompounderLib": [
        {
          "length": 20,
          "start": 5250
        }
      ]
    },
    "contracts/buildings/library/BuildingGovernance.sol": {
      "BuildingGovernanceLib": [
        {
          "length": 20,
          "start": 4961
        }
      ]
    },
    "contracts/buildings/library/BuildingToken.sol": {
      "BuildingTokenLib": [
        {
          "length": 20,
          "start": 3864
        }
      ]
    },
    "contracts/buildings/library/BuildingTreasury.sol": {
      "BuildingTreasuryLib": [
        {
          "length": 20,
          "start": 4340
        }
      ]
    },
    "contracts/buildings/library/BuildingVault.sol": {
      "BuildingVaultLib": [
        {
          "length": 20,
          "start": 4477
        }
      ]
    }
  }
}