{
  "_format": "hh-sol-artifact-1",
  "contractName": "BuildingFactory",
  "sourceName": "contracts/buildings/BuildingFactory.sol",
  "abi": [
    {
      "inputs": [],
      "stateMutability": "nonpayable",
      "type": "constructor"
    },
    {
      "inputs": [],
      "name": "InvalidInitialization",
      "type": "error"
    },
    {
      "inputs": [],
      "name": "NotInitializing",
      "type": "error"
    },
    {
      "inputs": [
        {
          "internalType": "address",
          "name": "owner",
          "type": "address"
        }
      ],
      "name": "OwnableInvalidOwner",
      "type": "error"
    },
    {
      "inputs": [
        {
          "internalType": "address",
          "name": "account",
          "type": "address"
        }
      ],
      "name": "OwnableUnauthorizedAccount",
      "type": "error"
    },
    {
      "anonymous": false,
      "inputs": [
        {
          "indexed": false,
          "internalType": "address",
          "name": "buildingAddress",
          "type": "address"
        }
      ],
      "name": "BuildingConfigured",
      "type": "event"
    },
    {
      "anonymous": false,
      "inputs": [
        {
          "indexed": false,
          "internalType": "address",
          "name": "building",
          "type": "address"
        },
        {
          "indexed": false,
          "internalType": "address",
          "name": "module",
          "type": "address"
        }
      ],
      "name": "ComplianceModuleAdded",
      "type": "event"
    },
    {
      "anonymous": false,
      "inputs": [
        {
          "indexed": false,
          "internalType": "address",
          "name": "building",
          "type": "address"
        },
        {
          "indexed": false,
          "internalType": "address",
          "name": "wallet",
          "type": "address"
        },
        {
          "indexed": false,
          "internalType": "address",
          "name": "identity",
          "type": "address"
        },
        {
          "indexed": false,
          "internalType": "uint16",
          "name": "country",
          "type": "uint16"
        }
      ],
      "name": "IdentityRegistered",
      "type": "event"
    },
    {
      "anonymous": false,
      "inputs": [
        {
          "indexed": false,
          "internalType": "uint64",
          "name": "version",
          "type": "uint64"
        }
      ],
      "name": "Initialized",
      "type": "event"
    },
    {
      "anonymous": false,
      "inputs": [
        {
          "indexed": false,
          "internalType": "address",
          "name": "buildingAddress",
          "type": "address"
        },
        {
          "indexed": false,
          "internalType": "address",
          "name": "erc3643Token",
          "type": "address"
        },
        {
          "indexed": false,
          "internalType": "address",
          "name": "treasury",
          "type": "address"
        },
        {
          "indexed": false,
          "internalType": "address",
          "name": "vault",
          "type": "address"
        },
        {
          "indexed": false,
          "internalType": "address",
          "name": "governance",
          "type": "address"
        },
        {
          "indexed": false,
          "internalType": "address",
          "name": "initialOwner",
          "type": "address"
        },
        {
          "indexed": false,
          "internalType": "address",
          "name": "autoCompounder",
          "type": "address"
        }
      ],
      "name": "NewBuilding",
      "type": "event"
    },
    {
      "anonymous": false,
      "inputs": [
        {
          "indexed": true,
          "internalType": "address",
          "name": "previousOwner",
          "type": "address"
        },
        {
          "indexed": true,
          "internalType": "address",
          "name": "newOwner",
          "type": "address"
        }
      ],
      "name": "OwnershipTransferred",
      "type": "event"
    },
    {
      "anonymous": false,
      "inputs": [
        {
          "indexed": false,
          "internalType": "address",
          "name": "agent",
          "type": "address"
        }
      ],
      "name": "RegistryAgentRemoved",
      "type": "event"
    },
    {
      "anonymous": false,
      "inputs": [
        {
          "indexed": false,
          "internalType": "address[]",
          "name": "agents",
          "type": "address[]"
        }
      ],
      "name": "RegistryAgentsAdded",
      "type": "event"
    },
    {
      "inputs": [
        {
          "internalType": "address[]",
          "name": "agents",
          "type": "address[]"
        }
      ],
      "name": "addRegistryAgents",
      "outputs": [],
      "stateMutability": "nonpayable",
      "type": "function"
    },
    {
      "inputs": [
        {
          "internalType": "address",
          "name": "buildingAddress",
          "type": "address"
        }
      ],
      "name": "configNewBuilding",
      "outputs": [],
      "stateMutability": "nonpayable",
      "type": "function"
    },
    {
      "inputs": [
        {
          "internalType": "address",
          "name": "wallet",
          "type": "address"
        }
      ],
      "name": "deployIdentityForWallet",
      "outputs": [
        {
          "internalType": "address",
          "name": "",
          "type": "address"
        }
      ],
      "stateMutability": "nonpayable",
      "type": "function"
    },
    {
      "inputs": [
        {
          "internalType": "address",
          "name": "buildingAddress",
          "type": "address"
        }
      ],
      "name": "getBuildingDetails",
      "outputs": [
        {
          "components": [
            {
              "internalType": "address",
              "name": "addr",
              "type": "address"
            },
            {
              "internalType": "uint256",
              "name": "nftId",
              "type": "uint256"
            },
            {
              "internalType": "string",
              "name": "tokenURI",
              "type": "string"
            },
            {
              "internalType": "address",
              "name": "auditRegistry",
              "type": "address"
            },
            {
              "internalType": "address",
              "name": "erc3643Token",
              "type": "address"
            },
            {
              "internalType": "address",
              "name": "treasury",
              "type": "address"
            },
            {
              "internalType": "address",
              "name": "governance",
              "type": "address"
            },
            {
              "internalType": "address",
              "name": "vault",
              "type": "address"
            },
            {
              "internalType": "address",
              "name": "autoCompounder",
              "type": "address"
            },
            {
              "internalType": "address",
              "name": "initialOwner",
              "type": "address"
            },
            {
              "internalType": "uint256",
              "name": "tokenMintAmount",
              "type": "uint256"
            },
            {
              "internalType": "bool",
              "name": "isConfigured",
              "type": "bool"
            }
          ],
          "internalType": "struct BuildingFactoryStorage.BuildingDetails",
          "name": "",
          "type": "tuple"
        }
      ],
      "stateMutability": "view",
      "type": "function"
    },
    {
      "inputs": [],
      "name": "getBuildingList",
      "outputs": [
        {
          "components": [
            {
              "internalType": "address",
              "name": "addr",
              "type": "address"
            },
            {
              "internalType": "uint256",
              "name": "nftId",
              "type": "uint256"
            },
            {
              "internalType": "string",
              "name": "tokenURI",
              "type": "string"
            },
            {
              "internalType": "address",
              "name": "auditRegistry",
              "type": "address"
            },
            {
              "internalType": "address",
              "name": "erc3643Token",
              "type": "address"
            },
            {
              "internalType": "address",
              "name": "treasury",
              "type": "address"
            },
            {
              "internalType": "address",
              "name": "governance",
              "type": "address"
            },
            {
              "internalType": "address",
              "name": "vault",
              "type": "address"
            },
            {
              "internalType": "address",
              "name": "autoCompounder",
              "type": "address"
            },
            {
              "internalType": "address",
              "name": "initialOwner",
              "type": "address"
            },
            {
              "internalType": "uint256",
              "name": "tokenMintAmount",
              "type": "uint256"
            },
            {
              "internalType": "bool",
              "name": "isConfigured",
              "type": "bool"
            }
          ],
          "internalType": "struct BuildingFactoryStorage.BuildingDetails[]",
          "name": "",
          "type": "tuple[]"
        }
      ],
      "stateMutability": "view",
      "type": "function"
    },
    {
      "inputs": [
        {
          "internalType": "address",
          "name": "wallet",
          "type": "address"
        }
      ],
      "name": "getIdentity",
      "outputs": [
        {
          "internalType": "contract IIdentity",
          "name": "",
          "type": "address"
        }
      ],
      "stateMutability": "view",
      "type": "function"
    },
    {
      "inputs": [],
      "name": "getRegistryAgents",
      "outputs": [
        {
          "internalType": "address[]",
          "name": "",
          "type": "address[]"
        }
      ],
      "stateMutability": "view",
      "type": "function"
    },
    {
      "inputs": [
        {
          "components": [
            {
              "internalType": "address",
              "name": "nft",
              "type": "address"
            },
            {
              "internalType": "address",
              "name": "uniswapRouter",
              "type": "address"
            },
            {
              "internalType": "address",
              "name": "uniswapFactory",
              "type": "address"
            },
            {
              "internalType": "address",
              "name": "identityFactory",
              "type": "address"
            },
            {
              "internalType": "address",
              "name": "trexFactory",
              "type": "address"
            },
            {
              "internalType": "address",
              "name": "usdc",
              "type": "address"
            },
            {
              "internalType": "address",
              "name": "buildingBeacon",
              "type": "address"
            },
            {
              "internalType": "address",
              "name": "treasuryBeacon",
              "type": "address"
            },
            {
              "internalType": "address",
              "name": "governanceBeacon",
              "type": "address"
            },
            {
              "internalType": "address",
              "name": "upkeeper",
              "type": "address"
            }
          ],
          "internalType": "struct BuildingFactoryInit",
          "name": "init",
          "type": "tuple"
        }
      ],
      "name": "initialize",
      "outputs": [],
      "stateMutability": "nonpayable",
      "type": "function"
    },
    {
      "inputs": [
        {
          "components": [
            {
              "internalType": "string",
              "name": "tokenURI",
              "type": "string"
            },
            {
              "internalType": "string",
              "name": "tokenName",
              "type": "string"
            },
            {
              "internalType": "string",
              "name": "tokenSymbol",
              "type": "string"
            },
            {
              "internalType": "uint8",
              "name": "tokenDecimals",
              "type": "uint8"
            },
            {
              "internalType": "uint256",
              "name": "tokenMintAmount",
              "type": "uint256"
            },
            {
              "internalType": "uint256",
              "name": "treasuryReserveAmount",
              "type": "uint256"
            },
            {
              "internalType": "uint256",
              "name": "treasuryNPercent",
              "type": "uint256"
            },
            {
              "internalType": "string",
              "name": "governanceName",
              "type": "string"
            },
            {
              "internalType": "string",
              "name": "vaultShareTokenName",
              "type": "string"
            },
            {
              "internalType": "string",
              "name": "vaultShareTokenSymbol",
              "type": "string"
            },
            {
              "internalType": "address",
              "name": "vaultFeeReceiver",
              "type": "address"
            },
            {
              "internalType": "address",
              "name": "vaultFeeToken",
              "type": "address"
            },
            {
              "internalType": "uint256",
              "name": "vaultFeePercentage",
              "type": "uint256"
            },
            {
              "internalType": "uint32",
              "name": "vaultCliff",
              "type": "uint32"
            },
            {
              "internalType": "uint32",
              "name": "vaultUnlockDuration",
              "type": "uint32"
            },
            {
              "internalType": "string",
              "name": "aTokenName",
              "type": "string"
            },
            {
              "internalType": "string",
              "name": "aTokenSymbol",
              "type": "string"
            }
          ],
          "internalType": "struct BuildingFactoryStorage.NewBuildingDetails",
          "name": "details",
          "type": "tuple"
        }
      ],
      "name": "newBuilding",
      "outputs": [
        {
          "components": [
            {
              "internalType": "address",
              "name": "addr",
              "type": "address"
            },
            {
              "internalType": "uint256",
              "name": "nftId",
              "type": "uint256"
            },
            {
              "internalType": "string",
              "name": "tokenURI",
              "type": "string"
            },
            {
              "internalType": "address",
              "name": "auditRegistry",
              "type": "address"
            },
            {
              "internalType": "address",
              "name": "erc3643Token",
              "type": "address"
            },
            {
              "internalType": "address",
              "name": "treasury",
              "type": "address"
            },
            {
              "internalType": "address",
              "name": "governance",
              "type": "address"
            },
            {
              "internalType": "address",
              "name": "vault",
              "type": "address"
            },
            {
              "internalType": "address",
              "name": "autoCompounder",
              "type": "address"
            },
            {
              "internalType": "address",
              "name": "initialOwner",
              "type": "address"
            },
            {
              "internalType": "uint256",
              "name": "tokenMintAmount",
              "type": "uint256"
            },
            {
              "internalType": "bool",
              "name": "isConfigured",
              "type": "bool"
            }
          ],
          "internalType": "struct BuildingFactoryStorage.BuildingDetails",
          "name": "buildingDetails",
          "type": "tuple"
        }
      ],
      "stateMutability": "nonpayable",
      "type": "function"
    },
    {
      "inputs": [],
      "name": "owner",
      "outputs": [
        {
          "internalType": "address",
          "name": "",
          "type": "address"
        }
      ],
      "stateMutability": "view",
      "type": "function"
    },
    {
      "inputs": [
        {
          "internalType": "address",
          "name": "buildingAddress",
          "type": "address"
        },
        {
          "internalType": "address",
          "name": "wallet",
          "type": "address"
        },
        {
          "internalType": "uint16",
          "name": "country",
          "type": "uint16"
        }
      ],
      "name": "registerIdentity",
      "outputs": [],
      "stateMutability": "nonpayable",
      "type": "function"
    },
    {
      "inputs": [
        {
          "internalType": "address",
          "name": "agent",
          "type": "address"
        }
      ],
      "name": "removeRegistryAgent",
      "outputs": [],
      "stateMutability": "nonpayable",
      "type": "function"
    },
    {
      "inputs": [],
      "name": "renounceOwnership",
      "outputs": [],
      "stateMutability": "nonpayable",
      "type": "function"
    },
    {
      "inputs": [
        {
          "internalType": "address",
          "name": "newOwner",
          "type": "address"
        }
      ],
      "name": "transferOwnership",
      "outputs": [],
      "stateMutability": "nonpayable",
      "type": "function"
    }
  ],
  "bytecode": "0x60806040523480156200001157600080fd5b506200001c62000022565b620000d6565b7ff0c57e16840df040f15088dc2f81fe391c3923bec73e23a9662efc9c229c6a00805468010000000000000000900460ff1615620000735760405163f92ee8a960e01b815260040160405180910390fd5b80546001600160401b0390811614620000d35780546001600160401b0319166001600160401b0390811782556040519081527fc7f505b2f371ae2175ee4913f4499e1f2633a7b5936321eed1cdaeb6115181d29060200160405180910390a15b50565b61406f80620000e66000396000f3fe60806040523480156200001157600080fd5b5060043610620000da5760003560e01c8063715018a61162000086578063715018a614620001ab578063899a0ebe14620001b55780638da5cb5b14620001cc578063c6bb9e9614620001d6578063d5f51ccd14620001ed578063db652ec81462000204578063f2fde38b146200021d57600080fd5b806240c4b014620000df5780632fea7b8114620001015780633a4338cf14620001275780633e8e6e8b1462000140578063454a03e01462000157578063665fa4a1146200016e57806370fb52571462000194575b600080fd5b620000e962000234565b604051620000f8919062003007565b60405180910390f35b62000118620001123660046200307e565b620002a4565b604051620000f891906200309e565b6200013e620001383660046200307e565b620003ae565b005b62000118620001513660046200307e565b62000ac6565b6200013e62000168366004620030b2565b62000b54565b620001856200017f3660046200307e565b62000f20565b604051620000f8919062003245565b6200013e620001a53660046200307e565b62001095565b6200013e6200122b565b62000185620001c63660046200325a565b62001243565b6200011862001fb6565b6200013e620001e736600462003298565b62001fe4565b6200013e620001fe366004620032c8565b6200230c565b6200020e62002466565b604051620000f891906200339a565b6200013e6200022e3660046200307e565b6200260e565b606060006200024262002653565b600a81018054604080516020808402820181019092528281529394508301828280156200029957602002820191906000526020600020905b81546001600160a01b031681526001909101906020018083116200027a575b505050505091505090565b600080620002b162002653565b905060008160040160009054906101000a90046001600160a01b03166001600160a01b03166378e751a66040518163ffffffff1660e01b8152600401602060405180830381865afa1580156200030b573d6000803e3d6000fd5b505050506040513d601f19601f8201168201806040525081019062000331919062003402565b604051632fea7b8160e01b81529091506001600160a01b03821690632fea7b8190620003629087906004016200309e565b602060405180830381865afa15801562000380573d6000803e3d6000fd5b505050506040513d601f19601f82011682018060405250810190620003a6919062003402565b949350505050565b6000620003ba62002653565b6001600160a01b038084166000908152600d83016020526040902080549293509116620004235760405162461bcd60e51b8152602060048201526012602482015271109d5a5b191a5b99c81b9bdd08199bdd5b9960721b60448201526064015b60405180910390fd5b600b81015460ff16156200047a5760405162461bcd60e51b815260206004820152601b60248201527f4275696c64696e6720616c726561647920636f6e66696775726564000000000060448201526064016200041a565b60098101546001600160a01b03163314620004ea5760405162461bcd60e51b815260206004820152602960248201527f4f6e6c7920746865206f776e65722063616e20636f6e66696775726520746865604482015268206275696c64696e6760b81b60648201526084016200041a565b60408051600580825260c082019092526000916020820160a080368337505050600983015481519192506001600160a01b031690829060009062000532576200053262003422565b6001600160a01b0392831660209182029290920101526001808501548351921691839190811062000567576200056762003422565b6001600160a01b03928316602091820292909201015260078301548251911690829060029081106200059d576200059d62003422565b6001600160a01b0392831660209182029290920101526008830154825191169082906003908110620005d357620005d362003422565b6001600160a01b0392831660209182029290920101526002840154600484015460078601546200060c9392831692918216911662002677565b8160048151811062000622576200062262003422565b6001600160a01b03928316602091820292909201015260048301546200064c918691168362002749565b6004828101546009840154600a8501546040516340c10f1960e01b81526001600160a01b0392831694810194909452602484015216906340c10f1990604401600060405180830381600087803b158015620006a657600080fd5b505af1158015620006bb573d6000803e3d6000fd5b505050600583015460068401546040516260360760e81b81526001600160a01b039283169350636036070092620006f79216906004016200309e565b600060405180830381600087803b1580156200071257600080fd5b505af115801562000727573d6000803e3d6000fd5b505050600583015460078401546040516312b5ad0160e11b81526001600160a01b03928316935063256b5a0292620007649216906004016200309e565b600060405180830381600087803b1580156200077f57600080fd5b505af115801562000794573d6000803e3d6000fd5b50505060078301546005840154604051632f2ff15d60e01b81526001600160a01b039283169350632f2ff15d92620007f4927f477fc23fb51bb5d5aa814872a393b0e4f35d0916c7503c0fd96584681070d4109291169060040162003438565b600060405180830381600087803b1580156200080f57600080fd5b505af115801562000824573d6000803e3d6000fd5b50505060038301546006840154604051632f2ff15d60e01b81526001600160a01b039283169350632f2ff15d9262000884927f71840dc4906352362b0cdaf79870196c8e42acafade72d5d5a6d59291253ceb19291169060040162003438565b600060405180830381600087803b1580156200089f57600080fd5b505af1158015620008b4573d6000803e3d6000fd5b50505060038301546009840154604051632f2ff15d60e01b81526001600160a01b039283169350632f2ff15d92620008f59260009291169060040162003438565b600060405180830381600087803b1580156200091057600080fd5b505af115801562000925573d6000803e3d6000fd5b5050506007830154600984015460405163f2fde38b60e01b81526001600160a01b03928316935063f2fde38b92620009629216906004016200309e565b600060405180830381600087803b1580156200097d57600080fd5b505af115801562000992573d6000803e3d6000fd5b5050506008830154600984015460405163f2fde38b60e01b81526001600160a01b03928316935063f2fde38b92620009cf9216906004016200309e565b600060405180830381600087803b158015620009ea57600080fd5b505af1158015620009ff573d6000803e3d6000fd5b5050505060098301546008830154604051630be2f08b60e31b81526001600160a01b039182166004820152634e71d92d60e01b6024820152911690635f17845890604401600060405180830381600087803b15801562000a5e57600080fd5b505af115801562000a73573d6000803e3d6000fd5b505050600b8301805460ff19166001179055506040517f13e082287ff01b095c7a56d08c6e81bc08794d833c506cd9d4d93b4cd88dc6209062000ab89086906200309e565b60405180910390a150505050565b60008062000ad362002653565b600480820154604051633e8e6e8b60e01b81529293506001600160a01b031691633e8e6e8b9162000b07918791016200309e565b6020604051808303816000875af115801562000b27573d6000803e3d6000fd5b505050506040513d601f19601f8201168201806040525081019062000b4d919062003402565b9392505050565b600062000b6062002653565b6001600160a01b038086166000908152600d83016020908152604080832081516101808101835281549095168552600181015492850192909252600282018054959650929491929084019162000bb6906200344f565b80601f016020809104026020016040519081016040528092919081815260200182805462000be4906200344f565b801562000c355780601f1062000c095761010080835404028352916020019162000c35565b820191906000526020600020905b81548152906001019060200180831162000c1757829003601f168201915b505050918352505060038201546001600160a01b039081166020808401919091526004808501548316604080860191909152600586015484166060860152600686015484166080808701919091526007870154851660a08701526008870154851660c08701526009870154851660e0870152600a870154610100870152600b9096015460ff1615156101209095019490945293850151878501548451633c73a8d360e11b81529451969750909560009591909316936378e751a693818301939290918290030181865afa15801562000d11573d6000803e3d6000fd5b505050506040513d601f19601f8201168201806040525081019062000d37919062003402565b90506000826001600160a01b031663134e18f46040518163ffffffff1660e01b8152600401602060405180830381865afa15801562000d7a573d6000803e3d6000fd5b505050506040513d601f19601f8201168201806040525081019062000da0919062003402565b90506000826001600160a01b0316632fea7b81896040518263ffffffff1660e01b815260040162000dd291906200309e565b602060405180830381865afa15801562000df0573d6000803e3d6000fd5b505050506040513d601f19601f8201168201806040525081019062000e16919062003402565b90506001600160a01b03811662000e705760405162461bcd60e51b815260206004820152601d60248201527f4964656e7469747920666f722077616c6c6574206e6f7420666f756e6400000060448201526064016200041a565b60405163022a501f60e51b81526001600160a01b0383169063454a03e09062000ea2908b9085908c9060040162003485565b600060405180830381600087803b15801562000ebd57600080fd5b505af115801562000ed2573d6000803e3d6000fd5b505050507f6680dc6d23915f02197cb4ac29f4b00443a14ca1cbe22d6b93045c32b98a82378989838a60405162000f0d9493929190620034ac565b60405180910390a1505050505050505050565b62000f2a62002f87565b600062000f3662002653565b6001600160a01b038085166000908152600d830160209081526040918290208251610180810184528154909416845260018101549184019190915260028101805494955092939092918401919062000f8e906200344f565b80601f016020809104026020016040519081016040528092919081815260200182805462000fbc906200344f565b80156200100d5780601f1062000fe1576101008083540402835291602001916200100d565b820191906000526020600020905b81548152906001019060200180831162000fef57829003601f168201915b505050918352505060038201546001600160a01b0390811660208301526004830154811660408301526005830154811660608301526006830154811660808301526007830154811660a08301526008830154811660c083015260098301541660e0820152600a820154610100820152600b9091015460ff161515610120909101529392505050565b6200109f62002b1e565b6001600160a01b038116620010c85760405162461bcd60e51b81526004016200041a90620034d9565b6000620010d462002653565b9050600a810160005b81548110156200122557836001600160a01b031682828154811062001106576200110662003422565b6000918252602090912001546001600160a01b0316036200121c578154829062001133906001906200351e565b8154811062001146576200114662003422565b9060005260206000200160009054906101000a90046001600160a01b031682828154811062001179576200117962003422565b9060005260206000200160006101000a8154816001600160a01b0302191690836001600160a01b0316021790555081805480620011ba57620011ba6200353a565b600082815260209020810160001990810180546001600160a01b03191690550190556040517ffd640fa9b46f14c0708e03114f4007b6a72edb4389a12da691527d9ffb6d0de2906200120e9086906200309e565b60405180910390a162001225565b600101620010dd565b50505050565b6200123562002b1e565b62001241600062002b55565b565b6200124d62002f87565b60006200125962002653565b600381015460405191925033916000916001600160a01b03169063189acdbd60e31b906200128c9085906024016200309e565b60408051601f198184030181529181526020820180516001600160e01b03166001600160e01b0319909416939093179092529051620012cb9062002fec565b620012d892919062003550565b604051809103906000f080158015620012f5573d6000803e3d6000fd5b5090506000816001600160a01b031663bb6e15dc6040518163ffffffff1660e01b8152600401602060405180830381865afa15801562001339573d6000803e3d6000fd5b505050506040513d601f19601f820116820180604052508101906200135f919062003402565b6040805160e0810182526001600160a01b03808716825260058801541660208083019190915292935060009273__$6bcf1faf5c0920414dc51cd0daeb07e0f7$__92633af9cf1e929190820190620013ba908c018c62003576565b8080601f0160208091040260200160405190810160405280939291908181526020018383808284376000920191909152505050908252506020016200140360408c018c62003576565b8080601f0160208091040260200160405190810160405280939291908181526020018383808284376000920191909152505050908252506020016200144f60808c0160608d01620035bf565b60ff1681526020016200146162002bc6565b81526020016200147062002d38565b8152506040518263ffffffff1660e01b81526004016200149191906200362b565b602060405180830381865af4158015620014af573d6000803e3d6000fd5b505050506040513d601f19601f82011682018060405250810190620014d5919062003402565b6040805160e08101825260068801546001600160a01b0390811682528781166020830181905260a0808d01358486015260c0808e01356060860152608085019290925260078b0154909216918301919091523090820152905163af15b96960e01b815291925060009173__$6dd86c1de004dc2dd48a17c9065be1de70$__9163af15b96991620015be919060040181516001600160a01b039081168252602080840151821690830152604080840151908301526060808401519083015260808084015182169083015260a08381015182169083015260c092830151169181019190915260e00190565b602060405180830381865af4158015620015dc573d6000803e3d6000fd5b505050506040513d601f19601f8201168201806040525081019062001602919062003402565b9050600073__$e6502af67ab2c746a64bc3775a7b8857c1$__63cd6856ef604051806101400160405280866001600160a01b031681526020018c8061010001906200164e919062003576565b8080601f016020809104026020016040519081016040528093929190818152602001838380828437600092019190915250505090825250602001620016986101208e018e62003576565b8080601f016020809104026020016040519081016040528093929190818152602001838380828437600092019190915250505090825250602001620016e66101608e016101408f016200307e565b6001600160a01b03168152602001620017086101808e016101608f016200307e565b6001600160a01b0390811682526101808e013560208301528a16604082018190526060820152608001620017456101c08e016101a08f01620036f0565b63ffffffff168152602001620017646101e08e016101c08f01620036f0565b63ffffffff168152506040518263ffffffff1660e01b81526004016200178b919062003718565b602060405180830381865af4158015620017a9573d6000803e3d6000fd5b505050506040513d601f19601f82011682018060405250810190620017cf919062003402565b6040805160c08101825260088a01546001600160a01b0390811682528616602082015291925060009173__$9b19b7f7ded493586f11dad0d7ebc9ca26$__9163d88d8110919081016200182660e08f018f62003576565b8080601f0160208091040260200160405190810160405280939291908181526020018383808284376000920191909152505050908252506001600160a01b038088166020830152898116604080840191909152908c16606090920191909152516001600160e01b031960e084901b168152620018a69190600401620037fd565b602060405180830381865af4158015620018c4573d6000803e3d6000fd5b505050506040513d601f19601f82011682018060405250810190620018ea919062003402565b9050600073__$3080f05ed92e5505050a1e3d528e8c5fcb$__63ea5fb3366040518060c001604052808c60010160009054906101000a90046001600160a01b03166001600160a01b03168152602001866001600160a01b031681526020018c60070160009054906101000a90046001600160a01b03166001600160a01b031681526020018e806101e0019062001981919062003576565b8080601f016020809104026020016040519081016040528093929190818152602001838380828437600081840152601f19601f8201169050808301925050505050505081526020018e806102000190620019dc919062003576565b8080601f0160208091040260200160405190810160405280939291908181526020018383808284376000920191909152505050908252506001600160a01b038c166020909101526040516001600160e01b031960e084901b16815262001a4691906004016200386b565b602060405180830381865af415801562001a64573d6000803e3d6000fd5b505050506040513d601f19601f8201168201806040525081019062001a8a919062003402565b89549091506000906001600160a01b031663d0def5218962001aad8f8062003576565b6040518463ffffffff1660e01b815260040162001acd93929190620038ed565b6020604051808303816000875af115801562001aed573d6000803e3d6000fd5b505050506040513d601f19601f8201168201806040525081019062001b1391906200392d565b60408051610180810182526001600160a01b038b16815260208101839052919250810162001b428e8062003576565b8080601f016020809104026020016040519081016040528093929190818152602001838380828437600081840152601f19601f820116905080830192505050505050508152602001886001600160a01b03168152602001876001600160a01b03168152602001866001600160a01b03168152602001846001600160a01b03168152602001856001600160a01b03168152602001836001600160a01b031681526020018a6001600160a01b031681526020018d608001358152602001600015158152509a508a8a600d0160008a6001600160a01b03166001600160a01b0316815260200190815260200160002060008201518160000160006101000a8154816001600160a01b0302191690836001600160a01b0316021790555060208201518160010155604082015181600201908162001c7c919062003998565b5060608201518160030160006101000a8154816001600160a01b0302191690836001600160a01b0316021790555060808201518160040160006101000a8154816001600160a01b0302191690836001600160a01b0316021790555060a08201518160050160006101000a8154816001600160a01b0302191690836001600160a01b0316021790555060c08201518160060160006101000a8154816001600160a01b0302191690836001600160a01b0316021790555060e08201518160070160006101000a8154816001600160a01b0302191690836001600160a01b031602179055506101008201518160080160006101000a8154816001600160a01b0302191690836001600160a01b031602179055506101208201518160090160006101000a8154816001600160a01b0302191690836001600160a01b0316021790555061014082015181600a015561016082015181600b0160006101000a81548160ff02191690831515021790555090505089600c018b90806001815401808255809150506001900390600052602060002090600c020160009091909190915060008201518160000160006101000a8154816001600160a01b0302191690836001600160a01b0316021790555060208201518160010155604082015181600201908162001e65919062003998565b506060828101516003830180546001600160a01b03199081166001600160a01b0393841617909155608080860151600486018054841691851691909117905560a080870151600587018054851691861691909117905560c080880151600688018054861691871691909117905560e0808901516007890180548716918816919091179055610100890151600889018054871691881691909117905561012089015160098901805490961690871617909455610140880151600a88015561016090970151600b909601805460ff191696151596909617909555604080518f851681528d851660208201528c8516918101919091528a841694810194909452888316908401528d8216938301939093528516928101929092527f3163bceb365c85326c53476ceb0b49cfacb67f6d675e6eeb739c58ceb8b20bb6910160405180910390a150505050505050505050919050565b7f9016d09d72d40fdae2fd8ceac6b6234c7706214fd39c1cd1e609a0528c199300546001600160a01b031690565b7ff0c57e16840df040f15088dc2f81fe391c3923bec73e23a9662efc9c229c6a008054600160401b810460ff1615906001600160401b03166000811580156200202a5750825b90506000826001600160401b03166001148015620020475750303b155b90508115801562002056575080155b15620020755760405163f92ee8a960e01b815260040160405180910390fd5b845467ffffffffffffffff191660011785558315620020a057845460ff60401b1916600160401b1785555b620020ab3362002e21565b6000620020b762002653565b9050620020c860208801886200307e565b81546001600160a01b0319166001600160a01b0391909116178155620020f560408801602089016200307e565b6001820180546001600160a01b0319166001600160a01b03929092169190911790556200212960608801604089016200307e565b6002820180546001600160a01b0319166001600160a01b03929092169190911790556200215d60e0880160c089016200307e565b6003820180546001600160a01b0319166001600160a01b03929092169190911790556200219160808801606089016200307e565b6004820180546001600160a01b0319166001600160a01b0392909216919091179055620021c560a08801608089016200307e565b6005820180546001600160a01b0319166001600160a01b0392909216919091179055620021fa610100880160e089016200307e565b6006820180546001600160a01b0319166001600160a01b03929092169190911790556200222e60c0880160a089016200307e565b6007820180546001600160a01b0319166001600160a01b039290921691909117905562002264610120880161010089016200307e565b6008820180546001600160a01b0319166001600160a01b03929092169190911790556200229a610140880161012089016200307e565b60099190910180546001600160a01b0319166001600160a01b0390921691909117905583156200230457845460ff60401b19168555604051600181527fc7f505b2f371ae2175ee4913f4499e1f2633a7b5936321eed1cdaeb6115181d29060200160405180910390a15b505050505050565b6200231662002b1e565b601e815111156200235d5760405162461bcd60e51b815260206004820152601060248201526f06d6178206167656e74732069732033360841b60448201526064016200041a565b60006200236962002653565b905060005b8251811015620024285760006001600160a01b031683828151811062002398576200239862003422565b60200260200101516001600160a01b031603620023c95760405162461bcd60e51b81526004016200041a90620034d9565b81600a01838281518110620023e257620023e262003422565b60209081029190910181015182546001808201855560009485529290932090920180546001600160a01b0319166001600160a01b0390931692909217909155016200236e565b507f841421fc38b9d27338042dbea7f73d4c58c28c36fc74c5a5aa3d363043e76fae826040516200245a919062003007565b60405180910390a15050565b606060006200247462002653565b600c810180546040805160208084028201810190925282815293945060009084015b82821015620026045760008481526020908190206040805161018081018252600c860290920180546001600160a01b0316835260018101549383019390935260028301805492939291840191620024ed906200344f565b80601f01602080910402602001604051908101604052809291908181526020018280546200251b906200344f565b80156200256c5780601f1062002540576101008083540402835291602001916200256c565b820191906000526020600020905b8154815290600101906020018083116200254e57829003601f168201915b505050918352505060038201546001600160a01b039081166020808401919091526004840154821660408401526005840154821660608401526006840154821660808401526007840154821660a08401526008840154821660c0840152600984015490911660e0830152600a830154610100830152600b9092015460ff16151561012090910152908252600192909201910162002496565b5050505091505090565b6200261862002b1e565b6001600160a01b03811662002645576000604051631e4fbdf760e01b81526004016200041a91906200309e565b620026508162002b55565b50565b7f0f40dde8b99b0722537b774c6ef775b5e5a0af035d95bf9802cd87411f806f0090565b600080600062002688858562002e36565b6040516001600160601b0319606084811b8216602084015283901b1660348201529193509150869060480160405160208183030381529060405280519060200120604051602001620027279291906001600160f81b0319815260609290921b6001600160601b031916600183015260158201527fdea1222ed22817f96ed20157be156c80808da15c079040548d4487a79708fe8e603582015260550190565b60408051601f1981840301815291905280516020909101209695505050505050565b60006200275562002653565b905060008160040160009054906101000a90046001600160a01b031690506000846001600160a01b031663134e18f46040518163ffffffff1660e01b8152600401602060405180830381865afa158015620027b4573d6000803e3d6000fd5b505050506040513d601f19601f82011682018060405250810190620027da919062003402565b905060005b845181101562002b15576000836001600160a01b03166378e751a66040518163ffffffff1660e01b8152600401602060405180830381865afa1580156200282a573d6000803e3d6000fd5b505050506040513d601f19601f8201168201806040525081019062002850919062003402565b6001600160a01b0316632fea7b8187848151811062002873576200287362003422565b60200260200101516040518263ffffffff1660e01b81526004016200289991906200309e565b602060405180830381865afa158015620028b7573d6000803e3d6000fd5b505050506040513d601f19601f82011682018060405250810190620028dd919062003402565b90506103486001600160a01b0382166200298457846001600160a01b0316633e8e6e8b88858151811062002915576200291562003422565b60200260200101516040518263ffffffff1660e01b81526004016200293b91906200309e565b6020604051808303816000875af11580156200295b573d6000803e3d6000fd5b505050506040513d601f19601f8201168201806040525081019062002981919062003402565b91505b60006001600160a01b0316846001600160a01b031663f0eb5e54898681518110620029b357620029b362003422565b60200260200101516040518263ffffffff1660e01b8152600401620029d991906200309e565b602060405180830381865afa158015620029f7573d6000803e3d6000fd5b505050506040513d601f19601f8201168201806040525081019062002a1d919062003402565b6001600160a01b03160362002b0a57836001600160a01b031663454a03e088858151811062002a505762002a5062003422565b602002602001015184846040518463ffffffff1660e01b815260040162002a7a9392919062003485565b600060405180830381600087803b15801562002a9557600080fd5b505af115801562002aaa573d6000803e3d6000fd5b505050507f6680dc6d23915f02197cb4ac29f4b00443a14ca1cbe22d6b93045c32b98a82378988858151811062002ae55762002ae562003422565b6020026020010151848460405162002b019493929190620034ac565b60405180910390a15b5050600101620027df565b50505050505050565b3362002b2962001fb6565b6001600160a01b03161462001241573360405163118cdaa760e01b81526004016200041a91906200309e565b7f9016d09d72d40fdae2fd8ceac6b6234c7706214fd39c1cd1e609a0528c19930080546001600160a01b031981166001600160a01b03848116918217845560405192169182907f8be0079c531659141344cd1fd0a4f28419497f9722a3daafe3b4186f6b6457e090600090a3505050565b6060600062002bd462002653565b600a81015490915060009062002bec90600262003a64565b6001600160401b0381111562002c065762002c06620032b2565b60405190808252806020026020018201604052801562002c30578160200160208202803683370190505b50905060005b600a83015481101562002caf5782600a01818154811062002c5b5762002c5b62003422565b9060005260206000200160009054906101000a90046001600160a01b031682828151811062002c8e5762002c8e62003422565b6001600160a01b039092166020928302919091019091015260010162002c36565b5030816001835162002cc291906200351e565b8151811062002cd55762002cd562003422565b60200260200101906001600160a01b031690816001600160a01b03168152505033816002835162002d0791906200351e565b8151811062002d1a5762002d1a62003422565b6001600160a01b039092166020928302919091019091015292915050565b6060600062002d4662002653565b600b81015490915060009062002d5e90600262003a64565b6001600160401b0381111562002d785762002d78620032b2565b60405190808252806020026020018201604052801562002da2578160200160208202803683370190505b50905060005b600b83015481101562002caf5782600b01818154811062002dcd5762002dcd62003422565b9060005260206000200160009054906101000a90046001600160a01b031682828151811062002e005762002e0062003422565b6001600160a01b039092166020928302919091019091015260010162002da8565b62002e2b62002f33565b620026508162002f7d565b600080826001600160a01b0316846001600160a01b03160362002eaa5760405162461bcd60e51b815260206004820152602560248201527f556e697377617056324c6962726172793a204944454e544943414c5f41444452604482015264455353455360d81b60648201526084016200041a565b826001600160a01b0316846001600160a01b03161062002ecc57828462002ecf565b83835b90925090506001600160a01b03821662002f2c5760405162461bcd60e51b815260206004820152601e60248201527f556e697377617056324c6962726172793a205a45524f5f41444452455353000060448201526064016200041a565b9250929050565b7ff0c57e16840df040f15088dc2f81fe391c3923bec73e23a9662efc9c229c6a0054600160401b900460ff166200124157604051631afcd79f60e31b815260040160405180910390fd5b6200261862002f33565b604080516101808101825260008082526020820181905260609282018390529181018290526080810182905260a0810182905260c0810182905260e0810182905261010081018290526101208101829052610140810182905261016081019190915290565b6105bf8062003a7b83390190565b6001600160a01b03169052565b6020808252825182820181905260009190848201906040850190845b818110156200304a5783516001600160a01b03168352928401929184019160010162003023565b50909695505050505050565b6001600160a01b03811681146200265057600080fd5b8035620030798162003056565b919050565b6000602082840312156200309157600080fd5b813562000b4d8162003056565b6001600160a01b0391909116815260200190565b600080600060608486031215620030c857600080fd5b8335620030d58162003056565b92506020840135620030e78162003056565b9150604084013561ffff81168114620030ff57600080fd5b809150509250925092565b6000815180845260005b81811015620031325760208185018101518683018201520162003114565b506000602082860101526020601f19601f83011685010191505092915050565b60006101806200316484845162002ffa565b60208301516020850152604083015181604086015262003187828601826200310a565b91505060608301516200319e606086018262002ffa565b506080830151620031b3608086018262002ffa565b5060a0830151620031c860a086018262002ffa565b5060c0830151620031dd60c086018262002ffa565b5060e0830151620031f260e086018262002ffa565b5061010080840151620032088287018262002ffa565b5050610120808401516200321f8287018262002ffa565b5050610140838101519085015261016080840151801515828701525b5090949350505050565b60208152600062000b4d602083018462003152565b6000602082840312156200326d57600080fd5b81356001600160401b038111156200328457600080fd5b8201610220818503121562000b4d57600080fd5b60006101408284031215620032ac57600080fd5b50919050565b634e487b7160e01b600052604160045260246000fd5b60006020808385031215620032dc57600080fd5b82356001600160401b0380821115620032f457600080fd5b818501915085601f8301126200330957600080fd5b8135818111156200331e576200331e620032b2565b8060051b604051601f19603f83011681018181108582111715620033465762003346620032b2565b6040529182528482019250838101850191888311156200336557600080fd5b938501935b828510156200338e576200337e856200306c565b845293850193928501926200336a565b98975050505050505050565b600060208083016020845280855180835260408601915060408160051b87010192506020870160005b82811015620033f557603f19888603018452620033e285835162003152565b94509285019290850190600101620033c3565b5092979650505050505050565b6000602082840312156200341557600080fd5b815162000b4d8162003056565b634e487b7160e01b600052603260045260246000fd5b9182526001600160a01b0316602082015260400190565b600181811c908216806200346457607f821691505b602082108103620032ac57634e487b7160e01b600052602260045260246000fd5b6001600160a01b03938416815291909216602082015261ffff909116604082015260600190565b6001600160a01b03948516815292841660208401529216604082015261ffff909116606082015260800190565b602080825260159082015274496e76616c6964206167656e74206164647265737360581b604082015260600190565b634e487b7160e01b600052601160045260246000fd5b8181038181111562003534576200353462003508565b92915050565b634e487b7160e01b600052603160045260246000fd5b6001600160a01b0383168152604060208201819052600090620003a6908301846200310a565b6000808335601e198436030181126200358e57600080fd5b8301803591506001600160401b03821115620035a957600080fd5b60200191503681900382131562002f2c57600080fd5b600060208284031215620035d257600080fd5b813560ff8116811462000b4d57600080fd5b60008151808452602080850194506020840160005b83811015620036205781516001600160a01b031687529582019590820190600101620035f9565b509495945050505050565b602080825282516001600160a01b03168282015282015160009062003654604084018262002ffa565b50604083015160e06060840152620036716101008401826200310a565b90506060840151601f19808584030160808601526200369183836200310a565b925060808601519150620036aa60a086018360ff169052565b60a08601519150808584030160c0860152620036c78383620035e4565b925060c08601519150808584030160e086015250620036e78282620035e4565b95945050505050565b6000602082840312156200370357600080fd5b813563ffffffff8116811462000b4d57600080fd5b602081526200372c60208201835162002ffa565b600060208301516101408060408501526200374c6101608501836200310a565b91506040850151601f198584030160608601526200376b83826200310a565b925050606085015162003782608086018262002ffa565b5060808501516200379760a086018262002ffa565b5060a085015160c085015260c0850151620037b660e086018262002ffa565b5060e0850151610100620037cd8187018362002ffa565b8601519050610120620037e78682018363ffffffff169052565b86015163ffffffff81168387015290506200323b565b60208152600060018060a01b03808451166020840152806020850151166040840152604084015160c060608501526200383a60e08501826200310a565b90508160608601511660808501528160808601511660a08501528160a08601511660c0850152809250505092915050565b60208152600060018060a01b03808451166020840152806020850151166040840152806040850151166060840152606084015160c06080850152620038b460e08501826200310a565b90506080850151601f198583030160a0860152620038d382826200310a565b9150508160a08601511660c0850152809250505092915050565b6001600160a01b03841681526040602082018190528101829052818360608301376000818301606090810191909152601f909201601f1916010192915050565b6000602082840312156200394057600080fd5b5051919050565b601f82111562003993576000816000526020600020601f850160051c81016020861015620039725750805b601f850160051c820191505b8181101562002304578281556001016200397e565b505050565b81516001600160401b03811115620039b457620039b4620032b2565b620039cc81620039c584546200344f565b8462003947565b602080601f83116001811462003a045760008415620039eb5750858301515b600019600386901b1c1916600185901b17855562002304565b600085815260208120601f198616915b8281101562003a355788860151825594840194600190910190840162003a14565b508582101562003a545787850151600019600388901b60f8161c191681555b5050505050600190811b01905550565b808201808211156200353457620035346200350856fe60a06040526040516105bf3803806105bf83398101604081905261002291610387565b61002c828261003e565b506001600160a01b031660805261047e565b610047826100fe565b6040516001600160a01b038316907f1cf3b03a6cf19fa2baba4df148e9dcabedea7f8a5c07840e207e5c089be95d3e90600090a28051156100f2576100ed826001600160a01b0316635c60da1b6040518163ffffffff1660e01b8152600401602060405180830381865afa1580156100c3573d6000803e3d6000fd5b505050506040513d601f19601f820116820180604052508101906100e79190610447565b82610211565b505050565b6100fa610288565b5050565b806001600160a01b03163b60000361013957604051631933b43b60e21b81526001600160a01b03821660048201526024015b60405180910390fd5b807fa3f0ad74e5423aebfd80d3ef4346578335a9a72aeaee59ff6cb3582b35133d5080546001600160a01b0319166001600160a01b0392831617905560408051635c60da1b60e01b81529051600092841691635c60da1b9160048083019260209291908290030181865afa1580156101b5573d6000803e3d6000fd5b505050506040513d601f19601f820116820180604052508101906101d99190610447565b9050806001600160a01b03163b6000036100fa57604051634c9c8ce360e01b81526001600160a01b0382166004820152602401610130565b6060600080846001600160a01b03168460405161022e9190610462565b600060405180830381855af49150503d8060008114610269576040519150601f19603f3d011682016040523d82523d6000602084013e61026e565b606091505b50909250905061027f8583836102a9565b95945050505050565b34156102a75760405163b398979f60e01b815260040160405180910390fd5b565b6060826102be576102b982610308565b610301565b81511580156102d557506001600160a01b0384163b155b156102fe57604051639996b31560e01b81526001600160a01b0385166004820152602401610130565b50805b9392505050565b8051156103185780518082602001fd5b604051630a12f52160e11b815260040160405180910390fd5b80516001600160a01b038116811461034857600080fd5b919050565b634e487b7160e01b600052604160045260246000fd5b60005b8381101561037e578181015183820152602001610366565b50506000910152565b6000806040838503121561039a57600080fd5b6103a383610331565b60208401519092506001600160401b03808211156103c057600080fd5b818501915085601f8301126103d457600080fd5b8151818111156103e6576103e661034d565b604051601f8201601f19908116603f0116810190838211818310171561040e5761040e61034d565b8160405282815288602084870101111561042757600080fd5b610438836020830160208801610363565b80955050505050509250929050565b60006020828403121561045957600080fd5b61030182610331565b60008251610474818460208701610363565b9190910192915050565b6080516101276104986000396000601e01526101276000f3fe6080604052600a600c565b005b60186014601a565b60a0565b565b60007f00000000000000000000000000000000000000000000000000000000000000006001600160a01b0316635c60da1b6040518163ffffffff1660e01b8152600401602060405180830381865afa1580156079573d6000803e3d6000fd5b505050506040513d601f19601f82011682018060405250810190609b919060c3565b905090565b3660008037600080366000845af43d6000803e80801560be573d6000f35b3d6000fd5b60006020828403121560d457600080fd5b81516001600160a01b038116811460ea57600080fd5b939250505056fea26469706673582212205c8a2fcdc6f79c1d43b849e2b03f494652cee222b2ec86046b7caaa1405f985f64736f6c63430008180033a26469706673582212200510175db91d29f3fee526da83a1903713b89111bb9e3dbbb16c905b197c102c64736f6c63430008180033",
  "linkReferences": {
    "contracts/buildings/library/BuildingAutoCompounder.sol": {
      "BuildingAutoCompounderLib": [
        {
          "length": 20,
          "start": 6347
        }
      ]
    },
    "contracts/buildings/library/BuildingGovernance.sol": {
      "BuildingGovernanceLib": [
        {
          "length": 20,
          "start": 6101
        }
      ]
    },
    "contracts/buildings/library/BuildingToken.sol": {
      "BuildingTokenLib": [
        {
          "length": 20,
          "start": 4968
        }
      ]
    },
    "contracts/buildings/library/BuildingTreasury.sol": {
      "BuildingTreasuryLib": [
        {
          "length": 20,
          "start": 5403
        }
      ]
    },
    "contracts/buildings/library/BuildingVault.sol": {
      "BuildingVaultLib": [
        {
          "length": 20,
          "start": 5603
        }
      ]
    }
  },
  "deployedLinkReferences": {
    "contracts/buildings/library/BuildingAutoCompounder.sol": {
      "BuildingAutoCompounderLib": [
        {
          "length": 20,
          "start": 6117
        }
      ]
    },
    "contracts/buildings/library/BuildingGovernance.sol": {
      "BuildingGovernanceLib": [
        {
          "length": 20,
          "start": 5871
        }
      ]
    },
    "contracts/buildings/library/BuildingToken.sol": {
      "BuildingTokenLib": [
        {
          "length": 20,
          "start": 4738
        }
      ]
    },
    "contracts/buildings/library/BuildingTreasury.sol": {
      "BuildingTreasuryLib": [
        {
          "length": 20,
          "start": 5173
        }
      ]
    },
    "contracts/buildings/library/BuildingVault.sol": {
      "BuildingVaultLib": [
        {
          "length": 20,
          "start": 5373
        }
      ]
    }
  }
}