{
  "_format": "hh-sol-artifact-1",
  "contractName": "BuildingFactoryMock",
  "sourceName": "contracts/buildings/mock/BuildingFactoryMock.sol",
  "abi": [
    {
      "inputs": [],
      "name": "InvalidInitialization",
      "type": "error"
    },
    {
      "inputs": [],
      "name": "NotInitializing",
      "type": "error"
    },
    {
      "anonymous": false,
      "inputs": [
        {
          "indexed": false,
          "internalType": "address",
          "name": "building",
          "type": "address"
        },
        {
          "indexed": false,
          "internalType": "address",
          "name": "module",
          "type": "address"
        }
      ],
      "name": "ComplianceModuleAdded",
      "type": "event"
    },
    {
      "anonymous": false,
      "inputs": [
        {
          "indexed": false,
          "internalType": "address",
          "name": "building",
          "type": "address"
        },
        {
          "indexed": false,
          "internalType": "address",
          "name": "wallet",
          "type": "address"
        },
        {
          "indexed": false,
          "internalType": "address",
          "name": "identity",
          "type": "address"
        },
        {
          "indexed": false,
          "internalType": "uint16",
          "name": "country",
          "type": "uint16"
        }
      ],
      "name": "IdentityRegistered",
      "type": "event"
    },
    {
      "anonymous": false,
      "inputs": [
        {
          "indexed": false,
          "internalType": "uint64",
          "name": "version",
          "type": "uint64"
        }
      ],
      "name": "Initialized",
      "type": "event"
    },
    {
      "anonymous": false,
      "inputs": [
        {
          "indexed": false,
          "internalType": "address",
          "name": "buildingAddress",
          "type": "address"
        },
        {
          "indexed": false,
          "internalType": "address",
          "name": "erc3643Token",
          "type": "address"
        },
        {
          "indexed": false,
          "internalType": "address",
          "name": "treasury",
          "type": "address"
        },
        {
          "indexed": false,
          "internalType": "address",
          "name": "vault",
          "type": "address"
        },
        {
          "indexed": false,
          "internalType": "address",
          "name": "governance",
          "type": "address"
        },
        {
          "indexed": false,
          "internalType": "address",
          "name": "initialOwner",
          "type": "address"
        },
        {
          "indexed": false,
          "internalType": "address",
          "name": "autoCompounder",
          "type": "address"
        }
      ],
      "name": "NewBuilding",
      "type": "event"
    },
    {
      "inputs": [
        {
          "internalType": "address",
          "name": "wallet",
          "type": "address"
        }
      ],
      "name": "deployIdentityForWallet",
      "outputs": [
        {
          "internalType": "address",
          "name": "",
          "type": "address"
        }
      ],
      "stateMutability": "nonpayable",
      "type": "function"
    },
    {
      "inputs": [
        {
          "internalType": "address",
          "name": "buildingAddress",
          "type": "address"
        }
      ],
      "name": "getBuildingDetails",
      "outputs": [
        {
          "components": [
            {
              "internalType": "address",
              "name": "addr",
              "type": "address"
            },
            {
              "internalType": "uint256",
              "name": "nftId",
              "type": "uint256"
            },
            {
              "internalType": "string",
              "name": "tokenURI",
              "type": "string"
            },
            {
              "internalType": "address",
              "name": "identity",
              "type": "address"
            },
            {
              "internalType": "address",
              "name": "erc3643Token",
              "type": "address"
            },
            {
              "internalType": "address",
              "name": "treasury",
              "type": "address"
            },
            {
              "internalType": "address",
              "name": "governance",
              "type": "address"
            },
            {
              "internalType": "address",
              "name": "vault",
              "type": "address"
            },
            {
              "internalType": "address",
              "name": "autoCompounder",
              "type": "address"
            }
          ],
          "internalType": "struct BuildingFactoryStorage.BuildingDetails",
          "name": "",
          "type": "tuple"
        }
      ],
      "stateMutability": "view",
      "type": "function"
    },
    {
      "inputs": [],
      "name": "getBuildingList",
      "outputs": [
        {
          "components": [
            {
              "internalType": "address",
              "name": "addr",
              "type": "address"
            },
            {
              "internalType": "uint256",
              "name": "nftId",
              "type": "uint256"
            },
            {
              "internalType": "string",
              "name": "tokenURI",
              "type": "string"
            },
            {
              "internalType": "address",
              "name": "identity",
              "type": "address"
            },
            {
              "internalType": "address",
              "name": "erc3643Token",
              "type": "address"
            },
            {
              "internalType": "address",
              "name": "treasury",
              "type": "address"
            },
            {
              "internalType": "address",
              "name": "governance",
              "type": "address"
            },
            {
              "internalType": "address",
              "name": "vault",
              "type": "address"
            },
            {
              "internalType": "address",
              "name": "autoCompounder",
              "type": "address"
            }
          ],
          "internalType": "struct BuildingFactoryStorage.BuildingDetails[]",
          "name": "",
          "type": "tuple[]"
        }
      ],
      "stateMutability": "view",
      "type": "function"
    },
    {
      "inputs": [
        {
          "internalType": "address",
          "name": "wallet",
          "type": "address"
        }
      ],
      "name": "getIdentity",
      "outputs": [
        {
          "internalType": "contract IIdentity",
          "name": "",
          "type": "address"
        }
      ],
      "stateMutability": "view",
      "type": "function"
    },
    {
      "inputs": [
        {
          "internalType": "address",
          "name": "_nft",
          "type": "address"
        },
        {
          "internalType": "address",
          "name": "_uniswapRouter",
          "type": "address"
        },
        {
          "internalType": "address",
          "name": "_uniswapFactory",
          "type": "address"
        },
        {
          "internalType": "address",
          "name": "_onchainIdGateway",
          "type": "address"
        },
        {
          "internalType": "address",
          "name": "_trexGateway",
          "type": "address"
        },
        {
          "internalType": "address",
          "name": "_usdc",
          "type": "address"
        },
        {
          "internalType": "address",
          "name": "_buildingBeacon",
          "type": "address"
        },
        {
          "internalType": "address",
          "name": "_treasuryBeacon",
          "type": "address"
        },
        {
          "internalType": "address",
          "name": "_governanceBeacon",
          "type": "address"
        }
      ],
      "name": "initialize",
      "outputs": [],
      "stateMutability": "nonpayable",
      "type": "function"
    },
    {
      "inputs": [
        {
          "components": [
            {
              "internalType": "string",
              "name": "tokenURI",
              "type": "string"
            },
            {
              "internalType": "string",
              "name": "tokenName",
              "type": "string"
            },
            {
              "internalType": "string",
              "name": "tokenSymbol",
              "type": "string"
            },
            {
              "internalType": "uint8",
              "name": "tokenDecimals",
              "type": "uint8"
            },
            {
              "internalType": "uint256",
              "name": "tokenMintAmount",
              "type": "uint256"
            },
            {
              "internalType": "uint256",
              "name": "treasuryReserveAmount",
              "type": "uint256"
            },
            {
              "internalType": "uint256",
              "name": "treasuryNPercent",
              "type": "uint256"
            },
            {
              "internalType": "string",
              "name": "governanceName",
              "type": "string"
            },
            {
              "internalType": "string",
              "name": "vaultShareTokenName",
              "type": "string"
            },
            {
              "internalType": "string",
              "name": "vaultShareTokenSymbol",
              "type": "string"
            },
            {
              "internalType": "address",
              "name": "vaultFeeReceiver",
              "type": "address"
            },
            {
              "internalType": "address",
              "name": "vaultFeeToken",
              "type": "address"
            },
            {
              "internalType": "uint256",
              "name": "vaultFeePercentage",
              "type": "uint256"
            },
            {
              "internalType": "uint32",
              "name": "vaultCliff",
              "type": "uint32"
            },
            {
              "internalType": "uint32",
              "name": "vaultUnlockDuration",
              "type": "uint32"
            },
            {
              "internalType": "string",
              "name": "aTokenName",
              "type": "string"
            },
            {
              "internalType": "string",
              "name": "aTokenSymbol",
              "type": "string"
            }
          ],
          "internalType": "struct BuildingFactoryStorage.NewBuildingDetails",
          "name": "details",
          "type": "tuple"
        }
      ],
      "name": "newBuilding",
      "outputs": [
        {
          "components": [
            {
              "internalType": "address",
              "name": "addr",
              "type": "address"
            },
            {
              "internalType": "uint256",
              "name": "nftId",
              "type": "uint256"
            },
            {
              "internalType": "string",
              "name": "tokenURI",
              "type": "string"
            },
            {
              "internalType": "address",
              "name": "identity",
              "type": "address"
            },
            {
              "internalType": "address",
              "name": "erc3643Token",
              "type": "address"
            },
            {
              "internalType": "address",
              "name": "treasury",
              "type": "address"
            },
            {
              "internalType": "address",
              "name": "governance",
              "type": "address"
            },
            {
              "internalType": "address",
              "name": "vault",
              "type": "address"
            },
            {
              "internalType": "address",
              "name": "autoCompounder",
              "type": "address"
            }
          ],
          "internalType": "struct BuildingFactoryStorage.BuildingDetails",
          "name": "buildingDetails",
          "type": "tuple"
        }
      ],
      "stateMutability": "nonpayable",
      "type": "function"
    },
    {
      "inputs": [
        {
          "internalType": "address",
          "name": "buildingAddress",
          "type": "address"
        },
        {
          "internalType": "address",
          "name": "wallet",
          "type": "address"
        },
        {
          "internalType": "uint16",
          "name": "country",
          "type": "uint16"
        }
      ],
      "name": "registerIdentity",
      "outputs": [],
      "stateMutability": "nonpayable",
      "type": "function"
    },
    {
      "inputs": [],
      "name": "version",
      "outputs": [
        {
          "internalType": "string",
          "name": "",
          "type": "string"
        }
      ],
      "stateMutability": "pure",
      "type": "function"
    }
  ],
  "bytecode": "0x60806040523480156200001157600080fd5b506200001c62000022565b620000d6565b7ff0c57e16840df040f15088dc2f81fe391c3923bec73e23a9662efc9c229c6a00805468010000000000000000900460ff1615620000735760405163f92ee8a960e01b815260040160405180910390fd5b80546001600160401b0390811614620000d35780546001600160401b0319166001600160401b0390811782556040519081527fc7f505b2f371ae2175ee4913f4499e1f2633a7b5936321eed1cdaeb6115181d29060200160405180910390a15b50565b612fdd80620000e66000396000f3fe60806040523480156200001157600080fd5b5060043610620000825760003560e01c80632fea7b8114620000875780633e8e6e8b14620000b6578063454a03e014620000cd57806354fd4d5014620000e6578063665fa4a1146200010d578063899a0ebe1462000133578063db652ec8146200014a578063f5e95acb1462000163575b600080fd5b6200009e620000983660046200214f565b6200017a565b604051620000ad91906200216f565b60405180910390f35b6200009e620000c73660046200214f565b62000284565b620000e4620000de36600462002190565b62000312565b005b60408051808201825260038152620322e360ec1b60208201529051620000ad919062002230565b620001246200011e3660046200214f565b620006ba565b604051620000ad919062002304565b620001246200014436600462002319565b6200080a565b6200015462000825565b604051620000ad919062002357565b620000e462000174366004620023bf565b620009a4565b6000806200018762000acb565b905060008160040160009054906101000a90046001600160a01b03166001600160a01b03166378e751a66040518163ffffffff1660e01b8152600401602060405180830381865afa158015620001e1573d6000803e3d6000fd5b505050506040513d601f19601f820116820180604052508101906200020791906200248e565b604051632fea7b8160e01b81529091506001600160a01b03821690632fea7b8190620002389087906004016200216f565b602060405180830381865afa15801562000256573d6000803e3d6000fd5b505050506040513d601f19601f820116820180604052508101906200027c91906200248e565b949350505050565b6000806200029162000acb565b600480820154604051633e8e6e8b60e01b81529293506001600160a01b031691633e8e6e8b91620002c5918791016200216f565b6020604051808303816000875af1158015620002e5573d6000803e3d6000fd5b505050506040513d601f19601f820116820180604052508101906200030b91906200248e565b9392505050565b60006200031e62000acb565b6001600160a01b038086166000908152600a8301602090815260408083208151610120810183528154909516855260018101549285019290925260028201805495965092949192908401916200037490620024ae565b80601f0160208091040260200160405190810160405280929190818152602001828054620003a290620024ae565b8015620003f35780601f10620003c757610100808354040283529160200191620003f3565b820191906000526020600020905b815481529060010190602001808311620003d557829003601f168201915b505050918352505060038201546001600160a01b039081166020808401919091526004808501548316604080860191909152600586015484166060860152600686015484166080808701919091526007870154851660a0870152600890960154841660c09095019490945293850151878501548451633c73a8d360e11b81529451969750909560009591909316936378e751a693818301939290918290030181865afa158015620004a8573d6000803e3d6000fd5b505050506040513d601f19601f82011682018060405250810190620004ce91906200248e565b90506000826001600160a01b031663134e18f46040518163ffffffff1660e01b8152600401602060405180830381865afa15801562000511573d6000803e3d6000fd5b505050506040513d601f19601f820116820180604052508101906200053791906200248e565b90506000826001600160a01b0316632fea7b81896040518263ffffffff1660e01b81526004016200056991906200216f565b602060405180830381865afa15801562000587573d6000803e3d6000fd5b505050506040513d601f19601f82011682018060405250810190620005ad91906200248e565b90506001600160a01b0381166200060a5760405162461bcd60e51b815260206004820152601d60248201527f4964656e7469747920666f722077616c6c6574206e6f7420666f756e64000000604482015260640160405180910390fd5b60405163022a501f60e51b81526001600160a01b0383169063454a03e0906200063c908b9085908c90600401620024ea565b600060405180830381600087803b1580156200065757600080fd5b505af11580156200066c573d6000803e3d6000fd5b505050507f6680dc6d23915f02197cb4ac29f4b00443a14ca1cbe22d6b93045c32b98a82378989838a604051620006a7949392919062002511565b60405180910390a1505050505050505050565b620006c4620020db565b6000620006d062000acb565b6001600160a01b038085166000908152600a83016020908152604091829020825161012081018452815490941684526001810154918401919091526002810180549495509293909291840191906200072890620024ae565b80601f01602080910402602001604051908101604052809291908181526020018280546200075690620024ae565b8015620007a75780601f106200077b57610100808354040283529160200191620007a7565b820191906000526020600020905b8154815290600101906020018083116200078957829003601f168201915b505050918352505060038201546001600160a01b0390811660208301526004830154811660408301526005830154811660608301526006830154811660808301526007830154811660a083015260089092015490911660c0909101529392505050565b62000814620020db565b6200081f8262000aef565b92915050565b606060006200083362000acb565b6009810180546040805160208084028201810190925282815293945060009084015b828210156200099a57600084815260209081902060408051610120810182526009860290920180546001600160a01b0316835260018101549383019390935260028301805492939291840191620008ac90620024ae565b80601f0160208091040260200160405190810160405280929190818152602001828054620008da90620024ae565b80156200092b5780601f10620008ff576101008083540402835291602001916200092b565b820191906000526020600020905b8154815290600101906020018083116200090d57829003601f168201915b505050918352505060038201546001600160a01b039081166020808401919091526004840154821660408401526005840154821660608401526006840154821660808401526007840154821660a08401526008909301541660c090910152908252600192909201910162000855565b5050505091505090565b7ff0c57e16840df040f15088dc2f81fe391c3923bec73e23a9662efc9c229c6a008054600160401b810460ff1615906001600160401b0316600081158015620009ea5750825b90506000826001600160401b0316600114801562000a075750303b155b90508115801562000a16575080155b1562000a355760405163f92ee8a960e01b815260040160405180910390fd5b845467ffffffffffffffff19166001178555831562000a6057845460ff60401b1916600160401b1785555b62000a738e8e8e8e8e8e8e8e8e62001d07565b831562000abb57845460ff60401b19168555604051600181527fc7f505b2f371ae2175ee4913f4499e1f2633a7b5936321eed1cdaeb6115181d2906020015b60405180910390a15b5050505050505050505050505050565b7f0f40dde8b99b0722537b774c6ef775b5e5a0af035d95bf9802cd87411f806f0090565b62000af9620020db565b600062000b0562000acb565b604080516101408101825260006020808301829052828401829052606083018290526080830182905260a0830182905260c0830182905260e083018290526101008301919091523380835260018501546001600160a01b039081166101208501819052600387015460028801548751602481019390935283166044830152606480830194909452865180830390940184526084909101865292820180516001600160e01b031663c0c53b8b60e01b1790529351949550919392169162000bcb9062002128565b62000bd89291906200253e565b604051809103906000f08015801562000bf5573d6000803e3d6000fd5b506001600160a01b039081166020808401919091526040805160a08101825284518416815260058601549093168383015273__$6bcf1faf5c0920414dc51cd0daeb07e0f7$__92633af9cf1e92909182019062000c559089018962002564565b8080601f01602080910402602001604051908101604052809392919081815260200183838082843760009201919091525050509082525060200162000c9e604089018962002564565b8080601f01602080910402602001604051908101604052809392919081815260200183838082843760009201919091525050509082525060200162000cea6080890160608a01620025b4565b60ff168152506040518263ffffffff1660e01b815260040162000d0e9190620025d9565b602060405180830381865af415801562000d2c573d6000803e3d6000fd5b505050506040513d601f19601f8201168201806040525081019062000d5291906200248e565b6001600160a01b039081166080838101919091526040805160e081018252600686015484168152845184166020820190815260a08981013583850190815260c0808c0135606086019081528951891697860197885260078b0154891693860193845230918601918252955163af15b96960e01b8152945188166004860152925187166024850152516044840152925160648301529251841660848201529051831660a4820152905190911660c482015273__$6dd86c1de004dc2dd48a17c9065be1de70$__9063af15b9699060e401602060405180830381865af415801562000e3f573d6000803e3d6000fd5b505050506040513d601f19601f8201168201806040525081019062000e6591906200248e565b6001600160a01b0390811660a08301526040805161014081019091526080830151909116815273__$e6502af67ab2c746a64bc3775a7b8857c1$__9063cd6856ef906020810162000ebb61010089018962002564565b8080601f01602080910402602001604051908101604052809392919081815260200183838082843760009201919091525050509082525060200162000f0561012089018962002564565b8080601f01602080910402602001604051908101604052809392919081815260200183838082843760009201919091525050509082525060200162000f5361016089016101408a016200214f565b6001600160a01b0316815260200162000f7561018089016101608a016200214f565b6001600160a01b0390811682526101808901356020830152855181166040830152855116606082015260800162000fb56101c089016101a08a0162002650565b63ffffffff16815260200162000fd46101e089016101c08a0162002650565b63ffffffff168152506040518263ffffffff1660e01b815260040162000ffb919062002678565b602060405180830381865af415801562001019573d6000803e3d6000fd5b505050506040513d601f19601f820116820180604052508101906200103f91906200248e565b6001600160a01b0390811660c08301526040805160a0810182526008850154831681526080840151909216602083015273__$9b19b7f7ded493586f11dad0d7ebc9ca26$__9163d88d81109181016200109c60e089018962002564565b8080601f01602080910402602001604051908101604052809392919081815260200183838082843760009201919091525050509082525060a08501516001600160a01b039081166020830152855116604091820152516001600160e01b031960e084901b1681526200111291906004016200275d565b602060405180830381865af415801562001130573d6000803e3d6000fd5b505050506040513d601f19601f820116820180604052508101906200115691906200248e565b6001600160a01b0390811660e08301526040805160c080820183526001860154841682528401518316602082015260078501549092169082015273__$3080f05ed92e5505050a1e3d528e8c5fcb$__9063ea5fb3369060608101620011c06101e089018962002564565b8080601f0160208091040260200160405190810160405280939291908181526020018383808284376000920191909152505050908252506020016200120a61020089018962002564565b8080601f01602080910402602001604051908101604052809392919081815260200183838082843760009201919091525050509082525084516001600160a01b03166020909101526040516001600160e01b031960e084901b168152620012759190600401620027bf565b602060405180830381865af415801562001293573d6000803e3d6000fd5b505050506040513d601f19601f82011682018060405250810190620012b991906200248e565b6001600160a01b039081166101008301526004808401546080840151604080516304d3863d60e21b815290519285169460009492169263134e18f4928281019260209291908290030181865afa15801562001318573d6000803e3d6000fd5b505050506040513d601f19601f820116820180604052508101906200133e91906200248e565b905060006200134d8462001f87565b905060005b81518110156200168c576000846001600160a01b03166378e751a66040518163ffffffff1660e01b8152600401602060405180830381865afa1580156200139d573d6000803e3d6000fd5b505050506040513d601f19601f82011682018060405250810190620013c391906200248e565b6001600160a01b0316632fea7b81848481518110620013e657620013e662002841565b60200260200101516040518263ffffffff1660e01b81526004016200140c91906200216f565b602060405180830381865afa1580156200142a573d6000803e3d6000fd5b505050506040513d601f19601f820116820180604052508101906200145091906200248e565b90506103486001600160a01b038216620014f757856001600160a01b0316633e8e6e8b85858151811062001488576200148862002841565b60200260200101516040518263ffffffff1660e01b8152600401620014ae91906200216f565b6020604051808303816000875af1158015620014ce573d6000803e3d6000fd5b505050506040513d601f19601f82011682018060405250810190620014f491906200248e565b91505b60006001600160a01b0316856001600160a01b031663f0eb5e5486868151811062001526576200152662002841565b60200260200101516040518263ffffffff1660e01b81526004016200154c91906200216f565b602060405180830381865afa1580156200156a573d6000803e3d6000fd5b505050506040513d601f19601f820116820180604052508101906200159091906200248e565b6001600160a01b0316036200168157846001600160a01b031663454a03e0858581518110620015c357620015c362002841565b602002602001015184846040518463ffffffff1660e01b8152600401620015ed93929190620024ea565b600060405180830381600087803b1580156200160857600080fd5b505af11580156200161d573d6000803e3d6000fd5b505050507f6680dc6d23915f02197cb4ac29f4b00443a14ca1cbe22d6b93045c32b98a823787602001518585815181106200165c576200165c62002841565b6020026020010151848460405162001678949392919062002511565b60405180910390a15b505060010162001352565b50845460208501516001600160a01b039091169063d0def52190620016b28a8062002564565b6040518463ffffffff1660e01b8152600401620016d29392919062002857565b6020604051808303816000875af1158015620016f2573d6000803e3d6000fd5b505050506040513d601f19601f8201168201806040525081019062001718919062002897565b8460400181815250508360a001516001600160a01b031663603607008560e001516040518263ffffffff1660e01b81526004016200175791906200216f565b600060405180830381600087803b1580156200177257600080fd5b505af115801562001787573d6000803e3d6000fd5b505050508360a001516001600160a01b031663256b5a028560c001516040518263ffffffff1660e01b8152600401620017c191906200216f565b600060405180830381600087803b158015620017dc57600080fd5b505af1158015620017f1573d6000803e3d6000fd5b5050505060c084015160a0850151604051632f2ff15d60e01b81527f477fc23fb51bb5d5aa814872a393b0e4f35d0916c7503c0fd96584681070d41060048201526001600160a01b039182166024820152911690632f2ff15d90604401600060405180830381600087803b1580156200186957600080fd5b505af11580156200187e573d6000803e3d6000fd5b5050505060c0840151845160405163f2fde38b60e01b81526001600160a01b039092169163f2fde38b91620018b6916004016200216f565b600060405180830381600087803b158015620018d157600080fd5b505af1158015620018e6573d6000803e3d6000fd5b5050505060808481015185516040516340c10f1960e01b81526001600160a01b039182166004820152928a0135602484015216906340c10f1990604401600060405180830381600087803b1580156200193e57600080fd5b505af115801562001953573d6000803e3d6000fd5b50505050610100840151845160405163f2fde38b60e01b81526001600160a01b039092169163f2fde38b916200198c916004016200216f565b600060405180830381600087803b158015620019a757600080fd5b505af1158015620019bc573d6000803e3d6000fd5b505060408051610120810182526020808901516001600160a01b031682528883015190820152925082019050620019f4898062002564565b8080601f01602080910402602001604051908101604052809392919081815260200183838082843760009201829052509385525050506060878101516001600160a01b039081166020808601919091526080808b0151831660408088019190915260a0808d015185169588019590955260e08c015184169187019190915260c0808c01518416948701949094526101008b0151831693909501929092528189015181168352600a8a01825291839020845181546001600160a01b03191693169290921782558301516001820155908201519197508791600282019062001adb90826200291c565b5060608201516003820180546001600160a01b03199081166001600160a01b03938416179091556080840151600484018054831691841691909117905560a0840151600584018054831691841691909117905560c0840151600684018054831691841691909117905560e084015160078401805483169184169190911790556101009093015160089092018054841692821692909217909155600987810180546001818101835560009283526020928390208c51929094029093018054909516931692909217835590880151908201556040870151879190600282019062001bc490826200291c565b5060608201516003820180546001600160a01b039283166001600160a01b03199182161790915560808085015160048501805491851691841691909117905560a08086015160058601805491861691851691909117905560c08087015160068701805491871691861691909117905560e08088015160078801805491881691871691909117905561010097880151600890970180549790961696909416959095179093556020890151908901519289015193890151918901518951958a01516040517f3163bceb365c85326c53476ceb0b49cfacb67f6d675e6eeb739c58ceb8b20bb69762001cf597949695939290916001600160a01b03978816815295871660208701529386166040860152918516606085015284166080840152831660a083015290911660c082015260e00190565b60405180910390a15050505050919050565b7ff0c57e16840df040f15088dc2f81fe391c3923bec73e23a9662efc9c229c6a008054600160401b810460ff1615906001600160401b031660008115801562001d4d5750825b90506000826001600160401b0316600114801562001d6a5750303b155b90508115801562001d79575080155b1562001d985760405163f92ee8a960e01b815260040160405180910390fd5b845467ffffffffffffffff19166001178555831562001dc357845460ff60401b1916600160401b1785555b600062001dcf62000acb565b90508e8160000160006101000a8154816001600160a01b0302191690836001600160a01b031602179055508d8160010160006101000a8154816001600160a01b0302191690836001600160a01b031602179055508c8160020160006101000a8154816001600160a01b0302191690836001600160a01b03160217905550888160030160006101000a8154816001600160a01b0302191690836001600160a01b031602179055508b8160040160006101000a8154816001600160a01b0302191690836001600160a01b031602179055508a8160050160006101000a8154816001600160a01b0302191690836001600160a01b03160217905550878160060160006101000a8154816001600160a01b0302191690836001600160a01b03160217905550898160070160006101000a8154816001600160a01b0302191690836001600160a01b03160217905550868160080160006101000a8154816001600160a01b0302191690836001600160a01b0316021790555050831562000abb57845460ff60401b19168555604051600181527fc7f505b2f371ae2175ee4913f4499e1f2633a7b5936321eed1cdaeb6115181d29060200162000ab2565b60408051600580825260c0820190925260609190816020820160a08036833701905050915082600001518260008151811062001fc75762001fc762002841565b60200260200101906001600160a01b031690816001600160a01b0316815250508260c001518260018151811062002002576200200262002841565b60200260200101906001600160a01b031690816001600160a01b031681525050826101000151826002815181106200203e576200203e62002841565b60200260200101906001600160a01b031690816001600160a01b03168152505082602001518260038151811062002079576200207962002841565b60200260200101906001600160a01b031690816001600160a01b03168152505082610120015182600481518110620020b557620020b562002841565b60200260200101906001600160a01b031690816001600160a01b03168152505050919050565b604080516101208101825260008082526020820181905260609282018390529181018290526080810182905260a0810182905260c0810182905260e0810182905261010081019190915290565b6105bf80620029e983390190565b6001600160a01b03811681146200214c57600080fd5b50565b6000602082840312156200216257600080fd5b81356200030b8162002136565b6001600160a01b0391909116815260200190565b6001600160a01b03169052565b600080600060608486031215620021a657600080fd5b8335620021b38162002136565b92506020840135620021c58162002136565b9150604084013561ffff81168114620021dd57600080fd5b809150509250925092565b6000815180845260005b818110156200221057602081850181015186830182015201620021f2565b506000602082860101526020601f19601f83011685010191505092915050565b6020815260006200030b6020830184620021e8565b600061012060018060a01b0383511684526020830151602085015260408301518160408601526200227982860182620021e8565b915050606083015162002290606086018262002183565b506080830151620022a5608086018262002183565b5060a0830151620022ba60a086018262002183565b5060c0830151620022cf60c086018262002183565b5060e0830151620022e460e086018262002183565b5061010080840151620022fa8287018262002183565b5090949350505050565b6020815260006200030b602083018462002245565b6000602082840312156200232c57600080fd5b81356001600160401b038111156200234357600080fd5b820161022081850312156200030b57600080fd5b600060208083016020845280855180835260408601915060408160051b87010192506020870160005b82811015620023b257603f198886030184526200239f85835162002245565b9450928501929085019060010162002380565b5092979650505050505050565b60008060008060008060008060006101208a8c031215620023df57600080fd5b8935620023ec8162002136565b985060208a0135620023fe8162002136565b975060408a0135620024108162002136565b965060608a0135620024228162002136565b955060808a0135620024348162002136565b945060a08a0135620024468162002136565b935060c08a0135620024588162002136565b925060e08a01356200246a8162002136565b91506101008a01356200247d8162002136565b809150509295985092959850929598565b600060208284031215620024a157600080fd5b81516200030b8162002136565b600181811c90821680620024c357607f821691505b602082108103620024e457634e487b7160e01b600052602260045260246000fd5b50919050565b6001600160a01b03938416815291909216602082015261ffff909116604082015260600190565b6001600160a01b03948516815292841660208401529216604082015261ffff909116606082015260800190565b6001600160a01b03831681526040602082018190526000906200027c90830184620021e8565b6000808335601e198436030181126200257c57600080fd5b8301803591506001600160401b038211156200259757600080fd5b602001915036819003821315620025ad57600080fd5b9250929050565b600060208284031215620025c757600080fd5b813560ff811681146200030b57600080fd5b60208152600060018060a01b0380845116602084015280602085015116604084015250604083015160a060608401526200261760c0840182620021e8565b90506060840151601f19848303016080850152620026368282620021e8565b91505060ff60808501511660a08401528091505092915050565b6000602082840312156200266357600080fd5b813563ffffffff811681146200030b57600080fd5b602081526200268c60208201835162002183565b60006020830151610140806040850152620026ac610160850183620021e8565b91506040850151601f19858403016060860152620026cb8382620021e8565b9250506060850151620026e2608086018262002183565b506080850151620026f760a086018262002183565b5060a085015160c085015260c08501516200271660e086018262002183565b5060e08501516101006200272d8187018362002183565b8601519050610120620027478682018363ffffffff169052565b86015163ffffffff8116838701529050620022fa565b60208152600060018060a01b03808451166020840152806020850151166040840152604084015160a060608501526200279a60c0850182620021e8565b90508160608601511660808501528160808601511660a0850152809250505092915050565b60208152600060018060a01b03808451166020840152806020850151166040840152806040850151166060840152606084015160c060808501526200280860e0850182620021e8565b90506080850151601f198583030160a0860152620028278282620021e8565b9150508160a08601511660c0850152809250505092915050565b634e487b7160e01b600052603260045260246000fd5b6001600160a01b03841681526040602082018190528101829052818360608301376000818301606090810191909152601f909201601f1916010192915050565b600060208284031215620028aa57600080fd5b5051919050565b634e487b7160e01b600052604160045260246000fd5b601f82111562002917576000816000526020600020601f850160051c81016020861015620028f25750805b601f850160051c820191505b818110156200291357828155600101620028fe565b5050505b505050565b81516001600160401b03811115620029385762002938620028b1565b6200295081620029498454620024ae565b84620028c7565b602080601f8311600181146200298857600084156200296f5750858301515b600019600386901b1c1916600185901b17855562002913565b600085815260208120601f198616915b82811015620029b95788860151825594840194600190910190840162002998565b5085821015620029d85787850151600019600388901b60f8161c191681555b5050505050600190811b0190555056fe60a06040526040516105bf3803806105bf83398101604081905261002291610387565b61002c828261003e565b506001600160a01b031660805261047e565b610047826100fe565b6040516001600160a01b038316907f1cf3b03a6cf19fa2baba4df148e9dcabedea7f8a5c07840e207e5c089be95d3e90600090a28051156100f2576100ed826001600160a01b0316635c60da1b6040518163ffffffff1660e01b8152600401602060405180830381865afa1580156100c3573d6000803e3d6000fd5b505050506040513d601f19601f820116820180604052508101906100e79190610447565b82610211565b505050565b6100fa610288565b5050565b806001600160a01b03163b60000361013957604051631933b43b60e21b81526001600160a01b03821660048201526024015b60405180910390fd5b807fa3f0ad74e5423aebfd80d3ef4346578335a9a72aeaee59ff6cb3582b35133d5080546001600160a01b0319166001600160a01b0392831617905560408051635c60da1b60e01b81529051600092841691635c60da1b9160048083019260209291908290030181865afa1580156101b5573d6000803e3d6000fd5b505050506040513d601f19601f820116820180604052508101906101d99190610447565b9050806001600160a01b03163b6000036100fa57604051634c9c8ce360e01b81526001600160a01b0382166004820152602401610130565b6060600080846001600160a01b03168460405161022e9190610462565b600060405180830381855af49150503d8060008114610269576040519150601f19603f3d011682016040523d82523d6000602084013e61026e565b606091505b50909250905061027f8583836102a9565b95945050505050565b34156102a75760405163b398979f60e01b815260040160405180910390fd5b565b6060826102be576102b982610308565b610301565b81511580156102d557506001600160a01b0384163b155b156102fe57604051639996b31560e01b81526001600160a01b0385166004820152602401610130565b50805b9392505050565b8051156103185780518082602001fd5b604051630a12f52160e11b815260040160405180910390fd5b80516001600160a01b038116811461034857600080fd5b919050565b634e487b7160e01b600052604160045260246000fd5b60005b8381101561037e578181015183820152602001610366565b50506000910152565b6000806040838503121561039a57600080fd5b6103a383610331565b60208401519092506001600160401b03808211156103c057600080fd5b818501915085601f8301126103d457600080fd5b8151818111156103e6576103e661034d565b604051601f8201601f19908116603f0116810190838211818310171561040e5761040e61034d565b8160405282815288602084870101111561042757600080fd5b610438836020830160208801610363565b80955050505050509250929050565b60006020828403121561045957600080fd5b61030182610331565b60008251610474818460208701610363565b9190910192915050565b6080516101276104986000396000601e01526101276000f3fe6080604052600a600c565b005b60186014601a565b60a0565b565b60007f00000000000000000000000000000000000000000000000000000000000000006001600160a01b0316635c60da1b6040518163ffffffff1660e01b8152600401602060405180830381865afa1580156079573d6000803e3d6000fd5b505050506040513d601f19601f82011682018060405250810190609b919060c3565b905090565b3660008037600080366000845af43d6000803e80801560be573d6000f35b3d6000fd5b60006020828403121560d457600080fd5b81516001600160a01b038116811460ea57600080fd5b939250505056fea26469706673582212205c8a2fcdc6f79c1d43b849e2b03f494652cee222b2ec86046b7caaa1405f985f64736f6c63430008180033a264697066735822122003eb2a93fd2a2d9e8b47bf20b875c3faf2424c3a02489c706593b1daac3f7a5a64736f6c63430008180033",
  "linkReferences": {
    "contracts/buildings/library/BuildingAutoCompounder.sol": {
      "BuildingAutoCompounderLib": [
        {
          "length": 20,
          "start": 4728
        }
      ]
    },
    "contracts/buildings/library/BuildingGovernance.sol": {
      "BuildingGovernanceLib": [
        {
          "length": 20,
          "start": 4439
        }
      ]
    },
    "contracts/buildings/library/BuildingToken.sol": {
      "BuildingTokenLib": [
        {
          "length": 20,
          "start": 3342
        }
      ]
    },
    "contracts/buildings/library/BuildingTreasury.sol": {
      "BuildingTreasuryLib": [
        {
          "length": 20,
          "start": 3818
        }
      ]
    },
    "contracts/buildings/library/BuildingVault.sol": {
      "BuildingVaultLib": [
        {
          "length": 20,
          "start": 3955
        }
      ]
    }
  },
  "deployedLinkReferences": {
    "contracts/buildings/library/BuildingAutoCompounder.sol": {
      "BuildingAutoCompounderLib": [
        {
          "length": 20,
          "start": 4498
        }
      ]
    },
    "contracts/buildings/library/BuildingGovernance.sol": {
      "BuildingGovernanceLib": [
        {
          "length": 20,
          "start": 4209
        }
      ]
    },
    "contracts/buildings/library/BuildingToken.sol": {
      "BuildingTokenLib": [
        {
          "length": 20,
          "start": 3112
        }
      ]
    },
    "contracts/buildings/library/BuildingTreasury.sol": {
      "BuildingTreasuryLib": [
        {
          "length": 20,
          "start": 3588
        }
      ]
    },
    "contracts/buildings/library/BuildingVault.sol": {
      "BuildingVaultLib": [
        {
          "length": 20,
          "start": 3725
        }
      ]
    }
  }
}