{
  "_format": "hh-sol-artifact-1",
  "contractName": "BuildingFactoryMock",
  "sourceName": "contracts/buildings/mock/BuildingFactoryMock.sol",
  "abi": [
    {
      "inputs": [],
      "name": "InvalidInitialization",
      "type": "error"
    },
    {
      "inputs": [],
      "name": "NotInitializing",
      "type": "error"
    },
    {
      "anonymous": false,
      "inputs": [
        {
          "indexed": false,
          "internalType": "address",
          "name": "building",
          "type": "address"
        },
        {
          "indexed": false,
          "internalType": "address",
          "name": "module",
          "type": "address"
        }
      ],
      "name": "ComplianceModuleAdded",
      "type": "event"
    },
    {
      "anonymous": false,
      "inputs": [
        {
          "indexed": false,
          "internalType": "address",
          "name": "building",
          "type": "address"
        },
        {
          "indexed": false,
          "internalType": "address",
          "name": "wallet",
          "type": "address"
        },
        {
          "indexed": false,
          "internalType": "address",
          "name": "identity",
          "type": "address"
        },
        {
          "indexed": false,
          "internalType": "uint16",
          "name": "country",
          "type": "uint16"
        }
      ],
      "name": "IdentityRegistered",
      "type": "event"
    },
    {
      "anonymous": false,
      "inputs": [
        {
          "indexed": false,
          "internalType": "uint64",
          "name": "version",
          "type": "uint64"
        }
      ],
      "name": "Initialized",
      "type": "event"
    },
    {
      "anonymous": false,
      "inputs": [
        {
          "indexed": false,
          "internalType": "address",
          "name": "buildingAddress",
          "type": "address"
        },
        {
          "indexed": false,
          "internalType": "address",
          "name": "erc3643Token",
          "type": "address"
        },
        {
          "indexed": false,
          "internalType": "address",
          "name": "treasury",
          "type": "address"
        },
        {
          "indexed": false,
          "internalType": "address",
          "name": "vault",
          "type": "address"
        },
        {
          "indexed": false,
          "internalType": "address",
          "name": "governance",
          "type": "address"
        },
        {
          "indexed": false,
          "internalType": "address",
          "name": "initialOwner",
          "type": "address"
        },
        {
          "indexed": false,
          "internalType": "address",
          "name": "autoCompounder",
          "type": "address"
        }
      ],
      "name": "NewBuilding",
      "type": "event"
    },
    {
      "inputs": [
        {
          "internalType": "address",
          "name": "wallet",
          "type": "address"
        }
      ],
      "name": "deployIdentityForWallet",
      "outputs": [
        {
          "internalType": "address",
          "name": "",
          "type": "address"
        }
      ],
      "stateMutability": "nonpayable",
      "type": "function"
    },
    {
      "inputs": [
        {
          "internalType": "address",
          "name": "buildingAddress",
          "type": "address"
        }
      ],
      "name": "getBuildingDetails",
      "outputs": [
        {
          "components": [
            {
              "internalType": "address",
              "name": "addr",
              "type": "address"
            },
            {
              "internalType": "uint256",
              "name": "nftId",
              "type": "uint256"
            },
            {
              "internalType": "string",
              "name": "tokenURI",
              "type": "string"
            },
            {
              "internalType": "address",
              "name": "identity",
              "type": "address"
            },
            {
              "internalType": "address",
              "name": "erc3643Token",
              "type": "address"
            },
            {
              "internalType": "address",
              "name": "treasury",
              "type": "address"
            },
            {
              "internalType": "address",
              "name": "governance",
              "type": "address"
            },
            {
              "internalType": "address",
              "name": "vault",
              "type": "address"
            },
            {
              "internalType": "address",
              "name": "autoCompounder",
              "type": "address"
            }
          ],
          "internalType": "struct BuildingFactoryStorage.BuildingDetails",
          "name": "",
          "type": "tuple"
        }
      ],
      "stateMutability": "view",
      "type": "function"
    },
    {
      "inputs": [],
      "name": "getBuildingList",
      "outputs": [
        {
          "components": [
            {
              "internalType": "address",
              "name": "addr",
              "type": "address"
            },
            {
              "internalType": "uint256",
              "name": "nftId",
              "type": "uint256"
            },
            {
              "internalType": "string",
              "name": "tokenURI",
              "type": "string"
            },
            {
              "internalType": "address",
              "name": "identity",
              "type": "address"
            },
            {
              "internalType": "address",
              "name": "erc3643Token",
              "type": "address"
            },
            {
              "internalType": "address",
              "name": "treasury",
              "type": "address"
            },
            {
              "internalType": "address",
              "name": "governance",
              "type": "address"
            },
            {
              "internalType": "address",
              "name": "vault",
              "type": "address"
            },
            {
              "internalType": "address",
              "name": "autoCompounder",
              "type": "address"
            }
          ],
          "internalType": "struct BuildingFactoryStorage.BuildingDetails[]",
          "name": "",
          "type": "tuple[]"
        }
      ],
      "stateMutability": "view",
      "type": "function"
    },
    {
      "inputs": [
        {
          "internalType": "address",
          "name": "wallet",
          "type": "address"
        }
      ],
      "name": "getIdentity",
      "outputs": [
        {
          "internalType": "contract IIdentity",
          "name": "",
          "type": "address"
        }
      ],
      "stateMutability": "view",
      "type": "function"
    },
    {
      "inputs": [
        {
          "internalType": "address",
          "name": "_nft",
          "type": "address"
        },
        {
          "internalType": "address",
          "name": "_uniswapRouter",
          "type": "address"
        },
        {
          "internalType": "address",
          "name": "_uniswapFactory",
          "type": "address"
        },
        {
          "internalType": "address",
          "name": "_onchainIdGateway",
          "type": "address"
        },
        {
          "internalType": "address",
          "name": "_trexGateway",
          "type": "address"
        },
        {
          "internalType": "address",
          "name": "_usdc",
          "type": "address"
        },
        {
          "internalType": "address",
          "name": "_buildingBeacon",
          "type": "address"
        },
        {
          "internalType": "address",
          "name": "_treasuryBeacon",
          "type": "address"
        },
        {
          "internalType": "address",
          "name": "_governanceBeacon",
          "type": "address"
        }
      ],
      "name": "initialize",
      "outputs": [],
      "stateMutability": "nonpayable",
      "type": "function"
    },
    {
      "inputs": [
        {
          "components": [
            {
              "internalType": "string",
              "name": "tokenURI",
              "type": "string"
            },
            {
              "internalType": "string",
              "name": "tokenName",
              "type": "string"
            },
            {
              "internalType": "string",
              "name": "tokenSymbol",
              "type": "string"
            },
            {
              "internalType": "uint8",
              "name": "tokenDecimals",
              "type": "uint8"
            },
            {
              "internalType": "uint256",
              "name": "tokenMintAmount",
              "type": "uint256"
            },
            {
              "internalType": "uint256",
              "name": "treasuryReserveAmount",
              "type": "uint256"
            },
            {
              "internalType": "uint256",
              "name": "treasuryNPercent",
              "type": "uint256"
            },
            {
              "internalType": "string",
              "name": "governanceName",
              "type": "string"
            },
            {
              "internalType": "string",
              "name": "vaultShareTokenName",
              "type": "string"
            },
            {
              "internalType": "string",
              "name": "vaultShareTokenSymbol",
              "type": "string"
            },
            {
              "internalType": "address",
              "name": "vaultFeeReceiver",
              "type": "address"
            },
            {
              "internalType": "address",
              "name": "vaultFeeToken",
              "type": "address"
            },
            {
              "internalType": "uint256",
              "name": "vaultFeePercentage",
              "type": "uint256"
            },
            {
              "internalType": "uint32",
              "name": "vaultCliff",
              "type": "uint32"
            },
            {
              "internalType": "uint32",
              "name": "vaultUnlockDuration",
              "type": "uint32"
            },
            {
              "internalType": "string",
              "name": "aTokenName",
              "type": "string"
            },
            {
              "internalType": "string",
              "name": "aTokenSymbol",
              "type": "string"
            }
          ],
          "internalType": "struct BuildingFactoryStorage.NewBuildingDetails",
          "name": "details",
          "type": "tuple"
        }
      ],
      "name": "newBuilding",
      "outputs": [
        {
          "components": [
            {
              "internalType": "address",
              "name": "addr",
              "type": "address"
            },
            {
              "internalType": "uint256",
              "name": "nftId",
              "type": "uint256"
            },
            {
              "internalType": "string",
              "name": "tokenURI",
              "type": "string"
            },
            {
              "internalType": "address",
              "name": "identity",
              "type": "address"
            },
            {
              "internalType": "address",
              "name": "erc3643Token",
              "type": "address"
            },
            {
              "internalType": "address",
              "name": "treasury",
              "type": "address"
            },
            {
              "internalType": "address",
              "name": "governance",
              "type": "address"
            },
            {
              "internalType": "address",
              "name": "vault",
              "type": "address"
            },
            {
              "internalType": "address",
              "name": "autoCompounder",
              "type": "address"
            }
          ],
          "internalType": "struct BuildingFactoryStorage.BuildingDetails",
          "name": "buildingDetails",
          "type": "tuple"
        }
      ],
      "stateMutability": "nonpayable",
      "type": "function"
    },
    {
      "inputs": [
        {
          "internalType": "address",
          "name": "buildingAddress",
          "type": "address"
        },
        {
          "internalType": "address",
          "name": "wallet",
          "type": "address"
        },
        {
          "internalType": "uint16",
          "name": "country",
          "type": "uint16"
        }
      ],
      "name": "registerIdentity",
      "outputs": [],
      "stateMutability": "nonpayable",
      "type": "function"
    },
    {
      "inputs": [],
      "name": "version",
      "outputs": [
        {
          "internalType": "string",
          "name": "",
          "type": "string"
        }
      ],
      "stateMutability": "pure",
      "type": "function"
    }
  ],
  "bytecode": "0x60806040523480156200001157600080fd5b506200001c62000022565b620000d6565b7ff0c57e16840df040f15088dc2f81fe391c3923bec73e23a9662efc9c229c6a00805468010000000000000000900460ff1615620000735760405163f92ee8a960e01b815260040160405180910390fd5b80546001600160401b0390811614620000d35780546001600160401b0319166001600160401b0390811782556040519081527fc7f505b2f371ae2175ee4913f4499e1f2633a7b5936321eed1cdaeb6115181d29060200160405180910390a15b50565b6130a880620000e66000396000f3fe60806040523480156200001157600080fd5b5060043610620000825760003560e01c80632fea7b8114620000875780633e8e6e8b14620000b6578063454a03e014620000cd57806354fd4d5014620000e6578063665fa4a1146200010d578063899a0ebe1462000133578063db652ec8146200014a578063f5e95acb1462000163575b600080fd5b6200009e620000983660046200221a565b6200017a565b604051620000ad91906200223a565b60405180910390f35b6200009e620000c73660046200221a565b62000284565b620000e4620000de3660046200225b565b62000312565b005b60408051808201825260038152620322e360ec1b60208201529051620000ad9190620022fb565b620001246200011e3660046200221a565b620006ba565b604051620000ad9190620023cf565b6200012462000144366004620023e4565b6200080a565b6200015462000825565b604051620000ad919062002422565b620000e4620001743660046200248a565b620009a4565b6000806200018762000acb565b905060008160040160009054906101000a90046001600160a01b03166001600160a01b03166378e751a66040518163ffffffff1660e01b8152600401602060405180830381865afa158015620001e1573d6000803e3d6000fd5b505050506040513d601f19601f8201168201806040525081019062000207919062002559565b604051632fea7b8160e01b81529091506001600160a01b03821690632fea7b8190620002389087906004016200223a565b602060405180830381865afa15801562000256573d6000803e3d6000fd5b505050506040513d601f19601f820116820180604052508101906200027c919062002559565b949350505050565b6000806200029162000acb565b600480820154604051633e8e6e8b60e01b81529293506001600160a01b031691633e8e6e8b91620002c5918791016200223a565b6020604051808303816000875af1158015620002e5573d6000803e3d6000fd5b505050506040513d601f19601f820116820180604052508101906200030b919062002559565b9392505050565b60006200031e62000acb565b6001600160a01b038086166000908152600a830160209081526040808320815161012081018352815490951685526001810154928501929092526002820180549596509294919290840191620003749062002579565b80601f0160208091040260200160405190810160405280929190818152602001828054620003a29062002579565b8015620003f35780601f10620003c757610100808354040283529160200191620003f3565b820191906000526020600020905b815481529060010190602001808311620003d557829003601f168201915b505050918352505060038201546001600160a01b039081166020808401919091526004808501548316604080860191909152600586015484166060860152600686015484166080808701919091526007870154851660a0870152600890960154841660c09095019490945293850151878501548451633c73a8d360e11b81529451969750909560009591909316936378e751a693818301939290918290030181865afa158015620004a8573d6000803e3d6000fd5b505050506040513d601f19601f82011682018060405250810190620004ce919062002559565b90506000826001600160a01b031663134e18f46040518163ffffffff1660e01b8152600401602060405180830381865afa15801562000511573d6000803e3d6000fd5b505050506040513d601f19601f8201168201806040525081019062000537919062002559565b90506000826001600160a01b0316632fea7b81896040518263ffffffff1660e01b81526004016200056991906200223a565b602060405180830381865afa15801562000587573d6000803e3d6000fd5b505050506040513d601f19601f82011682018060405250810190620005ad919062002559565b90506001600160a01b0381166200060a5760405162461bcd60e51b815260206004820152601d60248201527f4964656e7469747920666f722077616c6c6574206e6f7420666f756e64000000604482015260640160405180910390fd5b60405163022a501f60e51b81526001600160a01b0383169063454a03e0906200063c908b9085908c90600401620025b5565b600060405180830381600087803b1580156200065757600080fd5b505af11580156200066c573d6000803e3d6000fd5b505050507f6680dc6d23915f02197cb4ac29f4b00443a14ca1cbe22d6b93045c32b98a82378989838a604051620006a79493929190620025dc565b60405180910390a1505050505050505050565b620006c4620021a6565b6000620006d062000acb565b6001600160a01b038085166000908152600a8301602090815260409182902082516101208101845281549094168452600181015491840191909152600281018054949550929390929184019190620007289062002579565b80601f0160208091040260200160405190810160405280929190818152602001828054620007569062002579565b8015620007a75780601f106200077b57610100808354040283529160200191620007a7565b820191906000526020600020905b8154815290600101906020018083116200078957829003601f168201915b505050918352505060038201546001600160a01b0390811660208301526004830154811660408301526005830154811660608301526006830154811660808301526007830154811660a083015260089092015490911660c0909101529392505050565b62000814620021a6565b6200081f8262000aef565b92915050565b606060006200083362000acb565b6009810180546040805160208084028201810190925282815293945060009084015b828210156200099a57600084815260209081902060408051610120810182526009860290920180546001600160a01b0316835260018101549383019390935260028301805492939291840191620008ac9062002579565b80601f0160208091040260200160405190810160405280929190818152602001828054620008da9062002579565b80156200092b5780601f10620008ff576101008083540402835291602001916200092b565b820191906000526020600020905b8154815290600101906020018083116200090d57829003601f168201915b505050918352505060038201546001600160a01b039081166020808401919091526004840154821660408401526005840154821660608401526006840154821660808401526007840154821660a08401526008909301541660c090910152908252600192909201910162000855565b5050505091505090565b7ff0c57e16840df040f15088dc2f81fe391c3923bec73e23a9662efc9c229c6a008054600160401b810460ff1615906001600160401b0316600081158015620009ea5750825b90506000826001600160401b0316600114801562000a075750303b155b90508115801562000a16575080155b1562000a355760405163f92ee8a960e01b815260040160405180910390fd5b845467ffffffffffffffff19166001178555831562000a6057845460ff60401b1916600160401b1785555b62000a738e8e8e8e8e8e8e8e8e62001d8d565b831562000abb57845460ff60401b19168555604051600181527fc7f505b2f371ae2175ee4913f4499e1f2633a7b5936321eed1cdaeb6115181d2906020015b60405180910390a15b5050505050505050505050505050565b7f0f40dde8b99b0722537b774c6ef775b5e5a0af035d95bf9802cd87411f806f0090565b62000af9620021a6565b600062000b0562000acb565b604080516101408101825260006020808301829052828401829052606083018290526080830182905260a0830182905260c0830182905260e0830182905261010083018290526101208301919091523380835260038501546001860154600287015486516001600160a01b039283166024820152908216604482015260648082019490945286518082039094018452608401865292820180516001600160e01b031663c0c53b8b60e01b1790529351949550919392169162000bc790620021f3565b62000bd492919062002609565b604051809103906000f08015801562000bf1573d6000803e3d6000fd5b506001600160a01b039081166020808401919091526040805160a08101825284518416815260058601549093168383015273__$6bcf1faf5c0920414dc51cd0daeb07e0f7$__92633af9cf1e92909182019062000c51908901896200262f565b8080601f01602080910402602001604051908101604052809392919081815260200183838082843760009201919091525050509082525060200162000c9a60408901896200262f565b8080601f01602080910402602001604051908101604052809392919081815260200183838082843760009201919091525050509082525060200162000ce66080890160608a016200267f565b60ff168152506040518263ffffffff1660e01b815260040162000d0a9190620026a4565b602060405180830381865af415801562000d28573d6000803e3d6000fd5b505050506040513d601f19601f8201168201806040525081019062000d4e919062002559565b6001600160a01b039081166080830181905260208301516007850154604051636bdcd34160e01b815260048101939093528316602483015290911690636bdcd341906044016020604051808303816000875af115801562000db3573d6000803e3d6000fd5b505050506040513d601f19601f8201168201806040525081019062000dd9919062002559565b6001600160a01b039081166101208301526040805160e081018252600685015483168152835183166020820190815260a08881013583850190815260c0808b013560608601908152885188166080870190815260078b0154891694870194855230928701928352965163af15b96960e01b815295518816600487015293518716602486015290516044850152915160648401529251841660848301529151831660a4820152905190911660c482015273__$6dd86c1de004dc2dd48a17c9065be1de70$__9063af15b9699060e401602060405180830381865af415801562000ec5573d6000803e3d6000fd5b505050506040513d601f19601f8201168201806040525081019062000eeb919062002559565b6001600160a01b0390811660a08301526040805161014081019091526080830151909116815273__$e6502af67ab2c746a64bc3775a7b8857c1$__9063cd6856ef906020810162000f416101008901896200262f565b8080601f01602080910402602001604051908101604052809392919081815260200183838082843760009201919091525050509082525060200162000f8b6101208901896200262f565b8080601f01602080910402602001604051908101604052809392919081815260200183838082843760009201919091525050509082525060200162000fd961016089016101408a016200221a565b6001600160a01b0316815260200162000ffb61018089016101608a016200221a565b6001600160a01b039081168252610180890135602083015285518116604083015285511660608201526080016200103b6101c089016101a08a016200271b565b63ffffffff1681526020016200105a6101e089016101c08a016200271b565b63ffffffff168152506040518263ffffffff1660e01b815260040162001081919062002743565b602060405180830381865af41580156200109f573d6000803e3d6000fd5b505050506040513d601f19601f82011682018060405250810190620010c5919062002559565b6001600160a01b0390811660c08301526040805160a0810182526008850154831681526080840151909216602083015273__$9b19b7f7ded493586f11dad0d7ebc9ca26$__9163d88d81109181016200112260e08901896200262f565b8080601f01602080910402602001604051908101604052809392919081815260200183838082843760009201919091525050509082525060a08501516001600160a01b039081166020830152855116604091820152516001600160e01b031960e084901b16815262001198919060040162002828565b602060405180830381865af4158015620011b6573d6000803e3d6000fd5b505050506040513d601f19601f82011682018060405250810190620011dc919062002559565b6001600160a01b0390811660e08301526040805160c080820183526001860154841682528401518316602082015260078501549092169082015273__$3080f05ed92e5505050a1e3d528e8c5fcb$__9063ea5fb3369060608101620012466101e08901896200262f565b8080601f016020809104026020016040519081016040528093929190818152602001838380828437600092019190915250505090825250602001620012906102008901896200262f565b8080601f01602080910402602001604051908101604052809392919081815260200183838082843760009201919091525050509082525084516001600160a01b03166020909101526040516001600160e01b031960e084901b168152620012fb91906004016200288a565b602060405180830381865af415801562001319573d6000803e3d6000fd5b505050506040513d601f19601f820116820180604052508101906200133f919062002559565b6001600160a01b039081166101008301526004808401546080840151604080516304d3863d60e21b815290519285169460009492169263134e18f4928281019260209291908290030181865afa1580156200139e573d6000803e3d6000fd5b505050506040513d601f19601f82011682018060405250810190620013c4919062002559565b90506000620013d3846200200d565b905060005b815181101562001712576000846001600160a01b03166378e751a66040518163ffffffff1660e01b8152600401602060405180830381865afa15801562001423573d6000803e3d6000fd5b505050506040513d601f19601f8201168201806040525081019062001449919062002559565b6001600160a01b0316632fea7b818484815181106200146c576200146c6200290c565b60200260200101516040518263ffffffff1660e01b81526004016200149291906200223a565b602060405180830381865afa158015620014b0573d6000803e3d6000fd5b505050506040513d601f19601f82011682018060405250810190620014d6919062002559565b90506103486001600160a01b0382166200157d57856001600160a01b0316633e8e6e8b8585815181106200150e576200150e6200290c565b60200260200101516040518263ffffffff1660e01b81526004016200153491906200223a565b6020604051808303816000875af115801562001554573d6000803e3d6000fd5b505050506040513d601f19601f820116820180604052508101906200157a919062002559565b91505b60006001600160a01b0316856001600160a01b031663f0eb5e54868681518110620015ac57620015ac6200290c565b60200260200101516040518263ffffffff1660e01b8152600401620015d291906200223a565b602060405180830381865afa158015620015f0573d6000803e3d6000fd5b505050506040513d601f19601f8201168201806040525081019062001616919062002559565b6001600160a01b0316036200170757846001600160a01b031663454a03e08585815181106200164957620016496200290c565b602002602001015184846040518463ffffffff1660e01b81526004016200167393929190620025b5565b600060405180830381600087803b1580156200168e57600080fd5b505af1158015620016a3573d6000803e3d6000fd5b505050507f6680dc6d23915f02197cb4ac29f4b00443a14ca1cbe22d6b93045c32b98a82378760200151858581518110620016e257620016e26200290c565b60200260200101518484604051620016fe9493929190620025dc565b60405180910390a15b5050600101620013d8565b50845460208501516001600160a01b039091169063d0def52190620017388a806200262f565b6040518463ffffffff1660e01b8152600401620017589392919062002922565b6020604051808303816000875af115801562001778573d6000803e3d6000fd5b505050506040513d601f19601f820116820180604052508101906200179e919062002962565b8460400181815250508360a001516001600160a01b031663603607008560e001516040518263ffffffff1660e01b8152600401620017dd91906200223a565b600060405180830381600087803b158015620017f857600080fd5b505af11580156200180d573d6000803e3d6000fd5b505050508360a001516001600160a01b031663256b5a028560c001516040518263ffffffff1660e01b81526004016200184791906200223a565b600060405180830381600087803b1580156200186257600080fd5b505af115801562001877573d6000803e3d6000fd5b5050505060c084015160a0850151604051632f2ff15d60e01b81527f477fc23fb51bb5d5aa814872a393b0e4f35d0916c7503c0fd96584681070d41060048201526001600160a01b039182166024820152911690632f2ff15d90604401600060405180830381600087803b158015620018ef57600080fd5b505af115801562001904573d6000803e3d6000fd5b5050505060c0840151845160405163f2fde38b60e01b81526001600160a01b039092169163f2fde38b916200193c916004016200223a565b600060405180830381600087803b1580156200195757600080fd5b505af11580156200196c573d6000803e3d6000fd5b5050505060808481015185516040516340c10f1960e01b81526001600160a01b039182166004820152928a0135602484015216906340c10f1990604401600060405180830381600087803b158015620019c457600080fd5b505af1158015620019d9573d6000803e3d6000fd5b50505050610100840151845160405163f2fde38b60e01b81526001600160a01b039092169163f2fde38b9162001a12916004016200223a565b600060405180830381600087803b15801562001a2d57600080fd5b505af115801562001a42573d6000803e3d6000fd5b505060408051610120810182526020808901516001600160a01b03168252888301519082015292508201905062001a7a89806200262f565b8080601f01602080910402602001604051908101604052809392919081815260200183838082843760009201829052509385525050506060878101516001600160a01b039081166020808601919091526080808b0151831660408088019190915260a0808d015185169588019590955260e08c015184169187019190915260c0808c01518416948701949094526101008b0151831693909501929092528189015181168352600a8a01825291839020845181546001600160a01b03191693169290921782558301516001820155908201519197508791600282019062001b619082620029e7565b5060608201516003820180546001600160a01b03199081166001600160a01b03938416179091556080840151600484018054831691841691909117905560a0840151600584018054831691841691909117905560c0840151600684018054831691841691909117905560e084015160078401805483169184169190911790556101009093015160089092018054841692821692909217909155600987810180546001818101835560009283526020928390208c51929094029093018054909516931692909217835590880151908201556040870151879190600282019062001c4a9082620029e7565b5060608201516003820180546001600160a01b039283166001600160a01b03199182161790915560808085015160048501805491851691841691909117905560a08086015160058601805491861691851691909117905560c08087015160068701805491871691861691909117905560e08088015160078801805491881691871691909117905561010097880151600890970180549790961696909416959095179093556020890151908901519289015193890151918901518951958a01516040517f3163bceb365c85326c53476ceb0b49cfacb67f6d675e6eeb739c58ceb8b20bb69762001d7b97949695939290916001600160a01b03978816815295871660208701529386166040860152918516606085015284166080840152831660a083015290911660c082015260e00190565b60405180910390a15050505050919050565b7ff0c57e16840df040f15088dc2f81fe391c3923bec73e23a9662efc9c229c6a008054600160401b810460ff1615906001600160401b031660008115801562001dd35750825b90506000826001600160401b0316600114801562001df05750303b155b90508115801562001dff575080155b1562001e1e5760405163f92ee8a960e01b815260040160405180910390fd5b845467ffffffffffffffff19166001178555831562001e4957845460ff60401b1916600160401b1785555b600062001e5562000acb565b90508e8160000160006101000a8154816001600160a01b0302191690836001600160a01b031602179055508d8160010160006101000a8154816001600160a01b0302191690836001600160a01b031602179055508c8160020160006101000a8154816001600160a01b0302191690836001600160a01b03160217905550888160030160006101000a8154816001600160a01b0302191690836001600160a01b031602179055508b8160040160006101000a8154816001600160a01b0302191690836001600160a01b031602179055508a8160050160006101000a8154816001600160a01b0302191690836001600160a01b03160217905550878160060160006101000a8154816001600160a01b0302191690836001600160a01b03160217905550898160070160006101000a8154816001600160a01b0302191690836001600160a01b03160217905550868160080160006101000a8154816001600160a01b0302191690836001600160a01b0316021790555050831562000abb57845460ff60401b19168555604051600181527fc7f505b2f371ae2175ee4913f4499e1f2633a7b5936321eed1cdaeb6115181d29060200162000ab2565b606060006200201b62000acb565b60408051600680825260e0820190925291925090816020820160c0803683370190505092508360000151836000815181106200205b576200205b6200290c565b60200260200101906001600160a01b031690816001600160a01b0316815250508360c00151836001815181106200209657620020966200290c565b60200260200101906001600160a01b031690816001600160a01b03168152505083610100015183600281518110620020d257620020d26200290c565b60200260200101906001600160a01b031690816001600160a01b0316815250508360200151836003815181106200210d576200210d6200290c565b6001600160a01b03928316602091820292909201015260018301548451911690849060049081106200214357620021436200290c565b60200260200101906001600160a01b031690816001600160a01b031681525050836101200151836005815181106200217f576200217f6200290c565b60200260200101906001600160a01b031690816001600160a01b0316815250505050919050565b604080516101208101825260008082526020820181905260609282018390529181018290526080810182905260a0810182905260c0810182905260e0810182905261010081019190915290565b6105bf8062002ab483390190565b6001600160a01b03811681146200221757600080fd5b50565b6000602082840312156200222d57600080fd5b81356200030b8162002201565b6001600160a01b0391909116815260200190565b6001600160a01b03169052565b6000806000606084860312156200227157600080fd5b83356200227e8162002201565b92506020840135620022908162002201565b9150604084013561ffff81168114620022a857600080fd5b809150509250925092565b6000815180845260005b81811015620022db57602081850181015186830182015201620022bd565b506000602082860101526020601f19601f83011685010191505092915050565b6020815260006200030b6020830184620022b3565b600061012060018060a01b0383511684526020830151602085015260408301518160408601526200234482860182620022b3565b91505060608301516200235b60608601826200224e565b5060808301516200237060808601826200224e565b5060a08301516200238560a08601826200224e565b5060c08301516200239a60c08601826200224e565b5060e0830151620023af60e08601826200224e565b5061010080840151620023c5828701826200224e565b5090949350505050565b6020815260006200030b602083018462002310565b600060208284031215620023f757600080fd5b81356001600160401b038111156200240e57600080fd5b820161022081850312156200030b57600080fd5b600060208083016020845280855180835260408601915060408160051b87010192506020870160005b828110156200247d57603f198886030184526200246a85835162002310565b945092850192908501906001016200244b565b5092979650505050505050565b60008060008060008060008060006101208a8c031215620024aa57600080fd5b8935620024b78162002201565b985060208a0135620024c98162002201565b975060408a0135620024db8162002201565b965060608a0135620024ed8162002201565b955060808a0135620024ff8162002201565b945060a08a0135620025118162002201565b935060c08a0135620025238162002201565b925060e08a0135620025358162002201565b91506101008a0135620025488162002201565b809150509295985092959850929598565b6000602082840312156200256c57600080fd5b81516200030b8162002201565b600181811c908216806200258e57607f821691505b602082108103620025af57634e487b7160e01b600052602260045260246000fd5b50919050565b6001600160a01b03938416815291909216602082015261ffff909116604082015260600190565b6001600160a01b03948516815292841660208401529216604082015261ffff909116606082015260800190565b6001600160a01b03831681526040602082018190526000906200027c90830184620022b3565b6000808335601e198436030181126200264757600080fd5b8301803591506001600160401b038211156200266257600080fd5b6020019150368190038213156200267857600080fd5b9250929050565b6000602082840312156200269257600080fd5b813560ff811681146200030b57600080fd5b60208152600060018060a01b0380845116602084015280602085015116604084015250604083015160a06060840152620026e260c0840182620022b3565b90506060840151601f19848303016080850152620027018282620022b3565b91505060ff60808501511660a08401528091505092915050565b6000602082840312156200272e57600080fd5b813563ffffffff811681146200030b57600080fd5b60208152620027576020820183516200224e565b6000602083015161014080604085015262002777610160850183620022b3565b91506040850151601f19858403016060860152620027968382620022b3565b9250506060850151620027ad60808601826200224e565b506080850151620027c260a08601826200224e565b5060a085015160c085015260c0850151620027e160e08601826200224e565b5060e0850151610100620027f8818701836200224e565b8601519050610120620028128682018363ffffffff169052565b86015163ffffffff8116838701529050620023c5565b60208152600060018060a01b03808451166020840152806020850151166040840152604084015160a060608501526200286560c0850182620022b3565b90508160608601511660808501528160808601511660a0850152809250505092915050565b60208152600060018060a01b03808451166020840152806020850151166040840152806040850151166060840152606084015160c06080850152620028d360e0850182620022b3565b90506080850151601f198583030160a0860152620028f28282620022b3565b9150508160a08601511660c0850152809250505092915050565b634e487b7160e01b600052603260045260246000fd5b6001600160a01b03841681526040602082018190528101829052818360608301376000818301606090810191909152601f909201601f1916010192915050565b6000602082840312156200297557600080fd5b5051919050565b634e487b7160e01b600052604160045260246000fd5b601f821115620029e2576000816000526020600020601f850160051c81016020861015620029bd5750805b601f850160051c820191505b81811015620029de57828155600101620029c9565b5050505b505050565b81516001600160401b0381111562002a035762002a036200297c565b62002a1b8162002a14845462002579565b8462002992565b602080601f83116001811462002a53576000841562002a3a5750858301515b600019600386901b1c1916600185901b178555620029de565b600085815260208120601f198616915b8281101562002a845788860151825594840194600190910190840162002a63565b508582101562002aa35787850151600019600388901b60f8161c191681555b5050505050600190811b0190555056fe60a06040526040516105bf3803806105bf83398101604081905261002291610387565b61002c828261003e565b506001600160a01b031660805261047e565b610047826100fe565b6040516001600160a01b038316907f1cf3b03a6cf19fa2baba4df148e9dcabedea7f8a5c07840e207e5c089be95d3e90600090a28051156100f2576100ed826001600160a01b0316635c60da1b6040518163ffffffff1660e01b8152600401602060405180830381865afa1580156100c3573d6000803e3d6000fd5b505050506040513d601f19601f820116820180604052508101906100e79190610447565b82610211565b505050565b6100fa610288565b5050565b806001600160a01b03163b60000361013957604051631933b43b60e21b81526001600160a01b03821660048201526024015b60405180910390fd5b807fa3f0ad74e5423aebfd80d3ef4346578335a9a72aeaee59ff6cb3582b35133d5080546001600160a01b0319166001600160a01b0392831617905560408051635c60da1b60e01b81529051600092841691635c60da1b9160048083019260209291908290030181865afa1580156101b5573d6000803e3d6000fd5b505050506040513d601f19601f820116820180604052508101906101d99190610447565b9050806001600160a01b03163b6000036100fa57604051634c9c8ce360e01b81526001600160a01b0382166004820152602401610130565b6060600080846001600160a01b03168460405161022e9190610462565b600060405180830381855af49150503d8060008114610269576040519150601f19603f3d011682016040523d82523d6000602084013e61026e565b606091505b50909250905061027f8583836102a9565b95945050505050565b34156102a75760405163b398979f60e01b815260040160405180910390fd5b565b6060826102be576102b982610308565b610301565b81511580156102d557506001600160a01b0384163b155b156102fe57604051639996b31560e01b81526001600160a01b0385166004820152602401610130565b50805b9392505050565b8051156103185780518082602001fd5b604051630a12f52160e11b815260040160405180910390fd5b80516001600160a01b038116811461034857600080fd5b919050565b634e487b7160e01b600052604160045260246000fd5b60005b8381101561037e578181015183820152602001610366565b50506000910152565b6000806040838503121561039a57600080fd5b6103a383610331565b60208401519092506001600160401b03808211156103c057600080fd5b818501915085601f8301126103d457600080fd5b8151818111156103e6576103e661034d565b604051601f8201601f19908116603f0116810190838211818310171561040e5761040e61034d565b8160405282815288602084870101111561042757600080fd5b610438836020830160208801610363565b80955050505050509250929050565b60006020828403121561045957600080fd5b61030182610331565b60008251610474818460208701610363565b9190910192915050565b6080516101276104986000396000601e01526101276000f3fe6080604052600a600c565b005b60186014601a565b60a0565b565b60007f00000000000000000000000000000000000000000000000000000000000000006001600160a01b0316635c60da1b6040518163ffffffff1660e01b8152600401602060405180830381865afa1580156079573d6000803e3d6000fd5b505050506040513d601f19601f82011682018060405250810190609b919060c3565b905090565b3660008037600080366000845af43d6000803e80801560be573d6000f35b3d6000fd5b60006020828403121560d457600080fd5b81516001600160a01b038116811460ea57600080fd5b939250505056fea26469706673582212205c8a2fcdc6f79c1d43b849e2b03f494652cee222b2ec86046b7caaa1405f985f64736f6c63430008180033a264697066735822122023546e4e6c6b6d7fff7d4d1b57c8f8f9d1a7d6af399e87840720378a1cec307b64736f6c63430008180033",
  "linkReferences": {
    "contracts/buildings/library/BuildingAutoCompounder.sol": {
      "BuildingAutoCompounderLib": [
        {
          "length": 20,
          "start": 4862
        }
      ]
    },
    "contracts/buildings/library/BuildingGovernance.sol": {
      "BuildingGovernanceLib": [
        {
          "length": 20,
          "start": 4573
        }
      ]
    },
    "contracts/buildings/library/BuildingToken.sol": {
      "BuildingTokenLib": [
        {
          "length": 20,
          "start": 3338
        }
      ]
    },
    "contracts/buildings/library/BuildingTreasury.sol": {
      "BuildingTreasuryLib": [
        {
          "length": 20,
          "start": 3952
        }
      ]
    },
    "contracts/buildings/library/BuildingVault.sol": {
      "BuildingVaultLib": [
        {
          "length": 20,
          "start": 4089
        }
      ]
    }
  },
  "deployedLinkReferences": {
    "contracts/buildings/library/BuildingAutoCompounder.sol": {
      "BuildingAutoCompounderLib": [
        {
          "length": 20,
          "start": 4632
        }
      ]
    },
    "contracts/buildings/library/BuildingGovernance.sol": {
      "BuildingGovernanceLib": [
        {
          "length": 20,
          "start": 4343
        }
      ]
    },
    "contracts/buildings/library/BuildingToken.sol": {
      "BuildingTokenLib": [
        {
          "length": 20,
          "start": 3108
        }
      ]
    },
    "contracts/buildings/library/BuildingTreasury.sol": {
      "BuildingTreasuryLib": [
        {
          "length": 20,
          "start": 3722
        }
      ]
    },
    "contracts/buildings/library/BuildingVault.sol": {
      "BuildingVaultLib": [
        {
          "length": 20,
          "start": 3859
        }
      ]
    }
  }
}