{
  "_format": "hh-sol-artifact-1",
  "contractName": "Building",
  "sourceName": "contracts/buildings/Building.sol",
  "abi": [
    {
      "inputs": [],
      "stateMutability": "nonpayable",
      "type": "constructor"
    },
    {
      "inputs": [],
      "name": "InvalidInitialization",
      "type": "error"
    },
    {
      "inputs": [],
      "name": "NotInitializing",
      "type": "error"
    },
    {
      "inputs": [
        {
          "internalType": "address",
          "name": "owner",
          "type": "address"
        }
      ],
      "name": "OwnableInvalidOwner",
      "type": "error"
    },
    {
      "inputs": [
        {
          "internalType": "address",
          "name": "account",
          "type": "address"
        }
      ],
      "name": "OwnableUnauthorizedAccount",
      "type": "error"
    },
    {
      "anonymous": false,
      "inputs": [
        {
          "indexed": false,
          "internalType": "uint64",
          "name": "version",
          "type": "uint64"
        }
      ],
      "name": "Initialized",
      "type": "event"
    },
    {
      "anonymous": false,
      "inputs": [
        {
          "indexed": false,
          "internalType": "address",
          "name": "addr",
          "type": "address"
        }
      ],
      "name": "NewAuditRegistry",
      "type": "event"
    },
    {
      "anonymous": false,
      "inputs": [
        {
          "indexed": true,
          "internalType": "address",
          "name": "previousOwner",
          "type": "address"
        },
        {
          "indexed": true,
          "internalType": "address",
          "name": "newOwner",
          "type": "address"
        }
      ],
      "name": "OwnershipTransferred",
      "type": "event"
    },
    {
      "inputs": [
        {
          "internalType": "address",
          "name": "callableContract",
          "type": "address"
        },
        {
          "internalType": "bytes",
          "name": "data",
          "type": "bytes"
        }
      ],
      "name": "callContract",
      "outputs": [
        {
          "internalType": "bytes",
          "name": "",
          "type": "bytes"
        }
      ],
      "stateMutability": "payable",
      "type": "function"
    },
    {
      "inputs": [],
      "name": "getAuditRegistry",
      "outputs": [
        {
          "internalType": "address",
          "name": "",
          "type": "address"
        }
      ],
      "stateMutability": "view",
      "type": "function"
    },
    {
      "inputs": [
        {
          "internalType": "address",
          "name": "_initialOwner",
          "type": "address"
        }
      ],
      "name": "initialize",
      "outputs": [],
      "stateMutability": "nonpayable",
      "type": "function"
    },
    {
      "inputs": [
        {
          "internalType": "address",
          "name": "",
          "type": "address"
        },
        {
          "internalType": "address",
          "name": "",
          "type": "address"
        },
        {
          "internalType": "uint256",
          "name": "",
          "type": "uint256"
        },
        {
          "internalType": "bytes",
          "name": "",
          "type": "bytes"
        }
      ],
      "name": "onERC721Received",
      "outputs": [
        {
          "internalType": "bytes4",
          "name": "",
          "type": "bytes4"
        }
      ],
      "stateMutability": "pure",
      "type": "function"
    },
    {
      "inputs": [],
      "name": "owner",
      "outputs": [
        {
          "internalType": "address",
          "name": "",
          "type": "address"
        }
      ],
      "stateMutability": "view",
      "type": "function"
    },
    {
      "inputs": [],
      "name": "renounceOwnership",
      "outputs": [],
      "stateMutability": "nonpayable",
      "type": "function"
    },
    {
      "inputs": [
        {
          "internalType": "address",
          "name": "newOwner",
          "type": "address"
        }
      ],
      "name": "transferOwnership",
      "outputs": [],
      "stateMutability": "nonpayable",
      "type": "function"
    }
  ],
  "bytecode": "0x608060405234801561001057600080fd5b5061001961001e565b6100d0565b7ff0c57e16840df040f15088dc2f81fe391c3923bec73e23a9662efc9c229c6a00805468010000000000000000900460ff161561006e5760405163f92ee8a960e01b815260040160405180910390fd5b80546001600160401b03908116146100cd5780546001600160401b0319166001600160401b0390811782556040519081527fc7f505b2f371ae2175ee4913f4499e1f2633a7b5936321eed1cdaeb6115181d29060200160405180910390a15b50565b6122f0806100df6000396000f3fe6080604052600436106100605760003560e01c80630371066814610065578063150b7a021461008e578063715018a6146100d35780638da5cb5b146100ea578063bb6e15dc1461010c578063c4d66de814610121578063f2fde38b14610141575b600080fd5b610078610073366004610619565b610161565b60405161008591906106ff565b60405180910390f35b34801561009a57600080fd5b506100ba6100a9366004610732565b630a85bd0160e11b95945050505050565b6040516001600160e01b03199091168152602001610085565b3480156100df57600080fd5b506100e861017c565b005b3480156100f657600080fd5b506100ff610190565b60405161008591906107cd565b34801561011857600080fd5b506100ff6101c5565b34801561012d57600080fd5b506100e861013c3660046107e1565b6101ee565b34801561014d57600080fd5b506100e861015c3660046107e1565b610307565b606061016b61034e565b6101758383610380565b9392505050565b61018461034e565b61018e6000610432565b565b6000807f9016d09d72d40fdae2fd8ceac6b6234c7706214fd39c1cd1e609a0528c1993005b546001600160a01b031692915050565b6000807f1398114c786fd2d5dbcf29c302f594800c3b9ea470c98dbb34a8fb40a97e71006101b5565b7ff0c57e16840df040f15088dc2f81fe391c3923bec73e23a9662efc9c229c6a008054600160401b810460ff16159067ffffffffffffffff166000811580156102345750825b905060008267ffffffffffffffff1660011480156102515750303b155b90508115801561025f575080155b1561027d5760405163f92ee8a960e01b815260040160405180910390fd5b845467ffffffffffffffff1916600117855583156102a757845460ff60401b1916600160401b1785555b6102b0866104a3565b6102b9336104b4565b83156102ff57845460ff60401b19168555604051600181527fc7f505b2f371ae2175ee4913f4499e1f2633a7b5936321eed1cdaeb6115181d29060200160405180910390a15b505050505050565b61030f61034e565b6001600160a01b038116610342576000604051631e4fbdf760e01b815260040161033991906107cd565b60405180910390fd5b61034b81610432565b50565b33610357610190565b6001600160a01b03161461018e573360405163118cdaa760e01b815260040161033991906107cd565b6060600080846001600160a01b0316348560405161039e91906107fc565b60006040518083038185875af1925050503d80600081146103db576040519150601f19603f3d011682016040523d82523d6000602084013e6103e0565b606091505b50915091508161042a5760405162461bcd60e51b8152602060048201526015602482015274109d5a5b191a5b99ce8818d85b1b0819985a5b1959605a1b6044820152606401610339565b949350505050565b7f9016d09d72d40fdae2fd8ceac6b6234c7706214fd39c1cd1e609a0528c19930080546001600160a01b031981166001600160a01b03848116918217845560405192169182907f8be0079c531659141344cd1fd0a4f28419497f9722a3daafe3b4186f6b6457e090600090a3505050565b6104ab610504565b61034b8161054d565b6104bc610504565b7f1398114c786fd2d5dbcf29c302f594800c3b9ea470c98dbb34a8fb40a97e71006104e68261055e565b81546001600160a01b0319166001600160a01b039190911617905550565b7ff0c57e16840df040f15088dc2f81fe391c3923bec73e23a9662efc9c229c6a0054600160401b900460ff1661018e57604051631afcd79f60e31b815260040160405180910390fd5b610555610504565b61034b816105d2565b60008160405161056d906105da565b61057791906107cd565b604051809103906000f080158015610593573d6000803e3d6000fd5b5090507f86391fba409e44e3af18aa6478dfccdb9b93ae68a497e6bbe24ff16b75196f18816040516105c591906107cd565b60405180910390a1919050565b61030f610504565b611aa28061081983390190565b80356001600160a01b03811681146105fe57600080fd5b919050565b634e487b7160e01b600052604160045260246000fd5b6000806040838503121561062c57600080fd5b610635836105e7565b9150602083013567ffffffffffffffff8082111561065257600080fd5b818501915085601f83011261066657600080fd5b81358181111561067857610678610603565b604051601f8201601f19908116603f011681019083821181831017156106a0576106a0610603565b816040528281528860208487010111156106b957600080fd5b8260208601602083013760006020848301015280955050505050509250929050565b60005b838110156106f65781810151838201526020016106de565b50506000910152565b602081526000825180602084015261071e8160408501602087016106db565b601f01601f19169190910160400192915050565b60008060008060006080868803121561074a57600080fd5b610753866105e7565b9450610761602087016105e7565b935060408601359250606086013567ffffffffffffffff8082111561078557600080fd5b818801915088601f83011261079957600080fd5b8135818111156107a857600080fd5b8960208285010111156107ba57600080fd5b9699959850939650602001949392505050565b6001600160a01b0391909116815260200190565b6000602082840312156107f357600080fd5b610175826105e7565b6000825161080e8184602087016106db565b919091019291505056fe60806040523480156200001157600080fd5b5060405162001aa238038062001aa28339810160408190526200003491620000f8565b6200004160008262000049565b50506200012a565b6000828152602081815260408083206001600160a01b038516845290915281205460ff16620000ee576000838152602081815260408083206001600160a01b03861684529091529020805460ff19166001179055620000a53390565b6001600160a01b0316826001600160a01b0316847f2f8788117e7eff1d82e926ec794901d17c78024a50270940304540a733656f0d60405160405180910390a4506001620000f2565b5060005b92915050565b6000602082840312156200010b57600080fd5b81516001600160a01b03811681146200012357600080fd5b9392505050565b611968806200013a6000396000f3fe608060405234801561001057600080fd5b50600436106101375760003560e01c806360360700116100b8578063d547741f1161007c578063d547741f14610297578063e429cef1146102aa578063e6116cfd146102bd578063e74e786d146102d0578063e95cf444146102f4578063f36c8f5c1461030757600080fd5b806360360700146102415780636e1d616e1461025457806391d1485414610269578063a217fddf1461027c578063c9e398441461028457600080fd5b806336568abe116100ff57806336568abe146101dd5780633f76730f146101f05780634afb29c61461021057806357de4a6e146102195780635949ea691461022e57600080fd5b806301ffc9a71461013c578063129b25af14610164578063237f4bcc14610179578063248a9ca3146101995780632f2ff15d146101ca575b600080fd5b61014f61014a366004611245565b61031c565b60405190151581526020015b60405180910390f35b6101776101723660046112d3565b610353565b005b61018c610187366004611325565b6105ad565b60405161015b9190611340565b6101bc6101a7366004611384565b60009081526020819052604090206001015490565b60405190815260200161015b565b6101776101d836600461139d565b610619565b6101776101eb36600461139d565b610644565b6102036101fe366004611384565b61067c565b60405161015b919061140f565b6101bc60015481565b6102216107a7565b60405161015b9190611471565b61017761023c3660046114b2565b610809565b61017761024f366004611325565b61099a565b6101bc60008051602061191383398151915281565b61014f61027736600461139d565b610a5e565b6101bc600081565b610177610292366004611384565b610a87565b6101776102a536600461139d565b610b8b565b6101776102b8366004611325565b610bb0565b6101776102cb366004611325565b610c8a565b6102e36102de366004611384565b610e91565b60405161015b9594939291906114e4565b6101bc610302366004611532565b610f68565b6101bc6000805160206118f383398151915281565b60006001600160e01b03198216637965db0b60e01b148061034d57506301ffc9a760e01b6001600160e01b03198316145b92915050565b60008051602061191383398151915261036b81610f99565b6001600160a01b0384166103d65760405162461bcd60e51b815260206004820152602760248201527f417564697452656769737472793a20496e76616c6964206275696c64696e67206044820152666164647265737360c81b60648201526084015b60405180910390fd5b816103f35760405162461bcd60e51b81526004016103cd9061155c565b6103fe848484610fa6565b1561041c57604051635d922ec360e01b815260040160405180910390fd5b6001805490600061042c836115b6565b90915550506001546040805160a0810182526001600160a01b0387168152336020808301919091526001600160401b03421682840152600060608301528251601f8701829004820281018201909352858352909160808301918790879081908401838280828437600092018290525093909452505083815260026020818152604092839020855181546001600160a01b039182166001600160a01b0319909116178255918601516001820180549588015160608901511515600160e01b0260ff60e01b196001600160401b03909216600160a01b026001600160e01b0319909816939095169290921795909517169190911790925560808401519192508201906105369082611684565b5050506001600160a01b0385166000818152600360209081526040808320805460018101825590845291909220018390555133919083907f9238fb7e1f523c52ddf4024bdcb41357b62ed007c90dac38ee13e1c72e0c0a809061059e9089908990429061173d565b60405180910390a45050505050565b6001600160a01b03811660009081526003602090815260409182902080548351818402810184019094528084526060939283018282801561060d57602002820191906000526020600020905b8154815260200190600101908083116105f9575b50505050509050919050565b60008281526020819052604090206001015461063481610f99565b61063e83836110e5565b50505050565b6001600160a01b038116331461066d5760405163334bd91960e11b815260040160405180910390fd5b6106778282611177565b505050565b6040805160a0810182526000808252602082018190529181018290526060808201929092526080810191909152600082815260026020818152604092839020835160a08101855281546001600160a01b039081168252600183015490811693820193909352600160a01b83046001600160401b031694810194909452600160e01b90910460ff1615156060840152908101805460808401919061071e906115e5565b80601f016020809104026020016040519081016040528092919081815260200182805461074a906115e5565b80156107975780601f1061076c57610100808354040283529160200191610797565b820191906000526020600020905b81548152906001019060200180831161077a57829003601f168201915b5050505050815250509050919050565b606060048054806020026020016040519081016040528092919081815260200182805480156107ff57602002820191906000526020600020905b81546001600160a01b031681526001909101906020018083116107e1575b5050505050905090565b60008051602061191383398151915261082181610f99565b8161083e5760405162461bcd60e51b81526004016103cd9061155c565b600084815260026020526040902060018101546001600160a01b031633146108785760405162461bcd60e51b81526004016103cd90611776565b6001810154600160e01b900460ff16156108ea5760405162461bcd60e51b815260206004820152602d60248201527f417564697452656769737472793a2043616e6e6f74207570646174652061207260448201526c195d9bdad959081c9958dbdc99609a1b60648201526084016103cd565b8054610900906001600160a01b03168585610fa6565b1561091e57604051635d922ec360e01b815260040160405180910390fd5b6002810161092d8486836117bd565b50428160010160146101000a8154816001600160401b0302191690836001600160401b03160217905550847f7d88a6413bdea2f765837b2027d150e8d9eff6811a00e7b32ce22566577ae32185854260405161098b9392919061173d565b60405180910390a25050505050565b60006109a581610f99565b6001600160a01b038216610a0d5760405162461bcd60e51b815260206004820152602960248201527f417564697452656769737472793a20496e76616c696420676f7665726e616e6360448201526865206164647265737360b81b60648201526084016103cd565b610a256000805160206118f3833981519152836110e5565b506040516001600160a01b038316907f99d301cb63de6de357dff7544322430ca35a4aad08d16db2b426e61def18e44a90600090a25050565b6000918252602082815260408084206001600160a01b0393909316845291905290205460ff1690565b600080516020611913833981519152610a9f81610f99565b600082815260026020526040902060018101546001600160a01b03163314610ad95760405162461bcd60e51b81526004016103cd90611776565b6001810154600160e01b900460ff1615610b355760405162461bcd60e51b815260206004820152601e60248201527f417564697452656769737472793a20416c7265616479207265766f6b6564000060448201526064016103cd565b60018101805460ff60e01b1916600160e01b17905560405183907fe4839e81aa65ee9120ee35c9291915fa224f6ae0bfab747215ee7f0b5368a19390610b7e9042815260200190565b60405180910390a2505050565b600082815260208190526040902060010154610ba681610f99565b61063e8383611177565b6000805160206118f3833981519152610bc881610f99565b6001600160a01b038216610bee5760405162461bcd60e51b81526004016103cd90611877565b600480546001810182556000919091527f8a35acfbc15ff81a39ae7d344fd709f28e8600b4aa8c65c6b64bfe7fe36bd19b0180546001600160a01b0319166001600160a01b038416179055610c51600080516020611913833981519152836110e5565b506040516001600160a01b038316907f2c31044378cc14466459f09320dd4057d7ad6e99b194c0800c78227383a2529690600090a25050565b6000805160206118f3833981519152610ca281610f99565b6001600160a01b038216610cc85760405162461bcd60e51b81526004016103cd90611877565b610ce060008051602061191383398151915283610a5e565b610d285760405162461bcd60e51b815260206004820152601960248201527820b1b1b7bab73a1034b9903737ba1030b71030bab234ba37b960391b60448201526064016103cd565b60005b600454811015610e3f57826001600160a01b031660048281548110610d5257610d526118a0565b6000918252602090912001546001600160a01b031603610e3757805b600454610d7d906001906118b6565b811015610dfe576004610d918260016118c9565b81548110610da157610da16118a0565b600091825260209091200154600480546001600160a01b039092169183908110610dcd57610dcd6118a0565b600091825260209091200180546001600160a01b0319166001600160a01b0392909216919091179055600101610d6e565b506004805480610e1057610e106118dc565b600082815260209020810160001990810180546001600160a01b0319169055019055610e3f565b600101610d2b565b50610e5860008051602061191383398151915283611177565b506040516001600160a01b038316907fd3e803f2dfdacd206b7d19aa46d847206386d84e3dc6b8de0926e54affa6fddc90600090a25050565b60026020819052600091825260409091208054600182015492820180546001600160a01b039283169492831693600160a01b84046001600160401b031693600160e01b900460ff16929091610ee5906115e5565b80601f0160208091040260200160405190810160405280929190818152602001828054610f11906115e5565b8015610f5e5780601f10610f3357610100808354040283529160200191610f5e565b820191906000526020600020905b815481529060010190602001808311610f4157829003601f168201915b5050505050905085565b60036020528160005260406000208181548110610f8457600080fd5b90600052602060002001600091509150505481565b610fa381336111e2565b50565b6001600160a01b0383166000908152600360205260408120815b81548110156110db576110c360026000848481548110610fe257610fe26118a0565b906000526020600020015481526020019081526020016000206002018054611009906115e5565b80601f0160208091040260200160405190810160405280929190818152602001828054611035906115e5565b80156110825780601f1061105757610100808354040283529160200191611082565b820191906000526020600020905b81548152906001019060200180831161106557829003601f168201915b505050505086868080601f01602080910402602001604051908101604052809392919081815260200183838082843760009201919091525061121f92505050565b156110d3576001925050506110de565b600101610fc0565b50505b9392505050565b60006110f18383610a5e565b61116f576000838152602081815260408083206001600160a01b03861684529091529020805460ff191660011790556111273390565b6001600160a01b0316826001600160a01b0316847f2f8788117e7eff1d82e926ec794901d17c78024a50270940304540a733656f0d60405160405180910390a450600161034d565b50600061034d565b60006111838383610a5e565b1561116f576000838152602081815260408083206001600160a01b0386168085529252808320805460ff1916905551339286917ff6391f5c32d9c69d2a47ea670b442974b53935d1edc7fd64eb21e047a839171b9190a450600161034d565b6111ec8282610a5e565b61121b5760405163e2517d3f60e01b81526001600160a01b0382166004820152602481018390526044016103cd565b5050565b6000815183511480156110de575081805190602001208380519060200120149392505050565b60006020828403121561125757600080fd5b81356001600160e01b0319811681146110de57600080fd5b80356001600160a01b038116811461128657600080fd5b919050565b60008083601f84011261129d57600080fd5b5081356001600160401b038111156112b457600080fd5b6020830191508360208285010111156112cc57600080fd5b9250929050565b6000806000604084860312156112e857600080fd5b6112f18461126f565b925060208401356001600160401b0381111561130c57600080fd5b6113188682870161128b565b9497909650939450505050565b60006020828403121561133757600080fd5b6110de8261126f565b6020808252825182820181905260009190848201906040850190845b818110156113785783518352928401929184019160010161135c565b50909695505050505050565b60006020828403121561139657600080fd5b5035919050565b600080604083850312156113b057600080fd5b823591506113c06020840161126f565b90509250929050565b6000815180845260005b818110156113ef576020818501810151868301820152016113d3565b506000602082860101526020601f19601f83011685010191505092915050565b60208152600060018060a01b03808451166020840152806020850151166040840152506001600160401b036040840151166060830152606083015115156080830152608083015160a08084015261146960c08401826113c9565b949350505050565b6020808252825182820181905260009190848201906040850190845b818110156113785783516001600160a01b03168352928401929184019160010161148d565b6000806000604084860312156114c757600080fd5b8335925060208401356001600160401b0381111561130c57600080fd5b6001600160a01b038681168252851660208201526001600160401b0384166040820152821515606082015260a060808201819052600090611527908301846113c9565b979650505050505050565b6000806040838503121561154557600080fd5b61154e8361126f565b946020939093013593505050565b60208082526024908201527f417564697452656769737472793a2049504653206861736820697320726571756040820152631a5c995960e21b606082015260800190565b634e487b7160e01b600052601160045260246000fd5b6000600182016115c8576115c86115a0565b5060010190565b634e487b7160e01b600052604160045260246000fd5b600181811c908216806115f957607f821691505b60208210810361161957634e487b7160e01b600052602260045260246000fd5b50919050565b601f821115610677576000816000526020600020601f850160051c810160208610156116485750805b601f850160051c820191505b8181101561166757828155600101611654565b505050505050565b600019600383901b1c191660019190911b1790565b81516001600160401b0381111561169d5761169d6115cf565b6116b1816116ab84546115e5565b8461161f565b602080601f8311600181146116e057600084156116ce5750858301515b6116d8858261166f565b865550611667565b600085815260208120601f198616915b8281101561170f578886015182559484019460019091019084016116f0565b508582101561172d5787850151600019600388901b60f8161c191681555b5050505050600190811b01905550565b604081528260408201528284606083013760006060848301015260006060601f19601f8601168301019050826020830152949350505050565b60208082526027908201527f417564697452656769737472793a204e6f7420746865206f726967696e616c2060408201526630bab234ba37b960c91b606082015260800190565b6001600160401b038311156117d4576117d46115cf565b6117e8836117e283546115e5565b8361161f565b6000601f84116001811461181657600085156118045750838201355b61180e868261166f565b845550611870565b600083815260209020601f19861690835b828110156118475786850135825560209485019460019092019101611827565b50868210156118645760001960f88860031b161c19848701351681555b505060018560011b0183555b5050505050565b6020808252600f908201526e496e76616c6964206164647265737360881b604082015260600190565b634e487b7160e01b600052603260045260246000fd5b8181038181111561034d5761034d6115a0565b8082018082111561034d5761034d6115a0565b634e487b7160e01b600052603160045260246000fdfe71840dc4906352362b0cdaf79870196c8e42acafade72d5d5a6d59291253ceb159a1c48e5837ad7a7f3dcedcbe129bf3249ec4fbf651fd4f5e2600ead39fe2f5a2646970667358221220085bdf384c043da7f668ecaf227370296b9922978582e7fa56ec46b2c14e2f3d64736f6c63430008180033a26469706673582212202fd72cf76976bf60a35b5dac4a927575b9620cac3ae64f780ca373976a4b3d3364736f6c63430008180033",
  "linkReferences": {},
  "deployedLinkReferences": {}
}