{
  "_format": "hh-sol-artifact-1",
  "contractName": "BuildingFactory",
  "sourceName": "contracts/buildings/BuildingFactory.sol",
  "abi": [
    {
      "inputs": [],
      "stateMutability": "nonpayable",
      "type": "constructor"
    },
    {
      "inputs": [],
      "name": "InvalidInitialization",
      "type": "error"
    },
    {
      "inputs": [],
      "name": "NotInitializing",
      "type": "error"
    },
    {
      "inputs": [
        {
          "internalType": "address",
          "name": "owner",
          "type": "address"
        }
      ],
      "name": "OwnableInvalidOwner",
      "type": "error"
    },
    {
      "inputs": [
        {
          "internalType": "address",
          "name": "account",
          "type": "address"
        }
      ],
      "name": "OwnableUnauthorizedAccount",
      "type": "error"
    },
    {
      "anonymous": false,
      "inputs": [
        {
          "indexed": false,
          "internalType": "address",
          "name": "building",
          "type": "address"
        },
        {
          "indexed": false,
          "internalType": "address",
          "name": "module",
          "type": "address"
        }
      ],
      "name": "ComplianceModuleAdded",
      "type": "event"
    },
    {
      "anonymous": false,
      "inputs": [
        {
          "indexed": false,
          "internalType": "address",
          "name": "building",
          "type": "address"
        },
        {
          "indexed": false,
          "internalType": "address",
          "name": "wallet",
          "type": "address"
        },
        {
          "indexed": false,
          "internalType": "address",
          "name": "identity",
          "type": "address"
        },
        {
          "indexed": false,
          "internalType": "uint16",
          "name": "country",
          "type": "uint16"
        }
      ],
      "name": "IdentityRegistered",
      "type": "event"
    },
    {
      "anonymous": false,
      "inputs": [
        {
          "indexed": false,
          "internalType": "uint64",
          "name": "version",
          "type": "uint64"
        }
      ],
      "name": "Initialized",
      "type": "event"
    },
    {
      "anonymous": false,
      "inputs": [
        {
          "indexed": false,
          "internalType": "address",
          "name": "buildingAddress",
          "type": "address"
        },
        {
          "indexed": false,
          "internalType": "address",
          "name": "erc3643Token",
          "type": "address"
        },
        {
          "indexed": false,
          "internalType": "address",
          "name": "treasury",
          "type": "address"
        },
        {
          "indexed": false,
          "internalType": "address",
          "name": "vault",
          "type": "address"
        },
        {
          "indexed": false,
          "internalType": "address",
          "name": "governance",
          "type": "address"
        },
        {
          "indexed": false,
          "internalType": "address",
          "name": "initialOwner",
          "type": "address"
        },
        {
          "indexed": false,
          "internalType": "address",
          "name": "autoCompounder",
          "type": "address"
        }
      ],
      "name": "NewBuilding",
      "type": "event"
    },
    {
      "anonymous": false,
      "inputs": [
        {
          "indexed": true,
          "internalType": "address",
          "name": "previousOwner",
          "type": "address"
        },
        {
          "indexed": true,
          "internalType": "address",
          "name": "newOwner",
          "type": "address"
        }
      ],
      "name": "OwnershipTransferred",
      "type": "event"
    },
    {
      "anonymous": false,
      "inputs": [
        {
          "indexed": false,
          "internalType": "address",
          "name": "agent",
          "type": "address"
        }
      ],
      "name": "RegistryAgentRemoved",
      "type": "event"
    },
    {
      "anonymous": false,
      "inputs": [
        {
          "indexed": false,
          "internalType": "address[]",
          "name": "agents",
          "type": "address[]"
        }
      ],
      "name": "RegistryAgentsAdded",
      "type": "event"
    },
    {
      "inputs": [
        {
          "internalType": "address[]",
          "name": "agents",
          "type": "address[]"
        }
      ],
      "name": "addRegistryAgents",
      "outputs": [],
      "stateMutability": "nonpayable",
      "type": "function"
    },
    {
      "inputs": [
        {
          "internalType": "address",
          "name": "wallet",
          "type": "address"
        }
      ],
      "name": "deployIdentityForWallet",
      "outputs": [
        {
          "internalType": "address",
          "name": "",
          "type": "address"
        }
      ],
      "stateMutability": "nonpayable",
      "type": "function"
    },
    {
      "inputs": [
        {
          "internalType": "address",
          "name": "buildingAddress",
          "type": "address"
        }
      ],
      "name": "getBuildingDetails",
      "outputs": [
        {
          "components": [
            {
              "internalType": "address",
              "name": "addr",
              "type": "address"
            },
            {
              "internalType": "uint256",
              "name": "nftId",
              "type": "uint256"
            },
            {
              "internalType": "string",
              "name": "tokenURI",
              "type": "string"
            },
            {
              "internalType": "address",
              "name": "auditRegistry",
              "type": "address"
            },
            {
              "internalType": "address",
              "name": "erc3643Token",
              "type": "address"
            },
            {
              "internalType": "address",
              "name": "treasury",
              "type": "address"
            },
            {
              "internalType": "address",
              "name": "governance",
              "type": "address"
            },
            {
              "internalType": "address",
              "name": "vault",
              "type": "address"
            },
            {
              "internalType": "address",
              "name": "autoCompounder",
              "type": "address"
            }
          ],
          "internalType": "struct BuildingFactoryStorage.BuildingDetails",
          "name": "",
          "type": "tuple"
        }
      ],
      "stateMutability": "view",
      "type": "function"
    },
    {
      "inputs": [],
      "name": "getBuildingList",
      "outputs": [
        {
          "components": [
            {
              "internalType": "address",
              "name": "addr",
              "type": "address"
            },
            {
              "internalType": "uint256",
              "name": "nftId",
              "type": "uint256"
            },
            {
              "internalType": "string",
              "name": "tokenURI",
              "type": "string"
            },
            {
              "internalType": "address",
              "name": "auditRegistry",
              "type": "address"
            },
            {
              "internalType": "address",
              "name": "erc3643Token",
              "type": "address"
            },
            {
              "internalType": "address",
              "name": "treasury",
              "type": "address"
            },
            {
              "internalType": "address",
              "name": "governance",
              "type": "address"
            },
            {
              "internalType": "address",
              "name": "vault",
              "type": "address"
            },
            {
              "internalType": "address",
              "name": "autoCompounder",
              "type": "address"
            }
          ],
          "internalType": "struct BuildingFactoryStorage.BuildingDetails[]",
          "name": "",
          "type": "tuple[]"
        }
      ],
      "stateMutability": "view",
      "type": "function"
    },
    {
      "inputs": [
        {
          "internalType": "address",
          "name": "wallet",
          "type": "address"
        }
      ],
      "name": "getIdentity",
      "outputs": [
        {
          "internalType": "contract IIdentity",
          "name": "",
          "type": "address"
        }
      ],
      "stateMutability": "view",
      "type": "function"
    },
    {
      "inputs": [],
      "name": "getRegistryAgents",
      "outputs": [
        {
          "internalType": "address[]",
          "name": "",
          "type": "address[]"
        }
      ],
      "stateMutability": "view",
      "type": "function"
    },
    {
      "inputs": [
        {
          "internalType": "address",
          "name": "_nft",
          "type": "address"
        },
        {
          "internalType": "address",
          "name": "_uniswapRouter",
          "type": "address"
        },
        {
          "internalType": "address",
          "name": "_uniswapFactory",
          "type": "address"
        },
        {
          "internalType": "address",
          "name": "_onchainIdGateway",
          "type": "address"
        },
        {
          "internalType": "address",
          "name": "_trexGateway",
          "type": "address"
        },
        {
          "internalType": "address",
          "name": "_usdc",
          "type": "address"
        },
        {
          "internalType": "address",
          "name": "_buildingBeacon",
          "type": "address"
        },
        {
          "internalType": "address",
          "name": "_treasuryBeacon",
          "type": "address"
        },
        {
          "internalType": "address",
          "name": "_governanceBeacon",
          "type": "address"
        }
      ],
      "name": "initialize",
      "outputs": [],
      "stateMutability": "nonpayable",
      "type": "function"
    },
    {
      "inputs": [
        {
          "components": [
            {
              "internalType": "string",
              "name": "tokenURI",
              "type": "string"
            },
            {
              "internalType": "string",
              "name": "tokenName",
              "type": "string"
            },
            {
              "internalType": "string",
              "name": "tokenSymbol",
              "type": "string"
            },
            {
              "internalType": "uint8",
              "name": "tokenDecimals",
              "type": "uint8"
            },
            {
              "internalType": "uint256",
              "name": "tokenMintAmount",
              "type": "uint256"
            },
            {
              "internalType": "uint256",
              "name": "treasuryReserveAmount",
              "type": "uint256"
            },
            {
              "internalType": "uint256",
              "name": "treasuryNPercent",
              "type": "uint256"
            },
            {
              "internalType": "string",
              "name": "governanceName",
              "type": "string"
            },
            {
              "internalType": "string",
              "name": "vaultShareTokenName",
              "type": "string"
            },
            {
              "internalType": "string",
              "name": "vaultShareTokenSymbol",
              "type": "string"
            },
            {
              "internalType": "address",
              "name": "vaultFeeReceiver",
              "type": "address"
            },
            {
              "internalType": "address",
              "name": "vaultFeeToken",
              "type": "address"
            },
            {
              "internalType": "uint256",
              "name": "vaultFeePercentage",
              "type": "uint256"
            },
            {
              "internalType": "uint32",
              "name": "vaultCliff",
              "type": "uint32"
            },
            {
              "internalType": "uint32",
              "name": "vaultUnlockDuration",
              "type": "uint32"
            },
            {
              "internalType": "string",
              "name": "aTokenName",
              "type": "string"
            },
            {
              "internalType": "string",
              "name": "aTokenSymbol",
              "type": "string"
            }
          ],
          "internalType": "struct BuildingFactoryStorage.NewBuildingDetails",
          "name": "details",
          "type": "tuple"
        }
      ],
      "name": "newBuilding",
      "outputs": [
        {
          "components": [
            {
              "internalType": "address",
              "name": "addr",
              "type": "address"
            },
            {
              "internalType": "uint256",
              "name": "nftId",
              "type": "uint256"
            },
            {
              "internalType": "string",
              "name": "tokenURI",
              "type": "string"
            },
            {
              "internalType": "address",
              "name": "auditRegistry",
              "type": "address"
            },
            {
              "internalType": "address",
              "name": "erc3643Token",
              "type": "address"
            },
            {
              "internalType": "address",
              "name": "treasury",
              "type": "address"
            },
            {
              "internalType": "address",
              "name": "governance",
              "type": "address"
            },
            {
              "internalType": "address",
              "name": "vault",
              "type": "address"
            },
            {
              "internalType": "address",
              "name": "autoCompounder",
              "type": "address"
            }
          ],
          "internalType": "struct BuildingFactoryStorage.BuildingDetails",
          "name": "buildingDetails",
          "type": "tuple"
        }
      ],
      "stateMutability": "nonpayable",
      "type": "function"
    },
    {
      "inputs": [],
      "name": "owner",
      "outputs": [
        {
          "internalType": "address",
          "name": "",
          "type": "address"
        }
      ],
      "stateMutability": "view",
      "type": "function"
    },
    {
      "inputs": [
        {
          "internalType": "address",
          "name": "buildingAddress",
          "type": "address"
        },
        {
          "internalType": "address",
          "name": "wallet",
          "type": "address"
        },
        {
          "internalType": "uint16",
          "name": "country",
          "type": "uint16"
        }
      ],
      "name": "registerIdentity",
      "outputs": [],
      "stateMutability": "nonpayable",
      "type": "function"
    },
    {
      "inputs": [
        {
          "internalType": "address",
          "name": "agent",
          "type": "address"
        }
      ],
      "name": "removeRegistryAgent",
      "outputs": [],
      "stateMutability": "nonpayable",
      "type": "function"
    },
    {
      "inputs": [],
      "name": "renounceOwnership",
      "outputs": [],
      "stateMutability": "nonpayable",
      "type": "function"
    },
    {
      "inputs": [
        {
          "internalType": "address",
          "name": "newOwner",
          "type": "address"
        }
      ],
      "name": "transferOwnership",
      "outputs": [],
      "stateMutability": "nonpayable",
      "type": "function"
    }
  ],
  "bytecode": "0x60806040523480156200001157600080fd5b506200001c62000022565b620000d6565b7ff0c57e16840df040f15088dc2f81fe391c3923bec73e23a9662efc9c229c6a00805468010000000000000000900460ff1615620000735760405163f92ee8a960e01b815260040160405180910390fd5b80546001600160401b0390811614620000d35780546001600160401b0319166001600160401b0390811782556040519081527fc7f505b2f371ae2175ee4913f4499e1f2633a7b5936321eed1cdaeb6115181d29060200160405180910390a15b50565b613d4580620000e66000396000f3fe60806040523480156200001157600080fd5b5060043610620000ce5760003560e01c8063715018a61162000086578063715018a61462000188578063899a0ebe14620001925780638da5cb5b14620001a9578063d5f51ccd14620001b3578063db652ec814620001ca578063f2fde38b14620001e3578063f5e95acb14620001fa57600080fd5b806240c4b014620000d35780632fea7b8114620000f55780633e8e6e8b146200011b578063454a03e01462000132578063665fa4a1146200014b57806370fb52571462000171575b600080fd5b620000dd62000211565b604051620000ec919062002c52565b60405180910390f35b6200010c6200010636600462002cc9565b62000281565b604051620000ec919062002ce9565b6200010c6200012c36600462002cc9565b6200038b565b620001496200014336600462002cfd565b62000419565b005b620001626200015c36600462002cc9565b620007c2565b604051620000ec919062002e5c565b620001496200018236600462002cc9565b62000912565b6200014962000aa8565b62000162620001a336600462002e71565b62000ac0565b6200010c62001ccc565b62000149620001c436600462002ec5565b62001cfa565b620001d462001e54565b604051620000ec919062002f97565b62000149620001f436600462002cc9565b62001fd3565b620001496200020b36600462002fff565b62002018565b606060006200021f620022b6565b600981018054604080516020808402820181019092528281529394508301828280156200027657602002820191906000526020600020905b81546001600160a01b0316815260019091019060200180831162000257575b505050505091505090565b6000806200028e620022b6565b905060008160040160009054906101000a90046001600160a01b03166001600160a01b03166378e751a66040518163ffffffff1660e01b8152600401602060405180830381865afa158015620002e8573d6000803e3d6000fd5b505050506040513d601f19601f820116820180604052508101906200030e9190620030ce565b604051632fea7b8160e01b81529091506001600160a01b03821690632fea7b81906200033f90879060040162002ce9565b602060405180830381865afa1580156200035d573d6000803e3d6000fd5b505050506040513d601f19601f82011682018060405250810190620003839190620030ce565b949350505050565b60008062000398620022b6565b600480820154604051633e8e6e8b60e01b81529293506001600160a01b031691633e8e6e8b91620003cc9187910162002ce9565b6020604051808303816000875af1158015620003ec573d6000803e3d6000fd5b505050506040513d601f19601f82011682018060405250810190620004129190620030ce565b9392505050565b600062000425620022b6565b6001600160a01b038086166000908152600c8301602090815260408083208151610120810183528154909516855260018101549285019290925260028201805495965092949192908401916200047b90620030ee565b80601f0160208091040260200160405190810160405280929190818152602001828054620004a990620030ee565b8015620004fa5780601f10620004ce57610100808354040283529160200191620004fa565b820191906000526020600020905b815481529060010190602001808311620004dc57829003601f168201915b505050918352505060038201546001600160a01b039081166020808401919091526004808501548316604080860191909152600586015484166060860152600686015484166080808701919091526007870154851660a0870152600890960154841660c09095019490945293850151878501548451633c73a8d360e11b81529451969750909560009591909316936378e751a693818301939290918290030181865afa158015620005af573d6000803e3d6000fd5b505050506040513d601f19601f82011682018060405250810190620005d59190620030ce565b90506000826001600160a01b031663134e18f46040518163ffffffff1660e01b8152600401602060405180830381865afa15801562000618573d6000803e3d6000fd5b505050506040513d601f19601f820116820180604052508101906200063e9190620030ce565b90506000826001600160a01b0316632fea7b81896040518263ffffffff1660e01b815260040162000670919062002ce9565b602060405180830381865afa1580156200068e573d6000803e3d6000fd5b505050506040513d601f19601f82011682018060405250810190620006b49190620030ce565b90506001600160a01b038116620007125760405162461bcd60e51b815260206004820152601d60248201527f4964656e7469747920666f722077616c6c6574206e6f7420666f756e6400000060448201526064015b60405180910390fd5b60405163022a501f60e51b81526001600160a01b0383169063454a03e09062000744908b9085908c906004016200312a565b600060405180830381600087803b1580156200075f57600080fd5b505af115801562000774573d6000803e3d6000fd5b505050507f6680dc6d23915f02197cb4ac29f4b00443a14ca1cbe22d6b93045c32b98a82378989838a604051620007af949392919062003151565b60405180910390a1505050505050505050565b620007cc62002bea565b6000620007d8620022b6565b6001600160a01b038085166000908152600c83016020908152604091829020825161012081018452815490941684526001810154918401919091526002810180549495509293909291840191906200083090620030ee565b80601f01602080910402602001604051908101604052809291908181526020018280546200085e90620030ee565b8015620008af5780601f106200088357610100808354040283529160200191620008af565b820191906000526020600020905b8154815290600101906020018083116200089157829003601f168201915b505050918352505060038201546001600160a01b0390811660208301526004830154811660408301526005830154811660608301526006830154811660808301526007830154811660a083015260089092015490911660c0909101529392505050565b6200091c620022da565b6001600160a01b038116620009455760405162461bcd60e51b815260040162000709906200317e565b600062000951620022b6565b90506009810160005b815481101562000aa257836001600160a01b0316828281548110620009835762000983620031ad565b6000918252602090912001546001600160a01b03160362000a995781548290620009b090600190620031d9565b81548110620009c357620009c3620031ad565b9060005260206000200160009054906101000a90046001600160a01b0316828281548110620009f657620009f6620031ad565b9060005260206000200160006101000a8154816001600160a01b0302191690836001600160a01b031602179055508180548062000a375762000a37620031f5565b600082815260209020810160001990810180546001600160a01b03191690550190556040517ffd640fa9b46f14c0708e03114f4007b6a72edb4389a12da691527d9ffb6d0de29062000a8b90869062002ce9565b60405180910390a162000aa2565b6001016200095a565b50505050565b62000ab2620022da565b62000abe600062002311565b565b62000aca62002bea565b600062000ad6620022b6565b600381015460405191925033916000916001600160a01b03169063189acdbd60e31b9062000b0990859060240162002ce9565b60408051601f198184030181529181526020820180516001600160e01b03166001600160e01b031990941693909317909252905162000b489062002c37565b62000b559291906200320b565b604051809103906000f08015801562000b72573d6000803e3d6000fd5b5090506000816001600160a01b031663bb6e15dc6040518163ffffffff1660e01b8152600401602060405180830381865afa15801562000bb6573d6000803e3d6000fd5b505050506040513d601f19601f8201168201806040525081019062000bdc9190620030ce565b6040805160e0810182526001600160a01b03808716825260058801541660208083019190915292935060009273__$6bcf1faf5c0920414dc51cd0daeb07e0f7$__92633af9cf1e92919082019062000c37908c018c62003231565b8080601f01602080910402602001604051908101604052809392919081815260200183838082843760009201919091525050509082525060200162000c8060408c018c62003231565b8080601f01602080910402602001604051908101604052809392919081815260200183838082843760009201919091525050509082525060200162000ccc60808c0160608d016200327a565b60ff16815260200162000cde62002382565b815260200162000ced620024f4565b8152506040518263ffffffff1660e01b815260040162000d0e9190620032e6565b602060405180830381865af415801562000d2c573d6000803e3d6000fd5b505050506040513d601f19601f8201168201806040525081019062000d529190620030ce565b6040805160e08101825260068801546001600160a01b0390811682528781166020830181905260a0808d01358486015260c0808e01356060860152608085019290925260078b0154909216918301919091523090820152905163af15b96960e01b815291925060009173__$6dd86c1de004dc2dd48a17c9065be1de70$__9163af15b9699162000e3b919060040181516001600160a01b039081168252602080840151821690830152604080840151908301526060808401519083015260808084015182169083015260a08381015182169083015260c092830151169181019190915260e00190565b602060405180830381865af415801562000e59573d6000803e3d6000fd5b505050506040513d601f19601f8201168201806040525081019062000e7f9190620030ce565b9050600073__$e6502af67ab2c746a64bc3775a7b8857c1$__63cd6856ef604051806101400160405280866001600160a01b031681526020018c80610100019062000ecb919062003231565b8080601f01602080910402602001604051908101604052809392919081815260200183838082843760009201919091525050509082525060200162000f156101208e018e62003231565b8080601f01602080910402602001604051908101604052809392919081815260200183838082843760009201919091525050509082525060200162000f636101608e016101408f0162002cc9565b6001600160a01b0316815260200162000f856101808e016101608f0162002cc9565b6001600160a01b0390811682526101808e013560208301528a1660408201819052606082015260800162000fc26101c08e016101a08f01620033ab565b63ffffffff16815260200162000fe16101e08e016101c08f01620033ab565b63ffffffff168152506040518263ffffffff1660e01b8152600401620010089190620033d3565b602060405180830381865af415801562001026573d6000803e3d6000fd5b505050506040513d601f19601f820116820180604052508101906200104c9190620030ce565b6040805160c08101825260088a01546001600160a01b0390811682528616602082015291925060009173__$9b19b7f7ded493586f11dad0d7ebc9ca26$__9163d88d811091908101620010a360e08f018f62003231565b8080601f0160208091040260200160405190810160405280939291908181526020018383808284376000920191909152505050908252506001600160a01b038088166020830152898116604080840191909152908c16606090920191909152516001600160e01b031960e084901b168152620011239190600401620034b8565b602060405180830381865af415801562001141573d6000803e3d6000fd5b505050506040513d601f19601f82011682018060405250810190620011679190620030ce565b9050600073__$3080f05ed92e5505050a1e3d528e8c5fcb$__63ea5fb3366040518060c001604052808c60010160009054906101000a90046001600160a01b03166001600160a01b03168152602001866001600160a01b031681526020018c60070160009054906101000a90046001600160a01b03166001600160a01b031681526020018e806101e00190620011fe919062003231565b8080601f016020809104026020016040519081016040528093929190818152602001838380828437600081840152601f19601f8201169050808301925050505050505081526020018e80610200019062001259919062003231565b8080601f0160208091040260200160405190810160405280939291908181526020018383808284376000920191909152505050908252506001600160a01b038c166020909101526040516001600160e01b031960e084901b168152620012c3919060040162003526565b602060405180830381865af4158015620012e1573d6000803e3d6000fd5b505050506040513d601f19601f82011682018060405250810190620013079190620030ce565b89549091506000906001600160a01b031663d0def521896200132a8f8062003231565b6040518463ffffffff1660e01b81526004016200134a93929190620035a8565b6020604051808303816000875af11580156200136a573d6000803e3d6000fd5b505050506040513d601f19601f82011682018060405250810190620013909190620035e8565b60408051600580825260c08201909252919250600091906020820160a0803683370190505090508981600081518110620013ce57620013ce620031ad565b6001600160a01b0392831660209182029290920101526001808d015483519216918391908110620014035762001403620031ad565b60200260200101906001600160a01b031690816001600160a01b03168152505084816002815181106200143a576200143a620031ad565b60200260200101906001600160a01b031690816001600160a01b0316815250508281600381518110620014715762001471620031ad565b6001600160a01b03928316602091820292909201015260028c015460078d0154620014a392918216918a9116620025dd565b81600481518110620014b957620014b9620031ad565b60200260200101906001600160a01b031690816001600160a01b031681525050620014e6898883620026af565b6040516260360760e81b81526001600160a01b038716906360360700906200151390879060040162002ce9565b600060405180830381600087803b1580156200152e57600080fd5b505af115801562001543573d6000803e3d6000fd5b50506040516312b5ad0160e11b81526001600160a01b038916925063256b5a0291506200157590889060040162002ce9565b600060405180830381600087803b1580156200159057600080fd5b505af1158015620015a5573d6000803e3d6000fd5b5050604051632f2ff15d60e01b81526001600160a01b0388169250632f2ff15d9150620015f9907f477fc23fb51bb5d5aa814872a393b0e4f35d0916c7503c0fd96584681070d410908a9060040162003602565b600060405180830381600087803b1580156200161457600080fd5b505af115801562001629573d6000803e3d6000fd5b5050604051632f2ff15d60e01b81526001600160a01b038b169250632f2ff15d91506200167d907f71840dc4906352362b0cdaf79870196c8e42acafade72d5d5a6d59291253ceb190889060040162003602565b600060405180830381600087803b1580156200169857600080fd5b505af1158015620016ad573d6000803e3d6000fd5b5050604051632f2ff15d60e01b81526001600160a01b038b169250632f2ff15d9150620016e2906000908e9060040162003602565b600060405180830381600087803b158015620016fd57600080fd5b505af115801562001712573d6000803e3d6000fd5b50505050866001600160a01b03166340c10f198b8f608001356040518363ffffffff1660e01b81526004016200175d9291906001600160a01b03929092168252602082015260400190565b600060405180830381600087803b1580156200177857600080fd5b505af11580156200178d573d6000803e3d6000fd5b505060405163f2fde38b60e01b81526001600160a01b038816925063f2fde38b9150620017bf908d9060040162002ce9565b600060405180830381600087803b158015620017da57600080fd5b505af1158015620017ef573d6000803e3d6000fd5b505060405163f2fde38b60e01b81526001600160a01b038616925063f2fde38b915062001821908d9060040162002ce9565b600060405180830381600087803b1580156200183c57600080fd5b505af115801562001851573d6000803e3d6000fd5b505060408051610120810182526001600160a01b038d16815260208101869052925082019050620018838f8062003231565b8080601f016020809104026020016040519081016040528093929190818152602001838380828437600081840152601f19601f820116905080830192505050505050508152602001896001600160a01b03168152602001886001600160a01b03168152602001876001600160a01b03168152602001856001600160a01b03168152602001866001600160a01b03168152602001846001600160a01b03168152509b508b8b600c0160008b6001600160a01b03166001600160a01b0316815260200190815260200160002060008201518160000160006101000a8154816001600160a01b0302191690836001600160a01b031602179055506020820151816001015560408201518160020190816200199b91906200366e565b5060608201518160030160006101000a8154816001600160a01b0302191690836001600160a01b0316021790555060808201518160040160006101000a8154816001600160a01b0302191690836001600160a01b0316021790555060a08201518160050160006101000a8154816001600160a01b0302191690836001600160a01b0316021790555060c08201518160060160006101000a8154816001600160a01b0302191690836001600160a01b0316021790555060e08201518160070160006101000a8154816001600160a01b0302191690836001600160a01b031602179055506101008201518160080160006101000a8154816001600160a01b0302191690836001600160a01b031602179055509050508a600b018c908060018154018082558091505060019003906000526020600020906009020160009091909190915060008201518160000160006101000a8154816001600160a01b0302191690836001600160a01b0316021790555060208201518160010155604082015181600201908162001b2a91906200366e565b5060608201518160030160006101000a8154816001600160a01b0302191690836001600160a01b0316021790555060808201518160040160006101000a8154816001600160a01b0302191690836001600160a01b0316021790555060a08201518160050160006101000a8154816001600160a01b0302191690836001600160a01b0316021790555060c08201518160060160006101000a8154816001600160a01b0302191690836001600160a01b0316021790555060e08201518160070160006101000a8154816001600160a01b0302191690836001600160a01b031602179055506101008201518160080160006101000a8154816001600160a01b0302191690836001600160a01b0316021790555050507f3163bceb365c85326c53476ceb0b49cfacb67f6d675e6eeb739c58ceb8b20bb689888888888f8960405162001cb497969594939291906001600160a01b03978816815295871660208701529386166040860152918516606085015284166080840152831660a083015290911660c082015260e00190565b60405180910390a15050505050505050505050919050565b7f9016d09d72d40fdae2fd8ceac6b6234c7706214fd39c1cd1e609a0528c199300546001600160a01b031690565b62001d04620022da565b601e8151111562001d4b5760405162461bcd60e51b815260206004820152601060248201526f06d6178206167656e74732069732033360841b604482015260640162000709565b600062001d57620022b6565b905060005b825181101562001e165760006001600160a01b031683828151811062001d865762001d86620031ad565b60200260200101516001600160a01b03160362001db75760405162461bcd60e51b815260040162000709906200317e565b8160090183828151811062001dd05762001dd0620031ad565b60209081029190910181015182546001808201855560009485529290932090920180546001600160a01b0319166001600160a01b03909316929092179091550162001d5c565b507f841421fc38b9d27338042dbea7f73d4c58c28c36fc74c5a5aa3d363043e76fae8260405162001e48919062002c52565b60405180910390a15050565b6060600062001e62620022b6565b600b810180546040805160208084028201810190925282815293945060009084015b8282101562001fc957600084815260209081902060408051610120810182526009860290920180546001600160a01b031683526001810154938301939093526002830180549293929184019162001edb90620030ee565b80601f016020809104026020016040519081016040528092919081815260200182805462001f0990620030ee565b801562001f5a5780601f1062001f2e5761010080835404028352916020019162001f5a565b820191906000526020600020905b81548152906001019060200180831162001f3c57829003601f168201915b505050918352505060038201546001600160a01b039081166020808401919091526004840154821660408401526005840154821660608401526006840154821660808401526007840154821660a08401526008909301541660c090910152908252600192909201910162001e84565b5050505091505090565b62001fdd620022da565b6001600160a01b0381166200200a576000604051631e4fbdf760e01b815260040162000709919062002ce9565b620020158162002311565b50565b7ff0c57e16840df040f15088dc2f81fe391c3923bec73e23a9662efc9c229c6a008054600160401b810460ff1615906001600160401b03166000811580156200205e5750825b90506000826001600160401b031660011480156200207b5750303b155b9050811580156200208a575080155b15620020a95760405163f92ee8a960e01b815260040160405180910390fd5b845467ffffffffffffffff191660011785558315620020d457845460ff60401b1916600160401b1785555b620020df3362002a84565b6000620020eb620022b6565b90508e8160000160006101000a8154816001600160a01b0302191690836001600160a01b031602179055508d8160010160006101000a8154816001600160a01b0302191690836001600160a01b031602179055508c8160020160006101000a8154816001600160a01b0302191690836001600160a01b03160217905550888160030160006101000a8154816001600160a01b0302191690836001600160a01b031602179055508b8160040160006101000a8154816001600160a01b0302191690836001600160a01b031602179055508a8160050160006101000a8154816001600160a01b0302191690836001600160a01b03160217905550878160060160006101000a8154816001600160a01b0302191690836001600160a01b03160217905550898160070160006101000a8154816001600160a01b0302191690836001600160a01b03160217905550868160080160006101000a8154816001600160a01b0302191690836001600160a01b03160217905550508315620022a657845460ff60401b19168555604051600181527fc7f505b2f371ae2175ee4913f4499e1f2633a7b5936321eed1cdaeb6115181d29060200160405180910390a15b5050505050505050505050505050565b7f0f40dde8b99b0722537b774c6ef775b5e5a0af035d95bf9802cd87411f806f0090565b33620022e562001ccc565b6001600160a01b03161462000abe573360405163118cdaa760e01b815260040162000709919062002ce9565b7f9016d09d72d40fdae2fd8ceac6b6234c7706214fd39c1cd1e609a0528c19930080546001600160a01b031981166001600160a01b03848116918217845560405192169182907f8be0079c531659141344cd1fd0a4f28419497f9722a3daafe3b4186f6b6457e090600090a3505050565b6060600062002390620022b6565b6009810154909150600090620023a89060026200373a565b6001600160401b03811115620023c257620023c262002eaf565b604051908082528060200260200182016040528015620023ec578160200160208202803683370190505b50905060005b60098301548110156200246b57826009018181548110620024175762002417620031ad565b9060005260206000200160009054906101000a90046001600160a01b03168282815181106200244a576200244a620031ad565b6001600160a01b0390921660209283029190910190910152600101620023f2565b503081600183516200247e9190620031d9565b81518110620024915762002491620031ad565b60200260200101906001600160a01b031690816001600160a01b031681525050338160028351620024c39190620031d9565b81518110620024d657620024d6620031ad565b6001600160a01b039092166020928302919091019091015292915050565b6060600062002502620022b6565b600a8101549091506000906200251a9060026200373a565b6001600160401b0381111562002534576200253462002eaf565b6040519080825280602002602001820160405280156200255e578160200160208202803683370190505b50905060005b600a8301548110156200246b5782600a018181548110620025895762002589620031ad565b9060005260206000200160009054906101000a90046001600160a01b0316828281518110620025bc57620025bc620031ad565b6001600160a01b039092166020928302919091019091015260010162002564565b6000806000620025ee858562002a99565b6040516001600160601b0319606084811b8216602084015283901b16603482015291935091508690604801604051602081830303815290604052805190602001206040516020016200268d9291906001600160f81b0319815260609290921b6001600160601b031916600183015260158201527fdea1222ed22817f96ed20157be156c80808da15c079040548d4487a79708fe8e603582015260550190565b60408051601f1981840301815291905280516020909101209695505050505050565b6000620026bb620022b6565b905060008160040160009054906101000a90046001600160a01b031690506000846001600160a01b031663134e18f46040518163ffffffff1660e01b8152600401602060405180830381865afa1580156200271a573d6000803e3d6000fd5b505050506040513d601f19601f82011682018060405250810190620027409190620030ce565b905060005b845181101562002a7b576000836001600160a01b03166378e751a66040518163ffffffff1660e01b8152600401602060405180830381865afa15801562002790573d6000803e3d6000fd5b505050506040513d601f19601f82011682018060405250810190620027b69190620030ce565b6001600160a01b0316632fea7b81878481518110620027d957620027d9620031ad565b60200260200101516040518263ffffffff1660e01b8152600401620027ff919062002ce9565b602060405180830381865afa1580156200281d573d6000803e3d6000fd5b505050506040513d601f19601f82011682018060405250810190620028439190620030ce565b90506103486001600160a01b038216620028ea57846001600160a01b0316633e8e6e8b8885815181106200287b576200287b620031ad565b60200260200101516040518263ffffffff1660e01b8152600401620028a1919062002ce9565b6020604051808303816000875af1158015620028c1573d6000803e3d6000fd5b505050506040513d601f19601f82011682018060405250810190620028e79190620030ce565b91505b60006001600160a01b0316846001600160a01b031663f0eb5e54898681518110620029195762002919620031ad565b60200260200101516040518263ffffffff1660e01b81526004016200293f919062002ce9565b602060405180830381865afa1580156200295d573d6000803e3d6000fd5b505050506040513d601f19601f82011682018060405250810190620029839190620030ce565b6001600160a01b03160362002a7057836001600160a01b031663454a03e0888581518110620029b657620029b6620031ad565b602002602001015184846040518463ffffffff1660e01b8152600401620029e0939291906200312a565b600060405180830381600087803b158015620029fb57600080fd5b505af115801562002a10573d6000803e3d6000fd5b505050507f6680dc6d23915f02197cb4ac29f4b00443a14ca1cbe22d6b93045c32b98a82378988858151811062002a4b5762002a4b620031ad565b6020026020010151848460405162002a67949392919062003151565b60405180910390a15b505060010162002745565b50505050505050565b62002a8e62002b96565b620020158162002be0565b600080826001600160a01b0316846001600160a01b03160362002b0d5760405162461bcd60e51b815260206004820152602560248201527f556e697377617056324c6962726172793a204944454e544943414c5f41444452604482015264455353455360d81b606482015260840162000709565b826001600160a01b0316846001600160a01b03161062002b2f57828462002b32565b83835b90925090506001600160a01b03821662002b8f5760405162461bcd60e51b815260206004820152601e60248201527f556e697377617056324c6962726172793a205a45524f5f414444524553530000604482015260640162000709565b9250929050565b7ff0c57e16840df040f15088dc2f81fe391c3923bec73e23a9662efc9c229c6a0054600160401b900460ff1662000abe57604051631afcd79f60e31b815260040160405180910390fd5b62001fdd62002b96565b604080516101208101825260008082526020820181905260609282018390529181018290526080810182905260a0810182905260c0810182905260e0810182905261010081019190915290565b6105bf806200375183390190565b6001600160a01b03169052565b6020808252825182820181905260009190848201906040850190845b8181101562002c955783516001600160a01b03168352928401929184019160010162002c6e565b50909695505050505050565b6001600160a01b03811681146200201557600080fd5b803562002cc48162002ca1565b919050565b60006020828403121562002cdc57600080fd5b8135620004128162002ca1565b6001600160a01b0391909116815260200190565b60008060006060848603121562002d1357600080fd5b833562002d208162002ca1565b9250602084013562002d328162002ca1565b9150604084013561ffff8116811462002d4a57600080fd5b809150509250925092565b6000815180845260005b8181101562002d7d5760208185018101518683018201520162002d5f565b506000602082860101526020601f19601f83011685010191505092915050565b600061012060018060a01b03835116845260208301516020850152604083015181604086015262002dd18286018262002d55565b915050606083015162002de8606086018262002c45565b50608083015162002dfd608086018262002c45565b5060a083015162002e1260a086018262002c45565b5060c083015162002e2760c086018262002c45565b5060e083015162002e3c60e086018262002c45565b506101008084015162002e528287018262002c45565b5090949350505050565b60208152600062000412602083018462002d9d565b60006020828403121562002e8457600080fd5b81356001600160401b0381111562002e9b57600080fd5b820161022081850312156200041257600080fd5b634e487b7160e01b600052604160045260246000fd5b6000602080838503121562002ed957600080fd5b82356001600160401b038082111562002ef157600080fd5b818501915085601f83011262002f0657600080fd5b81358181111562002f1b5762002f1b62002eaf565b8060051b604051601f19603f8301168101818110858211171562002f435762002f4362002eaf565b60405291825284820192508381018501918883111562002f6257600080fd5b938501935b8285101562002f8b5762002f7b8562002cb7565b8452938501939285019262002f67565b98975050505050505050565b600060208083016020845280855180835260408601915060408160051b87010192506020870160005b8281101562002ff257603f1988860301845262002fdf85835162002d9d565b9450928501929085019060010162002fc0565b5092979650505050505050565b60008060008060008060008060006101208a8c0312156200301f57600080fd5b89356200302c8162002ca1565b985060208a01356200303e8162002ca1565b975060408a0135620030508162002ca1565b965060608a0135620030628162002ca1565b955060808a0135620030748162002ca1565b945060a08a0135620030868162002ca1565b935060c08a0135620030988162002ca1565b925060e08a0135620030aa8162002ca1565b91506101008a0135620030bd8162002ca1565b809150509295985092959850929598565b600060208284031215620030e157600080fd5b8151620004128162002ca1565b600181811c908216806200310357607f821691505b6020821081036200312457634e487b7160e01b600052602260045260246000fd5b50919050565b6001600160a01b03938416815291909216602082015261ffff909116604082015260600190565b6001600160a01b03948516815292841660208401529216604082015261ffff909116606082015260800190565b602080825260159082015274496e76616c6964206167656e74206164647265737360581b604082015260600190565b634e487b7160e01b600052603260045260246000fd5b634e487b7160e01b600052601160045260246000fd5b81810381811115620031ef57620031ef620031c3565b92915050565b634e487b7160e01b600052603160045260246000fd5b6001600160a01b0383168152604060208201819052600090620003839083018462002d55565b6000808335601e198436030181126200324957600080fd5b8301803591506001600160401b038211156200326457600080fd5b60200191503681900382131562002b8f57600080fd5b6000602082840312156200328d57600080fd5b813560ff811681146200041257600080fd5b60008151808452602080850194506020840160005b83811015620032db5781516001600160a01b031687529582019590820190600101620032b4565b509495945050505050565b602080825282516001600160a01b0316828201528201516000906200330f604084018262002c45565b50604083015160e060608401526200332c61010084018262002d55565b90506060840151601f19808584030160808601526200334c838362002d55565b9250608086015191506200336560a086018360ff169052565b60a08601519150808584030160c08601526200338283836200329f565b925060c08601519150808584030160e086015250620033a282826200329f565b95945050505050565b600060208284031215620033be57600080fd5b813563ffffffff811681146200041257600080fd5b60208152620033e760208201835162002c45565b600060208301516101408060408501526200340761016085018362002d55565b91506040850151601f1985840301606086015262003426838262002d55565b92505060608501516200343d608086018262002c45565b5060808501516200345260a086018262002c45565b5060a085015160c085015260c08501516200347160e086018262002c45565b5060e0850151610100620034888187018362002c45565b8601519050610120620034a28682018363ffffffff169052565b86015163ffffffff811683870152905062002e52565b60208152600060018060a01b03808451166020840152806020850151166040840152604084015160c06060850152620034f560e085018262002d55565b90508160608601511660808501528160808601511660a08501528160a08601511660c0850152809250505092915050565b60208152600060018060a01b03808451166020840152806020850151166040840152806040850151166060840152606084015160c060808501526200356f60e085018262002d55565b90506080850151601f198583030160a08601526200358e828262002d55565b9150508160a08601511660c0850152809250505092915050565b6001600160a01b03841681526040602082018190528101829052818360608301376000818301606090810191909152601f909201601f1916010192915050565b600060208284031215620035fb57600080fd5b5051919050565b9182526001600160a01b0316602082015260400190565b601f82111562003669576000816000526020600020601f850160051c81016020861015620036445750805b601f850160051c820191505b81811015620036655782815560010162003650565b5050505b505050565b81516001600160401b038111156200368a576200368a62002eaf565b620036a2816200369b8454620030ee565b8462003619565b602080601f831160018114620036da5760008415620036c15750858301515b600019600386901b1c1916600185901b17855562003665565b600085815260208120601f198616915b828110156200370b57888601518255948401946001909101908401620036ea565b50858210156200372a5787850151600019600388901b60f8161c191681555b5050505050600190811b01905550565b80820180821115620031ef57620031ef620031c356fe60a06040526040516105bf3803806105bf83398101604081905261002291610387565b61002c828261003e565b506001600160a01b031660805261047e565b610047826100fe565b6040516001600160a01b038316907f1cf3b03a6cf19fa2baba4df148e9dcabedea7f8a5c07840e207e5c089be95d3e90600090a28051156100f2576100ed826001600160a01b0316635c60da1b6040518163ffffffff1660e01b8152600401602060405180830381865afa1580156100c3573d6000803e3d6000fd5b505050506040513d601f19601f820116820180604052508101906100e79190610447565b82610211565b505050565b6100fa610288565b5050565b806001600160a01b03163b60000361013957604051631933b43b60e21b81526001600160a01b03821660048201526024015b60405180910390fd5b807fa3f0ad74e5423aebfd80d3ef4346578335a9a72aeaee59ff6cb3582b35133d5080546001600160a01b0319166001600160a01b0392831617905560408051635c60da1b60e01b81529051600092841691635c60da1b9160048083019260209291908290030181865afa1580156101b5573d6000803e3d6000fd5b505050506040513d601f19601f820116820180604052508101906101d99190610447565b9050806001600160a01b03163b6000036100fa57604051634c9c8ce360e01b81526001600160a01b0382166004820152602401610130565b6060600080846001600160a01b03168460405161022e9190610462565b600060405180830381855af49150503d8060008114610269576040519150601f19603f3d011682016040523d82523d6000602084013e61026e565b606091505b50909250905061027f8583836102a9565b95945050505050565b34156102a75760405163b398979f60e01b815260040160405180910390fd5b565b6060826102be576102b982610308565b610301565b81511580156102d557506001600160a01b0384163b155b156102fe57604051639996b31560e01b81526001600160a01b0385166004820152602401610130565b50805b9392505050565b8051156103185780518082602001fd5b604051630a12f52160e11b815260040160405180910390fd5b80516001600160a01b038116811461034857600080fd5b919050565b634e487b7160e01b600052604160045260246000fd5b60005b8381101561037e578181015183820152602001610366565b50506000910152565b6000806040838503121561039a57600080fd5b6103a383610331565b60208401519092506001600160401b03808211156103c057600080fd5b818501915085601f8301126103d457600080fd5b8151818111156103e6576103e661034d565b604051601f8201601f19908116603f0116810190838211818310171561040e5761040e61034d565b8160405282815288602084870101111561042757600080fd5b610438836020830160208801610363565b80955050505050509250929050565b60006020828403121561045957600080fd5b61030182610331565b60008251610474818460208701610363565b9190910192915050565b6080516101276104986000396000601e01526101276000f3fe6080604052600a600c565b005b60186014601a565b60a0565b565b60007f00000000000000000000000000000000000000000000000000000000000000006001600160a01b0316635c60da1b6040518163ffffffff1660e01b8152600401602060405180830381865afa1580156079573d6000803e3d6000fd5b505050506040513d601f19601f82011682018060405250810190609b919060c3565b905090565b3660008037600080366000845af43d6000803e80801560be573d6000f35b3d6000fd5b60006020828403121560d457600080fd5b81516001600160a01b038116811460ea57600080fd5b939250505056fea26469706673582212205c8a2fcdc6f79c1d43b849e2b03f494652cee222b2ec86046b7caaa1405f985f64736f6c63430008180033a26469706673582212204c49f68157dd09df4df3d77cfa5627545526f40bf8a5859e0742192ff08ecd4664736f6c63430008180033",
  "linkReferences": {
    "contracts/buildings/library/BuildingAutoCompounder.sol": {
      "BuildingAutoCompounderLib": [
        {
          "length": 20,
          "start": 4691
        }
      ]
    },
    "contracts/buildings/library/BuildingGovernance.sol": {
      "BuildingGovernanceLib": [
        {
          "length": 20,
          "start": 4445
        }
      ]
    },
    "contracts/buildings/library/BuildingToken.sol": {
      "BuildingTokenLib": [
        {
          "length": 20,
          "start": 3312
        }
      ]
    },
    "contracts/buildings/library/BuildingTreasury.sol": {
      "BuildingTreasuryLib": [
        {
          "length": 20,
          "start": 3747
        }
      ]
    },
    "contracts/buildings/library/BuildingVault.sol": {
      "BuildingVaultLib": [
        {
          "length": 20,
          "start": 3947
        }
      ]
    }
  },
  "deployedLinkReferences": {
    "contracts/buildings/library/BuildingAutoCompounder.sol": {
      "BuildingAutoCompounderLib": [
        {
          "length": 20,
          "start": 4461
        }
      ]
    },
    "contracts/buildings/library/BuildingGovernance.sol": {
      "BuildingGovernanceLib": [
        {
          "length": 20,
          "start": 4215
        }
      ]
    },
    "contracts/buildings/library/BuildingToken.sol": {
      "BuildingTokenLib": [
        {
          "length": 20,
          "start": 3082
        }
      ]
    },
    "contracts/buildings/library/BuildingTreasury.sol": {
      "BuildingTreasuryLib": [
        {
          "length": 20,
          "start": 3517
        }
      ]
    },
    "contracts/buildings/library/BuildingVault.sol": {
      "BuildingVaultLib": [
        {
          "length": 20,
          "start": 3717
        }
      ]
    }
  }
}