{
  "_format": "hh-sol-artifact-1",
  "contractName": "BuildingFactoryMock",
  "sourceName": "contracts/buildings/mock/BuildingFactoryMock.sol",
  "abi": [
    {
      "inputs": [],
      "name": "InvalidInitialization",
      "type": "error"
    },
    {
      "inputs": [],
      "name": "NotInitializing",
      "type": "error"
    },
    {
      "inputs": [
        {
          "internalType": "address",
          "name": "owner",
          "type": "address"
        }
      ],
      "name": "OwnableInvalidOwner",
      "type": "error"
    },
    {
      "inputs": [
        {
          "internalType": "address",
          "name": "account",
          "type": "address"
        }
      ],
      "name": "OwnableUnauthorizedAccount",
      "type": "error"
    },
    {
      "anonymous": false,
      "inputs": [
        {
          "indexed": false,
          "internalType": "address",
          "name": "building",
          "type": "address"
        },
        {
          "indexed": false,
          "internalType": "address",
          "name": "module",
          "type": "address"
        }
      ],
      "name": "ComplianceModuleAdded",
      "type": "event"
    },
    {
      "anonymous": false,
      "inputs": [
        {
          "indexed": false,
          "internalType": "address",
          "name": "building",
          "type": "address"
        },
        {
          "indexed": false,
          "internalType": "address",
          "name": "wallet",
          "type": "address"
        },
        {
          "indexed": false,
          "internalType": "address",
          "name": "identity",
          "type": "address"
        },
        {
          "indexed": false,
          "internalType": "uint16",
          "name": "country",
          "type": "uint16"
        }
      ],
      "name": "IdentityRegistered",
      "type": "event"
    },
    {
      "anonymous": false,
      "inputs": [
        {
          "indexed": false,
          "internalType": "uint64",
          "name": "version",
          "type": "uint64"
        }
      ],
      "name": "Initialized",
      "type": "event"
    },
    {
      "anonymous": false,
      "inputs": [
        {
          "indexed": false,
          "internalType": "address",
          "name": "buildingAddress",
          "type": "address"
        },
        {
          "indexed": false,
          "internalType": "address",
          "name": "erc3643Token",
          "type": "address"
        },
        {
          "indexed": false,
          "internalType": "address",
          "name": "treasury",
          "type": "address"
        },
        {
          "indexed": false,
          "internalType": "address",
          "name": "vault",
          "type": "address"
        },
        {
          "indexed": false,
          "internalType": "address",
          "name": "governance",
          "type": "address"
        },
        {
          "indexed": false,
          "internalType": "address",
          "name": "initialOwner",
          "type": "address"
        },
        {
          "indexed": false,
          "internalType": "address",
          "name": "autoCompounder",
          "type": "address"
        }
      ],
      "name": "NewBuilding",
      "type": "event"
    },
    {
      "anonymous": false,
      "inputs": [
        {
          "indexed": true,
          "internalType": "address",
          "name": "previousOwner",
          "type": "address"
        },
        {
          "indexed": true,
          "internalType": "address",
          "name": "newOwner",
          "type": "address"
        }
      ],
      "name": "OwnershipTransferred",
      "type": "event"
    },
    {
      "anonymous": false,
      "inputs": [
        {
          "indexed": false,
          "internalType": "address",
          "name": "agent",
          "type": "address"
        }
      ],
      "name": "RegistryAgentRemoved",
      "type": "event"
    },
    {
      "anonymous": false,
      "inputs": [
        {
          "indexed": false,
          "internalType": "address[]",
          "name": "agents",
          "type": "address[]"
        }
      ],
      "name": "RegistryAgentsAdded",
      "type": "event"
    },
    {
      "inputs": [
        {
          "internalType": "address[]",
          "name": "agents",
          "type": "address[]"
        }
      ],
      "name": "addRegistryAgents",
      "outputs": [],
      "stateMutability": "nonpayable",
      "type": "function"
    },
    {
      "inputs": [
        {
          "internalType": "address",
          "name": "wallet",
          "type": "address"
        }
      ],
      "name": "deployIdentityForWallet",
      "outputs": [
        {
          "internalType": "address",
          "name": "",
          "type": "address"
        }
      ],
      "stateMutability": "nonpayable",
      "type": "function"
    },
    {
      "inputs": [
        {
          "internalType": "address",
          "name": "buildingAddress",
          "type": "address"
        }
      ],
      "name": "getBuildingDetails",
      "outputs": [
        {
          "components": [
            {
              "internalType": "address",
              "name": "addr",
              "type": "address"
            },
            {
              "internalType": "uint256",
              "name": "nftId",
              "type": "uint256"
            },
            {
              "internalType": "string",
              "name": "tokenURI",
              "type": "string"
            },
            {
              "internalType": "address",
              "name": "auditRegistry",
              "type": "address"
            },
            {
              "internalType": "address",
              "name": "erc3643Token",
              "type": "address"
            },
            {
              "internalType": "address",
              "name": "treasury",
              "type": "address"
            },
            {
              "internalType": "address",
              "name": "governance",
              "type": "address"
            },
            {
              "internalType": "address",
              "name": "vault",
              "type": "address"
            },
            {
              "internalType": "address",
              "name": "autoCompounder",
              "type": "address"
            }
          ],
          "internalType": "struct BuildingFactoryStorage.BuildingDetails",
          "name": "",
          "type": "tuple"
        }
      ],
      "stateMutability": "view",
      "type": "function"
    },
    {
      "inputs": [],
      "name": "getBuildingList",
      "outputs": [
        {
          "components": [
            {
              "internalType": "address",
              "name": "addr",
              "type": "address"
            },
            {
              "internalType": "uint256",
              "name": "nftId",
              "type": "uint256"
            },
            {
              "internalType": "string",
              "name": "tokenURI",
              "type": "string"
            },
            {
              "internalType": "address",
              "name": "auditRegistry",
              "type": "address"
            },
            {
              "internalType": "address",
              "name": "erc3643Token",
              "type": "address"
            },
            {
              "internalType": "address",
              "name": "treasury",
              "type": "address"
            },
            {
              "internalType": "address",
              "name": "governance",
              "type": "address"
            },
            {
              "internalType": "address",
              "name": "vault",
              "type": "address"
            },
            {
              "internalType": "address",
              "name": "autoCompounder",
              "type": "address"
            }
          ],
          "internalType": "struct BuildingFactoryStorage.BuildingDetails[]",
          "name": "",
          "type": "tuple[]"
        }
      ],
      "stateMutability": "view",
      "type": "function"
    },
    {
      "inputs": [
        {
          "internalType": "address",
          "name": "wallet",
          "type": "address"
        }
      ],
      "name": "getIdentity",
      "outputs": [
        {
          "internalType": "contract IIdentity",
          "name": "",
          "type": "address"
        }
      ],
      "stateMutability": "view",
      "type": "function"
    },
    {
      "inputs": [],
      "name": "getRegistryAgents",
      "outputs": [
        {
          "internalType": "address[]",
          "name": "",
          "type": "address[]"
        }
      ],
      "stateMutability": "view",
      "type": "function"
    },
    {
      "inputs": [
        {
          "internalType": "address",
          "name": "_nft",
          "type": "address"
        },
        {
          "internalType": "address",
          "name": "_uniswapRouter",
          "type": "address"
        },
        {
          "internalType": "address",
          "name": "_uniswapFactory",
          "type": "address"
        },
        {
          "internalType": "address",
          "name": "_onchainIdGateway",
          "type": "address"
        },
        {
          "internalType": "address",
          "name": "_trexGateway",
          "type": "address"
        },
        {
          "internalType": "address",
          "name": "_usdc",
          "type": "address"
        },
        {
          "internalType": "address",
          "name": "_buildingBeacon",
          "type": "address"
        },
        {
          "internalType": "address",
          "name": "_treasuryBeacon",
          "type": "address"
        },
        {
          "internalType": "address",
          "name": "_governanceBeacon",
          "type": "address"
        }
      ],
      "name": "initialize",
      "outputs": [],
      "stateMutability": "nonpayable",
      "type": "function"
    },
    {
      "inputs": [
        {
          "components": [
            {
              "internalType": "string",
              "name": "tokenURI",
              "type": "string"
            },
            {
              "internalType": "string",
              "name": "tokenName",
              "type": "string"
            },
            {
              "internalType": "string",
              "name": "tokenSymbol",
              "type": "string"
            },
            {
              "internalType": "uint8",
              "name": "tokenDecimals",
              "type": "uint8"
            },
            {
              "internalType": "uint256",
              "name": "tokenMintAmount",
              "type": "uint256"
            },
            {
              "internalType": "uint256",
              "name": "treasuryReserveAmount",
              "type": "uint256"
            },
            {
              "internalType": "uint256",
              "name": "treasuryNPercent",
              "type": "uint256"
            },
            {
              "internalType": "string",
              "name": "governanceName",
              "type": "string"
            },
            {
              "internalType": "string",
              "name": "vaultShareTokenName",
              "type": "string"
            },
            {
              "internalType": "string",
              "name": "vaultShareTokenSymbol",
              "type": "string"
            },
            {
              "internalType": "address",
              "name": "vaultFeeReceiver",
              "type": "address"
            },
            {
              "internalType": "address",
              "name": "vaultFeeToken",
              "type": "address"
            },
            {
              "internalType": "uint256",
              "name": "vaultFeePercentage",
              "type": "uint256"
            },
            {
              "internalType": "uint32",
              "name": "vaultCliff",
              "type": "uint32"
            },
            {
              "internalType": "uint32",
              "name": "vaultUnlockDuration",
              "type": "uint32"
            },
            {
              "internalType": "string",
              "name": "aTokenName",
              "type": "string"
            },
            {
              "internalType": "string",
              "name": "aTokenSymbol",
              "type": "string"
            }
          ],
          "internalType": "struct BuildingFactoryStorage.NewBuildingDetails",
          "name": "details",
          "type": "tuple"
        }
      ],
      "name": "newBuilding",
      "outputs": [
        {
          "components": [
            {
              "internalType": "address",
              "name": "addr",
              "type": "address"
            },
            {
              "internalType": "uint256",
              "name": "nftId",
              "type": "uint256"
            },
            {
              "internalType": "string",
              "name": "tokenURI",
              "type": "string"
            },
            {
              "internalType": "address",
              "name": "auditRegistry",
              "type": "address"
            },
            {
              "internalType": "address",
              "name": "erc3643Token",
              "type": "address"
            },
            {
              "internalType": "address",
              "name": "treasury",
              "type": "address"
            },
            {
              "internalType": "address",
              "name": "governance",
              "type": "address"
            },
            {
              "internalType": "address",
              "name": "vault",
              "type": "address"
            },
            {
              "internalType": "address",
              "name": "autoCompounder",
              "type": "address"
            }
          ],
          "internalType": "struct BuildingFactoryStorage.BuildingDetails",
          "name": "buildingDetails",
          "type": "tuple"
        }
      ],
      "stateMutability": "nonpayable",
      "type": "function"
    },
    {
      "inputs": [],
      "name": "owner",
      "outputs": [
        {
          "internalType": "address",
          "name": "",
          "type": "address"
        }
      ],
      "stateMutability": "view",
      "type": "function"
    },
    {
      "inputs": [
        {
          "internalType": "address",
          "name": "buildingAddress",
          "type": "address"
        },
        {
          "internalType": "address",
          "name": "wallet",
          "type": "address"
        },
        {
          "internalType": "uint16",
          "name": "country",
          "type": "uint16"
        }
      ],
      "name": "registerIdentity",
      "outputs": [],
      "stateMutability": "nonpayable",
      "type": "function"
    },
    {
      "inputs": [
        {
          "internalType": "address",
          "name": "agent",
          "type": "address"
        }
      ],
      "name": "removeRegistryAgent",
      "outputs": [],
      "stateMutability": "nonpayable",
      "type": "function"
    },
    {
      "inputs": [],
      "name": "renounceOwnership",
      "outputs": [],
      "stateMutability": "nonpayable",
      "type": "function"
    },
    {
      "inputs": [
        {
          "internalType": "address",
          "name": "newOwner",
          "type": "address"
        }
      ],
      "name": "transferOwnership",
      "outputs": [],
      "stateMutability": "nonpayable",
      "type": "function"
    },
    {
      "inputs": [],
      "name": "version",
      "outputs": [
        {
          "internalType": "string",
          "name": "",
          "type": "string"
        }
      ],
      "stateMutability": "pure",
      "type": "function"
    }
  ],
  "bytecode": "0x60806040523480156200001157600080fd5b506200001c62000022565b620000d6565b7ff0c57e16840df040f15088dc2f81fe391c3923bec73e23a9662efc9c229c6a00805468010000000000000000900460ff1615620000735760405163f92ee8a960e01b815260040160405180910390fd5b80546001600160401b0390811614620000d35780546001600160401b0319166001600160401b0390811782556040519081527fc7f505b2f371ae2175ee4913f4499e1f2633a7b5936321eed1cdaeb6115181d29060200160405180910390a15b50565b613eb080620000e66000396000f3fe60806040523480156200001157600080fd5b5060043610620000da5760003560e01c8063715018a61162000086578063715018a614620001bb578063899a0ebe14620001c55780638da5cb5b14620001dc578063d5f51ccd14620001e6578063db652ec814620001fd578063f2fde38b1462000216578063f5e95acb146200022d57600080fd5b806240c4b014620000df5780632fea7b8114620001015780633e8e6e8b1462000127578063454a03e0146200013e57806354fd4d501462000157578063665fa4a1146200017e57806370fb525714620001a4575b600080fd5b620000e962000244565b604051620000f8919062002dae565b60405180910390f35b620001186200011236600462002e25565b620002b4565b604051620000f8919062002e45565b620001186200013836600462002e25565b620003be565b620001556200014f36600462002e59565b6200044c565b005b60408051808201825260038152620322e360ec1b60208201529051620000f8919062002ef9565b620001956200018f36600462002e25565b620007f5565b604051620000f8919062002fcd565b62000155620001b536600462002e25565b62000945565b6200015562000adb565b62000195620001d636600462002fe2565b62000af3565b6200011862000b0e565b62000155620001f736600462003036565b62000b3c565b6200020762000c96565b604051620000f8919062003108565b620001556200022736600462002e25565b62000e15565b620001556200023e36600462003170565b62000e5a565b606060006200025262000f6f565b60098101805460408051602080840282018101909252828152939450830182828015620002a957602002820191906000526020600020905b81546001600160a01b031681526001909101906020018083116200028a575b505050505091505090565b600080620002c162000f6f565b905060008160040160009054906101000a90046001600160a01b03166001600160a01b03166378e751a66040518163ffffffff1660e01b8152600401602060405180830381865afa1580156200031b573d6000803e3d6000fd5b505050506040513d601f19601f820116820180604052508101906200034191906200323f565b604051632fea7b8160e01b81529091506001600160a01b03821690632fea7b81906200037290879060040162002e45565b602060405180830381865afa15801562000390573d6000803e3d6000fd5b505050506040513d601f19601f82011682018060405250810190620003b691906200323f565b949350505050565b600080620003cb62000f6f565b600480820154604051633e8e6e8b60e01b81529293506001600160a01b031691633e8e6e8b91620003ff9187910162002e45565b6020604051808303816000875af11580156200041f573d6000803e3d6000fd5b505050506040513d601f19601f820116820180604052508101906200044591906200323f565b9392505050565b60006200045862000f6f565b6001600160a01b038086166000908152600c830160209081526040808320815161012081018352815490951685526001810154928501929092526002820180549596509294919290840191620004ae906200325f565b80601f0160208091040260200160405190810160405280929190818152602001828054620004dc906200325f565b80156200052d5780601f1062000501576101008083540402835291602001916200052d565b820191906000526020600020905b8154815290600101906020018083116200050f57829003601f168201915b505050918352505060038201546001600160a01b039081166020808401919091526004808501548316604080860191909152600586015484166060860152600686015484166080808701919091526007870154851660a0870152600890960154841660c09095019490945293850151878501548451633c73a8d360e11b81529451969750909560009591909316936378e751a693818301939290918290030181865afa158015620005e2573d6000803e3d6000fd5b505050506040513d601f19601f820116820180604052508101906200060891906200323f565b90506000826001600160a01b031663134e18f46040518163ffffffff1660e01b8152600401602060405180830381865afa1580156200064b573d6000803e3d6000fd5b505050506040513d601f19601f820116820180604052508101906200067191906200323f565b90506000826001600160a01b0316632fea7b81896040518263ffffffff1660e01b8152600401620006a3919062002e45565b602060405180830381865afa158015620006c1573d6000803e3d6000fd5b505050506040513d601f19601f82011682018060405250810190620006e791906200323f565b90506001600160a01b038116620007455760405162461bcd60e51b815260206004820152601d60248201527f4964656e7469747920666f722077616c6c6574206e6f7420666f756e6400000060448201526064015b60405180910390fd5b60405163022a501f60e51b81526001600160a01b0383169063454a03e09062000777908b9085908c906004016200329b565b600060405180830381600087803b1580156200079257600080fd5b505af1158015620007a7573d6000803e3d6000fd5b505050507f6680dc6d23915f02197cb4ac29f4b00443a14ca1cbe22d6b93045c32b98a82378989838a604051620007e29493929190620032c2565b60405180910390a1505050505050505050565b620007ff62002d46565b60006200080b62000f6f565b6001600160a01b038085166000908152600c830160209081526040918290208251610120810184528154909416845260018101549184019190915260028101805494955092939092918401919062000863906200325f565b80601f016020809104026020016040519081016040528092919081815260200182805462000891906200325f565b8015620008e25780601f10620008b657610100808354040283529160200191620008e2565b820191906000526020600020905b815481529060010190602001808311620008c457829003601f168201915b505050918352505060038201546001600160a01b0390811660208301526004830154811660408301526005830154811660608301526006830154811660808301526007830154811660a083015260089092015490911660c0909101529392505050565b6200094f62000f93565b6001600160a01b038116620009785760405162461bcd60e51b81526004016200073c90620032ef565b60006200098462000f6f565b90506009810160005b815481101562000ad557836001600160a01b0316828281548110620009b657620009b66200331e565b6000918252602090912001546001600160a01b03160362000acc5781548290620009e3906001906200334a565b81548110620009f657620009f66200331e565b9060005260206000200160009054906101000a90046001600160a01b031682828154811062000a295762000a296200331e565b9060005260206000200160006101000a8154816001600160a01b0302191690836001600160a01b031602179055508180548062000a6a5762000a6a62003360565b600082815260209020810160001990810180546001600160a01b03191690550190556040517ffd640fa9b46f14c0708e03114f4007b6a72edb4389a12da691527d9ffb6d0de29062000abe90869062002e45565b60405180910390a162000ad5565b6001016200098d565b50505050565b62000ae562000f93565b62000af1600062000fca565b565b62000afd62002d46565b62000b08826200103b565b92915050565b7f9016d09d72d40fdae2fd8ceac6b6234c7706214fd39c1cd1e609a0528c199300546001600160a01b031690565b62000b4662000f93565b601e8151111562000b8d5760405162461bcd60e51b815260206004820152601060248201526f06d6178206167656e74732069732033360841b60448201526064016200073c565b600062000b9962000f6f565b905060005b825181101562000c585760006001600160a01b031683828151811062000bc85762000bc86200331e565b60200260200101516001600160a01b03160362000bf95760405162461bcd60e51b81526004016200073c90620032ef565b8160090183828151811062000c125762000c126200331e565b60209081029190910181015182546001808201855560009485529290932090920180546001600160a01b0319166001600160a01b03909316929092179091550162000b9e565b507f841421fc38b9d27338042dbea7f73d4c58c28c36fc74c5a5aa3d363043e76fae8260405162000c8a919062002dae565b60405180910390a15050565b6060600062000ca462000f6f565b600b810180546040805160208084028201810190925282815293945060009084015b8282101562000e0b57600084815260209081902060408051610120810182526009860290920180546001600160a01b031683526001810154938301939093526002830180549293929184019162000d1d906200325f565b80601f016020809104026020016040519081016040528092919081815260200182805462000d4b906200325f565b801562000d9c5780601f1062000d705761010080835404028352916020019162000d9c565b820191906000526020600020905b81548152906001019060200180831162000d7e57829003601f168201915b505050918352505060038201546001600160a01b039081166020808401919091526004840154821660408401526005840154821660608401526006840154821660808401526007840154821660a08401526008909301541660c090910152908252600192909201910162000cc6565b5050505091505090565b62000e1f62000f93565b6001600160a01b03811662000e4c576000604051631e4fbdf760e01b81526004016200073c919062002e45565b62000e578162000fca565b50565b600062000e6662002247565b805490915060ff600160401b82041615906001600160401b031660008115801562000e8e5750825b90506000826001600160401b0316600114801562000eab5750303b155b90508115801562000eba575080155b1562000ed95760405163f92ee8a960e01b815260040160405180910390fd5b845467ffffffffffffffff19166001178555831562000f0457845460ff60401b1916600160401b1785555b62000f178e8e8e8e8e8e8e8e8e6200226b565b831562000f5f57845460ff60401b19168555604051600181527fc7f505b2f371ae2175ee4913f4499e1f2633a7b5936321eed1cdaeb6115181d2906020015b60405180910390a15b5050505050505050505050505050565b7f0f40dde8b99b0722537b774c6ef775b5e5a0af035d95bf9802cd87411f806f0090565b3362000f9e62000b0e565b6001600160a01b03161462000af1573360405163118cdaa760e01b81526004016200073c919062002e45565b7f9016d09d72d40fdae2fd8ceac6b6234c7706214fd39c1cd1e609a0528c19930080546001600160a01b031981166001600160a01b03848116918217845560405192169182907f8be0079c531659141344cd1fd0a4f28419497f9722a3daafe3b4186f6b6457e090600090a3505050565b6200104562002d46565b60006200105162000f6f565b600381015460405191925033916000916001600160a01b03169063189acdbd60e31b906200108490859060240162002e45565b60408051601f198184030181529181526020820180516001600160e01b03166001600160e01b0319909416939093179092529051620010c39062002d93565b620010d092919062003376565b604051809103906000f080158015620010ed573d6000803e3d6000fd5b5090506000816001600160a01b031663bb6e15dc6040518163ffffffff1660e01b8152600401602060405180830381865afa15801562001131573d6000803e3d6000fd5b505050506040513d601f19601f820116820180604052508101906200115791906200323f565b6040805160e0810182526001600160a01b03808716825260058801541660208083019190915292935060009273__$6bcf1faf5c0920414dc51cd0daeb07e0f7$__92633af9cf1e929190820190620011b2908c018c6200339c565b8080601f016020809104026020016040519081016040528093929190818152602001838380828437600092019190915250505090825250602001620011fb60408c018c6200339c565b8080601f0160208091040260200160405190810160405280939291908181526020018383808284376000920191909152505050908252506020016200124760808c0160608d01620033e5565b60ff16815260200162001259620024e4565b81526020016200126862002656565b8152506040518263ffffffff1660e01b815260040162001289919062003451565b602060405180830381865af4158015620012a7573d6000803e3d6000fd5b505050506040513d601f19601f82011682018060405250810190620012cd91906200323f565b6040805160e08101825260068801546001600160a01b0390811682528781166020830181905260a0808d01358486015260c0808e01356060860152608085019290925260078b0154909216918301919091523090820152905163af15b96960e01b815291925060009173__$6dd86c1de004dc2dd48a17c9065be1de70$__9163af15b96991620013b6919060040181516001600160a01b039081168252602080840151821690830152604080840151908301526060808401519083015260808084015182169083015260a08381015182169083015260c092830151169181019190915260e00190565b602060405180830381865af4158015620013d4573d6000803e3d6000fd5b505050506040513d601f19601f82011682018060405250810190620013fa91906200323f565b9050600073__$e6502af67ab2c746a64bc3775a7b8857c1$__63cd6856ef604051806101400160405280866001600160a01b031681526020018c8061010001906200144691906200339c565b8080601f016020809104026020016040519081016040528093929190818152602001838380828437600092019190915250505090825250602001620014906101208e018e6200339c565b8080601f016020809104026020016040519081016040528093929190818152602001838380828437600092019190915250505090825250602001620014de6101608e016101408f0162002e25565b6001600160a01b03168152602001620015006101808e016101608f0162002e25565b6001600160a01b0390811682526101808e013560208301528a166040820181905260608201526080016200153d6101c08e016101a08f0162003516565b63ffffffff1681526020016200155c6101e08e016101c08f0162003516565b63ffffffff168152506040518263ffffffff1660e01b81526004016200158391906200353e565b602060405180830381865af4158015620015a1573d6000803e3d6000fd5b505050506040513d601f19601f82011682018060405250810190620015c791906200323f565b6040805160c08101825260088a01546001600160a01b0390811682528616602082015291925060009173__$9b19b7f7ded493586f11dad0d7ebc9ca26$__9163d88d8110919081016200161e60e08f018f6200339c565b8080601f0160208091040260200160405190810160405280939291908181526020018383808284376000920191909152505050908252506001600160a01b038088166020830152898116604080840191909152908c16606090920191909152516001600160e01b031960e084901b1681526200169e919060040162003623565b602060405180830381865af4158015620016bc573d6000803e3d6000fd5b505050506040513d601f19601f82011682018060405250810190620016e291906200323f565b9050600073__$3080f05ed92e5505050a1e3d528e8c5fcb$__63ea5fb3366040518060c001604052808c60010160009054906101000a90046001600160a01b03166001600160a01b03168152602001866001600160a01b031681526020018c60070160009054906101000a90046001600160a01b03166001600160a01b031681526020018e806101e001906200177991906200339c565b8080601f016020809104026020016040519081016040528093929190818152602001838380828437600081840152601f19601f8201169050808301925050505050505081526020018e806102000190620017d491906200339c565b8080601f0160208091040260200160405190810160405280939291908181526020018383808284376000920191909152505050908252506001600160a01b038c166020909101526040516001600160e01b031960e084901b1681526200183e919060040162003691565b602060405180830381865af41580156200185c573d6000803e3d6000fd5b505050506040513d601f19601f820116820180604052508101906200188291906200323f565b89549091506000906001600160a01b031663d0def52189620018a58f806200339c565b6040518463ffffffff1660e01b8152600401620018c59392919062003713565b6020604051808303816000875af1158015620018e5573d6000803e3d6000fd5b505050506040513d601f19601f820116820180604052508101906200190b919062003753565b60408051600580825260c08201909252919250600091906020820160a08036833701905050905089816000815181106200194957620019496200331e565b6001600160a01b0392831660209182029290920101526001808d0154835192169183919081106200197e576200197e6200331e565b60200260200101906001600160a01b031690816001600160a01b0316815250508481600281518110620019b557620019b56200331e565b60200260200101906001600160a01b031690816001600160a01b0316815250508281600381518110620019ec57620019ec6200331e565b6001600160a01b03928316602091820292909201015260028c015460078d015462001a1e92918216918a91166200273f565b8160048151811062001a345762001a346200331e565b60200260200101906001600160a01b031690816001600160a01b03168152505062001a6189888362002811565b6040516260360760e81b81526001600160a01b0387169063603607009062001a8e90879060040162002e45565b600060405180830381600087803b15801562001aa957600080fd5b505af115801562001abe573d6000803e3d6000fd5b50506040516312b5ad0160e11b81526001600160a01b038916925063256b5a02915062001af090889060040162002e45565b600060405180830381600087803b15801562001b0b57600080fd5b505af115801562001b20573d6000803e3d6000fd5b5050604051632f2ff15d60e01b81526001600160a01b0388169250632f2ff15d915062001b74907f477fc23fb51bb5d5aa814872a393b0e4f35d0916c7503c0fd96584681070d410908a906004016200376d565b600060405180830381600087803b15801562001b8f57600080fd5b505af115801562001ba4573d6000803e3d6000fd5b5050604051632f2ff15d60e01b81526001600160a01b038b169250632f2ff15d915062001bf8907f71840dc4906352362b0cdaf79870196c8e42acafade72d5d5a6d59291253ceb19088906004016200376d565b600060405180830381600087803b15801562001c1357600080fd5b505af115801562001c28573d6000803e3d6000fd5b5050604051632f2ff15d60e01b81526001600160a01b038b169250632f2ff15d915062001c5d906000908e906004016200376d565b600060405180830381600087803b15801562001c7857600080fd5b505af115801562001c8d573d6000803e3d6000fd5b50505050866001600160a01b03166340c10f198b8f608001356040518363ffffffff1660e01b815260040162001cd89291906001600160a01b03929092168252602082015260400190565b600060405180830381600087803b15801562001cf357600080fd5b505af115801562001d08573d6000803e3d6000fd5b505060405163f2fde38b60e01b81526001600160a01b038816925063f2fde38b915062001d3a908d9060040162002e45565b600060405180830381600087803b15801562001d5557600080fd5b505af115801562001d6a573d6000803e3d6000fd5b505060405163f2fde38b60e01b81526001600160a01b038616925063f2fde38b915062001d9c908d9060040162002e45565b600060405180830381600087803b15801562001db757600080fd5b505af115801562001dcc573d6000803e3d6000fd5b505060408051610120810182526001600160a01b038d1681526020810186905292508201905062001dfe8f806200339c565b8080601f016020809104026020016040519081016040528093929190818152602001838380828437600081840152601f19601f820116905080830192505050505050508152602001896001600160a01b03168152602001886001600160a01b03168152602001876001600160a01b03168152602001856001600160a01b03168152602001866001600160a01b03168152602001846001600160a01b03168152509b508b8b600c0160008b6001600160a01b03166001600160a01b0316815260200190815260200160002060008201518160000160006101000a8154816001600160a01b0302191690836001600160a01b0316021790555060208201518160010155604082015181600201908162001f169190620037d9565b5060608201518160030160006101000a8154816001600160a01b0302191690836001600160a01b0316021790555060808201518160040160006101000a8154816001600160a01b0302191690836001600160a01b0316021790555060a08201518160050160006101000a8154816001600160a01b0302191690836001600160a01b0316021790555060c08201518160060160006101000a8154816001600160a01b0302191690836001600160a01b0316021790555060e08201518160070160006101000a8154816001600160a01b0302191690836001600160a01b031602179055506101008201518160080160006101000a8154816001600160a01b0302191690836001600160a01b031602179055509050508a600b018c908060018154018082558091505060019003906000526020600020906009020160009091909190915060008201518160000160006101000a8154816001600160a01b0302191690836001600160a01b03160217905550602082015181600101556040820151816002019081620020a59190620037d9565b5060608201518160030160006101000a8154816001600160a01b0302191690836001600160a01b0316021790555060808201518160040160006101000a8154816001600160a01b0302191690836001600160a01b0316021790555060a08201518160050160006101000a8154816001600160a01b0302191690836001600160a01b0316021790555060c08201518160060160006101000a8154816001600160a01b0302191690836001600160a01b0316021790555060e08201518160070160006101000a8154816001600160a01b0302191690836001600160a01b031602179055506101008201518160080160006101000a8154816001600160a01b0302191690836001600160a01b0316021790555050507f3163bceb365c85326c53476ceb0b49cfacb67f6d675e6eeb739c58ceb8b20bb689888888888f896040516200222f97969594939291906001600160a01b03978816815295871660208701529386166040860152918516606085015284166080840152831660a083015290911660c082015260e00190565b60405180910390a15050505050505050505050919050565b7ff0c57e16840df040f15088dc2f81fe391c3923bec73e23a9662efc9c229c6a0090565b60006200227762002247565b805490915060ff600160401b82041615906001600160401b03166000811580156200229f5750825b90506000826001600160401b03166001148015620022bc5750303b155b905081158015620022cb575080155b15620022ea5760405163f92ee8a960e01b815260040160405180910390fd5b845467ffffffffffffffff1916600117855583156200231557845460ff60401b1916600160401b1785555b620023203362002be6565b60006200232c62000f6f565b90508e8160000160006101000a8154816001600160a01b0302191690836001600160a01b031602179055508d8160010160006101000a8154816001600160a01b0302191690836001600160a01b031602179055508c8160020160006101000a8154816001600160a01b0302191690836001600160a01b03160217905550888160030160006101000a8154816001600160a01b0302191690836001600160a01b031602179055508b8160040160006101000a8154816001600160a01b0302191690836001600160a01b031602179055508a8160050160006101000a8154816001600160a01b0302191690836001600160a01b03160217905550878160060160006101000a8154816001600160a01b0302191690836001600160a01b03160217905550898160070160006101000a8154816001600160a01b0302191690836001600160a01b03160217905550868160080160006101000a8154816001600160a01b0302191690836001600160a01b0316021790555050831562000f5f57845460ff60401b19168555604051600181527fc7f505b2f371ae2175ee4913f4499e1f2633a7b5936321eed1cdaeb6115181d29060200162000f56565b60606000620024f262000f6f565b60098101549091506000906200250a906002620038a5565b6001600160401b0381111562002524576200252462003020565b6040519080825280602002602001820160405280156200254e578160200160208202803683370190505b50905060005b6009830154811015620025cd578260090181815481106200257957620025796200331e565b9060005260206000200160009054906101000a90046001600160a01b0316828281518110620025ac57620025ac6200331e565b6001600160a01b039092166020928302919091019091015260010162002554565b50308160018351620025e091906200334a565b81518110620025f357620025f36200331e565b60200260200101906001600160a01b031690816001600160a01b0316815250503381600283516200262591906200334a565b815181106200263857620026386200331e565b6001600160a01b039092166020928302919091019091015292915050565b606060006200266462000f6f565b600a8101549091506000906200267c906002620038a5565b6001600160401b0381111562002696576200269662003020565b604051908082528060200260200182016040528015620026c0578160200160208202803683370190505b50905060005b600a830154811015620025cd5782600a018181548110620026eb57620026eb6200331e565b9060005260206000200160009054906101000a90046001600160a01b03168282815181106200271e576200271e6200331e565b6001600160a01b0390921660209283029190910190910152600101620026c6565b600080600062002750858562002bfb565b6040516001600160601b0319606084811b8216602084015283901b1660348201529193509150869060480160405160208183030381529060405280519060200120604051602001620027ef9291906001600160f81b0319815260609290921b6001600160601b031916600183015260158201527fdea1222ed22817f96ed20157be156c80808da15c079040548d4487a79708fe8e603582015260550190565b60408051601f1981840301815291905280516020909101209695505050505050565b60006200281d62000f6f565b905060008160040160009054906101000a90046001600160a01b031690506000846001600160a01b031663134e18f46040518163ffffffff1660e01b8152600401602060405180830381865afa1580156200287c573d6000803e3d6000fd5b505050506040513d601f19601f82011682018060405250810190620028a291906200323f565b905060005b845181101562002bdd576000836001600160a01b03166378e751a66040518163ffffffff1660e01b8152600401602060405180830381865afa158015620028f2573d6000803e3d6000fd5b505050506040513d601f19601f820116820180604052508101906200291891906200323f565b6001600160a01b0316632fea7b818784815181106200293b576200293b6200331e565b60200260200101516040518263ffffffff1660e01b815260040162002961919062002e45565b602060405180830381865afa1580156200297f573d6000803e3d6000fd5b505050506040513d601f19601f82011682018060405250810190620029a591906200323f565b90506103486001600160a01b03821662002a4c57846001600160a01b0316633e8e6e8b888581518110620029dd57620029dd6200331e565b60200260200101516040518263ffffffff1660e01b815260040162002a03919062002e45565b6020604051808303816000875af115801562002a23573d6000803e3d6000fd5b505050506040513d601f19601f8201168201806040525081019062002a4991906200323f565b91505b60006001600160a01b0316846001600160a01b031663f0eb5e5489868151811062002a7b5762002a7b6200331e565b60200260200101516040518263ffffffff1660e01b815260040162002aa1919062002e45565b602060405180830381865afa15801562002abf573d6000803e3d6000fd5b505050506040513d601f19601f8201168201806040525081019062002ae591906200323f565b6001600160a01b03160362002bd257836001600160a01b031663454a03e088858151811062002b185762002b186200331e565b602002602001015184846040518463ffffffff1660e01b815260040162002b42939291906200329b565b600060405180830381600087803b15801562002b5d57600080fd5b505af115801562002b72573d6000803e3d6000fd5b505050507f6680dc6d23915f02197cb4ac29f4b00443a14ca1cbe22d6b93045c32b98a82378988858151811062002bad5762002bad6200331e565b6020026020010151848460405162002bc99493929190620032c2565b60405180910390a15b5050600101620028a7565b50505050505050565b62002bf062002cf8565b62000e578162002d20565b600080826001600160a01b0316846001600160a01b03160362002c6f5760405162461bcd60e51b815260206004820152602560248201527f556e697377617056324c6962726172793a204944454e544943414c5f41444452604482015264455353455360d81b60648201526084016200073c565b826001600160a01b0316846001600160a01b03161062002c9157828462002c94565b83835b90925090506001600160a01b03821662002cf15760405162461bcd60e51b815260206004820152601e60248201527f556e697377617056324c6962726172793a205a45524f5f41444452455353000060448201526064016200073c565b9250929050565b62002d0262002d2a565b62000af157604051631afcd79f60e31b815260040160405180910390fd5b62000e1f62002cf8565b600062002d3662002247565b54600160401b900460ff16919050565b604080516101208101825260008082526020820181905260609282018390529181018290526080810182905260a0810182905260c0810182905260e0810182905261010081019190915290565b6105bf80620038bc83390190565b6001600160a01b03169052565b6020808252825182820181905260009190848201906040850190845b8181101562002df15783516001600160a01b03168352928401929184019160010162002dca565b50909695505050505050565b6001600160a01b038116811462000e5757600080fd5b803562002e208162002dfd565b919050565b60006020828403121562002e3857600080fd5b8135620004458162002dfd565b6001600160a01b0391909116815260200190565b60008060006060848603121562002e6f57600080fd5b833562002e7c8162002dfd565b9250602084013562002e8e8162002dfd565b9150604084013561ffff8116811462002ea657600080fd5b809150509250925092565b6000815180845260005b8181101562002ed95760208185018101518683018201520162002ebb565b506000602082860101526020601f19601f83011685010191505092915050565b60208152600062000445602083018462002eb1565b600061012060018060a01b03835116845260208301516020850152604083015181604086015262002f428286018262002eb1565b915050606083015162002f59606086018262002da1565b50608083015162002f6e608086018262002da1565b5060a083015162002f8360a086018262002da1565b5060c083015162002f9860c086018262002da1565b5060e083015162002fad60e086018262002da1565b506101008084015162002fc38287018262002da1565b5090949350505050565b60208152600062000445602083018462002f0e565b60006020828403121562002ff557600080fd5b81356001600160401b038111156200300c57600080fd5b820161022081850312156200044557600080fd5b634e487b7160e01b600052604160045260246000fd5b600060208083850312156200304a57600080fd5b82356001600160401b03808211156200306257600080fd5b818501915085601f8301126200307757600080fd5b8135818111156200308c576200308c62003020565b8060051b604051601f19603f83011681018181108582111715620030b457620030b462003020565b604052918252848201925083810185019188831115620030d357600080fd5b938501935b82851015620030fc57620030ec8562002e13565b84529385019392850192620030d8565b98975050505050505050565b600060208083016020845280855180835260408601915060408160051b87010192506020870160005b828110156200316357603f198886030184526200315085835162002f0e565b9450928501929085019060010162003131565b5092979650505050505050565b60008060008060008060008060006101208a8c0312156200319057600080fd5b89356200319d8162002dfd565b985060208a0135620031af8162002dfd565b975060408a0135620031c18162002dfd565b965060608a0135620031d38162002dfd565b955060808a0135620031e58162002dfd565b945060a08a0135620031f78162002dfd565b935060c08a0135620032098162002dfd565b925060e08a01356200321b8162002dfd565b91506101008a01356200322e8162002dfd565b809150509295985092959850929598565b6000602082840312156200325257600080fd5b8151620004458162002dfd565b600181811c908216806200327457607f821691505b6020821081036200329557634e487b7160e01b600052602260045260246000fd5b50919050565b6001600160a01b03938416815291909216602082015261ffff909116604082015260600190565b6001600160a01b03948516815292841660208401529216604082015261ffff909116606082015260800190565b602080825260159082015274496e76616c6964206167656e74206164647265737360581b604082015260600190565b634e487b7160e01b600052603260045260246000fd5b634e487b7160e01b600052601160045260246000fd5b8181038181111562000b085762000b0862003334565b634e487b7160e01b600052603160045260246000fd5b6001600160a01b0383168152604060208201819052600090620003b69083018462002eb1565b6000808335601e19843603018112620033b457600080fd5b8301803591506001600160401b03821115620033cf57600080fd5b60200191503681900382131562002cf157600080fd5b600060208284031215620033f857600080fd5b813560ff811681146200044557600080fd5b60008151808452602080850194506020840160005b83811015620034465781516001600160a01b0316875295820195908201906001016200341f565b509495945050505050565b602080825282516001600160a01b0316828201528201516000906200347a604084018262002da1565b50604083015160e060608401526200349761010084018262002eb1565b90506060840151601f1980858403016080860152620034b7838362002eb1565b925060808601519150620034d060a086018360ff169052565b60a08601519150808584030160c0860152620034ed83836200340a565b925060c08601519150808584030160e0860152506200350d82826200340a565b95945050505050565b6000602082840312156200352957600080fd5b813563ffffffff811681146200044557600080fd5b602081526200355260208201835162002da1565b600060208301516101408060408501526200357261016085018362002eb1565b91506040850151601f1985840301606086015262003591838262002eb1565b9250506060850151620035a8608086018262002da1565b506080850151620035bd60a086018262002da1565b5060a085015160c085015260c0850151620035dc60e086018262002da1565b5060e0850151610100620035f38187018362002da1565b86015190506101206200360d8682018363ffffffff169052565b86015163ffffffff811683870152905062002fc3565b60208152600060018060a01b03808451166020840152806020850151166040840152604084015160c060608501526200366060e085018262002eb1565b90508160608601511660808501528160808601511660a08501528160a08601511660c0850152809250505092915050565b60208152600060018060a01b03808451166020840152806020850151166040840152806040850151166060840152606084015160c06080850152620036da60e085018262002eb1565b90506080850151601f198583030160a0860152620036f9828262002eb1565b9150508160a08601511660c0850152809250505092915050565b6001600160a01b03841681526040602082018190528101829052818360608301376000818301606090810191909152601f909201601f1916010192915050565b6000602082840312156200376657600080fd5b5051919050565b9182526001600160a01b0316602082015260400190565b601f821115620037d4576000816000526020600020601f850160051c81016020861015620037af5750805b601f850160051c820191505b81811015620037d057828155600101620037bb565b5050505b505050565b81516001600160401b03811115620037f557620037f562003020565b6200380d816200380684546200325f565b8462003784565b602080601f8311600181146200384557600084156200382c5750858301515b600019600386901b1c1916600185901b178555620037d0565b600085815260208120601f198616915b82811015620038765788860151825594840194600190910190840162003855565b5085821015620038955787850151600019600388901b60f8161c191681555b5050505050600190811b01905550565b8082018082111562000b085762000b086200333456fe60a06040526040516105bf3803806105bf83398101604081905261002291610387565b61002c828261003e565b506001600160a01b031660805261047e565b610047826100fe565b6040516001600160a01b038316907f1cf3b03a6cf19fa2baba4df148e9dcabedea7f8a5c07840e207e5c089be95d3e90600090a28051156100f2576100ed826001600160a01b0316635c60da1b6040518163ffffffff1660e01b8152600401602060405180830381865afa1580156100c3573d6000803e3d6000fd5b505050506040513d601f19601f820116820180604052508101906100e79190610447565b82610211565b505050565b6100fa610288565b5050565b806001600160a01b03163b60000361013957604051631933b43b60e21b81526001600160a01b03821660048201526024015b60405180910390fd5b807fa3f0ad74e5423aebfd80d3ef4346578335a9a72aeaee59ff6cb3582b35133d5080546001600160a01b0319166001600160a01b0392831617905560408051635c60da1b60e01b81529051600092841691635c60da1b9160048083019260209291908290030181865afa1580156101b5573d6000803e3d6000fd5b505050506040513d601f19601f820116820180604052508101906101d99190610447565b9050806001600160a01b03163b6000036100fa57604051634c9c8ce360e01b81526001600160a01b0382166004820152602401610130565b6060600080846001600160a01b03168460405161022e9190610462565b600060405180830381855af49150503d8060008114610269576040519150601f19603f3d011682016040523d82523d6000602084013e61026e565b606091505b50909250905061027f8583836102a9565b95945050505050565b34156102a75760405163b398979f60e01b815260040160405180910390fd5b565b6060826102be576102b982610308565b610301565b81511580156102d557506001600160a01b0384163b155b156102fe57604051639996b31560e01b81526001600160a01b0385166004820152602401610130565b50805b9392505050565b8051156103185780518082602001fd5b604051630a12f52160e11b815260040160405180910390fd5b80516001600160a01b038116811461034857600080fd5b919050565b634e487b7160e01b600052604160045260246000fd5b60005b8381101561037e578181015183820152602001610366565b50506000910152565b6000806040838503121561039a57600080fd5b6103a383610331565b60208401519092506001600160401b03808211156103c057600080fd5b818501915085601f8301126103d457600080fd5b8151818111156103e6576103e661034d565b604051601f8201601f19908116603f0116810190838211818310171561040e5761040e61034d565b8160405282815288602084870101111561042757600080fd5b610438836020830160208801610363565b80955050505050509250929050565b60006020828403121561045957600080fd5b61030182610331565b60008251610474818460208701610363565b9190910192915050565b6080516101276104986000396000601e01526101276000f3fe6080604052600a600c565b005b60186014601a565b60a0565b565b60007f00000000000000000000000000000000000000000000000000000000000000006001600160a01b0316635c60da1b6040518163ffffffff1660e01b8152600401602060405180830381865afa1580156079573d6000803e3d6000fd5b505050506040513d601f19601f82011682018060405250810190609b919060c3565b905090565b3660008037600080366000845af43d6000803e80801560be573d6000f35b3d6000fd5b60006020828403121560d457600080fd5b81516001600160a01b038116811460ea57600080fd5b939250505056fea26469706673582212205c8a2fcdc6f79c1d43b849e2b03f494652cee222b2ec86046b7caaa1405f985f64736f6c63430008180033a26469706673582212202a43c7a97e29319d10811167e88816ade8480228fbb6a16ae9b5e36d178525db64736f6c63430008180033",
  "linkReferences": {
    "contracts/buildings/library/BuildingAutoCompounder.sol": {
      "BuildingAutoCompounderLib": [
        {
          "length": 20,
          "start": 6094
        }
      ]
    },
    "contracts/buildings/library/BuildingGovernance.sol": {
      "BuildingGovernanceLib": [
        {
          "length": 20,
          "start": 5848
        }
      ]
    },
    "contracts/buildings/library/BuildingToken.sol": {
      "BuildingTokenLib": [
        {
          "length": 20,
          "start": 4715
        }
      ]
    },
    "contracts/buildings/library/BuildingTreasury.sol": {
      "BuildingTreasuryLib": [
        {
          "length": 20,
          "start": 5150
        }
      ]
    },
    "contracts/buildings/library/BuildingVault.sol": {
      "BuildingVaultLib": [
        {
          "length": 20,
          "start": 5350
        }
      ]
    }
  },
  "deployedLinkReferences": {
    "contracts/buildings/library/BuildingAutoCompounder.sol": {
      "BuildingAutoCompounderLib": [
        {
          "length": 20,
          "start": 5864
        }
      ]
    },
    "contracts/buildings/library/BuildingGovernance.sol": {
      "BuildingGovernanceLib": [
        {
          "length": 20,
          "start": 5618
        }
      ]
    },
    "contracts/buildings/library/BuildingToken.sol": {
      "BuildingTokenLib": [
        {
          "length": 20,
          "start": 4485
        }
      ]
    },
    "contracts/buildings/library/BuildingTreasury.sol": {
      "BuildingTreasuryLib": [
        {
          "length": 20,
          "start": 4920
        }
      ]
    },
    "contracts/buildings/library/BuildingVault.sol": {
      "BuildingVaultLib": [
        {
          "length": 20,
          "start": 5120
        }
      ]
    }
  }
}