{
  "_format": "hh-sol-artifact-1",
  "contractName": "CountryAllowModule",
  "sourceName": "contracts/erc3643/compliance/modular/modules/CountryAllowModule.sol",
  "abi": [
    {
      "inputs": [
        {
          "internalType": "address",
          "name": "_compliance",
          "type": "address"
        },
        {
          "internalType": "uint16",
          "name": "_country",
          "type": "uint16"
        }
      ],
      "name": "CountryAlreadyAllowed",
      "type": "error"
    },
    {
      "inputs": [
        {
          "internalType": "address",
          "name": "_compliance",
          "type": "address"
        },
        {
          "internalType": "uint16",
          "name": "_country",
          "type": "uint16"
        }
      ],
      "name": "CountryNotAllowed",
      "type": "error"
    },
    {
      "anonymous": false,
      "inputs": [
        {
          "indexed": true,
          "internalType": "address",
          "name": "_compliance",
          "type": "address"
        }
      ],
      "name": "ComplianceBound",
      "type": "event"
    },
    {
      "anonymous": false,
      "inputs": [
        {
          "indexed": true,
          "internalType": "address",
          "name": "_compliance",
          "type": "address"
        }
      ],
      "name": "ComplianceUnbound",
      "type": "event"
    },
    {
      "anonymous": false,
      "inputs": [
        {
          "indexed": false,
          "internalType": "address",
          "name": "_compliance",
          "type": "address"
        },
        {
          "indexed": false,
          "internalType": "uint16",
          "name": "_country",
          "type": "uint16"
        }
      ],
      "name": "CountryAllowed",
      "type": "event"
    },
    {
      "anonymous": false,
      "inputs": [
        {
          "indexed": false,
          "internalType": "address",
          "name": "_compliance",
          "type": "address"
        },
        {
          "indexed": false,
          "internalType": "uint16",
          "name": "_country",
          "type": "uint16"
        }
      ],
      "name": "CountryUnallowed",
      "type": "event"
    },
    {
      "inputs": [
        {
          "internalType": "uint16",
          "name": "_country",
          "type": "uint16"
        }
      ],
      "name": "addAllowedCountry",
      "outputs": [],
      "stateMutability": "nonpayable",
      "type": "function"
    },
    {
      "inputs": [
        {
          "internalType": "uint16[]",
          "name": "_countries",
          "type": "uint16[]"
        }
      ],
      "name": "batchAllowCountries",
      "outputs": [],
      "stateMutability": "nonpayable",
      "type": "function"
    },
    {
      "inputs": [
        {
          "internalType": "uint16[]",
          "name": "_countries",
          "type": "uint16[]"
        }
      ],
      "name": "batchDisallowCountries",
      "outputs": [],
      "stateMutability": "nonpayable",
      "type": "function"
    },
    {
      "inputs": [
        {
          "internalType": "address",
          "name": "_compliance",
          "type": "address"
        }
      ],
      "name": "bindCompliance",
      "outputs": [],
      "stateMutability": "nonpayable",
      "type": "function"
    },
    {
      "inputs": [
        {
          "internalType": "address",
          "name": "",
          "type": "address"
        }
      ],
      "name": "canComplianceBind",
      "outputs": [
        {
          "internalType": "bool",
          "name": "",
          "type": "bool"
        }
      ],
      "stateMutability": "view",
      "type": "function"
    },
    {
      "inputs": [
        {
          "internalType": "address",
          "name": "compliance",
          "type": "address"
        }
      ],
      "name": "getAllowedCountries",
      "outputs": [
        {
          "internalType": "uint16[]",
          "name": "",
          "type": "uint16[]"
        }
      ],
      "stateMutability": "view",
      "type": "function"
    },
    {
      "inputs": [
        {
          "internalType": "address",
          "name": "_compliance",
          "type": "address"
        }
      ],
      "name": "isComplianceBound",
      "outputs": [
        {
          "internalType": "bool",
          "name": "",
          "type": "bool"
        }
      ],
      "stateMutability": "view",
      "type": "function"
    },
    {
      "inputs": [
        {
          "internalType": "address",
          "name": "_compliance",
          "type": "address"
        },
        {
          "internalType": "uint16",
          "name": "_country",
          "type": "uint16"
        }
      ],
      "name": "isCountryAllowed",
      "outputs": [
        {
          "internalType": "bool",
          "name": "",
          "type": "bool"
        }
      ],
      "stateMutability": "view",
      "type": "function"
    },
    {
      "inputs": [],
      "name": "isPlugAndPlay",
      "outputs": [
        {
          "internalType": "bool",
          "name": "",
          "type": "bool"
        }
      ],
      "stateMutability": "pure",
      "type": "function"
    },
    {
      "inputs": [
        {
          "internalType": "address",
          "name": "_from",
          "type": "address"
        },
        {
          "internalType": "uint256",
          "name": "_value",
          "type": "uint256"
        }
      ],
      "name": "moduleBurnAction",
      "outputs": [],
      "stateMutability": "nonpayable",
      "type": "function"
    },
    {
      "inputs": [
        {
          "internalType": "address",
          "name": "",
          "type": "address"
        },
        {
          "internalType": "address",
          "name": "_to",
          "type": "address"
        },
        {
          "internalType": "uint256",
          "name": "",
          "type": "uint256"
        },
        {
          "internalType": "address",
          "name": "_compliance",
          "type": "address"
        }
      ],
      "name": "moduleCheck",
      "outputs": [
        {
          "internalType": "bool",
          "name": "",
          "type": "bool"
        }
      ],
      "stateMutability": "view",
      "type": "function"
    },
    {
      "inputs": [
        {
          "internalType": "address",
          "name": "_to",
          "type": "address"
        },
        {
          "internalType": "uint256",
          "name": "_value",
          "type": "uint256"
        }
      ],
      "name": "moduleMintAction",
      "outputs": [],
      "stateMutability": "nonpayable",
      "type": "function"
    },
    {
      "inputs": [
        {
          "internalType": "address",
          "name": "_from",
          "type": "address"
        },
        {
          "internalType": "address",
          "name": "_to",
          "type": "address"
        },
        {
          "internalType": "uint256",
          "name": "_value",
          "type": "uint256"
        }
      ],
      "name": "moduleTransferAction",
      "outputs": [],
      "stateMutability": "nonpayable",
      "type": "function"
    },
    {
      "inputs": [],
      "name": "name",
      "outputs": [
        {
          "internalType": "string",
          "name": "_name",
          "type": "string"
        }
      ],
      "stateMutability": "pure",
      "type": "function"
    },
    {
      "inputs": [
        {
          "internalType": "uint16",
          "name": "_country",
          "type": "uint16"
        }
      ],
      "name": "removeAllowedCountry",
      "outputs": [],
      "stateMutability": "nonpayable",
      "type": "function"
    },
    {
      "inputs": [
        {
          "internalType": "address",
          "name": "_compliance",
          "type": "address"
        }
      ],
      "name": "unbindCompliance",
      "outputs": [],
      "stateMutability": "nonpayable",
      "type": "function"
    }
  ],
  "bytecode": "0x608060405234801561001057600080fd5b50611038806100206000396000f3fe608060405234801561001057600080fd5b50600436106100e05760003560e01c80634cf4d295116100875780634cf4d295146101c25780634f44425e146101ee578063771c528114610201578063817544c314610214578063bcc2105314610227578063c08e15021461023b578063e6f5e8071461024e578063f104a8c91461019c57600080fd5b8063013b7ce4146100e55780630694a5fb1461010d57806306fdde03146101225780630f4f090414610156578063174e2ef2146101695780632cb7e1ec14610189578063372491a21461019c5780634a932544146101af575b600080fd5b6100f86100f3366004610c60565b610255565b60405190151581526020015b60405180910390f35b61012061011b366004610cb3565b610278565b005b6040805180820182526012815271436f756e747279416c6c6f774d6f64756c6560701b602082015290516101049190610cd0565b6100f8610164366004610d2f565b610347565b61017c610177366004610cb3565b610379565b6040516101049190610d68565b610120610197366004610db0565b61040d565b6101206101aa366004610df1565b610441565b6101206101bd366004610cb3565b610474565b6100f86101d0366004610cb3565b6001600160a01b031660009081526020819052604090205460ff1690565b6101206101fc366004610e1d565b610572565b61012061020f366004610e3a565b610659565b610120610222366004610e1d565b610787565b6100f8610235366004610cb3565b50600190565b610120610249366004610e3a565b61085e565b60016100f8565b6000806102628386610989565b905061026e8382610347565b9695505050505050565b3360009081526020819052604090205460ff166102b05760405162461bcd60e51b81526004016102a790610eaf565b60405180910390fd5b6001600160a01b0381166102d65760405162461bcd60e51b81526004016102a790610ee6565b336001600160a01b038216146102fe5760405162461bcd60e51b81526004016102a790610f1d565b6001600160a01b038116600081815260208190526040808220805460ff19169055517f408b49d9be1c914c52a0227e18a077e5a892dddf32a26cfa94a5d9708fad77189190a250565b6001600160a01b038216600090815260016020908152604080832061ffff8516845290915290205460ff165b92915050565b6001600160a01b03811660009081526002602090815260409182902080548351818402810184019094528084526060939283018282801561040157602002820191906000526020600020906000905b82829054906101000a900461ffff1661ffff16815260200190600201906020826001010492830192600103820291508084116103c85790505b50505050509050919050565b3360009081526020819052604090205460ff1661043c5760405162461bcd60e51b81526004016102a790610eaf565b505050565b3360009081526020819052604090205460ff166104705760405162461bcd60e51b81526004016102a790610eaf565b5050565b6001600160a01b03811661049a5760405162461bcd60e51b81526004016102a790610ee6565b6001600160a01b03811660009081526020819052604090205460ff16156104fe5760405162461bcd60e51b815260206004820152601860248201527718dbdb5c1b1a585b98d948185b1c9958591e48189bdd5b9960421b60448201526064016102a7565b336001600160a01b038216146105265760405162461bcd60e51b81526004016102a790610f1d565b6001600160a01b038116600081815260208190526040808220805460ff19166001179055517f1f7b76c58fb697eb53c6c7c1becb96911516a136e24d7ced386b2355358b75a39190a250565b3360009081526020819052604090205460ff166105a15760405162461bcd60e51b81526004016102a790610eaf565b33600090815260016020818152604080842061ffff861685529091529091205460ff16151590036105e957338160405163af6d613560e01b81526004016102a7929190610f5e565b33600081815260016020818152604080842061ffff87168552909152909120805460ff1916909117905561061d9082610ac1565b7f48c279381632bf87fca2680865a7384b6eb20716fd96b882b305a2198930a074338260405161064e929190610f5e565b60405180910390a150565b3360009081526020819052604090205460ff166106885760405162461bcd60e51b81526004016102a790610eaf565b60005b8181101561043c57336000908152600160208190526040822090918585858181106106b8576106b8610f7b565b90506020020160208101906106cd9190610e1d565b61ffff1681526020810191909152604001600020805460ff19169115159190911790556107203384848481811061070657610706610f7b565b905060200201602081019061071b9190610e1d565b610ac1565b7f48c279381632bf87fca2680865a7384b6eb20716fd96b882b305a2198930a0743384848481811061075457610754610f7b565b90506020020160208101906107699190610e1d565b604051610777929190610f5e565b60405180910390a160010161068b565b3360009081526020819052604090205460ff166107b65760405162461bcd60e51b81526004016102a790610eaf565b33600090815260016020908152604080832061ffff8516845290915281205460ff16151590036107fd57338160405163236a687560e11b81526004016102a7929190610f5e565b33600081815260016020908152604080832061ffff861684529091529020805460ff1916905561082d9082610b13565b7f35c7374bcb82f2355cb703c8ab6162f87fe83b99618bdb78c6d19b07ddf060a2338260405161064e929190610f5e565b3360009081526020819052604090205460ff1661088d5760405162461bcd60e51b81526004016102a790610eaf565b60005b8181101561043c57336000908152600160205260408120818585858181106108ba576108ba610f7b565b90506020020160208101906108cf9190610e1d565b61ffff1681526020810191909152604001600020805460ff19169115159190911790556109223384848481811061090857610908610f7b565b905060200201602081019061091d9190610e1d565b610b13565b7f35c7374bcb82f2355cb703c8ab6162f87fe83b99618bdb78c6d19b07ddf060a23384848481811061095657610956610f7b565b905060200201602081019061096b9190610e1d565b604051610979929190610f5e565b60405180910390a1600101610890565b6000826001600160a01b0316636a3edf286040518163ffffffff1660e01b8152600401602060405180830381865afa1580156109c9573d6000803e3d6000fd5b505050506040513d601f19601f820116820180604052508101906109ed9190610f91565b6001600160a01b031663134e18f46040518163ffffffff1660e01b8152600401602060405180830381865afa158015610a2a573d6000803e3d6000fd5b505050506040513d601f19601f82011682018060405250810190610a4e9190610f91565b604051637e42683b60e01b81526001600160a01b0384811660048301529190911690637e42683b90602401602060405180830381865afa158015610a96573d6000803e3d6000fd5b505050506040513d601f19601f82011682018060405250810190610aba9190610fae565b9392505050565b6001600160a01b0390911660009081526002602081815260408320805460018101825590845292206010830401805461ffff948516600f9094169092026101000a928302939092021916919091179055565b6001600160a01b0382166000908152600260205260408120905b8154811015610c42578261ffff16828281548110610b4d57610b4d610f7b565b60009182526020909120601082040154600f9091166002026101000a900461ffff1603610c3a5781548290610b8490600190610fcb565b81548110610b9457610b94610f7b565b90600052602060002090601091828204019190066002029054906101000a900461ffff16828281548110610bca57610bca610f7b565b90600052602060002090601091828204019190066002026101000a81548161ffff021916908361ffff16021790555081805480610c0957610c09610fec565b600082815260209020601060001990920191820401805461ffff6002600f8516026101000a02191690559055610c42565b600101610b2d565b50505050565b6001600160a01b0381168114610c5d57600080fd5b50565b60008060008060808587031215610c7657600080fd5b8435610c8181610c48565b93506020850135610c9181610c48565b9250604085013591506060850135610ca881610c48565b939692955090935050565b600060208284031215610cc557600080fd5b8135610aba81610c48565b60006020808352835180602085015260005b81811015610cfe57858101830151858201604001528201610ce2565b506000604082860101526040601f19601f8301168501019250505092915050565b61ffff81168114610c5d57600080fd5b60008060408385031215610d4257600080fd5b8235610d4d81610c48565b91506020830135610d5d81610d1f565b809150509250929050565b6020808252825182820181905260009190848201906040850190845b81811015610da457835161ffff1683529284019291840191600101610d84565b50909695505050505050565b600080600060608486031215610dc557600080fd5b8335610dd081610c48565b92506020840135610de081610c48565b929592945050506040919091013590565b60008060408385031215610e0457600080fd5b8235610e0f81610c48565b946020939093013593505050565b600060208284031215610e2f57600080fd5b8135610aba81610d1f565b60008060208385031215610e4d57600080fd5b823567ffffffffffffffff80821115610e6557600080fd5b818501915085601f830112610e7957600080fd5b813581811115610e8857600080fd5b8660208260051b8501011115610e9d57600080fd5b60209290920196919550909350505050565b6020808252601e908201527f6f6e6c7920626f756e6420636f6d706c69616e63652063616e2063616c6c0000604082015260600190565b6020808252601f908201527f696e76616c696420617267756d656e74202d207a65726f206164647265737300604082015260600190565b60208082526021908201527f6f6e6c7920636f6d706c69616e636520636f6e74726163742063616e2063616c6040820152601b60fa1b606082015260800190565b6001600160a01b0392909216825261ffff16602082015260400190565b634e487b7160e01b600052603260045260246000fd5b600060208284031215610fa357600080fd5b8151610aba81610c48565b600060208284031215610fc057600080fd5b8151610aba81610d1f565b8181038181111561037357634e487b7160e01b600052601160045260246000fd5b634e487b7160e01b600052603160045260246000fdfea2646970667358221220dbb90d960df7785b551c7a527986a612486a1466da0cb8e8bb1c67e00b6cf68664736f6c63430008180033",
  "linkReferences": {},
  "deployedLinkReferences": {}
}