{
  "_format": "hh-sol-artifact-1",
  "contractName": "ERC20Mock",
  "sourceName": "contracts/buildings/mock/ERC20Mock.sol",
  "abi": [
    {
      "inputs": [
        {
          "internalType": "string",
          "name": "_name",
          "type": "string"
        },
        {
          "internalType": "string",
          "name": "_symbol",
          "type": "string"
        },
        {
          "internalType": "uint8",
          "name": "_decimals",
          "type": "uint8"
        }
      ],
      "stateMutability": "nonpayable",
      "type": "constructor"
    },
    {
      "inputs": [],
      "name": "CheckpointUnorderedInsertion",
      "type": "error"
    },
    {
      "inputs": [],
      "name": "ECDSAInvalidSignature",
      "type": "error"
    },
    {
      "inputs": [
        {
          "internalType": "uint256",
          "name": "length",
          "type": "uint256"
        }
      ],
      "name": "ECDSAInvalidSignatureLength",
      "type": "error"
    },
    {
      "inputs": [
        {
          "internalType": "bytes32",
          "name": "s",
          "type": "bytes32"
        }
      ],
      "name": "ECDSAInvalidSignatureS",
      "type": "error"
    },
    {
      "inputs": [
        {
          "internalType": "uint256",
          "name": "increasedSupply",
          "type": "uint256"
        },
        {
          "internalType": "uint256",
          "name": "cap",
          "type": "uint256"
        }
      ],
      "name": "ERC20ExceededSafeSupply",
      "type": "error"
    },
    {
      "inputs": [
        {
          "internalType": "address",
          "name": "spender",
          "type": "address"
        },
        {
          "internalType": "uint256",
          "name": "allowance",
          "type": "uint256"
        },
        {
          "internalType": "uint256",
          "name": "needed",
          "type": "uint256"
        }
      ],
      "name": "ERC20InsufficientAllowance",
      "type": "error"
    },
    {
      "inputs": [
        {
          "internalType": "address",
          "name": "sender",
          "type": "address"
        },
        {
          "internalType": "uint256",
          "name": "balance",
          "type": "uint256"
        },
        {
          "internalType": "uint256",
          "name": "needed",
          "type": "uint256"
        }
      ],
      "name": "ERC20InsufficientBalance",
      "type": "error"
    },
    {
      "inputs": [
        {
          "internalType": "address",
          "name": "approver",
          "type": "address"
        }
      ],
      "name": "ERC20InvalidApprover",
      "type": "error"
    },
    {
      "inputs": [
        {
          "internalType": "address",
          "name": "receiver",
          "type": "address"
        }
      ],
      "name": "ERC20InvalidReceiver",
      "type": "error"
    },
    {
      "inputs": [
        {
          "internalType": "address",
          "name": "sender",
          "type": "address"
        }
      ],
      "name": "ERC20InvalidSender",
      "type": "error"
    },
    {
      "inputs": [
        {
          "internalType": "address",
          "name": "spender",
          "type": "address"
        }
      ],
      "name": "ERC20InvalidSpender",
      "type": "error"
    },
    {
      "inputs": [
        {
          "internalType": "uint256",
          "name": "deadline",
          "type": "uint256"
        }
      ],
      "name": "ERC2612ExpiredSignature",
      "type": "error"
    },
    {
      "inputs": [
        {
          "internalType": "address",
          "name": "signer",
          "type": "address"
        },
        {
          "internalType": "address",
          "name": "owner",
          "type": "address"
        }
      ],
      "name": "ERC2612InvalidSigner",
      "type": "error"
    },
    {
      "inputs": [
        {
          "internalType": "uint256",
          "name": "timepoint",
          "type": "uint256"
        },
        {
          "internalType": "uint48",
          "name": "clock",
          "type": "uint48"
        }
      ],
      "name": "ERC5805FutureLookup",
      "type": "error"
    },
    {
      "inputs": [],
      "name": "ERC6372InconsistentClock",
      "type": "error"
    },
    {
      "inputs": [
        {
          "internalType": "address",
          "name": "account",
          "type": "address"
        },
        {
          "internalType": "uint256",
          "name": "currentNonce",
          "type": "uint256"
        }
      ],
      "name": "InvalidAccountNonce",
      "type": "error"
    },
    {
      "inputs": [],
      "name": "InvalidShortString",
      "type": "error"
    },
    {
      "inputs": [
        {
          "internalType": "uint8",
          "name": "bits",
          "type": "uint8"
        },
        {
          "internalType": "uint256",
          "name": "value",
          "type": "uint256"
        }
      ],
      "name": "SafeCastOverflowedUintDowncast",
      "type": "error"
    },
    {
      "inputs": [
        {
          "internalType": "string",
          "name": "str",
          "type": "string"
        }
      ],
      "name": "StringTooLong",
      "type": "error"
    },
    {
      "inputs": [
        {
          "internalType": "uint256",
          "name": "expiry",
          "type": "uint256"
        }
      ],
      "name": "VotesExpiredSignature",
      "type": "error"
    },
    {
      "anonymous": false,
      "inputs": [
        {
          "indexed": true,
          "internalType": "address",
          "name": "owner",
          "type": "address"
        },
        {
          "indexed": true,
          "internalType": "address",
          "name": "spender",
          "type": "address"
        },
        {
          "indexed": false,
          "internalType": "uint256",
          "name": "value",
          "type": "uint256"
        }
      ],
      "name": "Approval",
      "type": "event"
    },
    {
      "anonymous": false,
      "inputs": [
        {
          "indexed": true,
          "internalType": "address",
          "name": "delegator",
          "type": "address"
        },
        {
          "indexed": true,
          "internalType": "address",
          "name": "fromDelegate",
          "type": "address"
        },
        {
          "indexed": true,
          "internalType": "address",
          "name": "toDelegate",
          "type": "address"
        }
      ],
      "name": "DelegateChanged",
      "type": "event"
    },
    {
      "anonymous": false,
      "inputs": [
        {
          "indexed": true,
          "internalType": "address",
          "name": "delegate",
          "type": "address"
        },
        {
          "indexed": false,
          "internalType": "uint256",
          "name": "previousVotes",
          "type": "uint256"
        },
        {
          "indexed": false,
          "internalType": "uint256",
          "name": "newVotes",
          "type": "uint256"
        }
      ],
      "name": "DelegateVotesChanged",
      "type": "event"
    },
    {
      "anonymous": false,
      "inputs": [],
      "name": "EIP712DomainChanged",
      "type": "event"
    },
    {
      "anonymous": false,
      "inputs": [
        {
          "indexed": true,
          "internalType": "address",
          "name": "from",
          "type": "address"
        },
        {
          "indexed": true,
          "internalType": "address",
          "name": "to",
          "type": "address"
        },
        {
          "indexed": false,
          "internalType": "uint256",
          "name": "value",
          "type": "uint256"
        }
      ],
      "name": "Transfer",
      "type": "event"
    },
    {
      "inputs": [],
      "name": "CLOCK_MODE",
      "outputs": [
        {
          "internalType": "string",
          "name": "",
          "type": "string"
        }
      ],
      "stateMutability": "pure",
      "type": "function"
    },
    {
      "inputs": [],
      "name": "DOMAIN_SEPARATOR",
      "outputs": [
        {
          "internalType": "bytes32",
          "name": "",
          "type": "bytes32"
        }
      ],
      "stateMutability": "view",
      "type": "function"
    },
    {
      "inputs": [
        {
          "internalType": "address",
          "name": "owner",
          "type": "address"
        },
        {
          "internalType": "address",
          "name": "spender",
          "type": "address"
        }
      ],
      "name": "allowance",
      "outputs": [
        {
          "internalType": "uint256",
          "name": "",
          "type": "uint256"
        }
      ],
      "stateMutability": "view",
      "type": "function"
    },
    {
      "inputs": [
        {
          "internalType": "address",
          "name": "spender",
          "type": "address"
        },
        {
          "internalType": "uint256",
          "name": "value",
          "type": "uint256"
        }
      ],
      "name": "approve",
      "outputs": [
        {
          "internalType": "bool",
          "name": "",
          "type": "bool"
        }
      ],
      "stateMutability": "nonpayable",
      "type": "function"
    },
    {
      "inputs": [
        {
          "internalType": "address",
          "name": "account",
          "type": "address"
        }
      ],
      "name": "balanceOf",
      "outputs": [
        {
          "internalType": "uint256",
          "name": "",
          "type": "uint256"
        }
      ],
      "stateMutability": "view",
      "type": "function"
    },
    {
      "inputs": [
        {
          "internalType": "address",
          "name": "account",
          "type": "address"
        },
        {
          "internalType": "uint32",
          "name": "pos",
          "type": "uint32"
        }
      ],
      "name": "checkpoints",
      "outputs": [
        {
          "components": [
            {
              "internalType": "uint48",
              "name": "_key",
              "type": "uint48"
            },
            {
              "internalType": "uint208",
              "name": "_value",
              "type": "uint208"
            }
          ],
          "internalType": "struct Checkpoints.Checkpoint208",
          "name": "",
          "type": "tuple"
        }
      ],
      "stateMutability": "view",
      "type": "function"
    },
    {
      "inputs": [],
      "name": "clock",
      "outputs": [
        {
          "internalType": "uint48",
          "name": "",
          "type": "uint48"
        }
      ],
      "stateMutability": "view",
      "type": "function"
    },
    {
      "inputs": [],
      "name": "decimals",
      "outputs": [
        {
          "internalType": "uint8",
          "name": "",
          "type": "uint8"
        }
      ],
      "stateMutability": "view",
      "type": "function"
    },
    {
      "inputs": [
        {
          "internalType": "address",
          "name": "delegatee",
          "type": "address"
        }
      ],
      "name": "delegate",
      "outputs": [],
      "stateMutability": "nonpayable",
      "type": "function"
    },
    {
      "inputs": [
        {
          "internalType": "address",
          "name": "delegatee",
          "type": "address"
        },
        {
          "internalType": "uint256",
          "name": "nonce",
          "type": "uint256"
        },
        {
          "internalType": "uint256",
          "name": "expiry",
          "type": "uint256"
        },
        {
          "internalType": "uint8",
          "name": "v",
          "type": "uint8"
        },
        {
          "internalType": "bytes32",
          "name": "r",
          "type": "bytes32"
        },
        {
          "internalType": "bytes32",
          "name": "s",
          "type": "bytes32"
        }
      ],
      "name": "delegateBySig",
      "outputs": [],
      "stateMutability": "nonpayable",
      "type": "function"
    },
    {
      "inputs": [
        {
          "internalType": "address",
          "name": "account",
          "type": "address"
        }
      ],
      "name": "delegates",
      "outputs": [
        {
          "internalType": "address",
          "name": "",
          "type": "address"
        }
      ],
      "stateMutability": "view",
      "type": "function"
    },
    {
      "inputs": [],
      "name": "eip712Domain",
      "outputs": [
        {
          "internalType": "bytes1",
          "name": "fields",
          "type": "bytes1"
        },
        {
          "internalType": "string",
          "name": "name",
          "type": "string"
        },
        {
          "internalType": "string",
          "name": "version",
          "type": "string"
        },
        {
          "internalType": "uint256",
          "name": "chainId",
          "type": "uint256"
        },
        {
          "internalType": "address",
          "name": "verifyingContract",
          "type": "address"
        },
        {
          "internalType": "bytes32",
          "name": "salt",
          "type": "bytes32"
        },
        {
          "internalType": "uint256[]",
          "name": "extensions",
          "type": "uint256[]"
        }
      ],
      "stateMutability": "view",
      "type": "function"
    },
    {
      "inputs": [
        {
          "internalType": "uint256",
          "name": "timepoint",
          "type": "uint256"
        }
      ],
      "name": "getPastTotalSupply",
      "outputs": [
        {
          "internalType": "uint256",
          "name": "",
          "type": "uint256"
        }
      ],
      "stateMutability": "view",
      "type": "function"
    },
    {
      "inputs": [
        {
          "internalType": "address",
          "name": "account",
          "type": "address"
        },
        {
          "internalType": "uint256",
          "name": "timepoint",
          "type": "uint256"
        }
      ],
      "name": "getPastVotes",
      "outputs": [
        {
          "internalType": "uint256",
          "name": "",
          "type": "uint256"
        }
      ],
      "stateMutability": "view",
      "type": "function"
    },
    {
      "inputs": [
        {
          "internalType": "address",
          "name": "account",
          "type": "address"
        }
      ],
      "name": "getVotes",
      "outputs": [
        {
          "internalType": "uint256",
          "name": "",
          "type": "uint256"
        }
      ],
      "stateMutability": "view",
      "type": "function"
    },
    {
      "inputs": [
        {
          "internalType": "address",
          "name": "to",
          "type": "address"
        },
        {
          "internalType": "uint256",
          "name": "amount",
          "type": "uint256"
        }
      ],
      "name": "mint",
      "outputs": [],
      "stateMutability": "nonpayable",
      "type": "function"
    },
    {
      "inputs": [],
      "name": "name",
      "outputs": [
        {
          "internalType": "string",
          "name": "",
          "type": "string"
        }
      ],
      "stateMutability": "view",
      "type": "function"
    },
    {
      "inputs": [
        {
          "internalType": "address",
          "name": "owner",
          "type": "address"
        }
      ],
      "name": "nonces",
      "outputs": [
        {
          "internalType": "uint256",
          "name": "",
          "type": "uint256"
        }
      ],
      "stateMutability": "view",
      "type": "function"
    },
    {
      "inputs": [
        {
          "internalType": "address",
          "name": "account",
          "type": "address"
        }
      ],
      "name": "numCheckpoints",
      "outputs": [
        {
          "internalType": "uint32",
          "name": "",
          "type": "uint32"
        }
      ],
      "stateMutability": "view",
      "type": "function"
    },
    {
      "inputs": [
        {
          "internalType": "address",
          "name": "owner",
          "type": "address"
        },
        {
          "internalType": "address",
          "name": "spender",
          "type": "address"
        },
        {
          "internalType": "uint256",
          "name": "value",
          "type": "uint256"
        },
        {
          "internalType": "uint256",
          "name": "deadline",
          "type": "uint256"
        },
        {
          "internalType": "uint8",
          "name": "v",
          "type": "uint8"
        },
        {
          "internalType": "bytes32",
          "name": "r",
          "type": "bytes32"
        },
        {
          "internalType": "bytes32",
          "name": "s",
          "type": "bytes32"
        }
      ],
      "name": "permit",
      "outputs": [],
      "stateMutability": "nonpayable",
      "type": "function"
    },
    {
      "inputs": [],
      "name": "symbol",
      "outputs": [
        {
          "internalType": "string",
          "name": "",
          "type": "string"
        }
      ],
      "stateMutability": "view",
      "type": "function"
    },
    {
      "inputs": [],
      "name": "totalSupply",
      "outputs": [
        {
          "internalType": "uint256",
          "name": "",
          "type": "uint256"
        }
      ],
      "stateMutability": "view",
      "type": "function"
    },
    {
      "inputs": [
        {
          "internalType": "address",
          "name": "to",
          "type": "address"
        },
        {
          "internalType": "uint256",
          "name": "value",
          "type": "uint256"
        }
      ],
      "name": "transfer",
      "outputs": [
        {
          "internalType": "bool",
          "name": "",
          "type": "bool"
        }
      ],
      "stateMutability": "nonpayable",
      "type": "function"
    },
    {
      "inputs": [
        {
          "internalType": "address",
          "name": "from",
          "type": "address"
        },
        {
          "internalType": "address",
          "name": "to",
          "type": "address"
        },
        {
          "internalType": "uint256",
          "name": "value",
          "type": "uint256"
        }
      ],
      "name": "transferFrom",
      "outputs": [
        {
          "internalType": "bool",
          "name": "",
          "type": "bool"
        }
      ],
      "stateMutability": "nonpayable",
      "type": "function"
    }
  ],
  "bytecode": "0x6101606040523480156200001257600080fd5b50604051620023023803806200230283398101604081905262000035916200029a565b6040805180820190915260018152603160f81b60208201528390819081856003620000618382620003b0565b506004620000708282620003b0565b50620000829150839050600562000148565b610120526200009381600662000148565b61014052815160208084019190912060e052815190820120610100524660a0526200012160e05161010051604080517f8b73c3c69bb8fe3d512ecc4cf759cc79239f7b179b0ffacaa9a75d522b39400f60208201529081019290925260608201524660808201523060a082015260009060c00160405160208183030381529060405280519060200120905090565b60805250503060c05250600b805460ff191660ff9290921691909117905550620004d69050565b60006020835110156200016857620001608362000181565b90506200017b565b81620001758482620003b0565b5060ff90505b92915050565b600080829050601f81511115620001b8578260405163305a27a960e01b8152600401620001af91906200047c565b60405180910390fd5b8051620001c582620004b1565b179392505050565b634e487b7160e01b600052604160045260246000fd5b60005b8381101562000200578181015183820152602001620001e6565b50506000910152565b600082601f8301126200021b57600080fd5b81516001600160401b0380821115620002385762000238620001cd565b604051601f8301601f19908116603f01168101908282118183101715620002635762000263620001cd565b816040528381528660208588010111156200027d57600080fd5b62000290846020830160208901620001e3565b9695505050505050565b600080600060608486031215620002b057600080fd5b83516001600160401b0380821115620002c857600080fd5b620002d68783880162000209565b94506020860151915080821115620002ed57600080fd5b50620002fc8682870162000209565b925050604084015160ff811681146200031457600080fd5b809150509250925092565b600181811c908216806200033457607f821691505b6020821081036200035557634e487b7160e01b600052602260045260246000fd5b50919050565b601f821115620003ab576000816000526020600020601f850160051c81016020861015620003865750805b601f850160051c820191505b81811015620003a75782815560010162000392565b5050505b505050565b81516001600160401b03811115620003cc57620003cc620001cd565b620003e481620003dd84546200031f565b846200035b565b602080601f8311600181146200041c5760008415620004035750858301515b600019600386901b1c1916600185901b178555620003a7565b600085815260208120601f198616915b828110156200044d578886015182559484019460019091019084016200042c565b50858210156200046c5787850151600019600388901b60f8161c191681555b5050505050600190811b01905550565b60208152600082518060208401526200049d816040850160208701620001e3565b601f01601f19169190910160400192915050565b80516020808301519190811015620003555760001960209190910360031b1b16919050565b60805160a05160c05160e051610100516101205161014051611dd1620005316000396000610c7801526000610c4b01526000610a15015260006109ed01526000610948015260006109720152600061099c0152611dd16000f3fe608060405234801561001057600080fd5b50600436106101585760003560e01c806370a08231116100c35780639ab24eb01161007c5780639ab24eb014610315578063a9059cbb14610328578063c3cda5201461033b578063d505accf1461034e578063dd62ed3e14610361578063f1127ed81461037457600080fd5b806370a082311461028d5780637ecebe00146102b657806384b0196e146102c95780638e539e8c146102e457806391ddadf4146102f757806395d89b411461030d57600080fd5b80633a46b1a8116101155780633a46b1a8146101e057806340c10f19146101f35780634bf5d7e914610208578063587cde1e146102325780635c19a95c146102525780636fcfff451461026557600080fd5b806306fdde031461015d578063095ea7b31461017b57806318160ddd1461019e57806323b872dd146101b0578063313ce567146101c35780633644e515146101d8575b600080fd5b6101656103b3565b604051610172919061199d565b60405180910390f35b61018e6101893660046119cc565b610445565b6040519015158152602001610172565b6002545b604051908152602001610172565b61018e6101be3660046119f6565b61045f565b600b5460405160ff9091168152602001610172565b6101a2610483565b6101a26101ee3660046119cc565b610492565b6102066102013660046119cc565b61050e565b005b60408051808201909152600e81526d06d6f64653d74696d657374616d760941b6020820152610165565b610245610240366004611a32565b61051c565b6040516101729190611a4d565b610206610260366004611a32565b61053a565b610278610273366004611a32565b610545565b60405163ffffffff9091168152602001610172565b6101a261029b366004611a32565b6001600160a01b031660009081526020819052604090205490565b6101a26102c4366004611a32565b610550565b6102d161055b565b6040516101729796959493929190611a61565b6101a26102f2366004611afa565b6105a1565b60405165ffffffffffff42168152602001610172565b610165610601565b6101a2610323366004611a32565b610610565b61018e6103363660046119cc565b610640565b610206610349366004611b24565b61064e565b61020661035c366004611b7c565b61070b565b6101a261036f366004611be6565b610827565b610387610382366004611c19565b610852565b60408051825165ffffffffffff1681526020928301516001600160d01b03169281019290925201610172565b6060600380546103c290611c59565b80601f01602080910402602001604051908101604052809291908181526020018280546103ee90611c59565b801561043b5780601f106104105761010080835404028352916020019161043b565b820191906000526020600020905b81548152906001019060200180831161041e57829003601f168201915b5050505050905090565b600033610453818585610877565b60019150505b92915050565b60003361046d858285610889565b6104788585856108dc565b506001949350505050565b600061048d61093b565b905090565b60004265ffffffffffff811683106104d357604051637669fc0f60e11b81526004810184905265ffffffffffff821660248201526044015b60405180910390fd5b6104fd6104df84610a66565b6001600160a01b038616600090815260096020526040902090610a9d565b6001600160d01b0316949350505050565b6105188282610b53565b5050565b6001600160a01b039081166000908152600860205260409020541690565b336105188183610b89565b600061045982610c04565b600061045982610c26565b60006060806000806000606061056f610c44565b610577610c71565b60408051600080825260208201909252600f60f81b9b939a50919850469750309650945092509050565b60004265ffffffffffff811683106105dd57604051637669fc0f60e11b81526004810184905265ffffffffffff821660248201526044016104ca565b6105f16105e984610a66565b600a90610a9d565b6001600160d01b03169392505050565b6060600480546103c290611c59565b6001600160a01b038116600090815260096020526040812061063190610c9e565b6001600160d01b031692915050565b6000336104538185856108dc565b8342111561067257604051632341d78760e11b8152600481018590526024016104ca565b604080517fe48329057bfd03d55e49b547132e39cffd9c1820ad7b9d4c5307691425d15adf60208201526001600160a01b0388169181019190915260608101869052608081018590526000906106ec906106e49060a00160405160208183030381529060405280519060200120610cd7565b858585610d04565b90506106f88187610d32565b6107028188610b89565b50505050505050565b8342111561072f5760405163313c898160e11b8152600481018590526024016104ca565b60007f6e71edae12b1b97f4d1f60370fef10105fa2faae0126114a169c64845d6126c988888861075e8c610d71565b6040805160208101969096526001600160a01b0394851690860152929091166060840152608083015260a082015260c0810186905260e00160405160208183030381529060405280519060200120905060006107b982610cd7565b905060006107c982878787610d04565b9050896001600160a01b0316816001600160a01b031614610810576040516325c0072360e11b81526001600160a01b0380831660048301528b1660248201526044016104ca565b61081b8a8a8a610877565b50505050505050505050565b6001600160a01b03918216600090815260016020908152604080832093909416825291909152205490565b60408051808201909152600080825260208201526108708383610d94565b9392505050565b6108848383836001610dca565b505050565b60006108958484610827565b905060001981146108d657818110156108c757828183604051637dc7a0d960e11b81526004016104ca93929190611c93565b6108d684848484036000610dca565b50505050565b6001600160a01b038316610906576000604051634b637e8f60e11b81526004016104ca9190611a4d565b6001600160a01b03821661093057600060405163ec442f0560e01b81526004016104ca9190611a4d565b610884838383610e9f565b6000306001600160a01b037f00000000000000000000000000000000000000000000000000000000000000001614801561099457507f000000000000000000000000000000000000000000000000000000000000000046145b156109be57507f000000000000000000000000000000000000000000000000000000000000000090565b61048d604080517f8b73c3c69bb8fe3d512ecc4cf759cc79239f7b179b0ffacaa9a75d522b39400f60208201527f0000000000000000000000000000000000000000000000000000000000000000918101919091527f000000000000000000000000000000000000000000000000000000000000000060608201524660808201523060a082015260009060c00160405160208183030381529060405280519060200120905090565b600065ffffffffffff821115610a99576040516306dfcc6560e41b815260306004820152602481018390526044016104ca565b5090565b815460009081816005811115610afc576000610ab884610eaa565b610ac29085611cca565b60008881526020902090915081015465ffffffffffff9081169087161015610aec57809150610afa565b610af7816001611cdd565b92505b505b6000610b0a87878585610f92565b90508015610b4557610b2f87610b21600184611cca565b600091825260209091200190565b54600160301b90046001600160d01b0316610b48565b60005b979650505050505050565b6001600160a01b038216610b7d57600060405163ec442f0560e01b81526004016104ca9190611a4d565b61051860008383610e9f565b6000610b948361051c565b6001600160a01b0384811660008181526008602052604080822080546001600160a01b031916888616908117909155905194955093928516927f3134e8a2e6d97e929a7e54011ea5485d7d196dd5f0ba4d4ef95803e8e3fc257f9190a46108848183610bff86610ff4565b611012565b6001600160a01b0381166000908152600960205260408120546104599061117e565b6001600160a01b038116600090815260076020526040812054610459565b606061048d7f000000000000000000000000000000000000000000000000000000000000000060056111af565b606061048d7f000000000000000000000000000000000000000000000000000000000000000060066111af565b80546000908015610cce57610cb883610b21600184611cca565b54600160301b90046001600160d01b0316610870565b60009392505050565b6000610459610ce461093b565b8360405161190160f01b8152600281019290925260228201526042902090565b600080600080610d168888888861125a565b925092509250610d26828261131f565b50909695505050505050565b6000610d3d83610d71565b9050808214610884576040516301d4b62360e61b81526001600160a01b0384166004820152602481018290526044016104ca565b6001600160a01b0316600090815260076020526040902080546001810190915590565b60408051808201909152600080825260208201526001600160a01b038316600090815260096020526040902061087090836113d8565b6001600160a01b038416610df457600060405163e602df0560e01b81526004016104ca9190611a4d565b6001600160a01b038316610e1e576000604051634a1406b160e11b81526004016104ca9190611a4d565b6001600160a01b03808516600090815260016020908152604080832093871683529290522082905580156108d657826001600160a01b0316846001600160a01b03167f8c5be1e5ebec7d5bd14f71427d1e84f3dd0314c0f7b2291e5b200ac8c7c3b92584604051610e9191815260200190565b60405180910390a350505050565b610884838383611448565b600081600003610ebc57506000919050565b60006001610ec9846114af565b901c6001901b90506001818481610ee257610ee2611cf0565b048201901c90506001818481610efa57610efa611cf0565b048201901c90506001818481610f1257610f12611cf0565b048201901c90506001818481610f2a57610f2a611cf0565b048201901c90506001818481610f4257610f42611cf0565b048201901c90506001818481610f5a57610f5a611cf0565b048201901c90506001818481610f7257610f72611cf0565b048201901c905061087081828581610f8c57610f8c611cf0565b04611543565b60005b81831015610fec576000610fa98484611559565b60008781526020902090915065ffffffffffff86169082015465ffffffffffff161115610fd857809250610fe6565b610fe3816001611cdd565b93505b50610f95565b509392505050565b6001600160a01b038116600090815260208190526040812054610459565b816001600160a01b0316836001600160a01b0316141580156110345750600081115b15610884576001600160a01b038316156110dc576001600160a01b038316600090815260096020526040812081906110779061157461107286611580565b6115b4565b6001600160d01b031691506001600160d01b03169150846001600160a01b03167fdec2bacdd2f05b59de34da9b523dff8be42e5e38e818c82fdb0bae774387a72483836040516110d1929190918252602082015260400190565b60405180910390a250505b6001600160a01b03821615610884576001600160a01b03821660009081526009602052604081208190611115906115e661107286611580565b6001600160d01b031691506001600160d01b03169150836001600160a01b03167fdec2bacdd2f05b59de34da9b523dff8be42e5e38e818c82fdb0bae774387a724838360405161116f929190918252602082015260400190565b60405180910390a25050505050565b600063ffffffff821115610a99576040516306dfcc6560e41b815260206004820152602481018390526044016104ca565b606060ff83146111c9576111c2836115f2565b9050610459565b8180546111d590611c59565b80601f016020809104026020016040519081016040528092919081815260200182805461120190611c59565b801561124e5780601f106112235761010080835404028352916020019161124e565b820191906000526020600020905b81548152906001019060200180831161123157829003601f168201915b50505050509050610459565b600080806fa2a8918ca85bafe22016d0b997e4df60600160ff1b0384111561128b5750600091506003905082611315565b604080516000808252602082018084528a905260ff891692820192909252606081018790526080810186905260019060a0016020604051602081039080840390855afa1580156112df573d6000803e3d6000fd5b5050604051601f1901519150506001600160a01b03811661130b57506000925060019150829050611315565b9250600091508190505b9450945094915050565b600082600381111561133357611333611d06565b0361133c575050565b600182600381111561135057611350611d06565b0361136e5760405163f645eedf60e01b815260040160405180910390fd5b600282600381111561138257611382611d06565b036113a35760405163fce698f760e01b8152600481018290526024016104ca565b60038260038111156113b7576113b7611d06565b03610518576040516335e2f38360e21b8152600481018290526024016104ca565b6040805180820190915260008082526020820152826000018263ffffffff168154811061140757611407611d1c565b60009182526020918290206040805180820190915291015465ffffffffffff81168252600160301b90046001600160d01b0316918101919091529392505050565b611453838383611631565b6001600160a01b0383166114a457600061146c60025490565b90506001600160d01b03808211156114a157604051630e58ae9360e11b815260048101839052602481018290526044016104ca565b50505b610884838383611748565b600080608083901c156114c457608092831c92015b604083901c156114d657604092831c92015b602083901c156114e857602092831c92015b601083901c156114fa57601092831c92015b600883901c1561150c57600892831c92015b600483901c1561151e57600492831c92015b600283901c1561153057600292831c92015b600183901c156104595760010192915050565b60008183106115525781610870565b5090919050565b60006115686002848418611d32565b61087090848416611cdd565b60006108708284611d54565b60006001600160d01b03821115610a99576040516306dfcc6560e41b815260d06004820152602481018390526044016104ca565b6000806115d9426115d16115c788610c9e565b868863ffffffff16565b8791906117a7565b915091505b935093915050565b60006108708284611d7b565b606060006115ff836117b5565b604080516020808252818301909252919250600091906020820181803683375050509182525060208101929092525090565b6001600160a01b03831661165c5780600260008282546116519190611cdd565b909155506116bb9050565b6001600160a01b0383166000908152602081905260409020548181101561169c5783818360405163391434e360e21b81526004016104ca93929190611c93565b6001600160a01b03841660009081526020819052604090209082900390555b6001600160a01b0382166116d7576002805482900390556116f6565b6001600160a01b03821660009081526020819052604090208054820190555b816001600160a01b0316836001600160a01b03167fddf252ad1be2c89b69c2b068fc378daa952ba7f163c4a11628f55a4df523b3ef8360405161173b91815260200190565b60405180910390a3505050565b6001600160a01b03831661176a57611767600a6115e661107284611580565b50505b6001600160a01b03821661178c57611789600a61157461107284611580565b50505b6108846117988461051c565b6117a18461051c565b83611012565b6000806115d98585856117dd565b600060ff8216601f81111561045957604051632cd44ac360e21b815260040160405180910390fd5b8254600090819080156118fc5760006117fb87610b21600185611cca565b60408051808201909152905465ffffffffffff808216808452600160301b9092046001600160d01b03166020840152919250908716101561184f57604051632520601d60e01b815260040160405180910390fd5b805165ffffffffffff80881691160361189b578461187288610b21600186611cca565b80546001600160d01b0392909216600160301b0265ffffffffffff9092169190911790556118ec565b6040805180820190915265ffffffffffff80881682526001600160d01b0380881660208085019182528b54600181018d5560008d81529190912094519151909216600160301b029216919091179101555b6020015192508391506115de9050565b50506040805180820190915265ffffffffffff80851682526001600160d01b0380851660208085019182528854600181018a5560008a815291822095519251909316600160301b0291909316179201919091559050816115de565b6000815180845260005b8181101561197d57602081850181015186830182015201611961565b506000602082860101526020601f19601f83011685010191505092915050565b6020815260006108706020830184611957565b80356001600160a01b03811681146119c757600080fd5b919050565b600080604083850312156119df57600080fd5b6119e8836119b0565b946020939093013593505050565b600080600060608486031215611a0b57600080fd5b611a14846119b0565b9250611a22602085016119b0565b9150604084013590509250925092565b600060208284031215611a4457600080fd5b610870826119b0565b6001600160a01b0391909116815260200190565b60ff60f81b881681526000602060e06020840152611a8260e084018a611957565b8381036040850152611a94818a611957565b606085018990526001600160a01b038816608086015260a0850187905284810360c08601528551808252602080880193509091019060005b81811015611ae857835183529284019291840191600101611acc565b50909c9b505050505050505050505050565b600060208284031215611b0c57600080fd5b5035919050565b803560ff811681146119c757600080fd5b60008060008060008060c08789031215611b3d57600080fd5b611b46876119b0565b95506020870135945060408701359350611b6260608801611b13565b92506080870135915060a087013590509295509295509295565b600080600080600080600060e0888a031215611b9757600080fd5b611ba0886119b0565b9650611bae602089016119b0565b95506040880135945060608801359350611bca60808901611b13565b925060a0880135915060c0880135905092959891949750929550565b60008060408385031215611bf957600080fd5b611c02836119b0565b9150611c10602084016119b0565b90509250929050565b60008060408385031215611c2c57600080fd5b611c35836119b0565b9150602083013563ffffffff81168114611c4e57600080fd5b809150509250929050565b600181811c90821680611c6d57607f821691505b602082108103611c8d57634e487b7160e01b600052602260045260246000fd5b50919050565b6001600160a01b039390931683526020830191909152604082015260600190565b634e487b7160e01b600052601160045260246000fd5b8181038181111561045957610459611cb4565b8082018082111561045957610459611cb4565b634e487b7160e01b600052601260045260246000fd5b634e487b7160e01b600052602160045260246000fd5b634e487b7160e01b600052603260045260246000fd5b600082611d4f57634e487b7160e01b600052601260045260246000fd5b500490565b6001600160d01b03828116828216039080821115611d7457611d74611cb4565b5092915050565b6001600160d01b03818116838216019080821115611d7457611d74611cb456fea264697066735822122069aa8b457c49260d58b25f7c97a702ef6ecf273a7f6441e849915132ce44ca8164736f6c63430008180033",
  "linkReferences": {},
  "deployedLinkReferences": {}
}