{
  "_format": "hh-sol-artifact-1",
  "contractName": "ERC20Mock",
  "sourceName": "contracts/buildings/mock/ERC20Mock.sol",
  "abi": [
    {
      "inputs": [
        {
          "internalType": "string",
          "name": "_name",
          "type": "string"
        },
        {
          "internalType": "string",
          "name": "_symbol",
          "type": "string"
        },
        {
          "internalType": "uint8",
          "name": "_decimals",
          "type": "uint8"
        }
      ],
      "stateMutability": "nonpayable",
      "type": "constructor"
    },
    {
      "inputs": [],
      "name": "CheckpointUnorderedInsertion",
      "type": "error"
    },
    {
      "inputs": [],
      "name": "ECDSAInvalidSignature",
      "type": "error"
    },
    {
      "inputs": [
        {
          "internalType": "uint256",
          "name": "length",
          "type": "uint256"
        }
      ],
      "name": "ECDSAInvalidSignatureLength",
      "type": "error"
    },
    {
      "inputs": [
        {
          "internalType": "bytes32",
          "name": "s",
          "type": "bytes32"
        }
      ],
      "name": "ECDSAInvalidSignatureS",
      "type": "error"
    },
    {
      "inputs": [
        {
          "internalType": "uint256",
          "name": "increasedSupply",
          "type": "uint256"
        },
        {
          "internalType": "uint256",
          "name": "cap",
          "type": "uint256"
        }
      ],
      "name": "ERC20ExceededSafeSupply",
      "type": "error"
    },
    {
      "inputs": [
        {
          "internalType": "address",
          "name": "spender",
          "type": "address"
        },
        {
          "internalType": "uint256",
          "name": "allowance",
          "type": "uint256"
        },
        {
          "internalType": "uint256",
          "name": "needed",
          "type": "uint256"
        }
      ],
      "name": "ERC20InsufficientAllowance",
      "type": "error"
    },
    {
      "inputs": [
        {
          "internalType": "address",
          "name": "sender",
          "type": "address"
        },
        {
          "internalType": "uint256",
          "name": "balance",
          "type": "uint256"
        },
        {
          "internalType": "uint256",
          "name": "needed",
          "type": "uint256"
        }
      ],
      "name": "ERC20InsufficientBalance",
      "type": "error"
    },
    {
      "inputs": [
        {
          "internalType": "address",
          "name": "approver",
          "type": "address"
        }
      ],
      "name": "ERC20InvalidApprover",
      "type": "error"
    },
    {
      "inputs": [
        {
          "internalType": "address",
          "name": "receiver",
          "type": "address"
        }
      ],
      "name": "ERC20InvalidReceiver",
      "type": "error"
    },
    {
      "inputs": [
        {
          "internalType": "address",
          "name": "sender",
          "type": "address"
        }
      ],
      "name": "ERC20InvalidSender",
      "type": "error"
    },
    {
      "inputs": [
        {
          "internalType": "address",
          "name": "spender",
          "type": "address"
        }
      ],
      "name": "ERC20InvalidSpender",
      "type": "error"
    },
    {
      "inputs": [
        {
          "internalType": "uint256",
          "name": "timepoint",
          "type": "uint256"
        },
        {
          "internalType": "uint48",
          "name": "clock",
          "type": "uint48"
        }
      ],
      "name": "ERC5805FutureLookup",
      "type": "error"
    },
    {
      "inputs": [],
      "name": "ERC6372InconsistentClock",
      "type": "error"
    },
    {
      "inputs": [
        {
          "internalType": "address",
          "name": "account",
          "type": "address"
        },
        {
          "internalType": "uint256",
          "name": "currentNonce",
          "type": "uint256"
        }
      ],
      "name": "InvalidAccountNonce",
      "type": "error"
    },
    {
      "inputs": [],
      "name": "InvalidShortString",
      "type": "error"
    },
    {
      "inputs": [
        {
          "internalType": "uint8",
          "name": "bits",
          "type": "uint8"
        },
        {
          "internalType": "uint256",
          "name": "value",
          "type": "uint256"
        }
      ],
      "name": "SafeCastOverflowedUintDowncast",
      "type": "error"
    },
    {
      "inputs": [
        {
          "internalType": "string",
          "name": "str",
          "type": "string"
        }
      ],
      "name": "StringTooLong",
      "type": "error"
    },
    {
      "inputs": [
        {
          "internalType": "uint256",
          "name": "expiry",
          "type": "uint256"
        }
      ],
      "name": "VotesExpiredSignature",
      "type": "error"
    },
    {
      "anonymous": false,
      "inputs": [
        {
          "indexed": true,
          "internalType": "address",
          "name": "owner",
          "type": "address"
        },
        {
          "indexed": true,
          "internalType": "address",
          "name": "spender",
          "type": "address"
        },
        {
          "indexed": false,
          "internalType": "uint256",
          "name": "value",
          "type": "uint256"
        }
      ],
      "name": "Approval",
      "type": "event"
    },
    {
      "anonymous": false,
      "inputs": [
        {
          "indexed": true,
          "internalType": "address",
          "name": "delegator",
          "type": "address"
        },
        {
          "indexed": true,
          "internalType": "address",
          "name": "fromDelegate",
          "type": "address"
        },
        {
          "indexed": true,
          "internalType": "address",
          "name": "toDelegate",
          "type": "address"
        }
      ],
      "name": "DelegateChanged",
      "type": "event"
    },
    {
      "anonymous": false,
      "inputs": [
        {
          "indexed": true,
          "internalType": "address",
          "name": "delegate",
          "type": "address"
        },
        {
          "indexed": false,
          "internalType": "uint256",
          "name": "previousVotes",
          "type": "uint256"
        },
        {
          "indexed": false,
          "internalType": "uint256",
          "name": "newVotes",
          "type": "uint256"
        }
      ],
      "name": "DelegateVotesChanged",
      "type": "event"
    },
    {
      "anonymous": false,
      "inputs": [],
      "name": "EIP712DomainChanged",
      "type": "event"
    },
    {
      "anonymous": false,
      "inputs": [
        {
          "indexed": true,
          "internalType": "address",
          "name": "from",
          "type": "address"
        },
        {
          "indexed": true,
          "internalType": "address",
          "name": "to",
          "type": "address"
        },
        {
          "indexed": false,
          "internalType": "uint256",
          "name": "value",
          "type": "uint256"
        }
      ],
      "name": "Transfer",
      "type": "event"
    },
    {
      "inputs": [],
      "name": "CLOCK_MODE",
      "outputs": [
        {
          "internalType": "string",
          "name": "",
          "type": "string"
        }
      ],
      "stateMutability": "pure",
      "type": "function"
    },
    {
      "inputs": [
        {
          "internalType": "address",
          "name": "owner",
          "type": "address"
        },
        {
          "internalType": "address",
          "name": "spender",
          "type": "address"
        }
      ],
      "name": "allowance",
      "outputs": [
        {
          "internalType": "uint256",
          "name": "",
          "type": "uint256"
        }
      ],
      "stateMutability": "view",
      "type": "function"
    },
    {
      "inputs": [
        {
          "internalType": "address",
          "name": "spender",
          "type": "address"
        },
        {
          "internalType": "uint256",
          "name": "value",
          "type": "uint256"
        }
      ],
      "name": "approve",
      "outputs": [
        {
          "internalType": "bool",
          "name": "",
          "type": "bool"
        }
      ],
      "stateMutability": "nonpayable",
      "type": "function"
    },
    {
      "inputs": [
        {
          "internalType": "address",
          "name": "account",
          "type": "address"
        }
      ],
      "name": "balanceOf",
      "outputs": [
        {
          "internalType": "uint256",
          "name": "",
          "type": "uint256"
        }
      ],
      "stateMutability": "view",
      "type": "function"
    },
    {
      "inputs": [
        {
          "internalType": "address",
          "name": "account",
          "type": "address"
        },
        {
          "internalType": "uint32",
          "name": "pos",
          "type": "uint32"
        }
      ],
      "name": "checkpoints",
      "outputs": [
        {
          "components": [
            {
              "internalType": "uint48",
              "name": "_key",
              "type": "uint48"
            },
            {
              "internalType": "uint208",
              "name": "_value",
              "type": "uint208"
            }
          ],
          "internalType": "struct Checkpoints.Checkpoint208",
          "name": "",
          "type": "tuple"
        }
      ],
      "stateMutability": "view",
      "type": "function"
    },
    {
      "inputs": [],
      "name": "clock",
      "outputs": [
        {
          "internalType": "uint48",
          "name": "",
          "type": "uint48"
        }
      ],
      "stateMutability": "view",
      "type": "function"
    },
    {
      "inputs": [],
      "name": "decimals",
      "outputs": [
        {
          "internalType": "uint8",
          "name": "",
          "type": "uint8"
        }
      ],
      "stateMutability": "view",
      "type": "function"
    },
    {
      "inputs": [
        {
          "internalType": "address",
          "name": "delegatee",
          "type": "address"
        }
      ],
      "name": "delegate",
      "outputs": [],
      "stateMutability": "nonpayable",
      "type": "function"
    },
    {
      "inputs": [
        {
          "internalType": "address",
          "name": "delegatee",
          "type": "address"
        },
        {
          "internalType": "uint256",
          "name": "nonce",
          "type": "uint256"
        },
        {
          "internalType": "uint256",
          "name": "expiry",
          "type": "uint256"
        },
        {
          "internalType": "uint8",
          "name": "v",
          "type": "uint8"
        },
        {
          "internalType": "bytes32",
          "name": "r",
          "type": "bytes32"
        },
        {
          "internalType": "bytes32",
          "name": "s",
          "type": "bytes32"
        }
      ],
      "name": "delegateBySig",
      "outputs": [],
      "stateMutability": "nonpayable",
      "type": "function"
    },
    {
      "inputs": [
        {
          "internalType": "address",
          "name": "account",
          "type": "address"
        }
      ],
      "name": "delegates",
      "outputs": [
        {
          "internalType": "address",
          "name": "",
          "type": "address"
        }
      ],
      "stateMutability": "view",
      "type": "function"
    },
    {
      "inputs": [],
      "name": "eip712Domain",
      "outputs": [
        {
          "internalType": "bytes1",
          "name": "fields",
          "type": "bytes1"
        },
        {
          "internalType": "string",
          "name": "name",
          "type": "string"
        },
        {
          "internalType": "string",
          "name": "version",
          "type": "string"
        },
        {
          "internalType": "uint256",
          "name": "chainId",
          "type": "uint256"
        },
        {
          "internalType": "address",
          "name": "verifyingContract",
          "type": "address"
        },
        {
          "internalType": "bytes32",
          "name": "salt",
          "type": "bytes32"
        },
        {
          "internalType": "uint256[]",
          "name": "extensions",
          "type": "uint256[]"
        }
      ],
      "stateMutability": "view",
      "type": "function"
    },
    {
      "inputs": [
        {
          "internalType": "uint256",
          "name": "timepoint",
          "type": "uint256"
        }
      ],
      "name": "getPastTotalSupply",
      "outputs": [
        {
          "internalType": "uint256",
          "name": "",
          "type": "uint256"
        }
      ],
      "stateMutability": "view",
      "type": "function"
    },
    {
      "inputs": [
        {
          "internalType": "address",
          "name": "account",
          "type": "address"
        },
        {
          "internalType": "uint256",
          "name": "timepoint",
          "type": "uint256"
        }
      ],
      "name": "getPastVotes",
      "outputs": [
        {
          "internalType": "uint256",
          "name": "",
          "type": "uint256"
        }
      ],
      "stateMutability": "view",
      "type": "function"
    },
    {
      "inputs": [
        {
          "internalType": "address",
          "name": "account",
          "type": "address"
        }
      ],
      "name": "getVotes",
      "outputs": [
        {
          "internalType": "uint256",
          "name": "",
          "type": "uint256"
        }
      ],
      "stateMutability": "view",
      "type": "function"
    },
    {
      "inputs": [
        {
          "internalType": "address",
          "name": "to",
          "type": "address"
        },
        {
          "internalType": "uint256",
          "name": "amount",
          "type": "uint256"
        }
      ],
      "name": "mint",
      "outputs": [],
      "stateMutability": "nonpayable",
      "type": "function"
    },
    {
      "inputs": [],
      "name": "name",
      "outputs": [
        {
          "internalType": "string",
          "name": "",
          "type": "string"
        }
      ],
      "stateMutability": "view",
      "type": "function"
    },
    {
      "inputs": [
        {
          "internalType": "address",
          "name": "owner",
          "type": "address"
        }
      ],
      "name": "nonces",
      "outputs": [
        {
          "internalType": "uint256",
          "name": "",
          "type": "uint256"
        }
      ],
      "stateMutability": "view",
      "type": "function"
    },
    {
      "inputs": [
        {
          "internalType": "address",
          "name": "account",
          "type": "address"
        }
      ],
      "name": "numCheckpoints",
      "outputs": [
        {
          "internalType": "uint32",
          "name": "",
          "type": "uint32"
        }
      ],
      "stateMutability": "view",
      "type": "function"
    },
    {
      "inputs": [],
      "name": "symbol",
      "outputs": [
        {
          "internalType": "string",
          "name": "",
          "type": "string"
        }
      ],
      "stateMutability": "view",
      "type": "function"
    },
    {
      "inputs": [],
      "name": "totalSupply",
      "outputs": [
        {
          "internalType": "uint256",
          "name": "",
          "type": "uint256"
        }
      ],
      "stateMutability": "view",
      "type": "function"
    },
    {
      "inputs": [
        {
          "internalType": "address",
          "name": "to",
          "type": "address"
        },
        {
          "internalType": "uint256",
          "name": "value",
          "type": "uint256"
        }
      ],
      "name": "transfer",
      "outputs": [
        {
          "internalType": "bool",
          "name": "",
          "type": "bool"
        }
      ],
      "stateMutability": "nonpayable",
      "type": "function"
    },
    {
      "inputs": [
        {
          "internalType": "address",
          "name": "from",
          "type": "address"
        },
        {
          "internalType": "address",
          "name": "to",
          "type": "address"
        },
        {
          "internalType": "uint256",
          "name": "value",
          "type": "uint256"
        }
      ],
      "name": "transferFrom",
      "outputs": [
        {
          "internalType": "bool",
          "name": "",
          "type": "bool"
        }
      ],
      "stateMutability": "nonpayable",
      "type": "function"
    }
  ],
  "bytecode": "0x6101606040523480156200001257600080fd5b506040516200211338038062002113833981016040819052620000359162000297565b6040805180820190915260018152603160f81b60208201528390818460036200005f8382620003ad565b5060046200006e8282620003ad565b50620000809150839050600562000145565b610120526200009181600662000145565b61014052815160208084019190912060e052815190820120610100524660a0526200011f60e05161010051604080517f8b73c3c69bb8fe3d512ecc4cf759cc79239f7b179b0ffacaa9a75d522b39400f60208201529081019290925260608201524660808201523060a082015260009060c00160405160208183030381529060405280519060200120905090565b60805250503060c052600b805460ff191660ff9290921691909117905550620004d39050565b600060208351101562000165576200015d836200017e565b905062000178565b81620001728482620003ad565b5060ff90505b92915050565b600080829050601f81511115620001b5578260405163305a27a960e01b8152600401620001ac919062000479565b60405180910390fd5b8051620001c282620004ae565b179392505050565b634e487b7160e01b600052604160045260246000fd5b60005b83811015620001fd578181015183820152602001620001e3565b50506000910152565b600082601f8301126200021857600080fd5b81516001600160401b0380821115620002355762000235620001ca565b604051601f8301601f19908116603f01168101908282118183101715620002605762000260620001ca565b816040528381528660208588010111156200027a57600080fd5b6200028d846020830160208901620001e0565b9695505050505050565b600080600060608486031215620002ad57600080fd5b83516001600160401b0380821115620002c557600080fd5b620002d38783880162000206565b94506020860151915080821115620002ea57600080fd5b50620002f98682870162000206565b925050604084015160ff811681146200031157600080fd5b809150509250925092565b600181811c908216806200033157607f821691505b6020821081036200035257634e487b7160e01b600052602260045260246000fd5b50919050565b601f821115620003a8576000816000526020600020601f850160051c81016020861015620003835750805b601f850160051c820191505b81811015620003a4578281556001016200038f565b5050505b505050565b81516001600160401b03811115620003c957620003c9620001ca565b620003e181620003da84546200031c565b8462000358565b602080601f831160018114620004195760008415620004005750858301515b600019600386901b1c1916600185901b178555620003a4565b600085815260208120601f198616915b828110156200044a5788860151825594840194600190910190840162000429565b5085821015620004695787850151600019600388901b60f8161c191681555b5050505050600190811b01905550565b60208152600082518060208401526200049a816040850160208701620001e0565b601f01601f19169190910160400192915050565b80516020808301519190811015620003525760001960209190910360031b1b16919050565b60805160a05160c05160e051610100516101205161014051611be56200052e60003960006109e3015260006109b1015260006110900152600061106801526000610fc301526000610fed015260006110170152611be56000f3fe608060405234801561001057600080fd5b50600436106101425760003560e01c806370a08231116100b857806395d89b411161007c57806395d89b41146103055780639ab24eb01461030d578063a9059cbb14610320578063c3cda52014610333578063dd62ed3e14610346578063f1127ed81461035957600080fd5b806370a082311461026f5780637ecebe001461029857806384b0196e146102c15780638e539e8c146102dc57806391ddadf4146102ef57600080fd5b80633a46b1a81161010a5780633a46b1a8146101c257806340c10f19146101d55780634bf5d7e9146101ea578063587cde1e146102145780635c19a95c146102345780636fcfff451461024757600080fd5b806306fdde0314610147578063095ea7b31461016557806318160ddd1461018857806323b872dd1461019a578063313ce567146101ad575b600080fd5b61014f610398565b60405161015c9190611824565b60405180910390f35b610178610173366004611853565b61042a565b604051901515815260200161015c565b6002545b60405190815260200161015c565b6101786101a836600461187d565b610444565b600b5460405160ff909116815260200161015c565b61018c6101d0366004611853565b610468565b6101e86101e3366004611853565b6104e4565b005b60408051808201909152600e81526d06d6f64653d74696d657374616d760941b602082015261014f565b6102276102223660046118b9565b6104f2565b60405161015c91906118d4565b6101e86102423660046118b9565b610510565b61025a6102553660046118b9565b61051b565b60405163ffffffff909116815260200161015c565b61018c61027d3660046118b9565b6001600160a01b031660009081526020819052604090205490565b61018c6102a63660046118b9565b6001600160a01b031660009081526007602052604090205490565b6102c9610526565b60405161015c97969594939291906118e8565b61018c6102ea366004611981565b61056c565b60405165ffffffffffff4216815260200161015c565b61014f6105cc565b61018c61031b3660046118b9565b6105db565b61017861032e366004611853565b61060b565b6101e861034136600461199a565b610619565b61018c6103543660046119fa565b6106d6565b61036c610367366004611a2d565b610701565b60408051825165ffffffffffff1681526020928301516001600160d01b0316928101929092520161015c565b6060600380546103a790611a6d565b80601f01602080910402602001604051908101604052809291908181526020018280546103d390611a6d565b80156104205780601f106103f557610100808354040283529160200191610420565b820191906000526020600020905b81548152906001019060200180831161040357829003601f168201915b5050505050905090565b600033610438818585610726565b60019150505b92915050565b600033610452858285610738565b61045d85858561078b565b506001949350505050565b60004265ffffffffffff811683106104a957604051637669fc0f60e11b81526004810184905265ffffffffffff821660248201526044015b60405180910390fd5b6104d36104b5846107ea565b6001600160a01b038616600090815260096020526040902090610821565b6001600160d01b0316949350505050565b6104ee82826108d7565b5050565b6001600160a01b039081166000908152600860205260409020541690565b336104ee818361090d565b600061043e82610988565b60006060806000806000606061053a6109aa565b6105426109dc565b60408051600080825260208201909252600f60f81b9b939a50919850469750309650945092509050565b60004265ffffffffffff811683106105a857604051637669fc0f60e11b81526004810184905265ffffffffffff821660248201526044016104a0565b6105bc6105b4846107ea565b600a90610821565b6001600160d01b03169392505050565b6060600480546103a790611a6d565b6001600160a01b03811660009081526009602052604081206105fc90610a09565b6001600160d01b031692915050565b60003361043881858561078b565b8342111561063d57604051632341d78760e11b8152600481018590526024016104a0565b604080517fe48329057bfd03d55e49b547132e39cffd9c1820ad7b9d4c5307691425d15adf60208201526001600160a01b0388169181019190915260608101869052608081018590526000906106b7906106af9060a00160405160208183030381529060405280519060200120610a42565b858585610a6f565b90506106c38187610a9d565b6106cd818861090d565b50505050505050565b6001600160a01b03918216600090815260016020908152604080832093909416825291909152205490565b604080518082019091526000808252602082015261071f8383610af0565b9392505050565b6107338383836001610b26565b505050565b600061074484846106d6565b90506000198114610785578181101561077657828183604051637dc7a0d960e11b81526004016104a093929190611aa7565b61078584848484036000610b26565b50505050565b6001600160a01b0383166107b5576000604051634b637e8f60e11b81526004016104a091906118d4565b6001600160a01b0382166107df57600060405163ec442f0560e01b81526004016104a091906118d4565b610733838383610bfb565b600065ffffffffffff82111561081d576040516306dfcc6560e41b815260306004820152602481018390526044016104a0565b5090565b81546000908181600581111561088057600061083c84610c06565b6108469085611ade565b60008881526020902090915081015465ffffffffffff90811690871610156108705780915061087e565b61087b816001611af1565b92505b505b600061088e87878585610cee565b905080156108c9576108b3876108a5600184611ade565b600091825260209091200190565b54600160301b90046001600160d01b03166108cc565b60005b979650505050505050565b6001600160a01b03821661090157600060405163ec442f0560e01b81526004016104a091906118d4565b6104ee60008383610bfb565b6000610918836104f2565b6001600160a01b0384811660008181526008602052604080822080546001600160a01b031916888616908117909155905194955093928516927f3134e8a2e6d97e929a7e54011ea5485d7d196dd5f0ba4d4ef95803e8e3fc257f9190a4610733818361098386610d50565b610d6e565b6001600160a01b03811660009081526009602052604081205461043e90610eda565b60606109d77f00000000000000000000000000000000000000000000000000000000000000006005610f0b565b905090565b60606109d77f00000000000000000000000000000000000000000000000000000000000000006006610f0b565b80546000908015610a3957610a23836108a5600184611ade565b54600160301b90046001600160d01b031661071f565b60009392505050565b600061043e610a4f610fb6565b8360405161190160f01b8152600281019290925260228201526042902090565b600080600080610a81888888886110e1565b925092509250610a9182826111a6565b50909695505050505050565b6001600160a01b0382166000908152600760205260409020805460018101909155818114610733576040516301d4b62360e61b81526001600160a01b0384166004820152602481018290526044016104a0565b60408051808201909152600080825260208201526001600160a01b038316600090815260096020526040902061071f908361125f565b6001600160a01b038416610b5057600060405163e602df0560e01b81526004016104a091906118d4565b6001600160a01b038316610b7a576000604051634a1406b160e11b81526004016104a091906118d4565b6001600160a01b038085166000908152600160209081526040808320938716835292905220829055801561078557826001600160a01b0316846001600160a01b03167f8c5be1e5ebec7d5bd14f71427d1e84f3dd0314c0f7b2291e5b200ac8c7c3b92584604051610bed91815260200190565b60405180910390a350505050565b6107338383836112cf565b600081600003610c1857506000919050565b60006001610c2584611336565b901c6001901b90506001818481610c3e57610c3e611b04565b048201901c90506001818481610c5657610c56611b04565b048201901c90506001818481610c6e57610c6e611b04565b048201901c90506001818481610c8657610c86611b04565b048201901c90506001818481610c9e57610c9e611b04565b048201901c90506001818481610cb657610cb6611b04565b048201901c90506001818481610cce57610cce611b04565b048201901c905061071f81828581610ce857610ce8611b04565b046113ca565b60005b81831015610d48576000610d0584846113e0565b60008781526020902090915065ffffffffffff86169082015465ffffffffffff161115610d3457809250610d42565b610d3f816001611af1565b93505b50610cf1565b509392505050565b6001600160a01b03811660009081526020819052604081205461043e565b816001600160a01b0316836001600160a01b031614158015610d905750600081115b15610733576001600160a01b03831615610e38576001600160a01b03831660009081526009602052604081208190610dd3906113fb610dce86611407565b61143b565b6001600160d01b031691506001600160d01b03169150846001600160a01b03167fdec2bacdd2f05b59de34da9b523dff8be42e5e38e818c82fdb0bae774387a7248383604051610e2d929190918252602082015260400190565b60405180910390a250505b6001600160a01b03821615610733576001600160a01b03821660009081526009602052604081208190610e719061146d610dce86611407565b6001600160d01b031691506001600160d01b03169150836001600160a01b03167fdec2bacdd2f05b59de34da9b523dff8be42e5e38e818c82fdb0bae774387a7248383604051610ecb929190918252602082015260400190565b60405180910390a25050505050565b600063ffffffff82111561081d576040516306dfcc6560e41b815260206004820152602481018390526044016104a0565b606060ff8314610f2557610f1e83611479565b905061043e565b818054610f3190611a6d565b80601f0160208091040260200160405190810160405280929190818152602001828054610f5d90611a6d565b8015610faa5780601f10610f7f57610100808354040283529160200191610faa565b820191906000526020600020905b815481529060010190602001808311610f8d57829003601f168201915b5050505050905061043e565b6000306001600160a01b037f00000000000000000000000000000000000000000000000000000000000000001614801561100f57507f000000000000000000000000000000000000000000000000000000000000000046145b1561103957507f000000000000000000000000000000000000000000000000000000000000000090565b6109d7604080517f8b73c3c69bb8fe3d512ecc4cf759cc79239f7b179b0ffacaa9a75d522b39400f60208201527f0000000000000000000000000000000000000000000000000000000000000000918101919091527f000000000000000000000000000000000000000000000000000000000000000060608201524660808201523060a082015260009060c00160405160208183030381529060405280519060200120905090565b600080806fa2a8918ca85bafe22016d0b997e4df60600160ff1b03841115611112575060009150600390508261119c565b604080516000808252602082018084528a905260ff891692820192909252606081018790526080810186905260019060a0016020604051602081039080840390855afa158015611166573d6000803e3d6000fd5b5050604051601f1901519150506001600160a01b0381166111925750600092506001915082905061119c565b9250600091508190505b9450945094915050565b60008260038111156111ba576111ba611b1a565b036111c3575050565b60018260038111156111d7576111d7611b1a565b036111f55760405163f645eedf60e01b815260040160405180910390fd5b600282600381111561120957611209611b1a565b0361122a5760405163fce698f760e01b8152600481018290526024016104a0565b600382600381111561123e5761123e611b1a565b036104ee576040516335e2f38360e21b8152600481018290526024016104a0565b6040805180820190915260008082526020820152826000018263ffffffff168154811061128e5761128e611b30565b60009182526020918290206040805180820190915291015465ffffffffffff81168252600160301b90046001600160d01b0316918101919091529392505050565b6112da8383836114b8565b6001600160a01b03831661132b5760006112f360025490565b90506001600160d01b038082111561132857604051630e58ae9360e11b815260048101839052602481018290526044016104a0565b50505b6107338383836115cf565b600080608083901c1561134b57608092831c92015b604083901c1561135d57604092831c92015b602083901c1561136f57602092831c92015b601083901c1561138157601092831c92015b600883901c1561139357600892831c92015b600483901c156113a557600492831c92015b600283901c156113b757600292831c92015b600183901c1561043e5760010192915050565b60008183106113d9578161071f565b5090919050565b60006113ef6002848418611b46565b61071f90848416611af1565b600061071f8284611b68565b60006001600160d01b0382111561081d576040516306dfcc6560e41b815260d06004820152602481018390526044016104a0565b6000806114604261145861144e88610a09565b868863ffffffff16565b87919061162e565b915091505b935093915050565b600061071f8284611b8f565b606060006114868361163c565b604080516020808252818301909252919250600091906020820181803683375050509182525060208101929092525090565b6001600160a01b0383166114e35780600260008282546114d89190611af1565b909155506115429050565b6001600160a01b038316600090815260208190526040902054818110156115235783818360405163391434e360e21b81526004016104a093929190611aa7565b6001600160a01b03841660009081526020819052604090209082900390555b6001600160a01b03821661155e5760028054829003905561157d565b6001600160a01b03821660009081526020819052604090208054820190555b816001600160a01b0316836001600160a01b03167fddf252ad1be2c89b69c2b068fc378daa952ba7f163c4a11628f55a4df523b3ef836040516115c291815260200190565b60405180910390a3505050565b6001600160a01b0383166115f1576115ee600a61146d610dce84611407565b50505b6001600160a01b03821661161357611610600a6113fb610dce84611407565b50505b61073361161f846104f2565b611628846104f2565b83610d6e565b600080611460858585611664565b600060ff8216601f81111561043e57604051632cd44ac360e21b815260040160405180910390fd5b825460009081908015611783576000611682876108a5600185611ade565b60408051808201909152905465ffffffffffff808216808452600160301b9092046001600160d01b0316602084015291925090871610156116d657604051632520601d60e01b815260040160405180910390fd5b805165ffffffffffff80881691160361172257846116f9886108a5600186611ade565b80546001600160d01b0392909216600160301b0265ffffffffffff909216919091179055611773565b6040805180820190915265ffffffffffff80881682526001600160d01b0380881660208085019182528b54600181018d5560008d81529190912094519151909216600160301b029216919091179101555b6020015192508391506114659050565b50506040805180820190915265ffffffffffff80851682526001600160d01b0380851660208085019182528854600181018a5560008a815291822095519251909316600160301b029190931617920191909155905081611465565b6000815180845260005b81811015611804576020818501810151868301820152016117e8565b506000602082860101526020601f19601f83011685010191505092915050565b60208152600061071f60208301846117de565b80356001600160a01b038116811461184e57600080fd5b919050565b6000806040838503121561186657600080fd5b61186f83611837565b946020939093013593505050565b60008060006060848603121561189257600080fd5b61189b84611837565b92506118a960208501611837565b9150604084013590509250925092565b6000602082840312156118cb57600080fd5b61071f82611837565b6001600160a01b0391909116815260200190565b60ff60f81b881681526000602060e0602084015261190960e084018a6117de565b838103604085015261191b818a6117de565b606085018990526001600160a01b038816608086015260a0850187905284810360c08601528551808252602080880193509091019060005b8181101561196f57835183529284019291840191600101611953565b50909c9b505050505050505050505050565b60006020828403121561199357600080fd5b5035919050565b60008060008060008060c087890312156119b357600080fd5b6119bc87611837565b95506020870135945060408701359350606087013560ff811681146119e057600080fd5b9598949750929560808101359460a0909101359350915050565b60008060408385031215611a0d57600080fd5b611a1683611837565b9150611a2460208401611837565b90509250929050565b60008060408385031215611a4057600080fd5b611a4983611837565b9150602083013563ffffffff81168114611a6257600080fd5b809150509250929050565b600181811c90821680611a8157607f821691505b602082108103611aa157634e487b7160e01b600052602260045260246000fd5b50919050565b6001600160a01b039390931683526020830191909152604082015260600190565b634e487b7160e01b600052601160045260246000fd5b8181038181111561043e5761043e611ac8565b8082018082111561043e5761043e611ac8565b634e487b7160e01b600052601260045260246000fd5b634e487b7160e01b600052602160045260246000fd5b634e487b7160e01b600052603260045260246000fd5b600082611b6357634e487b7160e01b600052601260045260246000fd5b500490565b6001600160d01b03828116828216039080821115611b8857611b88611ac8565b5092915050565b6001600160d01b03818116838216019080821115611b8857611b88611ac856fea26469706673582212203ba2caf90266f661345a95815269986e7019efa4ab01a152d7c91e0413a8a84b64736f6c63430008180033",
  "linkReferences": {},
  "deployedLinkReferences": {}
}