{
  "_format": "hh-sol-artifact-1",
  "contractName": "MockKeeperTarget",
  "sourceName": "contracts/upkeeper/mocks/MockKeeperTarget.sol",
  "abi": [
    {
      "inputs": [],
      "name": "callCount",
      "outputs": [
        {
          "internalType": "uint256",
          "name": "",
          "type": "uint256"
        }
      ],
      "stateMutability": "view",
      "type": "function"
    },
    {
      "inputs": [],
      "name": "mockFunction",
      "outputs": [
        {
          "internalType": "bool",
          "name": "",
          "type": "bool"
        }
      ],
      "stateMutability": "nonpayable",
      "type": "function"
    },
    {
      "inputs": [],
      "name": "mockFunction2",
      "outputs": [
        {
          "internalType": "bool",
          "name": "",
          "type": "bool"
        }
      ],
      "stateMutability": "nonpayable",
      "type": "function"
    },
    {
      "inputs": [],
      "name": "mockFunctionNoReturn",
      "outputs": [],
      "stateMutability": "nonpayable",
      "type": "function"
    },
    {
      "inputs": [],
      "name": "mockFunctionReturnFalse",
      "outputs": [
        {
          "internalType": "bool",
          "name": "",
          "type": "bool"
        }
      ],
      "stateMutability": "nonpayable",
      "type": "function"
    },
    {
      "inputs": [],
      "name": "mockFunctionRevert",
      "outputs": [
        {
          "internalType": "bool",
          "name": "",
          "type": "bool"
        }
      ],
      "stateMutability": "nonpayable",
      "type": "function"
    },
    {
      "inputs": [
        {
          "internalType": "address",
          "name": "upkeeper",
          "type": "address"
        },
        {
          "internalType": "bytes32",
          "name": "taskId",
          "type": "bytes32"
        }
      ],
      "name": "mockFunctionRevertReentrantTask",
      "outputs": [
        {
          "internalType": "bool",
          "name": "",
          "type": "bool"
        }
      ],
      "stateMutability": "nonpayable",
      "type": "function"
    },
    {
      "inputs": [
        {
          "internalType": "uint256",
          "name": "arg1",
          "type": "uint256"
        },
        {
          "internalType": "address",
          "name": "arg2",
          "type": "address"
        }
      ],
      "name": "mockFunctionWithArgs",
      "outputs": [
        {
          "internalType": "bool",
          "name": "",
          "type": "bool"
        }
      ],
      "stateMutability": "nonpayable",
      "type": "function"
    }
  ],
  "bytecode": "0x608060405234801561001057600080fd5b50610372806100206000396000f3fe608060405234801561001057600080fd5b50600436106100785760003560e01c806324fc640e1461007d5780633e6fec04146100a557806343035b90146100a55780634b28f9a2146100ad578063888b782c146100c4578063bdc9cfa6146100cc578063d01315f8146100d6578063f8b5d5a9146100e9575b600080fd5b61009061008b366004610268565b6100f1565b60405190151581526020015b60405180910390f35b61009061010e565b6100b660005481565b60405190815260200161009c565b610090610129565b6100d4610144565b005b6100906100e4366004610294565b61015a565b6100906101f5565b600080548180610100836102be565b909155506001949350505050565b60008054818061011d836102be565b91905055506001905090565b600080548180610138836102be565b91905055506000905090565b600080549080610153836102be565b9190505550565b600080548180610169836102be565b9091555050604080516001600160a01b0385166020820181905281830185905282518083038401815260608301938490526326aa4f1760e01b909352916326aa4f17916101ba9186916064016102e5565b600060405180830381600087803b1580156101d457600080fd5b505af11580156101e8573d6000803e3d6000fd5b5060019695505050505050565b600080548180610204836102be565b909155505060405162461bcd60e51b8152602060048201526014602482015273135bd8dac8199d5b98dd1a5bdb881c995d995c9d60621b604482015260640160405180910390fd5b80356001600160a01b038116811461026357600080fd5b919050565b6000806040838503121561027b57600080fd5b8235915061028b6020840161024c565b90509250929050565b600080604083850312156102a757600080fd5b6102b08361024c565b946020939093013593505050565b6000600182016102de57634e487b7160e01b600052601160045260246000fd5b5060010190565b8281526000602060406020840152835180604085015260005b8181101561031a578581018301518582016060015282016102fe565b506000606082860101526060601f19601f83011685010192505050939250505056fea2646970667358221220c78d5f73f4b80b135d4d07b58cc88e4c0fb44be5b47be23d3bb59d36d6789b8e64736f6c63430008180033",
  "linkReferences": {},
  "deployedLinkReferences": {}
}