{
  "_format": "hh-sol-artifact-1",
  "contractName": "MockUniswapV2Router",
  "sourceName": "contracts/mock/MockUniswapV2Router.sol",
  "abi": [
    {
      "inputs": [],
      "name": "WETH",
      "outputs": [
        {
          "internalType": "address",
          "name": "",
          "type": "address"
        }
      ],
      "stateMutability": "pure",
      "type": "function"
    },
    {
      "inputs": [
        {
          "internalType": "address",
          "name": "",
          "type": "address"
        },
        {
          "internalType": "address",
          "name": "",
          "type": "address"
        },
        {
          "internalType": "uint256",
          "name": "",
          "type": "uint256"
        },
        {
          "internalType": "uint256",
          "name": "",
          "type": "uint256"
        },
        {
          "internalType": "uint256",
          "name": "",
          "type": "uint256"
        },
        {
          "internalType": "uint256",
          "name": "",
          "type": "uint256"
        },
        {
          "internalType": "address",
          "name": "",
          "type": "address"
        },
        {
          "internalType": "uint256",
          "name": "",
          "type": "uint256"
        }
      ],
      "name": "addLiquidity",
      "outputs": [
        {
          "internalType": "uint256",
          "name": "",
          "type": "uint256"
        },
        {
          "internalType": "uint256",
          "name": "",
          "type": "uint256"
        },
        {
          "internalType": "uint256",
          "name": "",
          "type": "uint256"
        }
      ],
      "stateMutability": "pure",
      "type": "function"
    },
    {
      "inputs": [
        {
          "internalType": "address",
          "name": "",
          "type": "address"
        },
        {
          "internalType": "uint256",
          "name": "",
          "type": "uint256"
        },
        {
          "internalType": "uint256",
          "name": "",
          "type": "uint256"
        },
        {
          "internalType": "uint256",
          "name": "",
          "type": "uint256"
        },
        {
          "internalType": "address",
          "name": "",
          "type": "address"
        },
        {
          "internalType": "uint256",
          "name": "",
          "type": "uint256"
        }
      ],
      "name": "addLiquidityETH",
      "outputs": [
        {
          "internalType": "uint256",
          "name": "",
          "type": "uint256"
        },
        {
          "internalType": "uint256",
          "name": "",
          "type": "uint256"
        },
        {
          "internalType": "uint256",
          "name": "",
          "type": "uint256"
        }
      ],
      "stateMutability": "payable",
      "type": "function"
    },
    {
      "inputs": [
        {
          "internalType": "address",
          "name": "",
          "type": "address"
        },
        {
          "internalType": "address",
          "name": "",
          "type": "address"
        }
      ],
      "name": "exchangeRates",
      "outputs": [
        {
          "internalType": "uint256",
          "name": "",
          "type": "uint256"
        }
      ],
      "stateMutability": "view",
      "type": "function"
    },
    {
      "inputs": [],
      "name": "factory",
      "outputs": [
        {
          "internalType": "address",
          "name": "",
          "type": "address"
        }
      ],
      "stateMutability": "pure",
      "type": "function"
    },
    {
      "inputs": [
        {
          "internalType": "uint256",
          "name": "",
          "type": "uint256"
        },
        {
          "internalType": "uint256",
          "name": "",
          "type": "uint256"
        },
        {
          "internalType": "uint256",
          "name": "",
          "type": "uint256"
        }
      ],
      "name": "getAmountIn",
      "outputs": [
        {
          "internalType": "uint256",
          "name": "",
          "type": "uint256"
        }
      ],
      "stateMutability": "pure",
      "type": "function"
    },
    {
      "inputs": [
        {
          "internalType": "uint256",
          "name": "",
          "type": "uint256"
        },
        {
          "internalType": "uint256",
          "name": "",
          "type": "uint256"
        },
        {
          "internalType": "uint256",
          "name": "",
          "type": "uint256"
        }
      ],
      "name": "getAmountOut",
      "outputs": [
        {
          "internalType": "uint256",
          "name": "",
          "type": "uint256"
        }
      ],
      "stateMutability": "pure",
      "type": "function"
    },
    {
      "inputs": [
        {
          "internalType": "uint256",
          "name": "",
          "type": "uint256"
        },
        {
          "internalType": "address[]",
          "name": "",
          "type": "address[]"
        }
      ],
      "name": "getAmountsIn",
      "outputs": [
        {
          "internalType": "uint256[]",
          "name": "",
          "type": "uint256[]"
        }
      ],
      "stateMutability": "pure",
      "type": "function"
    },
    {
      "inputs": [
        {
          "internalType": "uint256",
          "name": "amountIn",
          "type": "uint256"
        },
        {
          "internalType": "address[]",
          "name": "path",
          "type": "address[]"
        }
      ],
      "name": "getAmountsOut",
      "outputs": [
        {
          "internalType": "uint256[]",
          "name": "amounts",
          "type": "uint256[]"
        }
      ],
      "stateMutability": "view",
      "type": "function"
    },
    {
      "inputs": [
        {
          "internalType": "uint256",
          "name": "",
          "type": "uint256"
        },
        {
          "internalType": "uint256",
          "name": "",
          "type": "uint256"
        },
        {
          "internalType": "uint256",
          "name": "",
          "type": "uint256"
        }
      ],
      "name": "quote",
      "outputs": [
        {
          "internalType": "uint256",
          "name": "",
          "type": "uint256"
        }
      ],
      "stateMutability": "pure",
      "type": "function"
    },
    {
      "inputs": [
        {
          "internalType": "address",
          "name": "",
          "type": "address"
        },
        {
          "internalType": "address",
          "name": "",
          "type": "address"
        },
        {
          "internalType": "uint256",
          "name": "",
          "type": "uint256"
        },
        {
          "internalType": "uint256",
          "name": "",
          "type": "uint256"
        },
        {
          "internalType": "uint256",
          "name": "",
          "type": "uint256"
        },
        {
          "internalType": "address",
          "name": "",
          "type": "address"
        },
        {
          "internalType": "uint256",
          "name": "",
          "type": "uint256"
        }
      ],
      "name": "removeLiquidity",
      "outputs": [
        {
          "internalType": "uint256",
          "name": "",
          "type": "uint256"
        },
        {
          "internalType": "uint256",
          "name": "",
          "type": "uint256"
        }
      ],
      "stateMutability": "pure",
      "type": "function"
    },
    {
      "inputs": [
        {
          "internalType": "address",
          "name": "",
          "type": "address"
        },
        {
          "internalType": "uint256",
          "name": "",
          "type": "uint256"
        },
        {
          "internalType": "uint256",
          "name": "",
          "type": "uint256"
        },
        {
          "internalType": "uint256",
          "name": "",
          "type": "uint256"
        },
        {
          "internalType": "address",
          "name": "",
          "type": "address"
        },
        {
          "internalType": "uint256",
          "name": "",
          "type": "uint256"
        }
      ],
      "name": "removeLiquidityETH",
      "outputs": [
        {
          "internalType": "uint256",
          "name": "",
          "type": "uint256"
        },
        {
          "internalType": "uint256",
          "name": "",
          "type": "uint256"
        }
      ],
      "stateMutability": "pure",
      "type": "function"
    },
    {
      "inputs": [
        {
          "internalType": "address",
          "name": "",
          "type": "address"
        },
        {
          "internalType": "uint256",
          "name": "",
          "type": "uint256"
        },
        {
          "internalType": "uint256",
          "name": "",
          "type": "uint256"
        },
        {
          "internalType": "uint256",
          "name": "",
          "type": "uint256"
        },
        {
          "internalType": "address",
          "name": "",
          "type": "address"
        },
        {
          "internalType": "uint256",
          "name": "",
          "type": "uint256"
        }
      ],
      "name": "removeLiquidityETHSupportingFeeOnTransferTokens",
      "outputs": [
        {
          "internalType": "uint256",
          "name": "",
          "type": "uint256"
        }
      ],
      "stateMutability": "pure",
      "type": "function"
    },
    {
      "inputs": [
        {
          "internalType": "address",
          "name": "",
          "type": "address"
        },
        {
          "internalType": "uint256",
          "name": "",
          "type": "uint256"
        },
        {
          "internalType": "uint256",
          "name": "",
          "type": "uint256"
        },
        {
          "internalType": "uint256",
          "name": "",
          "type": "uint256"
        },
        {
          "internalType": "address",
          "name": "",
          "type": "address"
        },
        {
          "internalType": "uint256",
          "name": "",
          "type": "uint256"
        },
        {
          "internalType": "bool",
          "name": "",
          "type": "bool"
        },
        {
          "internalType": "uint8",
          "name": "",
          "type": "uint8"
        },
        {
          "internalType": "bytes32",
          "name": "",
          "type": "bytes32"
        },
        {
          "internalType": "bytes32",
          "name": "",
          "type": "bytes32"
        }
      ],
      "name": "removeLiquidityETHWithPermit",
      "outputs": [
        {
          "internalType": "uint256",
          "name": "",
          "type": "uint256"
        },
        {
          "internalType": "uint256",
          "name": "",
          "type": "uint256"
        }
      ],
      "stateMutability": "pure",
      "type": "function"
    },
    {
      "inputs": [
        {
          "internalType": "address",
          "name": "",
          "type": "address"
        },
        {
          "internalType": "uint256",
          "name": "",
          "type": "uint256"
        },
        {
          "internalType": "uint256",
          "name": "",
          "type": "uint256"
        },
        {
          "internalType": "uint256",
          "name": "",
          "type": "uint256"
        },
        {
          "internalType": "address",
          "name": "",
          "type": "address"
        },
        {
          "internalType": "uint256",
          "name": "",
          "type": "uint256"
        },
        {
          "internalType": "bool",
          "name": "",
          "type": "bool"
        },
        {
          "internalType": "uint8",
          "name": "",
          "type": "uint8"
        },
        {
          "internalType": "bytes32",
          "name": "",
          "type": "bytes32"
        },
        {
          "internalType": "bytes32",
          "name": "",
          "type": "bytes32"
        }
      ],
      "name": "removeLiquidityETHWithPermitSupportingFeeOnTransferTokens",
      "outputs": [
        {
          "internalType": "uint256",
          "name": "",
          "type": "uint256"
        }
      ],
      "stateMutability": "pure",
      "type": "function"
    },
    {
      "inputs": [
        {
          "internalType": "address",
          "name": "",
          "type": "address"
        },
        {
          "internalType": "address",
          "name": "",
          "type": "address"
        },
        {
          "internalType": "uint256",
          "name": "",
          "type": "uint256"
        },
        {
          "internalType": "uint256",
          "name": "",
          "type": "uint256"
        },
        {
          "internalType": "uint256",
          "name": "",
          "type": "uint256"
        },
        {
          "internalType": "address",
          "name": "",
          "type": "address"
        },
        {
          "internalType": "uint256",
          "name": "",
          "type": "uint256"
        },
        {
          "internalType": "bool",
          "name": "",
          "type": "bool"
        },
        {
          "internalType": "uint8",
          "name": "",
          "type": "uint8"
        },
        {
          "internalType": "bytes32",
          "name": "",
          "type": "bytes32"
        },
        {
          "internalType": "bytes32",
          "name": "",
          "type": "bytes32"
        }
      ],
      "name": "removeLiquidityWithPermit",
      "outputs": [
        {
          "internalType": "uint256",
          "name": "",
          "type": "uint256"
        },
        {
          "internalType": "uint256",
          "name": "",
          "type": "uint256"
        }
      ],
      "stateMutability": "pure",
      "type": "function"
    },
    {
      "inputs": [
        {
          "internalType": "address",
          "name": "tokenA",
          "type": "address"
        },
        {
          "internalType": "address",
          "name": "tokenB",
          "type": "address"
        },
        {
          "internalType": "uint256",
          "name": "rate",
          "type": "uint256"
        }
      ],
      "name": "setExchangeRate",
      "outputs": [],
      "stateMutability": "nonpayable",
      "type": "function"
    },
    {
      "inputs": [
        {
          "internalType": "bool",
          "name": "_shouldFail",
          "type": "bool"
        }
      ],
      "name": "setShouldFail",
      "outputs": [],
      "stateMutability": "nonpayable",
      "type": "function"
    },
    {
      "inputs": [],
      "name": "shouldFail",
      "outputs": [
        {
          "internalType": "bool",
          "name": "",
          "type": "bool"
        }
      ],
      "stateMutability": "view",
      "type": "function"
    },
    {
      "inputs": [
        {
          "internalType": "uint256",
          "name": "",
          "type": "uint256"
        },
        {
          "internalType": "address[]",
          "name": "",
          "type": "address[]"
        },
        {
          "internalType": "address",
          "name": "",
          "type": "address"
        },
        {
          "internalType": "uint256",
          "name": "",
          "type": "uint256"
        }
      ],
      "name": "swapETHForExactTokens",
      "outputs": [
        {
          "internalType": "uint256[]",
          "name": "",
          "type": "uint256[]"
        }
      ],
      "stateMutability": "payable",
      "type": "function"
    },
    {
      "inputs": [
        {
          "internalType": "uint256",
          "name": "",
          "type": "uint256"
        },
        {
          "internalType": "address[]",
          "name": "",
          "type": "address[]"
        },
        {
          "internalType": "address",
          "name": "",
          "type": "address"
        },
        {
          "internalType": "uint256",
          "name": "",
          "type": "uint256"
        }
      ],
      "name": "swapExactETHForTokens",
      "outputs": [
        {
          "internalType": "uint256[]",
          "name": "",
          "type": "uint256[]"
        }
      ],
      "stateMutability": "payable",
      "type": "function"
    },
    {
      "inputs": [
        {
          "internalType": "uint256",
          "name": "",
          "type": "uint256"
        },
        {
          "internalType": "address[]",
          "name": "",
          "type": "address[]"
        },
        {
          "internalType": "address",
          "name": "",
          "type": "address"
        },
        {
          "internalType": "uint256",
          "name": "",
          "type": "uint256"
        }
      ],
      "name": "swapExactETHForTokensSupportingFeeOnTransferTokens",
      "outputs": [],
      "stateMutability": "payable",
      "type": "function"
    },
    {
      "inputs": [
        {
          "internalType": "uint256",
          "name": "",
          "type": "uint256"
        },
        {
          "internalType": "uint256",
          "name": "",
          "type": "uint256"
        },
        {
          "internalType": "address[]",
          "name": "",
          "type": "address[]"
        },
        {
          "internalType": "address",
          "name": "",
          "type": "address"
        },
        {
          "internalType": "uint256",
          "name": "",
          "type": "uint256"
        }
      ],
      "name": "swapExactTokensForETH",
      "outputs": [
        {
          "internalType": "uint256[]",
          "name": "",
          "type": "uint256[]"
        }
      ],
      "stateMutability": "pure",
      "type": "function"
    },
    {
      "inputs": [
        {
          "internalType": "uint256",
          "name": "",
          "type": "uint256"
        },
        {
          "internalType": "uint256",
          "name": "",
          "type": "uint256"
        },
        {
          "internalType": "address[]",
          "name": "",
          "type": "address[]"
        },
        {
          "internalType": "address",
          "name": "",
          "type": "address"
        },
        {
          "internalType": "uint256",
          "name": "",
          "type": "uint256"
        }
      ],
      "name": "swapExactTokensForETHSupportingFeeOnTransferTokens",
      "outputs": [],
      "stateMutability": "pure",
      "type": "function"
    },
    {
      "inputs": [
        {
          "internalType": "uint256",
          "name": "amountIn",
          "type": "uint256"
        },
        {
          "internalType": "uint256",
          "name": "amountOutMin",
          "type": "uint256"
        },
        {
          "internalType": "address[]",
          "name": "path",
          "type": "address[]"
        },
        {
          "internalType": "address",
          "name": "to",
          "type": "address"
        },
        {
          "internalType": "uint256",
          "name": "deadline",
          "type": "uint256"
        }
      ],
      "name": "swapExactTokensForTokens",
      "outputs": [
        {
          "internalType": "uint256[]",
          "name": "amounts",
          "type": "uint256[]"
        }
      ],
      "stateMutability": "nonpayable",
      "type": "function"
    },
    {
      "inputs": [
        {
          "internalType": "uint256",
          "name": "",
          "type": "uint256"
        },
        {
          "internalType": "uint256",
          "name": "",
          "type": "uint256"
        },
        {
          "internalType": "address[]",
          "name": "",
          "type": "address[]"
        },
        {
          "internalType": "address",
          "name": "",
          "type": "address"
        },
        {
          "internalType": "uint256",
          "name": "",
          "type": "uint256"
        }
      ],
      "name": "swapExactTokensForTokensSupportingFeeOnTransferTokens",
      "outputs": [],
      "stateMutability": "pure",
      "type": "function"
    },
    {
      "inputs": [
        {
          "internalType": "uint256",
          "name": "",
          "type": "uint256"
        },
        {
          "internalType": "uint256",
          "name": "",
          "type": "uint256"
        },
        {
          "internalType": "address[]",
          "name": "",
          "type": "address[]"
        },
        {
          "internalType": "address",
          "name": "",
          "type": "address"
        },
        {
          "internalType": "uint256",
          "name": "",
          "type": "uint256"
        }
      ],
      "name": "swapTokensForExactETH",
      "outputs": [
        {
          "internalType": "uint256[]",
          "name": "",
          "type": "uint256[]"
        }
      ],
      "stateMutability": "pure",
      "type": "function"
    },
    {
      "inputs": [
        {
          "internalType": "uint256",
          "name": "",
          "type": "uint256"
        },
        {
          "internalType": "uint256",
          "name": "",
          "type": "uint256"
        },
        {
          "internalType": "address[]",
          "name": "",
          "type": "address[]"
        },
        {
          "internalType": "address",
          "name": "",
          "type": "address"
        },
        {
          "internalType": "uint256",
          "name": "",
          "type": "uint256"
        }
      ],
      "name": "swapTokensForExactTokens",
      "outputs": [
        {
          "internalType": "uint256[]",
          "name": "",
          "type": "uint256[]"
        }
      ],
      "stateMutability": "pure",
      "type": "function"
    }
  ],
  "bytecode": "0x60806040526001805460ff1916905534801561001a57600080fd5b5061109b8061002a6000396000f3fe6080604052600436106101775760003560e01c806385f8c259116100cc578063baa2abde1161007a578063baa2abde146103c9578063c45a015514610384578063d06ca61f146103e4578063ded9382a14610404578063e8e337001461041f578063f305d7191461045a578063fb3bdb411461034857600080fd5b806385f8c259146101b65780638803dbee146101e4578063a5aa5c1214610356578063ad5c464814610384578063ad615dec146101b6578063af2979eb146103a0578063b6f9de95146103bb57600080fd5b8063503fa44f11610129578063503fa44f146102675780635b0d59841461029c5780635c11d795146102b7578063678d2204146102d9578063782aaeea14610303578063791ac947146102b75780637ff36ab51461034857600080fd5b806302751cec1461017c578063054d50d4146101b657806318cbafe5146101e45780631f00ca74146102115780632195995c1461022c57806338ed1739146102475780634a25d94a146101e4575b600080fd5b34801561018857600080fd5b5061019c610197366004610a71565b610468565b604080519283526020830191909152015b60405180910390f35b3480156101c257600080fd5b506101d66101d1366004610ac9565b61048c565b6040519081526020016101ad565b3480156101f057600080fd5b506102046101ff366004610b41565b6104a6565b6040516101ad9190610bb1565b34801561021d57600080fd5b506102046101ff366004610bf5565b34801561023857600080fd5b5061019c610197366004610c63565b34801561025357600080fd5b50610204610262366004610b41565b6104c0565b34801561027357600080fd5b506101d6610282366004610d07565b600060208181529281526040808220909352908152205481565b3480156102a857600080fd5b506101d66101d1366004610d3a565b3480156102c357600080fd5b506102d76102d2366004610b41565b6108ab565b005b3480156102e557600080fd5b506001546102f39060ff1681565b60405190151581526020016101ad565b34801561030f57600080fd5b506102d761031e366004610dcc565b6001600160a01b039283166000908152602081815260408083209490951682529290925291902055565b6102046101ff366004610e08565b34801561036257600080fd5b506102d7610371366004610e6e565b6001805460ff1916911515919091179055565b34801561039057600080fd5b50604051600081526020016101ad565b3480156103ac57600080fd5b506101d66101d1366004610a71565b6102d76102d2366004610e08565b3480156103d557600080fd5b5061019c610197366004610e92565b3480156103f057600080fd5b506102046103ff366004610bf5565b6108c3565b34801561041057600080fd5b5061019c610197366004610d3a565b34801561042b57600080fd5b5061043f61043a366004610efc565b610a38565b604080519384526020840192909252908201526060016101ad565b61043f61043a366004610a71565b60008060405162461bcd60e51b815260040161048390610f70565b60405180910390fd5b600060405162461bcd60e51b815260040161048390610f70565b606060405162461bcd60e51b815260040161048390610f70565b60015460609060ff161561050a5760405162461bcd60e51b8152602060048201526011602482015270135bd8dace8814ddd85c0819985a5b1959607a1b6044820152606401610483565b600284101561054a5760405162461bcd60e51b815260206004820152600c60248201526b092dcecc2d8d2c840e0c2e8d60a31b6044820152606401610483565b8367ffffffffffffffff81111561056357610563610f99565b60405190808252806020026020018201604052801561058c578160200160208202803683370190505b50905086816000815181106105a3576105a3610faf565b602002602001018181525050848460008181106105c2576105c2610faf565b90506020020160208101906105d79190610fc5565b6040516323b872dd60e01b8152336004820152306024820152604481018990526001600160a01b0391909116906323b872dd906064016020604051808303816000875af115801561062c573d6000803e3d6000fd5b505050506040513d601f19601f820116820180604052508101906106509190610fe0565b508660015b858110156107575760008080898961066e600187611013565b81811061067d5761067d610faf565b90506020020160208101906106929190610fc5565b6001600160a01b03166001600160a01b0316815260200190815260200160002060008989858181106106c6576106c6610faf565b90506020020160208101906106db9190610fc5565b6001600160a01b03166001600160a01b03168152602001908152602001600020549050806000036107115750670de0b6b3a76400005b670de0b6b3a7640000610724828561102c565b61072e9190611043565b92508284838151811061074357610743610faf565b602090810291909101015250600101610655565b508682600184516107689190611013565b8151811061077857610778610faf565b602002602001015110156107c45760405162461bcd60e51b8152602060048201526013602482015272125b9cdd59999a58da595b9d081bdd5d1c1d5d606a1b6044820152606401610483565b85856107d1600182611013565b8181106107e0576107e0610faf565b90506020020160208101906107f59190610fc5565b6001600160a01b031663a9059cbb8584600186516108139190611013565b8151811061082357610823610faf565b60200260200101516040518363ffffffff1660e01b815260040161085c9291906001600160a01b03929092168252602082015260400190565b6020604051808303816000875af115801561087b573d6000803e3d6000fd5b505050506040513d601f19601f8201168201806040525081019061089f9190610fe0565b50509695505050505050565b60405162461bcd60e51b815260040161048390610f70565b60608167ffffffffffffffff8111156108de576108de610f99565b604051908082528060200260200182016040528015610907578160200160208202803683370190505b509050838160008151811061091e5761091e610faf565b60209081029190910101528360015b83811015610a2f57600080808787610946600187611013565b81811061095557610955610faf565b905060200201602081019061096a9190610fc5565b6001600160a01b03166001600160a01b03168152602001908152602001600020600087878581811061099e5761099e610faf565b90506020020160208101906109b39190610fc5565b6001600160a01b03166001600160a01b03168152602001908152602001600020549050806000036109e95750670de0b6b3a76400005b670de0b6b3a76400006109fc828561102c565b610a069190611043565b925082848381518110610a1b57610a1b610faf565b60209081029190910101525060010161092d565b50509392505050565b600080600060405162461bcd60e51b815260040161048390610f70565b80356001600160a01b0381168114610a6c57600080fd5b919050565b60008060008060008060c08789031215610a8a57600080fd5b610a9387610a55565b9550602087013594506040870135935060608701359250610ab660808801610a55565b915060a087013590509295509295509295565b600080600060608486031215610ade57600080fd5b505081359360208301359350604090920135919050565b60008083601f840112610b0757600080fd5b50813567ffffffffffffffff811115610b1f57600080fd5b6020830191508360208260051b8501011115610b3a57600080fd5b9250929050565b60008060008060008060a08789031215610b5a57600080fd5b8635955060208701359450604087013567ffffffffffffffff811115610b7f57600080fd5b610b8b89828a01610af5565b9095509350610b9e905060608801610a55565b9150608087013590509295509295509295565b6020808252825182820181905260009190848201906040850190845b81811015610be957835183529284019291840191600101610bcd565b50909695505050505050565b600080600060408486031215610c0a57600080fd5b83359250602084013567ffffffffffffffff811115610c2857600080fd5b610c3486828701610af5565b9497909650939450505050565b8015158114610c4f57600080fd5b50565b803560ff81168114610a6c57600080fd5b60008060008060008060008060008060006101608c8e031215610c8557600080fd5b610c8e8c610a55565b9a50610c9c60208d01610a55565b995060408c0135985060608c0135975060808c01359650610cbf60a08d01610a55565b955060c08c0135945060e08c0135610cd681610c41565b9350610ce56101008d01610c52565b92506101208c013591506101408c013590509295989b509295989b9093969950565b60008060408385031215610d1a57600080fd5b610d2383610a55565b9150610d3160208401610a55565b90509250929050565b6000806000806000806000806000806101408b8d031215610d5a57600080fd5b610d638b610a55565b995060208b0135985060408b0135975060608b01359650610d8660808c01610a55565b955060a08b0135945060c08b0135610d9d81610c41565b9350610dab60e08c01610c52565b92506101008b013591506101208b013590509295989b9194979a5092959850565b600080600060608486031215610de157600080fd5b610dea84610a55565b9250610df860208501610a55565b9150604084013590509250925092565b600080600080600060808688031215610e2057600080fd5b85359450602086013567ffffffffffffffff811115610e3e57600080fd5b610e4a88828901610af5565b9095509350610e5d905060408701610a55565b949793965091946060013592915050565b600060208284031215610e8057600080fd5b8135610e8b81610c41565b9392505050565b600080600080600080600060e0888a031215610ead57600080fd5b610eb688610a55565b9650610ec460208901610a55565b9550604088013594506060880135935060808801359250610ee760a08901610a55565b915060c0880135905092959891949750929550565b600080600080600080600080610100898b031215610f1957600080fd5b610f2289610a55565b9750610f3060208a01610a55565b965060408901359550606089013594506080890135935060a08901359250610f5a60c08a01610a55565b915060e089013590509295985092959890939650565b6020808252600f908201526e139bdd081a5b5c1b195b595b9d1959608a1b604082015260600190565b634e487b7160e01b600052604160045260246000fd5b634e487b7160e01b600052603260045260246000fd5b600060208284031215610fd757600080fd5b610e8b82610a55565b600060208284031215610ff257600080fd5b8151610e8b81610c41565b634e487b7160e01b600052601160045260246000fd5b8181038181111561102657611026610ffd565b92915050565b808202811582820484141761102657611026610ffd565b60008261106057634e487b7160e01b600052601260045260246000fd5b50049056fea26469706673582212203fd89cbcb09fca48d627927b48c62a6167597d7ea9cd73493280f6bfb926c0b464736f6c63430008180033",
  "linkReferences": {},
  "deployedLinkReferences": {}
}