{
  "_format": "hh-sol-artifact-1",
  "contractName": "OneSidedExchange",
  "sourceName": "contracts/exchange/OneSidedExchange.sol",
  "abi": [
    {
      "inputs": [],
      "stateMutability": "nonpayable",
      "type": "constructor"
    },
    {
      "inputs": [
        {
          "internalType": "address",
          "name": "target",
          "type": "address"
        }
      ],
      "name": "AddressEmptyCode",
      "type": "error"
    },
    {
      "inputs": [
        {
          "internalType": "address",
          "name": "account",
          "type": "address"
        }
      ],
      "name": "AddressInsufficientBalance",
      "type": "error"
    },
    {
      "inputs": [],
      "name": "FailedInnerCall",
      "type": "error"
    },
    {
      "inputs": [
        {
          "internalType": "string",
          "name": "message",
          "type": "string"
        }
      ],
      "name": "InvalidAddress",
      "type": "error"
    },
    {
      "inputs": [
        {
          "internalType": "string",
          "name": "message",
          "type": "string"
        },
        {
          "internalType": "uint256",
          "name": "amount",
          "type": "uint256"
        }
      ],
      "name": "InvalidAmount",
      "type": "error"
    },
    {
      "inputs": [
        {
          "internalType": "string",
          "name": "message",
          "type": "string"
        }
      ],
      "name": "NoPriceExists",
      "type": "error"
    },
    {
      "inputs": [
        {
          "internalType": "address",
          "name": "owner",
          "type": "address"
        }
      ],
      "name": "OwnableInvalidOwner",
      "type": "error"
    },
    {
      "inputs": [
        {
          "internalType": "address",
          "name": "account",
          "type": "address"
        }
      ],
      "name": "OwnableUnauthorizedAccount",
      "type": "error"
    },
    {
      "inputs": [],
      "name": "ReentrancyGuardReentrantCall",
      "type": "error"
    },
    {
      "inputs": [
        {
          "internalType": "address",
          "name": "token",
          "type": "address"
        }
      ],
      "name": "SafeERC20FailedOperation",
      "type": "error"
    },
    {
      "anonymous": false,
      "inputs": [
        {
          "indexed": false,
          "internalType": "address",
          "name": "token",
          "type": "address"
        },
        {
          "indexed": false,
          "internalType": "uint256",
          "name": "amount",
          "type": "uint256"
        }
      ],
      "name": "LiquidityAdded",
      "type": "event"
    },
    {
      "anonymous": false,
      "inputs": [
        {
          "indexed": true,
          "internalType": "address",
          "name": "previousOwner",
          "type": "address"
        },
        {
          "indexed": true,
          "internalType": "address",
          "name": "newOwner",
          "type": "address"
        }
      ],
      "name": "OwnershipTransferred",
      "type": "event"
    },
    {
      "anonymous": false,
      "inputs": [
        {
          "indexed": true,
          "internalType": "address",
          "name": "trader",
          "type": "address"
        },
        {
          "indexed": false,
          "internalType": "address",
          "name": "tokenA",
          "type": "address"
        },
        {
          "indexed": false,
          "internalType": "address",
          "name": "tokenB",
          "type": "address"
        },
        {
          "indexed": false,
          "internalType": "uint256",
          "name": "tokenAAmount",
          "type": "uint256"
        },
        {
          "indexed": false,
          "internalType": "uint256",
          "name": "tokenBAmount",
          "type": "uint256"
        }
      ],
      "name": "SwapSuccess",
      "type": "event"
    },
    {
      "anonymous": false,
      "inputs": [
        {
          "indexed": false,
          "internalType": "address",
          "name": "token",
          "type": "address"
        },
        {
          "indexed": false,
          "internalType": "uint256",
          "name": "amount",
          "type": "uint256"
        }
      ],
      "name": "Withdraw",
      "type": "event"
    },
    {
      "inputs": [
        {
          "internalType": "address",
          "name": "token",
          "type": "address"
        },
        {
          "internalType": "uint256",
          "name": "amount",
          "type": "uint256"
        }
      ],
      "name": "addLiquidityForToken",
      "outputs": [],
      "stateMutability": "nonpayable",
      "type": "function"
    },
    {
      "inputs": [
        {
          "internalType": "address",
          "name": "tokenA",
          "type": "address"
        },
        {
          "internalType": "address",
          "name": "tokenB",
          "type": "address"
        },
        {
          "internalType": "uint256",
          "name": "amount",
          "type": "uint256"
        }
      ],
      "name": "estimateTokenReturns",
      "outputs": [
        {
          "internalType": "uint256",
          "name": "tokenAAmount",
          "type": "uint256"
        },
        {
          "internalType": "uint256",
          "name": "tokenBAmount",
          "type": "uint256"
        }
      ],
      "stateMutability": "view",
      "type": "function"
    },
    {
      "inputs": [],
      "name": "owner",
      "outputs": [
        {
          "internalType": "address",
          "name": "",
          "type": "address"
        }
      ],
      "stateMutability": "view",
      "type": "function"
    },
    {
      "inputs": [],
      "name": "renounceOwnership",
      "outputs": [],
      "stateMutability": "nonpayable",
      "type": "function"
    },
    {
      "inputs": [
        {
          "internalType": "address",
          "name": "token",
          "type": "address"
        },
        {
          "internalType": "uint256",
          "name": "amount",
          "type": "uint256"
        },
        {
          "internalType": "uint256",
          "name": "interval",
          "type": "uint256"
        }
      ],
      "name": "setBuyPrice",
      "outputs": [],
      "stateMutability": "nonpayable",
      "type": "function"
    },
    {
      "inputs": [
        {
          "internalType": "address",
          "name": "token",
          "type": "address"
        },
        {
          "internalType": "uint256",
          "name": "amount",
          "type": "uint256"
        },
        {
          "internalType": "uint256",
          "name": "interval",
          "type": "uint256"
        }
      ],
      "name": "setSellPrice",
      "outputs": [],
      "stateMutability": "nonpayable",
      "type": "function"
    },
    {
      "inputs": [
        {
          "internalType": "address",
          "name": "token",
          "type": "address"
        },
        {
          "internalType": "uint256",
          "name": "maxSellAmount",
          "type": "uint256"
        },
        {
          "internalType": "uint256",
          "name": "maxBuyAmount",
          "type": "uint256"
        },
        {
          "internalType": "uint256",
          "name": "interval",
          "type": "uint256"
        }
      ],
      "name": "setThreshold",
      "outputs": [],
      "stateMutability": "nonpayable",
      "type": "function"
    },
    {
      "inputs": [
        {
          "internalType": "address",
          "name": "tokenA",
          "type": "address"
        },
        {
          "internalType": "address",
          "name": "tokenB",
          "type": "address"
        },
        {
          "internalType": "uint256",
          "name": "amount",
          "type": "uint256"
        }
      ],
      "name": "swap",
      "outputs": [],
      "stateMutability": "nonpayable",
      "type": "function"
    },
    {
      "inputs": [
        {
          "internalType": "address",
          "name": "newOwner",
          "type": "address"
        }
      ],
      "name": "transferOwnership",
      "outputs": [],
      "stateMutability": "nonpayable",
      "type": "function"
    },
    {
      "inputs": [
        {
          "internalType": "address",
          "name": "token",
          "type": "address"
        },
        {
          "internalType": "address",
          "name": "to",
          "type": "address"
        },
        {
          "internalType": "uint256",
          "name": "amount",
          "type": "uint256"
        }
      ],
      "name": "withdraw",
      "outputs": [],
      "stateMutability": "nonpayable",
      "type": "function"
    }
  ],
  "bytecode": "0x608060405234801561001057600080fd5b506001600055338061003c57604051631e4fbdf760e01b81526000600482015260240160405180910390fd5b6100458161004b565b5061009d565b600180546001600160a01b038381166001600160a01b0319831681179093556040519116919082907f8be0079c531659141344cd1fd0a4f28419497f9722a3daafe3b4186f6b6457e090600090a35050565b611754806100ac6000396000f3fe608060405234801561001057600080fd5b506004361061009e5760003560e01c80638da5cb5b116100665780638da5cb5b14610113578063c8fe3ab51461012c578063d9caed121461013f578063df791e5014610152578063f2fde38b1461016557600080fd5b80631d6a054e146100a35780632c0163a9146100b857806332647920146100e5578063715018a6146100f8578063798bac8d14610100575b600080fd5b6100b66100b1366004611367565b610178565b005b6100cb6100c63660046113a0565b6102e6565b604080519283526020830191909152015b60405180910390f35b6100b66100f33660046113dc565b61064a565b6100b661072d565b6100b661010e3660046113dc565b610741565b6001546001600160a01b03166040516100dc919061140f565b6100b661013a366004611423565b610824565b6100b661014d3660046113a0565b610926565b6100b66101603660046113a0565b610a74565b6100b661017336600461144d565b610b09565b610180610b47565b836001600160a01b0381166101b157604051630b0f5aa160e11b81526004016101a890611468565b60405180910390fd5b83806000036101d55780604051631533de4360e01b81526004016101a8919061149f565b83806000036101f95780604051631533de4360e01b81526004016101a8919061149f565b6000876001600160a01b031663313ce5676040518163ffffffff1660e01b8152600401602060405180830381865afa158015610239573d6000803e3d6000fd5b505050506040513d601f19601f8201168201806040525081019061025d91906114de565b60ff169050604051806060016040528082600a61027a91906115fb565b610284908a611607565b815260200161029483600a6115fb565b61029e9089611607565b81526020908101969096526001600160a01b03909816600090815260048652604090819020895181559589015160018701559790970151600290940193909355505050505050565b600080846001600160a01b03811661031157604051630b0f5aa160e11b81526004016101a890611468565b846001600160a01b03811661033957604051630b0f5aa160e11b81526004016101a890611468565b848060000361035d5780604051631533de4360e01b81526004016101a8919061149f565b6001600160a01b038716600090815260026020526040902060010154158061039e57506001600160a01b038816600090815260036020526040902060010154155b156103f85760405163ae07426d60e01b8152602060048201526024808201527f53656c6c206f722062757920707269636520666f722070616972206e6f7420666044820152631bdd5b9960e21b60648201526084016101a8565b6001600160a01b03871660009081526002602052604090206001015442108061043b57506001600160a01b03881660009081526003602052604090206001015442105b156104995760405163ae07426d60e01b815260206004820152602760248201527f53656c6c206f722062757920707269636520666f722070616972206973206e6f6044820152661d081d985b1a5960ca1b60648201526084016101a8565b6001600160a01b0388166000908152600360205260408120546104bc9088611607565b6001600160a01b03808a16600090815260026020908152604080832054938e1683526003909152812054929350916104f49084611607565b6104fe919061161e565b905060008a6001600160a01b031663313ce5676040518163ffffffff1660e01b8152600401602060405180830381865afa158015610540573d6000803e3d6000fd5b505050506040513d601f19601f8201168201806040525081019061056491906114de565b60ff16905060008a6001600160a01b031663313ce5676040518163ffffffff1660e01b8152600401602060405180830381865afa1580156105a9573d6000803e3d6000fd5b505050506040513d601f19601f820116820180604052508101906105cd91906114de565b60ff16905080821461063757818111156106135760006105ed8383611640565b9050846105fb82600a6115fb565b6106059086611607565b99509950505050505061063f565b600061061f8284611640565b90508461062d82600a6115fb565b610605908661161e565b509196509450505b505050935093915050565b6001600160a01b038084166000908152600760205260409020543391859116821480159061068657506001546001600160a01b03838116911614155b156106a457604051630b0f5aa160e11b81526004016101a890611653565b846001600160a01b0381166106cc57604051630b0f5aa160e11b81526004016101a890611468565b84806000036106f05780604051631533de4360e01b81526004016101a8919061149f565b505060408051808201825294855260208086019485526001600160a01b039096166000908152600390965290942092518355505160019091015550565b610735610b47565b61073f6000610b74565b565b6001600160a01b038084166000908152600760205260409020543391859116821480159061077d57506001546001600160a01b03838116911614155b1561079b57604051630b0f5aa160e11b81526004016101a890611653565b846001600160a01b0381166107c357604051630b0f5aa160e11b81526004016101a890611468565b84806000036107e75780604051631533de4360e01b81526004016101a8919061149f565b505060408051808201825294855260208086019485526001600160a01b039096166000908152600290965290942092518355505160019091015550565b61082c610bc6565b816001600160a01b03811661085457604051630b0f5aa160e11b81526004016101a890611468565b81806000036108785780604051631533de4360e01b81526004016101a8919061149f565b6001600160a01b03848116600090815260076020526040902054166108c0576001600160a01b038416600090815260076020526040902080546001600160a01b031916331790555b8260000361090b5760408051631533de4360e01b81526004810191909152600e60448201526d125b9d985b1a5908185b5bdd5b9d60921b6064820152602481018490526084016101a8565b610916338585610bf0565b50506109226001600055565b5050565b61092e610bc6565b610936610b47565b826001600160a01b03811661095e57604051630b0f5aa160e11b81526004016101a890611468565b81806000036109825780604051631533de4360e01b81526004016101a8919061149f565b6040516370a0823160e01b815283906001600160a01b038716906370a08231906109b090309060040161140f565b602060405180830381865afa1580156109cd573d6000803e3d6000fd5b505050506040513d601f19601f820116820180604052508101906109f19190611688565b1015610a585760408051631533de4360e01b81526004810191909152602660448201527f4e6f7420656e6f7567687420746f6b656e732062616c616e636520746f20776960648201526574686472617760d01b60848201526024810184905260a4016101a8565b610a63858585610c43565b5050610a6f6001600055565b505050565b610a7c610bc6565b826001600160a01b038116610aa457604051630b0f5aa160e11b81526004016101a890611468565b826001600160a01b038116610acc57604051630b0f5aa160e11b81526004016101a890611468565b8280600003610af05780604051631533de4360e01b81526004016101a8919061149f565b610afc33878787610c88565b505050610a6f6001600055565b610b11610b47565b6001600160a01b038116610b3b576000604051631e4fbdf760e01b81526004016101a8919061140f565b610b4481610b74565b50565b6001546001600160a01b0316331461073f573360405163118cdaa760e01b81526004016101a8919061140f565b600180546001600160a01b038381166001600160a01b0319831681179093556040519116919082907f8be0079c531659141344cd1fd0a4f28419497f9722a3daafe3b4186f6b6457e090600090a35050565b600260005403610be957604051633ee5aeb560e01b815260040160405180910390fd5b6002600055565b610c056001600160a01b038316843084610d7e565b7fc17cea59c2955cb181b03393209566960365771dbba9dc3d510180e7cb3120888282604051610c369291906116a1565b60405180910390a1505050565b610c576001600160a01b0384168383610deb565b7f884edad9ce6fa2440d8a54cc123490eb96d2768479d49ff9c7366125a94243648382604051610c369291906116a1565b600080610c9785858589610e11565b9092509050610cb16001600160a01b038616873085610d7e565b610cc56001600160a01b0385168783610deb565b6001600160a01b03851660009081526006602052604081208054849290610ced9084906116ba565b90915550506001600160a01b03841660009081526005602052604081208054839290610d1a9084906116ba565b9091555050604080516001600160a01b038781168252868116602083015291810184905260608101839052908716907fa735fb6bfc88d40598b51c9b5d88dd545bcfc7404c6825d5cde5e1a82379394e9060800160405180910390a2505050505050565b6040516001600160a01b038481166024830152838116604483015260648201839052610de59186918216906323b872dd906084015b604051602081830303815290604052915060e01b6020820180516001600160e01b0383818316178352505050506111bf565b50505050565b610a6f83846001600160a01b031663a9059cbb8585604051602401610db39291906116a1565b6001600160a01b038085166000908152600460208181526040808420815160608082018452825482526001808401548387015260029384015483860152978b16875294845282862083519586018452805486529687015493850193909352949094015493820193909352909182918280610e8c8a8a8a6102e6565b9150915060008a6001600160a01b03166370a08231896040518263ffffffff1660e01b8152600401610ebe919061140f565b602060405180830381865afa158015610edb573d6000803e3d6000fd5b505050506040513d601f19601f82011682018060405250810190610eff9190611688565b905060008a6001600160a01b03166370a08231306040518263ffffffff1660e01b8152600401610f2f919061140f565b602060405180830381865afa158015610f4c573d6000803e3d6000fd5b505050506040513d601f19601f82011682018060405250810190610f709190611688565b905081841115610fc75760408051631533de4360e01b815260048101919091526018604482015277139bc8195b9bdd59da081d1bdad95b9cc81d1bc81cd95b1b60421b6064820152602481018590526084016101a8565b8083111561101b5760408051631533de4360e01b8152600481019190915260176044820152764e6f20656e6f75676820746f6b656e7320746f2062757960481b6064820152602481018490526084016101a8565b85511580159061102e5750428660400151105b156110e15785516001600160a01b038d166000908152600660205260409020546110599086906116ba565b11156110e1576001600160a01b038c166000908152600660205260409020546110839085906116ba565b60408051631533de4360e01b81526004810191909152602260448201527f4d61782073656c6c20616d6f756e74206f6620746f6b656e7320657863656564606482015261195960f21b6084820152602481019190915260a4016101a8565b6020850151158015906110f75750428560400151105b156111ae576020808601516001600160a01b038d16600090815260059092526040909120546111279085906116ba565b11156111ae576001600160a01b038b166000908152600560205260409020546111519084906116ba565b60408051631533de4360e01b81526004810191909152602160448201527f4d61782062757920616d6f756e74206f6620746f6b656e7320657863656564656064820152601960fa1b6084820152602481019190915260a4016101a8565b50919a909950975050505050505050565b60006111d46001600160a01b03841683611219565b905080516000141580156111f95750808060200190518101906111f791906116cd565b155b15610a6f5782604051635274afe760e01b81526004016101a8919061140f565b606061122783836000611230565b90505b92915050565b606081471015611255573060405163cd78605960e01b81526004016101a8919061140f565b600080856001600160a01b0316848660405161127191906116ef565b60006040518083038185875af1925050503d80600081146112ae576040519150601f19603f3d011682016040523d82523d6000602084013e6112b3565b606091505b50915091506112c38683836112cf565b925050505b9392505050565b6060826112e4576112df82611322565b6112c8565b81511580156112fb57506001600160a01b0384163b155b1561131b5783604051639996b31560e01b81526004016101a8919061140f565b50806112c8565b8051156113325780518082602001fd5b604051630a12f52160e11b815260040160405180910390fd5b80356001600160a01b038116811461136257600080fd5b919050565b6000806000806080858703121561137d57600080fd5b6113868561134b565b966020860135965060408601359560600135945092505050565b6000806000606084860312156113b557600080fd5b6113be8461134b565b92506113cc6020850161134b565b9150604084013590509250925092565b6000806000606084860312156113f157600080fd5b6113fa8461134b565b95602085013595506040909401359392505050565b6001600160a01b0391909116815260200190565b6000806040838503121561143657600080fd5b61143f8361134b565b946020939093013593505050565b60006020828403121561145f57600080fd5b6112278261134b565b6020808252601a908201527f4e6f207a65726f206164647265737320697320616c6c6f776564000000000000604082015260600190565b6040808252601a908201527f5a65726f20616d6f756e74206973206e6f7420616c6c6f7765640000000000006060820152602081019190915260800190565b6000602082840312156114f057600080fd5b815160ff811681146112c857600080fd5b634e487b7160e01b600052601160045260246000fd5b600181815b8085111561155257816000190482111561153857611538611501565b8085161561154557918102915b93841c939080029061151c565b509250929050565b6000826115695750600161122a565b816115765750600061122a565b816001811461158c5760028114611596576115b2565b600191505061122a565b60ff8411156115a7576115a7611501565b50506001821b61122a565b5060208310610133831016604e8410600b84101617156115d5575081810a61122a565b6115df8383611517565b80600019048211156115f3576115f3611501565b029392505050565b6000611227838361155a565b808202811582820484141761122a5761122a611501565b60008261163b57634e487b7160e01b600052601260045260246000fd5b500490565b8181038181111561122a5761122a611501565b6020808252818101527f4f6e6c7920746f6b656e206f776e65722063616e207365742061207072696365604082015260600190565b60006020828403121561169a57600080fd5b5051919050565b6001600160a01b03929092168252602082015260400190565b8082018082111561122a5761122a611501565b6000602082840312156116df57600080fd5b815180151581146112c857600080fd5b6000825160005b8181101561171057602081860181015185830152016116f6565b50600092019182525091905056fea2646970667358221220cd845befb6c9f323d98f39742c264aecabacc8c056de2b3f4d41c3dd4c5a172c64736f6c63430008180033",
  "linkReferences": {},
  "deployedLinkReferences": {}
}