{
  "_format": "hh-sol-artifact-1",
  "contractName": "OneSidedExchange",
  "sourceName": "contracts/exchange/OneSidedExchange.sol",
  "abi": [
    {
      "inputs": [],
      "stateMutability": "nonpayable",
      "type": "constructor"
    },
    {
      "inputs": [
        {
          "internalType": "address",
          "name": "target",
          "type": "address"
        }
      ],
      "name": "AddressEmptyCode",
      "type": "error"
    },
    {
      "inputs": [
        {
          "internalType": "address",
          "name": "account",
          "type": "address"
        }
      ],
      "name": "AddressInsufficientBalance",
      "type": "error"
    },
    {
      "inputs": [],
      "name": "FailedInnerCall",
      "type": "error"
    },
    {
      "inputs": [
        {
          "internalType": "string",
          "name": "message",
          "type": "string"
        }
      ],
      "name": "InvalidAddress",
      "type": "error"
    },
    {
      "inputs": [
        {
          "internalType": "string",
          "name": "message",
          "type": "string"
        },
        {
          "internalType": "uint256",
          "name": "amount",
          "type": "uint256"
        }
      ],
      "name": "InvalidAmount",
      "type": "error"
    },
    {
      "inputs": [
        {
          "internalType": "string",
          "name": "message",
          "type": "string"
        }
      ],
      "name": "NoPriceExists",
      "type": "error"
    },
    {
      "inputs": [
        {
          "internalType": "address",
          "name": "owner",
          "type": "address"
        }
      ],
      "name": "OwnableInvalidOwner",
      "type": "error"
    },
    {
      "inputs": [
        {
          "internalType": "address",
          "name": "account",
          "type": "address"
        }
      ],
      "name": "OwnableUnauthorizedAccount",
      "type": "error"
    },
    {
      "inputs": [],
      "name": "ReentrancyGuardReentrantCall",
      "type": "error"
    },
    {
      "inputs": [
        {
          "internalType": "address",
          "name": "token",
          "type": "address"
        }
      ],
      "name": "SafeERC20FailedOperation",
      "type": "error"
    },
    {
      "anonymous": false,
      "inputs": [
        {
          "indexed": false,
          "internalType": "address",
          "name": "token",
          "type": "address"
        },
        {
          "indexed": false,
          "internalType": "uint256",
          "name": "amount",
          "type": "uint256"
        }
      ],
      "name": "Deposit",
      "type": "event"
    },
    {
      "anonymous": false,
      "inputs": [
        {
          "indexed": true,
          "internalType": "address",
          "name": "previousOwner",
          "type": "address"
        },
        {
          "indexed": true,
          "internalType": "address",
          "name": "newOwner",
          "type": "address"
        }
      ],
      "name": "OwnershipTransferred",
      "type": "event"
    },
    {
      "anonymous": false,
      "inputs": [
        {
          "indexed": true,
          "internalType": "address",
          "name": "trader",
          "type": "address"
        },
        {
          "indexed": false,
          "internalType": "address",
          "name": "tokenA",
          "type": "address"
        },
        {
          "indexed": false,
          "internalType": "address",
          "name": "tokenB",
          "type": "address"
        },
        {
          "indexed": false,
          "internalType": "uint256",
          "name": "tokenAAmount",
          "type": "uint256"
        },
        {
          "indexed": false,
          "internalType": "uint256",
          "name": "tokenBAmount",
          "type": "uint256"
        }
      ],
      "name": "SwapSuccess",
      "type": "event"
    },
    {
      "anonymous": false,
      "inputs": [
        {
          "indexed": false,
          "internalType": "address",
          "name": "token",
          "type": "address"
        },
        {
          "indexed": false,
          "internalType": "uint256",
          "name": "amount",
          "type": "uint256"
        }
      ],
      "name": "Withdraw",
      "type": "event"
    },
    {
      "inputs": [
        {
          "internalType": "address",
          "name": "token",
          "type": "address"
        },
        {
          "internalType": "uint256",
          "name": "amount",
          "type": "uint256"
        }
      ],
      "name": "deposit",
      "outputs": [],
      "stateMutability": "nonpayable",
      "type": "function"
    },
    {
      "inputs": [
        {
          "internalType": "address",
          "name": "token",
          "type": "address"
        },
        {
          "internalType": "uint256",
          "name": "amount",
          "type": "uint256"
        },
        {
          "internalType": "uint256",
          "name": "deadline",
          "type": "uint256"
        },
        {
          "internalType": "uint8",
          "name": "v",
          "type": "uint8"
        },
        {
          "internalType": "bytes32",
          "name": "r",
          "type": "bytes32"
        },
        {
          "internalType": "bytes32",
          "name": "s",
          "type": "bytes32"
        }
      ],
      "name": "depositWithSignature",
      "outputs": [],
      "stateMutability": "nonpayable",
      "type": "function"
    },
    {
      "inputs": [
        {
          "internalType": "address",
          "name": "tokenA",
          "type": "address"
        },
        {
          "internalType": "address",
          "name": "tokenB",
          "type": "address"
        },
        {
          "internalType": "uint256",
          "name": "amount",
          "type": "uint256"
        }
      ],
      "name": "estimateTokenReturns",
      "outputs": [
        {
          "internalType": "uint256",
          "name": "tokenAAmount",
          "type": "uint256"
        },
        {
          "internalType": "uint256",
          "name": "tokenBAmount",
          "type": "uint256"
        }
      ],
      "stateMutability": "view",
      "type": "function"
    },
    {
      "inputs": [],
      "name": "owner",
      "outputs": [
        {
          "internalType": "address",
          "name": "",
          "type": "address"
        }
      ],
      "stateMutability": "view",
      "type": "function"
    },
    {
      "inputs": [],
      "name": "renounceOwnership",
      "outputs": [],
      "stateMutability": "nonpayable",
      "type": "function"
    },
    {
      "inputs": [
        {
          "internalType": "address",
          "name": "token",
          "type": "address"
        },
        {
          "internalType": "uint256",
          "name": "amount",
          "type": "uint256"
        },
        {
          "internalType": "uint256",
          "name": "interval",
          "type": "uint256"
        }
      ],
      "name": "setBuyPrice",
      "outputs": [],
      "stateMutability": "nonpayable",
      "type": "function"
    },
    {
      "inputs": [
        {
          "internalType": "address",
          "name": "token",
          "type": "address"
        },
        {
          "internalType": "uint256",
          "name": "amount",
          "type": "uint256"
        },
        {
          "internalType": "uint256",
          "name": "interval",
          "type": "uint256"
        }
      ],
      "name": "setSellPrice",
      "outputs": [],
      "stateMutability": "nonpayable",
      "type": "function"
    },
    {
      "inputs": [
        {
          "internalType": "address",
          "name": "token",
          "type": "address"
        },
        {
          "internalType": "uint256",
          "name": "maxSellAmount",
          "type": "uint256"
        },
        {
          "internalType": "uint256",
          "name": "maxBuyAmount",
          "type": "uint256"
        },
        {
          "internalType": "uint256",
          "name": "interval",
          "type": "uint256"
        }
      ],
      "name": "setThreshold",
      "outputs": [],
      "stateMutability": "nonpayable",
      "type": "function"
    },
    {
      "inputs": [
        {
          "internalType": "address",
          "name": "tokenA",
          "type": "address"
        },
        {
          "internalType": "address",
          "name": "tokenB",
          "type": "address"
        },
        {
          "internalType": "uint256",
          "name": "amount",
          "type": "uint256"
        }
      ],
      "name": "swap",
      "outputs": [],
      "stateMutability": "nonpayable",
      "type": "function"
    },
    {
      "inputs": [
        {
          "internalType": "address",
          "name": "tokenA",
          "type": "address"
        },
        {
          "internalType": "address",
          "name": "tokenB",
          "type": "address"
        },
        {
          "internalType": "uint256",
          "name": "amount",
          "type": "uint256"
        },
        {
          "internalType": "uint256",
          "name": "deadline",
          "type": "uint256"
        },
        {
          "internalType": "uint8",
          "name": "v",
          "type": "uint8"
        },
        {
          "internalType": "bytes32",
          "name": "r",
          "type": "bytes32"
        },
        {
          "internalType": "bytes32",
          "name": "s",
          "type": "bytes32"
        }
      ],
      "name": "swapWithSignature",
      "outputs": [],
      "stateMutability": "nonpayable",
      "type": "function"
    },
    {
      "inputs": [
        {
          "internalType": "address",
          "name": "newOwner",
          "type": "address"
        }
      ],
      "name": "transferOwnership",
      "outputs": [],
      "stateMutability": "nonpayable",
      "type": "function"
    },
    {
      "inputs": [
        {
          "internalType": "address",
          "name": "token",
          "type": "address"
        },
        {
          "internalType": "uint256",
          "name": "amount",
          "type": "uint256"
        }
      ],
      "name": "withdraw",
      "outputs": [],
      "stateMutability": "nonpayable",
      "type": "function"
    }
  ],
  "bytecode": "0x608060405234801561001057600080fd5b506001600055338061003c57604051631e4fbdf760e01b81526000600482015260240160405180910390fd5b6100458161004b565b5061009d565b600180546001600160a01b038381166001600160a01b0319831681179093556040519116919082907f8be0079c531659141344cd1fd0a4f28419497f9722a3daafe3b4186f6b6457e090600090a35050565b61193a806100ac6000396000f3fe608060405234801561001057600080fd5b50600436106100b45760003560e01c8063798bac8d11610071578063798bac8d1461013c5780638da5cb5b1461014f578063df791e5014610168578063f2fde38b1461017b578063f3fef3a31461018e578063f4209658146101a157600080fd5b8063013a0247146100b95780631d6a054e146100ce5780632c0163a9146100e1578063326479201461010e57806347e7ef2414610121578063715018a614610134575b600080fd5b6100cc6100c7366004611480565b6101b4565b005b6100cc6100dc3660046114da565b6102a2565b6100f46100ef366004611513565b610407565b604080519283526020830191909152015b60405180910390f35b6100cc61011c36600461154f565b61076b565b6100cc61012f366004611582565b6107fb565b6100cc610872565b6100cc61014a36600461154f565b610886565b6001546001600160a01b031660405161010591906115ac565b6100cc610176366004611513565b610916565b6100cc6101893660046115c0565b6109b0565b6100cc61019c366004611582565b6109ee565b6100cc6101af3660046115db565b610b2a565b6101bc610c32565b6101c4610c5c565b856001600160a01b0381166101f557604051630b0f5aa160e11b81526004016101ec90611648565b60405180910390fd5b85806000036102195780604051631533de4360e01b81526004016101ec919061167f565b60405163d505accf60e01b81526001600160a01b0389169063d505accf9061025190339030908c908c908c908c908c906004016116be565b600060405180830381600087803b15801561026b57600080fd5b505af115801561027f573d6000803e3d6000fd5b5050505061028e338989610c89565b505061029a6001600055565b505050505050565b6102aa610c5c565b836001600160a01b0381166102d257604051630b0f5aa160e11b81526004016101ec90611648565b83806000036102f65780604051631533de4360e01b81526004016101ec919061167f565b838060000361031a5780604051631533de4360e01b81526004016101ec919061167f565b6000876001600160a01b031663313ce5676040518163ffffffff1660e01b8152600401602060405180830381865afa15801561035a573d6000803e3d6000fd5b505050506040513d601f19601f8201168201806040525081019061037e91906116ff565b60ff169050604051806060016040528082600a61039b9190611816565b6103a5908a611822565b81526020016103b583600a611816565b6103bf9089611822565b81526020908101969096526001600160a01b03909816600090815260048652604090819020895181559589015160018701559790970151600290940193909355505050505050565b600080846001600160a01b03811661043257604051630b0f5aa160e11b81526004016101ec90611648565b846001600160a01b03811661045a57604051630b0f5aa160e11b81526004016101ec90611648565b848060000361047e5780604051631533de4360e01b81526004016101ec919061167f565b6001600160a01b03871660009081526002602052604090206001015415806104bf57506001600160a01b038816600090815260036020526040902060010154155b156105195760405163ae07426d60e01b8152602060048201526024808201527f53656c6c206f722062757920707269636520666f722070616972206e6f7420666044820152631bdd5b9960e21b60648201526084016101ec565b6001600160a01b03871660009081526002602052604090206001015442108061055c57506001600160a01b03881660009081526003602052604090206001015442105b156105ba5760405163ae07426d60e01b815260206004820152602760248201527f53656c6c206f722062757920707269636520666f722070616972206973206e6f6044820152661d081d985b1a5960ca1b60648201526084016101ec565b6001600160a01b0388166000908152600360205260408120546105dd9088611822565b6001600160a01b03808a16600090815260026020908152604080832054938e1683526003909152812054929350916106159084611822565b61061f9190611839565b905060008a6001600160a01b031663313ce5676040518163ffffffff1660e01b8152600401602060405180830381865afa158015610661573d6000803e3d6000fd5b505050506040513d601f19601f8201168201806040525081019061068591906116ff565b60ff16905060008a6001600160a01b031663313ce5676040518163ffffffff1660e01b8152600401602060405180830381865afa1580156106ca573d6000803e3d6000fd5b505050506040513d601f19601f820116820180604052508101906106ee91906116ff565b60ff169050808214610758578181111561073457600061070e838361185b565b90508461071c82600a611816565b6107269086611822565b995099505050505050610760565b6000610740828461185b565b90508461074e82600a611816565b6107269086611839565b509196509450505b505050935093915050565b610773610c5c565b826001600160a01b03811661079b57604051630b0f5aa160e11b81526004016101ec90611648565b82806000036107bf5780604051631533de4360e01b81526004016101ec919061167f565b505060408051808201825292835260208084019283526001600160a01b0390941660009081526003909452909220905181559051600190910155565b610803610c32565b61080b610c5c565b816001600160a01b03811661083357604051630b0f5aa160e11b81526004016101ec90611648565b81806000036108575780604051631533de4360e01b81526004016101ec919061167f565b610862338585610c89565b505061086e6001600055565b5050565b61087a610c5c565b6108846000610cdc565b565b61088e610c5c565b826001600160a01b0381166108b657604051630b0f5aa160e11b81526004016101ec90611648565b82806000036108da5780604051631533de4360e01b81526004016101ec919061167f565b505060408051808201825292835260208084019283526001600160a01b0390941660009081526002909452909220905181559051600190910155565b61091e610c32565b826001600160a01b03811661094657604051630b0f5aa160e11b81526004016101ec90611648565b826001600160a01b03811661096e57604051630b0f5aa160e11b81526004016101ec90611648565b82806000036109925780604051631533de4360e01b81526004016101ec919061167f565b61099e33878787610d2e565b5050506109ab6001600055565b505050565b6109b8610c5c565b6001600160a01b0381166109e2576000604051631e4fbdf760e01b81526004016101ec91906115ac565b6109eb81610cdc565b50565b6109f6610c32565b6109fe610c5c565b816001600160a01b038116610a2657604051630b0f5aa160e11b81526004016101ec90611648565b8180600003610a4a5780604051631533de4360e01b81526004016101ec919061167f565b6040516370a0823160e01b815283906001600160a01b038616906370a0823190610a789030906004016115ac565b602060405180830381865afa158015610a95573d6000803e3d6000fd5b505050506040513d601f19601f82011682018060405250810190610ab9919061186e565b1015610b205760408051631533de4360e01b81526004810191909152602660448201527f4e6f7420656e6f7567687420746f6b656e732062616c616e636520746f20776960648201526574686472617760d01b60848201526024810184905260a4016101ec565b6108628484610e25565b610b32610c32565b866001600160a01b038116610b5a57604051630b0f5aa160e11b81526004016101ec90611648565b866001600160a01b038116610b8257604051630b0f5aa160e11b81526004016101ec90611648565b8680600003610ba65780604051631533de4360e01b81526004016101ec919061167f565b60405163d505accf60e01b81526001600160a01b038b169063d505accf90610bde90339030908d908d908d908d908d906004016116be565b600060405180830381600087803b158015610bf857600080fd5b505af1158015610c0c573d6000803e3d6000fd5b50505050610c1c338b8b8b610d2e565b505050610c296001600055565b50505050505050565b600260005403610c5557604051633ee5aeb560e01b815260040160405180910390fd5b6002600055565b6001546001600160a01b03163314610884573360405163118cdaa760e01b81526004016101ec91906115ac565b610c9e6001600160a01b038316843084610e88565b7fe1fffcc4923d04b559f4d29a8bfc6cda04eb5b0d3c460751c2402c5c5cc9109c8282604051610ccf929190611887565b60405180910390a1505050565b600180546001600160a01b038381166001600160a01b0319831681179093556040519116919082907f8be0079c531659141344cd1fd0a4f28419497f9722a3daafe3b4186f6b6457e090600090a35050565b600080610d3d85858589610ef5565b6001600160a01b038716600090815260066020526040812080549395509193508492610d6a9084906118a0565b90915550506001600160a01b03841660009081526005602052604081208054839290610d979084906118a0565b90915550610db290506001600160a01b038616873085610e88565b610dc66001600160a01b03851687836112a3565b604080516001600160a01b038781168252868116602083015291810184905260608101839052908716907fa735fb6bfc88d40598b51c9b5d88dd545bcfc7404c6825d5cde5e1a82379394e9060800160405180910390a2505050505050565b610e4b610e3a6001546001600160a01b031690565b6001600160a01b03841690836112a3565b7f884edad9ce6fa2440d8a54cc123490eb96d2768479d49ff9c7366125a94243648282604051610e7c929190611887565b60405180910390a15050565b6040516001600160a01b038481166024830152838116604483015260648201839052610eef9186918216906323b872dd906084015b604051602081830303815290604052915060e01b6020820180516001600160e01b0383818316178352505050506112c9565b50505050565b6001600160a01b038085166000908152600460208181526040808420815160608082018452825482526001808401548387015260029384015483860152978b16875294845282862083519586018452805486529687015493850193909352949094015493820193909352909182918280610f708a8a8a610407565b9150915060008a6001600160a01b03166370a08231896040518263ffffffff1660e01b8152600401610fa291906115ac565b602060405180830381865afa158015610fbf573d6000803e3d6000fd5b505050506040513d601f19601f82011682018060405250810190610fe3919061186e565b905060008a6001600160a01b03166370a08231306040518263ffffffff1660e01b815260040161101391906115ac565b602060405180830381865afa158015611030573d6000803e3d6000fd5b505050506040513d601f19601f82011682018060405250810190611054919061186e565b9050818411156110ab5760408051631533de4360e01b815260048101919091526018604482015277139bc8195b9bdd59da081d1bdad95b9cc81d1bc81cd95b1b60421b6064820152602481018590526084016101ec565b808311156110ff5760408051631533de4360e01b8152600481019190915260176044820152764e6f20656e6f75676820746f6b656e7320746f2062757960481b6064820152602481018490526084016101ec565b8551158015906111125750428660400151105b156111c55785516001600160a01b038d1660009081526006602052604090205461113d9086906118a0565b11156111c5576001600160a01b038c166000908152600660205260409020546111679085906118a0565b60408051631533de4360e01b81526004810191909152602260448201527f4d61782073656c6c20616d6f756e74206f6620746f6b656e7320657863656564606482015261195960f21b6084820152602481019190915260a4016101ec565b6020850151158015906111db5750428560400151105b15611292576020808601516001600160a01b038d166000908152600590925260409091205461120b9085906118a0565b1115611292576001600160a01b038b166000908152600560205260409020546112359084906118a0565b60408051631533de4360e01b81526004810191909152602160448201527f4d61782062757920616d6f756e74206f6620746f6b656e7320657863656564656064820152601960fa1b6084820152602481019190915260a4016101ec565b50919a909950975050505050505050565b6109ab83846001600160a01b031663a9059cbb8585604051602401610ebd929190611887565b60006112de6001600160a01b03841683611323565b9050805160001415801561130357508080602001905181019061130191906118b3565b155b156109ab5782604051635274afe760e01b81526004016101ec91906115ac565b60606113318383600061133a565b90505b92915050565b60608147101561135f573060405163cd78605960e01b81526004016101ec91906115ac565b600080856001600160a01b0316848660405161137b91906118d5565b60006040518083038185875af1925050503d80600081146113b8576040519150601f19603f3d011682016040523d82523d6000602084013e6113bd565b606091505b50915091506113cd8683836113d9565b925050505b9392505050565b6060826113ee576113e98261142c565b6113d2565b815115801561140557506001600160a01b0384163b155b156114255783604051639996b31560e01b81526004016101ec91906115ac565b50806113d2565b80511561143c5780518082602001fd5b604051630a12f52160e11b815260040160405180910390fd5b80356001600160a01b038116811461146c57600080fd5b919050565b60ff811681146109eb57600080fd5b60008060008060008060c0878903121561149957600080fd5b6114a287611455565b9550602087013594506040870135935060608701356114c081611471565b9598949750929560808101359460a0909101359350915050565b600080600080608085870312156114f057600080fd5b6114f985611455565b966020860135965060408601359560600135945092505050565b60008060006060848603121561152857600080fd5b61153184611455565b925061153f60208501611455565b9150604084013590509250925092565b60008060006060848603121561156457600080fd5b61156d84611455565b95602085013595506040909401359392505050565b6000806040838503121561159557600080fd5b61159e83611455565b946020939093013593505050565b6001600160a01b0391909116815260200190565b6000602082840312156115d257600080fd5b61133182611455565b600080600080600080600060e0888a0312156115f657600080fd5b6115ff88611455565b965061160d60208901611455565b95506040880135945060608801359350608088013561162b81611471565b9699959850939692959460a0840135945060c09093013592915050565b6020808252601a908201527f4e6f207a65726f206164647265737320697320616c6c6f776564000000000000604082015260600190565b6040808252601a908201527f5a65726f20616d6f756e74206973206e6f7420616c6c6f7765640000000000006060820152602081019190915260800190565b6001600160a01b0397881681529590961660208601526040850193909352606084019190915260ff16608083015260a082015260c081019190915260e00190565b60006020828403121561171157600080fd5b81516113d281611471565b634e487b7160e01b600052601160045260246000fd5b600181815b8085111561176d5781600019048211156117535761175361171c565b8085161561176057918102915b93841c9390800290611737565b509250929050565b60008261178457506001611334565b8161179157506000611334565b81600181146117a757600281146117b1576117cd565b6001915050611334565b60ff8411156117c2576117c261171c565b50506001821b611334565b5060208310610133831016604e8410600b84101617156117f0575081810a611334565b6117fa8383611732565b806000190482111561180e5761180e61171c565b029392505050565b60006113318383611775565b80820281158282048414176113345761133461171c565b60008261185657634e487b7160e01b600052601260045260246000fd5b500490565b818103818111156113345761133461171c565b60006020828403121561188057600080fd5b5051919050565b6001600160a01b03929092168252602082015260400190565b808201808211156113345761133461171c565b6000602082840312156118c557600080fd5b815180151581146113d257600080fd5b6000825160005b818110156118f657602081860181015185830152016118dc565b50600092019182525091905056fea2646970667358221220818ad1c37d458371e89add2446f63d835c633f6a4f543e7a334f586594140a8764736f6c63430008180033",
  "linkReferences": {},
  "deployedLinkReferences": {}
}