{
  "_format": "hh-sol-artifact-1",
  "contractName": "RewardsVault4626Factory",
  "sourceName": "contracts/vaultV2/factory/RewardsVault4626Factory.sol",
  "abi": [
    {
      "inputs": [],
      "stateMutability": "nonpayable",
      "type": "constructor"
    },
    {
      "anonymous": false,
      "inputs": [
        {
          "indexed": true,
          "internalType": "address",
          "name": "previousOwner",
          "type": "address"
        },
        {
          "indexed": true,
          "internalType": "address",
          "name": "newOwner",
          "type": "address"
        }
      ],
      "name": "OwnershipTransferred",
      "type": "event"
    },
    {
      "anonymous": false,
      "inputs": [
        {
          "indexed": true,
          "internalType": "address",
          "name": "vault",
          "type": "address"
        },
        {
          "indexed": true,
          "internalType": "address",
          "name": "asset",
          "type": "address"
        },
        {
          "indexed": true,
          "internalType": "address",
          "name": "deployer",
          "type": "address"
        },
        {
          "indexed": false,
          "internalType": "string",
          "name": "name",
          "type": "string"
        },
        {
          "indexed": false,
          "internalType": "string",
          "name": "symbol",
          "type": "string"
        },
        {
          "indexed": false,
          "internalType": "uint8",
          "name": "decimals",
          "type": "uint8"
        },
        {
          "indexed": false,
          "internalType": "uint256",
          "name": "lockPeriod",
          "type": "uint256"
        }
      ],
      "name": "VaultCreated",
      "type": "event"
    },
    {
      "inputs": [
        {
          "components": [
            {
              "internalType": "contract IERC20",
              "name": "asset",
              "type": "address"
            },
            {
              "internalType": "string",
              "name": "name",
              "type": "string"
            },
            {
              "internalType": "string",
              "name": "symbol",
              "type": "string"
            },
            {
              "internalType": "uint8",
              "name": "decimals",
              "type": "uint8"
            },
            {
              "internalType": "uint256",
              "name": "lockPeriod",
              "type": "uint256"
            }
          ],
          "internalType": "struct RewardsVault4626Factory.VaultCreationParams",
          "name": "params",
          "type": "tuple"
        }
      ],
      "name": "createVault",
      "outputs": [
        {
          "internalType": "address",
          "name": "vault",
          "type": "address"
        }
      ],
      "stateMutability": "nonpayable",
      "type": "function"
    },
    {
      "inputs": [
        {
          "internalType": "contract IERC20",
          "name": "asset",
          "type": "address"
        },
        {
          "internalType": "string",
          "name": "name",
          "type": "string"
        },
        {
          "internalType": "string",
          "name": "symbol",
          "type": "string"
        },
        {
          "internalType": "uint8",
          "name": "decimals",
          "type": "uint8"
        },
        {
          "internalType": "uint256",
          "name": "lockPeriod",
          "type": "uint256"
        }
      ],
      "name": "createVaultWithParams",
      "outputs": [
        {
          "internalType": "address",
          "name": "vault",
          "type": "address"
        }
      ],
      "stateMutability": "nonpayable",
      "type": "function"
    },
    {
      "inputs": [
        {
          "internalType": "uint256",
          "name": "",
          "type": "uint256"
        }
      ],
      "name": "deployedVaults",
      "outputs": [
        {
          "internalType": "address",
          "name": "",
          "type": "address"
        }
      ],
      "stateMutability": "view",
      "type": "function"
    },
    {
      "inputs": [],
      "name": "getAllVaults",
      "outputs": [
        {
          "internalType": "address[]",
          "name": "",
          "type": "address[]"
        }
      ],
      "stateMutability": "view",
      "type": "function"
    },
    {
      "inputs": [],
      "name": "getFactoryStats",
      "outputs": [
        {
          "internalType": "uint256",
          "name": "totalVaults",
          "type": "uint256"
        },
        {
          "internalType": "uint256",
          "name": "uniqueAssets",
          "type": "uint256"
        },
        {
          "internalType": "uint256",
          "name": "totalTVL",
          "type": "uint256"
        }
      ],
      "stateMutability": "view",
      "type": "function"
    },
    {
      "inputs": [],
      "name": "getVaultCount",
      "outputs": [
        {
          "internalType": "uint256",
          "name": "",
          "type": "uint256"
        }
      ],
      "stateMutability": "view",
      "type": "function"
    },
    {
      "inputs": [
        {
          "internalType": "address",
          "name": "vault",
          "type": "address"
        }
      ],
      "name": "getVaultInfo",
      "outputs": [
        {
          "components": [
            {
              "internalType": "address",
              "name": "asset",
              "type": "address"
            },
            {
              "internalType": "string",
              "name": "name",
              "type": "string"
            },
            {
              "internalType": "string",
              "name": "symbol",
              "type": "string"
            },
            {
              "internalType": "uint8",
              "name": "decimals",
              "type": "uint8"
            },
            {
              "internalType": "uint256",
              "name": "lockPeriod",
              "type": "uint256"
            },
            {
              "internalType": "address",
              "name": "deployer",
              "type": "address"
            },
            {
              "internalType": "uint256",
              "name": "deploymentTime",
              "type": "uint256"
            },
            {
              "internalType": "bool",
              "name": "exists",
              "type": "bool"
            }
          ],
          "internalType": "struct RewardsVault4626Factory.VaultInfo",
          "name": "info",
          "type": "tuple"
        }
      ],
      "stateMutability": "view",
      "type": "function"
    },
    {
      "inputs": [
        {
          "internalType": "address",
          "name": "asset",
          "type": "address"
        }
      ],
      "name": "getVaultsByAsset",
      "outputs": [
        {
          "internalType": "address[]",
          "name": "",
          "type": "address[]"
        }
      ],
      "stateMutability": "view",
      "type": "function"
    },
    {
      "inputs": [
        {
          "internalType": "address",
          "name": "deployer",
          "type": "address"
        }
      ],
      "name": "getVaultsByDeployer",
      "outputs": [
        {
          "internalType": "address[]",
          "name": "vaults",
          "type": "address[]"
        }
      ],
      "stateMutability": "view",
      "type": "function"
    },
    {
      "inputs": [
        {
          "internalType": "uint256",
          "name": "offset",
          "type": "uint256"
        },
        {
          "internalType": "uint256",
          "name": "limit",
          "type": "uint256"
        }
      ],
      "name": "getVaultsPaginated",
      "outputs": [
        {
          "internalType": "address[]",
          "name": "vaults",
          "type": "address[]"
        },
        {
          "internalType": "uint256",
          "name": "total",
          "type": "uint256"
        }
      ],
      "stateMutability": "view",
      "type": "function"
    },
    {
      "inputs": [
        {
          "internalType": "address",
          "name": "",
          "type": "address"
        }
      ],
      "name": "isDeployedVault",
      "outputs": [
        {
          "internalType": "bool",
          "name": "",
          "type": "bool"
        }
      ],
      "stateMutability": "view",
      "type": "function"
    },
    {
      "inputs": [],
      "name": "owner",
      "outputs": [
        {
          "internalType": "address",
          "name": "",
          "type": "address"
        }
      ],
      "stateMutability": "view",
      "type": "function"
    },
    {
      "inputs": [
        {
          "internalType": "address",
          "name": "vault",
          "type": "address"
        }
      ],
      "name": "supportsInterface",
      "outputs": [
        {
          "internalType": "bool",
          "name": "",
          "type": "bool"
        }
      ],
      "stateMutability": "view",
      "type": "function"
    },
    {
      "inputs": [
        {
          "internalType": "address",
          "name": "newOwner",
          "type": "address"
        }
      ],
      "name": "transferOwnership",
      "outputs": [],
      "stateMutability": "nonpayable",
      "type": "function"
    },
    {
      "inputs": [
        {
          "internalType": "address",
          "name": "vault",
          "type": "address"
        },
        {
          "internalType": "address",
          "name": "newOwner",
          "type": "address"
        }
      ],
      "name": "transferVaultOwnership",
      "outputs": [],
      "stateMutability": "nonpayable",
      "type": "function"
    },
    {
      "inputs": [
        {
          "internalType": "address",
          "name": "vault",
          "type": "address"
        },
        {
          "internalType": "bool",
          "name": "status",
          "type": "bool"
        }
      ],
      "name": "updateVaultTracking",
      "outputs": [],
      "stateMutability": "nonpayable",
      "type": "function"
    },
    {
      "inputs": [
        {
          "internalType": "address",
          "name": "",
          "type": "address"
        }
      ],
      "name": "vaultInfo",
      "outputs": [
        {
          "internalType": "address",
          "name": "asset",
          "type": "address"
        },
        {
          "internalType": "string",
          "name": "name",
          "type": "string"
        },
        {
          "internalType": "string",
          "name": "symbol",
          "type": "string"
        },
        {
          "internalType": "uint8",
          "name": "decimals",
          "type": "uint8"
        },
        {
          "internalType": "uint256",
          "name": "lockPeriod",
          "type": "uint256"
        },
        {
          "internalType": "address",
          "name": "deployer",
          "type": "address"
        },
        {
          "internalType": "uint256",
          "name": "deploymentTime",
          "type": "uint256"
        },
        {
          "internalType": "bool",
          "name": "exists",
          "type": "bool"
        }
      ],
      "stateMutability": "view",
      "type": "function"
    },
    {
      "inputs": [
        {
          "internalType": "address",
          "name": "",
          "type": "address"
        },
        {
          "internalType": "uint256",
          "name": "",
          "type": "uint256"
        }
      ],
      "name": "vaultsByAsset",
      "outputs": [
        {
          "internalType": "address",
          "name": "",
          "type": "address"
        }
      ],
      "stateMutability": "view",
      "type": "function"
    }
  ],
  "bytecode": "0x608060405234801561001057600080fd5b50600080546001600160a01b0319163390811782556040519091907f8be0079c531659141344cd1fd0a4f28419497f9722a3daafe3b4186f6b6457e0908290a3614ab08061005f6000396000f3fe60806040523480156200001157600080fd5b50600436106200010b5760003560e01c80638da5cb5b116200009e5780638da5cb5b146200022957806390229af7146200023d5780639164359a146200026357806397331bf91462000290578063a26b2a17146200029a578063c922644514620002c0578063d5e1548514620002e6578063f2fde38b14620002fd578063fdc10daf146200031457600080fd5b8063068c6b1014620001105780630ac214df14620001295780630e5dee45146200015d57806310894052146200018457806317a45e9e14620001aa5780632e60163a14620001c1578063453131fa14620001e957806374d4e4911462000200578063790f9d661462000212575b600080fd5b62000127620001213660046200140a565b6200032b565b005b620001406200013a3660046200144c565b6200038c565b6040516001600160a01b0390911681526020015b60405180910390f35b620001746200016e36600462001466565b620003b7565b60405162000154929190620014d0565b6200019b62000195366004620014f4565b620004cc565b6040516200015491906200151b565b62000140620001bb36600462001617565b62000544565b620001d8620001d2366004620014f4565b62000592565b604051901515815260200162000154565b62000140620001fa366004620016b0565b6200060c565b60015460405190815260200162000154565b6200014062000223366004620016df565b62000645565b60005462000140906001600160a01b031681565b620002546200024e366004620014f4565b62000658565b604051620001549190620017f7565b6200027a62000274366004620014f4565b620008ac565b60405162000154989796959493929190620018b1565b6200019b62000a29565b620001d8620002ab366004620014f4565b60046020526000908152604090205460ff1681565b620002ca62000a8d565b6040805193845260208401929092529082015260600162000154565b6200019b620002f7366004620014f4565b62000c7a565b620001276200030e366004620014f4565b62000e2e565b620001276200032536600462001922565b62000f29565b6000546001600160a01b03163314620003615760405162461bcd60e51b8152600401620003589062001955565b60405180910390fd5b6001600160a01b03919091166000908152600460205260409020805460ff1916911515919091179055565b600181815481106200039d57600080fd5b6000918252602090912001546001600160a01b0316905081565b600154606090808410620003dc576040805160008152602081019091529150620004c5565b6000620003ea8486620019b2565b905081811115620003f85750805b620004048582620019c8565b6001600160401b038111156200041e576200041e62001530565b60405190808252806020026020018201604052801562000448578160200160208202803683370190505b509250845b81811015620004c257600181815481106200046c576200046c620019de565b6000918252602090912001546001600160a01b0316846200048e8884620019c8565b81518110620004a157620004a1620019de565b6001600160a01b03909216602092830291909101909101526001016200044d565b50505b9250929050565b6001600160a01b0381166000908152600360209081526040918290208054835181840281018401909452808452606093928301828280156200053857602002820191906000526020600020905b81546001600160a01b0316815260019091019060200180831162000519575b50505050509050919050565b6000806040518060a00160405280886001600160a01b031681526020018781526020018681526020018560ff168152602001848152509050620005878162000ff5565b979650505050505050565b6000816001600160a01b03166338d52e0f6040518163ffffffff1660e01b8152600401602060405180830381865afa925050508015620005f1575060408051601f3d908101601f19168201909252620005ee91810190620019f4565b60015b620005fe57506000919050565b50600192915050565b919050565b600360205281600052604060002081815481106200062957600080fd5b6000918252602090912001546001600160a01b03169150829050565b6000620006528262000ff5565b92915050565b620006b860405180610100016040528060006001600160a01b031681526020016060815260200160608152602001600060ff1681526020016000815260200160006001600160a01b03168152602001600081526020016000151581525090565b6001600160a01b038216600090815260046020526040902054829060ff16620006f55760405162461bcd60e51b8152600401620003589062001a14565b6001600160a01b038084166000908152600260209081526040918290208251610100810190935280549093168252600183018054929392918401916200073b9062001a6a565b80601f0160208091040260200160405190810160405280929190818152602001828054620007699062001a6a565b8015620007ba5780601f106200078e57610100808354040283529160200191620007ba565b820191906000526020600020905b8154815290600101906020018083116200079c57829003601f168201915b50505050508152602001600282018054620007d59062001a6a565b80601f0160208091040260200160405190810160405280929190818152602001828054620008039062001a6a565b8015620008545780601f10620008285761010080835404028352916020019162000854565b820191906000526020600020905b8154815290600101906020018083116200083657829003601f168201915b5050509183525050600382015460ff90811660208301526004830154604083015260058301546001600160a01b0316606083015260068301546080830152600790920154909116151560a09091015291505b50919050565b600260205260009081526040902080546001820180546001600160a01b039092169291620008da9062001a6a565b80601f0160208091040260200160405190810160405280929190818152602001828054620009089062001a6a565b8015620009595780601f106200092d5761010080835404028352916020019162000959565b820191906000526020600020905b8154815290600101906020018083116200093b57829003601f168201915b505050505090806002018054620009709062001a6a565b80601f01602080910402602001604051908101604052809291908181526020018280546200099e9062001a6a565b8015620009ef5780601f10620009c357610100808354040283529160200191620009ef565b820191906000526020600020905b815481529060010190602001808311620009d157829003601f168201915b5050506003840154600485015460058601546006870154600790970154959660ff938416969295506001600160a01b039091169350911688565b6060600180548060200260200160405190810160405280929190818152602001828054801562000a8357602002820191906000526020600020905b81546001600160a01b0316815260019091019060200180831162000a64575b5050505050905090565b60015460008080836001600160401b0381111562000aaf5762000aaf62001530565b60405190808252806020026020018201604052801562000ad9578160200160208202803683370190505b5090506000805b8581101562000c71576000600260006001848154811062000b055762000b05620019de565b60009182526020808320909101546001600160a01b0390811684529083019390935260409091018120549091169150805b8481101562000b8857826001600160a01b031686828151811062000b5e5762000b5e620019de565b60200260200101516001600160a01b03160362000b7f576001915062000b88565b60010162000b36565b508062000bcd578185858151811062000ba55762000ba5620019de565b6001600160a01b03909216602092830291909101909101528362000bc98162001aa0565b9450505b6001838154811062000be35762000be3620019de565b6000918252602091829020015460408051634bd9fe5560e11b815290516001600160a01b03909216926397b3fcaa926004808401938290030181865afa92505050801562000c50575060408051601f3d908101601f1916820190925262000c4d9181019062001abc565b60015b1562000c665762000c628188620019b2565b9650505b505060010162000ae0565b50939491925050565b60606000805b60015481101562000cfc57836001600160a01b0316600260006001848154811062000caf5762000caf620019de565b60009182526020808320909101546001600160a01b039081168452908301939093526040909101902060050154160362000cf3578162000cef8162001aa0565b9250505b60010162000c80565b50806001600160401b0381111562000d185762000d1862001530565b60405190808252806020026020018201604052801562000d42578160200160208202803683370190505b5091506000805b60015481101562000e2657846001600160a01b0316600260006001848154811062000d785762000d78620019de565b60009182526020808320909101546001600160a01b039081168452908301939093526040909101902060050154160362000e1d576001818154811062000dc25762000dc2620019de565b9060005260206000200160009054906101000a90046001600160a01b031684838151811062000df55762000df5620019de565b6001600160a01b03909216602092830291909101909101528162000e198162001aa0565b9250505b60010162000d49565b505050919050565b6000546001600160a01b0316331462000e5b5760405162461bcd60e51b8152600401620003589062001955565b6001600160a01b03811662000ece5760405162461bcd60e51b815260206004820152603260248201527f526577617264735661756c7434363236466163746f72793a204e6577206f776e6044820152716572206973207a65726f206164647265737360701b606482015260840162000358565b600080546040516001600160a01b03808516939216917f8be0079c531659141344cd1fd0a4f28419497f9722a3daafe3b4186f6b6457e091a3600080546001600160a01b0319166001600160a01b0392909216919091179055565b6000546001600160a01b0316331462000f565760405162461bcd60e51b8152600401620003589062001955565b6001600160a01b038216600090815260046020526040902054829060ff1662000f935760405162461bcd60e51b8152600401620003589062001a14565b60405163f2fde38b60e01b81526001600160a01b03838116600483015284169063f2fde38b90602401600060405180830381600087803b15801562000fd757600080fd5b505af115801562000fec573d6000803e3d6000fd5b50505050505050565b80516000906001600160a01b0316620010605760405162461bcd60e51b815260206004820152602660248201527f526577617264735661756c7434363236466163746f72793a20496e76616c696460448201526508185cdcd95d60d21b606482015260840162000358565b600082602001515111620010c35760405162461bcd60e51b815260206004820152602360248201527f526577617264735661756c7434363236466163746f72793a20456d707479206e604482015262616d6560e81b606482015260840162000358565b600082604001515111620011285760405162461bcd60e51b815260206004820152602560248201527f526577617264735661756c7434363236466163746f72793a20456d70747920736044820152641e5b589bdb60da1b606482015260840162000358565b6000826060015160ff1611620011935760405162461bcd60e51b815260206004820152602960248201527f526577617264735661756c7434363236466163746f72793a20496e76616c696460448201526820646563696d616c7360b81b606482015260840162000358565b8160000151826020015183604001518460600151856080015133604051620011bb90620013e3565b620011cc9695949392919062001ad6565b604051809103906000f080158015620011e9573d6000803e3d6000fd5b50604080516101008101825284516001600160a01b039081168252602080870151818401908152878501518486015260608089015160ff1690850152608080890151908501523360a08501524260c0850152600160e085018190528684166000908152600290935294909120835181546001600160a01b0319169316929092178255519394509092909182019062001282908262001b87565b506040820151600282019062001299908262001b87565b506060828101516003808401805460ff90931660ff1993841617905560808086015160048087019190915560a08701516005870180546001600160a01b039283166001600160a01b03199182161790915560c0890151600689015560e090980151600790970180549715159786169790971790965560018054808201825560008281527fb10e2d527612073b26eecdfd717e6a320cf44b4afac2b0732d9fcbe2b7fa0cf690910180548b8a16908b1681179091558b51891682526020958652604080832080548086018255908452878420018054909b168217909a5580825292855288902080549095161790935587519188015186890151948901519189015196513397939096169593947fb56d1f046ba0261d524aea3da511dd0bb841dc80a29618cf9fbceda9fd6494d594620013d694929391929062001c53565b60405180910390a4919050565b612de78062001c9483390190565b6001600160a01b03811681146200140757600080fd5b50565b600080604083850312156200141e57600080fd5b82356200142b81620013f1565b9150602083013580151581146200144157600080fd5b809150509250929050565b6000602082840312156200145f57600080fd5b5035919050565b600080604083850312156200147a57600080fd5b50508035926020909101359150565b60008151808452602080850194506020840160005b83811015620014c55781516001600160a01b0316875295820195908201906001016200149e565b509495945050505050565b604081526000620014e5604083018562001489565b90508260208301529392505050565b6000602082840312156200150757600080fd5b81356200151481620013f1565b9392505050565b60208152600062001514602083018462001489565b634e487b7160e01b600052604160045260246000fd5b60405160a081016001600160401b03811182821017156200156b576200156b62001530565b60405290565b600082601f8301126200158357600080fd5b81356001600160401b0380821115620015a057620015a062001530565b604051601f8301601f19908116603f01168101908282118183101715620015cb57620015cb62001530565b81604052838152866020858801011115620015e557600080fd5b836020870160208301376000602085830101528094505050505092915050565b803560ff811681146200060757600080fd5b600080600080600060a086880312156200163057600080fd5b85356200163d81620013f1565b945060208601356001600160401b03808211156200165a57600080fd5b6200166889838a0162001571565b955060408801359150808211156200167f57600080fd5b506200168e8882890162001571565b9350506200169f6060870162001605565b949793965091946080013592915050565b60008060408385031215620016c457600080fd5b8235620016d181620013f1565b946020939093013593505050565b600060208284031215620016f257600080fd5b81356001600160401b03808211156200170a57600080fd5b9083019060a082860312156200171f57600080fd5b6200172962001546565b82356200173681620013f1565b81526020830135828111156200174b57600080fd5b620017598782860162001571565b6020830152506040830135828111156200177257600080fd5b620017808782860162001571565b604083015250620017946060840162001605565b60608201526080830135608082015280935050505092915050565b6000815180845260005b81811015620017d757602081850181015186830182015201620017b9565b506000602082860101526020601f19601f83011685010191505092915050565b602080825282516001600160a01b03168282015282015161010060408301819052600091906200182c610120850183620017af565b91506040850151601f198584030160608601526200184b8382620017af565b925050606085015162001863608086018260ff169052565b50608085015160a085015260a08501516200188960c08601826001600160a01b03169052565b5060c085015160e085015260e0850151620018a78286018215159052565b5090949350505050565b6001600160a01b03898116825261010060208301819052600091620018d98483018c620017af565b91508382036040850152620018ef828b620017af565b60ff999099166060850152608084019790975250509290931660a083015260c082015290151560e0909101529392505050565b600080604083850312156200193657600080fd5b82356200194381620013f1565b915060208301356200144181620013f1565b60208082526027908201527f526577617264735661756c7434363236466163746f72793a204e6f74206175746040820152661a1bdc9a5e995960ca1b606082015260800190565b634e487b7160e01b600052601160045260246000fd5b808201808211156200065257620006526200199c565b818103818111156200065257620006526200199c565b634e487b7160e01b600052603260045260246000fd5b60006020828403121562001a0757600080fd5b81516200151481620013f1565b60208082526036908201527f526577617264735661756c7434363236466163746f72793a205661756c74206e6040820152756f74206465706c6f79656420627920666163746f727960501b606082015260800190565b600181811c9082168062001a7f57607f821691505b602082108103620008a657634e487b7160e01b600052602260045260246000fd5b60006001820162001ab55762001ab56200199c565b5060010190565b60006020828403121562001acf57600080fd5b5051919050565b600060018060a01b03808916835260c0602084015262001afa60c0840189620017af565b838103604085015262001b0e8189620017af565b60ff97909716606085015250608083019490945250911660a0909101529392505050565b601f82111562001b82576000816000526020600020601f850160051c8101602086101562001b5d5750805b601f850160051c820191505b8181101562001b7e5782815560010162001b69565b5050505b505050565b81516001600160401b0381111562001ba35762001ba362001530565b62001bbb8162001bb4845462001a6a565b8462001b32565b602080601f83116001811462001bf3576000841562001bda5750858301515b600019600386901b1c1916600185901b17855562001b7e565b600085815260208120601f198616915b8281101562001c245788860151825594840194600190910190840162001c03565b508582101562001c435787850151600019600388901b60f8161c191681555b5050505050600190811b01905550565b60808152600062001c686080830187620017af565b828103602084015262001c7c8187620017af565b60ff9590951660408401525050606001529291505056fe6101206040523480156200001257600080fd5b5060405162002de738038062002de7833981016040819052620000359162000223565b84848460006200004684826200036d565b5060016200005583826200036d565b5060ff81166080524660a0526200006b620000a6565b60c0525050506001600160a01b0395861660e05261010091909152600680546001600160a01b031916919095161790935550620004b7915050565b60007f8b73c3c69bb8fe3d512ecc4cf759cc79239f7b179b0ffacaa9a75d522b39400f6000604051620000da919062000439565b6040805191829003822060208301939093528101919091527fc89efdaa54c0f20c7adf612882df0950f5a951637e0307cdcb4c672f298b8bc660608201524660808201523060a082015260c00160405160208183030381529060405280519060200120905090565b6001600160a01b03811681146200015857600080fd5b50565b634e487b7160e01b600052604160045260246000fd5b600082601f8301126200018357600080fd5b81516001600160401b0380821115620001a057620001a06200015b565b604051601f8301601f19908116603f01168101908282118183101715620001cb57620001cb6200015b565b8160405283815260209250866020858801011115620001e957600080fd5b600091505b838210156200020d5785820183015181830184015290820190620001ee565b6000602085830101528094505050505092915050565b60008060008060008060c087890312156200023d57600080fd5b86516200024a8162000142565b60208801519096506001600160401b03808211156200026857600080fd5b620002768a838b0162000171565b965060408901519150808211156200028d57600080fd5b506200029c89828a0162000171565b945050606087015160ff81168114620002b457600080fd5b608088015160a08901519194509250620002ce8162000142565b809150509295509295509295565b600181811c90821680620002f157607f821691505b6020821081036200031257634e487b7160e01b600052602260045260246000fd5b50919050565b601f82111562000368576000816000526020600020601f850160051c81016020861015620003435750805b601f850160051c820191505b8181101562000364578281556001016200034f565b5050505b505050565b81516001600160401b038111156200038957620003896200015b565b620003a1816200039a8454620002dc565b8462000318565b602080601f831160018114620003d95760008415620003c05750858301515b600019600386901b1c1916600185901b17855562000364565b600085815260208120601f198616915b828110156200040a57888601518255948401946001909101908401620003e9565b5085821015620004295787850151600019600388901b60f8161c191681555b5050505050600190811b01905550565b60008083546200044981620002dc565b600182811680156200046457600181146200047a57620004ab565b60ff1984168752821515830287019450620004ab565b8760005260208060002060005b85811015620004a25781548a82015290840190820162000487565b50505082870194505b50929695505050505050565b60805160a05160c05160e051610100516128a5620005426000396000818161040e01528181610c87015281816118470152611a270152600081816103cf01528181610bad01528181610d6601528181610f62015281816112980152818161148c0152611eac015260006109b201526000610982015260008181610386015261094e01526128a56000f3fe608060405234801561001057600080fd5b50600436106102745760003560e01c806370a0823111610151578063b460af94116100c3578063d505accf11610087578063d505accf146105e4578063d905777e146105f7578063dd62ed3e1461060a578063e231dc2714610635578063ef8b30f714610648578063f2fde38b1461065b57600080fd5b8063b460af9414610581578063ba08765214610594578063c63d75b614610430578063cbecf6b5146105a7578063ce96cb77146105d157600080fd5b806394bf804d1161011557806394bf804d1461052557806395d89b411461053857806397b3fcaa146105405780639feb8f5014610548578063a9059cbb1461055b578063b3d7f6b91461056e57600080fd5b806370a08231146104ac5780637bb7bed1146104cc5780637ecebe00146104df5780638da5cb5b146104ff578063929ec5371461051257600080fd5b80632c62fa10116101ea5780633fd8b02f116101ae5780633fd8b02f14610409578063402d267d146104305780634cdad5061461044557806357600c4a146104585780635bfadb241461046b5780636e553f651461049957600080fd5b80632c62fa101461036e578063313ce5671461038157806335d16e17146103ba5780633644e515146103c257806338d52e0f146103ca57600080fd5b806318160ddd1161023c57806318160ddd146102e55780631959a002146102ee57806321e91dea1461032d57806323b872dd146103405780632521cdd8146103535780632bbf532a1461035b57600080fd5b806301e1d1141461027957806306fdde0314610290578063095ea7b3146102a55780630a28a477146102c85780630b83a727146102db575b600080fd5b6008545b6040519081526020015b60405180910390f35b61029861066e565b6040516102879190612227565b6102b86102b3366004612292565b6106fc565b6040519015158152602001610287565b61027d6102d63660046122bc565b610769565b6102e3610774565b005b61027d60025481565b6103186102fc3660046122d5565b6009602052600090815260409020805460029091015460ff1682565b60408051928352901515602083015201610287565b61027d61033b3660046122f0565b61077f565b6102b861034e366004612323565b610837565b60075461027d565b6102b86103693660046122d5565b610917565b61027d61037c3660046122d5565b610922565b6103a87f000000000000000000000000000000000000000000000000000000000000000081565b60405160ff9091168152602001610287565b61027d610944565b61027d61097e565b6103f17f000000000000000000000000000000000000000000000000000000000000000081565b6040516001600160a01b039091168152602001610287565b61027d7f000000000000000000000000000000000000000000000000000000000000000081565b61027d61043e3660046122d5565b5060001990565b61027d6104533660046122bc565b6109d4565b61027d610466366004612375565b6109df565b61047e61047936600461243a565b610a1d565b60408051938452602084019290925290820152606001610287565b61027d6104a736600461245c565b610cae565b61027d6104ba3660046122d5565b60036020526000908152604090205481565b6103f16104da3660046122bc565b610ec1565b61027d6104ed3660046122d5565b60056020526000908152604090205481565b6006546103f1906001600160a01b031681565b61027d6105203660046122d5565b610eeb565b61027d61053336600461245c565b610ef6565b6102986110b3565b61027d6110c0565b6102e3610556366004612292565b6110cb565b6102b8610569366004612292565b611103565b61027d61057c3660046122bc565b611169565b61027d61058f36600461247f565b611174565b61027d6105a236600461247f565b61136a565b6103186105b53660046122d5565b600a602052600090815260409020805460019091015460ff1682565b61027d6105df3660046122d5565b611553565b6102e36105f23660046124bb565b61158c565b61027d6106053660046122d5565b6117ca565b61027d6106183660046122f0565b600460209081526000928352604080842090915290825290205481565b61027d6106433660046122d5565b6117fd565b61027d6106563660046122bc565b61188f565b6102e36106693660046122d5565b61189a565b6000805461067b9061252e565b80601f01602080910402602001604051908101604052809291908181526020018280546106a79061252e565b80156106f45780601f106106c9576101008083540402835291602001916106f4565b820191906000526020600020905b8154815290600101906020018083116106d757829003601f168201915b505050505081565b3360008181526004602090815260408083206001600160a01b038716808552925280832085905551919290917f8c5be1e5ebec7d5bd14f71427d1e84f3dd0314c0f7b2291e5b200ac8c7c3b925906107579086815260200190565b60405180910390a35060015b92915050565b60006107638261196c565b61077d33611993565b565b6001600160a01b0381166000908152600a602052604081206001015460ff1615806107c057506001600160a01b038316600090815260036020526040902054155b156107cd57506000610763565b6001600160a01b038083166000818152600a6020908152604080832054948816808452600983528184209484526001909401825280832054938352600390915290205461082e90670de0b6b3a7640000610827848661257e565b91906119bf565b95945050505050565b6001600160a01b038316600090815260046020908152604080832033845290915281205460001981146108935761086e838261257e565b6001600160a01b03861660009081526004602090815260408083203384529091529020555b6001600160a01b038516600090815260036020526040812080548592906108bb90849061257e565b90915550506001600160a01b0380851660008181526003602052604090819020805487019055519091871690600080516020612850833981519152906109049087815260200190565b60405180910390a3506001949350505050565b6000610763826119dd565b6001600160a01b03811660009081526003602052604081205461076390611a55565b60006109796109747f0000000000000000000000000000000000000000000000000000000000000000600a612675565b611a55565b905090565b60007f000000000000000000000000000000000000000000000000000000000000000046146109af57610979611a7c565b507f000000000000000000000000000000000000000000000000000000000000000090565b600061076382611a55565b6000805b8251811015610a1757610a0f33848381518110610a0257610a02612684565b6020026020010151611b16565b6001016109e3565b50505190565b336000908152600960205260408120600201548190819060ff16610a7f5760405162461bcd60e51b81526020600482015260146024820152735573657220686173206e6f206465706f7369747360601b60448201526064015b60405180910390fd5b610a88336119dd565b610b055760405162461bcd60e51b815260206004820152604260248201527f596f752063616e277420756e6c6f636b20796f757220746f6b656e206265636160448201527f75736520746865206c6f636b20706572696f64206973206e6f74207265616368606482015261195960f21b608482015260a401610a76565b6000610b1286600a61269a565b600754909150811115610b2457506007545b855b81811015610b6757610b5f3360078381548110610b4557610b45612684565b6000918252602090912001546001600160a01b0316611b16565b600101610b26565b506000610b7386610769565b9050610b7f3382611cdc565b8560086000828254610b91919061257e565b909155505060405163a9059cbb60e01b81526001600160a01b037f0000000000000000000000000000000000000000000000000000000000000000169063a9059cbb90610be49033908a906004016126ad565b6020604051808303816000875af1158015610c03573d6000803e3d6000fd5b505050506040513d601f19601f82011682018060405250810190610c2791906126c6565b610c435760405162461bcd60e51b8152600401610a76906126e8565b604080518781526020810183905233918291600080516020612830833981519152910160405180910390a350503360009081526009602052604090205442969095507f0000000000000000000000000000000000000000000000000000000000000000945092505050565b6000808311610cf25760405162461bcd60e51b815260206004820152601060248201526f043616e6e6f74206465706f73697420360841b6044820152606401610a76565b6001600160a01b038216610d3b5760405162461bcd60e51b815260206004820152601060248201526f24b73b30b634b2103932b1b2b4bb32b960811b6044820152606401610a76565b610d448361188f565b9050610d4f82611d46565b6040516323b872dd60e01b81526001600160a01b037f000000000000000000000000000000000000000000000000000000000000000016906323b872dd90610d9f90339030908890600401612711565b6020604051808303816000875af1158015610dbe573d6000803e3d6000fd5b505050506040513d601f19601f82011682018060405250810190610de291906126c6565b610dfe5760405162461bcd60e51b8152600401610a76906126e8565b610e088282611d98565b8260086000828254610e1a919061269a565b90915550506001600160a01b03821660009081526009602052604090206002015460ff16610e74576001600160a01b0382166000908152600960205260409020428155600201805460ff19166001179055610e7482611dea565b60408051848152602081018390526001600160a01b0384169133917fdcbc1c05240f31ff3ad067ef1ee35ce4997762752e3a095284754544f4c709d791015b60405180910390a392915050565b60078181548110610ed157600080fd5b6000918252602090912001546001600160a01b0316905081565b600061076382610922565b6000808311610f375760405162461bcd60e51b815260206004820152600d60248201526c043616e6e6f74206d696e74203609c1b6044820152606401610a76565b610f4083611169565b9050610f4b82611d46565b6040516323b872dd60e01b81526001600160a01b037f000000000000000000000000000000000000000000000000000000000000000016906323b872dd90610f9b90339030908690600401612711565b6020604051808303816000875af1158015610fba573d6000803e3d6000fd5b505050506040513d601f19601f82011682018060405250810190610fde91906126c6565b610ffa5760405162461bcd60e51b8152600401610a76906126e8565b6110048284611d98565b8060086000828254611016919061269a565b90915550506001600160a01b03821660009081526009602052604090206002015460ff16611070576001600160a01b0382166000908152600960205260409020428155600201805460ff1916600117905561107082611dea565b60408051828152602081018590526001600160a01b0384169133917fdcbc1c05240f31ff3ad067ef1ee35ce4997762752e3a095284754544f4c709d79101610eb3565b6001805461067b9061252e565b600061097960085490565b6006546001600160a01b031633146110f55760405162461bcd60e51b8152600401610a7690612735565b6110ff8282611e5c565b5050565b3360009081526003602052604081208054839190839061112490849061257e565b90915550506001600160a01b03831660008181526003602052604090819020805485019055513390600080516020612850833981519152906107579086815260200190565b6000610763826121b3565b60008084116111b95760405162461bcd60e51b8152602060048201526011602482015270043616e6e6f74207769746864726177203607c1b6044820152606401610a76565b6111c2826119dd565b6111de5760405162461bcd60e51b8152600401610a769061275d565b6111e784610769565b9050336001600160a01b03831614611257576001600160a01b0382166000908152600460209081526040808320338452909152902054600019811461125557611230828261257e565b6001600160a01b03841660009081526004602090815260408083203384529091529020555b505b61126082611993565b61126a8282611cdc565b836008600082825461127c919061257e565b909155505060405163a9059cbb60e01b81526001600160a01b037f0000000000000000000000000000000000000000000000000000000000000000169063a9059cbb906112cf90869088906004016126ad565b6020604051808303816000875af11580156112ee573d6000803e3d6000fd5b505050506040513d601f19601f8201168201806040525081019061131291906126c6565b61132e5760405162461bcd60e51b8152600401610a76906126e8565b60408051858152602081018390526001600160a01b03851691339160008051602061283083398151915291015b60405180910390a39392505050565b60008084116113ad5760405162461bcd60e51b815260206004820152600f60248201526e043616e6e6f742072656465656d203608c1b6044820152606401610a76565b6113b6826119dd565b6113d25760405162461bcd60e51b8152600401610a769061275d565b6113db846109d4565b9050336001600160a01b0383161461144b576001600160a01b0382166000908152600460209081526040808320338452909152902054600019811461144957611424858261257e565b6001600160a01b03841660009081526004602090815260408083203384529091529020555b505b61145482611993565b61145e8285611cdc565b8060086000828254611470919061257e565b909155505060405163a9059cbb60e01b81526001600160a01b037f0000000000000000000000000000000000000000000000000000000000000000169063a9059cbb906114c390869085906004016126ad565b6020604051808303816000875af11580156114e2573d6000803e3d6000fd5b505050506040513d601f19601f8201168201806040525081019061150691906126c6565b6115225760405162461bcd60e51b8152600401610a76906126e8565b60408051828152602081018690526001600160a01b038516913391600080516020612830833981519152910161135b565b600061155e826119dd565b61156a57506000919050565b6001600160a01b03821660009081526003602052604090205461076390611a55565b428410156115d65760405162461bcd60e51b815260206004820152601760248201527614115493525517d11150511312539157d1561412549151604a1b6044820152606401610a76565b600060016115e261097e565b6001600160a01b038a811660008181526005602090815260409182902080546001810190915582517f6e71edae12b1b97f4d1f60370fef10105fa2faae0126114a169c64845d6126c98184015280840194909452938d166060840152608083018c905260a083019390935260c08083018b90528151808403909101815260e08301909152805192019190912061190160f01b6101008301526101028201929092526101228101919091526101420160408051601f198184030181528282528051602091820120600084529083018083525260ff871690820152606081018590526080810184905260a0016020604051602081039080840390855afa1580156116ee573d6000803e3d6000fd5b5050604051601f1901519150506001600160a01b038116158015906117245750876001600160a01b0316816001600160a01b0316145b6117615760405162461bcd60e51b815260206004820152600e60248201526d24a72b20a624a22fa9a4a3a722a960911b6044820152606401610a76565b6001600160a01b0390811660009081526004602090815260408083208a8516808552908352928190208990555188815291928a16917f8c5be1e5ebec7d5bd14f71427d1e84f3dd0314c0f7b2291e5b200ac8c7c3b925910160405180910390a350505050505050565b60006117d5826119dd565b6117e157506000919050565b506001600160a01b031660009081526003602052604090205490565b6001600160a01b03811660009081526009602052604081206002015460ff1661182857506000919050565b6001600160a01b03821660009081526009602052604081205461186c907f00000000000000000000000000000000000000000000000000000000000000009061269a565b905080421061187e5750600092915050565b611888428261257e565b9392505050565b6000610763826121da565b6006546001600160a01b031633146118c45760405162461bcd60e51b8152600401610a7690612735565b6001600160a01b03811661191a5760405162461bcd60e51b815260206004820181905260248201527f4e6577206f776e65722063616e6e6f74206265207a65726f20616464726573736044820152606401610a76565b600680546001600160a01b038381166001600160a01b0319831681179093556040519116919082907f8be0079c531659141344cd1fd0a4f28419497f9722a3daafe3b4186f6b6457e090600090a35050565b600060025460000361197c575090565b61076360025461198b60085490565b849190612201565b60005b6007548110156110ff576119b78260078381548110610b4557610b45612684565b600101611996565b60008260001904841183021582026119d657600080fd5b5091020490565b6001600160a01b03811660009081526009602052604081206002015460ff16611a0857506001919050565b6001600160a01b038216600090815260096020526040902054611a4c907f00000000000000000000000000000000000000000000000000000000000000009061269a565b42101592915050565b6000600254600003611a65575090565b610763611a7160085490565b6002548491906119bf565b60007f8b73c3c69bb8fe3d512ecc4cf759cc79239f7b179b0ffacaa9a75d522b39400f6000604051611aae919061278e565b6040805191829003822060208301939093528101919091527fc89efdaa54c0f20c7adf612882df0950f5a951637e0307cdcb4c672f298b8bc660608201524660808201523060a082015260c00160405160208183030381529060405280519060200120905090565b6001600160a01b0381166000908152600a602052604090206001015460ff161580611b5757506001600160a01b038216600090815260036020526040902054155b15611b60575050565b6001600160a01b038082166000818152600a602090815260408083205494871683526009825280832093835260019093019052205480821115611cd6576001600160a01b038416600090815260036020526040812054611bcd90670de0b6b3a7640000610827858761257e565b90508015611cd4576001600160a01b0380861660009081526009602090815260408083209388168084526001909401909152908190208590555163a9059cbb60e01b815263a9059cbb90611c2790889085906004016126ad565b6020604051808303816000875af1158015611c46573d6000803e3d6000fd5b505050506040513d601f19601f82011682018060405250810190611c6a91906126c6565b611c865760405162461bcd60e51b8152600401610a76906126e8565b836001600160a01b0316856001600160a01b03167f0aa4d283470c904c551d18bb894d37e17674920f3261a7f854be501e25f421b783604051611ccb91815260200190565b60405180910390a35b505b50505050565b6001600160a01b03821660009081526003602052604081208054839290611d0490849061257e565b90915550506002805482900390556040518181526000906001600160a01b03841690600080516020612850833981519152906020015b60405180910390a35050565b6001600160a01b03811660009081526009602052604090206002015460ff16611d6c5750565b60005b6007548110156110ff57611d908260078381548110610b4557610b45612684565b600101611d6f565b8060026000828254611daa919061269a565b90915550506001600160a01b0382166000818152600360209081526040808320805486019055518481526000805160206128508339815191529101611d3a565b60005b6007548110156110ff57600060078281548110611e0c57611e0c612684565b60009182526020808320909101546001600160a01b03908116808452600a835260408085205492881685526009845280852091855260019182019093529190922091909155919091019050611ded565b6001600160a01b038216611eaa5760405162461bcd60e51b8152602060048201526015602482015274496e76616c696420746f6b656e206164647265737360581b6044820152606401610a76565b7f00000000000000000000000000000000000000000000000000000000000000006001600160a01b0316826001600160a01b031603611f395760405162461bcd60e51b815260206004820152602560248201527f43616e6e6f742061646420756e6465726c79696e672061737365742061732072604482015264195dd85c9960da1b6064820152608401610a76565b60008111611f895760405162461bcd60e51b815260206004820152601d60248201527f416d6f756e74206d7573742062652067726561746572207468616e20300000006044820152606401610a76565b600060025411611fd25760405162461bcd60e51b8152602060048201526014602482015273139bc81cda185c995cc81b5a5b9d1959081e595d60621b6044820152606401610a76565b6002548290600090611fef908490670de0b6b3a7640000906119bf565b6001600160a01b0385166000908152600a602052604090206001015490915060ff166120ad576007805460018082019092557fa66cc928b5edb82af9bd49922954155ab7b0942694bea4ce44661d9a8736c6880180546001600160a01b0319166001600160a01b0387169081179091556000818152600a6020526040808220808501805460ff191690951790945592849055915190917fce34593ca634648919e160816626a2dac47222f33d18bd1c49154fc50b929c1791a26120db565b6001600160a01b0384166000908152600a6020526040812080548392906120d590849061269a565b90915550505b6040516323b872dd60e01b81526001600160a01b038316906323b872dd9061210b90339030908890600401612711565b6020604051808303816000875af115801561212a573d6000803e3d6000fd5b505050506040513d601f19601f8201168201806040525081019061214e91906126c6565b61216a5760405162461bcd60e51b8152600401610a76906126e8565b836001600160a01b03167fac24935fd910bc682b5ccb1a07b718cadf8cf2f6d1404c4f3ddc3662dae40e29846040516121a591815260200190565b60405180910390a250505050565b60006002546000036121c3575090565b6107636121cf60085490565b600254849190612201565b60006002546000036121ea575090565b6107636002546121f960085490565b8491906119bf565b600082600019048411830215820261221857600080fd5b50910281810615159190040190565b60006020808352835180602085015260005b8181101561225557858101830151858201604001528201612239565b506000604082860101526040601f19601f8301168501019250505092915050565b80356001600160a01b038116811461228d57600080fd5b919050565b600080604083850312156122a557600080fd5b6122ae83612276565b946020939093013593505050565b6000602082840312156122ce57600080fd5b5035919050565b6000602082840312156122e757600080fd5b61188882612276565b6000806040838503121561230357600080fd5b61230c83612276565b915061231a60208401612276565b90509250929050565b60008060006060848603121561233857600080fd5b61234184612276565b925061234f60208501612276565b9150604084013590509250925092565b634e487b7160e01b600052604160045260246000fd5b6000602080838503121561238857600080fd5b823567ffffffffffffffff808211156123a057600080fd5b818501915085601f8301126123b457600080fd5b8135818111156123c6576123c661235f565b8060051b604051601f19603f830116810181811085821117156123eb576123eb61235f565b60405291825284820192508381018501918883111561240957600080fd5b938501935b8285101561242e5761241f85612276565b8452938501939285019261240e565b98975050505050505050565b6000806040838503121561244d57600080fd5b50508035926020909101359150565b6000806040838503121561246f57600080fd5b8235915061231a60208401612276565b60008060006060848603121561249457600080fd5b833592506124a460208501612276565b91506124b260408501612276565b90509250925092565b600080600080600080600060e0888a0312156124d657600080fd5b6124df88612276565b96506124ed60208901612276565b95506040880135945060608801359350608088013560ff8116811461251157600080fd5b9699959850939692959460a0840135945060c09093013592915050565b600181811c9082168061254257607f821691505b60208210810361256257634e487b7160e01b600052602260045260246000fd5b50919050565b634e487b7160e01b600052601160045260246000fd5b8181038181111561076357610763612568565b600181815b808511156125cc5781600019048211156125b2576125b2612568565b808516156125bf57918102915b93841c9390800290612596565b509250929050565b6000826125e357506001610763565b816125f057506000610763565b816001811461260657600281146126105761262c565b6001915050610763565b60ff84111561262157612621612568565b50506001821b610763565b5060208310610133831016604e8410600b841016171561264f575081810a610763565b6126598383612591565b806000190482111561266d5761266d612568565b029392505050565b600061188860ff8416836125d4565b634e487b7160e01b600052603260045260246000fd5b8082018082111561076357610763612568565b6001600160a01b03929092168252602082015260400190565b6000602082840312156126d857600080fd5b8151801515811461188857600080fd5b6020808252600f908201526e151c985b9cd9995c8819985a5b1959608a1b604082015260600190565b6001600160a01b039384168152919092166020820152604081019190915260600190565b6020808252600e908201526d139bdd08185d5d1a1bdc9a5e995960921b604082015260600190565b602080825260179082015276105cdcd95d1cc8185c99481cdd1a5b1b081b1bd8dad959604a1b604082015260600190565b60008083548160018260011c915060018316806127ac57607f831692505b602080841082036127cb57634e487b7160e01b86526022600452602486fd5b8180156127df57600181146127f457612821565b60ff1986168952841515850289019650612821565b60008a81526020902060005b868110156128195781548b820152908501908301612800565b505084890196505b50949897505050505050505056fef341246adaac6f497bc2a656f546ab9e182111d630394f0c57c710a59a2cb567ddf252ad1be2c89b69c2b068fc378daa952ba7f163c4a11628f55a4df523b3efa2646970667358221220866ce5d027fb8b338df361800e516931e3bee901e0d3542deaed3dd3e54b186464736f6c63430008180033a26469706673582212202fdea2c03c5252c68913ee40243ca8bbdc92f0c614e0b242b56d12f4c204a27564736f6c63430008180033",
  "linkReferences": {},
  "deployedLinkReferences": {}
}