{
  "_format": "hh-sol-artifact-1",
  "contractName": "RewardsVault4626Factory",
  "sourceName": "contracts/vaultV2/factory/RewardsVault4626Factory.sol",
  "abi": [
    {
      "inputs": [],
      "stateMutability": "nonpayable",
      "type": "constructor"
    },
    {
      "anonymous": false,
      "inputs": [
        {
          "indexed": true,
          "internalType": "address",
          "name": "previousOwner",
          "type": "address"
        },
        {
          "indexed": true,
          "internalType": "address",
          "name": "newOwner",
          "type": "address"
        }
      ],
      "name": "OwnershipTransferred",
      "type": "event"
    },
    {
      "anonymous": false,
      "inputs": [
        {
          "indexed": true,
          "internalType": "address",
          "name": "vault",
          "type": "address"
        },
        {
          "indexed": true,
          "internalType": "address",
          "name": "asset",
          "type": "address"
        },
        {
          "indexed": true,
          "internalType": "address",
          "name": "deployer",
          "type": "address"
        },
        {
          "indexed": false,
          "internalType": "string",
          "name": "name",
          "type": "string"
        },
        {
          "indexed": false,
          "internalType": "string",
          "name": "symbol",
          "type": "string"
        },
        {
          "indexed": false,
          "internalType": "uint8",
          "name": "decimals",
          "type": "uint8"
        },
        {
          "indexed": false,
          "internalType": "uint256",
          "name": "lockPeriod",
          "type": "uint256"
        }
      ],
      "name": "VaultCreated",
      "type": "event"
    },
    {
      "inputs": [
        {
          "components": [
            {
              "internalType": "contract IERC20",
              "name": "asset",
              "type": "address"
            },
            {
              "internalType": "string",
              "name": "name",
              "type": "string"
            },
            {
              "internalType": "string",
              "name": "symbol",
              "type": "string"
            },
            {
              "internalType": "uint8",
              "name": "decimals",
              "type": "uint8"
            },
            {
              "internalType": "uint256",
              "name": "lockPeriod",
              "type": "uint256"
            }
          ],
          "internalType": "struct RewardsVault4626Factory.VaultCreationParams",
          "name": "params",
          "type": "tuple"
        }
      ],
      "name": "createVault",
      "outputs": [
        {
          "internalType": "address",
          "name": "vault",
          "type": "address"
        }
      ],
      "stateMutability": "nonpayable",
      "type": "function"
    },
    {
      "inputs": [
        {
          "internalType": "contract IERC20",
          "name": "asset",
          "type": "address"
        },
        {
          "internalType": "string",
          "name": "name",
          "type": "string"
        },
        {
          "internalType": "string",
          "name": "symbol",
          "type": "string"
        },
        {
          "internalType": "uint8",
          "name": "decimals",
          "type": "uint8"
        },
        {
          "internalType": "uint256",
          "name": "lockPeriod",
          "type": "uint256"
        }
      ],
      "name": "createVaultWithParams",
      "outputs": [
        {
          "internalType": "address",
          "name": "vault",
          "type": "address"
        }
      ],
      "stateMutability": "nonpayable",
      "type": "function"
    },
    {
      "inputs": [
        {
          "internalType": "uint256",
          "name": "",
          "type": "uint256"
        }
      ],
      "name": "deployedVaults",
      "outputs": [
        {
          "internalType": "address",
          "name": "",
          "type": "address"
        }
      ],
      "stateMutability": "view",
      "type": "function"
    },
    {
      "inputs": [],
      "name": "getAllVaults",
      "outputs": [
        {
          "internalType": "address[]",
          "name": "",
          "type": "address[]"
        }
      ],
      "stateMutability": "view",
      "type": "function"
    },
    {
      "inputs": [],
      "name": "getFactoryStats",
      "outputs": [
        {
          "internalType": "uint256",
          "name": "totalVaults",
          "type": "uint256"
        },
        {
          "internalType": "uint256",
          "name": "uniqueAssets",
          "type": "uint256"
        },
        {
          "internalType": "uint256",
          "name": "totalTVL",
          "type": "uint256"
        }
      ],
      "stateMutability": "view",
      "type": "function"
    },
    {
      "inputs": [],
      "name": "getVaultCount",
      "outputs": [
        {
          "internalType": "uint256",
          "name": "",
          "type": "uint256"
        }
      ],
      "stateMutability": "view",
      "type": "function"
    },
    {
      "inputs": [
        {
          "internalType": "address",
          "name": "vault",
          "type": "address"
        }
      ],
      "name": "getVaultInfo",
      "outputs": [
        {
          "components": [
            {
              "internalType": "address",
              "name": "asset",
              "type": "address"
            },
            {
              "internalType": "string",
              "name": "name",
              "type": "string"
            },
            {
              "internalType": "string",
              "name": "symbol",
              "type": "string"
            },
            {
              "internalType": "uint8",
              "name": "decimals",
              "type": "uint8"
            },
            {
              "internalType": "uint256",
              "name": "lockPeriod",
              "type": "uint256"
            },
            {
              "internalType": "address",
              "name": "deployer",
              "type": "address"
            },
            {
              "internalType": "uint256",
              "name": "deploymentTime",
              "type": "uint256"
            },
            {
              "internalType": "bool",
              "name": "exists",
              "type": "bool"
            }
          ],
          "internalType": "struct RewardsVault4626Factory.VaultInfo",
          "name": "info",
          "type": "tuple"
        }
      ],
      "stateMutability": "view",
      "type": "function"
    },
    {
      "inputs": [
        {
          "internalType": "address",
          "name": "asset",
          "type": "address"
        }
      ],
      "name": "getVaultsByAsset",
      "outputs": [
        {
          "internalType": "address[]",
          "name": "",
          "type": "address[]"
        }
      ],
      "stateMutability": "view",
      "type": "function"
    },
    {
      "inputs": [
        {
          "internalType": "address",
          "name": "deployer",
          "type": "address"
        }
      ],
      "name": "getVaultsByDeployer",
      "outputs": [
        {
          "internalType": "address[]",
          "name": "vaults",
          "type": "address[]"
        }
      ],
      "stateMutability": "view",
      "type": "function"
    },
    {
      "inputs": [
        {
          "internalType": "uint256",
          "name": "offset",
          "type": "uint256"
        },
        {
          "internalType": "uint256",
          "name": "limit",
          "type": "uint256"
        }
      ],
      "name": "getVaultsPaginated",
      "outputs": [
        {
          "internalType": "address[]",
          "name": "vaults",
          "type": "address[]"
        },
        {
          "internalType": "uint256",
          "name": "total",
          "type": "uint256"
        }
      ],
      "stateMutability": "view",
      "type": "function"
    },
    {
      "inputs": [
        {
          "internalType": "address",
          "name": "",
          "type": "address"
        }
      ],
      "name": "isDeployedVault",
      "outputs": [
        {
          "internalType": "bool",
          "name": "",
          "type": "bool"
        }
      ],
      "stateMutability": "view",
      "type": "function"
    },
    {
      "inputs": [],
      "name": "owner",
      "outputs": [
        {
          "internalType": "address",
          "name": "",
          "type": "address"
        }
      ],
      "stateMutability": "view",
      "type": "function"
    },
    {
      "inputs": [
        {
          "internalType": "address",
          "name": "vault",
          "type": "address"
        }
      ],
      "name": "supportsInterface",
      "outputs": [
        {
          "internalType": "bool",
          "name": "",
          "type": "bool"
        }
      ],
      "stateMutability": "view",
      "type": "function"
    },
    {
      "inputs": [
        {
          "internalType": "address",
          "name": "newOwner",
          "type": "address"
        }
      ],
      "name": "transferOwnership",
      "outputs": [],
      "stateMutability": "nonpayable",
      "type": "function"
    },
    {
      "inputs": [
        {
          "internalType": "address",
          "name": "vault",
          "type": "address"
        },
        {
          "internalType": "address",
          "name": "newOwner",
          "type": "address"
        }
      ],
      "name": "transferVaultOwnership",
      "outputs": [],
      "stateMutability": "nonpayable",
      "type": "function"
    },
    {
      "inputs": [
        {
          "internalType": "address",
          "name": "vault",
          "type": "address"
        },
        {
          "internalType": "bool",
          "name": "status",
          "type": "bool"
        }
      ],
      "name": "updateVaultTracking",
      "outputs": [],
      "stateMutability": "nonpayable",
      "type": "function"
    },
    {
      "inputs": [
        {
          "internalType": "address",
          "name": "",
          "type": "address"
        }
      ],
      "name": "vaultInfo",
      "outputs": [
        {
          "internalType": "address",
          "name": "asset",
          "type": "address"
        },
        {
          "internalType": "string",
          "name": "name",
          "type": "string"
        },
        {
          "internalType": "string",
          "name": "symbol",
          "type": "string"
        },
        {
          "internalType": "uint8",
          "name": "decimals",
          "type": "uint8"
        },
        {
          "internalType": "uint256",
          "name": "lockPeriod",
          "type": "uint256"
        },
        {
          "internalType": "address",
          "name": "deployer",
          "type": "address"
        },
        {
          "internalType": "uint256",
          "name": "deploymentTime",
          "type": "uint256"
        },
        {
          "internalType": "bool",
          "name": "exists",
          "type": "bool"
        }
      ],
      "stateMutability": "view",
      "type": "function"
    },
    {
      "inputs": [
        {
          "internalType": "address",
          "name": "",
          "type": "address"
        },
        {
          "internalType": "uint256",
          "name": "",
          "type": "uint256"
        }
      ],
      "name": "vaultsByAsset",
      "outputs": [
        {
          "internalType": "address",
          "name": "",
          "type": "address"
        }
      ],
      "stateMutability": "view",
      "type": "function"
    }
  ],
  "bytecode": "0x608060405234801561001057600080fd5b50600080546001600160a01b0319163390811782556040519091907f8be0079c531659141344cd1fd0a4f28419497f9722a3daafe3b4186f6b6457e0908290a3614d4e8061005f6000396000f3fe60806040523480156200001157600080fd5b50600436106200010b5760003560e01c80638da5cb5b116200009e5780638da5cb5b146200022957806390229af7146200023d5780639164359a146200026357806397331bf91462000290578063a26b2a17146200029a578063c922644514620002c0578063d5e1548514620002e6578063f2fde38b14620002fd578063fdc10daf146200031457600080fd5b8063068c6b1014620001105780630ac214df14620001295780630e5dee45146200015d57806310894052146200018457806317a45e9e14620001aa5780632e60163a14620001c1578063453131fa14620001e957806374d4e4911462000200578063790f9d661462000212575b600080fd5b62000127620001213660046200140a565b6200032b565b005b620001406200013a3660046200144c565b6200038c565b6040516001600160a01b0390911681526020015b60405180910390f35b620001746200016e36600462001466565b620003b7565b60405162000154929190620014d0565b6200019b62000195366004620014f4565b620004cc565b6040516200015491906200151b565b62000140620001bb36600462001617565b62000544565b620001d8620001d2366004620014f4565b62000592565b604051901515815260200162000154565b62000140620001fa366004620016b0565b6200060c565b60015460405190815260200162000154565b6200014062000223366004620016df565b62000645565b60005462000140906001600160a01b031681565b620002546200024e366004620014f4565b62000658565b604051620001549190620017f7565b6200027a62000274366004620014f4565b620008ac565b60405162000154989796959493929190620018b1565b6200019b62000a29565b620001d8620002ab366004620014f4565b60046020526000908152604090205460ff1681565b620002ca62000a8d565b6040805193845260208401929092529082015260600162000154565b6200019b620002f7366004620014f4565b62000c7a565b620001276200030e366004620014f4565b62000e2e565b620001276200032536600462001922565b62000f29565b6000546001600160a01b03163314620003615760405162461bcd60e51b8152600401620003589062001955565b60405180910390fd5b6001600160a01b03919091166000908152600460205260409020805460ff1916911515919091179055565b600181815481106200039d57600080fd5b6000918252602090912001546001600160a01b0316905081565b600154606090808410620003dc576040805160008152602081019091529150620004c5565b6000620003ea8486620019b2565b905081811115620003f85750805b620004048582620019c8565b6001600160401b038111156200041e576200041e62001530565b60405190808252806020026020018201604052801562000448578160200160208202803683370190505b509250845b81811015620004c257600181815481106200046c576200046c620019de565b6000918252602090912001546001600160a01b0316846200048e8884620019c8565b81518110620004a157620004a1620019de565b6001600160a01b03909216602092830291909101909101526001016200044d565b50505b9250929050565b6001600160a01b0381166000908152600360209081526040918290208054835181840281018401909452808452606093928301828280156200053857602002820191906000526020600020905b81546001600160a01b0316815260019091019060200180831162000519575b50505050509050919050565b6000806040518060a00160405280886001600160a01b031681526020018781526020018681526020018560ff168152602001848152509050620005878162000ff5565b979650505050505050565b6000816001600160a01b03166338d52e0f6040518163ffffffff1660e01b8152600401602060405180830381865afa925050508015620005f1575060408051601f3d908101601f19168201909252620005ee91810190620019f4565b60015b620005fe57506000919050565b50600192915050565b919050565b600360205281600052604060002081815481106200062957600080fd5b6000918252602090912001546001600160a01b03169150829050565b6000620006528262000ff5565b92915050565b620006b860405180610100016040528060006001600160a01b031681526020016060815260200160608152602001600060ff1681526020016000815260200160006001600160a01b03168152602001600081526020016000151581525090565b6001600160a01b038216600090815260046020526040902054829060ff16620006f55760405162461bcd60e51b8152600401620003589062001a14565b6001600160a01b038084166000908152600260209081526040918290208251610100810190935280549093168252600183018054929392918401916200073b9062001a6a565b80601f0160208091040260200160405190810160405280929190818152602001828054620007699062001a6a565b8015620007ba5780601f106200078e57610100808354040283529160200191620007ba565b820191906000526020600020905b8154815290600101906020018083116200079c57829003601f168201915b50505050508152602001600282018054620007d59062001a6a565b80601f0160208091040260200160405190810160405280929190818152602001828054620008039062001a6a565b8015620008545780601f10620008285761010080835404028352916020019162000854565b820191906000526020600020905b8154815290600101906020018083116200083657829003601f168201915b5050509183525050600382015460ff90811660208301526004830154604083015260058301546001600160a01b0316606083015260068301546080830152600790920154909116151560a09091015291505b50919050565b600260205260009081526040902080546001820180546001600160a01b039092169291620008da9062001a6a565b80601f0160208091040260200160405190810160405280929190818152602001828054620009089062001a6a565b8015620009595780601f106200092d5761010080835404028352916020019162000959565b820191906000526020600020905b8154815290600101906020018083116200093b57829003601f168201915b505050505090806002018054620009709062001a6a565b80601f01602080910402602001604051908101604052809291908181526020018280546200099e9062001a6a565b8015620009ef5780601f10620009c357610100808354040283529160200191620009ef565b820191906000526020600020905b815481529060010190602001808311620009d157829003601f168201915b5050506003840154600485015460058601546006870154600790970154959660ff938416969295506001600160a01b039091169350911688565b6060600180548060200260200160405190810160405280929190818152602001828054801562000a8357602002820191906000526020600020905b81546001600160a01b0316815260019091019060200180831162000a64575b5050505050905090565b60015460008080836001600160401b0381111562000aaf5762000aaf62001530565b60405190808252806020026020018201604052801562000ad9578160200160208202803683370190505b5090506000805b8581101562000c71576000600260006001848154811062000b055762000b05620019de565b60009182526020808320909101546001600160a01b0390811684529083019390935260409091018120549091169150805b8481101562000b8857826001600160a01b031686828151811062000b5e5762000b5e620019de565b60200260200101516001600160a01b03160362000b7f576001915062000b88565b60010162000b36565b508062000bcd578185858151811062000ba55762000ba5620019de565b6001600160a01b03909216602092830291909101909101528362000bc98162001aa0565b9450505b6001838154811062000be35762000be3620019de565b6000918252602091829020015460408051634bd9fe5560e11b815290516001600160a01b03909216926397b3fcaa926004808401938290030181865afa92505050801562000c50575060408051601f3d908101601f1916820190925262000c4d9181019062001abc565b60015b1562000c665762000c628188620019b2565b9650505b505060010162000ae0565b50939491925050565b60606000805b60015481101562000cfc57836001600160a01b0316600260006001848154811062000caf5762000caf620019de565b60009182526020808320909101546001600160a01b039081168452908301939093526040909101902060050154160362000cf3578162000cef8162001aa0565b9250505b60010162000c80565b50806001600160401b0381111562000d185762000d1862001530565b60405190808252806020026020018201604052801562000d42578160200160208202803683370190505b5091506000805b60015481101562000e2657846001600160a01b0316600260006001848154811062000d785762000d78620019de565b60009182526020808320909101546001600160a01b039081168452908301939093526040909101902060050154160362000e1d576001818154811062000dc25762000dc2620019de565b9060005260206000200160009054906101000a90046001600160a01b031684838151811062000df55762000df5620019de565b6001600160a01b03909216602092830291909101909101528162000e198162001aa0565b9250505b60010162000d49565b505050919050565b6000546001600160a01b0316331462000e5b5760405162461bcd60e51b8152600401620003589062001955565b6001600160a01b03811662000ece5760405162461bcd60e51b815260206004820152603260248201527f526577617264735661756c7434363236466163746f72793a204e6577206f776e6044820152716572206973207a65726f206164647265737360701b606482015260840162000358565b600080546040516001600160a01b03808516939216917f8be0079c531659141344cd1fd0a4f28419497f9722a3daafe3b4186f6b6457e091a3600080546001600160a01b0319166001600160a01b0392909216919091179055565b6000546001600160a01b0316331462000f565760405162461bcd60e51b8152600401620003589062001955565b6001600160a01b038216600090815260046020526040902054829060ff1662000f935760405162461bcd60e51b8152600401620003589062001a14565b60405163f2fde38b60e01b81526001600160a01b03838116600483015284169063f2fde38b90602401600060405180830381600087803b15801562000fd757600080fd5b505af115801562000fec573d6000803e3d6000fd5b50505050505050565b80516000906001600160a01b0316620010605760405162461bcd60e51b815260206004820152602660248201527f526577617264735661756c7434363236466163746f72793a20496e76616c696460448201526508185cdcd95d60d21b606482015260840162000358565b600082602001515111620010c35760405162461bcd60e51b815260206004820152602360248201527f526577617264735661756c7434363236466163746f72793a20456d707479206e604482015262616d6560e81b606482015260840162000358565b600082604001515111620011285760405162461bcd60e51b815260206004820152602560248201527f526577617264735661756c7434363236466163746f72793a20456d70747920736044820152641e5b589bdb60da1b606482015260840162000358565b6000826060015160ff1611620011935760405162461bcd60e51b815260206004820152602960248201527f526577617264735661756c7434363236466163746f72793a20496e76616c696460448201526820646563696d616c7360b81b606482015260840162000358565b8160000151826020015183604001518460600151856080015133604051620011bb90620013e3565b620011cc9695949392919062001ad6565b604051809103906000f080158015620011e9573d6000803e3d6000fd5b50604080516101008101825284516001600160a01b039081168252602080870151818401908152878501518486015260608089015160ff1690850152608080890151908501523360a08501524260c0850152600160e085018190528684166000908152600290935294909120835181546001600160a01b0319169316929092178255519394509092909182019062001282908262001b87565b506040820151600282019062001299908262001b87565b506060828101516003808401805460ff90931660ff1993841617905560808086015160048087019190915560a08701516005870180546001600160a01b039283166001600160a01b03199182161790915560c0890151600689015560e090980151600790970180549715159786169790971790965560018054808201825560008281527fb10e2d527612073b26eecdfd717e6a320cf44b4afac2b0732d9fcbe2b7fa0cf690910180548b8a16908b1681179091558b51891682526020958652604080832080548086018255908452878420018054909b168217909a5580825292855288902080549095161790935587519188015186890151948901519189015196513397939096169593947fb56d1f046ba0261d524aea3da511dd0bb841dc80a29618cf9fbceda9fd6494d594620013d694929391929062001c53565b60405180910390a4919050565b6130858062001c9483390190565b6001600160a01b03811681146200140757600080fd5b50565b600080604083850312156200141e57600080fd5b82356200142b81620013f1565b9150602083013580151581146200144157600080fd5b809150509250929050565b6000602082840312156200145f57600080fd5b5035919050565b600080604083850312156200147a57600080fd5b50508035926020909101359150565b60008151808452602080850194506020840160005b83811015620014c55781516001600160a01b0316875295820195908201906001016200149e565b509495945050505050565b604081526000620014e5604083018562001489565b90508260208301529392505050565b6000602082840312156200150757600080fd5b81356200151481620013f1565b9392505050565b60208152600062001514602083018462001489565b634e487b7160e01b600052604160045260246000fd5b60405160a081016001600160401b03811182821017156200156b576200156b62001530565b60405290565b600082601f8301126200158357600080fd5b81356001600160401b0380821115620015a057620015a062001530565b604051601f8301601f19908116603f01168101908282118183101715620015cb57620015cb62001530565b81604052838152866020858801011115620015e557600080fd5b836020870160208301376000602085830101528094505050505092915050565b803560ff811681146200060757600080fd5b600080600080600060a086880312156200163057600080fd5b85356200163d81620013f1565b945060208601356001600160401b03808211156200165a57600080fd5b6200166889838a0162001571565b955060408801359150808211156200167f57600080fd5b506200168e8882890162001571565b9350506200169f6060870162001605565b949793965091946080013592915050565b60008060408385031215620016c457600080fd5b8235620016d181620013f1565b946020939093013593505050565b600060208284031215620016f257600080fd5b81356001600160401b03808211156200170a57600080fd5b9083019060a082860312156200171f57600080fd5b6200172962001546565b82356200173681620013f1565b81526020830135828111156200174b57600080fd5b620017598782860162001571565b6020830152506040830135828111156200177257600080fd5b620017808782860162001571565b604083015250620017946060840162001605565b60608201526080830135608082015280935050505092915050565b6000815180845260005b81811015620017d757602081850181015186830182015201620017b9565b506000602082860101526020601f19601f83011685010191505092915050565b602080825282516001600160a01b03168282015282015161010060408301819052600091906200182c610120850183620017af565b91506040850151601f198584030160608601526200184b8382620017af565b925050606085015162001863608086018260ff169052565b50608085015160a085015260a08501516200188960c08601826001600160a01b03169052565b5060c085015160e085015260e0850151620018a78286018215159052565b5090949350505050565b6001600160a01b03898116825261010060208301819052600091620018d98483018c620017af565b91508382036040850152620018ef828b620017af565b60ff999099166060850152608084019790975250509290931660a083015260c082015290151560e0909101529392505050565b600080604083850312156200193657600080fd5b82356200194381620013f1565b915060208301356200144181620013f1565b60208082526027908201527f526577617264735661756c7434363236466163746f72793a204e6f74206175746040820152661a1bdc9a5e995960ca1b606082015260800190565b634e487b7160e01b600052601160045260246000fd5b808201808211156200065257620006526200199c565b818103818111156200065257620006526200199c565b634e487b7160e01b600052603260045260246000fd5b60006020828403121562001a0757600080fd5b81516200151481620013f1565b60208082526036908201527f526577617264735661756c7434363236466163746f72793a205661756c74206e6040820152756f74206465706c6f79656420627920666163746f727960501b606082015260800190565b600181811c9082168062001a7f57607f821691505b602082108103620008a657634e487b7160e01b600052602260045260246000fd5b60006001820162001ab55762001ab56200199c565b5060010190565b60006020828403121562001acf57600080fd5b5051919050565b600060018060a01b03808916835260c0602084015262001afa60c0840189620017af565b838103604085015262001b0e8189620017af565b60ff97909716606085015250608083019490945250911660a0909101529392505050565b601f82111562001b82576000816000526020600020601f850160051c8101602086101562001b5d5750805b601f850160051c820191505b8181101562001b7e5782815560010162001b69565b5050505b505050565b81516001600160401b0381111562001ba35762001ba362001530565b62001bbb8162001bb4845462001a6a565b8462001b32565b602080601f83116001811462001bf3576000841562001bda5750858301515b600019600386901b1c1916600185901b17855562001b7e565b600085815260208120601f198616915b8281101562001c245788860151825594840194600190910190840162001c03565b508582101562001c435787850151600019600388901b60f8161c191681555b5050505050600190811b01905550565b60808152600062001c686080830187620017af565b828103602084015262001c7c8187620017af565b60ff9590951660408401525050606001529291505056fe6101206040523480156200001257600080fd5b506040516200308538038062003085833981016040819052620000359162000223565b84848460006200004684826200036d565b5060016200005583826200036d565b5060ff81166080524660a0526200006b620000a6565b60c0525050506001600160a01b0395861660e05261010091909152600680546001600160a01b031916919095161790935550620004b7915050565b60007f8b73c3c69bb8fe3d512ecc4cf759cc79239f7b179b0ffacaa9a75d522b39400f6000604051620000da919062000439565b6040805191829003822060208301939093528101919091527fc89efdaa54c0f20c7adf612882df0950f5a951637e0307cdcb4c672f298b8bc660608201524660808201523060a082015260c00160405160208183030381529060405280519060200120905090565b6001600160a01b03811681146200015857600080fd5b50565b634e487b7160e01b600052604160045260246000fd5b600082601f8301126200018357600080fd5b81516001600160401b0380821115620001a057620001a06200015b565b604051601f8301601f19908116603f01168101908282118183101715620001cb57620001cb6200015b565b8160405283815260209250866020858801011115620001e957600080fd5b600091505b838210156200020d5785820183015181830184015290820190620001ee565b6000602085830101528094505050505092915050565b60008060008060008060c087890312156200023d57600080fd5b86516200024a8162000142565b60208801519096506001600160401b03808211156200026857600080fd5b620002768a838b0162000171565b965060408901519150808211156200028d57600080fd5b506200029c89828a0162000171565b945050606087015160ff81168114620002b457600080fd5b608088015160a08901519194509250620002ce8162000142565b809150509295509295509295565b600181811c90821680620002f157607f821691505b6020821081036200031257634e487b7160e01b600052602260045260246000fd5b50919050565b601f82111562000368576000816000526020600020601f850160051c81016020861015620003435750805b601f850160051c820191505b8181101562000364578281556001016200034f565b5050505b505050565b81516001600160401b038111156200038957620003896200015b565b620003a1816200039a8454620002dc565b8462000318565b602080601f831160018114620003d95760008415620003c05750858301515b600019600386901b1c1916600185901b17855562000364565b600085815260208120601f198616915b828110156200040a57888601518255948401946001909101908401620003e9565b5085821015620004295787850151600019600388901b60f8161c191681555b5050505050600190811b01905550565b60008083546200044981620002dc565b600182811680156200046457600181146200047a57620004ab565b60ff1984168752821515830287019450620004ab565b8760005260208060002060005b85811015620004a25781548a82015290840190820162000487565b50505082870194505b50929695505050505050565b60805160a05160c05160e05161010051612b43620005426000396000818161041901528181610cb301528181611a610152611c410152600081816103da01528181610bd901528181610d9201528181610f8e015281816112c4015281816114b801526120c6015260006109de015260006109ae015260008181610391015261097a0152612b436000f3fe608060405234801561001057600080fd5b506004361061027f5760003560e01c806370a082311161015c578063b460af94116100ce578063d505accf11610087578063d505accf14610610578063d905777e14610623578063dd62ed3e14610636578063e231dc2714610661578063ef8b30f714610674578063f2fde38b1461068757600080fd5b8063b460af941461058c578063ba0876521461059f578063c63d75b61461043b578063c75ebb82146105b2578063cbecf6b5146105d3578063ce96cb77146105fd57600080fd5b806394bf804d1161012057806394bf804d1461053057806395d89b411461054357806397b3fcaa1461054b5780639feb8f5014610553578063a9059cbb14610566578063b3d7f6b91461057957600080fd5b806370a08231146104b75780637bb7bed1146104d75780637ecebe00146104ea5780638da5cb5b1461050a578063929ec5371461051d57600080fd5b80632c62fa10116101f55780633fd8b02f116101b95780633fd8b02f14610414578063402d267d1461043b5780634cdad5061461045057806357600c4a146104635780635bfadb24146104765780636e553f65146104a457600080fd5b80632c62fa1014610379578063313ce5671461038c57806335d16e17146103c55780633644e515146103cd57806338d52e0f146103d557600080fd5b806318160ddd1161024757806318160ddd146102f05780631959a002146102f957806321e91dea1461033857806323b872dd1461034b5780632521cdd81461035e5780632bbf532a1461036657600080fd5b806301e1d1141461028457806306fdde031461029b578063095ea7b3146102b05780630a28a477146102d35780630b83a727146102e6575b600080fd5b6008545b6040519081526020015b60405180910390f35b6102a361069a565b6040516102929190612441565b6102c36102be3660046124ac565b610728565b6040519015158152602001610292565b6102886102e13660046124d6565b610795565b6102ee6107a0565b005b61028860025481565b6103236103073660046124ef565b6009602052600090815260409020805460029091015460ff1682565b60408051928352901515602083015201610292565b61028861034636600461250a565b6107ab565b6102c361035936600461253d565b610863565b600754610288565b6102c36103743660046124ef565b610943565b6102886103873660046124ef565b61094e565b6103b37f000000000000000000000000000000000000000000000000000000000000000081565b60405160ff9091168152602001610292565b610288610970565b6102886109aa565b6103fc7f000000000000000000000000000000000000000000000000000000000000000081565b6040516001600160a01b039091168152602001610292565b6102887f000000000000000000000000000000000000000000000000000000000000000081565b6102886104493660046124ef565b5060001990565b61028861045e3660046124d6565b610a00565b61028861047136600461258f565b610a0b565b610489610484366004612654565b610a49565b60408051938452602084019290925290820152606001610292565b6102886104b2366004612676565b610cda565b6102886104c53660046124ef565b60036020526000908152604090205481565b6103fc6104e53660046124d6565b610eed565b6102886104f83660046124ef565b60056020526000908152604090205481565b6006546103fc906001600160a01b031681565b61028861052b3660046124ef565b610f17565b61028861053e366004612676565b610f22565b6102a36110df565b6102886110ec565b6102ee6105613660046124ac565b6110f7565b6102c36105743660046124ac565b61112f565b6102886105873660046124d6565b611195565b61028861059a366004612699565b6111a0565b6102886105ad366004612699565b611396565b6105c56105c03660046124ef565b61157f565b6040516102929291906126d5565b6103236105e13660046124ef565b600a602052600090815260409020805460019091015460ff1682565b61028861060b3660046124ef565b61176d565b6102ee61061e366004612759565b6117a6565b6102886106313660046124ef565b6119e4565b61028861064436600461250a565b600460209081526000928352604080842090915290825290205481565b61028861066f3660046124ef565b611a17565b6102886106823660046124d6565b611aa9565b6102ee6106953660046124ef565b611ab4565b600080546106a7906127cc565b80601f01602080910402602001604051908101604052809291908181526020018280546106d3906127cc565b80156107205780601f106106f557610100808354040283529160200191610720565b820191906000526020600020905b81548152906001019060200180831161070357829003601f168201915b505050505081565b3360008181526004602090815260408083206001600160a01b038716808552925280832085905551919290917f8c5be1e5ebec7d5bd14f71427d1e84f3dd0314c0f7b2291e5b200ac8c7c3b925906107839086815260200190565b60405180910390a35060015b92915050565b600061078f82611b86565b6107a933611bad565b565b6001600160a01b0381166000908152600a602052604081206001015460ff1615806107ec57506001600160a01b038316600090815260036020526040902054155b156107f95750600061078f565b6001600160a01b038083166000818152600a6020908152604080832054948816808452600983528184209484526001909401825280832054938352600390915290205461085a90670de0b6b3a7640000610853848661281c565b9190611bd9565b95945050505050565b6001600160a01b038316600090815260046020908152604080832033845290915281205460001981146108bf5761089a838261281c565b6001600160a01b03861660009081526004602090815260408083203384529091529020555b6001600160a01b038516600090815260036020526040812080548592906108e790849061281c565b90915550506001600160a01b0380851660008181526003602052604090819020805487019055519091871690600080516020612aee833981519152906109309087815260200190565b60405180910390a3506001949350505050565b600061078f82611bf7565b6001600160a01b03811660009081526003602052604081205461078f90611c6f565b60006109a56109a07f0000000000000000000000000000000000000000000000000000000000000000600a612913565b611c6f565b905090565b60007f000000000000000000000000000000000000000000000000000000000000000046146109db576109a5611c96565b507f000000000000000000000000000000000000000000000000000000000000000090565b600061078f82611c6f565b6000805b8251811015610a4357610a3b33848381518110610a2e57610a2e612922565b6020026020010151611d30565b600101610a0f565b50505190565b336000908152600960205260408120600201548190819060ff16610aab5760405162461bcd60e51b81526020600482015260146024820152735573657220686173206e6f206465706f7369747360601b60448201526064015b60405180910390fd5b610ab433611bf7565b610b315760405162461bcd60e51b815260206004820152604260248201527f596f752063616e277420756e6c6f636b20796f757220746f6b656e206265636160448201527f75736520746865206c6f636b20706572696f64206973206e6f74207265616368606482015261195960f21b608482015260a401610aa2565b6000610b3e86600a612938565b600754909150811115610b5057506007545b855b81811015610b9357610b8b3360078381548110610b7157610b71612922565b6000918252602090912001546001600160a01b0316611d30565b600101610b52565b506000610b9f86610795565b9050610bab3382611ef6565b8560086000828254610bbd919061281c565b909155505060405163a9059cbb60e01b81526001600160a01b037f0000000000000000000000000000000000000000000000000000000000000000169063a9059cbb90610c109033908a9060040161294b565b6020604051808303816000875af1158015610c2f573d6000803e3d6000fd5b505050506040513d601f19601f82011682018060405250810190610c539190612964565b610c6f5760405162461bcd60e51b8152600401610aa290612986565b604080518781526020810183905233918291600080516020612ace833981519152910160405180910390a350503360009081526009602052604090205442969095507f0000000000000000000000000000000000000000000000000000000000000000945092505050565b6000808311610d1e5760405162461bcd60e51b815260206004820152601060248201526f043616e6e6f74206465706f73697420360841b6044820152606401610aa2565b6001600160a01b038216610d675760405162461bcd60e51b815260206004820152601060248201526f24b73b30b634b2103932b1b2b4bb32b960811b6044820152606401610aa2565b610d7083611aa9565b9050610d7b82611f60565b6040516323b872dd60e01b81526001600160a01b037f000000000000000000000000000000000000000000000000000000000000000016906323b872dd90610dcb903390309088906004016129af565b6020604051808303816000875af1158015610dea573d6000803e3d6000fd5b505050506040513d601f19601f82011682018060405250810190610e0e9190612964565b610e2a5760405162461bcd60e51b8152600401610aa290612986565b610e348282611fb2565b8260086000828254610e469190612938565b90915550506001600160a01b03821660009081526009602052604090206002015460ff16610ea0576001600160a01b0382166000908152600960205260409020428155600201805460ff19166001179055610ea082612004565b60408051848152602081018390526001600160a01b0384169133917fdcbc1c05240f31ff3ad067ef1ee35ce4997762752e3a095284754544f4c709d791015b60405180910390a392915050565b60078181548110610efd57600080fd5b6000918252602090912001546001600160a01b0316905081565b600061078f8261094e565b6000808311610f635760405162461bcd60e51b815260206004820152600d60248201526c043616e6e6f74206d696e74203609c1b6044820152606401610aa2565b610f6c83611195565b9050610f7782611f60565b6040516323b872dd60e01b81526001600160a01b037f000000000000000000000000000000000000000000000000000000000000000016906323b872dd90610fc7903390309086906004016129af565b6020604051808303816000875af1158015610fe6573d6000803e3d6000fd5b505050506040513d601f19601f8201168201806040525081019061100a9190612964565b6110265760405162461bcd60e51b8152600401610aa290612986565b6110308284611fb2565b80600860008282546110429190612938565b90915550506001600160a01b03821660009081526009602052604090206002015460ff1661109c576001600160a01b0382166000908152600960205260409020428155600201805460ff1916600117905561109c82612004565b60408051828152602081018590526001600160a01b0384169133917fdcbc1c05240f31ff3ad067ef1ee35ce4997762752e3a095284754544f4c709d79101610edf565b600180546106a7906127cc565b60006109a560085490565b6006546001600160a01b031633146111215760405162461bcd60e51b8152600401610aa2906129d3565b61112b8282612076565b5050565b3360009081526003602052604081208054839190839061115090849061281c565b90915550506001600160a01b03831660008181526003602052604090819020805485019055513390600080516020612aee833981519152906107839086815260200190565b600061078f826123cd565b60008084116111e55760405162461bcd60e51b8152602060048201526011602482015270043616e6e6f74207769746864726177203607c1b6044820152606401610aa2565b6111ee82611bf7565b61120a5760405162461bcd60e51b8152600401610aa2906129fb565b61121384610795565b9050336001600160a01b03831614611283576001600160a01b038216600090815260046020908152604080832033845290915290205460001981146112815761125c828261281c565b6001600160a01b03841660009081526004602090815260408083203384529091529020555b505b61128c82611bad565b6112968282611ef6565b83600860008282546112a8919061281c565b909155505060405163a9059cbb60e01b81526001600160a01b037f0000000000000000000000000000000000000000000000000000000000000000169063a9059cbb906112fb908690889060040161294b565b6020604051808303816000875af115801561131a573d6000803e3d6000fd5b505050506040513d601f19601f8201168201806040525081019061133e9190612964565b61135a5760405162461bcd60e51b8152600401610aa290612986565b60408051858152602081018390526001600160a01b038516913391600080516020612ace83398151915291015b60405180910390a39392505050565b60008084116113d95760405162461bcd60e51b815260206004820152600f60248201526e043616e6e6f742072656465656d203608c1b6044820152606401610aa2565b6113e282611bf7565b6113fe5760405162461bcd60e51b8152600401610aa2906129fb565b61140784610a00565b9050336001600160a01b03831614611477576001600160a01b0382166000908152600460209081526040808320338452909152902054600019811461147557611450858261281c565b6001600160a01b03841660009081526004602090815260408083203384529091529020555b505b61148082611bad565b61148a8285611ef6565b806008600082825461149c919061281c565b909155505060405163a9059cbb60e01b81526001600160a01b037f0000000000000000000000000000000000000000000000000000000000000000169063a9059cbb906114ef908690859060040161294b565b6020604051808303816000875af115801561150e573d6000803e3d6000fd5b505050506040513d601f19601f820116820180604052508101906115329190612964565b61154e5760405162461bcd60e51b8152600401610aa290612986565b60408051828152602081018690526001600160a01b038516913391600080516020612ace8339815191529101611387565b60075460609081908067ffffffffffffffff8111156115a0576115a0612579565b6040519080825280602002602001820160405280156115c9578160200160208202803683370190505b5092508067ffffffffffffffff8111156115e5576115e5612579565b60405190808252806020026020018201604052801561160e578160200160208202803683370190505b50915060005b818110156117665760006007828154811061163157611631612922565b9060005260206000200160009054906101000a90046001600160a01b031690508085838151811061166457611664612922565b6001600160a01b039283166020918202929092018101919091529082166000908152600a909152604090206001015460ff1615806116b857506001600160a01b038616600090815260036020526040902054155b156116e25760008483815181106116d1576116d1612922565b60200260200101818152505061175d565b6001600160a01b038082166000818152600a6020908152604080832054948b16808452600983528184209484526001909401825280832054938352600390915290205461173c90670de0b6b3a7640000610853848661281c565b86858151811061174e5761174e612922565b60200260200101818152505050505b50600101611614565b5050915091565b600061177882611bf7565b61178457506000919050565b6001600160a01b03821660009081526003602052604090205461078f90611c6f565b428410156117f05760405162461bcd60e51b815260206004820152601760248201527614115493525517d11150511312539157d1561412549151604a1b6044820152606401610aa2565b600060016117fc6109aa565b6001600160a01b038a811660008181526005602090815260409182902080546001810190915582517f6e71edae12b1b97f4d1f60370fef10105fa2faae0126114a169c64845d6126c98184015280840194909452938d166060840152608083018c905260a083019390935260c08083018b90528151808403909101815260e08301909152805192019190912061190160f01b6101008301526101028201929092526101228101919091526101420160408051601f198184030181528282528051602091820120600084529083018083525260ff871690820152606081018590526080810184905260a0016020604051602081039080840390855afa158015611908573d6000803e3d6000fd5b5050604051601f1901519150506001600160a01b0381161580159061193e5750876001600160a01b0316816001600160a01b0316145b61197b5760405162461bcd60e51b815260206004820152600e60248201526d24a72b20a624a22fa9a4a3a722a960911b6044820152606401610aa2565b6001600160a01b0390811660009081526004602090815260408083208a8516808552908352928190208990555188815291928a16917f8c5be1e5ebec7d5bd14f71427d1e84f3dd0314c0f7b2291e5b200ac8c7c3b925910160405180910390a350505050505050565b60006119ef82611bf7565b6119fb57506000919050565b506001600160a01b031660009081526003602052604090205490565b6001600160a01b03811660009081526009602052604081206002015460ff16611a4257506000919050565b6001600160a01b038216600090815260096020526040812054611a86907f000000000000000000000000000000000000000000000000000000000000000090612938565b9050804210611a985750600092915050565b611aa2428261281c565b9392505050565b600061078f826123f4565b6006546001600160a01b03163314611ade5760405162461bcd60e51b8152600401610aa2906129d3565b6001600160a01b038116611b345760405162461bcd60e51b815260206004820181905260248201527f4e6577206f776e65722063616e6e6f74206265207a65726f20616464726573736044820152606401610aa2565b600680546001600160a01b038381166001600160a01b0319831681179093556040519116919082907f8be0079c531659141344cd1fd0a4f28419497f9722a3daafe3b4186f6b6457e090600090a35050565b6000600254600003611b96575090565b61078f600254611ba560085490565b84919061241b565b60005b60075481101561112b57611bd18260078381548110610b7157610b71612922565b600101611bb0565b6000826000190484118302158202611bf057600080fd5b5091020490565b6001600160a01b03811660009081526009602052604081206002015460ff16611c2257506001919050565b6001600160a01b038216600090815260096020526040902054611c66907f000000000000000000000000000000000000000000000000000000000000000090612938565b42101592915050565b6000600254600003611c7f575090565b61078f611c8b60085490565b600254849190611bd9565b60007f8b73c3c69bb8fe3d512ecc4cf759cc79239f7b179b0ffacaa9a75d522b39400f6000604051611cc89190612a2c565b6040805191829003822060208301939093528101919091527fc89efdaa54c0f20c7adf612882df0950f5a951637e0307cdcb4c672f298b8bc660608201524660808201523060a082015260c00160405160208183030381529060405280519060200120905090565b6001600160a01b0381166000908152600a602052604090206001015460ff161580611d7157506001600160a01b038216600090815260036020526040902054155b15611d7a575050565b6001600160a01b038082166000818152600a602090815260408083205494871683526009825280832093835260019093019052205480821115611ef0576001600160a01b038416600090815260036020526040812054611de790670de0b6b3a7640000610853858761281c565b90508015611eee576001600160a01b0380861660009081526009602090815260408083209388168084526001909401909152908190208590555163a9059cbb60e01b815263a9059cbb90611e41908890859060040161294b565b6020604051808303816000875af1158015611e60573d6000803e3d6000fd5b505050506040513d601f19601f82011682018060405250810190611e849190612964565b611ea05760405162461bcd60e51b8152600401610aa290612986565b836001600160a01b0316856001600160a01b03167f0aa4d283470c904c551d18bb894d37e17674920f3261a7f854be501e25f421b783604051611ee591815260200190565b60405180910390a35b505b50505050565b6001600160a01b03821660009081526003602052604081208054839290611f1e90849061281c565b90915550506002805482900390556040518181526000906001600160a01b03841690600080516020612aee833981519152906020015b60405180910390a35050565b6001600160a01b03811660009081526009602052604090206002015460ff16611f865750565b60005b60075481101561112b57611faa8260078381548110610b7157610b71612922565b600101611f89565b8060026000828254611fc49190612938565b90915550506001600160a01b038216600081815260036020908152604080832080548601905551848152600080516020612aee8339815191529101611f54565b60005b60075481101561112b5760006007828154811061202657612026612922565b60009182526020808320909101546001600160a01b03908116808452600a835260408085205492881685526009845280852091855260019182019093529190922091909155919091019050612007565b6001600160a01b0382166120c45760405162461bcd60e51b8152602060048201526015602482015274496e76616c696420746f6b656e206164647265737360581b6044820152606401610aa2565b7f00000000000000000000000000000000000000000000000000000000000000006001600160a01b0316826001600160a01b0316036121535760405162461bcd60e51b815260206004820152602560248201527f43616e6e6f742061646420756e6465726c79696e672061737365742061732072604482015264195dd85c9960da1b6064820152608401610aa2565b600081116121a35760405162461bcd60e51b815260206004820152601d60248201527f416d6f756e74206d7573742062652067726561746572207468616e20300000006044820152606401610aa2565b6000600254116121ec5760405162461bcd60e51b8152602060048201526014602482015273139bc81cda185c995cc81b5a5b9d1959081e595d60621b6044820152606401610aa2565b6002548290600090612209908490670de0b6b3a764000090611bd9565b6001600160a01b0385166000908152600a602052604090206001015490915060ff166122c7576007805460018082019092557fa66cc928b5edb82af9bd49922954155ab7b0942694bea4ce44661d9a8736c6880180546001600160a01b0319166001600160a01b0387169081179091556000818152600a6020526040808220808501805460ff191690951790945592849055915190917fce34593ca634648919e160816626a2dac47222f33d18bd1c49154fc50b929c1791a26122f5565b6001600160a01b0384166000908152600a6020526040812080548392906122ef908490612938565b90915550505b6040516323b872dd60e01b81526001600160a01b038316906323b872dd90612325903390309088906004016129af565b6020604051808303816000875af1158015612344573d6000803e3d6000fd5b505050506040513d601f19601f820116820180604052508101906123689190612964565b6123845760405162461bcd60e51b8152600401610aa290612986565b836001600160a01b03167fac24935fd910bc682b5ccb1a07b718cadf8cf2f6d1404c4f3ddc3662dae40e29846040516123bf91815260200190565b60405180910390a250505050565b60006002546000036123dd575090565b61078f6123e960085490565b60025484919061241b565b6000600254600003612404575090565b61078f60025461241360085490565b849190611bd9565b600082600019048411830215820261243257600080fd5b50910281810615159190040190565b60006020808352835180602085015260005b8181101561246f57858101830151858201604001528201612453565b506000604082860101526040601f19601f8301168501019250505092915050565b80356001600160a01b03811681146124a757600080fd5b919050565b600080604083850312156124bf57600080fd5b6124c883612490565b946020939093013593505050565b6000602082840312156124e857600080fd5b5035919050565b60006020828403121561250157600080fd5b611aa282612490565b6000806040838503121561251d57600080fd5b61252683612490565b915061253460208401612490565b90509250929050565b60008060006060848603121561255257600080fd5b61255b84612490565b925061256960208501612490565b9150604084013590509250925092565b634e487b7160e01b600052604160045260246000fd5b600060208083850312156125a257600080fd5b823567ffffffffffffffff808211156125ba57600080fd5b818501915085601f8301126125ce57600080fd5b8135818111156125e0576125e0612579565b8060051b604051601f19603f8301168101818110858211171561260557612605612579565b60405291825284820192508381018501918883111561262357600080fd5b938501935b828510156126485761263985612490565b84529385019392850192612628565b98975050505050505050565b6000806040838503121561266757600080fd5b50508035926020909101359150565b6000806040838503121561268957600080fd5b8235915061253460208401612490565b6000806000606084860312156126ae57600080fd5b833592506126be60208501612490565b91506126cc60408501612490565b90509250925092565b604080825283519082018190526000906020906060840190828701845b828110156127175781516001600160a01b0316845292840192908401906001016126f2565b5050508381038285015284518082528583019183019060005b8181101561274c57835183529284019291840191600101612730565b5090979650505050505050565b600080600080600080600060e0888a03121561277457600080fd5b61277d88612490565b965061278b60208901612490565b95506040880135945060608801359350608088013560ff811681146127af57600080fd5b9699959850939692959460a0840135945060c09093013592915050565b600181811c908216806127e057607f821691505b60208210810361280057634e487b7160e01b600052602260045260246000fd5b50919050565b634e487b7160e01b600052601160045260246000fd5b8181038181111561078f5761078f612806565b600181815b8085111561286a57816000190482111561285057612850612806565b8085161561285d57918102915b93841c9390800290612834565b509250929050565b6000826128815750600161078f565b8161288e5750600061078f565b81600181146128a457600281146128ae576128ca565b600191505061078f565b60ff8411156128bf576128bf612806565b50506001821b61078f565b5060208310610133831016604e8410600b84101617156128ed575081810a61078f565b6128f7838361282f565b806000190482111561290b5761290b612806565b029392505050565b6000611aa260ff841683612872565b634e487b7160e01b600052603260045260246000fd5b8082018082111561078f5761078f612806565b6001600160a01b03929092168252602082015260400190565b60006020828403121561297657600080fd5b81518015158114611aa257600080fd5b6020808252600f908201526e151c985b9cd9995c8819985a5b1959608a1b604082015260600190565b6001600160a01b039384168152919092166020820152604081019190915260600190565b6020808252600e908201526d139bdd08185d5d1a1bdc9a5e995960921b604082015260600190565b602080825260179082015276105cdcd95d1cc8185c99481cdd1a5b1b081b1bd8dad959604a1b604082015260600190565b60008083548160018260011c91506001831680612a4a57607f831692505b60208084108203612a6957634e487b7160e01b86526022600452602486fd5b818015612a7d5760018114612a9257612abf565b60ff1986168952841515850289019650612abf565b60008a81526020902060005b86811015612ab75781548b820152908501908301612a9e565b505084890196505b50949897505050505050505056fef341246adaac6f497bc2a656f546ab9e182111d630394f0c57c710a59a2cb567ddf252ad1be2c89b69c2b068fc378daa952ba7f163c4a11628f55a4df523b3efa26469706673582212205ffa0cc92840e134931f1bea10c438511a2d1a96558b41f3a7a3654c5ec586b864736f6c63430008180033a26469706673582212202b86057fe23c09bcbf31b5607a4f7acc76688069c25dd9f89321a396e5ff4e4064736f6c63430008180033",
  "linkReferences": {},
  "deployedLinkReferences": {}
}