{
  "_format": "hh-sol-artifact-1",
  "contractName": "RewardsVaultAutoCompounder",
  "sourceName": "contracts/vaultV2/RewardsVaultAutoCompounder.sol",
  "abi": [
    {
      "inputs": [
        {
          "internalType": "contract RewardsVault4626",
          "name": "_vault",
          "type": "address"
        },
        {
          "internalType": "string",
          "name": "_name",
          "type": "string"
        },
        {
          "internalType": "string",
          "name": "_symbol",
          "type": "string"
        },
        {
          "internalType": "uint256",
          "name": "_minimumClaimThreshold",
          "type": "uint256"
        },
        {
          "internalType": "contract IUniswapV2Router02",
          "name": "_uniswapRouter",
          "type": "address"
        },
        {
          "internalType": "address",
          "name": "_intermediateToken",
          "type": "address"
        },
        {
          "internalType": "uint256",
          "name": "_maxSlippage",
          "type": "uint256"
        }
      ],
      "stateMutability": "nonpayable",
      "type": "constructor"
    },
    {
      "inputs": [],
      "name": "InsufficientBalance",
      "type": "error"
    },
    {
      "inputs": [],
      "name": "InvalidAmount",
      "type": "error"
    },
    {
      "inputs": [],
      "name": "InvalidNewOwner",
      "type": "error"
    },
    {
      "inputs": [],
      "name": "InvalidReceiver",
      "type": "error"
    },
    {
      "inputs": [],
      "name": "InvalidSlippage",
      "type": "error"
    },
    {
      "inputs": [],
      "name": "InvalidSwapPath",
      "type": "error"
    },
    {
      "inputs": [],
      "name": "NotOwner",
      "type": "error"
    },
    {
      "inputs": [],
      "name": "ReentrancyGuardReentrantCall",
      "type": "error"
    },
    {
      "inputs": [],
      "name": "SwapFailed",
      "type": "error"
    },
    {
      "inputs": [],
      "name": "TransferFailed",
      "type": "error"
    },
    {
      "anonymous": false,
      "inputs": [
        {
          "indexed": true,
          "internalType": "address",
          "name": "owner",
          "type": "address"
        },
        {
          "indexed": true,
          "internalType": "address",
          "name": "spender",
          "type": "address"
        },
        {
          "indexed": false,
          "internalType": "uint256",
          "name": "value",
          "type": "uint256"
        }
      ],
      "name": "Approval",
      "type": "event"
    },
    {
      "anonymous": false,
      "inputs": [
        {
          "indexed": false,
          "internalType": "uint256",
          "name": "totalAssetsReinvested",
          "type": "uint256"
        },
        {
          "indexed": false,
          "internalType": "uint256",
          "name": "swapCount",
          "type": "uint256"
        }
      ],
      "name": "AutoCompound",
      "type": "event"
    },
    {
      "anonymous": false,
      "inputs": [
        {
          "indexed": true,
          "internalType": "address",
          "name": "user",
          "type": "address"
        },
        {
          "indexed": false,
          "internalType": "uint256",
          "name": "assets",
          "type": "uint256"
        },
        {
          "indexed": false,
          "internalType": "uint256",
          "name": "shares",
          "type": "uint256"
        }
      ],
      "name": "Deposit",
      "type": "event"
    },
    {
      "anonymous": false,
      "inputs": [
        {
          "indexed": true,
          "internalType": "address",
          "name": "previousOwner",
          "type": "address"
        },
        {
          "indexed": true,
          "internalType": "address",
          "name": "newOwner",
          "type": "address"
        }
      ],
      "name": "OwnershipTransferred",
      "type": "event"
    },
    {
      "anonymous": false,
      "inputs": [
        {
          "indexed": true,
          "internalType": "address",
          "name": "user",
          "type": "address"
        },
        {
          "indexed": true,
          "internalType": "address",
          "name": "rewardToken",
          "type": "address"
        },
        {
          "indexed": false,
          "internalType": "uint256",
          "name": "amount",
          "type": "uint256"
        }
      ],
      "name": "RewardsClaimed",
      "type": "event"
    },
    {
      "anonymous": false,
      "inputs": [
        {
          "indexed": true,
          "internalType": "address",
          "name": "rewardToken",
          "type": "address"
        },
        {
          "indexed": false,
          "internalType": "address[]",
          "name": "newPath",
          "type": "address[]"
        }
      ],
      "name": "SwapPathUpdated",
      "type": "event"
    },
    {
      "anonymous": false,
      "inputs": [
        {
          "indexed": true,
          "internalType": "address",
          "name": "fromToken",
          "type": "address"
        },
        {
          "indexed": true,
          "internalType": "address",
          "name": "toToken",
          "type": "address"
        },
        {
          "indexed": false,
          "internalType": "uint256",
          "name": "amountIn",
          "type": "uint256"
        },
        {
          "indexed": false,
          "internalType": "uint256",
          "name": "amountOut",
          "type": "uint256"
        }
      ],
      "name": "TokenSwapped",
      "type": "event"
    },
    {
      "anonymous": false,
      "inputs": [
        {
          "indexed": true,
          "internalType": "address",
          "name": "from",
          "type": "address"
        },
        {
          "indexed": true,
          "internalType": "address",
          "name": "to",
          "type": "address"
        },
        {
          "indexed": false,
          "internalType": "uint256",
          "name": "value",
          "type": "uint256"
        }
      ],
      "name": "Transfer",
      "type": "event"
    },
    {
      "anonymous": false,
      "inputs": [
        {
          "indexed": true,
          "internalType": "address",
          "name": "user",
          "type": "address"
        },
        {
          "indexed": false,
          "internalType": "uint256",
          "name": "shares",
          "type": "uint256"
        },
        {
          "indexed": false,
          "internalType": "uint256",
          "name": "assets",
          "type": "uint256"
        }
      ],
      "name": "Withdraw",
      "type": "event"
    },
    {
      "inputs": [],
      "name": "ASSET",
      "outputs": [
        {
          "internalType": "contract IERC20",
          "name": "",
          "type": "address"
        }
      ],
      "stateMutability": "view",
      "type": "function"
    },
    {
      "inputs": [],
      "name": "DECIMALS",
      "outputs": [
        {
          "internalType": "uint8",
          "name": "",
          "type": "uint8"
        }
      ],
      "stateMutability": "view",
      "type": "function"
    },
    {
      "inputs": [],
      "name": "INTERMEDIATE_TOKEN",
      "outputs": [
        {
          "internalType": "address",
          "name": "",
          "type": "address"
        }
      ],
      "stateMutability": "view",
      "type": "function"
    },
    {
      "inputs": [],
      "name": "UNISWAP_ROUTER",
      "outputs": [
        {
          "internalType": "contract IUniswapV2Router02",
          "name": "",
          "type": "address"
        }
      ],
      "stateMutability": "view",
      "type": "function"
    },
    {
      "inputs": [],
      "name": "VAULT",
      "outputs": [
        {
          "internalType": "contract RewardsVault4626",
          "name": "",
          "type": "address"
        }
      ],
      "stateMutability": "view",
      "type": "function"
    },
    {
      "inputs": [
        {
          "internalType": "address",
          "name": "",
          "type": "address"
        },
        {
          "internalType": "address",
          "name": "",
          "type": "address"
        }
      ],
      "name": "allowance",
      "outputs": [
        {
          "internalType": "uint256",
          "name": "",
          "type": "uint256"
        }
      ],
      "stateMutability": "view",
      "type": "function"
    },
    {
      "inputs": [
        {
          "internalType": "address",
          "name": "spender",
          "type": "address"
        },
        {
          "internalType": "uint256",
          "name": "amount",
          "type": "uint256"
        }
      ],
      "name": "approve",
      "outputs": [
        {
          "internalType": "bool",
          "name": "",
          "type": "bool"
        }
      ],
      "stateMutability": "nonpayable",
      "type": "function"
    },
    {
      "inputs": [],
      "name": "asset",
      "outputs": [
        {
          "internalType": "address",
          "name": "",
          "type": "address"
        }
      ],
      "stateMutability": "view",
      "type": "function"
    },
    {
      "inputs": [
        {
          "internalType": "address",
          "name": "user",
          "type": "address"
        }
      ],
      "name": "assetsOf",
      "outputs": [
        {
          "internalType": "uint256",
          "name": "",
          "type": "uint256"
        }
      ],
      "stateMutability": "view",
      "type": "function"
    },
    {
      "inputs": [],
      "name": "autoCompound",
      "outputs": [],
      "stateMutability": "nonpayable",
      "type": "function"
    },
    {
      "inputs": [
        {
          "internalType": "address",
          "name": "",
          "type": "address"
        }
      ],
      "name": "balanceOf",
      "outputs": [
        {
          "internalType": "uint256",
          "name": "",
          "type": "uint256"
        }
      ],
      "stateMutability": "view",
      "type": "function"
    },
    {
      "inputs": [
        {
          "internalType": "address",
          "name": "user",
          "type": "address"
        }
      ],
      "name": "canWithdraw",
      "outputs": [
        {
          "internalType": "bool",
          "name": "",
          "type": "bool"
        }
      ],
      "stateMutability": "view",
      "type": "function"
    },
    {
      "inputs": [],
      "name": "claimUserRewards",
      "outputs": [],
      "stateMutability": "nonpayable",
      "type": "function"
    },
    {
      "inputs": [],
      "name": "decimals",
      "outputs": [
        {
          "internalType": "uint8",
          "name": "",
          "type": "uint8"
        }
      ],
      "stateMutability": "view",
      "type": "function"
    },
    {
      "inputs": [
        {
          "internalType": "uint256",
          "name": "assets",
          "type": "uint256"
        },
        {
          "internalType": "address",
          "name": "receiver",
          "type": "address"
        }
      ],
      "name": "deposit",
      "outputs": [
        {
          "internalType": "uint256",
          "name": "shares",
          "type": "uint256"
        }
      ],
      "stateMutability": "nonpayable",
      "type": "function"
    },
    {
      "inputs": [
        {
          "internalType": "address",
          "name": "token",
          "type": "address"
        },
        {
          "internalType": "uint256",
          "name": "amount",
          "type": "uint256"
        }
      ],
      "name": "emergencyWithdraw",
      "outputs": [],
      "stateMutability": "nonpayable",
      "type": "function"
    },
    {
      "inputs": [],
      "name": "exchangeRate",
      "outputs": [
        {
          "internalType": "uint256",
          "name": "",
          "type": "uint256"
        }
      ],
      "stateMutability": "view",
      "type": "function"
    },
    {
      "inputs": [
        {
          "internalType": "address",
          "name": "rewardToken",
          "type": "address"
        }
      ],
      "name": "getSwapPath",
      "outputs": [
        {
          "internalType": "address[]",
          "name": "path",
          "type": "address[]"
        }
      ],
      "stateMutability": "view",
      "type": "function"
    },
    {
      "inputs": [
        {
          "internalType": "address",
          "name": "user",
          "type": "address"
        }
      ],
      "name": "getUserInfo",
      "outputs": [
        {
          "internalType": "uint256",
          "name": "depositTimestamp",
          "type": "uint256"
        },
        {
          "internalType": "uint256",
          "name": "totalDeposited",
          "type": "uint256"
        }
      ],
      "stateMutability": "view",
      "type": "function"
    },
    {
      "inputs": [
        {
          "internalType": "address",
          "name": "user",
          "type": "address"
        }
      ],
      "name": "getUserReward",
      "outputs": [
        {
          "internalType": "address[]",
          "name": "tokens",
          "type": "address[]"
        },
        {
          "internalType": "uint256[]",
          "name": "amounts",
          "type": "uint256[]"
        }
      ],
      "stateMutability": "view",
      "type": "function"
    },
    {
      "inputs": [],
      "name": "maxSlippage",
      "outputs": [
        {
          "internalType": "uint256",
          "name": "",
          "type": "uint256"
        }
      ],
      "stateMutability": "view",
      "type": "function"
    },
    {
      "inputs": [],
      "name": "minimumClaimThreshold",
      "outputs": [
        {
          "internalType": "uint256",
          "name": "",
          "type": "uint256"
        }
      ],
      "stateMutability": "view",
      "type": "function"
    },
    {
      "inputs": [
        {
          "internalType": "uint256",
          "name": "shares",
          "type": "uint256"
        },
        {
          "internalType": "address",
          "name": "receiver",
          "type": "address"
        }
      ],
      "name": "mint",
      "outputs": [
        {
          "internalType": "uint256",
          "name": "assets",
          "type": "uint256"
        }
      ],
      "stateMutability": "nonpayable",
      "type": "function"
    },
    {
      "inputs": [],
      "name": "name",
      "outputs": [
        {
          "internalType": "string",
          "name": "",
          "type": "string"
        }
      ],
      "stateMutability": "view",
      "type": "function"
    },
    {
      "inputs": [],
      "name": "owner",
      "outputs": [
        {
          "internalType": "address",
          "name": "",
          "type": "address"
        }
      ],
      "stateMutability": "view",
      "type": "function"
    },
    {
      "inputs": [
        {
          "internalType": "uint256",
          "name": "shares",
          "type": "uint256"
        },
        {
          "internalType": "address",
          "name": "receiver",
          "type": "address"
        },
        {
          "internalType": "address",
          "name": "owner_",
          "type": "address"
        }
      ],
      "name": "redeem",
      "outputs": [
        {
          "internalType": "uint256",
          "name": "assets",
          "type": "uint256"
        }
      ],
      "stateMutability": "nonpayable",
      "type": "function"
    },
    {
      "inputs": [
        {
          "internalType": "address",
          "name": "rewardToken",
          "type": "address"
        }
      ],
      "name": "removeSwapPath",
      "outputs": [],
      "stateMutability": "nonpayable",
      "type": "function"
    },
    {
      "inputs": [
        {
          "internalType": "uint256",
          "name": "newSlippage",
          "type": "uint256"
        }
      ],
      "name": "setMaxSlippage",
      "outputs": [],
      "stateMutability": "nonpayable",
      "type": "function"
    },
    {
      "inputs": [
        {
          "internalType": "uint256",
          "name": "newThreshold",
          "type": "uint256"
        }
      ],
      "name": "setMinimumClaimThreshold",
      "outputs": [],
      "stateMutability": "nonpayable",
      "type": "function"
    },
    {
      "inputs": [
        {
          "internalType": "address",
          "name": "rewardToken",
          "type": "address"
        },
        {
          "internalType": "address[]",
          "name": "path",
          "type": "address[]"
        }
      ],
      "name": "setSwapPath",
      "outputs": [],
      "stateMutability": "nonpayable",
      "type": "function"
    },
    {
      "inputs": [
        {
          "internalType": "bytes4",
          "name": "interfaceId",
          "type": "bytes4"
        }
      ],
      "name": "supportsInterface",
      "outputs": [
        {
          "internalType": "bool",
          "name": "",
          "type": "bool"
        }
      ],
      "stateMutability": "view",
      "type": "function"
    },
    {
      "inputs": [
        {
          "internalType": "address",
          "name": "",
          "type": "address"
        },
        {
          "internalType": "uint256",
          "name": "",
          "type": "uint256"
        }
      ],
      "name": "swapPaths",
      "outputs": [
        {
          "internalType": "address",
          "name": "",
          "type": "address"
        }
      ],
      "stateMutability": "view",
      "type": "function"
    },
    {
      "inputs": [],
      "name": "symbol",
      "outputs": [
        {
          "internalType": "string",
          "name": "",
          "type": "string"
        }
      ],
      "stateMutability": "view",
      "type": "function"
    },
    {
      "inputs": [
        {
          "internalType": "address",
          "name": "rewardToken",
          "type": "address"
        },
        {
          "internalType": "uint256",
          "name": "amount",
          "type": "uint256"
        }
      ],
      "name": "testSwap",
      "outputs": [
        {
          "internalType": "uint256",
          "name": "amountOut",
          "type": "uint256"
        }
      ],
      "stateMutability": "view",
      "type": "function"
    },
    {
      "inputs": [],
      "name": "totalAssets",
      "outputs": [
        {
          "internalType": "uint256",
          "name": "",
          "type": "uint256"
        }
      ],
      "stateMutability": "view",
      "type": "function"
    },
    {
      "inputs": [],
      "name": "totalSupply",
      "outputs": [
        {
          "internalType": "uint256",
          "name": "",
          "type": "uint256"
        }
      ],
      "stateMutability": "view",
      "type": "function"
    },
    {
      "inputs": [
        {
          "internalType": "address",
          "name": "to",
          "type": "address"
        },
        {
          "internalType": "uint256",
          "name": "amount",
          "type": "uint256"
        }
      ],
      "name": "transfer",
      "outputs": [
        {
          "internalType": "bool",
          "name": "",
          "type": "bool"
        }
      ],
      "stateMutability": "nonpayable",
      "type": "function"
    },
    {
      "inputs": [
        {
          "internalType": "address",
          "name": "from",
          "type": "address"
        },
        {
          "internalType": "address",
          "name": "to",
          "type": "address"
        },
        {
          "internalType": "uint256",
          "name": "amount",
          "type": "uint256"
        }
      ],
      "name": "transferFrom",
      "outputs": [
        {
          "internalType": "bool",
          "name": "",
          "type": "bool"
        }
      ],
      "stateMutability": "nonpayable",
      "type": "function"
    },
    {
      "inputs": [
        {
          "internalType": "address",
          "name": "newOwner",
          "type": "address"
        }
      ],
      "name": "transferOwnership",
      "outputs": [],
      "stateMutability": "nonpayable",
      "type": "function"
    },
    {
      "inputs": [
        {
          "internalType": "address",
          "name": "",
          "type": "address"
        }
      ],
      "name": "userInfo",
      "outputs": [
        {
          "internalType": "uint256",
          "name": "depositTimestamp",
          "type": "uint256"
        },
        {
          "internalType": "uint256",
          "name": "totalDeposited",
          "type": "uint256"
        }
      ],
      "stateMutability": "view",
      "type": "function"
    },
    {
      "inputs": [],
      "name": "vault",
      "outputs": [
        {
          "internalType": "address",
          "name": "",
          "type": "address"
        }
      ],
      "stateMutability": "view",
      "type": "function"
    },
    {
      "inputs": [
        {
          "internalType": "uint256",
          "name": "shares",
          "type": "uint256"
        },
        {
          "internalType": "address",
          "name": "receiver",
          "type": "address"
        }
      ],
      "name": "withdraw",
      "outputs": [
        {
          "internalType": "uint256",
          "name": "assets",
          "type": "uint256"
        }
      ],
      "stateMutability": "nonpayable",
      "type": "function"
    }
  ],
  "bytecode": "0x6101206040523480156200001257600080fd5b5060405162003d8438038062003d8483398101604081905262000035916200037d565b60016000556001600160a01b0387166080819052604080516338d52e0f60e01b815290516338d52e0f916004808201926020929091908290030181865afa15801562000085573d6000803e3d6000fd5b505050506040513d601f19601f82011682018060405250810190620000ab91906200043c565b6001600160a01b031660a0526001620000c58782620004f4565b506002620000d48682620004f4565b50866001600160a01b031663313ce5676040518163ffffffff1660e01b8152600401602060405180830381865afa15801562000114573d6000803e3d6000fd5b505050506040513d601f19601f820116820180604052508101906200013a9190620005c0565b60ff1661010052600480546001600160a01b0319163317905560058490556001600160a01b0383811660c052821660e0526113888111156200018f5760405163334ee9a160e01b815260040160405180910390fd5b60068190556040805160018082528183019092526000916020808301908036833701905050905060a05181600081518110620001cf57620001cf620005e5565b6001600160a01b0392831660209182029290920181019190915260a0519091166000908152600a82526040902082516200020c928401906200021b565b505050505050505050620005fb565b82805482825590600052602060002090810192821562000273579160200282015b828111156200027357825182546001600160a01b0319166001600160a01b039091161782556020909201916001909101906200023c565b506200028192915062000285565b5090565b5b8082111562000281576000815560010162000286565b6001600160a01b0381168114620002b257600080fd5b50565b634e487b7160e01b600052604160045260246000fd5b600082601f830112620002dd57600080fd5b81516001600160401b0380821115620002fa57620002fa620002b5565b604051601f8301601f19908116603f01168101908282118183101715620003255762000325620002b5565b81604052838152602092508660208588010111156200034357600080fd5b600091505b8382101562000367578582018301518183018401529082019062000348565b6000602085830101528094505050505092915050565b600080600080600080600060e0888a0312156200039957600080fd5b8751620003a6816200029c565b60208901519097506001600160401b0380821115620003c457600080fd5b620003d28b838c01620002cb565b975060408a0151915080821115620003e957600080fd5b50620003f88a828b01620002cb565b95505060608801519350608088015162000412816200029c565b60a089015190935062000425816200029c565b8092505060c0880151905092959891949750929550565b6000602082840312156200044f57600080fd5b81516200045c816200029c565b9392505050565b600181811c908216806200047857607f821691505b6020821081036200049957634e487b7160e01b600052602260045260246000fd5b50919050565b601f821115620004ef576000816000526020600020601f850160051c81016020861015620004ca5750805b601f850160051c820191505b81811015620004eb57828155600101620004d6565b5050505b505050565b81516001600160401b03811115620005105762000510620002b5565b620005288162000521845462000463565b846200049f565b602080601f831160018114620005605760008415620005475750858301515b600019600386901b1c1916600185901b178555620004eb565b600085815260208120601f198616915b82811015620005915788860151825594840194600190910190840162000570565b5085821015620005b05787850151600019600388901b60f8161c191681555b5050505050600190811b01905550565b600060208284031215620005d357600080fd5b815160ff811681146200045c57600080fd5b634e487b7160e01b600052603260045260246000fd5b60805160a05160c05160e051610100516136256200075f6000396000818161038401526103ba0152600081816105a001528181612c660152612d7c0152600081816105c7015281816124f5015281816129020152818161298a0152612a640152600081816103e00152818161045401528181610a7701528181610b2a01528181610bd101528181611037015281816110e7015281816114f3015281816115870152818161177001528181611820015281816122370152818161287401528181612b3101528181612bb401528181612c0d01528181612cf30152612dd001526000818161041a015281816106820152818161075b015281816108df015281816109ed01528181610d470152818161111401528181611199015281816112e20152818161135a01528181611400015281816115b4015281816116390152818161184d015281816118d201528181611d6a01528181611f74015261262701526136256000f3fe608060405234801561001057600080fd5b506004361061025d5760003560e01c80636e553f6511610146578063ba087652116100c3578063dd62ed3e11610087578063dd62ed3e146105fc578063df6d21f014610627578063f2fde38b1461063a578063f63fb9211461064d578063f92efb521461066d578063fbfa77cf1461068057600080fd5b8063ba08765214610567578063c75ebb821461057a578063ce3b122f1461059b578063d8264920146105c2578063db8bb3a1146105e957600080fd5b806394bf804d1161010a57806394bf804d1461051357806395ccea671461052657806395d89b4114610539578063a9059cbb14610541578063a9b121871461055457600080fd5b80636e553f65146104bc57806370a08231146104cf578063821c0576146104ef5780638c04166f146104f75780638da5cb5b1461050057600080fd5b80631d0bc6ee116101df57806338d52e0f116101a357806338d52e0f146103de5780633ba0b9a91461040d578063411557d11461041557806343f68a491461043c5780634800d97f1461044f5780636386c1c71461047657600080fd5b80631d0bc6ee1461035057806323b872dd146103595780632c62fa101461036c5780632e0f26251461037f578063313ce567146103b857600080fd5b8063095ea7b311610226578063095ea7b3146102d257806318160ddd146102e557806319262d30146102ee5780631959a0021461030157806319dcb6591461033d57600080fd5b8062f714ce1461026257806301e1d1141461028857806301ffc9a714610290578063032660a4146102b357806306fdde03146102bd575b600080fd5b610275610270366004612eb0565b6106a6565b6040519081526020015b60405180910390f35b6102756108c5565b6102a361029e366004612ee0565b61095a565b604051901515815260200161027f565b6102bb61098f565b005b6102c5610c33565b60405161027f9190612f0a565b6102a36102e0366004612f59565b610cc1565b61027560035481565b6102a36102fc366004612f85565b610d2d565b61032861030f366004612f85565b6009602052600090815260409020805460019091015482565b6040805192835260208301919091520161027f565b6102bb61034b366004612fa2565b610dbd565b61027560055481565b6102a3610367366004612fbb565b610ded565b61027561037a366004612f85565b610f16565b6103a67f000000000000000000000000000000000000000000000000000000000000000081565b60405160ff909116815260200161027f565b7f00000000000000000000000000000000000000000000000000000000000000006103a6565b7f00000000000000000000000000000000000000000000000000000000000000005b60405161027f9190612ffc565b610275610f38565b6104007f000000000000000000000000000000000000000000000000000000000000000081565b6102bb61044a366004612fa2565b610f6f565b6104007f000000000000000000000000000000000000000000000000000000000000000081565b610328610484366004612f85565b6001600160a01b0316600090815260096020908152604091829020825180840190935280548084526001909101549290910182905291565b6102756104ca366004612eb0565b610fc2565b6102756104dd366004612f85565b60076020526000908152604090205481565b6102bb6112d8565b61027560065481565b600454610400906001600160a01b031681565b610275610521366004612eb0565b6116fb565b6102bb610534366004612f59565b611a03565b6102c5611ac4565b6102a361054f366004612f59565b611ad1565b6102bb610562366004612f85565b611b76565b610275610575366004613010565b611c17565b61058d610588366004612f85565b611efc565b60405161027f929190613097565b6104007f000000000000000000000000000000000000000000000000000000000000000081565b6104007f000000000000000000000000000000000000000000000000000000000000000081565b6104006105f7366004612f59565b61214f565b61027561060a3660046130ee565b600860209081526000928352604080842090915290825290205481565b6102bb61063536600461311c565b612187565b6102bb610648366004612f85565b61231b565b61066061065b366004612f85565b6123bf565b60405161027f91906131a3565b61027561067b366004612f59565b612447565b7f0000000000000000000000000000000000000000000000000000000000000000610400565b60006106b06125a9565b826000036106d15760405163162908e360e11b815260040160405180910390fd5b3360009081526007602052604090205483111561070157604051631e9acf1760e31b815260040160405180910390fd5b61070a836125d3565b90506000610717846125f9565b90508060000361073a5760405163162908e360e11b815260040160405180910390fd5b61074433856126b6565b604051635d043b2960e11b81526001600160a01b037f0000000000000000000000000000000000000000000000000000000000000000169063ba08765290610794908490879030906004016131b6565b6020604051808303816000875af11580156107b3573d6000803e3d6000fd5b505050506040513d601f19601f820116820180604052508101906107d791906131d5565b5033600090815260096020526040902060010154156108795733600090815260076020526040812054908190036108205733600090815260096020526040812060010155610877565b33600090815260096020526040812060010154610849906108418885613204565b869190612730565b33600090815260096020526040812060010180549293508392909190610870908490613217565b9091555050505b505b604080518581526020810184905233917ff279e6a1f5e320cca91135676d9cb6e44ca8a08c0b88342bcdb1144f6511b568910160405180910390a2506108bf6001600055565b92915050565b6040516302c62fa160e41b81526000906001600160a01b037f00000000000000000000000000000000000000000000000000000000000000001690632c62fa1090610914903090600401612ffc565b602060405180830381865afa158015610931573d6000803e3d6000fd5b505050506040513d601f19601f8201168201806040525081019061095591906131d5565b905090565b60006001600160e01b03198216630a957a0160e21b14806108bf57506301ffc9a760e01b6001600160e01b03198316146108bf565b6109976125a9565b33600090815260076020526040812054908190036109c85760405163162908e360e11b815260040160405180910390fd5b60006109e9670de0b6b3a7640000600354846127309092919063ffffffff16565b90507f00000000000000000000000000000000000000000000000000000000000000006001600160a01b0316630b83a7276040518163ffffffff1660e01b8152600401600060405180830381600087803b158015610a4657600080fd5b505af1158015610a5a573d6000803e3d6000fd5b50506040516370a0823160e01b8152600092506001600160a01b037f00000000000000000000000000000000000000000000000000000000000000001691506370a0823190610aad903090600401612ffc565b602060405180830381865afa158015610aca573d6000803e3d6000fd5b505050506040513d601f19601f82011682018060405250810190610aee91906131d5565b90508015610c24576000610b0b8284670de0b6b3a7640000612730565b90508015610c225760405163a9059cbb60e01b81526001600160a01b037f0000000000000000000000000000000000000000000000000000000000000000169063a9059cbb90610b61903390859060040161322a565b6020604051808303816000875af1158015610b80573d6000803e3d6000fd5b505050506040513d601f19601f82011682018060405250810190610ba49190613243565b610bc1576040516312171d8360e31b815260040160405180910390fd5b6040518181526001600160a01b037f0000000000000000000000000000000000000000000000000000000000000000169033907f9310ccfcb8de723f578a9e4282ea9f521f05ae40dc08f3068dfad528a65ee3c79060200160405180910390a35b505b505050610c316001600055565b565b60018054610c4090613265565b80601f0160208091040260200160405190810160405280929190818152602001828054610c6c90613265565b8015610cb95780601f10610c8e57610100808354040283529160200191610cb9565b820191906000526020600020905b815481529060010190602001808311610c9c57829003601f168201915b505050505081565b3360008181526008602090815260408083206001600160a01b038716808552925280832085905551919290917f8c5be1e5ebec7d5bd14f71427d1e84f3dd0314c0f7b2291e5b200ac8c7c3b92590610d1c9086815260200190565b60405180910390a350600192915050565b6040516315dfa99560e11b81526000906001600160a01b037f00000000000000000000000000000000000000000000000000000000000000001690632bbf532a90610d7c908590600401612ffc565b602060405180830381865afa158015610d99573d6000803e3d6000fd5b505050506040513d601f19601f820116820180604052508101906108bf9190613243565b6004546001600160a01b03163314610de8576040516330cd747160e01b815260040160405180910390fd5b600555565b60006001600160a01b038316610e1657604051631e4ec46b60e01b815260040160405180910390fd5b6001600160a01b03841660009081526008602090815260408083203384529091529020546000198114610e7257610e4d8382613217565b6001600160a01b03861660009081526008602090815260408083203384529091529020555b6001600160a01b03851660009081526007602052604081208054859290610e9a908490613217565b90915550506001600160a01b03841660009081526007602052604081208054859290610ec7908490613204565b92505081905550836001600160a01b0316856001600160a01b03166000805160206135d083398151915285604051610f0191815260200190565b60405180910390a360019150505b9392505050565b6001600160a01b0381166000908152600760205260408120546108bf906125d3565b6000600354600003610f515750670de0b6b3a764000090565b610955670de0b6b3a7640000600354610f686108c5565b9190612730565b6004546001600160a01b03163314610f9a576040516330cd747160e01b815260040160405180910390fd5b611388811115610fbd5760405163334ee9a160e01b815260040160405180910390fd5b600655565b6000610fcc6125a9565b82600003610fed5760405163162908e360e11b815260040160405180910390fd5b6001600160a01b03821661101457604051631e4ec46b60e01b815260040160405180910390fd5b61101d8361274e565b6040516323b872dd60e01b81529091506001600160a01b037f000000000000000000000000000000000000000000000000000000000000000016906323b872dd906110709033903090889060040161329f565b6020604051808303816000875af115801561108f573d6000803e3d6000fd5b505050506040513d601f19601f820116820180604052508101906110b39190613243565b6110d0576040516312171d8360e31b815260040160405180910390fd5b60405163095ea7b360e01b81526001600160a01b037f0000000000000000000000000000000000000000000000000000000000000000169063095ea7b39061113e907f000000000000000000000000000000000000000000000000000000000000000090879060040161322a565b6020604051808303816000875af115801561115d573d6000803e3d6000fd5b505050506040513d601f19601f820116820180604052508101906111819190613243565b50604051636e553f6560e01b81526001600160a01b037f00000000000000000000000000000000000000000000000000000000000000001690636e553f65906111d090869030906004016132c3565b6020604051808303816000875af11580156111ef573d6000803e3d6000fd5b505050506040513d601f19601f8201168201806040525081019061121391906131d5565b5061121e8282612774565b6001600160a01b0382166000908152600960205260408120549003611259576001600160a01b03821660009081526009602052604090204290555b6001600160a01b03821660009081526009602052604081206001018054859290611284908490613204565b909155505060408051848152602081018390526001600160a01b038416917f90890809c654f11d6e72a28fa60149770a0d11ec6c92319d6ceb2bb0a4ea1a1591015b60405180910390a26108bf6001600055565b6112e06125a9565b7f00000000000000000000000000000000000000000000000000000000000000006001600160a01b0316630b83a7276040518163ffffffff1660e01b8152600401600060405180830381600087803b15801561133b57600080fd5b505af115801561134f573d6000803e3d6000fd5b5050505060008060007f00000000000000000000000000000000000000000000000000000000000000006001600160a01b0316632521cdd86040518163ffffffff1660e01b8152600401602060405180830381865afa1580156113b6573d6000803e3d6000fd5b505050506040513d601f19601f820116820180604052508101906113da91906131d5565b905060005b8181101561156957604051637bb7bed160e01b8152600481018290526000907f00000000000000000000000000000000000000000000000000000000000000006001600160a01b031690637bb7bed190602401602060405180830381865afa15801561144f573d6000803e3d6000fd5b505050506040513d601f19601f8201168201806040525081019061147391906132da565b90506000816001600160a01b03166370a08231306040518263ffffffff1660e01b81526004016114a39190612ffc565b602060405180830381865afa1580156114c0573d6000803e3d6000fd5b505050506040513d601f19601f820116820180604052508101906114e491906131d5565b9050600554811061155f5760007f00000000000000000000000000000000000000000000000000000000000000006001600160a01b0316836001600160a01b031603611531575080611551565b61153b83836127e4565b90508015611551578561154d816132f7565b9650505b61155b8188613204565b9650505b50506001016113df565b5082156116b55760405163095ea7b360e01b81526001600160a01b037f0000000000000000000000000000000000000000000000000000000000000000169063095ea7b3906115de907f000000000000000000000000000000000000000000000000000000000000000090879060040161322a565b6020604051808303816000875af11580156115fd573d6000803e3d6000fd5b505050506040513d601f19601f820116820180604052508101906116219190613243565b50604051636e553f6560e01b81526001600160a01b037f00000000000000000000000000000000000000000000000000000000000000001690636e553f659061167090869030906004016132c3565b6020604051808303816000875af115801561168f573d6000803e3d6000fd5b505050506040513d601f19601f820116820180604052508101906116b391906131d5565b505b60408051848152602081018490527faf87ba7b46bcb5ecb187c104a37a9ca4d5d31e94acbbf185698f5358966b6f25910160405180910390a1505050610c316001600055565b60006117056125a9565b826000036117265760405163162908e360e11b815260040160405180910390fd5b6001600160a01b03821661174d57604051631e4ec46b60e01b815260040160405180910390fd5b611756836125d3565b6040516323b872dd60e01b81529091506001600160a01b037f000000000000000000000000000000000000000000000000000000000000000016906323b872dd906117a99033903090869060040161329f565b6020604051808303816000875af11580156117c8573d6000803e3d6000fd5b505050506040513d601f19601f820116820180604052508101906117ec9190613243565b611809576040516312171d8360e31b815260040160405180910390fd5b60405163095ea7b360e01b81526001600160a01b037f0000000000000000000000000000000000000000000000000000000000000000169063095ea7b390611877907f000000000000000000000000000000000000000000000000000000000000000090859060040161322a565b6020604051808303816000875af1158015611896573d6000803e3d6000fd5b505050506040513d601f19601f820116820180604052508101906118ba9190613243565b50604051636e553f6560e01b81526001600160a01b037f00000000000000000000000000000000000000000000000000000000000000001690636e553f659061190990849030906004016132c3565b6020604051808303816000875af1158015611928573d6000803e3d6000fd5b505050506040513d601f19601f8201168201806040525081019061194c91906131d5565b506119578284612774565b6001600160a01b0382166000908152600960205260408120549003611992576001600160a01b03821660009081526009602052604090204290555b6001600160a01b038216600090815260096020526040812060010180548392906119bd908490613204565b909155505060408051828152602081018590526001600160a01b038416917f90890809c654f11d6e72a28fa60149770a0d11ec6c92319d6ceb2bb0a4ea1a1591016112c6565b6004546001600160a01b03163314611a2e576040516330cd747160e01b815260040160405180910390fd5b6004805460405163a9059cbb60e01b81526001600160a01b038086169363a9059cbb93611a609392169186910161322a565b6020604051808303816000875af1158015611a7f573d6000803e3d6000fd5b505050506040513d601f19601f82011682018060405250810190611aa39190613243565b611ac0576040516312171d8360e31b815260040160405180910390fd5b5050565b60028054610c4090613265565b60006001600160a01b038316611afa57604051631e4ec46b60e01b815260040160405180910390fd5b3360009081526007602052604081208054849290611b19908490613217565b90915550506001600160a01b03831660009081526007602052604081208054849290611b46908490613204565b90915550506040518281526001600160a01b0384169033906000805160206135d083398151915290602001610d1c565b6004546001600160a01b03163314611ba1576040516330cd747160e01b815260040160405180910390fd5b6001600160a01b0381166000908152600a60205260408120611bc291612e02565b60408051600081526020810191829052906001600160a01b038316907fdb3f5a788af65a638a0a2f1f6b882831094940f5498b2851dad477afcd1aed1290611c0b9084906131a3565b60405180910390a25050565b6000611c216125a9565b83600003611c425760405163162908e360e11b815260040160405180910390fd5b6001600160a01b038316611c6957604051631e4ec46b60e01b815260040160405180910390fd5b336001600160a01b03831614611cd7576001600160a01b03821660009081526008602090815260408083203384529091529020546000198114611cd557611cb08582613217565b6001600160a01b03841660009081526008602090815260408083203384529091529020555b505b6001600160a01b038216600090815260076020526040902054841115611d1057604051631e9acf1760e31b815260040160405180910390fd5b611d19846125d3565b90506000611d26856125f9565b905080600003611d495760405163162908e360e11b815260040160405180910390fd5b611d5383866126b6565b604051635d043b2960e11b81526001600160a01b037f0000000000000000000000000000000000000000000000000000000000000000169063ba08765290611da3908490889030906004016131b6565b6020604051808303816000875af1158015611dc2573d6000803e3d6000fd5b505050506040513d601f19601f82011682018060405250810190611de691906131d5565b506001600160a01b03831660009081526009602052604090206001015415611ead576001600160a01b03831660009081526007602052604081205490819003611e4a576001600160a01b038416600090815260096020526040812060010155611eab565b6001600160a01b038416600090815260096020526040812060010154611e74906108418985613204565b6001600160a01b038616600090815260096020526040812060010180549293508392909190611ea4908490613217565b9091555050505b505b60408051838152602081018790526001600160a01b038516917ff279e6a1f5e320cca91135676d9cb6e44ca8a08c0b88342bcdb1144f6511b568910160405180910390a250610f0f6001600055565b6001600160a01b0381166000908152600760205260409020546060908190801580611f275750600354155b15611f4c57505060408051600080825260208201908152818301909252939092509050565b6000611f6d670de0b6b3a7640000600354846127309092919063ffffffff16565b90506000807f00000000000000000000000000000000000000000000000000000000000000006001600160a01b031663c75ebb82306040518263ffffffff1660e01b8152600401611fbe9190612ffc565b600060405180830381865afa158015611fdb573d6000803e3d6000fd5b505050506040513d6000823e601f3d908101601f1916820160405261200391908101906133e8565b81519193509150806001600160401b0381111561202257612022613310565b60405190808252806020026020018201604052801561204b578160200160208202803683370190505b509650806001600160401b0381111561206657612066613310565b60405190808252806020026020018201604052801561208f578160200160208202803683370190505b50955060005b81811015612144578381815181106120af576120af6134ac565b60200260200101518882815181106120c9576120c96134ac565b60200260200101906001600160a01b031690816001600160a01b03168152505061211f85670de0b6b3a7640000858481518110612108576121086134ac565b60200260200101516127309092919063ffffffff16565b878281518110612131576121316134ac565b6020908102919091010152600101612095565b505050505050915091565b600a602052816000526040600020818154811061216b57600080fd5b6000918252602090912001546001600160a01b03169150829050565b6004546001600160a01b031633146121b2576040516330cd747160e01b815260040160405180910390fd5b60028110156121d457604051633378279360e01b815260040160405180910390fd5b826001600160a01b0316828260008181106121f1576121f16134ac565b90506020020160208101906122069190612f85565b6001600160a01b03161461222d57604051633378279360e01b815260040160405180910390fd5b6001600160a01b037f0000000000000000000000000000000000000000000000000000000000000000168282612264600182613217565b818110612273576122736134ac565b90506020020160208101906122889190612f85565b6001600160a01b0316146122af57604051633378279360e01b815260040160405180910390fd5b6001600160a01b0383166000908152600a602052604090206122d2908383612e23565b50826001600160a01b03167fdb3f5a788af65a638a0a2f1f6b882831094940f5498b2851dad477afcd1aed12838360405161230e9291906134c2565b60405180910390a2505050565b6004546001600160a01b03163314612346576040516330cd747160e01b815260040160405180910390fd5b6001600160a01b03811661236d57604051632a52b3c360e11b815260040160405180910390fd5b600480546001600160a01b038381166001600160a01b0319831681179093556040519116919082907f8be0079c531659141344cd1fd0a4f28419497f9722a3daafe3b4186f6b6457e090600090a35050565b6001600160a01b0381166000908152600a602090815260409182902080548351818402810184019094528084526060939283018282801561242957602002820191906000526020600020905b81546001600160a01b0316815260019091019060200180831161240b575b505050505090508051600003612442576108bf82612bb0565b919050565b6001600160a01b0382166000908152600a60209081526040808320805482518185028101850190935280835284938301828280156124ae57602002820191906000526020600020905b81546001600160a01b03168152600190910190602001808311612490575b5050505050905080516000036124ca576124c784612bb0565b90505b6002815110156124de5760009150506108bf565b60405163d06ca61f60e01b81526001600160a01b037f0000000000000000000000000000000000000000000000000000000000000000169063d06ca61f9061252c9086908590600401613505565b600060405180830381865afa92505050801561256a57506040513d6000823e601f3d908101601f191682016040526125679190810190613526565b60015b61257757600091506125a2565b80600182516125869190613217565b81518110612596576125966134ac565b60200260200101519250505b5092915050565b6002600054036125cc57604051633ee5aeb560e01b815260040160405180910390fd5b6002600055565b60006003546000036125e3575090565b6108bf6125ee6108c5565b600354849190612730565b600060035460000361260d57506000919050565b6040516370a0823160e01b81526000906001600160a01b037f000000000000000000000000000000000000000000000000000000000000000016906370a082319061265c903090600401612ffc565b602060405180830381865afa158015612679573d6000803e3d6000fd5b505050506040513d601f19601f8201168201806040525081019061269d91906131d5565b9050610f0f81600354856127309092919063ffffffff16565b6001600160a01b038216600090815260076020526040812080548392906126de908490613217565b9250508190555080600360008282546126f79190613217565b90915550506040518181526000906001600160a01b038416906000805160206135d0833981519152906020015b60405180910390a35050565b600082600019048411830215820261274757600080fd5b5091020490565b600060035460000361275e575090565b6108bf60035461276c6108c5565b849190612730565b80600360008282546127869190613204565b90915550506001600160a01b038216600090815260076020526040812080548392906127b3908490613204565b90915550506040518181526001600160a01b038316906000906000805160206135d083398151915290602001612724565b6001600160a01b0382166000908152600a602090815260408083208054825181850281018501909352808352849383018282801561284b57602002820191906000526020600020905b81546001600160a01b0316815260019091019060200180831161282d575b5050505050905080516000036128675761286484612bb0565b90505b6002815110806128cf57507f00000000000000000000000000000000000000000000000000000000000000006001600160a01b031681600183516128ab9190613217565b815181106128bb576128bb6134ac565b60200260200101516001600160a01b031614155b156128de5760009150506108bf565b60405163095ea7b360e01b81526001600160a01b0385169063095ea7b39061292c907f000000000000000000000000000000000000000000000000000000000000000090879060040161322a565b6020604051808303816000875af115801561294b573d6000803e3d6000fd5b505050506040513d601f19601f8201168201806040525081019061296f9190613243565b5060405163d06ca61f60e01b81526000906001600160a01b037f0000000000000000000000000000000000000000000000000000000000000000169063d06ca61f906129c19087908690600401613505565b600060405180830381865afa1580156129de573d6000803e3d6000fd5b505050506040513d6000823e601f3d908101601f19168201604052612a069190810190613526565b90506000612710600654612710612a1d9190613217565b8360018551612a2c9190613217565b81518110612a3c57612a3c6134ac565b6020026020010151612a4e919061355a565b612a589190613571565b90506001600160a01b037f0000000000000000000000000000000000000000000000000000000000000000166338ed173986838630612a994261012c613204565b6040518663ffffffff1660e01b8152600401612ab9959493929190613593565b6000604051808303816000875af1925050508015612af957506040513d6000823e601f3d908101601f19168201604052612af69190810190613526565b60015b612b065760009350612ba7565b8060018251612b159190613217565b81518110612b2557612b256134ac565b602002602001015194507f00000000000000000000000000000000000000000000000000000000000000006001600160a01b0316876001600160a01b03167f30b60ee4dc75c0fb04420331b13e9ad7f8ff8fc51eac9c97d36fb20ccbe09d668888604051612b9d929190918252602082015260400190565b60405180910390a3505b50505092915050565b60607f00000000000000000000000000000000000000000000000000000000000000006001600160a01b0316826001600160a01b031603612c645760408051600180825281830190925290602080830190803683370190505090507f000000000000000000000000000000000000000000000000000000000000000081600081518110612c3f57612c3f6134ac565b60200260200101906001600160a01b031690816001600160a01b031681525050919050565b7f00000000000000000000000000000000000000000000000000000000000000006001600160a01b0316826001600160a01b031603612d255760408051600280825260608201835290916020830190803683370190505090508181600081518110612cd157612cd16134ac565b60200260200101906001600160a01b031690816001600160a01b0316815250507f000000000000000000000000000000000000000000000000000000000000000081600181518110612c3f57612c3f6134ac565b6040805160038082526080820190925290602082016060803683370190505090508181600081518110612d5a57612d5a6134ac565b60200260200101906001600160a01b031690816001600160a01b0316815250507f000000000000000000000000000000000000000000000000000000000000000081600181518110612dae57612dae6134ac565b60200260200101906001600160a01b031690816001600160a01b0316815250507f000000000000000000000000000000000000000000000000000000000000000081600281518110612c3f57612c3f6134ac565b5080546000825590600052602060002090810190612e209190612e86565b50565b828054828255906000526020600020908101928215612e76579160200282015b82811115612e765781546001600160a01b0319166001600160a01b03843516178255602090920191600190910190612e43565b50612e82929150612e86565b5090565b5b80821115612e825760008155600101612e87565b6001600160a01b0381168114612e2057600080fd5b60008060408385031215612ec357600080fd5b823591506020830135612ed581612e9b565b809150509250929050565b600060208284031215612ef257600080fd5b81356001600160e01b031981168114610f0f57600080fd5b60006020808352835180602085015260005b81811015612f3857858101830151858201604001528201612f1c565b506000604082860101526040601f19601f8301168501019250505092915050565b60008060408385031215612f6c57600080fd5b8235612f7781612e9b565b946020939093013593505050565b600060208284031215612f9757600080fd5b8135610f0f81612e9b565b600060208284031215612fb457600080fd5b5035919050565b600080600060608486031215612fd057600080fd5b8335612fdb81612e9b565b92506020840135612feb81612e9b565b929592945050506040919091013590565b6001600160a01b0391909116815260200190565b60008060006060848603121561302557600080fd5b83359250602084013561303781612e9b565b9150604084013561304781612e9b565b809150509250925092565b60008151808452602080850194506020840160005b8381101561308c5781516001600160a01b031687529582019590820190600101613067565b509495945050505050565b6040815260006130aa6040830185613052565b82810360208481019190915284518083528582019282019060005b818110156130e1578451835293830193918301916001016130c5565b5090979650505050505050565b6000806040838503121561310157600080fd5b823561310c81612e9b565b91506020830135612ed581612e9b565b60008060006040848603121561313157600080fd5b833561313c81612e9b565b925060208401356001600160401b038082111561315857600080fd5b818601915086601f83011261316c57600080fd5b81358181111561317b57600080fd5b8760208260051b850101111561319057600080fd5b6020830194508093505050509250925092565b602081526000610f0f6020830184613052565b9283526001600160a01b03918216602084015216604082015260600190565b6000602082840312156131e757600080fd5b5051919050565b634e487b7160e01b600052601160045260246000fd5b808201808211156108bf576108bf6131ee565b818103818111156108bf576108bf6131ee565b6001600160a01b03929092168252602082015260400190565b60006020828403121561325557600080fd5b81518015158114610f0f57600080fd5b600181811c9082168061327957607f821691505b60208210810361329957634e487b7160e01b600052602260045260246000fd5b50919050565b6001600160a01b039384168152919092166020820152604081019190915260600190565b9182526001600160a01b0316602082015260400190565b6000602082840312156132ec57600080fd5b8151610f0f81612e9b565b600060018201613309576133096131ee565b5060010190565b634e487b7160e01b600052604160045260246000fd5b604051601f8201601f191681016001600160401b038111828210171561334e5761334e613310565b604052919050565b60006001600160401b0382111561336f5761336f613310565b5060051b60200190565b600082601f83011261338a57600080fd5b8151602061339f61339a83613356565b613326565b8083825260208201915060208460051b8701019350868411156133c157600080fd5b602086015b848110156133dd57805183529183019183016133c6565b509695505050505050565b600080604083850312156133fb57600080fd5b82516001600160401b038082111561341257600080fd5b818501915085601f83011261342657600080fd5b8151602061343661339a83613356565b82815260059290921b8401810191818101908984111561345557600080fd5b948201945b8386101561347c57855161346d81612e9b565b8252948201949082019061345a565b9188015191965090935050508082111561349557600080fd5b506134a285828601613379565b9150509250929050565b634e487b7160e01b600052603260045260246000fd5b60208082528181018390526000908460408401835b868110156133dd5782356134ea81612e9b565b6001600160a01b0316825291830191908301906001016134d7565b82815260406020820152600061351e6040830184613052565b949350505050565b60006020828403121561353857600080fd5b81516001600160401b0381111561354e57600080fd5b61351e84828501613379565b80820281158282048414176108bf576108bf6131ee565b60008261358e57634e487b7160e01b600052601260045260246000fd5b500490565b85815284602082015260a0604082015260006135b260a0830186613052565b6001600160a01b039490941660608301525060800152939250505056feddf252ad1be2c89b69c2b068fc378daa952ba7f163c4a11628f55a4df523b3efa264697066735822122089b6c9255626e4a7c471440583a2ed6330c9395e7b6e90282f9ae36eac616bf664736f6c63430008180033",
  "linkReferences": {},
  "deployedLinkReferences": {}
}