{
  "_format": "hh-sol-artifact-1",
  "contractName": "RewardsVault4626",
  "sourceName": "contracts/vaultV2/RewardsVault4626.sol",
  "abi": [
    {
      "inputs": [
        {
          "internalType": "contract IERC20",
          "name": "_asset",
          "type": "address"
        },
        {
          "internalType": "string",
          "name": "_name",
          "type": "string"
        },
        {
          "internalType": "string",
          "name": "_symbol",
          "type": "string"
        },
        {
          "internalType": "uint8",
          "name": "_decimals",
          "type": "uint8"
        },
        {
          "internalType": "uint256",
          "name": "_lockPeriod",
          "type": "uint256"
        },
        {
          "internalType": "address",
          "name": "_owner",
          "type": "address"
        }
      ],
      "stateMutability": "nonpayable",
      "type": "constructor"
    },
    {
      "anonymous": false,
      "inputs": [
        {
          "indexed": true,
          "internalType": "address",
          "name": "owner",
          "type": "address"
        },
        {
          "indexed": true,
          "internalType": "address",
          "name": "spender",
          "type": "address"
        },
        {
          "indexed": false,
          "internalType": "uint256",
          "name": "amount",
          "type": "uint256"
        }
      ],
      "name": "Approval",
      "type": "event"
    },
    {
      "anonymous": false,
      "inputs": [
        {
          "indexed": true,
          "internalType": "address",
          "name": "from",
          "type": "address"
        },
        {
          "indexed": true,
          "internalType": "address",
          "name": "to",
          "type": "address"
        },
        {
          "indexed": false,
          "internalType": "uint256",
          "name": "amount",
          "type": "uint256"
        },
        {
          "indexed": false,
          "internalType": "uint256",
          "name": "shares",
          "type": "uint256"
        }
      ],
      "name": "Deposit",
      "type": "event"
    },
    {
      "anonymous": false,
      "inputs": [
        {
          "indexed": true,
          "internalType": "address",
          "name": "previousOwner",
          "type": "address"
        },
        {
          "indexed": true,
          "internalType": "address",
          "name": "newOwner",
          "type": "address"
        }
      ],
      "name": "OwnershipTransferred",
      "type": "event"
    },
    {
      "anonymous": false,
      "inputs": [
        {
          "indexed": true,
          "internalType": "address",
          "name": "token",
          "type": "address"
        },
        {
          "indexed": false,
          "internalType": "uint256",
          "name": "amount",
          "type": "uint256"
        }
      ],
      "name": "RewardAdded",
      "type": "event"
    },
    {
      "anonymous": false,
      "inputs": [
        {
          "indexed": true,
          "internalType": "address",
          "name": "user",
          "type": "address"
        },
        {
          "indexed": true,
          "internalType": "address",
          "name": "token",
          "type": "address"
        },
        {
          "indexed": false,
          "internalType": "uint256",
          "name": "amount",
          "type": "uint256"
        }
      ],
      "name": "RewardClaimed",
      "type": "event"
    },
    {
      "anonymous": false,
      "inputs": [
        {
          "indexed": true,
          "internalType": "address",
          "name": "token",
          "type": "address"
        }
      ],
      "name": "RewardTokenRegistered",
      "type": "event"
    },
    {
      "anonymous": false,
      "inputs": [
        {
          "indexed": true,
          "internalType": "address",
          "name": "from",
          "type": "address"
        },
        {
          "indexed": true,
          "internalType": "address",
          "name": "to",
          "type": "address"
        },
        {
          "indexed": false,
          "internalType": "uint256",
          "name": "amount",
          "type": "uint256"
        }
      ],
      "name": "Transfer",
      "type": "event"
    },
    {
      "anonymous": false,
      "inputs": [
        {
          "indexed": true,
          "internalType": "address",
          "name": "from",
          "type": "address"
        },
        {
          "indexed": true,
          "internalType": "address",
          "name": "to",
          "type": "address"
        },
        {
          "indexed": false,
          "internalType": "uint256",
          "name": "amount",
          "type": "uint256"
        },
        {
          "indexed": false,
          "internalType": "uint256",
          "name": "shares",
          "type": "uint256"
        }
      ],
      "name": "Withdraw",
      "type": "event"
    },
    {
      "inputs": [],
      "name": "DOMAIN_SEPARATOR",
      "outputs": [
        {
          "internalType": "bytes32",
          "name": "",
          "type": "bytes32"
        }
      ],
      "stateMutability": "view",
      "type": "function"
    },
    {
      "inputs": [
        {
          "internalType": "address",
          "name": "token",
          "type": "address"
        },
        {
          "internalType": "uint256",
          "name": "amount",
          "type": "uint256"
        }
      ],
      "name": "addReward",
      "outputs": [],
      "stateMutability": "nonpayable",
      "type": "function"
    },
    {
      "inputs": [
        {
          "internalType": "address",
          "name": "",
          "type": "address"
        },
        {
          "internalType": "address",
          "name": "",
          "type": "address"
        }
      ],
      "name": "allowance",
      "outputs": [
        {
          "internalType": "uint256",
          "name": "",
          "type": "uint256"
        }
      ],
      "stateMutability": "view",
      "type": "function"
    },
    {
      "inputs": [
        {
          "internalType": "address",
          "name": "spender",
          "type": "address"
        },
        {
          "internalType": "uint256",
          "name": "amount",
          "type": "uint256"
        }
      ],
      "name": "approve",
      "outputs": [
        {
          "internalType": "bool",
          "name": "",
          "type": "bool"
        }
      ],
      "stateMutability": "nonpayable",
      "type": "function"
    },
    {
      "inputs": [],
      "name": "asset",
      "outputs": [
        {
          "internalType": "contract IERC20",
          "name": "",
          "type": "address"
        }
      ],
      "stateMutability": "view",
      "type": "function"
    },
    {
      "inputs": [
        {
          "internalType": "address",
          "name": "user",
          "type": "address"
        }
      ],
      "name": "assetsOf",
      "outputs": [
        {
          "internalType": "uint256",
          "name": "",
          "type": "uint256"
        }
      ],
      "stateMutability": "view",
      "type": "function"
    },
    {
      "inputs": [],
      "name": "assetsPerShare",
      "outputs": [
        {
          "internalType": "uint256",
          "name": "",
          "type": "uint256"
        }
      ],
      "stateMutability": "view",
      "type": "function"
    },
    {
      "inputs": [
        {
          "internalType": "address",
          "name": "",
          "type": "address"
        }
      ],
      "name": "balanceOf",
      "outputs": [
        {
          "internalType": "uint256",
          "name": "",
          "type": "uint256"
        }
      ],
      "stateMutability": "view",
      "type": "function"
    },
    {
      "inputs": [],
      "name": "claimAllRewards",
      "outputs": [],
      "stateMutability": "nonpayable",
      "type": "function"
    },
    {
      "inputs": [
        {
          "internalType": "address[]",
          "name": "tokens",
          "type": "address[]"
        }
      ],
      "name": "claimSpecificsReward",
      "outputs": [
        {
          "internalType": "uint256",
          "name": "",
          "type": "uint256"
        }
      ],
      "stateMutability": "nonpayable",
      "type": "function"
    },
    {
      "inputs": [],
      "name": "decimals",
      "outputs": [
        {
          "internalType": "uint8",
          "name": "",
          "type": "uint8"
        }
      ],
      "stateMutability": "view",
      "type": "function"
    },
    {
      "inputs": [
        {
          "internalType": "uint256",
          "name": "assets",
          "type": "uint256"
        },
        {
          "internalType": "address",
          "name": "receiver",
          "type": "address"
        }
      ],
      "name": "deposit",
      "outputs": [
        {
          "internalType": "uint256",
          "name": "shares",
          "type": "uint256"
        }
      ],
      "stateMutability": "nonpayable",
      "type": "function"
    },
    {
      "inputs": [
        {
          "internalType": "address",
          "name": "user",
          "type": "address"
        },
        {
          "internalType": "address",
          "name": "token",
          "type": "address"
        }
      ],
      "name": "getClaimableReward",
      "outputs": [
        {
          "internalType": "uint256",
          "name": "",
          "type": "uint256"
        }
      ],
      "stateMutability": "view",
      "type": "function"
    },
    {
      "inputs": [
        {
          "internalType": "address",
          "name": "user",
          "type": "address"
        }
      ],
      "name": "getLockedAmount",
      "outputs": [
        {
          "internalType": "uint256",
          "name": "",
          "type": "uint256"
        }
      ],
      "stateMutability": "view",
      "type": "function"
    },
    {
      "inputs": [],
      "name": "getRewardTokensLength",
      "outputs": [
        {
          "internalType": "uint256",
          "name": "",
          "type": "uint256"
        }
      ],
      "stateMutability": "view",
      "type": "function"
    },
    {
      "inputs": [],
      "name": "getTVL",
      "outputs": [
        {
          "internalType": "uint256",
          "name": "",
          "type": "uint256"
        }
      ],
      "stateMutability": "view",
      "type": "function"
    },
    {
      "inputs": [
        {
          "internalType": "address",
          "name": "user",
          "type": "address"
        }
      ],
      "name": "getTimeUntilUnlock",
      "outputs": [
        {
          "internalType": "uint256",
          "name": "",
          "type": "uint256"
        }
      ],
      "stateMutability": "view",
      "type": "function"
    },
    {
      "inputs": [
        {
          "internalType": "address",
          "name": "user",
          "type": "address"
        }
      ],
      "name": "isUnlocked",
      "outputs": [
        {
          "internalType": "bool",
          "name": "",
          "type": "bool"
        }
      ],
      "stateMutability": "view",
      "type": "function"
    },
    {
      "inputs": [],
      "name": "lockPeriod",
      "outputs": [
        {
          "internalType": "uint256",
          "name": "",
          "type": "uint256"
        }
      ],
      "stateMutability": "view",
      "type": "function"
    },
    {
      "inputs": [
        {
          "internalType": "address",
          "name": "",
          "type": "address"
        }
      ],
      "name": "maxDeposit",
      "outputs": [
        {
          "internalType": "uint256",
          "name": "",
          "type": "uint256"
        }
      ],
      "stateMutability": "pure",
      "type": "function"
    },
    {
      "inputs": [
        {
          "internalType": "address",
          "name": "",
          "type": "address"
        }
      ],
      "name": "maxMint",
      "outputs": [
        {
          "internalType": "uint256",
          "name": "",
          "type": "uint256"
        }
      ],
      "stateMutability": "pure",
      "type": "function"
    },
    {
      "inputs": [
        {
          "internalType": "address",
          "name": "owner_",
          "type": "address"
        }
      ],
      "name": "maxRedeem",
      "outputs": [
        {
          "internalType": "uint256",
          "name": "",
          "type": "uint256"
        }
      ],
      "stateMutability": "view",
      "type": "function"
    },
    {
      "inputs": [
        {
          "internalType": "address",
          "name": "owner_",
          "type": "address"
        }
      ],
      "name": "maxWithdraw",
      "outputs": [
        {
          "internalType": "uint256",
          "name": "",
          "type": "uint256"
        }
      ],
      "stateMutability": "view",
      "type": "function"
    },
    {
      "inputs": [
        {
          "internalType": "uint256",
          "name": "shares",
          "type": "uint256"
        },
        {
          "internalType": "address",
          "name": "receiver",
          "type": "address"
        }
      ],
      "name": "mint",
      "outputs": [
        {
          "internalType": "uint256",
          "name": "assets",
          "type": "uint256"
        }
      ],
      "stateMutability": "nonpayable",
      "type": "function"
    },
    {
      "inputs": [],
      "name": "name",
      "outputs": [
        {
          "internalType": "string",
          "name": "",
          "type": "string"
        }
      ],
      "stateMutability": "view",
      "type": "function"
    },
    {
      "inputs": [
        {
          "internalType": "address",
          "name": "",
          "type": "address"
        }
      ],
      "name": "nonces",
      "outputs": [
        {
          "internalType": "uint256",
          "name": "",
          "type": "uint256"
        }
      ],
      "stateMutability": "view",
      "type": "function"
    },
    {
      "inputs": [],
      "name": "owner",
      "outputs": [
        {
          "internalType": "address",
          "name": "",
          "type": "address"
        }
      ],
      "stateMutability": "view",
      "type": "function"
    },
    {
      "inputs": [
        {
          "internalType": "address",
          "name": "owner",
          "type": "address"
        },
        {
          "internalType": "address",
          "name": "spender",
          "type": "address"
        },
        {
          "internalType": "uint256",
          "name": "value",
          "type": "uint256"
        },
        {
          "internalType": "uint256",
          "name": "deadline",
          "type": "uint256"
        },
        {
          "internalType": "uint8",
          "name": "v",
          "type": "uint8"
        },
        {
          "internalType": "bytes32",
          "name": "r",
          "type": "bytes32"
        },
        {
          "internalType": "bytes32",
          "name": "s",
          "type": "bytes32"
        }
      ],
      "name": "permit",
      "outputs": [],
      "stateMutability": "nonpayable",
      "type": "function"
    },
    {
      "inputs": [
        {
          "internalType": "uint256",
          "name": "assets",
          "type": "uint256"
        }
      ],
      "name": "previewDeposit",
      "outputs": [
        {
          "internalType": "uint256",
          "name": "",
          "type": "uint256"
        }
      ],
      "stateMutability": "view",
      "type": "function"
    },
    {
      "inputs": [
        {
          "internalType": "uint256",
          "name": "shares",
          "type": "uint256"
        }
      ],
      "name": "previewMint",
      "outputs": [
        {
          "internalType": "uint256",
          "name": "",
          "type": "uint256"
        }
      ],
      "stateMutability": "view",
      "type": "function"
    },
    {
      "inputs": [
        {
          "internalType": "uint256",
          "name": "shares",
          "type": "uint256"
        }
      ],
      "name": "previewRedeem",
      "outputs": [
        {
          "internalType": "uint256",
          "name": "",
          "type": "uint256"
        }
      ],
      "stateMutability": "view",
      "type": "function"
    },
    {
      "inputs": [
        {
          "internalType": "uint256",
          "name": "assets",
          "type": "uint256"
        }
      ],
      "name": "previewWithdraw",
      "outputs": [
        {
          "internalType": "uint256",
          "name": "",
          "type": "uint256"
        }
      ],
      "stateMutability": "view",
      "type": "function"
    },
    {
      "inputs": [
        {
          "internalType": "uint256",
          "name": "shares",
          "type": "uint256"
        },
        {
          "internalType": "address",
          "name": "receiver",
          "type": "address"
        },
        {
          "internalType": "address",
          "name": "owner_",
          "type": "address"
        }
      ],
      "name": "redeem",
      "outputs": [
        {
          "internalType": "uint256",
          "name": "assets",
          "type": "uint256"
        }
      ],
      "stateMutability": "nonpayable",
      "type": "function"
    },
    {
      "inputs": [
        {
          "internalType": "address",
          "name": "",
          "type": "address"
        }
      ],
      "name": "rewardInfo",
      "outputs": [
        {
          "internalType": "uint256",
          "name": "amount",
          "type": "uint256"
        },
        {
          "internalType": "bool",
          "name": "exists",
          "type": "bool"
        }
      ],
      "stateMutability": "view",
      "type": "function"
    },
    {
      "inputs": [
        {
          "internalType": "uint256",
          "name": "",
          "type": "uint256"
        }
      ],
      "name": "rewardTokens",
      "outputs": [
        {
          "internalType": "address",
          "name": "",
          "type": "address"
        }
      ],
      "stateMutability": "view",
      "type": "function"
    },
    {
      "inputs": [],
      "name": "symbol",
      "outputs": [
        {
          "internalType": "string",
          "name": "",
          "type": "string"
        }
      ],
      "stateMutability": "view",
      "type": "function"
    },
    {
      "inputs": [],
      "name": "totalAssets",
      "outputs": [
        {
          "internalType": "uint256",
          "name": "",
          "type": "uint256"
        }
      ],
      "stateMutability": "view",
      "type": "function"
    },
    {
      "inputs": [],
      "name": "totalSupply",
      "outputs": [
        {
          "internalType": "uint256",
          "name": "",
          "type": "uint256"
        }
      ],
      "stateMutability": "view",
      "type": "function"
    },
    {
      "inputs": [
        {
          "internalType": "address",
          "name": "to",
          "type": "address"
        },
        {
          "internalType": "uint256",
          "name": "amount",
          "type": "uint256"
        }
      ],
      "name": "transfer",
      "outputs": [
        {
          "internalType": "bool",
          "name": "",
          "type": "bool"
        }
      ],
      "stateMutability": "nonpayable",
      "type": "function"
    },
    {
      "inputs": [
        {
          "internalType": "address",
          "name": "from",
          "type": "address"
        },
        {
          "internalType": "address",
          "name": "to",
          "type": "address"
        },
        {
          "internalType": "uint256",
          "name": "amount",
          "type": "uint256"
        }
      ],
      "name": "transferFrom",
      "outputs": [
        {
          "internalType": "bool",
          "name": "",
          "type": "bool"
        }
      ],
      "stateMutability": "nonpayable",
      "type": "function"
    },
    {
      "inputs": [
        {
          "internalType": "address",
          "name": "newOwner",
          "type": "address"
        }
      ],
      "name": "transferOwnership",
      "outputs": [],
      "stateMutability": "nonpayable",
      "type": "function"
    },
    {
      "inputs": [
        {
          "internalType": "uint256",
          "name": "startPosition",
          "type": "uint256"
        },
        {
          "internalType": "uint256",
          "name": "assets",
          "type": "uint256"
        }
      ],
      "name": "unlock",
      "outputs": [
        {
          "internalType": "uint256",
          "name": "",
          "type": "uint256"
        },
        {
          "internalType": "uint256",
          "name": "",
          "type": "uint256"
        },
        {
          "internalType": "uint256",
          "name": "",
          "type": "uint256"
        }
      ],
      "stateMutability": "nonpayable",
      "type": "function"
    },
    {
      "inputs": [
        {
          "internalType": "address",
          "name": "",
          "type": "address"
        }
      ],
      "name": "userInfo",
      "outputs": [
        {
          "internalType": "uint256",
          "name": "lockTimeStart",
          "type": "uint256"
        },
        {
          "internalType": "bool",
          "name": "exists",
          "type": "bool"
        }
      ],
      "stateMutability": "view",
      "type": "function"
    },
    {
      "inputs": [
        {
          "internalType": "uint256",
          "name": "assets",
          "type": "uint256"
        },
        {
          "internalType": "address",
          "name": "receiver",
          "type": "address"
        },
        {
          "internalType": "address",
          "name": "owner_",
          "type": "address"
        }
      ],
      "name": "withdraw",
      "outputs": [
        {
          "internalType": "uint256",
          "name": "shares",
          "type": "uint256"
        }
      ],
      "stateMutability": "nonpayable",
      "type": "function"
    }
  ],
  "bytecode": "0x6101206040523480156200001257600080fd5b5060405162002de738038062002de7833981016040819052620000359162000223565b84848460006200004684826200036d565b5060016200005583826200036d565b5060ff81166080524660a0526200006b620000a6565b60c0525050506001600160a01b0395861660e05261010091909152600680546001600160a01b031916919095161790935550620004b7915050565b60007f8b73c3c69bb8fe3d512ecc4cf759cc79239f7b179b0ffacaa9a75d522b39400f6000604051620000da919062000439565b6040805191829003822060208301939093528101919091527fc89efdaa54c0f20c7adf612882df0950f5a951637e0307cdcb4c672f298b8bc660608201524660808201523060a082015260c00160405160208183030381529060405280519060200120905090565b6001600160a01b03811681146200015857600080fd5b50565b634e487b7160e01b600052604160045260246000fd5b600082601f8301126200018357600080fd5b81516001600160401b0380821115620001a057620001a06200015b565b604051601f8301601f19908116603f01168101908282118183101715620001cb57620001cb6200015b565b8160405283815260209250866020858801011115620001e957600080fd5b600091505b838210156200020d5785820183015181830184015290820190620001ee565b6000602085830101528094505050505092915050565b60008060008060008060c087890312156200023d57600080fd5b86516200024a8162000142565b60208801519096506001600160401b03808211156200026857600080fd5b620002768a838b0162000171565b965060408901519150808211156200028d57600080fd5b506200029c89828a0162000171565b945050606087015160ff81168114620002b457600080fd5b608088015160a08901519194509250620002ce8162000142565b809150509295509295509295565b600181811c90821680620002f157607f821691505b6020821081036200031257634e487b7160e01b600052602260045260246000fd5b50919050565b601f82111562000368576000816000526020600020601f850160051c81016020861015620003435750805b601f850160051c820191505b8181101562000364578281556001016200034f565b5050505b505050565b81516001600160401b038111156200038957620003896200015b565b620003a1816200039a8454620002dc565b8462000318565b602080601f831160018114620003d95760008415620003c05750858301515b600019600386901b1c1916600185901b17855562000364565b600085815260208120601f198616915b828110156200040a57888601518255948401946001909101908401620003e9565b5085821015620004295787850151600019600388901b60f8161c191681555b5050505050600190811b01905550565b60008083546200044981620002dc565b600182811680156200046457600181146200047a57620004ab565b60ff1984168752821515830287019450620004ab565b8760005260208060002060005b85811015620004a25781548a82015290840190820162000487565b50505082870194505b50929695505050505050565b60805160a05160c05160e051610100516128a5620005426000396000818161040e01528181610c87015281816118470152611a270152600081816103cf01528181610bad01528181610d6601528181610f62015281816112980152818161148c0152611eac015260006109b201526000610982015260008181610386015261094e01526128a56000f3fe608060405234801561001057600080fd5b50600436106102745760003560e01c806370a0823111610151578063b460af94116100c3578063d505accf11610087578063d505accf146105e4578063d905777e146105f7578063dd62ed3e1461060a578063e231dc2714610635578063ef8b30f714610648578063f2fde38b1461065b57600080fd5b8063b460af9414610581578063ba08765214610594578063c63d75b614610430578063cbecf6b5146105a7578063ce96cb77146105d157600080fd5b806394bf804d1161011557806394bf804d1461052557806395d89b411461053857806397b3fcaa146105405780639feb8f5014610548578063a9059cbb1461055b578063b3d7f6b91461056e57600080fd5b806370a08231146104ac5780637bb7bed1146104cc5780637ecebe00146104df5780638da5cb5b146104ff578063929ec5371461051257600080fd5b80632c62fa10116101ea5780633fd8b02f116101ae5780633fd8b02f14610409578063402d267d146104305780634cdad5061461044557806357600c4a146104585780635bfadb241461046b5780636e553f651461049957600080fd5b80632c62fa101461036e578063313ce5671461038157806335d16e17146103ba5780633644e515146103c257806338d52e0f146103ca57600080fd5b806318160ddd1161023c57806318160ddd146102e55780631959a002146102ee57806321e91dea1461032d57806323b872dd146103405780632521cdd8146103535780632bbf532a1461035b57600080fd5b806301e1d1141461027957806306fdde0314610290578063095ea7b3146102a55780630a28a477146102c85780630b83a727146102db575b600080fd5b6008545b6040519081526020015b60405180910390f35b61029861066e565b6040516102879190612227565b6102b86102b3366004612292565b6106fc565b6040519015158152602001610287565b61027d6102d63660046122bc565b610769565b6102e3610774565b005b61027d60025481565b6103186102fc3660046122d5565b6009602052600090815260409020805460029091015460ff1682565b60408051928352901515602083015201610287565b61027d61033b3660046122f0565b61077f565b6102b861034e366004612323565b610837565b60075461027d565b6102b86103693660046122d5565b610917565b61027d61037c3660046122d5565b610922565b6103a87f000000000000000000000000000000000000000000000000000000000000000081565b60405160ff9091168152602001610287565b61027d610944565b61027d61097e565b6103f17f000000000000000000000000000000000000000000000000000000000000000081565b6040516001600160a01b039091168152602001610287565b61027d7f000000000000000000000000000000000000000000000000000000000000000081565b61027d61043e3660046122d5565b5060001990565b61027d6104533660046122bc565b6109d4565b61027d610466366004612375565b6109df565b61047e61047936600461243a565b610a1d565b60408051938452602084019290925290820152606001610287565b61027d6104a736600461245c565b610cae565b61027d6104ba3660046122d5565b60036020526000908152604090205481565b6103f16104da3660046122bc565b610ec1565b61027d6104ed3660046122d5565b60056020526000908152604090205481565b6006546103f1906001600160a01b031681565b61027d6105203660046122d5565b610eeb565b61027d61053336600461245c565b610ef6565b6102986110b3565b61027d6110c0565b6102e3610556366004612292565b6110cb565b6102b8610569366004612292565b611103565b61027d61057c3660046122bc565b611169565b61027d61058f36600461247f565b611174565b61027d6105a236600461247f565b61136a565b6103186105b53660046122d5565b600a602052600090815260409020805460019091015460ff1682565b61027d6105df3660046122d5565b611553565b6102e36105f23660046124bb565b61158c565b61027d6106053660046122d5565b6117ca565b61027d6106183660046122f0565b600460209081526000928352604080842090915290825290205481565b61027d6106433660046122d5565b6117fd565b61027d6106563660046122bc565b61188f565b6102e36106693660046122d5565b61189a565b6000805461067b9061252e565b80601f01602080910402602001604051908101604052809291908181526020018280546106a79061252e565b80156106f45780601f106106c9576101008083540402835291602001916106f4565b820191906000526020600020905b8154815290600101906020018083116106d757829003601f168201915b505050505081565b3360008181526004602090815260408083206001600160a01b038716808552925280832085905551919290917f8c5be1e5ebec7d5bd14f71427d1e84f3dd0314c0f7b2291e5b200ac8c7c3b925906107579086815260200190565b60405180910390a35060015b92915050565b60006107638261196c565b61077d33611993565b565b6001600160a01b0381166000908152600a602052604081206001015460ff1615806107c057506001600160a01b038316600090815260036020526040902054155b156107cd57506000610763565b6001600160a01b038083166000818152600a6020908152604080832054948816808452600983528184209484526001909401825280832054938352600390915290205461082e90670de0b6b3a7640000610827848661257e565b91906119bf565b95945050505050565b6001600160a01b038316600090815260046020908152604080832033845290915281205460001981146108935761086e838261257e565b6001600160a01b03861660009081526004602090815260408083203384529091529020555b6001600160a01b038516600090815260036020526040812080548592906108bb90849061257e565b90915550506001600160a01b0380851660008181526003602052604090819020805487019055519091871690600080516020612850833981519152906109049087815260200190565b60405180910390a3506001949350505050565b6000610763826119dd565b6001600160a01b03811660009081526003602052604081205461076390611a55565b60006109796109747f0000000000000000000000000000000000000000000000000000000000000000600a612675565b611a55565b905090565b60007f000000000000000000000000000000000000000000000000000000000000000046146109af57610979611a7c565b507f000000000000000000000000000000000000000000000000000000000000000090565b600061076382611a55565b6000805b8251811015610a1757610a0f33848381518110610a0257610a02612684565b6020026020010151611b16565b6001016109e3565b50505190565b336000908152600960205260408120600201548190819060ff16610a7f5760405162461bcd60e51b81526020600482015260146024820152735573657220686173206e6f206465706f7369747360601b60448201526064015b60405180910390fd5b610a88336119dd565b610b055760405162461bcd60e51b815260206004820152604260248201527f596f752063616e277420756e6c6f636b20796f757220746f6b656e206265636160448201527f75736520746865206c6f636b20706572696f64206973206e6f74207265616368606482015261195960f21b608482015260a401610a76565b6000610b1286600a61269a565b600754909150811115610b2457506007545b855b81811015610b6757610b5f3360078381548110610b4557610b45612684565b6000918252602090912001546001600160a01b0316611b16565b600101610b26565b506000610b7386610769565b9050610b7f3382611cdc565b8560086000828254610b91919061257e565b909155505060405163a9059cbb60e01b81526001600160a01b037f0000000000000000000000000000000000000000000000000000000000000000169063a9059cbb90610be49033908a906004016126ad565b6020604051808303816000875af1158015610c03573d6000803e3d6000fd5b505050506040513d601f19601f82011682018060405250810190610c2791906126c6565b610c435760405162461bcd60e51b8152600401610a76906126e8565b604080518781526020810183905233918291600080516020612830833981519152910160405180910390a350503360009081526009602052604090205442969095507f0000000000000000000000000000000000000000000000000000000000000000945092505050565b6000808311610cf25760405162461bcd60e51b815260206004820152601060248201526f043616e6e6f74206465706f73697420360841b6044820152606401610a76565b6001600160a01b038216610d3b5760405162461bcd60e51b815260206004820152601060248201526f24b73b30b634b2103932b1b2b4bb32b960811b6044820152606401610a76565b610d448361188f565b9050610d4f82611d46565b6040516323b872dd60e01b81526001600160a01b037f000000000000000000000000000000000000000000000000000000000000000016906323b872dd90610d9f90339030908890600401612711565b6020604051808303816000875af1158015610dbe573d6000803e3d6000fd5b505050506040513d601f19601f82011682018060405250810190610de291906126c6565b610dfe5760405162461bcd60e51b8152600401610a76906126e8565b610e088282611d98565b8260086000828254610e1a919061269a565b90915550506001600160a01b03821660009081526009602052604090206002015460ff16610e74576001600160a01b0382166000908152600960205260409020428155600201805460ff19166001179055610e7482611dea565b60408051848152602081018390526001600160a01b0384169133917fdcbc1c05240f31ff3ad067ef1ee35ce4997762752e3a095284754544f4c709d791015b60405180910390a392915050565b60078181548110610ed157600080fd5b6000918252602090912001546001600160a01b0316905081565b600061076382610922565b6000808311610f375760405162461bcd60e51b815260206004820152600d60248201526c043616e6e6f74206d696e74203609c1b6044820152606401610a76565b610f4083611169565b9050610f4b82611d46565b6040516323b872dd60e01b81526001600160a01b037f000000000000000000000000000000000000000000000000000000000000000016906323b872dd90610f9b90339030908690600401612711565b6020604051808303816000875af1158015610fba573d6000803e3d6000fd5b505050506040513d601f19601f82011682018060405250810190610fde91906126c6565b610ffa5760405162461bcd60e51b8152600401610a76906126e8565b6110048284611d98565b8060086000828254611016919061269a565b90915550506001600160a01b03821660009081526009602052604090206002015460ff16611070576001600160a01b0382166000908152600960205260409020428155600201805460ff1916600117905561107082611dea565b60408051828152602081018590526001600160a01b0384169133917fdcbc1c05240f31ff3ad067ef1ee35ce4997762752e3a095284754544f4c709d79101610eb3565b6001805461067b9061252e565b600061097960085490565b6006546001600160a01b031633146110f55760405162461bcd60e51b8152600401610a7690612735565b6110ff8282611e5c565b5050565b3360009081526003602052604081208054839190839061112490849061257e565b90915550506001600160a01b03831660008181526003602052604090819020805485019055513390600080516020612850833981519152906107579086815260200190565b6000610763826121b3565b60008084116111b95760405162461bcd60e51b8152602060048201526011602482015270043616e6e6f74207769746864726177203607c1b6044820152606401610a76565b6111c2826119dd565b6111de5760405162461bcd60e51b8152600401610a769061275d565b6111e784610769565b9050336001600160a01b03831614611257576001600160a01b0382166000908152600460209081526040808320338452909152902054600019811461125557611230828261257e565b6001600160a01b03841660009081526004602090815260408083203384529091529020555b505b61126082611993565b61126a8282611cdc565b836008600082825461127c919061257e565b909155505060405163a9059cbb60e01b81526001600160a01b037f0000000000000000000000000000000000000000000000000000000000000000169063a9059cbb906112cf90869088906004016126ad565b6020604051808303816000875af11580156112ee573d6000803e3d6000fd5b505050506040513d601f19601f8201168201806040525081019061131291906126c6565b61132e5760405162461bcd60e51b8152600401610a76906126e8565b60408051858152602081018390526001600160a01b03851691339160008051602061283083398151915291015b60405180910390a39392505050565b60008084116113ad5760405162461bcd60e51b815260206004820152600f60248201526e043616e6e6f742072656465656d203608c1b6044820152606401610a76565b6113b6826119dd565b6113d25760405162461bcd60e51b8152600401610a769061275d565b6113db846109d4565b9050336001600160a01b0383161461144b576001600160a01b0382166000908152600460209081526040808320338452909152902054600019811461144957611424858261257e565b6001600160a01b03841660009081526004602090815260408083203384529091529020555b505b61145482611993565b61145e8285611cdc565b8060086000828254611470919061257e565b909155505060405163a9059cbb60e01b81526001600160a01b037f0000000000000000000000000000000000000000000000000000000000000000169063a9059cbb906114c390869085906004016126ad565b6020604051808303816000875af11580156114e2573d6000803e3d6000fd5b505050506040513d601f19601f8201168201806040525081019061150691906126c6565b6115225760405162461bcd60e51b8152600401610a76906126e8565b60408051828152602081018690526001600160a01b038516913391600080516020612830833981519152910161135b565b600061155e826119dd565b61156a57506000919050565b6001600160a01b03821660009081526003602052604090205461076390611a55565b428410156115d65760405162461bcd60e51b815260206004820152601760248201527614115493525517d11150511312539157d1561412549151604a1b6044820152606401610a76565b600060016115e261097e565b6001600160a01b038a811660008181526005602090815260409182902080546001810190915582517f6e71edae12b1b97f4d1f60370fef10105fa2faae0126114a169c64845d6126c98184015280840194909452938d166060840152608083018c905260a083019390935260c08083018b90528151808403909101815260e08301909152805192019190912061190160f01b6101008301526101028201929092526101228101919091526101420160408051601f198184030181528282528051602091820120600084529083018083525260ff871690820152606081018590526080810184905260a0016020604051602081039080840390855afa1580156116ee573d6000803e3d6000fd5b5050604051601f1901519150506001600160a01b038116158015906117245750876001600160a01b0316816001600160a01b0316145b6117615760405162461bcd60e51b815260206004820152600e60248201526d24a72b20a624a22fa9a4a3a722a960911b6044820152606401610a76565b6001600160a01b0390811660009081526004602090815260408083208a8516808552908352928190208990555188815291928a16917f8c5be1e5ebec7d5bd14f71427d1e84f3dd0314c0f7b2291e5b200ac8c7c3b925910160405180910390a350505050505050565b60006117d5826119dd565b6117e157506000919050565b506001600160a01b031660009081526003602052604090205490565b6001600160a01b03811660009081526009602052604081206002015460ff1661182857506000919050565b6001600160a01b03821660009081526009602052604081205461186c907f00000000000000000000000000000000000000000000000000000000000000009061269a565b905080421061187e5750600092915050565b611888428261257e565b9392505050565b6000610763826121da565b6006546001600160a01b031633146118c45760405162461bcd60e51b8152600401610a7690612735565b6001600160a01b03811661191a5760405162461bcd60e51b815260206004820181905260248201527f4e6577206f776e65722063616e6e6f74206265207a65726f20616464726573736044820152606401610a76565b600680546001600160a01b038381166001600160a01b0319831681179093556040519116919082907f8be0079c531659141344cd1fd0a4f28419497f9722a3daafe3b4186f6b6457e090600090a35050565b600060025460000361197c575090565b61076360025461198b60085490565b849190612201565b60005b6007548110156110ff576119b78260078381548110610b4557610b45612684565b600101611996565b60008260001904841183021582026119d657600080fd5b5091020490565b6001600160a01b03811660009081526009602052604081206002015460ff16611a0857506001919050565b6001600160a01b038216600090815260096020526040902054611a4c907f00000000000000000000000000000000000000000000000000000000000000009061269a565b42101592915050565b6000600254600003611a65575090565b610763611a7160085490565b6002548491906119bf565b60007f8b73c3c69bb8fe3d512ecc4cf759cc79239f7b179b0ffacaa9a75d522b39400f6000604051611aae919061278e565b6040805191829003822060208301939093528101919091527fc89efdaa54c0f20c7adf612882df0950f5a951637e0307cdcb4c672f298b8bc660608201524660808201523060a082015260c00160405160208183030381529060405280519060200120905090565b6001600160a01b0381166000908152600a602052604090206001015460ff161580611b5757506001600160a01b038216600090815260036020526040902054155b15611b60575050565b6001600160a01b038082166000818152600a602090815260408083205494871683526009825280832093835260019093019052205480821115611cd6576001600160a01b038416600090815260036020526040812054611bcd90670de0b6b3a7640000610827858761257e565b90508015611cd4576001600160a01b0380861660009081526009602090815260408083209388168084526001909401909152908190208590555163a9059cbb60e01b815263a9059cbb90611c2790889085906004016126ad565b6020604051808303816000875af1158015611c46573d6000803e3d6000fd5b505050506040513d601f19601f82011682018060405250810190611c6a91906126c6565b611c865760405162461bcd60e51b8152600401610a76906126e8565b836001600160a01b0316856001600160a01b03167f0aa4d283470c904c551d18bb894d37e17674920f3261a7f854be501e25f421b783604051611ccb91815260200190565b60405180910390a35b505b50505050565b6001600160a01b03821660009081526003602052604081208054839290611d0490849061257e565b90915550506002805482900390556040518181526000906001600160a01b03841690600080516020612850833981519152906020015b60405180910390a35050565b6001600160a01b03811660009081526009602052604090206002015460ff16611d6c5750565b60005b6007548110156110ff57611d908260078381548110610b4557610b45612684565b600101611d6f565b8060026000828254611daa919061269a565b90915550506001600160a01b0382166000818152600360209081526040808320805486019055518481526000805160206128508339815191529101611d3a565b60005b6007548110156110ff57600060078281548110611e0c57611e0c612684565b60009182526020808320909101546001600160a01b03908116808452600a835260408085205492881685526009845280852091855260019182019093529190922091909155919091019050611ded565b6001600160a01b038216611eaa5760405162461bcd60e51b8152602060048201526015602482015274496e76616c696420746f6b656e206164647265737360581b6044820152606401610a76565b7f00000000000000000000000000000000000000000000000000000000000000006001600160a01b0316826001600160a01b031603611f395760405162461bcd60e51b815260206004820152602560248201527f43616e6e6f742061646420756e6465726c79696e672061737365742061732072604482015264195dd85c9960da1b6064820152608401610a76565b60008111611f895760405162461bcd60e51b815260206004820152601d60248201527f416d6f756e74206d7573742062652067726561746572207468616e20300000006044820152606401610a76565b600060025411611fd25760405162461bcd60e51b8152602060048201526014602482015273139bc81cda185c995cc81b5a5b9d1959081e595d60621b6044820152606401610a76565b6002548290600090611fef908490670de0b6b3a7640000906119bf565b6001600160a01b0385166000908152600a602052604090206001015490915060ff166120ad576007805460018082019092557fa66cc928b5edb82af9bd49922954155ab7b0942694bea4ce44661d9a8736c6880180546001600160a01b0319166001600160a01b0387169081179091556000818152600a6020526040808220808501805460ff191690951790945592849055915190917fce34593ca634648919e160816626a2dac47222f33d18bd1c49154fc50b929c1791a26120db565b6001600160a01b0384166000908152600a6020526040812080548392906120d590849061269a565b90915550505b6040516323b872dd60e01b81526001600160a01b038316906323b872dd9061210b90339030908890600401612711565b6020604051808303816000875af115801561212a573d6000803e3d6000fd5b505050506040513d601f19601f8201168201806040525081019061214e91906126c6565b61216a5760405162461bcd60e51b8152600401610a76906126e8565b836001600160a01b03167fac24935fd910bc682b5ccb1a07b718cadf8cf2f6d1404c4f3ddc3662dae40e29846040516121a591815260200190565b60405180910390a250505050565b60006002546000036121c3575090565b6107636121cf60085490565b600254849190612201565b60006002546000036121ea575090565b6107636002546121f960085490565b8491906119bf565b600082600019048411830215820261221857600080fd5b50910281810615159190040190565b60006020808352835180602085015260005b8181101561225557858101830151858201604001528201612239565b506000604082860101526040601f19601f8301168501019250505092915050565b80356001600160a01b038116811461228d57600080fd5b919050565b600080604083850312156122a557600080fd5b6122ae83612276565b946020939093013593505050565b6000602082840312156122ce57600080fd5b5035919050565b6000602082840312156122e757600080fd5b61188882612276565b6000806040838503121561230357600080fd5b61230c83612276565b915061231a60208401612276565b90509250929050565b60008060006060848603121561233857600080fd5b61234184612276565b925061234f60208501612276565b9150604084013590509250925092565b634e487b7160e01b600052604160045260246000fd5b6000602080838503121561238857600080fd5b823567ffffffffffffffff808211156123a057600080fd5b818501915085601f8301126123b457600080fd5b8135818111156123c6576123c661235f565b8060051b604051601f19603f830116810181811085821117156123eb576123eb61235f565b60405291825284820192508381018501918883111561240957600080fd5b938501935b8285101561242e5761241f85612276565b8452938501939285019261240e565b98975050505050505050565b6000806040838503121561244d57600080fd5b50508035926020909101359150565b6000806040838503121561246f57600080fd5b8235915061231a60208401612276565b60008060006060848603121561249457600080fd5b833592506124a460208501612276565b91506124b260408501612276565b90509250925092565b600080600080600080600060e0888a0312156124d657600080fd5b6124df88612276565b96506124ed60208901612276565b95506040880135945060608801359350608088013560ff8116811461251157600080fd5b9699959850939692959460a0840135945060c09093013592915050565b600181811c9082168061254257607f821691505b60208210810361256257634e487b7160e01b600052602260045260246000fd5b50919050565b634e487b7160e01b600052601160045260246000fd5b8181038181111561076357610763612568565b600181815b808511156125cc5781600019048211156125b2576125b2612568565b808516156125bf57918102915b93841c9390800290612596565b509250929050565b6000826125e357506001610763565b816125f057506000610763565b816001811461260657600281146126105761262c565b6001915050610763565b60ff84111561262157612621612568565b50506001821b610763565b5060208310610133831016604e8410600b841016171561264f575081810a610763565b6126598383612591565b806000190482111561266d5761266d612568565b029392505050565b600061188860ff8416836125d4565b634e487b7160e01b600052603260045260246000fd5b8082018082111561076357610763612568565b6001600160a01b03929092168252602082015260400190565b6000602082840312156126d857600080fd5b8151801515811461188857600080fd5b6020808252600f908201526e151c985b9cd9995c8819985a5b1959608a1b604082015260600190565b6001600160a01b039384168152919092166020820152604081019190915260600190565b6020808252600e908201526d139bdd08185d5d1a1bdc9a5e995960921b604082015260600190565b602080825260179082015276105cdcd95d1cc8185c99481cdd1a5b1b081b1bd8dad959604a1b604082015260600190565b60008083548160018260011c915060018316806127ac57607f831692505b602080841082036127cb57634e487b7160e01b86526022600452602486fd5b8180156127df57600181146127f457612821565b60ff1986168952841515850289019650612821565b60008a81526020902060005b868110156128195781548b820152908501908301612800565b505084890196505b50949897505050505050505056fef341246adaac6f497bc2a656f546ab9e182111d630394f0c57c710a59a2cb567ddf252ad1be2c89b69c2b068fc378daa952ba7f163c4a11628f55a4df523b3efa2646970667358221220866ce5d027fb8b338df361800e516931e3bee901e0d3542deaed3dd3e54b186464736f6c63430008180033",
  "linkReferences": {},
  "deployedLinkReferences": {}
}