{
  "_format": "hh-sol-artifact-1",
  "contractName": "Slice",
  "sourceName": "contracts/slice/Slice.sol",
  "abi": [
    {
      "inputs": [
        {
          "internalType": "address",
          "name": "uniswapRouter_",
          "type": "address"
        },
        {
          "internalType": "address",
          "name": "baseToken_",
          "type": "address"
        },
        {
          "internalType": "string",
          "name": "name_",
          "type": "string"
        },
        {
          "internalType": "string",
          "name": "symbol_",
          "type": "string"
        },
        {
          "internalType": "string",
          "name": "metadataUri_",
          "type": "string"
        }
      ],
      "stateMutability": "nonpayable",
      "type": "constructor"
    },
    {
      "inputs": [
        {
          "internalType": "address",
          "name": "target",
          "type": "address"
        }
      ],
      "name": "AddressEmptyCode",
      "type": "error"
    },
    {
      "inputs": [
        {
          "internalType": "address",
          "name": "account",
          "type": "address"
        }
      ],
      "name": "AddressInsufficientBalance",
      "type": "error"
    },
    {
      "inputs": [
        {
          "internalType": "address",
          "name": "aToken",
          "type": "address"
        }
      ],
      "name": "AllocationNotFound",
      "type": "error"
    },
    {
      "inputs": [],
      "name": "AllocationsLimitReached",
      "type": "error"
    },
    {
      "inputs": [
        {
          "internalType": "address",
          "name": "aToken",
          "type": "address"
        }
      ],
      "name": "AssociatedAllocationExists",
      "type": "error"
    },
    {
      "inputs": [],
      "name": "ECDSAInvalidSignature",
      "type": "error"
    },
    {
      "inputs": [
        {
          "internalType": "uint256",
          "name": "length",
          "type": "uint256"
        }
      ],
      "name": "ECDSAInvalidSignatureLength",
      "type": "error"
    },
    {
      "inputs": [
        {
          "internalType": "bytes32",
          "name": "s",
          "type": "bytes32"
        }
      ],
      "name": "ECDSAInvalidSignatureS",
      "type": "error"
    },
    {
      "inputs": [
        {
          "internalType": "address",
          "name": "spender",
          "type": "address"
        },
        {
          "internalType": "uint256",
          "name": "allowance",
          "type": "uint256"
        },
        {
          "internalType": "uint256",
          "name": "needed",
          "type": "uint256"
        }
      ],
      "name": "ERC20InsufficientAllowance",
      "type": "error"
    },
    {
      "inputs": [
        {
          "internalType": "address",
          "name": "sender",
          "type": "address"
        },
        {
          "internalType": "uint256",
          "name": "balance",
          "type": "uint256"
        },
        {
          "internalType": "uint256",
          "name": "needed",
          "type": "uint256"
        }
      ],
      "name": "ERC20InsufficientBalance",
      "type": "error"
    },
    {
      "inputs": [
        {
          "internalType": "address",
          "name": "approver",
          "type": "address"
        }
      ],
      "name": "ERC20InvalidApprover",
      "type": "error"
    },
    {
      "inputs": [
        {
          "internalType": "address",
          "name": "receiver",
          "type": "address"
        }
      ],
      "name": "ERC20InvalidReceiver",
      "type": "error"
    },
    {
      "inputs": [
        {
          "internalType": "address",
          "name": "sender",
          "type": "address"
        }
      ],
      "name": "ERC20InvalidSender",
      "type": "error"
    },
    {
      "inputs": [
        {
          "internalType": "address",
          "name": "spender",
          "type": "address"
        }
      ],
      "name": "ERC20InvalidSpender",
      "type": "error"
    },
    {
      "inputs": [
        {
          "internalType": "uint256",
          "name": "deadline",
          "type": "uint256"
        }
      ],
      "name": "ERC2612ExpiredSignature",
      "type": "error"
    },
    {
      "inputs": [
        {
          "internalType": "address",
          "name": "signer",
          "type": "address"
        },
        {
          "internalType": "address",
          "name": "owner",
          "type": "address"
        }
      ],
      "name": "ERC2612InvalidSigner",
      "type": "error"
    },
    {
      "inputs": [],
      "name": "FailedInnerCall",
      "type": "error"
    },
    {
      "inputs": [
        {
          "internalType": "address",
          "name": "account",
          "type": "address"
        },
        {
          "internalType": "uint256",
          "name": "currentNonce",
          "type": "uint256"
        }
      ],
      "name": "InvalidAccountNonce",
      "type": "error"
    },
    {
      "inputs": [],
      "name": "InvalidShortString",
      "type": "error"
    },
    {
      "inputs": [
        {
          "internalType": "address",
          "name": "owner",
          "type": "address"
        }
      ],
      "name": "OwnableInvalidOwner",
      "type": "error"
    },
    {
      "inputs": [
        {
          "internalType": "address",
          "name": "account",
          "type": "address"
        }
      ],
      "name": "OwnableUnauthorizedAccount",
      "type": "error"
    },
    {
      "inputs": [
        {
          "internalType": "address",
          "name": "token",
          "type": "address"
        }
      ],
      "name": "SafeERC20FailedOperation",
      "type": "error"
    },
    {
      "inputs": [
        {
          "internalType": "string",
          "name": "str",
          "type": "string"
        }
      ],
      "name": "StringTooLong",
      "type": "error"
    },
    {
      "inputs": [
        {
          "internalType": "address",
          "name": "aToken",
          "type": "address"
        }
      ],
      "name": "UnsupportedAToken",
      "type": "error"
    },
    {
      "anonymous": false,
      "inputs": [
        {
          "indexed": true,
          "internalType": "address",
          "name": "token",
          "type": "address"
        },
        {
          "indexed": true,
          "internalType": "address",
          "name": "asset",
          "type": "address"
        },
        {
          "indexed": true,
          "internalType": "address",
          "name": "priceFeed",
          "type": "address"
        },
        {
          "indexed": false,
          "internalType": "uint16",
          "name": "allocationPercentage",
          "type": "uint16"
        }
      ],
      "name": "AllocationAdded",
      "type": "event"
    },
    {
      "anonymous": false,
      "inputs": [
        {
          "indexed": true,
          "internalType": "address",
          "name": "token",
          "type": "address"
        },
        {
          "indexed": false,
          "internalType": "uint16",
          "name": "allocationPercentage",
          "type": "uint16"
        }
      ],
      "name": "AllocationPercentageChanged",
      "type": "event"
    },
    {
      "anonymous": false,
      "inputs": [
        {
          "indexed": true,
          "internalType": "address",
          "name": "owner",
          "type": "address"
        },
        {
          "indexed": true,
          "internalType": "address",
          "name": "spender",
          "type": "address"
        },
        {
          "indexed": false,
          "internalType": "uint256",
          "name": "value",
          "type": "uint256"
        }
      ],
      "name": "Approval",
      "type": "event"
    },
    {
      "anonymous": false,
      "inputs": [
        {
          "indexed": true,
          "internalType": "address",
          "name": "token",
          "type": "address"
        },
        {
          "indexed": true,
          "internalType": "address",
          "name": "sender",
          "type": "address"
        },
        {
          "indexed": false,
          "internalType": "uint256",
          "name": "amount",
          "type": "uint256"
        }
      ],
      "name": "Deposit",
      "type": "event"
    },
    {
      "anonymous": false,
      "inputs": [],
      "name": "EIP712DomainChanged",
      "type": "event"
    },
    {
      "anonymous": false,
      "inputs": [
        {
          "indexed": true,
          "internalType": "address",
          "name": "previousOwner",
          "type": "address"
        },
        {
          "indexed": true,
          "internalType": "address",
          "name": "newOwner",
          "type": "address"
        }
      ],
      "name": "OwnershipTransferred",
      "type": "event"
    },
    {
      "anonymous": false,
      "inputs": [
        {
          "indexed": true,
          "internalType": "address",
          "name": "from",
          "type": "address"
        },
        {
          "indexed": true,
          "internalType": "address",
          "name": "to",
          "type": "address"
        },
        {
          "indexed": false,
          "internalType": "uint256",
          "name": "value",
          "type": "uint256"
        }
      ],
      "name": "Transfer",
      "type": "event"
    },
    {
      "anonymous": false,
      "inputs": [
        {
          "indexed": true,
          "internalType": "address",
          "name": "token",
          "type": "address"
        },
        {
          "indexed": true,
          "internalType": "address",
          "name": "receiver",
          "type": "address"
        },
        {
          "indexed": false,
          "internalType": "uint256",
          "name": "amount",
          "type": "uint256"
        }
      ],
      "name": "Withdraw",
      "type": "event"
    },
    {
      "inputs": [],
      "name": "DOMAIN_SEPARATOR",
      "outputs": [
        {
          "internalType": "bytes32",
          "name": "",
          "type": "bytes32"
        }
      ],
      "stateMutability": "view",
      "type": "function"
    },
    {
      "inputs": [
        {
          "internalType": "address",
          "name": "aToken",
          "type": "address"
        },
        {
          "internalType": "uint256",
          "name": "amountToWithdraw",
          "type": "uint256"
        },
        {
          "internalType": "uint256",
          "name": "exchangeRate",
          "type": "uint256"
        }
      ],
      "name": "_handleWithdraw",
      "outputs": [
        {
          "internalType": "uint256",
          "name": "withdrawnAmount",
          "type": "uint256"
        }
      ],
      "stateMutability": "nonpayable",
      "type": "function"
    },
    {
      "inputs": [
        {
          "internalType": "address",
          "name": "aToken",
          "type": "address"
        },
        {
          "internalType": "address",
          "name": "priceFeed",
          "type": "address"
        },
        {
          "internalType": "uint16",
          "name": "percentage",
          "type": "uint16"
        }
      ],
      "name": "addAllocation",
      "outputs": [],
      "stateMutability": "nonpayable",
      "type": "function"
    },
    {
      "inputs": [],
      "name": "allocations",
      "outputs": [
        {
          "components": [
            {
              "internalType": "address",
              "name": "aToken",
              "type": "address"
            },
            {
              "internalType": "address",
              "name": "asset",
              "type": "address"
            },
            {
              "internalType": "uint16",
              "name": "targetPercentage",
              "type": "uint16"
            }
          ],
          "internalType": "struct ISlice.Allocation[]",
          "name": "",
          "type": "tuple[]"
        }
      ],
      "stateMutability": "view",
      "type": "function"
    },
    {
      "inputs": [
        {
          "internalType": "address",
          "name": "owner",
          "type": "address"
        },
        {
          "internalType": "address",
          "name": "spender",
          "type": "address"
        }
      ],
      "name": "allowance",
      "outputs": [
        {
          "internalType": "uint256",
          "name": "",
          "type": "uint256"
        }
      ],
      "stateMutability": "view",
      "type": "function"
    },
    {
      "inputs": [
        {
          "internalType": "address",
          "name": "spender",
          "type": "address"
        },
        {
          "internalType": "uint256",
          "name": "value",
          "type": "uint256"
        }
      ],
      "name": "approve",
      "outputs": [
        {
          "internalType": "bool",
          "name": "",
          "type": "bool"
        }
      ],
      "stateMutability": "nonpayable",
      "type": "function"
    },
    {
      "inputs": [
        {
          "internalType": "address",
          "name": "account",
          "type": "address"
        }
      ],
      "name": "balanceOf",
      "outputs": [
        {
          "internalType": "uint256",
          "name": "",
          "type": "uint256"
        }
      ],
      "stateMutability": "view",
      "type": "function"
    },
    {
      "inputs": [],
      "name": "baseToken",
      "outputs": [
        {
          "internalType": "address",
          "name": "",
          "type": "address"
        }
      ],
      "stateMutability": "view",
      "type": "function"
    },
    {
      "inputs": [],
      "name": "decimals",
      "outputs": [
        {
          "internalType": "uint8",
          "name": "",
          "type": "uint8"
        }
      ],
      "stateMutability": "view",
      "type": "function"
    },
    {
      "inputs": [
        {
          "internalType": "address",
          "name": "aToken",
          "type": "address"
        },
        {
          "internalType": "uint256",
          "name": "amount",
          "type": "uint256"
        }
      ],
      "name": "deposit",
      "outputs": [
        {
          "internalType": "uint256",
          "name": "aTokenAmount",
          "type": "uint256"
        }
      ],
      "stateMutability": "nonpayable",
      "type": "function"
    },
    {
      "inputs": [
        {
          "internalType": "address[]",
          "name": "aTokens",
          "type": "address[]"
        },
        {
          "internalType": "uint256[]",
          "name": "amounts",
          "type": "uint256[]"
        },
        {
          "internalType": "uint256[]",
          "name": "deadlines",
          "type": "uint256[]"
        },
        {
          "internalType": "uint8[]",
          "name": "v",
          "type": "uint8[]"
        },
        {
          "internalType": "bytes32[]",
          "name": "r",
          "type": "bytes32[]"
        },
        {
          "internalType": "bytes32[]",
          "name": "s",
          "type": "bytes32[]"
        }
      ],
      "name": "depositBatchWithSignatures",
      "outputs": [
        {
          "internalType": "uint256[]",
          "name": "",
          "type": "uint256[]"
        }
      ],
      "stateMutability": "nonpayable",
      "type": "function"
    },
    {
      "inputs": [
        {
          "internalType": "address",
          "name": "aToken",
          "type": "address"
        },
        {
          "internalType": "uint256",
          "name": "amount",
          "type": "uint256"
        },
        {
          "internalType": "uint256",
          "name": "deadline",
          "type": "uint256"
        },
        {
          "internalType": "uint8",
          "name": "v",
          "type": "uint8"
        },
        {
          "internalType": "bytes32",
          "name": "r",
          "type": "bytes32"
        },
        {
          "internalType": "bytes32",
          "name": "s",
          "type": "bytes32"
        }
      ],
      "name": "depositWithSignature",
      "outputs": [
        {
          "internalType": "uint256",
          "name": "aTokenAmount",
          "type": "uint256"
        }
      ],
      "stateMutability": "nonpayable",
      "type": "function"
    },
    {
      "inputs": [],
      "name": "eip712Domain",
      "outputs": [
        {
          "internalType": "bytes1",
          "name": "fields",
          "type": "bytes1"
        },
        {
          "internalType": "string",
          "name": "name",
          "type": "string"
        },
        {
          "internalType": "string",
          "name": "version",
          "type": "string"
        },
        {
          "internalType": "uint256",
          "name": "chainId",
          "type": "uint256"
        },
        {
          "internalType": "address",
          "name": "verifyingContract",
          "type": "address"
        },
        {
          "internalType": "bytes32",
          "name": "salt",
          "type": "bytes32"
        },
        {
          "internalType": "uint256[]",
          "name": "extensions",
          "type": "uint256[]"
        }
      ],
      "stateMutability": "view",
      "type": "function"
    },
    {
      "inputs": [
        {
          "internalType": "address",
          "name": "token",
          "type": "address"
        }
      ],
      "name": "getChainlinkDataFeedLatestAnswer",
      "outputs": [
        {
          "internalType": "int256",
          "name": "",
          "type": "int256"
        }
      ],
      "stateMutability": "view",
      "type": "function"
    },
    {
      "inputs": [
        {
          "internalType": "address",
          "name": "aToken",
          "type": "address"
        }
      ],
      "name": "getTokenAllocation",
      "outputs": [
        {
          "components": [
            {
              "internalType": "address",
              "name": "aToken",
              "type": "address"
            },
            {
              "internalType": "address",
              "name": "asset",
              "type": "address"
            },
            {
              "internalType": "uint16",
              "name": "targetPercentage",
              "type": "uint16"
            }
          ],
          "internalType": "struct ISlice.Allocation",
          "name": "",
          "type": "tuple"
        }
      ],
      "stateMutability": "view",
      "type": "function"
    },
    {
      "inputs": [],
      "name": "metadataUri",
      "outputs": [
        {
          "internalType": "string",
          "name": "",
          "type": "string"
        }
      ],
      "stateMutability": "view",
      "type": "function"
    },
    {
      "inputs": [],
      "name": "name",
      "outputs": [
        {
          "internalType": "string",
          "name": "",
          "type": "string"
        }
      ],
      "stateMutability": "view",
      "type": "function"
    },
    {
      "inputs": [
        {
          "internalType": "address",
          "name": "owner",
          "type": "address"
        }
      ],
      "name": "nonces",
      "outputs": [
        {
          "internalType": "uint256",
          "name": "",
          "type": "uint256"
        }
      ],
      "stateMutability": "view",
      "type": "function"
    },
    {
      "inputs": [],
      "name": "owner",
      "outputs": [
        {
          "internalType": "address",
          "name": "",
          "type": "address"
        }
      ],
      "stateMutability": "view",
      "type": "function"
    },
    {
      "inputs": [
        {
          "internalType": "address",
          "name": "owner",
          "type": "address"
        },
        {
          "internalType": "address",
          "name": "spender",
          "type": "address"
        },
        {
          "internalType": "uint256",
          "name": "value",
          "type": "uint256"
        },
        {
          "internalType": "uint256",
          "name": "deadline",
          "type": "uint256"
        },
        {
          "internalType": "uint8",
          "name": "v",
          "type": "uint8"
        },
        {
          "internalType": "bytes32",
          "name": "r",
          "type": "bytes32"
        },
        {
          "internalType": "bytes32",
          "name": "s",
          "type": "bytes32"
        }
      ],
      "name": "permit",
      "outputs": [],
      "stateMutability": "nonpayable",
      "type": "function"
    },
    {
      "inputs": [
        {
          "internalType": "address",
          "name": "token",
          "type": "address"
        }
      ],
      "name": "priceFeed",
      "outputs": [
        {
          "internalType": "address",
          "name": "",
          "type": "address"
        }
      ],
      "stateMutability": "view",
      "type": "function"
    },
    {
      "inputs": [],
      "name": "rebalance",
      "outputs": [],
      "stateMutability": "nonpayable",
      "type": "function"
    },
    {
      "inputs": [],
      "name": "renounceOwnership",
      "outputs": [],
      "stateMutability": "nonpayable",
      "type": "function"
    },
    {
      "inputs": [
        {
          "internalType": "address",
          "name": "aToken",
          "type": "address"
        },
        {
          "internalType": "uint16",
          "name": "newPercentage",
          "type": "uint16"
        }
      ],
      "name": "setAllocationPercentage",
      "outputs": [],
      "stateMutability": "nonpayable",
      "type": "function"
    },
    {
      "inputs": [
        {
          "internalType": "bytes4",
          "name": "interfaceId",
          "type": "bytes4"
        }
      ],
      "name": "supportsInterface",
      "outputs": [
        {
          "internalType": "bool",
          "name": "",
          "type": "bool"
        }
      ],
      "stateMutability": "view",
      "type": "function"
    },
    {
      "inputs": [],
      "name": "symbol",
      "outputs": [
        {
          "internalType": "string",
          "name": "",
          "type": "string"
        }
      ],
      "stateMutability": "view",
      "type": "function"
    },
    {
      "inputs": [],
      "name": "totalSupply",
      "outputs": [
        {
          "internalType": "uint256",
          "name": "",
          "type": "uint256"
        }
      ],
      "stateMutability": "view",
      "type": "function"
    },
    {
      "inputs": [
        {
          "internalType": "address",
          "name": "to",
          "type": "address"
        },
        {
          "internalType": "uint256",
          "name": "value",
          "type": "uint256"
        }
      ],
      "name": "transfer",
      "outputs": [
        {
          "internalType": "bool",
          "name": "",
          "type": "bool"
        }
      ],
      "stateMutability": "nonpayable",
      "type": "function"
    },
    {
      "inputs": [
        {
          "internalType": "address",
          "name": "from",
          "type": "address"
        },
        {
          "internalType": "address",
          "name": "to",
          "type": "address"
        },
        {
          "internalType": "uint256",
          "name": "value",
          "type": "uint256"
        }
      ],
      "name": "transferFrom",
      "outputs": [
        {
          "internalType": "bool",
          "name": "",
          "type": "bool"
        }
      ],
      "stateMutability": "nonpayable",
      "type": "function"
    },
    {
      "inputs": [
        {
          "internalType": "address",
          "name": "newOwner",
          "type": "address"
        }
      ],
      "name": "transferOwnership",
      "outputs": [],
      "stateMutability": "nonpayable",
      "type": "function"
    },
    {
      "inputs": [],
      "name": "uniswapV2Router",
      "outputs": [
        {
          "internalType": "address",
          "name": "",
          "type": "address"
        }
      ],
      "stateMutability": "view",
      "type": "function"
    },
    {
      "inputs": [
        {
          "internalType": "uint256",
          "name": "sTokenAmount",
          "type": "uint256"
        }
      ],
      "name": "withdraw",
      "outputs": [
        {
          "internalType": "uint256[]",
          "name": "amounts",
          "type": "uint256[]"
        }
      ],
      "stateMutability": "nonpayable",
      "type": "function"
    }
  ],
  "bytecode": "0x6101606040523480156200001257600080fd5b506040516200464038038062004640833981016040819052620000359162000488565b338380604051806040016040528060018152602001603160f81b81525086868160039081620000659190620005d1565b506004620000748282620005d1565b506200008691508390506005620002d0565b6101205262000097816006620002d0565b61014052815160208084019190912060e052815190820120610100524660a0526200012560e05161010051604080517f8b73c3c69bb8fe3d512ecc4cf759cc79239f7b179b0ffacaa9a75d522b39400f60208201529081019290925260608201524660808201523060a082015260009060c00160405160208183030381529060405280519060200120905090565b60805250503060c052506001600160a01b0381166200015f57604051631e4fbdf760e01b8152600060048201526024015b60405180910390fd5b6200016a8162000309565b506001600160a01b038516620001d15760405162461bcd60e51b815260206004820152602560248201527f536c6963653a20496e76616c696420556e697377617020726f75746572206164604482015264647265737360d81b606482015260840162000156565b6001600160a01b038416620002335760405162461bcd60e51b815260206004820152602160248201527f536c6963653a20496e76616c6964205553444320746f6b656e206164647265736044820152607360f81b606482015260840162000156565b8051600003620002865760405162461bcd60e51b815260206004820152601b60248201527f536c6963653a20496e76616c6964206d65746164617461205552490000000000604482015260640162000156565b600b80546001600160a01b038088166001600160a01b031992831617909255600c8054928716929091169190911790556009620002c48282620005d1565b505050505050620006f7565b6000602083511015620002f057620002e8836200035b565b905062000303565b81620002fd8482620005d1565b5060ff90505b92915050565b600880546001600160a01b038381166001600160a01b0319831681179093556040519116919082907f8be0079c531659141344cd1fd0a4f28419497f9722a3daafe3b4186f6b6457e090600090a35050565b600080829050601f8151111562000389578260405163305a27a960e01b81526004016200015691906200069d565b80516200039682620006d2565b179392505050565b80516001600160a01b0381168114620003b657600080fd5b919050565b634e487b7160e01b600052604160045260246000fd5b60005b83811015620003ee578181015183820152602001620003d4565b50506000910152565b600082601f8301126200040957600080fd5b81516001600160401b0380821115620004265762000426620003bb565b604051601f8301601f19908116603f01168101908282118183101715620004515762000451620003bb565b816040528381528660208588010111156200046b57600080fd5b6200047e846020830160208901620003d1565b9695505050505050565b600080600080600060a08688031215620004a157600080fd5b620004ac866200039e565b9450620004bc602087016200039e565b60408701519094506001600160401b0380821115620004da57600080fd5b620004e889838a01620003f7565b94506060880151915080821115620004ff57600080fd5b6200050d89838a01620003f7565b935060808801519150808211156200052457600080fd5b506200053388828901620003f7565b9150509295509295909350565b600181811c908216806200055557607f821691505b6020821081036200057657634e487b7160e01b600052602260045260246000fd5b50919050565b601f821115620005cc576000816000526020600020601f850160051c81016020861015620005a75750805b601f850160051c820191505b81811015620005c857828155600101620005b3565b5050505b505050565b81516001600160401b03811115620005ed57620005ed620003bb565b6200060581620005fe845462000540565b846200057c565b602080601f8311600181146200063d5760008415620006245750858301515b600019600386901b1c1916600185901b178555620005c8565b600085815260208120601f198616915b828110156200066e578886015182559484019460019091019084016200064d565b50858210156200068d5787850151600019600388901b60f8161c191681555b5050505050600190811b01905550565b6020815260008251806020840152620006be816040850160208701620003d1565b601f01601f19169190910160400192915050565b80516020808301519190811015620005765760001960209190910360031b1b16919050565b60805160a05160c05160e051610100516101205161014051613eee620007526000396000612924015260006128f701526000611f4a01526000611f2201526000611e7d01526000611ea701526000611ed10152613eee6000f3fe608060405234801561001057600080fd5b50600436106101b05760003560e01c80637d7c2a1c116100ef578063c358234b11610092578063c358234b146103b4578063c55dae63146103c9578063d505accf146103d1578063d9cde4a3146103e4578063dd62ed3e146103f7578063e7078f921461040a578063f2fde38b1461041d578063fa4d40531461043057600080fd5b80637d7c2a1c1461031f5780637ecebe001461032757806384b0196e1461033a5780638d0fac76146103555780638da5cb5b1461037557806395d89b4114610386578063a1c3d3de1461038e578063a9059cbb146103a157600080fd5b806323b872dd1161015757806323b872dd146102895780632e1a7d4d1461029c578063313ce567146102bc5780633644e515146102cb57806347e7ef24146102d357806370a08231146102e6578063715018a61461030f57806377a4d5591461031757600080fd5b8063013a0247146101b557806301ffc9a7146101db57806306fdde03146101fe578063095ea7b3146102135780630cd950fd146102265780631694505e1461023b57806318160ddd146102555780631fd48b9a1461025d575b600080fd5b6101c86101c33660046132b6565b610443565b6040519081526020015b60405180910390f35b6101ee6101e9366004613312565b610571565b60405190151581526020016101d2565b6102066105a8565b6040516101d2919061338c565b6101ee61022136600461339f565b61063a565b6102396102343660046133e2565b610652565b005b600b546001600160a01b03165b6040516101d29190613429565b6002546101c8565b61024861026b36600461343d565b6001600160a01b039081166000908152600d60205260409020541690565b6101ee61029736600461345a565b610962565b6102af6102aa36600461349b565b610988565b6040516101d291906134f0565b604051601281526020016101d2565b6101c8610b5b565b6101c86102e136600461339f565b610b6a565b6101c86102f436600461343d565b6001600160a01b031660009081526020819052604090205490565b610239610bd8565b610206610bec565b610239610bfb565b6101c861033536600461343d565b611001565b61034261101f565b6040516101d29796959493929190613503565b61036861036336600461343d565b611065565b6040516101d2919061359e565b6008546001600160a01b0316610248565b610206611141565b61023961039c3660046135ac565b611150565b6101ee6103af36600461339f565b6112e3565b6103bc6112f1565b6040516101d291906135e1565b61024861137d565b6102396103df366004613623565b61138c565b6101c86103f2366004613694565b6114b7565b6101c86104053660046136c9565b611722565b6101c861041836600461343d565b61174d565b61023961042b36600461343d565b6117d7565b6102af61043e3660046138aa565b611815565b600080861161046d5760405162461bcd60e51b81526004016104649061399e565b60405180910390fd5b6001600160a01b0387166104935760405162461bcd60e51b8152600401610464906139cd565b428510156104b35760405162461bcd60e51b815260040161046490613a04565b60006104be88611065565b6020015190506001600160a01b0381166104ec578760405162746ce760e21b81526004016104649190613429565b60405163d505accf60e01b815233906001600160a01b0383169063d505accf9061052690849030908d908d908d908d908d90600401613a35565b600060405180830381600087803b15801561054057600080fd5b505af1158015610554573d6000803e3d6000fd5b50505050610564818a848b611b72565b9998505050505050505050565b60006001600160e01b031982166301a4a4b960e51b14806105a257506301ffc9a760e01b6001600160e01b03198316145b92915050565b6060600380546105b790613a76565b80601f01602080910402602001604051908101604052809291908181526020018280546105e390613a76565b80156106305780601f1061060557610100808354040283529160200191610630565b820191906000526020600020905b81548152906001019060200180831161061357829003601f168201915b5050505050905090565b600033610648818585611cfe565b5060019392505050565b6001600160a01b0383166106785760405162461bcd60e51b8152600401610464906139cd565b6001600160a01b0382166106d85760405162461bcd60e51b815260206004820152602160248201527f536c6963653a20496e76616c69642070726963652066656564206164647265736044820152607360f81b6064820152608401610464565b61ffff8116158015906106f157506127108161ffff1614155b6107495760405162461bcd60e51b8152602060048201526024808201527f536c6963653a20496e76616c696420616c6c6f636174696f6e2070657263656e6044820152637461676560e01b6064820152608401610464565b600061075484611065565b516001600160a01b03161461077e57826040516363ec8ef160e11b81526004016104649190613429565b61078f8363d85c12ef60e01b611d10565b6107ae5782604051633624dfe160e21b81526004016104649190613429565b600a54600919016107d257604051635050982560e11b815260040160405180910390fd5b6000836001600160a01b03166338d52e0f6040518163ffffffff1660e01b8152600401602060405180830381865afa158015610812573d6000803e3d6000fd5b505050506040513d601f19601f820116820180604052508101906108369190613aaa565b604080516060810182526001600160a01b03808816808352818516602080850182815261ffff808b16878901908152600a80546001810182556000918252985160029099027fc65a7bb8d6351c1cf70c95a316cc6a92839c986682d98bc35f958f4883f9d2a8810180549a8a166001600160a01b03199b8c1617905593517fc65a7bb8d6351c1cf70c95a316cc6a92839c986682d98bc35f958f4883f9d2a990940180549251909316600160a01b026001600160b01b031990921693881693909317179055828152600d9091528590208054938a169390941683179093559251939450929091907fe1e620d79ee4604d298670ecab767901fa18358e431dc956a66abfa6899d52649061095490879061ffff91909116815260200190565b60405180910390a450505050565b600033610970858285611d2c565b61097b858585611d7f565b60019150505b9392505050565b6060600082116109aa5760405162461bcd60e51b81526004016104649061399e565b336109b58184611dde565b600a546001600160401b038111156109cf576109cf613702565b6040519080825280602002602001820160405280156109f8578160200160208202803683370190505b5091506000806000610a0960025490565b610a14601288613add565b610a1e9190613af4565b905060005b600a54811015610b5157600a8181548110610a4057610a40613b16565b600091825260208083206002909202909101546001600160a01b0316808352600e9091526040909120549094509250610a77601290565b60ff16610a848385613add565b610a8e9190613af4565b868281518110610aa057610aa0613b16565b602002602001018181525050610ae385878381518110610ac257610ac2613b16565b6020026020010151866001600160a01b0316611e189092919063ffffffff16565b846001600160a01b0316846001600160a01b03167f9b1bfa7fa9ee420a16e124f794c35ac9f90472acc99140eb2f6447c714cad8eb888481518110610b2a57610b2a613b16565b6020026020010151604051610b4191815260200190565b60405180910390a3600101610a23565b5050505050919050565b6000610b65611e70565b905090565b6000808211610b8b5760405162461bcd60e51b81526004016104649061399e565b6000610b9684611065565b6020015190506001600160a01b038116610bc4578360405162746ce760e21b81526004016104649190613429565b610bd033858386611b72565b949350505050565b610be0611f9b565b610bea6000611fc8565b565b6060600980546105b790613a76565b6000610c0561201a565b905060008060008060008060008060008060008060005b8d51811015610ff1578d8181518110610c3757610c37613b16565b6020026020010151600001519c508d8181518110610c5757610c57613b16565b6020026020010151602001519b508d8181518110610c7757610c77613b16565b6020026020010151606001519a508d8181518110610c9757610c97613b16565b60200260200101516080015199508d8181518110610cb757610cb7613b16565b602002602001015160a0015198508a8a1015610fe9578c6001600160a01b0316633ba0b9a96040518163ffffffff1660e01b8152600401602060405180830381865afa158015610d0b573d6000803e3d6000fd5b505050506040513d601f19601f82011682018060405250810190610d2f9190613b2c565b9650610d3b8a8c613b45565b9750610d5088670de0b6b3a764000089612607565b95508815610d8357898811610d7257610d6a8d89896114b7565b945084610d81565b610d7d8d8b896114b7565b9450845b505b8415610fe957610d9b8c610d9561137d565b87612625565b610db6610da88688613b58565b610db061137d565b8e6127d2565b9350610dc061137d565b6001600160a01b03166370a08231306040518263ffffffff1660e01b8152600401610deb9190613429565b602060405180830381865afa158015610e08573d6000803e3d6000fd5b505050506040513d601f19601f82011682018060405250810190610e2c9190613b2c565b925083831015610e5257600c54610e4d906001600160a01b03168d85612625565b610e69565b600c54610e69906001600160a01b03168d86612625565b6040516370a0823160e01b81526001600160a01b038d16906370a0823190610e95903090600401613429565b602060405180830381865afa158015610eb2573d6000803e3d6000fd5b505050506040513d601f19601f82011682018060405250810190610ed69190613b2c565b91508b6001600160a01b031663095ea7b38e846040518363ffffffff1660e01b8152600401610f06929190613b6b565b6020604051808303816000875af1158015610f25573d6000803e3d6000fd5b505050506040513d601f19601f82011682018060405250810190610f499190613b84565b50604051636e553f6560e01b81526001600160a01b038e1690636e553f6590610f789085903090600401613ba6565b6020604051808303816000875af1158015610f97573d6000803e3d6000fd5b505050506040513d601f19601f82011682018060405250810190610fbb9190613b2c565b6001600160a01b038e166000908152600e602052604081208054909190610fe3908490613b58565b90915550505b600101610c1c565b5050505050505050505050505050565b6001600160a01b0381166000908152600760205260408120546105a2565b6000606080600080600060606110336128f0565b61103b61291d565b60408051600080825260208201909252600f60f81b9b939a50919850469750309650945092509050565b60408051606081018252600080825260208201819052918101829052905b600a5481101561113b57826001600160a01b0316600a82815481106110aa576110aa613b16565b60009182526020909120600290910201546001600160a01b03160361113357600a81815481106110dc576110dc613b16565b60009182526020918290206040805160608101825260029390930290910180546001600160a01b03908116845260019091015490811693830193909352600160a01b90920461ffff16918101919091529392505050565b600101611083565b50919050565b6060600480546105b790613a76565b6001600160a01b0382166111765760405162461bcd60e51b8152600401610464906139cd565b61ffff81161580159061118f57506127108161ffff1614155b6111d75760405162461bcd60e51b8152602060048201526019602482015278536c6963653a20496e76616c69642070657263656e7461676560381b6044820152606401610464565b60006111e283611065565b516001600160a01b03160361120b578160405162746ce760e21b81526004016104649190613429565b60005b600a5481101561129c57826001600160a01b0316600a828154811061123557611235613b16565b60009182526020909120600290910201546001600160a01b0316036112945781600a828154811061126857611268613b16565b906000526020600020906002020160010160146101000a81548161ffff021916908361ffff1602179055505b60010161120e565b5060405161ffff821681526001600160a01b038316907f961820b4651ecef2378d97b066e501ada836f59c275237b770421b1f46e33dd59060200160405180910390a25050565b600033610648818585611d7f565b6060600a805480602002602001604051908101604052809291908181526020016000905b82821015611374576000848152602090819020604080516060810182526002860290920180546001600160a01b03908116845260019182015490811684860152600160a01b900461ffff16918301919091529083529092019101611315565b50505050905090565b600c546001600160a01b031690565b834211156113b05760405163313c898160e11b815260048101859052602401610464565b60007f6e71edae12b1b97f4d1f60370fef10105fa2faae0126114a169c64845d6126c98888886113fd8c6001600160a01b0316600090815260076020526040902080546001810190915590565b6040805160208101969096526001600160a01b0394851690860152929091166060840152608083015260a082015260c0810186905260e00160405160208183030381529060405280519060200120905060006114588261294a565b9050600061146882878787612977565b9050896001600160a01b0316816001600160a01b0316146114a057808a6040516325c0072360e11b8152600401610464929190613bbd565b6114ab8a8a8a611cfe565b50505050505050505050565b600080846001600160a01b031663fbfa77cf6040518163ffffffff1660e01b8152600401602060405180830381865afa1580156114f8573d6000803e3d6000fd5b505050506040513d601f19601f8201168201806040525081019061151c9190613aaa565b90506000816001600160a01b031663ce96cb77876040518263ffffffff1660e01b815260040161154c9190613429565b602060405180830381865afa158015611569573d6000803e3d6000fd5b505050506040513d601f19601f8201168201806040525081019061158d9190613b2c565b905060006115a486670de0b6b3a764000087612607565b9050816000036115ba5760009350505050610981565b6115cb83631ee878f360e11b611d10565b156116f957604051633ea0e43760e11b8152600481018290526001600160a01b03888116602483018190526044830152841690637d41c86e90606401600060405180830381600087803b15801561162157600080fd5b505af1158015611635573d6000803e3d6000fd5b50505050808210156116cd576001600160a01b03871662f714ce6116628488670de0b6b3a7640000612607565b306040518363ffffffff1660e01b8152600401611680929190613ba6565b6020604051808303816000875af115801561169f573d6000803e3d6000fd5b505050506040513d601f19601f820116820180604052508101906116c39190613b2c565b9350505050610981565b604051627b8a6760e11b81526001600160a01b0388169062f714ce906116809089903090600401613ba6565b808210156116cd576001600160a01b03871662f714ce6116628488670de0b6b3a7640000612607565b6001600160a01b03918216600090815260016020908152604080832093909416825291909152205490565b6001600160a01b038082166000908152600d6020526040808220548151633fabe5a360e21b815291519293849391169163feaf968c9160048083019260a09291908290030181865afa1580156117a7573d6000803e3d6000fd5b505050506040513d601f19601f820116820180604052508101906117cb9190613bf1565b50919695505050505050565b6117df611f9b565b6001600160a01b038116611809576000604051631e4fbdf760e01b81526004016104649190613429565b61181281611fc8565b50565b606085518751148015611829575084518751145b8015611836575083518751145b8015611843575082518751145b8015611850575081518751145b61189c5760405162461bcd60e51b815260206004820152601e60248201527f536c6963653a20646966666572656e74206172726179206c656e6774687300006044820152606401610464565b865133906000906001600160401b038111156118ba576118ba613702565b6040519080825280602002602001820160405280156118e3578160200160208202803683370190505b50905060005b8951811015611b6557600089828151811061190657611906613b16565b60200260200101511161192b5760405162461bcd60e51b81526004016104649061399e565b60006001600160a01b03168a828151811061194857611948613b16565b60200260200101516001600160a01b0316036119765760405162461bcd60e51b8152600401610464906139cd565b4288828151811061198957611989613b16565b602002602001015110156119af5760405162461bcd60e51b815260040161046490613a04565b60006119d38b83815181106119c6576119c6613b16565b6020026020010151611065565b6020015190506001600160a01b038116611a1a578a82815181106119f9576119f9613b16565b602002602001015160405162746ce760e21b81526004016104649190613429565b806001600160a01b031663d505accf85308d8681518110611a3d57611a3d613b16565b60200260200101518d8781518110611a5757611a57613b16565b60200260200101518d8881518110611a7157611a71613b16565b60200260200101518d8981518110611a8b57611a8b613b16565b60200260200101518d8a81518110611aa557611aa5613b16565b60200260200101516040518863ffffffff1660e01b8152600401611acf9796959493929190613a35565b600060405180830381600087803b158015611ae957600080fd5b505af1158015611afd573d6000803e3d6000fd5b50505050611b3f848c8481518110611b1757611b17613b16565b6020026020010151838d8681518110611b3257611b32613b16565b6020026020010151611b72565b838381518110611b5157611b51613b16565b6020908102919091010152506001016118e9565b5098975050505050505050565b6000611b896001600160a01b0384168630856129a5565b60405163095ea7b360e01b81526001600160a01b0384169063095ea7b390611bb79087908690600401613b6b565b6020604051808303816000875af1158015611bd6573d6000803e3d6000fd5b505050506040513d601f19601f82011682018060405250810190611bfa9190613b84565b50604051636e553f6560e01b81526001600160a01b03851690636e553f6590611c299085903090600401613ba6565b6020604051808303816000875af1158015611c48573d6000803e3d6000fd5b505050506040513d601f19601f82011682018060405250810190611c6c9190613b2c565b6001600160a01b0385166000908152600e6020526040812080549293508392909190611c99908490613b58565b90915550611ca9905085826129de565b846001600160a01b0316846001600160a01b03167f5548c837ab068cf56a2c2479df0882a4922fd203edb7517321831d95078c5f6284604051611cee91815260200190565b60405180910390a3949350505050565b611d0b8383836001612a14565b505050565b6000611d1b83612ae9565b801561098157506109818383612b1c565b6000611d388484611722565b90506000198114611d795781811015611d6a57828183604051637dc7a0d960e11b815260040161046493929190613c41565b611d7984848484036000612a14565b50505050565b6001600160a01b038316611da9576000604051634b637e8f60e11b81526004016104649190613429565b6001600160a01b038216611dd357600060405163ec442f0560e01b81526004016104649190613429565b611d0b838383612ba6565b6001600160a01b038216611e08576000604051634b637e8f60e11b81526004016104649190613429565b611e1482600083612ba6565b5050565b611d0b83846001600160a01b031663a9059cbb8585604051602401611e3e929190613b6b565b604051602081830303815290604052915060e01b6020820180516001600160e01b038381831617835250505050612cbd565b6000306001600160a01b037f000000000000000000000000000000000000000000000000000000000000000016148015611ec957507f000000000000000000000000000000000000000000000000000000000000000046145b15611ef357507f000000000000000000000000000000000000000000000000000000000000000090565b610b65604080517f8b73c3c69bb8fe3d512ecc4cf759cc79239f7b179b0ffacaa9a75d522b39400f60208201527f0000000000000000000000000000000000000000000000000000000000000000918101919091527f000000000000000000000000000000000000000000000000000000000000000060608201524660808201523060a082015260009060c00160405160208183030381529060405280519060200120905090565b6008546001600160a01b03163314610bea573360405163118cdaa760e01b81526004016104649190613429565b600880546001600160a01b038381166001600160a01b0319831681179093556040519116919082907f8be0079c531659141344cd1fd0a4f28419497f9722a3daafe3b4186f6b6457e090600090a35050565b60606000612026612d17565b9050600080600080600080600080600a805490506001600160401b0381111561205157612051613702565b6040519080825280602002602001820160405280156120cd57816020015b6120ba6040518060c0016040528060006001600160a01b0316815260200160006001600160a01b03168152602001600081526020016000815260200160008152602001600081525090565b81526020019060019003908161206f5790505b50995060005b600a548110156125fa57600a81815481106120f0576120f0613b16565b6000918252602090912060029091020154600a80546001600160a01b039092169a50908290811061212357612123613b16565b600091825260208220600160029092020101546001600160a01b031698508061214c8b8b612db0565b935093505050612710600a848154811061216857612168613b16565b600091825260209091206002909102016001015461219190600160a01b900461ffff168e613add565b61219b9190613af4565b9850818a6001600160a01b031663313ce5676040518163ffffffff1660e01b8152600401602060405180830381865afa1580156121dc573d6000803e3d6000fd5b505050506040513d601f19601f820116820180604052508101906122009190613c62565b61220b90600a613d63565b612215908b613add565b61221f9190613af4565b97506122348882670de0b6b3a7640000612607565b6001600160a01b038c166000908152600e60205260409020549097509350868411156124bd576122648785613b45565b95506122718b87836114b7565b94508415612396576122858a610d9561137d565b61228d61137d565b6001600160a01b03166370a08231306040518263ffffffff1660e01b81526004016122b89190613429565b602060405180830381865afa1580156122d5573d6000803e3d6000fd5b505050506040513d601f19601f820116820180604052508101906122f99190613b2c565b600e600061230561137d565b6001600160a01b03166001600160a01b03168152602001908152602001600020819055506040518060c001604052808c6001600160a01b031681526020018b6001600160a01b03168152602001898152602001888152602001878661236a9190613b45565b815260200160008152508d848151811061238657612386613b16565b60200260200101819052506125f0565b6040518060c001604052808c6001600160a01b031681526020018b6001600160a01b031681526020018981526020018881526020018581526020018c6001600160a01b031663fbfa77cf6040518163ffffffff1660e01b8152600401602060405180830381865afa15801561240f573d6000803e3d6000fd5b505050506040513d601f19601f820116820180604052508101906124339190613aaa565b6001600160a01b0316635ab764ed8e61244a61137d565b6040518363ffffffff1660e01b8152600401612467929190613bbd565b602060405180830381865afa158015612484573d6000803e3d6000fd5b505050506040513d601f19601f820116820180604052508101906124a89190613b2c565b8152508d848151811061238657612386613b16565b6040518060c001604052808c6001600160a01b031681526020018b6001600160a01b031681526020018981526020018881526020018581526020018c6001600160a01b031663fbfa77cf6040518163ffffffff1660e01b8152600401602060405180830381865afa158015612536573d6000803e3d6000fd5b505050506040513d601f19601f8201168201806040525081019061255a9190613aaa565b6001600160a01b0316635ab764ed8e61257161137d565b6040518363ffffffff1660e01b815260040161258e929190613bbd565b602060405180830381865afa1580156125ab573d6000803e3d6000fd5b505050506040513d601f19601f820116820180604052508101906125cf9190613b2c565b8152508d84815181106125e4576125e4613b16565b60200260200101819052505b50506001016120d3565b5050505050505050505090565b600082600019048411830215820261261e57600080fd5b5091020490565b604080516002808252606082018352600092602083019080368337019050509050838160008151811061265a5761265a613b16565b60200260200101906001600160a01b031690816001600160a01b031681525050828160018151811061268e5761268e613b16565b60200260200101906001600160a01b031690816001600160a01b031681525050806000815181106126c1576126c1613b16565b60200260200101516001600160a01b031663095ea7b36126e9600b546001600160a01b031690565b846040518363ffffffff1660e01b8152600401612707929190613b6b565b6020604051808303816000875af1158015612726573d6000803e3d6000fd5b505050506040513d601f19601f8201168201806040525081019061274a9190613b84565b50600b546040516338ed173960e01b81526001600160a01b03909116906338ed173990612784908590600090869030904290600401613dac565b6000604051808303816000875af11580156127a3573d6000803e3d6000fd5b505050506040513d6000823e601f3d908101601f191682016040526127cb9190810190613de8565b5050505050565b60408051600280825260608201835260009283929190602083019080368337019050509050838160008151811061280b5761280b613b16565b60200260200101906001600160a01b031690816001600160a01b031681525050828160018151811061283f5761283f613b16565b6001600160a01b039283166020918202929092010152600b546040516307c0329d60e21b81526000929190911690631f00ca74906128839089908690600401613e6d565b600060405180830381865afa1580156128a0573d6000803e3d6000fd5b505050506040513d6000823e601f3d908101601f191682016040526128c89190810190613de8565b9050806000815181106128dd576128dd613b16565b6020026020010151925050509392505050565b6060610b657f00000000000000000000000000000000000000000000000000000000000000006005612edb565b6060610b657f00000000000000000000000000000000000000000000000000000000000000006006612edb565b60006105a2612957611e70565b8360405161190160f01b8152600281019290925260228201526042902090565b60008060008061298988888888612f86565b925092509250612999828261304b565b50909695505050505050565b6040516001600160a01b038481166024830152838116604483015260648201839052611d799186918216906323b872dd90608401611e3e565b6001600160a01b038216612a0857600060405163ec442f0560e01b81526004016104649190613429565b611e1460008383612ba6565b6001600160a01b038416612a3e57600060405163e602df0560e01b81526004016104649190613429565b6001600160a01b038316612a68576000604051634a1406b160e11b81526004016104649190613429565b6001600160a01b0380851660009081526001602090815260408083209387168352929052208290558015611d7957826001600160a01b0316846001600160a01b03167f8c5be1e5ebec7d5bd14f71427d1e84f3dd0314c0f7b2291e5b200ac8c7c3b92584604051612adb91815260200190565b60405180910390a350505050565b6000612afc826301ffc9a760e01b612b1c565b80156105a25750612b15826001600160e01b0319612b1c565b1592915050565b6040516001600160e01b031982166024820152600090819060440160408051601f19818403018152919052602080820180516001600160e01b03166301ffc9a760e01b178152825192935060009283928392909183918a617530fa92503d91506000519050828015612b8f575060208210155b8015612b9b5750600081115b979650505050505050565b6001600160a01b038316612bd1578060026000828254612bc69190613b58565b90915550612c309050565b6001600160a01b03831660009081526020819052604090205481811015612c115783818360405163391434e360e21b815260040161046493929190613c41565b6001600160a01b03841660009081526020819052604090209082900390555b6001600160a01b038216612c4c57600280548290039055612c6b565b6001600160a01b03821660009081526020819052604090208054820190555b816001600160a01b0316836001600160a01b03167fddf252ad1be2c89b69c2b068fc378daa952ba7f163c4a11628f55a4df523b3ef83604051612cb091815260200190565b60405180910390a3505050565b6000612cd26001600160a01b03841683613104565b90508051600014158015612cf7575080806020019051810190612cf59190613b84565b155b15611d0b5782604051635274afe760e01b81526004016104649190613429565b6000805b600a54811015612dac576000612d90600a8381548110612d3d57612d3d613b16565b6000918252602090912060029091020154600a80546001600160a01b039092169185908110612d6e57612d6e613b16565b60009182526020909120600160029092020101546001600160a01b0316612db0565b50505090508083612da19190613b58565b925050600101612d1b565b5090565b6001600160a01b0382166000818152600e60209081526040808320548151633ba0b9a960e01b815291519394859485948594633ba0b9a992600480830193928290030181865afa158015612e08573d6000803e3d6000fd5b505050506040513d601f19601f82011682018060405250810190612e2c9190613b2c565b9150612e378661174d565b9250612e4c8183670de0b6b3a7640000612607565b9350866001600160a01b031663313ce5676040518163ffffffff1660e01b8152600401602060405180830381865afa158015612e8c573d6000803e3d6000fd5b505050506040513d601f19601f82011682018060405250810190612eb09190613c62565b612ebb90600a613d63565b612ec58486613add565b612ecf9190613af4565b94505092959194509250565b606060ff8314612ef557612eee83613112565b90506105a2565b818054612f0190613a76565b80601f0160208091040260200160405190810160405280929190818152602001828054612f2d90613a76565b8015612f7a5780601f10612f4f57610100808354040283529160200191612f7a565b820191906000526020600020905b815481529060010190602001808311612f5d57829003601f168201915b505050505090506105a2565b600080806fa2a8918ca85bafe22016d0b997e4df60600160ff1b03841115612fb75750600091506003905082613041565b604080516000808252602082018084528a905260ff891692820192909252606081018790526080810186905260019060a0016020604051602081039080840390855afa15801561300b573d6000803e3d6000fd5b5050604051601f1901519150506001600160a01b03811661303757506000925060019150829050613041565b9250600091508190505b9450945094915050565b600082600381111561305f5761305f613e86565b03613068575050565b600182600381111561307c5761307c613e86565b0361309a5760405163f645eedf60e01b815260040160405180910390fd5b60028260038111156130ae576130ae613e86565b036130cf5760405163fce698f760e01b815260048101829052602401610464565b60038260038111156130e3576130e3613e86565b03611e14576040516335e2f38360e21b815260048101829052602401610464565b606061098183836000613151565b6060600061311f836131ee565b604080516020808252818301909252919250600091906020820181803683375050509182525060208101929092525090565b606081471015613176573060405163cd78605960e01b81526004016104649190613429565b600080856001600160a01b031684866040516131929190613e9c565b60006040518083038185875af1925050503d80600081146131cf576040519150601f19603f3d011682016040523d82523d6000602084013e6131d4565b606091505b50915091506131e4868383613216565b9695505050505050565b600060ff8216601f8111156105a257604051632cd44ac360e21b815260040160405180910390fd5b60608261322b5761322682613269565b610981565b815115801561324257506001600160a01b0384163b155b156132625783604051639996b31560e01b81526004016104649190613429565b5080610981565b8051156132795780518082602001fd5b604051630a12f52160e11b815260040160405180910390fd5b6001600160a01b038116811461181257600080fd5b60ff8116811461181257600080fd5b60008060008060008060c087890312156132cf57600080fd5b86356132da81613292565b9550602087013594506040870135935060608701356132f8816132a7565b9598949750929560808101359460a0909101359350915050565b60006020828403121561332457600080fd5b81356001600160e01b03198116811461098157600080fd5b60005b8381101561335757818101518382015260200161333f565b50506000910152565b6000815180845261337881602086016020860161333c565b601f01601f19169290920160200192915050565b6020815260006109816020830184613360565b600080604083850312156133b257600080fd5b82356133bd81613292565b946020939093013593505050565b803561ffff811681146133dd57600080fd5b919050565b6000806000606084860312156133f757600080fd5b833561340281613292565b9250602084013561341281613292565b9150613420604085016133cb565b90509250925092565b6001600160a01b0391909116815260200190565b60006020828403121561344f57600080fd5b813561098181613292565b60008060006060848603121561346f57600080fd5b833561347a81613292565b9250602084013561348a81613292565b929592945050506040919091013590565b6000602082840312156134ad57600080fd5b5035919050565b60008151808452602080850194506020840160005b838110156134e5578151875295820195908201906001016134c9565b509495945050505050565b60208152600061098160208301846134b4565b60ff60f81b8816815260e06020820152600061352260e0830189613360565b82810360408401526135348189613360565b606084018890526001600160a01b038716608085015260a0840186905283810360c0850152905061356581856134b4565b9a9950505050505050505050565b80516001600160a01b0390811683526020808301519091169083015260409081015161ffff16910152565b606081016105a28284613573565b600080604083850312156135bf57600080fd5b82356135ca81613292565b91506135d8602084016133cb565b90509250929050565b6020808252825182820181905260009190848201906040850190845b8181101561299957613610838551613573565b92840192606092909201916001016135fd565b600080600080600080600060e0888a03121561363e57600080fd5b873561364981613292565b9650602088013561365981613292565b955060408801359450606088013593506080880135613677816132a7565b9699959850939692959460a0840135945060c09093013592915050565b6000806000606084860312156136a957600080fd5b83356136b481613292565b95602085013595506040909401359392505050565b600080604083850312156136dc57600080fd5b82356136e781613292565b915060208301356136f781613292565b809150509250929050565b634e487b7160e01b600052604160045260246000fd5b604051601f8201601f191681016001600160401b038111828210171561374057613740613702565b604052919050565b60006001600160401b0382111561376157613761613702565b5060051b60200190565b600082601f83011261377c57600080fd5b8135602061379161378c83613748565b613718565b8083825260208201915060208460051b8701019350868411156137b357600080fd5b602086015b848110156137d85780356137cb81613292565b83529183019183016137b8565b509695505050505050565b600082601f8301126137f457600080fd5b8135602061380461378c83613748565b8083825260208201915060208460051b87010193508684111561382657600080fd5b602086015b848110156137d8578035835291830191830161382b565b600082601f83011261385357600080fd5b8135602061386361378c83613748565b8083825260208201915060208460051b87010193508684111561388557600080fd5b602086015b848110156137d857803561389d816132a7565b835291830191830161388a565b60008060008060008060c087890312156138c357600080fd5b86356001600160401b03808211156138da57600080fd5b6138e68a838b0161376b565b975060208901359150808211156138fc57600080fd5b6139088a838b016137e3565b9650604089013591508082111561391e57600080fd5b61392a8a838b016137e3565b9550606089013591508082111561394057600080fd5b61394c8a838b01613842565b9450608089013591508082111561396257600080fd5b61396e8a838b016137e3565b935060a089013591508082111561398457600080fd5b5061399189828a016137e3565b9150509295509295509295565b60208082526015908201527414db1a58d94e88125b9d985b1a5908185b5bdd5b9d605a1b604082015260600190565b6020808252601d908201527f536c6963653a20496e76616c69642061546f6b656e2061646472657373000000604082015260600190565b602080825260179082015276536c6963653a20496e76616c696420646561646c696e6560481b604082015260600190565b6001600160a01b0397881681529590961660208601526040850193909352606084019190915260ff16608083015260a082015260c081019190915260e00190565b600181811c90821680613a8a57607f821691505b60208210810361113b57634e487b7160e01b600052602260045260246000fd5b600060208284031215613abc57600080fd5b815161098181613292565b634e487b7160e01b600052601160045260246000fd5b80820281158282048414176105a2576105a2613ac7565b600082613b1157634e487b7160e01b600052601260045260246000fd5b500490565b634e487b7160e01b600052603260045260246000fd5b600060208284031215613b3e57600080fd5b5051919050565b818103818111156105a2576105a2613ac7565b808201808211156105a2576105a2613ac7565b6001600160a01b03929092168252602082015260400190565b600060208284031215613b9657600080fd5b8151801515811461098157600080fd5b9182526001600160a01b0316602082015260400190565b6001600160a01b0392831681529116602082015260400190565b805169ffffffffffffffffffff811681146133dd57600080fd5b600080600080600060a08688031215613c0957600080fd5b613c1286613bd7565b9450602086015193506040860151925060608601519150613c3560808701613bd7565b90509295509295909350565b6001600160a01b039390931683526020830191909152604082015260600190565b600060208284031215613c7457600080fd5b8151610981816132a7565b600181815b80851115613cba578160001904821115613ca057613ca0613ac7565b80851615613cad57918102915b93841c9390800290613c84565b509250929050565b600082613cd1575060016105a2565b81613cde575060006105a2565b8160018114613cf45760028114613cfe57613d1a565b60019150506105a2565b60ff841115613d0f57613d0f613ac7565b50506001821b6105a2565b5060208310610133831016604e8410600b8410161715613d3d575081810a6105a2565b613d478383613c7f565b8060001904821115613d5b57613d5b613ac7565b029392505050565b600061098160ff841683613cc2565b60008151808452602080850194506020840160005b838110156134e55781516001600160a01b031687529582019590820190600101613d87565b85815284602082015260a060408201526000613dcb60a0830186613d72565b6001600160a01b0394909416606083015250608001529392505050565b60006020808385031215613dfb57600080fd5b82516001600160401b03811115613e1157600080fd5b8301601f81018513613e2257600080fd5b8051613e3061378c82613748565b81815260059190911b82018301908381019087831115613e4f57600080fd5b928401925b82841015612b9b57835182529284019290840190613e54565b828152604060208201526000610bd06040830184613d72565b634e487b7160e01b600052602160045260246000fd5b60008251613eae81846020870161333c565b919091019291505056fea2646970667358221220dc674657e194ff3f1aa9fc63ffd1dc43e762751dd9e3eca69ef662c021488bfe64736f6c63430008180033",
  "linkReferences": {},
  "deployedLinkReferences": {}
}