{
  "_format": "hh-sol-artifact-1",
  "contractName": "SliceFactory",
  "sourceName": "contracts/slice/factory/SliceFactory.sol",
  "abi": [
    {
      "inputs": [],
      "stateMutability": "nonpayable",
      "type": "constructor"
    },
    {
      "inputs": [
        {
          "internalType": "address",
          "name": "owner",
          "type": "address"
        }
      ],
      "name": "OwnableInvalidOwner",
      "type": "error"
    },
    {
      "inputs": [
        {
          "internalType": "address",
          "name": "account",
          "type": "address"
        }
      ],
      "name": "OwnableUnauthorizedAccount",
      "type": "error"
    },
    {
      "anonymous": false,
      "inputs": [
        {
          "indexed": true,
          "internalType": "address",
          "name": "previousOwner",
          "type": "address"
        },
        {
          "indexed": true,
          "internalType": "address",
          "name": "newOwner",
          "type": "address"
        }
      ],
      "name": "OwnershipTransferred",
      "type": "event"
    },
    {
      "anonymous": false,
      "inputs": [
        {
          "indexed": true,
          "internalType": "address",
          "name": "slice",
          "type": "address"
        },
        {
          "indexed": false,
          "internalType": "address",
          "name": "uniswapRouter",
          "type": "address"
        },
        {
          "indexed": false,
          "internalType": "address",
          "name": "usdc",
          "type": "address"
        }
      ],
      "name": "SliceDeployed",
      "type": "event"
    },
    {
      "inputs": [
        {
          "internalType": "string",
          "name": "salt",
          "type": "string"
        },
        {
          "components": [
            {
              "internalType": "address",
              "name": "uniswapRouter",
              "type": "address"
            },
            {
              "internalType": "address",
              "name": "usdc",
              "type": "address"
            },
            {
              "internalType": "string",
              "name": "name",
              "type": "string"
            },
            {
              "internalType": "string",
              "name": "symbol",
              "type": "string"
            },
            {
              "internalType": "string",
              "name": "metadataUri",
              "type": "string"
            }
          ],
          "internalType": "struct ISliceFactory.SliceDetails",
          "name": "sliceDetails",
          "type": "tuple"
        }
      ],
      "name": "deploySlice",
      "outputs": [
        {
          "internalType": "address",
          "name": "slice",
          "type": "address"
        }
      ],
      "stateMutability": "nonpayable",
      "type": "function"
    },
    {
      "inputs": [],
      "name": "owner",
      "outputs": [
        {
          "internalType": "address",
          "name": "",
          "type": "address"
        }
      ],
      "stateMutability": "view",
      "type": "function"
    },
    {
      "inputs": [],
      "name": "renounceOwnership",
      "outputs": [],
      "stateMutability": "nonpayable",
      "type": "function"
    },
    {
      "inputs": [
        {
          "internalType": "bytes4",
          "name": "interfaceId",
          "type": "bytes4"
        }
      ],
      "name": "supportsInterface",
      "outputs": [
        {
          "internalType": "bool",
          "name": "",
          "type": "bool"
        }
      ],
      "stateMutability": "view",
      "type": "function"
    },
    {
      "inputs": [
        {
          "internalType": "address",
          "name": "newOwner",
          "type": "address"
        }
      ],
      "name": "transferOwnership",
      "outputs": [],
      "stateMutability": "nonpayable",
      "type": "function"
    }
  ],
  "bytecode": "0x608060405234801561001057600080fd5b50338061003757604051631e4fbdf760e01b81526000600482015260240160405180910390fd5b61004081610046565b50610096565b600080546001600160a01b038381166001600160a01b0319831681178455604051919092169283917f8be0079c531659141344cd1fd0a4f28419497f9722a3daafe3b4186f6b6457e09190a35050565b615287806100a56000396000f3fe60806040523480156200001157600080fd5b50600436106200005e5760003560e01c806301ffc9a714620000635780636bcaa0ee146200008f578063715018a614620000b55780638da5cb5b14620000c1578063f2fde38b14620000d3575b600080fd5b6200007a620000743660046200065f565b620000ea565b60405190151581526020015b60405180910390f35b620000a6620000a036600462000692565b62000122565b60405162000086919062000734565b620000bf6200043a565b005b6000546001600160a01b0316620000a6565b620000bf620000e436600462000748565b62000452565b60006001600160e01b031982166335e5507760e11b14806200011c57506301ffc9a760e01b6001600160e01b03198316145b92915050565b6000806001600160a01b0316600185856040516200014292919062000773565b908152604051908190036020019020546001600160a01b031614620001ba5760405162461bcd60e51b8152602060048201526024808201527f536c696365466163746f72793a20536c69636520616c7265616479206465706c6044820152631bde595960e21b60648201526084015b60405180910390fd5b6000620001cb602084018462000748565b6001600160a01b031603620002385760405162461bcd60e51b815260206004820152602c60248201527f536c696365466163746f72793a20496e76616c696420556e697377617020526f60448201526b75746572206164647265737360a01b6064820152608401620001b1565b60006200024c604084016020850162000748565b6001600160a01b031603620002af5760405162461bcd60e51b815260206004820152602260248201527f536c696365466163746f72793a20496e76616c69642055534443206164647265604482015261737360f01b6064820152608401620001b1565b620002be608083018362000783565b90506000036200031c5760405162461bcd60e51b815260206004820152602260248201527f536c696365466163746f72793a20496e76616c6964206d657461646174612055604482015261524960f01b6064820152608401620001b1565b6200032984848462000497565b905080600185856040516200034092919062000773565b90815260405190819003602001812080546001600160a01b039384166001600160a01b031990911617905563f2fde38b60e01b81529082169063f2fde38b906200038f90339060040162000734565b600060405180830381600087803b158015620003aa57600080fd5b505af1158015620003bf573d6000803e3d6000fd5b5050506001600160a01b03821690507f161ecf73e3bfe9baee592d61843de85e606e927fa437c4355182cde715d72a92620003fe602085018562000748565b62000410604086016020870162000748565b604080516001600160a01b0393841681529290911660208301520160405180910390a29392505050565b620004446200057b565b620004506000620005ab565b565b6200045c6200057b565b6001600160a01b03811662000489576000604051631e4fbdf760e01b8152600401620001b1919062000734565b6200049481620005ab565b50565b60008060405180602001620004ac9062000651565b601f1982820381018352601f9091011660405290506000620004d2602085018562000748565b620004e4604086016020870162000748565b620004f3604087018762000783565b62000502606089018962000783565b6200051160808b018b62000783565b6040516020016200052a989796959493929190620007fd565b6040516020818303038152906040529050600082826040516020016200055292919062000899565b604051602081830303815290604052905062000570878783620005fb565b979650505050505050565b6000546001600160a01b0316331462000450573360405163118cdaa760e01b8152600401620001b1919062000734565b600080546001600160a01b038381166001600160a01b0319831681178455604051919092169283917f8be0079c531659141344cd1fd0a4f28419497f9722a3daafe3b4186f6b6457e09190a35050565b60008084846040516020016200061392919062000773565b604051602081830303815290604052805190602001209050600083602001845183818334f592505050803b6200064857600080fd5b95945050505050565b61499780620008bb83390190565b6000602082840312156200067257600080fd5b81356001600160e01b0319811681146200068b57600080fd5b9392505050565b600080600060408486031215620006a857600080fd5b833567ffffffffffffffff80821115620006c157600080fd5b818601915086601f830112620006d657600080fd5b813581811115620006e657600080fd5b876020828501011115620006f957600080fd5b6020928301955093509085013590808211156200071557600080fd5b50840160a081870312156200072957600080fd5b809150509250925092565b6001600160a01b0391909116815260200190565b6000602082840312156200075b57600080fd5b81356001600160a01b03811681146200068b57600080fd5b8183823760009101908152919050565b6000808335601e198436030181126200079b57600080fd5b83018035915067ffffffffffffffff821115620007b757600080fd5b602001915036819003821315620007cd57600080fd5b9250929050565b81835281816020850137506000828201602090810191909152601f909101601f19169091010190565b6001600160a01b0389811682528816602082015260a0604082018190526000906200082c908301888a620007d4565b828103606084015262000841818789620007d4565b9050828103608084015262000858818587620007d4565b9b9a5050505050505050505050565b6000815160005b818110156200088a57602081850181015186830152016200086e565b50600093019283525090919050565b6000620008b2620008ab838662000867565b8462000867565b94935050505056fe6101606040523480156200001257600080fd5b506040516200499738038062004997833981016040819052620000359162000488565b338380604051806040016040528060018152602001603160f81b81525086868160039081620000659190620005d1565b506004620000748282620005d1565b506200008691508390506005620002d0565b6101205262000097816006620002d0565b61014052815160208084019190912060e052815190820120610100524660a0526200012560e05161010051604080517f8b73c3c69bb8fe3d512ecc4cf759cc79239f7b179b0ffacaa9a75d522b39400f60208201529081019290925260608201524660808201523060a082015260009060c00160405160208183030381529060405280519060200120905090565b60805250503060c052506001600160a01b0381166200015f57604051631e4fbdf760e01b8152600060048201526024015b60405180910390fd5b6200016a8162000309565b506001600160a01b038516620001d15760405162461bcd60e51b815260206004820152602560248201527f536c6963653a20496e76616c696420556e697377617020726f75746572206164604482015264647265737360d81b606482015260840162000156565b6001600160a01b038416620002335760405162461bcd60e51b815260206004820152602160248201527f536c6963653a20496e76616c6964205553444320746f6b656e206164647265736044820152607360f81b606482015260840162000156565b8051600003620002865760405162461bcd60e51b815260206004820152601b60248201527f536c6963653a20496e76616c6964206d65746164617461205552490000000000604482015260640162000156565b600c80546001600160a01b038088166001600160a01b031992831617909255600d8054928716929091169190911790556009620002c48282620005d1565b505050505050620006f7565b6000602083511015620002f057620002e8836200035b565b905062000303565b81620002fd8482620005d1565b5060ff90505b92915050565b600880546001600160a01b038381166001600160a01b0319831681179093556040519116919082907f8be0079c531659141344cd1fd0a4f28419497f9722a3daafe3b4186f6b6457e090600090a35050565b600080829050601f8151111562000389578260405163305a27a960e01b81526004016200015691906200069d565b80516200039682620006d2565b179392505050565b80516001600160a01b0381168114620003b657600080fd5b919050565b634e487b7160e01b600052604160045260246000fd5b60005b83811015620003ee578181015183820152602001620003d4565b50506000910152565b600082601f8301126200040957600080fd5b81516001600160401b0380821115620004265762000426620003bb565b604051601f8301601f19908116603f01168101908282118183101715620004515762000451620003bb565b816040528381528660208588010111156200046b57600080fd5b6200047e846020830160208901620003d1565b9695505050505050565b600080600080600060a08688031215620004a157600080fd5b620004ac866200039e565b9450620004bc602087016200039e565b60408701519094506001600160401b0380821115620004da57600080fd5b620004e889838a01620003f7565b94506060880151915080821115620004ff57600080fd5b6200050d89838a01620003f7565b935060808801519150808211156200052457600080fd5b506200053388828901620003f7565b9150509295509295909350565b600181811c908216806200055557607f821691505b6020821081036200057657634e487b7160e01b600052602260045260246000fd5b50919050565b601f821115620005cc576000816000526020600020601f850160051c81016020861015620005a75750805b601f850160051c820191505b81811015620005c857828155600101620005b3565b5050505b505050565b81516001600160401b03811115620005ed57620005ed620003bb565b6200060581620005fe845462000540565b846200057c565b602080601f8311600181146200063d5760008415620006245750858301515b600019600386901b1c1916600185901b178555620005c8565b600085815260208120601f198616915b828110156200066e578886015182559484019460019091019084016200064d565b50858210156200068d5787850151600019600388901b60f8161c191681555b5050505050600190811b01905550565b6020815260008251806020840152620006be816040850160208701620003d1565b601f01601f19169190910160400192915050565b80516020808301519190811015620005765760001960209190910360031b1b16919050565b60805160a05160c05160e051610100516101205161014051614245620007526000396000612baf01526000612b82015260006120c60152600061209e01526000611ff9015260006120230152600061204d01526142456000f3fe608060405234801561001057600080fd5b50600436106101b05760003560e01c80637d7c2a1c116100ef578063c358234b11610092578063c358234b146103b4578063c55dae63146103c9578063d505accf146103d1578063d9cde4a3146103e4578063dd62ed3e146103f7578063e7078f921461040a578063f2fde38b1461041d578063fa4d40531461043057600080fd5b80637d7c2a1c1461031f5780637ecebe001461032757806384b0196e1461033a5780638d0fac76146103555780638da5cb5b1461037557806395d89b4114610386578063a1c3d3de1461038e578063a9059cbb146103a157600080fd5b806323b872dd1161015757806323b872dd146102895780632e1a7d4d1461029c578063313ce567146102bc5780633644e515146102cb57806347e7ef24146102d357806370a08231146102e6578063715018a61461030f57806377a4d5591461031757600080fd5b8063013a0247146101b557806301ffc9a7146101db57806306fdde03146101fe578063095ea7b3146102135780630cd950fd146102265780631694505e1461023b57806318160ddd146102555780631fd48b9a1461025d575b600080fd5b6101c86101c33660046135be565b610443565b6040519081526020015b60405180910390f35b6101ee6101e936600461361a565b610571565b60405190151581526020016101d2565b6102066105a8565b6040516101d29190613694565b6101ee6102213660046136a7565b61063a565b6102396102343660046136ea565b610652565b005b600c546001600160a01b03165b6040516101d29190613731565b6002546101c8565b61024861026b366004613745565b6001600160a01b039081166000908152600e60205260409020541690565b6101ee610297366004613762565b6109f9565b6102af6102aa3660046137a3565b610a1f565b6040516101d291906137f8565b604051601281526020016101d2565b6101c8610bf2565b6101c86102e13660046136a7565b610c01565b6101c86102f4366004613745565b6001600160a01b031660009081526020819052604090205490565b610239610c6f565b610206610c83565b610239610c92565b6101c8610335366004613745565b61117d565b61034261119b565b6040516101d2979695949392919061380b565b610368610363366004613745565b6111e1565b6040516101d291906138a6565b6008546001600160a01b0316610248565b6102066112bd565b61023961039c3660046138b4565b6112cc565b6101ee6103af3660046136a7565b61145f565b6103bc61146d565b6040516101d291906138e9565b6102486114f9565b6102396103df36600461392b565b611508565b6101c86103f236600461399c565b611633565b6101c86104053660046139d1565b61189e565b6101c8610418366004613745565b6118c9565b61023961042b366004613745565b611953565b6102af61043e366004613bb2565b611991565b600080861161046d5760405162461bcd60e51b815260040161046490613ca6565b60405180910390fd5b6001600160a01b0387166104935760405162461bcd60e51b815260040161046490613cd5565b428510156104b35760405162461bcd60e51b815260040161046490613d0c565b60006104be886111e1565b6020015190506001600160a01b0381166104ec578760405162746ce760e21b81526004016104649190613731565b60405163d505accf60e01b815233906001600160a01b0383169063d505accf9061052690849030908d908d908d908d908d90600401613d3d565b600060405180830381600087803b15801561054057600080fd5b505af1158015610554573d6000803e3d6000fd5b50505050610564818a848b611cee565b9998505050505050505050565b60006001600160e01b031982166301a4a4b960e51b14806105a257506301ffc9a760e01b6001600160e01b03198316145b92915050565b6060600380546105b790613d7e565b80601f01602080910402602001604051908101604052809291908181526020018280546105e390613d7e565b80156106305780601f1061060557610100808354040283529160200191610630565b820191906000526020600020905b81548152906001019060200180831161061357829003601f168201915b5050505050905090565b600033610648818585611e7a565b5060019392505050565b6001600160a01b0383166106785760405162461bcd60e51b815260040161046490613cd5565b6001600160a01b0382166106d85760405162461bcd60e51b815260206004820152602160248201527f536c6963653a20496e76616c69642070726963652066656564206164647265736044820152607360f81b6064820152608401610464565b61ffff8116158015906106f157506127108161ffff1614155b6107495760405162461bcd60e51b8152602060048201526024808201527f536c6963653a20496e76616c696420616c6c6f636174696f6e2070657263656e6044820152637461676560e01b6064820152608401610464565b6127108161ffff16600b5461075e9190613dc8565b11156107b85760405162461bcd60e51b8152602060048201526024808201527f536c6963653a20546f74616c20616c6c6f636174696f6e2065786365656473206044820152633130302560e01b6064820152608401610464565b60006107c3846111e1565b516001600160a01b0316146107ed57826040516363ec8ef160e11b81526004016104649190613731565b6107fe83630a957a0160e21b611e8c565b61081d5782604051633624dfe160e21b81526004016104649190613731565b600a546009190161084157604051635050982560e11b815260040160405180910390fd5b6000836001600160a01b03166338d52e0f6040518163ffffffff1660e01b8152600401602060405180830381865afa158015610881573d6000803e3d6000fd5b505050506040513d601f19601f820116820180604052508101906108a59190613ddb565b604080516060810182526001600160a01b0387811682528381166020830190815261ffff878116948401858152600a8054600181018255600091825295517fc65a7bb8d6351c1cf70c95a316cc6a92839c986682d98bc35f958f4883f9d2a8600290970296870180546001600160a01b03191691871691909117905592517fc65a7bb8d6351c1cf70c95a316cc6a92839c986682d98bc35f958f4883f9d2a990950180549151959094166001600160b01b031990911617600160a01b9490911693909302929092179055600b80549394509192610983908490613dc8565b90915550506001600160a01b038181166000818152600e602090815260409182902080546001600160a01b031916888616908117909155915161ffff8716815291938816917fe1e620d79ee4604d298670ecab767901fa18358e431dc956a66abfa6899d5264910160405180910390a450505050565b600033610a07858285611ea8565b610a12858585611efb565b60019150505b9392505050565b606060008211610a415760405162461bcd60e51b815260040161046490613ca6565b33610a4c8184611f5a565b600a546001600160401b03811115610a6657610a66613a0a565b604051908082528060200260200182016040528015610a8f578160200160208202803683370190505b5091506000806000610aa060025490565b610aab601288613df8565b610ab59190613e0f565b905060005b600a54811015610be857600a8181548110610ad757610ad7613e31565b600091825260208083206002909202909101546001600160a01b0316808352600f9091526040909120549094509250610b0e601290565b60ff16610b1b8385613df8565b610b259190613e0f565b868281518110610b3757610b37613e31565b602002602001018181525050610b7a85878381518110610b5957610b59613e31565b6020026020010151866001600160a01b0316611f949092919063ffffffff16565b846001600160a01b0316846001600160a01b03167f9b1bfa7fa9ee420a16e124f794c35ac9f90472acc99140eb2f6447c714cad8eb888481518110610bc157610bc1613e31565b6020026020010151604051610bd891815260200190565b60405180910390a3600101610aba565b5050505050919050565b6000610bfc611fec565b905090565b6000808211610c225760405162461bcd60e51b815260040161046490613ca6565b6000610c2d846111e1565b6020015190506001600160a01b038116610c5b578360405162746ce760e21b81526004016104649190613731565b610c6733858386611cee565b949350505050565b610c77612117565b610c816000612144565b565b6060600980546105b790613d7e565b6000610c9c612196565b905060008060008060008060008060008060008060005b8d5181101561116d578d8181518110610cce57610cce613e31565b6020026020010151600001519c508d8181518110610cee57610cee613e31565b6020026020010151602001519b508d8181518110610d0e57610d0e613e31565b6020026020010151606001519a508d8181518110610d2e57610d2e613e31565b60200260200101516080015199508d8181518110610d4e57610d4e613e31565b602002602001015160a0015198508a8a1015611165578c6001600160a01b0316633ba0b9a96040518163ffffffff1660e01b8152600401602060405180830381865afa158015610da2573d6000803e3d6000fd5b505050506040513d601f19601f82011682018060405250810190610dc69190613e47565b9650610dd28a8c613e60565b9750610de788670de0b6b3a764000089612885565b95508815610e3157898811610e0957610e018d8989611633565b945084610e18565b610e148d8b89611633565b9450845b508415610e3157610e318c610e2b6114f9565b876128a3565b88158015610eb05750610e426114f9565b6001600160a01b03166370a08231306040518263ffffffff1660e01b8152600401610e6d9190613731565b602060405180830381865afa158015610e8a573d6000803e3d6000fd5b505050506040513d601f19601f82011682018060405250810190610eae9190613e47565b155b61116557610ec686610ec06114f9565b8e612a5d565b9350610ed06114f9565b6001600160a01b03166370a08231306040518263ffffffff1660e01b8152600401610efb9190613731565b602060405180830381865afa158015610f18573d6000803e3d6000fd5b505050506040513d601f19601f82011682018060405250810190610f3c9190613e47565b925083831015610f68578215610f6357600d54610f63906001600160a01b03168d856128a3565b610f85565b8315610f8557600d54610f85906001600160a01b03168d866128a3565b6040516370a0823160e01b81526001600160a01b038d16906370a0823190610fb1903090600401613731565b602060405180830381865afa158015610fce573d6000803e3d6000fd5b505050506040513d601f19601f82011682018060405250810190610ff29190613e47565b91508115611165578b6001600160a01b031663095ea7b38e846040518363ffffffff1660e01b8152600401611028929190613e73565b6020604051808303816000875af1158015611047573d6000803e3d6000fd5b505050506040513d601f19601f8201168201806040525081019061106b9190613e8c565b50604051636e553f6560e01b81526001600160a01b038e1690636e553f659061109a9085903090600401613eae565b6020604051808303816000875af11580156110b9573d6000803e3d6000fd5b505050506040513d601f19601f820116820180604052508101906110dd9190613e47565b506040516370a0823160e01b81526001600160a01b038e16906370a082319061110a903090600401613731565b602060405180830381865afa158015611127573d6000803e3d6000fd5b505050506040513d601f19601f8201168201806040525081019061114b9190613e47565b6001600160a01b038e166000908152600f60205260409020555b600101610cb3565b5050505050505050505050505050565b6001600160a01b0381166000908152600760205260408120546105a2565b6000606080600080600060606111af612b7b565b6111b7612ba8565b60408051600080825260208201909252600f60f81b9b939a50919850469750309650945092509050565b60408051606081018252600080825260208201819052918101829052905b600a548110156112b757826001600160a01b0316600a828154811061122657611226613e31565b60009182526020909120600290910201546001600160a01b0316036112af57600a818154811061125857611258613e31565b60009182526020918290206040805160608101825260029390930290910180546001600160a01b03908116845260019091015490811693830193909352600160a01b90920461ffff16918101919091529392505050565b6001016111ff565b50919050565b6060600480546105b790613d7e565b6001600160a01b0382166112f25760405162461bcd60e51b815260040161046490613cd5565b61ffff81161580159061130b57506127108161ffff1614155b6113535760405162461bcd60e51b8152602060048201526019602482015278536c6963653a20496e76616c69642070657263656e7461676560381b6044820152606401610464565b600061135e836111e1565b516001600160a01b031603611387578160405162746ce760e21b81526004016104649190613731565b60005b600a5481101561141857826001600160a01b0316600a82815481106113b1576113b1613e31565b60009182526020909120600290910201546001600160a01b0316036114105781600a82815481106113e4576113e4613e31565b906000526020600020906002020160010160146101000a81548161ffff021916908361ffff1602179055505b60010161138a565b5060405161ffff821681526001600160a01b038316907f961820b4651ecef2378d97b066e501ada836f59c275237b770421b1f46e33dd59060200160405180910390a25050565b600033610648818585611efb565b6060600a805480602002602001604051908101604052809291908181526020016000905b828210156114f0576000848152602090819020604080516060810182526002860290920180546001600160a01b03908116845260019182015490811684860152600160a01b900461ffff16918301919091529083529092019101611491565b50505050905090565b600d546001600160a01b031690565b8342111561152c5760405163313c898160e11b815260048101859052602401610464565b60007f6e71edae12b1b97f4d1f60370fef10105fa2faae0126114a169c64845d6126c98888886115798c6001600160a01b0316600090815260076020526040902080546001810190915590565b6040805160208101969096526001600160a01b0394851690860152929091166060840152608083015260a082015260c0810186905260e00160405160208183030381529060405280519060200120905060006115d482612bd5565b905060006115e482878787612c02565b9050896001600160a01b0316816001600160a01b03161461161c57808a6040516325c0072360e11b8152600401610464929190613ec5565b6116278a8a8a611e7a565b50505050505050505050565b600080846001600160a01b031663fbfa77cf6040518163ffffffff1660e01b8152600401602060405180830381865afa158015611674573d6000803e3d6000fd5b505050506040513d601f19601f820116820180604052508101906116989190613ddb565b90506000816001600160a01b031663ce96cb77876040518263ffffffff1660e01b81526004016116c89190613731565b602060405180830381865afa1580156116e5573d6000803e3d6000fd5b505050506040513d601f19601f820116820180604052508101906117099190613e47565b9050600061172086670de0b6b3a764000087612885565b9050816000036117365760009350505050610a18565b61174783631ee878f360e11b611e8c565b1561187557604051633ea0e43760e11b8152600481018290526001600160a01b03888116602483018190526044830152841690637d41c86e90606401600060405180830381600087803b15801561179d57600080fd5b505af11580156117b1573d6000803e3d6000fd5b5050505080821015611849576001600160a01b03871662f714ce6117de8488670de0b6b3a7640000612885565b306040518363ffffffff1660e01b81526004016117fc929190613eae565b6020604051808303816000875af115801561181b573d6000803e3d6000fd5b505050506040513d601f19601f8201168201806040525081019061183f9190613e47565b9350505050610a18565b604051627b8a6760e11b81526001600160a01b0388169062f714ce906117fc9089903090600401613eae565b80821015611849576001600160a01b03871662f714ce6117de8488670de0b6b3a7640000612885565b6001600160a01b03918216600090815260016020908152604080832093909416825291909152205490565b6001600160a01b038082166000908152600e6020526040808220548151633fabe5a360e21b815291519293849391169163feaf968c9160048083019260a09291908290030181865afa158015611923573d6000803e3d6000fd5b505050506040513d601f19601f820116820180604052508101906119479190613ef9565b50919695505050505050565b61195b612117565b6001600160a01b038116611985576000604051631e4fbdf760e01b81526004016104649190613731565b61198e81612144565b50565b6060855187511480156119a5575084518751145b80156119b2575083518751145b80156119bf575082518751145b80156119cc575081518751145b611a185760405162461bcd60e51b815260206004820152601e60248201527f536c6963653a20646966666572656e74206172726179206c656e6774687300006044820152606401610464565b865133906000906001600160401b03811115611a3657611a36613a0a565b604051908082528060200260200182016040528015611a5f578160200160208202803683370190505b50905060005b8951811015611ce1576000898281518110611a8257611a82613e31565b602002602001015111611aa75760405162461bcd60e51b815260040161046490613ca6565b60006001600160a01b03168a8281518110611ac457611ac4613e31565b60200260200101516001600160a01b031603611af25760405162461bcd60e51b815260040161046490613cd5565b42888281518110611b0557611b05613e31565b60200260200101511015611b2b5760405162461bcd60e51b815260040161046490613d0c565b6000611b4f8b8381518110611b4257611b42613e31565b60200260200101516111e1565b6020015190506001600160a01b038116611b96578a8281518110611b7557611b75613e31565b602002602001015160405162746ce760e21b81526004016104649190613731565b806001600160a01b031663d505accf85308d8681518110611bb957611bb9613e31565b60200260200101518d8781518110611bd357611bd3613e31565b60200260200101518d8881518110611bed57611bed613e31565b60200260200101518d8981518110611c0757611c07613e31565b60200260200101518d8a81518110611c2157611c21613e31565b60200260200101516040518863ffffffff1660e01b8152600401611c4b9796959493929190613d3d565b600060405180830381600087803b158015611c6557600080fd5b505af1158015611c79573d6000803e3d6000fd5b50505050611cbb848c8481518110611c9357611c93613e31565b6020026020010151838d8681518110611cae57611cae613e31565b6020026020010151611cee565b838381518110611ccd57611ccd613e31565b602090810291909101015250600101611a65565b5098975050505050505050565b6000611d056001600160a01b038416863085612c30565b60405163095ea7b360e01b81526001600160a01b0384169063095ea7b390611d339087908690600401613e73565b6020604051808303816000875af1158015611d52573d6000803e3d6000fd5b505050506040513d601f19601f82011682018060405250810190611d769190613e8c565b50604051636e553f6560e01b81526001600160a01b03851690636e553f6590611da59085903090600401613eae565b6020604051808303816000875af1158015611dc4573d6000803e3d6000fd5b505050506040513d601f19601f82011682018060405250810190611de89190613e47565b6001600160a01b0385166000908152600f6020526040812080549293508392909190611e15908490613dc8565b90915550611e2590508582612c69565b846001600160a01b0316846001600160a01b03167f5548c837ab068cf56a2c2479df0882a4922fd203edb7517321831d95078c5f6284604051611e6a91815260200190565b60405180910390a3949350505050565b611e878383836001612c9f565b505050565b6000611e9783612d74565b8015610a185750610a188383612da7565b6000611eb4848461189e565b90506000198114611ef55781811015611ee657828183604051637dc7a0d960e11b815260040161046493929190613f49565b611ef584848484036000612c9f565b50505050565b6001600160a01b038316611f25576000604051634b637e8f60e11b81526004016104649190613731565b6001600160a01b038216611f4f57600060405163ec442f0560e01b81526004016104649190613731565b611e87838383612e31565b6001600160a01b038216611f84576000604051634b637e8f60e11b81526004016104649190613731565b611f9082600083612e31565b5050565b611e8783846001600160a01b031663a9059cbb8585604051602401611fba929190613e73565b604051602081830303815290604052915060e01b6020820180516001600160e01b038381831617835250505050612f48565b6000306001600160a01b037f00000000000000000000000000000000000000000000000000000000000000001614801561204557507f000000000000000000000000000000000000000000000000000000000000000046145b1561206f57507f000000000000000000000000000000000000000000000000000000000000000090565b610bfc604080517f8b73c3c69bb8fe3d512ecc4cf759cc79239f7b179b0ffacaa9a75d522b39400f60208201527f0000000000000000000000000000000000000000000000000000000000000000918101919091527f000000000000000000000000000000000000000000000000000000000000000060608201524660808201523060a082015260009060c00160405160208183030381529060405280519060200120905090565b6008546001600160a01b03163314610c81573360405163118cdaa760e01b81526004016104649190613731565b600880546001600160a01b038381166001600160a01b0319831681179093556040519116919082907f8be0079c531659141344cd1fd0a4f28419497f9722a3daafe3b4186f6b6457e090600090a35050565b606060006121a2612fa2565b9050600080600080600080600080600a805490506001600160401b038111156121cd576121cd613a0a565b60405190808252806020026020018201604052801561224957816020015b6122366040518060c0016040528060006001600160a01b0316815260200160006001600160a01b03168152602001600081526020016000815260200160008152602001600081525090565b8152602001906001900390816121eb5790505b50995060005b600a5481101561287857600a818154811061226c5761226c613e31565b6000918252602090912060029091020154600a80546001600160a01b039092169a50908290811061229f5761229f613e31565b600091825260208220600160029092020101546001600160a01b03169850806122c88b8b61303b565b935093505050600082116122ee5760405162461bcd60e51b815260040161046490613f6a565b612710600a848154811061230457612304613e31565b600091825260209091206002909102016001015461232d90600160a01b900461ffff168e613df8565b6123379190613e0f565b9850818a6001600160a01b031663313ce5676040518163ffffffff1660e01b8152600401602060405180830381865afa158015612378573d6000803e3d6000fd5b505050506040513d601f19601f8201168201806040525081019061239c9190613fb9565b6123a790600a6140ba565b6123b1908b613df8565b6123bb9190613e0f565b97506123d08882670de0b6b3a7640000612885565b6040516370a0823160e01b81529097506001600160a01b038c16906370a08231906123ff903090600401613731565b602060405180830381865afa15801561241c573d6000803e3d6000fd5b505050506040513d601f19601f820116820180604052508101906124409190613e47565b93508684111561273b576124548785613e60565b95506124618b8783611633565b94508415612614576124758a610e2b6114f9565b61247d6114f9565b6001600160a01b03166370a08231306040518263ffffffff1660e01b81526004016124a89190613731565b602060405180830381865afa1580156124c5573d6000803e3d6000fd5b505050506040513d601f19601f820116820180604052508101906124e99190613e47565b600f60006124f56114f9565b6001600160a01b03166001600160a01b03168152602001908152602001600020819055508a6001600160a01b03166370a08231306040518263ffffffff1660e01b81526004016125459190613731565b602060405180830381865afa158015612562573d6000803e3d6000fd5b505050506040513d601f19601f820116820180604052508101906125869190613e47565b935083600f60008d6001600160a01b03166001600160a01b03168152602001908152602001600020819055506040518060c001604052808c6001600160a01b031681526020018b6001600160a01b0316815260200189815260200188815260200185815260200160008152508d848151811061260457612604613e31565b602002602001018190525061286e565b6040518060c001604052808c6001600160a01b031681526020018b6001600160a01b031681526020018981526020018881526020018581526020018c6001600160a01b031663fbfa77cf6040518163ffffffff1660e01b8152600401602060405180830381865afa15801561268d573d6000803e3d6000fd5b505050506040513d601f19601f820116820180604052508101906126b19190613ddb565b6001600160a01b03166321e91dea8e6126c86114f9565b6040518363ffffffff1660e01b81526004016126e5929190613ec5565b602060405180830381865afa158015612702573d6000803e3d6000fd5b505050506040513d601f19601f820116820180604052508101906127269190613e47565b8152508d848151811061260457612604613e31565b6040518060c001604052808c6001600160a01b031681526020018b6001600160a01b031681526020018981526020018881526020018581526020018c6001600160a01b031663fbfa77cf6040518163ffffffff1660e01b8152600401602060405180830381865afa1580156127b4573d6000803e3d6000fd5b505050506040513d601f19601f820116820180604052508101906127d89190613ddb565b6001600160a01b03166321e91dea8e6127ef6114f9565b6040518363ffffffff1660e01b815260040161280c929190613ec5565b602060405180830381865afa158015612829573d6000803e3d6000fd5b505050506040513d601f19601f8201168201806040525081019061284d9190613e47565b8152508d848151811061286257612862613e31565b60200260200101819052505b505060010161224f565b5050505050505050505090565b600082600019048411830215820261289c57600080fd5b5091020490565b806000036128b057505050565b60408051600280825260608201835260009260208301908036833701905050905083816000815181106128e5576128e5613e31565b60200260200101906001600160a01b031690816001600160a01b031681525050828160018151811061291957612919613e31565b60200260200101906001600160a01b031690816001600160a01b0316815250508060008151811061294c5761294c613e31565b60200260200101516001600160a01b031663095ea7b3612974600c546001600160a01b031690565b846040518363ffffffff1660e01b8152600401612992929190613e73565b6020604051808303816000875af11580156129b1573d6000803e3d6000fd5b505050506040513d601f19601f820116820180604052508101906129d59190613e8c565b50600c546040516338ed173960e01b81526001600160a01b03909116906338ed173990612a0f908590600090869030904290600401614103565b6000604051808303816000875af1158015612a2e573d6000803e3d6000fd5b505050506040513d6000823e601f3d908101601f19168201604052612a56919081019061413f565b5050505050565b604080516002808252606082018352600092839291906020830190803683370190505090508381600081518110612a9657612a96613e31565b60200260200101906001600160a01b031690816001600160a01b0316815250508281600181518110612aca57612aca613e31565b6001600160a01b039283166020918202929092010152600c546040516307c0329d60e21b81526000929190911690631f00ca7490612b0e90899086906004016141c4565b600060405180830381865afa158015612b2b573d6000803e3d6000fd5b505050506040513d6000823e601f3d908101601f19168201604052612b53919081019061413f565b905080600081518110612b6857612b68613e31565b6020026020010151925050509392505050565b6060610bfc7f000000000000000000000000000000000000000000000000000000000000000060056131e3565b6060610bfc7f000000000000000000000000000000000000000000000000000000000000000060066131e3565b60006105a2612be2611fec565b8360405161190160f01b8152600281019290925260228201526042902090565b600080600080612c148888888861328e565b925092509250612c248282613353565b50909695505050505050565b6040516001600160a01b038481166024830152838116604483015260648201839052611ef59186918216906323b872dd90608401611fba565b6001600160a01b038216612c9357600060405163ec442f0560e01b81526004016104649190613731565b611f9060008383612e31565b6001600160a01b038416612cc957600060405163e602df0560e01b81526004016104649190613731565b6001600160a01b038316612cf3576000604051634a1406b160e11b81526004016104649190613731565b6001600160a01b0380851660009081526001602090815260408083209387168352929052208290558015611ef557826001600160a01b0316846001600160a01b03167f8c5be1e5ebec7d5bd14f71427d1e84f3dd0314c0f7b2291e5b200ac8c7c3b92584604051612d6691815260200190565b60405180910390a350505050565b6000612d87826301ffc9a760e01b612da7565b80156105a25750612da0826001600160e01b0319612da7565b1592915050565b6040516001600160e01b031982166024820152600090819060440160408051601f19818403018152919052602080820180516001600160e01b03166301ffc9a760e01b178152825192935060009283928392909183918a617530fa92503d91506000519050828015612e1a575060208210155b8015612e265750600081115b979650505050505050565b6001600160a01b038316612e5c578060026000828254612e519190613dc8565b90915550612ebb9050565b6001600160a01b03831660009081526020819052604090205481811015612e9c5783818360405163391434e360e21b815260040161046493929190613f49565b6001600160a01b03841660009081526020819052604090209082900390555b6001600160a01b038216612ed757600280548290039055612ef6565b6001600160a01b03821660009081526020819052604090208054820190555b816001600160a01b0316836001600160a01b03167fddf252ad1be2c89b69c2b068fc378daa952ba7f163c4a11628f55a4df523b3ef83604051612f3b91815260200190565b60405180910390a3505050565b6000612f5d6001600160a01b0384168361340c565b90508051600014158015612f82575080806020019051810190612f809190613e8c565b155b15611e875782604051635274afe760e01b81526004016104649190613731565b6000805b600a5481101561303757600061301b600a8381548110612fc857612fc8613e31565b6000918252602090912060029091020154600a80546001600160a01b039092169185908110612ff957612ff9613e31565b60009182526020909120600160029092020101546001600160a01b031661303b565b5050509050808361302c9190613dc8565b925050600101612fa6565b5090565b6000806000806000866001600160a01b03166370a08231306040518263ffffffff1660e01b815260040161306f9190613731565b602060405180830381865afa15801561308c573d6000803e3d6000fd5b505050506040513d601f19601f820116820180604052508101906130b09190613e47565b9050866001600160a01b0316633ba0b9a96040518163ffffffff1660e01b8152600401602060405180830381865afa1580156130f0573d6000803e3d6000fd5b505050506040513d601f19601f820116820180604052508101906131149190613e47565b915061311f866118c9565b9250600083116131415760405162461bcd60e51b815260040161046490613f6a565b6131548183670de0b6b3a7640000612885565b9350866001600160a01b031663313ce5676040518163ffffffff1660e01b8152600401602060405180830381865afa158015613194573d6000803e3d6000fd5b505050506040513d601f19601f820116820180604052508101906131b89190613fb9565b6131c390600a6140ba565b6131cd8486613df8565b6131d79190613e0f565b94505092959194509250565b606060ff83146131fd576131f68361341a565b90506105a2565b81805461320990613d7e565b80601f016020809104026020016040519081016040528092919081815260200182805461323590613d7e565b80156132825780601f1061325757610100808354040283529160200191613282565b820191906000526020600020905b81548152906001019060200180831161326557829003601f168201915b505050505090506105a2565b600080806fa2a8918ca85bafe22016d0b997e4df60600160ff1b038411156132bf5750600091506003905082613349565b604080516000808252602082018084528a905260ff891692820192909252606081018790526080810186905260019060a0016020604051602081039080840390855afa158015613313573d6000803e3d6000fd5b5050604051601f1901519150506001600160a01b03811661333f57506000925060019150829050613349565b9250600091508190505b9450945094915050565b6000826003811115613367576133676141dd565b03613370575050565b6001826003811115613384576133846141dd565b036133a25760405163f645eedf60e01b815260040160405180910390fd5b60028260038111156133b6576133b66141dd565b036133d75760405163fce698f760e01b815260048101829052602401610464565b60038260038111156133eb576133eb6141dd565b03611f90576040516335e2f38360e21b815260048101829052602401610464565b6060610a1883836000613459565b60606000613427836134f6565b604080516020808252818301909252919250600091906020820181803683375050509182525060208101929092525090565b60608147101561347e573060405163cd78605960e01b81526004016104649190613731565b600080856001600160a01b0316848660405161349a91906141f3565b60006040518083038185875af1925050503d80600081146134d7576040519150601f19603f3d011682016040523d82523d6000602084013e6134dc565b606091505b50915091506134ec86838361351e565b9695505050505050565b600060ff8216601f8111156105a257604051632cd44ac360e21b815260040160405180910390fd5b6060826135335761352e82613571565b610a18565b815115801561354a57506001600160a01b0384163b155b1561356a5783604051639996b31560e01b81526004016104649190613731565b5080610a18565b8051156135815780518082602001fd5b604051630a12f52160e11b815260040160405180910390fd5b6001600160a01b038116811461198e57600080fd5b60ff8116811461198e57600080fd5b60008060008060008060c087890312156135d757600080fd5b86356135e28161359a565b955060208701359450604087013593506060870135613600816135af565b9598949750929560808101359460a0909101359350915050565b60006020828403121561362c57600080fd5b81356001600160e01b031981168114610a1857600080fd5b60005b8381101561365f578181015183820152602001613647565b50506000910152565b60008151808452613680816020860160208601613644565b601f01601f19169290920160200192915050565b602081526000610a186020830184613668565b600080604083850312156136ba57600080fd5b82356136c58161359a565b946020939093013593505050565b803561ffff811681146136e557600080fd5b919050565b6000806000606084860312156136ff57600080fd5b833561370a8161359a565b9250602084013561371a8161359a565b9150613728604085016136d3565b90509250925092565b6001600160a01b0391909116815260200190565b60006020828403121561375757600080fd5b8135610a188161359a565b60008060006060848603121561377757600080fd5b83356137828161359a565b925060208401356137928161359a565b929592945050506040919091013590565b6000602082840312156137b557600080fd5b5035919050565b60008151808452602080850194506020840160005b838110156137ed578151875295820195908201906001016137d1565b509495945050505050565b602081526000610a1860208301846137bc565b60ff60f81b8816815260e06020820152600061382a60e0830189613668565b828103604084015261383c8189613668565b606084018890526001600160a01b038716608085015260a0840186905283810360c0850152905061386d81856137bc565b9a9950505050505050505050565b80516001600160a01b0390811683526020808301519091169083015260409081015161ffff16910152565b606081016105a2828461387b565b600080604083850312156138c757600080fd5b82356138d28161359a565b91506138e0602084016136d3565b90509250929050565b6020808252825182820181905260009190848201906040850190845b81811015612c245761391883855161387b565b9284019260609290920191600101613905565b600080600080600080600060e0888a03121561394657600080fd5b87356139518161359a565b965060208801356139618161359a565b95506040880135945060608801359350608088013561397f816135af565b9699959850939692959460a0840135945060c09093013592915050565b6000806000606084860312156139b157600080fd5b83356139bc8161359a565b95602085013595506040909401359392505050565b600080604083850312156139e457600080fd5b82356139ef8161359a565b915060208301356139ff8161359a565b809150509250929050565b634e487b7160e01b600052604160045260246000fd5b604051601f8201601f191681016001600160401b0381118282101715613a4857613a48613a0a565b604052919050565b60006001600160401b03821115613a6957613a69613a0a565b5060051b60200190565b600082601f830112613a8457600080fd5b81356020613a99613a9483613a50565b613a20565b8083825260208201915060208460051b870101935086841115613abb57600080fd5b602086015b84811015613ae0578035613ad38161359a565b8352918301918301613ac0565b509695505050505050565b600082601f830112613afc57600080fd5b81356020613b0c613a9483613a50565b8083825260208201915060208460051b870101935086841115613b2e57600080fd5b602086015b84811015613ae05780358352918301918301613b33565b600082601f830112613b5b57600080fd5b81356020613b6b613a9483613a50565b8083825260208201915060208460051b870101935086841115613b8d57600080fd5b602086015b84811015613ae0578035613ba5816135af565b8352918301918301613b92565b60008060008060008060c08789031215613bcb57600080fd5b86356001600160401b0380821115613be257600080fd5b613bee8a838b01613a73565b97506020890135915080821115613c0457600080fd5b613c108a838b01613aeb565b96506040890135915080821115613c2657600080fd5b613c328a838b01613aeb565b95506060890135915080821115613c4857600080fd5b613c548a838b01613b4a565b94506080890135915080821115613c6a57600080fd5b613c768a838b01613aeb565b935060a0890135915080821115613c8c57600080fd5b50613c9989828a01613aeb565b9150509295509295509295565b60208082526015908201527414db1a58d94e88125b9d985b1a5908185b5bdd5b9d605a1b604082015260600190565b6020808252601d908201527f536c6963653a20496e76616c69642061546f6b656e2061646472657373000000604082015260600190565b602080825260179082015276536c6963653a20496e76616c696420646561646c696e6560481b604082015260600190565b6001600160a01b0397881681529590961660208601526040850193909352606084019190915260ff16608083015260a082015260c081019190915260e00190565b600181811c90821680613d9257607f821691505b6020821081036112b757634e487b7160e01b600052602260045260246000fd5b634e487b7160e01b600052601160045260246000fd5b808201808211156105a2576105a2613db2565b600060208284031215613ded57600080fd5b8151610a188161359a565b80820281158282048414176105a2576105a2613db2565b600082613e2c57634e487b7160e01b600052601260045260246000fd5b500490565b634e487b7160e01b600052603260045260246000fd5b600060208284031215613e5957600080fd5b5051919050565b818103818111156105a2576105a2613db2565b6001600160a01b03929092168252602082015260400190565b600060208284031215613e9e57600080fd5b81518015158114610a1857600080fd5b9182526001600160a01b0316602082015260400190565b6001600160a01b0392831681529116602082015260400190565b805169ffffffffffffffffffff811681146136e557600080fd5b600080600080600060a08688031215613f1157600080fd5b613f1a86613edf565b9450602086015193506040860151925060608601519150613f3d60808701613edf565b90509295509295909350565b6001600160a01b039390931683526020830191909152604082015260600190565b6020808252602f908201527f536c6963653a20496e76616c69642070726963652066656564202d207a65726f60408201526e206f72207374616c6520707269636560881b606082015260800190565b600060208284031215613fcb57600080fd5b8151610a18816135af565b600181815b80851115614011578160001904821115613ff757613ff7613db2565b8085161561400457918102915b93841c9390800290613fdb565b509250929050565b600082614028575060016105a2565b81614035575060006105a2565b816001811461404b576002811461405557614071565b60019150506105a2565b60ff84111561406657614066613db2565b50506001821b6105a2565b5060208310610133831016604e8410600b8410161715614094575081810a6105a2565b61409e8383613fd6565b80600019048211156140b2576140b2613db2565b029392505050565b6000610a1860ff841683614019565b60008151808452602080850194506020840160005b838110156137ed5781516001600160a01b0316875295820195908201906001016140de565b85815284602082015260a06040820152600061412260a08301866140c9565b6001600160a01b0394909416606083015250608001529392505050565b6000602080838503121561415257600080fd5b82516001600160401b0381111561416857600080fd5b8301601f8101851361417957600080fd5b8051614187613a9482613a50565b81815260059190911b820183019083810190878311156141a657600080fd5b928401925b82841015612e26578351825292840192908401906141ab565b828152604060208201526000610c6760408301846140c9565b634e487b7160e01b600052602160045260246000fd5b60008251614205818460208701613644565b919091019291505056fea26469706673582212205af162305fe9fe61dc51864e795b63de61dc99feabf5cb48e3ef12f79293b22f64736f6c63430008180033a264697066735822122041de6db005aaaec87e11c8d47c741ac6d6bdb9d8d9a61a0e820cc0959dcb2a8264736f6c63430008180033",
  "linkReferences": {},
  "deployedLinkReferences": {}
}