{
  "_format": "hh-sol-artifact-1",
  "contractName": "SliceV2",
  "sourceName": "contracts/slice/SliceV2.sol",
  "abi": [
    {
      "inputs": [
        {
          "internalType": "address",
          "name": "uniswapRouter_",
          "type": "address"
        },
        {
          "internalType": "address",
          "name": "baseToken_",
          "type": "address"
        },
        {
          "internalType": "string",
          "name": "name_",
          "type": "string"
        },
        {
          "internalType": "string",
          "name": "symbol_",
          "type": "string"
        },
        {
          "internalType": "string",
          "name": "metadataUri_",
          "type": "string"
        }
      ],
      "stateMutability": "nonpayable",
      "type": "constructor"
    },
    {
      "inputs": [
        {
          "internalType": "address",
          "name": "target",
          "type": "address"
        }
      ],
      "name": "AddressEmptyCode",
      "type": "error"
    },
    {
      "inputs": [
        {
          "internalType": "address",
          "name": "account",
          "type": "address"
        }
      ],
      "name": "AddressInsufficientBalance",
      "type": "error"
    },
    {
      "inputs": [
        {
          "internalType": "address",
          "name": "aToken",
          "type": "address"
        }
      ],
      "name": "AllocationNotFound",
      "type": "error"
    },
    {
      "inputs": [],
      "name": "AllocationsLimitReached",
      "type": "error"
    },
    {
      "inputs": [
        {
          "internalType": "address",
          "name": "aToken",
          "type": "address"
        }
      ],
      "name": "AssociatedAllocationExists",
      "type": "error"
    },
    {
      "inputs": [],
      "name": "ECDSAInvalidSignature",
      "type": "error"
    },
    {
      "inputs": [
        {
          "internalType": "uint256",
          "name": "length",
          "type": "uint256"
        }
      ],
      "name": "ECDSAInvalidSignatureLength",
      "type": "error"
    },
    {
      "inputs": [
        {
          "internalType": "bytes32",
          "name": "s",
          "type": "bytes32"
        }
      ],
      "name": "ECDSAInvalidSignatureS",
      "type": "error"
    },
    {
      "inputs": [
        {
          "internalType": "address",
          "name": "spender",
          "type": "address"
        },
        {
          "internalType": "uint256",
          "name": "allowance",
          "type": "uint256"
        },
        {
          "internalType": "uint256",
          "name": "needed",
          "type": "uint256"
        }
      ],
      "name": "ERC20InsufficientAllowance",
      "type": "error"
    },
    {
      "inputs": [
        {
          "internalType": "address",
          "name": "sender",
          "type": "address"
        },
        {
          "internalType": "uint256",
          "name": "balance",
          "type": "uint256"
        },
        {
          "internalType": "uint256",
          "name": "needed",
          "type": "uint256"
        }
      ],
      "name": "ERC20InsufficientBalance",
      "type": "error"
    },
    {
      "inputs": [
        {
          "internalType": "address",
          "name": "approver",
          "type": "address"
        }
      ],
      "name": "ERC20InvalidApprover",
      "type": "error"
    },
    {
      "inputs": [
        {
          "internalType": "address",
          "name": "receiver",
          "type": "address"
        }
      ],
      "name": "ERC20InvalidReceiver",
      "type": "error"
    },
    {
      "inputs": [
        {
          "internalType": "address",
          "name": "sender",
          "type": "address"
        }
      ],
      "name": "ERC20InvalidSender",
      "type": "error"
    },
    {
      "inputs": [
        {
          "internalType": "address",
          "name": "spender",
          "type": "address"
        }
      ],
      "name": "ERC20InvalidSpender",
      "type": "error"
    },
    {
      "inputs": [
        {
          "internalType": "uint256",
          "name": "deadline",
          "type": "uint256"
        }
      ],
      "name": "ERC2612ExpiredSignature",
      "type": "error"
    },
    {
      "inputs": [
        {
          "internalType": "address",
          "name": "signer",
          "type": "address"
        },
        {
          "internalType": "address",
          "name": "owner",
          "type": "address"
        }
      ],
      "name": "ERC2612InvalidSigner",
      "type": "error"
    },
    {
      "inputs": [],
      "name": "FailedInnerCall",
      "type": "error"
    },
    {
      "inputs": [
        {
          "internalType": "address",
          "name": "account",
          "type": "address"
        },
        {
          "internalType": "uint256",
          "name": "currentNonce",
          "type": "uint256"
        }
      ],
      "name": "InvalidAccountNonce",
      "type": "error"
    },
    {
      "inputs": [],
      "name": "InvalidShortString",
      "type": "error"
    },
    {
      "inputs": [
        {
          "internalType": "address",
          "name": "owner",
          "type": "address"
        }
      ],
      "name": "OwnableInvalidOwner",
      "type": "error"
    },
    {
      "inputs": [
        {
          "internalType": "address",
          "name": "account",
          "type": "address"
        }
      ],
      "name": "OwnableUnauthorizedAccount",
      "type": "error"
    },
    {
      "inputs": [
        {
          "internalType": "address",
          "name": "token",
          "type": "address"
        }
      ],
      "name": "SafeERC20FailedOperation",
      "type": "error"
    },
    {
      "inputs": [
        {
          "internalType": "string",
          "name": "str",
          "type": "string"
        }
      ],
      "name": "StringTooLong",
      "type": "error"
    },
    {
      "inputs": [
        {
          "internalType": "address",
          "name": "aToken",
          "type": "address"
        }
      ],
      "name": "UnsupportedAToken",
      "type": "error"
    },
    {
      "anonymous": false,
      "inputs": [
        {
          "indexed": true,
          "internalType": "address",
          "name": "token",
          "type": "address"
        },
        {
          "indexed": true,
          "internalType": "address",
          "name": "asset",
          "type": "address"
        },
        {
          "indexed": true,
          "internalType": "address",
          "name": "priceFeed",
          "type": "address"
        },
        {
          "indexed": false,
          "internalType": "uint16",
          "name": "allocationPercentage",
          "type": "uint16"
        }
      ],
      "name": "AllocationAdded",
      "type": "event"
    },
    {
      "anonymous": false,
      "inputs": [
        {
          "indexed": true,
          "internalType": "address",
          "name": "token",
          "type": "address"
        },
        {
          "indexed": false,
          "internalType": "uint16",
          "name": "allocationPercentage",
          "type": "uint16"
        }
      ],
      "name": "AllocationPercentageChanged",
      "type": "event"
    },
    {
      "anonymous": false,
      "inputs": [
        {
          "indexed": true,
          "internalType": "address",
          "name": "owner",
          "type": "address"
        },
        {
          "indexed": true,
          "internalType": "address",
          "name": "spender",
          "type": "address"
        },
        {
          "indexed": false,
          "internalType": "uint256",
          "name": "value",
          "type": "uint256"
        }
      ],
      "name": "Approval",
      "type": "event"
    },
    {
      "anonymous": false,
      "inputs": [
        {
          "indexed": true,
          "internalType": "address",
          "name": "token",
          "type": "address"
        },
        {
          "indexed": true,
          "internalType": "address",
          "name": "sender",
          "type": "address"
        },
        {
          "indexed": false,
          "internalType": "uint256",
          "name": "amount",
          "type": "uint256"
        }
      ],
      "name": "Deposit",
      "type": "event"
    },
    {
      "anonymous": false,
      "inputs": [],
      "name": "EIP712DomainChanged",
      "type": "event"
    },
    {
      "anonymous": false,
      "inputs": [
        {
          "indexed": true,
          "internalType": "address",
          "name": "previousOwner",
          "type": "address"
        },
        {
          "indexed": true,
          "internalType": "address",
          "name": "newOwner",
          "type": "address"
        }
      ],
      "name": "OwnershipTransferred",
      "type": "event"
    },
    {
      "anonymous": false,
      "inputs": [
        {
          "indexed": true,
          "internalType": "address",
          "name": "from",
          "type": "address"
        },
        {
          "indexed": true,
          "internalType": "address",
          "name": "to",
          "type": "address"
        },
        {
          "indexed": false,
          "internalType": "uint256",
          "name": "value",
          "type": "uint256"
        }
      ],
      "name": "Transfer",
      "type": "event"
    },
    {
      "anonymous": false,
      "inputs": [
        {
          "indexed": true,
          "internalType": "address",
          "name": "token",
          "type": "address"
        },
        {
          "indexed": true,
          "internalType": "address",
          "name": "receiver",
          "type": "address"
        },
        {
          "indexed": false,
          "internalType": "uint256",
          "name": "amount",
          "type": "uint256"
        }
      ],
      "name": "Withdraw",
      "type": "event"
    },
    {
      "inputs": [],
      "name": "DOMAIN_SEPARATOR",
      "outputs": [
        {
          "internalType": "bytes32",
          "name": "",
          "type": "bytes32"
        }
      ],
      "stateMutability": "view",
      "type": "function"
    },
    {
      "inputs": [
        {
          "internalType": "address",
          "name": "aToken",
          "type": "address"
        },
        {
          "internalType": "address",
          "name": "priceFeedAddress",
          "type": "address"
        },
        {
          "internalType": "uint16",
          "name": "percentage",
          "type": "uint16"
        }
      ],
      "name": "addAllocation",
      "outputs": [],
      "stateMutability": "nonpayable",
      "type": "function"
    },
    {
      "inputs": [],
      "name": "allocations",
      "outputs": [
        {
          "components": [
            {
              "internalType": "address",
              "name": "aToken",
              "type": "address"
            },
            {
              "internalType": "address",
              "name": "asset",
              "type": "address"
            },
            {
              "internalType": "uint16",
              "name": "targetPercentage",
              "type": "uint16"
            }
          ],
          "internalType": "struct ISlice.Allocation[]",
          "name": "",
          "type": "tuple[]"
        }
      ],
      "stateMutability": "view",
      "type": "function"
    },
    {
      "inputs": [
        {
          "internalType": "address",
          "name": "owner",
          "type": "address"
        },
        {
          "internalType": "address",
          "name": "spender",
          "type": "address"
        }
      ],
      "name": "allowance",
      "outputs": [
        {
          "internalType": "uint256",
          "name": "",
          "type": "uint256"
        }
      ],
      "stateMutability": "view",
      "type": "function"
    },
    {
      "inputs": [
        {
          "internalType": "address",
          "name": "spender",
          "type": "address"
        },
        {
          "internalType": "uint256",
          "name": "value",
          "type": "uint256"
        }
      ],
      "name": "approve",
      "outputs": [
        {
          "internalType": "bool",
          "name": "",
          "type": "bool"
        }
      ],
      "stateMutability": "nonpayable",
      "type": "function"
    },
    {
      "inputs": [
        {
          "internalType": "address",
          "name": "account",
          "type": "address"
        }
      ],
      "name": "balanceOf",
      "outputs": [
        {
          "internalType": "uint256",
          "name": "",
          "type": "uint256"
        }
      ],
      "stateMutability": "view",
      "type": "function"
    },
    {
      "inputs": [],
      "name": "baseToken",
      "outputs": [
        {
          "internalType": "address",
          "name": "",
          "type": "address"
        }
      ],
      "stateMutability": "view",
      "type": "function"
    },
    {
      "inputs": [],
      "name": "decimals",
      "outputs": [
        {
          "internalType": "uint8",
          "name": "",
          "type": "uint8"
        }
      ],
      "stateMutability": "view",
      "type": "function"
    },
    {
      "inputs": [
        {
          "internalType": "address",
          "name": "aToken",
          "type": "address"
        },
        {
          "internalType": "uint256",
          "name": "amount",
          "type": "uint256"
        }
      ],
      "name": "deposit",
      "outputs": [
        {
          "internalType": "uint256",
          "name": "aTokenAmount",
          "type": "uint256"
        }
      ],
      "stateMutability": "nonpayable",
      "type": "function"
    },
    {
      "inputs": [
        {
          "internalType": "address[]",
          "name": "aTokens",
          "type": "address[]"
        },
        {
          "internalType": "uint256[]",
          "name": "amounts",
          "type": "uint256[]"
        },
        {
          "internalType": "uint256[]",
          "name": "deadlines",
          "type": "uint256[]"
        },
        {
          "internalType": "uint8[]",
          "name": "v",
          "type": "uint8[]"
        },
        {
          "internalType": "bytes32[]",
          "name": "r",
          "type": "bytes32[]"
        },
        {
          "internalType": "bytes32[]",
          "name": "s",
          "type": "bytes32[]"
        }
      ],
      "name": "depositBatchWithSignatures",
      "outputs": [
        {
          "internalType": "uint256[]",
          "name": "",
          "type": "uint256[]"
        }
      ],
      "stateMutability": "nonpayable",
      "type": "function"
    },
    {
      "inputs": [
        {
          "internalType": "address",
          "name": "aToken",
          "type": "address"
        },
        {
          "internalType": "uint256",
          "name": "amount",
          "type": "uint256"
        },
        {
          "internalType": "uint256",
          "name": "deadline",
          "type": "uint256"
        },
        {
          "internalType": "uint8",
          "name": "v",
          "type": "uint8"
        },
        {
          "internalType": "bytes32",
          "name": "r",
          "type": "bytes32"
        },
        {
          "internalType": "bytes32",
          "name": "s",
          "type": "bytes32"
        }
      ],
      "name": "depositWithSignature",
      "outputs": [
        {
          "internalType": "uint256",
          "name": "aTokenAmount",
          "type": "uint256"
        }
      ],
      "stateMutability": "nonpayable",
      "type": "function"
    },
    {
      "inputs": [],
      "name": "eip712Domain",
      "outputs": [
        {
          "internalType": "bytes1",
          "name": "fields",
          "type": "bytes1"
        },
        {
          "internalType": "string",
          "name": "name",
          "type": "string"
        },
        {
          "internalType": "string",
          "name": "version",
          "type": "string"
        },
        {
          "internalType": "uint256",
          "name": "chainId",
          "type": "uint256"
        },
        {
          "internalType": "address",
          "name": "verifyingContract",
          "type": "address"
        },
        {
          "internalType": "bytes32",
          "name": "salt",
          "type": "bytes32"
        },
        {
          "internalType": "uint256[]",
          "name": "extensions",
          "type": "uint256[]"
        }
      ],
      "stateMutability": "view",
      "type": "function"
    },
    {
      "inputs": [
        {
          "internalType": "address",
          "name": "token",
          "type": "address"
        }
      ],
      "name": "getChainlinkDataFeedLatestAnswer",
      "outputs": [
        {
          "internalType": "int256",
          "name": "",
          "type": "int256"
        }
      ],
      "stateMutability": "view",
      "type": "function"
    },
    {
      "inputs": [
        {
          "internalType": "address",
          "name": "aToken",
          "type": "address"
        }
      ],
      "name": "getTokenAllocation",
      "outputs": [
        {
          "components": [
            {
              "internalType": "address",
              "name": "aToken",
              "type": "address"
            },
            {
              "internalType": "address",
              "name": "asset",
              "type": "address"
            },
            {
              "internalType": "uint16",
              "name": "targetPercentage",
              "type": "uint16"
            }
          ],
          "internalType": "struct ISlice.Allocation",
          "name": "",
          "type": "tuple"
        }
      ],
      "stateMutability": "view",
      "type": "function"
    },
    {
      "inputs": [],
      "name": "metadataUri",
      "outputs": [
        {
          "internalType": "string",
          "name": "",
          "type": "string"
        }
      ],
      "stateMutability": "view",
      "type": "function"
    },
    {
      "inputs": [],
      "name": "name",
      "outputs": [
        {
          "internalType": "string",
          "name": "",
          "type": "string"
        }
      ],
      "stateMutability": "view",
      "type": "function"
    },
    {
      "inputs": [
        {
          "internalType": "address",
          "name": "owner",
          "type": "address"
        }
      ],
      "name": "nonces",
      "outputs": [
        {
          "internalType": "uint256",
          "name": "",
          "type": "uint256"
        }
      ],
      "stateMutability": "view",
      "type": "function"
    },
    {
      "inputs": [],
      "name": "owner",
      "outputs": [
        {
          "internalType": "address",
          "name": "",
          "type": "address"
        }
      ],
      "stateMutability": "view",
      "type": "function"
    },
    {
      "inputs": [
        {
          "internalType": "address",
          "name": "owner",
          "type": "address"
        },
        {
          "internalType": "address",
          "name": "spender",
          "type": "address"
        },
        {
          "internalType": "uint256",
          "name": "value",
          "type": "uint256"
        },
        {
          "internalType": "uint256",
          "name": "deadline",
          "type": "uint256"
        },
        {
          "internalType": "uint8",
          "name": "v",
          "type": "uint8"
        },
        {
          "internalType": "bytes32",
          "name": "r",
          "type": "bytes32"
        },
        {
          "internalType": "bytes32",
          "name": "s",
          "type": "bytes32"
        }
      ],
      "name": "permit",
      "outputs": [],
      "stateMutability": "nonpayable",
      "type": "function"
    },
    {
      "inputs": [
        {
          "internalType": "address",
          "name": "token",
          "type": "address"
        }
      ],
      "name": "priceFeed",
      "outputs": [
        {
          "internalType": "address",
          "name": "",
          "type": "address"
        }
      ],
      "stateMutability": "view",
      "type": "function"
    },
    {
      "inputs": [],
      "name": "rebalance",
      "outputs": [],
      "stateMutability": "nonpayable",
      "type": "function"
    },
    {
      "inputs": [],
      "name": "renounceOwnership",
      "outputs": [],
      "stateMutability": "nonpayable",
      "type": "function"
    },
    {
      "inputs": [
        {
          "internalType": "address",
          "name": "aToken",
          "type": "address"
        },
        {
          "internalType": "uint16",
          "name": "newPercentage",
          "type": "uint16"
        }
      ],
      "name": "setAllocationPercentage",
      "outputs": [],
      "stateMutability": "nonpayable",
      "type": "function"
    },
    {
      "inputs": [
        {
          "internalType": "bytes4",
          "name": "interfaceId",
          "type": "bytes4"
        }
      ],
      "name": "supportsInterface",
      "outputs": [
        {
          "internalType": "bool",
          "name": "",
          "type": "bool"
        }
      ],
      "stateMutability": "view",
      "type": "function"
    },
    {
      "inputs": [],
      "name": "symbol",
      "outputs": [
        {
          "internalType": "string",
          "name": "",
          "type": "string"
        }
      ],
      "stateMutability": "view",
      "type": "function"
    },
    {
      "inputs": [],
      "name": "totalSupply",
      "outputs": [
        {
          "internalType": "uint256",
          "name": "",
          "type": "uint256"
        }
      ],
      "stateMutability": "view",
      "type": "function"
    },
    {
      "inputs": [
        {
          "internalType": "address",
          "name": "to",
          "type": "address"
        },
        {
          "internalType": "uint256",
          "name": "value",
          "type": "uint256"
        }
      ],
      "name": "transfer",
      "outputs": [
        {
          "internalType": "bool",
          "name": "",
          "type": "bool"
        }
      ],
      "stateMutability": "nonpayable",
      "type": "function"
    },
    {
      "inputs": [
        {
          "internalType": "address",
          "name": "from",
          "type": "address"
        },
        {
          "internalType": "address",
          "name": "to",
          "type": "address"
        },
        {
          "internalType": "uint256",
          "name": "value",
          "type": "uint256"
        }
      ],
      "name": "transferFrom",
      "outputs": [
        {
          "internalType": "bool",
          "name": "",
          "type": "bool"
        }
      ],
      "stateMutability": "nonpayable",
      "type": "function"
    },
    {
      "inputs": [
        {
          "internalType": "address",
          "name": "newOwner",
          "type": "address"
        }
      ],
      "name": "transferOwnership",
      "outputs": [],
      "stateMutability": "nonpayable",
      "type": "function"
    },
    {
      "inputs": [],
      "name": "uniswapV2Router",
      "outputs": [
        {
          "internalType": "address",
          "name": "",
          "type": "address"
        }
      ],
      "stateMutability": "view",
      "type": "function"
    },
    {
      "inputs": [
        {
          "internalType": "uint256",
          "name": "sTokenAmount",
          "type": "uint256"
        }
      ],
      "name": "withdraw",
      "outputs": [
        {
          "internalType": "uint256[]",
          "name": "amounts",
          "type": "uint256[]"
        }
      ],
      "stateMutability": "nonpayable",
      "type": "function"
    }
  ],
  "bytecode": "0x6101606040523480156200001257600080fd5b50604051620047a2380380620047a2833981016040819052620000359162000488565b338380604051806040016040528060018152602001603160f81b81525086868160039081620000659190620005d1565b506004620000748282620005d1565b506200008691508390506005620002d0565b6101205262000097816006620002d0565b61014052815160208084019190912060e052815190820120610100524660a0526200012560e05161010051604080517f8b73c3c69bb8fe3d512ecc4cf759cc79239f7b179b0ffacaa9a75d522b39400f60208201529081019290925260608201524660808201523060a082015260009060c00160405160208183030381529060405280519060200120905090565b60805250503060c052506001600160a01b0381166200015f57604051631e4fbdf760e01b8152600060048201526024015b60405180910390fd5b6200016a8162000309565b506001600160a01b038516620001d15760405162461bcd60e51b815260206004820152602560248201527f536c6963653a20496e76616c696420556e697377617020726f75746572206164604482015264647265737360d81b606482015260840162000156565b6001600160a01b038416620002335760405162461bcd60e51b815260206004820152602160248201527f536c6963653a20496e76616c6964205553444320746f6b656e206164647265736044820152607360f81b606482015260840162000156565b8051600003620002865760405162461bcd60e51b815260206004820152601b60248201527f536c6963653a20496e76616c6964206d65746164617461205552490000000000604482015260640162000156565b600c80546001600160a01b038088166001600160a01b031992831617909255600d8054928716929091169190911790556009620002c48282620005d1565b505050505050620006f7565b6000602083511015620002f057620002e8836200035b565b905062000303565b81620002fd8482620005d1565b5060ff90505b92915050565b600880546001600160a01b038381166001600160a01b0319831681179093556040519116919082907f8be0079c531659141344cd1fd0a4f28419497f9722a3daafe3b4186f6b6457e090600090a35050565b600080829050601f8151111562000389578260405163305a27a960e01b81526004016200015691906200069d565b80516200039682620006d2565b179392505050565b80516001600160a01b0381168114620003b657600080fd5b919050565b634e487b7160e01b600052604160045260246000fd5b60005b83811015620003ee578181015183820152602001620003d4565b50506000910152565b600082601f8301126200040957600080fd5b81516001600160401b0380821115620004265762000426620003bb565b604051601f8301601f19908116603f01168101908282118183101715620004515762000451620003bb565b816040528381528660208588010111156200046b57600080fd5b6200047e846020830160208901620003d1565b9695505050505050565b600080600080600060a08688031215620004a157600080fd5b620004ac866200039e565b9450620004bc602087016200039e565b60408701519094506001600160401b0380821115620004da57600080fd5b620004e889838a01620003f7565b94506060880151915080821115620004ff57600080fd5b6200050d89838a01620003f7565b935060808801519150808211156200052457600080fd5b506200053388828901620003f7565b9150509295509295909350565b600181811c908216806200055557607f821691505b6020821081036200057657634e487b7160e01b600052602260045260246000fd5b50919050565b601f821115620005cc576000816000526020600020601f850160051c81016020861015620005a75750805b601f850160051c820191505b81811015620005c857828155600101620005b3565b5050505b505050565b81516001600160401b03811115620005ed57620005ed620003bb565b6200060581620005fe845462000540565b846200057c565b602080601f8311600181146200063d5760008415620006245750858301515b600019600386901b1c1916600185901b178555620005c8565b600085815260208120601f198616915b828110156200066e578886015182559484019460019091019084016200064d565b50858210156200068d5787850151600019600388901b60f8161c191681555b5050505050600190811b01905550565b6020815260008251806020840152620006be816040850160208701620003d1565b601f01601f19169190910160400192915050565b80516020808301519190811015620005765760001960209190910360031b1b16919050565b60805160a05160c05160e0516101005161012051610140516140506200075260003960006124c30152600061249601526000611c8b01526000611c6301526000611bbe01526000611be801526000611c1201526140506000f3fe608060405234801561001057600080fd5b50600436106101a55760003560e01c806377a4d559116100ef578063a9059cbb11610092578063a9059cbb14610396578063c358234b146103a9578063c55dae63146103be578063d505accf146103cf578063dd62ed3e146103e2578063e7078f92146103f5578063f2fde38b14610408578063fa4d40531461041b57600080fd5b806377a4d5591461030c5780637d7c2a1c146103145780637ecebe001461031c57806384b0196e1461032f5780638d0fac761461034a5780638da5cb5b1461036a57806395d89b411461037b578063a1c3d3de1461038357600080fd5b80631fd48b9a116101575780631fd48b9a1461025257806323b872dd1461027e5780632e1a7d4d14610291578063313ce567146102b15780633644e515146102c057806347e7ef24146102c857806370a08231146102db578063715018a61461030457600080fd5b8063013a0247146101aa57806301ffc9a7146101d057806306fdde03146101f3578063095ea7b3146102085780630cd950fd1461021b5780631694505e1461023057806318160ddd1461024a575b600080fd5b6101bd6101b8366004613467565b61042e565b6040519081526020015b60405180910390f35b6101e36101de3660046134c3565b61055f565b60405190151581526020016101c7565b6101fb610596565b6040516101c7919061353d565b6101e3610216366004613550565b610628565b61022e610229366004613593565b610640565b005b600c546001600160a01b03165b6040516101c791906135da565b6002546101bd565b61023d6102603660046135ee565b6001600160a01b039081166000908152600e60205260409020541690565b6101e361028c36600461360b565b610a14565b6102a461029f36600461364c565b610a3a565b6040516101c791906136a1565b604051601281526020016101c7565b6101bd610e3d565b6101bd6102d6366004613550565b610e4c565b6101bd6102e93660046135ee565b6001600160a01b031660009081526020819052604090205490565b61022e610ebc565b6101fb610ed0565b61022e610edf565b6101bd61032a3660046135ee565b610fcd565b610337610feb565b6040516101c797969594939291906136b4565b61035d6103583660046135ee565b611031565b6040516101c7919061374f565b6008546001600160a01b031661023d565b6101fb61112b565b61022e61039136600461375d565b61113a565b6101e36103a4366004613550565b6112c2565b6103b16112d0565b6040516101c79190613792565b600d546001600160a01b031661023d565b61022e6103dd3660046137d4565b61135c565b6101bd6103f0366004613845565b611496565b6101bd6104033660046135ee565b6114c1565b61022e6104163660046135ee565b61154b565b6102a4610429366004613a26565b611589565b60008086116104585760405162461bcd60e51b815260040161044f90613b1a565b60405180910390fd5b6001600160a01b03871661047e5760405162461bcd60e51b815260040161044f90613b49565b4285101561049e5760405162461bcd60e51b815260040161044f90613b80565b60006104a988611031565b80519091506001600160a01b03166104d5578760405162746ce760e21b815260040161044f91906135da565b80602001516001600160a01b031663d505accf33308a8a8a8a8a6040518863ffffffff1660e01b81526004016105119796959493929190613bb1565b600060405180830381600087803b15801561052b57600080fd5b505af115801561053f573d6000803e3d6000fd5b50505050610553338983602001518a6118e8565b98975050505050505050565b60006001600160e01b031982166301a4a4b960e51b148061059057506301ffc9a760e01b6001600160e01b03198316145b92915050565b6060600380546105a590613bf2565b80601f01602080910402602001604051908101604052809291908181526020018280546105d190613bf2565b801561061e5780601f106105f35761010080835404028352916020019161061e565b820191906000526020600020905b81548152906001019060200180831161060157829003601f168201915b5050505050905090565b600033610636818585611a43565b5060019392505050565b6001600160a01b0383166106665760405162461bcd60e51b815260040161044f90613b49565b6001600160a01b0382166106c65760405162461bcd60e51b815260206004820152602160248201527f536c6963653a20496e76616c69642070726963652066656564206164647265736044820152607360f81b606482015260840161044f565b60008161ffff161180156106df57506127108161ffff16105b6107375760405162461bcd60e51b8152602060048201526024808201527f536c6963653a20496e76616c696420616c6c6f636174696f6e2070657263656e6044820152637461676560e01b606482015260840161044f565b6127108161ffff16600b5461074c9190613c3c565b11156107a65760405162461bcd60e51b8152602060048201526024808201527f536c6963653a20546f74616c20616c6c6f636174696f6e2065786365656473206044820152633130302560e01b606482015260840161044f565b600a8054106107f75760405162461bcd60e51b815260206004820181905260248201527f536c6963653a20416c6c6f636174696f6e73206c696d69742072656163686564604482015260640161044f565b600061080284611031565b516001600160a01b03161461082c57826040516363ec8ef160e11b815260040161044f91906135da565b61083d83630a957a0160e21b611a55565b61085c5782604051633624dfe160e21b815260040161044f91906135da565b6000836001600160a01b03166338d52e0f6040518163ffffffff1660e01b8152600401602060405180830381865afa15801561089c573d6000803e3d6000fd5b505050506040513d601f19601f820116820180604052508101906108c09190613c4f565b604080516060810182526001600160a01b0387811682528381166020830190815261ffff878116948401858152600a8054600181018255600091825295517fc65a7bb8d6351c1cf70c95a316cc6a92839c986682d98bc35f958f4883f9d2a8600290970296870180546001600160a01b03191691871691909117905592517fc65a7bb8d6351c1cf70c95a316cc6a92839c986682d98bc35f958f4883f9d2a990950180549151959094166001600160b01b031990911617600160a01b9490911693909302929092179055600b8054939450919261099e908490613c3c565b90915550506001600160a01b038181166000818152600e602090815260409182902080546001600160a01b031916888616908117909155915161ffff8716815291938816917fe1e620d79ee4604d298670ecab767901fa18358e431dc956a66abfa6899d5264910160405180910390a450505050565b600033610a22858285611a71565b610a2d858585611ac4565b60019150505b9392505050565b606060008211610a5c5760405162461bcd60e51b815260040161044f90613b1a565b33600090815260208190526040902054821115610abb5760405162461bcd60e51b815260206004820152601b60248201527f536c6963653a20496e73756666696369656e742062616c616e63650000000000604482015260640161044f565b610ac53383611b23565b600a546001600160401b03811115610adf57610adf61387e565b604051908082528060200260200182016040528015610b08578160200160208202803683370190505b5090506000610b1660025490565b905080600003610cb45760005b600a54811015610cae576000600a8281548110610b4257610b42613c6c565b600091825260208220600290910201546040516370a0823160e01b81526001600160a01b03909116925082906370a0823190610b829030906004016135da565b602060405180830381865afa158015610b9f573d6000803e3d6000fd5b505050506040513d601f19601f82011682018060405250810190610bc39190613c82565b905080858481518110610bd857610bd8613c6c565b6020026020010181815250506000858481518110610bf857610bf8613c6c565b60200260200101511115610ca457610c3d33868581518110610c1c57610c1c613c6c565b6020026020010151846001600160a01b0316611b599092919063ffffffff16565b336001600160a01b0316826001600160a01b03167f9b1bfa7fa9ee420a16e124f794c35ac9f90472acc99140eb2f6447c714cad8eb878681518110610c8457610c84613c6c565b6020026020010151604051610c9b91815260200190565b60405180910390a35b5050600101610b23565b50610e37565b60005b600a54811015610e35576000600a8281548110610cd657610cd6613c6c565b600091825260208220600290910201546040516370a0823160e01b81526001600160a01b03909116925082906370a0823190610d169030906004016135da565b602060405180830381865afa158015610d33573d6000803e3d6000fd5b505050506040513d601f19601f82011682018060405250810190610d579190613c82565b905083610d648783613c9b565b610d6e9190613cb2565b858481518110610d8057610d80613c6c565b6020026020010181815250506000858481518110610da057610da0613c6c565b60200260200101511115610e2b57610dc433868581518110610c1c57610c1c613c6c565b336001600160a01b0316826001600160a01b03167f9b1bfa7fa9ee420a16e124f794c35ac9f90472acc99140eb2f6447c714cad8eb878681518110610e0b57610e0b613c6c565b6020026020010151604051610e2291815260200190565b60405180910390a35b5050600101610cb7565b505b50919050565b6000610e47611bb1565b905090565b6000808211610e6d5760405162461bcd60e51b815260040161044f90613b1a565b6000610e7884611031565b80519091506001600160a01b0316610ea4578360405162746ce760e21b815260040161044f91906135da565b610eb433858360200151866118e8565b949350505050565b610ec4611cdc565b610ece6000611d09565b565b6060600980546105a590613bf2565b600a54600003610eeb57565b6000610ef5611d5b565b8051909150600003610f045750565b60005b600a54811015610f6657600082606001518281518110610f2957610f29613c6c565b60200260200101511115610f5e57610f5e8183606001518381518110610f5157610f51613c6c565b6020026020010151612142565b600101610f07565b5060005b600a54811015610fc957600082608001518281518110610f8c57610f8c613c6c565b60200260200101511115610fc157610fc18183608001518381518110610fb457610fb4613c6c565b6020026020010151612278565b600101610f6a565b5050565b6001600160a01b038116600090815260076020526040812054610590565b600060608060008060006060610fff61248f565b6110076124bc565b60408051600080825260208201909252600f60f81b9b939a50919850469750309650945092509050565b60408051606081018252600080825260208201819052918101829052905b600a5481101561110757826001600160a01b0316600a828154811061107657611076613c6c565b60009182526020909120600290910201546001600160a01b0316036110ff57600a81815481106110a8576110a8613c6c565b60009182526020918290206040805160608101825260029390930290910180546001600160a01b03908116845260019091015490811693830193909352600160a01b90920461ffff16918101919091529392505050565b60010161104f565b50506040805160608101825260008082526020820181905291810191909152919050565b6060600480546105a590613bf2565b6001600160a01b0382166111605760405162461bcd60e51b815260040161044f90613b49565b60008161ffff1611801561117957506127108161ffff16105b6111c15760405162461bcd60e51b8152602060048201526019602482015278536c6963653a20496e76616c69642070657263656e7461676560381b604482015260640161044f565b6000805b600a5481101561125b57836001600160a01b0316600a82815481106111ec576111ec613c6c565b60009182526020909120600290910201546001600160a01b0316036112535782600a828154811061121f5761121f613c6c565b906000526020600020906002020160010160146101000a81548161ffff021916908361ffff1602179055506001915061125b565b6001016111c5565b508061127b578260405162746ce760e21b815260040161044f91906135da565b60405161ffff831681526001600160a01b038416907f961820b4651ecef2378d97b066e501ada836f59c275237b770421b1f46e33dd59060200160405180910390a2505050565b600033610636818585611ac4565b6060600a805480602002602001604051908101604052809291908181526020016000905b82821015611353576000848152602090819020604080516060810182526002860290920180546001600160a01b03908116845260019182015490811684860152600160a01b900461ffff169183019190915290835290920191016112f4565b50505050905090565b834211156113805760405163313c898160e11b81526004810185905260240161044f565b60007f6e71edae12b1b97f4d1f60370fef10105fa2faae0126114a169c64845d6126c98888886113cd8c6001600160a01b0316600090815260076020526040902080546001810190915590565b6040805160208101969096526001600160a01b0394851690860152929091166060840152608083015260a082015260c0810186905260e0016040516020818303038152906040528051906020012090506000611428826124e9565b9050600061143882878787612516565b9050896001600160a01b0316816001600160a01b03161461147f576040516325c0072360e11b81526001600160a01b0380831660048301528b16602482015260440161044f565b61148a8a8a8a611a43565b50505050505050505050565b6001600160a01b03918216600090815260016020908152604080832093909416825291909152205490565b6001600160a01b038082166000908152600e6020526040808220548151633fabe5a360e21b815291519293849391169163feaf968c9160048083019260a09291908290030181865afa15801561151b573d6000803e3d6000fd5b505050506040513d601f19601f8201168201806040525081019061153f9190613cee565b50919695505050505050565b611553611cdc565b6001600160a01b03811661157d576000604051631e4fbdf760e01b815260040161044f91906135da565b61158681611d09565b50565b60608551875114801561159d575084518751145b80156115aa575083518751145b80156115b7575082518751145b80156115c4575081518751145b6116105760405162461bcd60e51b815260206004820152601e60248201527f536c6963653a20646966666572656e74206172726179206c656e677468730000604482015260640161044f565b600087516001600160401b0381111561162b5761162b61387e565b604051908082528060200260200182016040528015611654578160200160208202803683370190505b50905060005b88518110156118dc57600088828151811061167757611677613c6c565b60200260200101511161169c5760405162461bcd60e51b815260040161044f90613b1a565b60006001600160a01b03168982815181106116b9576116b9613c6c565b60200260200101516001600160a01b0316036116e75760405162461bcd60e51b815260040161044f90613b49565b428782815181106116fa576116fa613c6c565b602002602001015110156117205760405162461bcd60e51b815260040161044f90613b80565b60006117448a838151811061173757611737613c6c565b6020026020010151611031565b80519091506001600160a01b03166117895789828151811061176857611768613c6c565b602002602001015160405162746ce760e21b815260040161044f91906135da565b80602001516001600160a01b031663d505accf33308c86815181106117b0576117b0613c6c565b60200260200101518c87815181106117ca576117ca613c6c565b60200260200101518c88815181106117e4576117e4613c6c565b60200260200101518c89815181106117fe576117fe613c6c565b60200260200101518c8a8151811061181857611818613c6c565b60200260200101516040518863ffffffff1660e01b81526004016118429796959493929190613bb1565b600060405180830381600087803b15801561185c57600080fd5b505af1158015611870573d6000803e3d6000fd5b505050506118b6338b848151811061188a5761188a613c6c565b602002602001015183602001518c86815181106118a9576118a9613c6c565b60200260200101516118e8565b8383815181106118c8576118c8613c6c565b60209081029190910101525060010161165a565b50979650505050505050565b60006118ff6001600160a01b038416863085612544565b60405163095ea7b360e01b81526001600160a01b0384169063095ea7b39061192d9087908690600401613d3e565b6020604051808303816000875af115801561194c573d6000803e3d6000fd5b505050506040513d601f19601f820116820180604052508101906119709190613d57565b50604051636e553f6560e01b81526001600160a01b03851690636e553f659061199f9085903090600401613d79565b6020604051808303816000875af11580156119be573d6000803e3d6000fd5b505050506040513d601f19601f820116820180604052508101906119e29190613c82565b90506119ee858261257d565b846001600160a01b0316846001600160a01b03167f5548c837ab068cf56a2c2479df0882a4922fd203edb7517321831d95078c5f6284604051611a3391815260200190565b60405180910390a3949350505050565b611a5083838360016125b3565b505050565b6000611a6083612688565b8015610a335750610a3383836126bb565b6000611a7d8484611496565b90506000198114611abe5781811015611aaf57828183604051637dc7a0d960e11b815260040161044f93929190613d90565b611abe848484840360006125b3565b50505050565b6001600160a01b038316611aee576000604051634b637e8f60e11b815260040161044f91906135da565b6001600160a01b038216611b1857600060405163ec442f0560e01b815260040161044f91906135da565b611a50838383612745565b6001600160a01b038216611b4d576000604051634b637e8f60e11b815260040161044f91906135da565b610fc982600083612745565b611a5083846001600160a01b031663a9059cbb8585604051602401611b7f929190613d3e565b604051602081830303815290604052915060e01b6020820180516001600160e01b03838183161783525050505061285c565b6000306001600160a01b037f000000000000000000000000000000000000000000000000000000000000000016148015611c0a57507f000000000000000000000000000000000000000000000000000000000000000046145b15611c3457507f000000000000000000000000000000000000000000000000000000000000000090565b610e47604080517f8b73c3c69bb8fe3d512ecc4cf759cc79239f7b179b0ffacaa9a75d522b39400f60208201527f0000000000000000000000000000000000000000000000000000000000000000918101919091527f000000000000000000000000000000000000000000000000000000000000000060608201524660808201523060a082015260009060c00160405160208183030381529060405280519060200120905090565b6008546001600160a01b03163314610ece573360405163118cdaa760e01b815260040161044f91906135da565b600880546001600160a01b038381166001600160a01b0319831681179093556040519116919082907f8be0079c531659141344cd1fd0a4f28419497f9722a3daafe3b4186f6b6457e090600090a35050565b611d8d6040518060a0016040528060008152602001606081526020016060815260200160608152602001606081525090565b611d956128b6565b808252600003611da25790565b600a546001600160401b03811115611dbc57611dbc61387e565b604051908082528060200260200182016040528015611de5578160200160208202803683370190505b506020820152600a546001600160401b03811115611e0557611e0561387e565b604051908082528060200260200182016040528015611e2e578160200160208202803683370190505b506040820152600a546001600160401b03811115611e4e57611e4e61387e565b604051908082528060200260200182016040528015611e77578160200160208202803683370190505b506060820152600a546001600160401b03811115611e9757611e9761387e565b604051908082528060200260200182016040528015611ec0578160200160208202803683370190505b50608082015260005b600a5481101561213e576000600a8281548110611ee857611ee8613c6c565b60009182526020822060029091020154600a80546001600160a01b0390921693509084908110611f1a57611f1a613c6c565b906000526020600020906002020160010160009054906101000a90046001600160a01b03169050612710600a8481548110611f5757611f57613c6c565b60009182526020909120600290910201600101548551611f8291600160a01b900461ffff1690613c9b565b611f8c9190613cb2565b84602001518481518110611fa257611fa2613c6c565b602002602001018181525050611fb88282612941565b84604001518481518110611fce57611fce613c6c565b60200260200101818152505083602001518381518110611ff057611ff0613c6c565b60200260200101518460400151848151811061200e5761200e613c6c565b60200260200101511115612089578360200151838151811061203257612032613c6c565b60200260200101518460400151848151811061205057612050613c6c565b60200260200101516120629190613db1565b8460600151848151811061207857612078613c6c565b602002602001018181525050612134565b8360400151838151811061209f5761209f613c6c565b6020026020010151846020015184815181106120bd576120bd613c6c565b6020026020010151111561213457836040015183815181106120e1576120e1613c6c565b6020026020010151846020015184815181106120ff576120ff613c6c565b60200260200101516121119190613db1565b8460800151848151811061212757612127613c6c565b6020026020010181815250505b5050600101611ec9565b5090565b6000600a838154811061215757612157613c6c565b60009182526020822060029091020154600a80546001600160a01b039092169350908590811061218957612189613c6c565b906000526020600020906002020160010160009054906101000a90046001600160a01b031690506000826001600160a01b0316633ba0b9a96040518163ffffffff1660e01b8152600401602060405180830381865afa1580156121f0573d6000803e3d6000fd5b505050506040513d601f19601f820116820180604052508101906122149190613c82565b905060008161222b670de0b6b3a764000087613c9b565b6122359190613cb2565b905060006122438583612b26565b9050806000036122565750505050505050565b600d5461226e9085906001600160a01b031683612d03565b5050505050505050565b6000600a838154811061228d5761228d613c6c565b60009182526020822060029091020154600a80546001600160a01b03909216935090859081106122bf576122bf613c6c565b60009182526020822060016002909202010154600d546040516370a0823160e01b81526001600160a01b0392831694509116906370a08231906123069030906004016135da565b602060405180830381865afa158015612323573d6000803e3d6000fd5b505050506040513d601f19601f820116820180604052508101906123479190613c82565b905080600003612358575050505050565b600d54600090612372906001600160a01b03168487612f5a565b90508181111561237f5750805b600d54600090612399906001600160a01b03168584612d03565b9050806000036123ac5750505050505050565b60405163095ea7b360e01b81526001600160a01b0385169063095ea7b3906123da9088908590600401613d3e565b6020604051808303816000875af11580156123f9573d6000803e3d6000fd5b505050506040513d601f19601f8201168201806040525081019061241d9190613d57565b50604051636e553f6560e01b81526001600160a01b03861690636e553f659061244c9084903090600401613d79565b6020604051808303816000875af115801561246b573d6000803e3d6000fd5b505050506040513d601f19601f8201168201806040525081019061226e9190613c82565b6060610e477f00000000000000000000000000000000000000000000000000000000000000006005613093565b6060610e477f00000000000000000000000000000000000000000000000000000000000000006006613093565b60006105906124f6611bb1565b8360405161190160f01b8152600281019290925260228201526042902090565b60008060008061252888888888613137565b92509250925061253882826131fc565b50909695505050505050565b6040516001600160a01b038481166024830152838116604483015260648201839052611abe9186918216906323b872dd90608401611b7f565b6001600160a01b0382166125a757600060405163ec442f0560e01b815260040161044f91906135da565b610fc960008383612745565b6001600160a01b0384166125dd57600060405163e602df0560e01b815260040161044f91906135da565b6001600160a01b038316612607576000604051634a1406b160e11b815260040161044f91906135da565b6001600160a01b0380851660009081526001602090815260408083209387168352929052208290558015611abe57826001600160a01b0316846001600160a01b03167f8c5be1e5ebec7d5bd14f71427d1e84f3dd0314c0f7b2291e5b200ac8c7c3b9258460405161267a91815260200190565b60405180910390a350505050565b600061269b826301ffc9a760e01b6126bb565b801561059057506126b4826001600160e01b03196126bb565b1592915050565b6040516001600160e01b031982166024820152600090819060440160408051601f19818403018152919052602080820180516001600160e01b03166301ffc9a760e01b178152825192935060009283928392909183918a617530fa92503d9150600051905082801561272e575060208210155b801561273a5750600081115b979650505050505050565b6001600160a01b0383166127705780600260008282546127659190613c3c565b909155506127cf9050565b6001600160a01b038316600090815260208190526040902054818110156127b05783818360405163391434e360e21b815260040161044f93929190613d90565b6001600160a01b03841660009081526020819052604090209082900390555b6001600160a01b0382166127eb5760028054829003905561280a565b6001600160a01b03821660009081526020819052604090208054820190555b816001600160a01b0316836001600160a01b03167fddf252ad1be2c89b69c2b068fc378daa952ba7f163c4a11628f55a4df523b3ef8360405161284f91815260200190565b60405180910390a3505050565b60006128716001600160a01b038416836132b5565b905080516000141580156128965750808060200190518101906128949190613d57565b155b15611a505782604051635274afe760e01b815260040161044f91906135da565b6000805b600a5481101561213e5761292d600a82815481106128da576128da613c6c565b6000918252602090912060029091020154600a80546001600160a01b03909216918490811061290b5761290b613c6c565b60009182526020909120600160029092020101546001600160a01b0316612941565b6129379083613c3c565b91506001016128ba565b600080836001600160a01b03166370a08231306040518263ffffffff1660e01b815260040161297091906135da565b602060405180830381865afa15801561298d573d6000803e3d6000fd5b505050506040513d601f19601f820116820180604052508101906129b19190613c82565b9050806000036129c5576000915050610590565b6000846001600160a01b0316633ba0b9a96040518163ffffffff1660e01b8152600401602060405180830381865afa158015612a05573d6000803e3d6000fd5b505050506040513d601f19601f82011682018060405250810190612a299190613c82565b90506000670de0b6b3a7640000612a408385613c9b565b612a4a9190613cb2565b90506000612a57866114c1565b905060008111612aa55760405162461bcd60e51b815260206004820152601960248201527814db1a58d94e88125b9d985b1a59081c1c9a58d94819995959603a1b604482015260640161044f565b856001600160a01b031663313ce5676040518163ffffffff1660e01b8152600401602060405180830381865afa158015612ae3573d6000803e3d6000fd5b505050506040513d601f19601f82011682018060405250810190612b079190613dc4565b612b1290600a613ec5565b612b1c8284613c9b565b61273a9190613cb2565b604051627b8a6760e11b81526000906001600160a01b0384169062f714ce90612b559085903090600401613d79565b6020604051808303816000875af1925050508015612b90575060408051601f3d908101601f19168201909252612b8d91810190613c82565b60015b612cfc576000836001600160a01b031663fbfa77cf6040518163ffffffff1660e01b8152600401602060405180830381865afa158015612bd4573d6000803e3d6000fd5b505050506040513d601f19601f82011682018060405250810190612bf89190613c4f565b90506000816001600160a01b031663ce96cb77306040518263ffffffff1660e01b8152600401612c2891906135da565b602060405180830381865afa158015612c45573d6000803e3d6000fd5b505050506040513d601f19601f82011682018060405250810190612c699190613c82565b90508015612cf157604051627b8a6760e11b81526001600160a01b0386169062f714ce90612c9d9084903090600401613d79565b6020604051808303816000875af1925050508015612cd8575060408051601f3d908101601f19168201909252612cd591810190613c82565b60015b612ce757600092505050610590565b9250610590915050565b600092505050610590565b9050610590565b6000811580612d235750826001600160a01b0316846001600160a01b0316145b15612d2f575080610a33565b6040516370a0823160e01b81526000906001600160a01b038616906370a0823190612d5e9030906004016135da565b602060405180830381865afa158015612d7b573d6000803e3d6000fd5b505050506040513d601f19601f82011682018060405250810190612d9f9190613c82565b905082811015612dad578092505b82600003612dbf576000915050610a33565b6040805160028082526060820183526000926020830190803683370190505090508581600081518110612df457612df4613c6c565b60200260200101906001600160a01b031690816001600160a01b0316815250508481600181518110612e2857612e28613c6c565b6001600160a01b039283166020918202929092010152600c5460405163095ea7b360e01b81528883169263095ea7b392612e69929116908890600401613d3e565b6020604051808303816000875af1158015612e88573d6000803e3d6000fd5b505050506040513d601f19601f82011682018060405250810190612eac9190613d57565b50600c546040516338ed173960e01b81526001600160a01b03909116906338ed173990612ee6908790600090869030904290600401613f0e565b6000604051808303816000875af1925050508015612f2657506040513d6000823e601f3d908101601f19168201604052612f239190810190613f4a565b60015b612f3557600092505050610a33565b80600181518110612f4857612f48613c6c565b60200260200101519350505050610a33565b6000826001600160a01b0316846001600160a01b031603612f7c575080610a33565b6040805160028082526060820183526000926020830190803683370190505090508481600081518110612fb157612fb1613c6c565b60200260200101906001600160a01b031690816001600160a01b0316815250508381600181518110612fe557612fe5613c6c565b6001600160a01b039283166020918202929092010152600c546040516307c0329d60e21b8152911690631f00ca74906130249086908590600401613fcf565b600060405180830381865afa92505050801561306257506040513d6000823e601f3d908101601f1916820160405261305f9190810190613f4a565b60015b61306f5782915050610a33565b8060008151811061308257613082613c6c565b602002602001015192505050610a33565b606060ff83146130a657612cfc836132c3565b8180546130b290613bf2565b80601f01602080910402602001604051908101604052809291908181526020018280546130de90613bf2565b801561312b5780601f106131005761010080835404028352916020019161312b565b820191906000526020600020905b81548152906001019060200180831161310e57829003601f168201915b50505050509050610590565b600080806fa2a8918ca85bafe22016d0b997e4df60600160ff1b0384111561316857506000915060039050826131f2565b604080516000808252602082018084528a905260ff891692820192909252606081018790526080810186905260019060a0016020604051602081039080840390855afa1580156131bc573d6000803e3d6000fd5b5050604051601f1901519150506001600160a01b0381166131e8575060009250600191508290506131f2565b9250600091508190505b9450945094915050565b600082600381111561321057613210613fe8565b03613219575050565b600182600381111561322d5761322d613fe8565b0361324b5760405163f645eedf60e01b815260040160405180910390fd5b600282600381111561325f5761325f613fe8565b036132805760405163fce698f760e01b81526004810182905260240161044f565b600382600381111561329457613294613fe8565b03610fc9576040516335e2f38360e21b81526004810182905260240161044f565b6060610a3383836000613302565b606060006132d08361339f565b604080516020808252818301909252919250600091906020820181803683375050509182525060208101929092525090565b606081471015613327573060405163cd78605960e01b815260040161044f91906135da565b600080856001600160a01b031684866040516133439190613ffe565b60006040518083038185875af1925050503d8060008114613380576040519150601f19603f3d011682016040523d82523d6000602084013e613385565b606091505b50915091506133958683836133c7565b9695505050505050565b600060ff8216601f81111561059057604051632cd44ac360e21b815260040160405180910390fd5b6060826133dc576133d78261341a565b610a33565b81511580156133f357506001600160a01b0384163b155b156134135783604051639996b31560e01b815260040161044f91906135da565b5080610a33565b80511561342a5780518082602001fd5b604051630a12f52160e11b815260040160405180910390fd5b6001600160a01b038116811461158657600080fd5b60ff8116811461158657600080fd5b60008060008060008060c0878903121561348057600080fd5b863561348b81613443565b9550602087013594506040870135935060608701356134a981613458565b9598949750929560808101359460a0909101359350915050565b6000602082840312156134d557600080fd5b81356001600160e01b031981168114610a3357600080fd5b60005b838110156135085781810151838201526020016134f0565b50506000910152565b600081518084526135298160208601602086016134ed565b601f01601f19169290920160200192915050565b602081526000610a336020830184613511565b6000806040838503121561356357600080fd5b823561356e81613443565b946020939093013593505050565b803561ffff8116811461358e57600080fd5b919050565b6000806000606084860312156135a857600080fd5b83356135b381613443565b925060208401356135c381613443565b91506135d16040850161357c565b90509250925092565b6001600160a01b0391909116815260200190565b60006020828403121561360057600080fd5b8135610a3381613443565b60008060006060848603121561362057600080fd5b833561362b81613443565b9250602084013561363b81613443565b929592945050506040919091013590565b60006020828403121561365e57600080fd5b5035919050565b60008151808452602080850194506020840160005b838110156136965781518752958201959082019060010161367a565b509495945050505050565b602081526000610a336020830184613665565b60ff60f81b8816815260e0602082015260006136d360e0830189613511565b82810360408401526136e58189613511565b606084018890526001600160a01b038716608085015260a0840186905283810360c085015290506137168185613665565b9a9950505050505050505050565b80516001600160a01b0390811683526020808301519091169083015260409081015161ffff16910152565b606081016105908284613724565b6000806040838503121561377057600080fd5b823561377b81613443565b91506137896020840161357c565b90509250929050565b6020808252825182820181905260009190848201906040850190845b81811015612538576137c1838551613724565b92840192606092909201916001016137ae565b600080600080600080600060e0888a0312156137ef57600080fd5b87356137fa81613443565b9650602088013561380a81613443565b95506040880135945060608801359350608088013561382881613458565b9699959850939692959460a0840135945060c09093013592915050565b6000806040838503121561385857600080fd5b823561386381613443565b9150602083013561387381613443565b809150509250929050565b634e487b7160e01b600052604160045260246000fd5b604051601f8201601f191681016001600160401b03811182821017156138bc576138bc61387e565b604052919050565b60006001600160401b038211156138dd576138dd61387e565b5060051b60200190565b600082601f8301126138f857600080fd5b8135602061390d613908836138c4565b613894565b8083825260208201915060208460051b87010193508684111561392f57600080fd5b602086015b8481101561395457803561394781613443565b8352918301918301613934565b509695505050505050565b600082601f83011261397057600080fd5b81356020613980613908836138c4565b8083825260208201915060208460051b8701019350868411156139a257600080fd5b602086015b8481101561395457803583529183019183016139a7565b600082601f8301126139cf57600080fd5b813560206139df613908836138c4565b8083825260208201915060208460051b870101935086841115613a0157600080fd5b602086015b84811015613954578035613a1981613458565b8352918301918301613a06565b60008060008060008060c08789031215613a3f57600080fd5b86356001600160401b0380821115613a5657600080fd5b613a628a838b016138e7565b97506020890135915080821115613a7857600080fd5b613a848a838b0161395f565b96506040890135915080821115613a9a57600080fd5b613aa68a838b0161395f565b95506060890135915080821115613abc57600080fd5b613ac88a838b016139be565b94506080890135915080821115613ade57600080fd5b613aea8a838b0161395f565b935060a0890135915080821115613b0057600080fd5b50613b0d89828a0161395f565b9150509295509295509295565b60208082526015908201527414db1a58d94e88125b9d985b1a5908185b5bdd5b9d605a1b604082015260600190565b6020808252601d908201527f536c6963653a20496e76616c69642061546f6b656e2061646472657373000000604082015260600190565b602080825260179082015276536c6963653a20496e76616c696420646561646c696e6560481b604082015260600190565b6001600160a01b0397881681529590961660208601526040850193909352606084019190915260ff16608083015260a082015260c081019190915260e00190565b600181811c90821680613c0657607f821691505b602082108103610e3757634e487b7160e01b600052602260045260246000fd5b634e487b7160e01b600052601160045260246000fd5b8082018082111561059057610590613c26565b600060208284031215613c6157600080fd5b8151610a3381613443565b634e487b7160e01b600052603260045260246000fd5b600060208284031215613c9457600080fd5b5051919050565b808202811582820484141761059057610590613c26565b600082613ccf57634e487b7160e01b600052601260045260246000fd5b500490565b805169ffffffffffffffffffff8116811461358e57600080fd5b600080600080600060a08688031215613d0657600080fd5b613d0f86613cd4565b9450602086015193506040860151925060608601519150613d3260808701613cd4565b90509295509295909350565b6001600160a01b03929092168252602082015260400190565b600060208284031215613d6957600080fd5b81518015158114610a3357600080fd5b9182526001600160a01b0316602082015260400190565b6001600160a01b039390931683526020830191909152604082015260600190565b8181038181111561059057610590613c26565b600060208284031215613dd657600080fd5b8151610a3381613458565b600181815b80851115613e1c578160001904821115613e0257613e02613c26565b80851615613e0f57918102915b93841c9390800290613de6565b509250929050565b600082613e3357506001610590565b81613e4057506000610590565b8160018114613e565760028114613e6057613e7c565b6001915050610590565b60ff841115613e7157613e71613c26565b50506001821b610590565b5060208310610133831016604e8410600b8410161715613e9f575081810a610590565b613ea98383613de1565b8060001904821115613ebd57613ebd613c26565b029392505050565b6000610a3360ff841683613e24565b60008151808452602080850194506020840160005b838110156136965781516001600160a01b031687529582019590820190600101613ee9565b85815284602082015260a060408201526000613f2d60a0830186613ed4565b6001600160a01b0394909416606083015250608001529392505050565b60006020808385031215613f5d57600080fd5b82516001600160401b03811115613f7357600080fd5b8301601f81018513613f8457600080fd5b8051613f92613908826138c4565b81815260059190911b82018301908381019087831115613fb157600080fd5b928401925b8284101561273a57835182529284019290840190613fb6565b828152604060208201526000610eb46040830184613ed4565b634e487b7160e01b600052602160045260246000fd5b600082516140108184602087016134ed565b919091019291505056fea26469706673582212205356c4eb59778360f9d2387296cc222ebf4e40d8efc30a673aa4320ad473965764736f6c63430008180033",
  "linkReferences": {},
  "deployedLinkReferences": {}
}