{
  "_format": "hh-sol-artifact-1",
  "contractName": "Slice",
  "sourceName": "contracts/slice/Slice.sol",
  "abi": [
    {
      "inputs": [
        {
          "internalType": "address",
          "name": "uniswapRouter_",
          "type": "address"
        },
        {
          "internalType": "address",
          "name": "baseToken_",
          "type": "address"
        },
        {
          "internalType": "string",
          "name": "name_",
          "type": "string"
        },
        {
          "internalType": "string",
          "name": "symbol_",
          "type": "string"
        },
        {
          "internalType": "string",
          "name": "metadataUri_",
          "type": "string"
        }
      ],
      "stateMutability": "nonpayable",
      "type": "constructor"
    },
    {
      "inputs": [
        {
          "internalType": "address",
          "name": "target",
          "type": "address"
        }
      ],
      "name": "AddressEmptyCode",
      "type": "error"
    },
    {
      "inputs": [
        {
          "internalType": "address",
          "name": "account",
          "type": "address"
        }
      ],
      "name": "AddressInsufficientBalance",
      "type": "error"
    },
    {
      "inputs": [
        {
          "internalType": "address",
          "name": "aToken",
          "type": "address"
        }
      ],
      "name": "AllocationNotFound",
      "type": "error"
    },
    {
      "inputs": [],
      "name": "AllocationsLimitReached",
      "type": "error"
    },
    {
      "inputs": [
        {
          "internalType": "address",
          "name": "aToken",
          "type": "address"
        }
      ],
      "name": "AssociatedAllocationExists",
      "type": "error"
    },
    {
      "inputs": [],
      "name": "ECDSAInvalidSignature",
      "type": "error"
    },
    {
      "inputs": [
        {
          "internalType": "uint256",
          "name": "length",
          "type": "uint256"
        }
      ],
      "name": "ECDSAInvalidSignatureLength",
      "type": "error"
    },
    {
      "inputs": [
        {
          "internalType": "bytes32",
          "name": "s",
          "type": "bytes32"
        }
      ],
      "name": "ECDSAInvalidSignatureS",
      "type": "error"
    },
    {
      "inputs": [
        {
          "internalType": "address",
          "name": "spender",
          "type": "address"
        },
        {
          "internalType": "uint256",
          "name": "allowance",
          "type": "uint256"
        },
        {
          "internalType": "uint256",
          "name": "needed",
          "type": "uint256"
        }
      ],
      "name": "ERC20InsufficientAllowance",
      "type": "error"
    },
    {
      "inputs": [
        {
          "internalType": "address",
          "name": "sender",
          "type": "address"
        },
        {
          "internalType": "uint256",
          "name": "balance",
          "type": "uint256"
        },
        {
          "internalType": "uint256",
          "name": "needed",
          "type": "uint256"
        }
      ],
      "name": "ERC20InsufficientBalance",
      "type": "error"
    },
    {
      "inputs": [
        {
          "internalType": "address",
          "name": "approver",
          "type": "address"
        }
      ],
      "name": "ERC20InvalidApprover",
      "type": "error"
    },
    {
      "inputs": [
        {
          "internalType": "address",
          "name": "receiver",
          "type": "address"
        }
      ],
      "name": "ERC20InvalidReceiver",
      "type": "error"
    },
    {
      "inputs": [
        {
          "internalType": "address",
          "name": "sender",
          "type": "address"
        }
      ],
      "name": "ERC20InvalidSender",
      "type": "error"
    },
    {
      "inputs": [
        {
          "internalType": "address",
          "name": "spender",
          "type": "address"
        }
      ],
      "name": "ERC20InvalidSpender",
      "type": "error"
    },
    {
      "inputs": [
        {
          "internalType": "uint256",
          "name": "deadline",
          "type": "uint256"
        }
      ],
      "name": "ERC2612ExpiredSignature",
      "type": "error"
    },
    {
      "inputs": [
        {
          "internalType": "address",
          "name": "signer",
          "type": "address"
        },
        {
          "internalType": "address",
          "name": "owner",
          "type": "address"
        }
      ],
      "name": "ERC2612InvalidSigner",
      "type": "error"
    },
    {
      "inputs": [],
      "name": "FailedInnerCall",
      "type": "error"
    },
    {
      "inputs": [
        {
          "internalType": "address",
          "name": "account",
          "type": "address"
        },
        {
          "internalType": "uint256",
          "name": "currentNonce",
          "type": "uint256"
        }
      ],
      "name": "InvalidAccountNonce",
      "type": "error"
    },
    {
      "inputs": [],
      "name": "InvalidShortString",
      "type": "error"
    },
    {
      "inputs": [
        {
          "internalType": "address",
          "name": "owner",
          "type": "address"
        }
      ],
      "name": "OwnableInvalidOwner",
      "type": "error"
    },
    {
      "inputs": [
        {
          "internalType": "address",
          "name": "account",
          "type": "address"
        }
      ],
      "name": "OwnableUnauthorizedAccount",
      "type": "error"
    },
    {
      "inputs": [
        {
          "internalType": "address",
          "name": "token",
          "type": "address"
        }
      ],
      "name": "SafeERC20FailedOperation",
      "type": "error"
    },
    {
      "inputs": [
        {
          "internalType": "string",
          "name": "str",
          "type": "string"
        }
      ],
      "name": "StringTooLong",
      "type": "error"
    },
    {
      "inputs": [
        {
          "internalType": "address",
          "name": "aToken",
          "type": "address"
        }
      ],
      "name": "UnsupportedAToken",
      "type": "error"
    },
    {
      "anonymous": false,
      "inputs": [
        {
          "indexed": true,
          "internalType": "address",
          "name": "token",
          "type": "address"
        },
        {
          "indexed": true,
          "internalType": "address",
          "name": "asset",
          "type": "address"
        },
        {
          "indexed": true,
          "internalType": "address",
          "name": "priceFeed",
          "type": "address"
        },
        {
          "indexed": false,
          "internalType": "uint16",
          "name": "allocationPercentage",
          "type": "uint16"
        }
      ],
      "name": "AllocationAdded",
      "type": "event"
    },
    {
      "anonymous": false,
      "inputs": [
        {
          "indexed": true,
          "internalType": "address",
          "name": "token",
          "type": "address"
        },
        {
          "indexed": false,
          "internalType": "uint16",
          "name": "allocationPercentage",
          "type": "uint16"
        }
      ],
      "name": "AllocationPercentageChanged",
      "type": "event"
    },
    {
      "anonymous": false,
      "inputs": [
        {
          "indexed": true,
          "internalType": "address",
          "name": "owner",
          "type": "address"
        },
        {
          "indexed": true,
          "internalType": "address",
          "name": "spender",
          "type": "address"
        },
        {
          "indexed": false,
          "internalType": "uint256",
          "name": "value",
          "type": "uint256"
        }
      ],
      "name": "Approval",
      "type": "event"
    },
    {
      "anonymous": false,
      "inputs": [
        {
          "indexed": true,
          "internalType": "address",
          "name": "token",
          "type": "address"
        },
        {
          "indexed": true,
          "internalType": "address",
          "name": "sender",
          "type": "address"
        },
        {
          "indexed": false,
          "internalType": "uint256",
          "name": "amount",
          "type": "uint256"
        }
      ],
      "name": "Deposit",
      "type": "event"
    },
    {
      "anonymous": false,
      "inputs": [],
      "name": "EIP712DomainChanged",
      "type": "event"
    },
    {
      "anonymous": false,
      "inputs": [
        {
          "indexed": true,
          "internalType": "address",
          "name": "previousOwner",
          "type": "address"
        },
        {
          "indexed": true,
          "internalType": "address",
          "name": "newOwner",
          "type": "address"
        }
      ],
      "name": "OwnershipTransferred",
      "type": "event"
    },
    {
      "anonymous": false,
      "inputs": [
        {
          "indexed": true,
          "internalType": "address",
          "name": "from",
          "type": "address"
        },
        {
          "indexed": true,
          "internalType": "address",
          "name": "to",
          "type": "address"
        },
        {
          "indexed": false,
          "internalType": "uint256",
          "name": "value",
          "type": "uint256"
        }
      ],
      "name": "Transfer",
      "type": "event"
    },
    {
      "anonymous": false,
      "inputs": [
        {
          "indexed": true,
          "internalType": "address",
          "name": "token",
          "type": "address"
        },
        {
          "indexed": true,
          "internalType": "address",
          "name": "receiver",
          "type": "address"
        },
        {
          "indexed": false,
          "internalType": "uint256",
          "name": "amount",
          "type": "uint256"
        }
      ],
      "name": "Withdraw",
      "type": "event"
    },
    {
      "inputs": [],
      "name": "DOMAIN_SEPARATOR",
      "outputs": [
        {
          "internalType": "bytes32",
          "name": "",
          "type": "bytes32"
        }
      ],
      "stateMutability": "view",
      "type": "function"
    },
    {
      "inputs": [
        {
          "internalType": "address",
          "name": "aToken",
          "type": "address"
        },
        {
          "internalType": "uint256",
          "name": "amountToWithdraw",
          "type": "uint256"
        },
        {
          "internalType": "uint256",
          "name": "exchangeRate",
          "type": "uint256"
        }
      ],
      "name": "_handleWithdraw",
      "outputs": [
        {
          "internalType": "uint256",
          "name": "withdrawnAmount",
          "type": "uint256"
        }
      ],
      "stateMutability": "nonpayable",
      "type": "function"
    },
    {
      "inputs": [
        {
          "internalType": "address",
          "name": "aToken",
          "type": "address"
        },
        {
          "internalType": "address",
          "name": "priceFeed",
          "type": "address"
        },
        {
          "internalType": "uint16",
          "name": "percentage",
          "type": "uint16"
        }
      ],
      "name": "addAllocation",
      "outputs": [],
      "stateMutability": "nonpayable",
      "type": "function"
    },
    {
      "inputs": [],
      "name": "allocations",
      "outputs": [
        {
          "components": [
            {
              "internalType": "address",
              "name": "aToken",
              "type": "address"
            },
            {
              "internalType": "address",
              "name": "asset",
              "type": "address"
            },
            {
              "internalType": "uint16",
              "name": "targetPercentage",
              "type": "uint16"
            }
          ],
          "internalType": "struct ISlice.Allocation[]",
          "name": "",
          "type": "tuple[]"
        }
      ],
      "stateMutability": "view",
      "type": "function"
    },
    {
      "inputs": [
        {
          "internalType": "address",
          "name": "owner",
          "type": "address"
        },
        {
          "internalType": "address",
          "name": "spender",
          "type": "address"
        }
      ],
      "name": "allowance",
      "outputs": [
        {
          "internalType": "uint256",
          "name": "",
          "type": "uint256"
        }
      ],
      "stateMutability": "view",
      "type": "function"
    },
    {
      "inputs": [
        {
          "internalType": "address",
          "name": "spender",
          "type": "address"
        },
        {
          "internalType": "uint256",
          "name": "value",
          "type": "uint256"
        }
      ],
      "name": "approve",
      "outputs": [
        {
          "internalType": "bool",
          "name": "",
          "type": "bool"
        }
      ],
      "stateMutability": "nonpayable",
      "type": "function"
    },
    {
      "inputs": [
        {
          "internalType": "address",
          "name": "account",
          "type": "address"
        }
      ],
      "name": "balanceOf",
      "outputs": [
        {
          "internalType": "uint256",
          "name": "",
          "type": "uint256"
        }
      ],
      "stateMutability": "view",
      "type": "function"
    },
    {
      "inputs": [],
      "name": "baseToken",
      "outputs": [
        {
          "internalType": "address",
          "name": "",
          "type": "address"
        }
      ],
      "stateMutability": "view",
      "type": "function"
    },
    {
      "inputs": [],
      "name": "decimals",
      "outputs": [
        {
          "internalType": "uint8",
          "name": "",
          "type": "uint8"
        }
      ],
      "stateMutability": "view",
      "type": "function"
    },
    {
      "inputs": [
        {
          "internalType": "address",
          "name": "aToken",
          "type": "address"
        },
        {
          "internalType": "uint256",
          "name": "amount",
          "type": "uint256"
        }
      ],
      "name": "deposit",
      "outputs": [
        {
          "internalType": "uint256",
          "name": "aTokenAmount",
          "type": "uint256"
        }
      ],
      "stateMutability": "nonpayable",
      "type": "function"
    },
    {
      "inputs": [
        {
          "internalType": "address[]",
          "name": "aTokens",
          "type": "address[]"
        },
        {
          "internalType": "uint256[]",
          "name": "amounts",
          "type": "uint256[]"
        },
        {
          "internalType": "uint256[]",
          "name": "deadlines",
          "type": "uint256[]"
        },
        {
          "internalType": "uint8[]",
          "name": "v",
          "type": "uint8[]"
        },
        {
          "internalType": "bytes32[]",
          "name": "r",
          "type": "bytes32[]"
        },
        {
          "internalType": "bytes32[]",
          "name": "s",
          "type": "bytes32[]"
        }
      ],
      "name": "depositBatchWithSignatures",
      "outputs": [
        {
          "internalType": "uint256[]",
          "name": "",
          "type": "uint256[]"
        }
      ],
      "stateMutability": "nonpayable",
      "type": "function"
    },
    {
      "inputs": [
        {
          "internalType": "address",
          "name": "aToken",
          "type": "address"
        },
        {
          "internalType": "uint256",
          "name": "amount",
          "type": "uint256"
        },
        {
          "internalType": "uint256",
          "name": "deadline",
          "type": "uint256"
        },
        {
          "internalType": "uint8",
          "name": "v",
          "type": "uint8"
        },
        {
          "internalType": "bytes32",
          "name": "r",
          "type": "bytes32"
        },
        {
          "internalType": "bytes32",
          "name": "s",
          "type": "bytes32"
        }
      ],
      "name": "depositWithSignature",
      "outputs": [
        {
          "internalType": "uint256",
          "name": "aTokenAmount",
          "type": "uint256"
        }
      ],
      "stateMutability": "nonpayable",
      "type": "function"
    },
    {
      "inputs": [],
      "name": "eip712Domain",
      "outputs": [
        {
          "internalType": "bytes1",
          "name": "fields",
          "type": "bytes1"
        },
        {
          "internalType": "string",
          "name": "name",
          "type": "string"
        },
        {
          "internalType": "string",
          "name": "version",
          "type": "string"
        },
        {
          "internalType": "uint256",
          "name": "chainId",
          "type": "uint256"
        },
        {
          "internalType": "address",
          "name": "verifyingContract",
          "type": "address"
        },
        {
          "internalType": "bytes32",
          "name": "salt",
          "type": "bytes32"
        },
        {
          "internalType": "uint256[]",
          "name": "extensions",
          "type": "uint256[]"
        }
      ],
      "stateMutability": "view",
      "type": "function"
    },
    {
      "inputs": [
        {
          "internalType": "address",
          "name": "token",
          "type": "address"
        }
      ],
      "name": "getChainlinkDataFeedLatestAnswer",
      "outputs": [
        {
          "internalType": "int256",
          "name": "",
          "type": "int256"
        }
      ],
      "stateMutability": "view",
      "type": "function"
    },
    {
      "inputs": [
        {
          "internalType": "address",
          "name": "aToken",
          "type": "address"
        }
      ],
      "name": "getTokenAllocation",
      "outputs": [
        {
          "components": [
            {
              "internalType": "address",
              "name": "aToken",
              "type": "address"
            },
            {
              "internalType": "address",
              "name": "asset",
              "type": "address"
            },
            {
              "internalType": "uint16",
              "name": "targetPercentage",
              "type": "uint16"
            }
          ],
          "internalType": "struct ISlice.Allocation",
          "name": "",
          "type": "tuple"
        }
      ],
      "stateMutability": "view",
      "type": "function"
    },
    {
      "inputs": [],
      "name": "metadataUri",
      "outputs": [
        {
          "internalType": "string",
          "name": "",
          "type": "string"
        }
      ],
      "stateMutability": "view",
      "type": "function"
    },
    {
      "inputs": [],
      "name": "name",
      "outputs": [
        {
          "internalType": "string",
          "name": "",
          "type": "string"
        }
      ],
      "stateMutability": "view",
      "type": "function"
    },
    {
      "inputs": [
        {
          "internalType": "address",
          "name": "owner",
          "type": "address"
        }
      ],
      "name": "nonces",
      "outputs": [
        {
          "internalType": "uint256",
          "name": "",
          "type": "uint256"
        }
      ],
      "stateMutability": "view",
      "type": "function"
    },
    {
      "inputs": [],
      "name": "owner",
      "outputs": [
        {
          "internalType": "address",
          "name": "",
          "type": "address"
        }
      ],
      "stateMutability": "view",
      "type": "function"
    },
    {
      "inputs": [
        {
          "internalType": "address",
          "name": "owner",
          "type": "address"
        },
        {
          "internalType": "address",
          "name": "spender",
          "type": "address"
        },
        {
          "internalType": "uint256",
          "name": "value",
          "type": "uint256"
        },
        {
          "internalType": "uint256",
          "name": "deadline",
          "type": "uint256"
        },
        {
          "internalType": "uint8",
          "name": "v",
          "type": "uint8"
        },
        {
          "internalType": "bytes32",
          "name": "r",
          "type": "bytes32"
        },
        {
          "internalType": "bytes32",
          "name": "s",
          "type": "bytes32"
        }
      ],
      "name": "permit",
      "outputs": [],
      "stateMutability": "nonpayable",
      "type": "function"
    },
    {
      "inputs": [
        {
          "internalType": "address",
          "name": "token",
          "type": "address"
        }
      ],
      "name": "priceFeed",
      "outputs": [
        {
          "internalType": "address",
          "name": "",
          "type": "address"
        }
      ],
      "stateMutability": "view",
      "type": "function"
    },
    {
      "inputs": [],
      "name": "rebalance",
      "outputs": [],
      "stateMutability": "nonpayable",
      "type": "function"
    },
    {
      "inputs": [],
      "name": "renounceOwnership",
      "outputs": [],
      "stateMutability": "nonpayable",
      "type": "function"
    },
    {
      "inputs": [
        {
          "internalType": "address",
          "name": "aToken",
          "type": "address"
        },
        {
          "internalType": "uint16",
          "name": "newPercentage",
          "type": "uint16"
        }
      ],
      "name": "setAllocationPercentage",
      "outputs": [],
      "stateMutability": "nonpayable",
      "type": "function"
    },
    {
      "inputs": [
        {
          "internalType": "bytes4",
          "name": "interfaceId",
          "type": "bytes4"
        }
      ],
      "name": "supportsInterface",
      "outputs": [
        {
          "internalType": "bool",
          "name": "",
          "type": "bool"
        }
      ],
      "stateMutability": "view",
      "type": "function"
    },
    {
      "inputs": [],
      "name": "symbol",
      "outputs": [
        {
          "internalType": "string",
          "name": "",
          "type": "string"
        }
      ],
      "stateMutability": "view",
      "type": "function"
    },
    {
      "inputs": [],
      "name": "totalSupply",
      "outputs": [
        {
          "internalType": "uint256",
          "name": "",
          "type": "uint256"
        }
      ],
      "stateMutability": "view",
      "type": "function"
    },
    {
      "inputs": [
        {
          "internalType": "address",
          "name": "to",
          "type": "address"
        },
        {
          "internalType": "uint256",
          "name": "value",
          "type": "uint256"
        }
      ],
      "name": "transfer",
      "outputs": [
        {
          "internalType": "bool",
          "name": "",
          "type": "bool"
        }
      ],
      "stateMutability": "nonpayable",
      "type": "function"
    },
    {
      "inputs": [
        {
          "internalType": "address",
          "name": "from",
          "type": "address"
        },
        {
          "internalType": "address",
          "name": "to",
          "type": "address"
        },
        {
          "internalType": "uint256",
          "name": "value",
          "type": "uint256"
        }
      ],
      "name": "transferFrom",
      "outputs": [
        {
          "internalType": "bool",
          "name": "",
          "type": "bool"
        }
      ],
      "stateMutability": "nonpayable",
      "type": "function"
    },
    {
      "inputs": [
        {
          "internalType": "address",
          "name": "newOwner",
          "type": "address"
        }
      ],
      "name": "transferOwnership",
      "outputs": [],
      "stateMutability": "nonpayable",
      "type": "function"
    },
    {
      "inputs": [],
      "name": "uniswapV2Router",
      "outputs": [
        {
          "internalType": "address",
          "name": "",
          "type": "address"
        }
      ],
      "stateMutability": "view",
      "type": "function"
    },
    {
      "inputs": [
        {
          "internalType": "uint256",
          "name": "sTokenAmount",
          "type": "uint256"
        }
      ],
      "name": "withdraw",
      "outputs": [
        {
          "internalType": "uint256[]",
          "name": "amounts",
          "type": "uint256[]"
        }
      ],
      "stateMutability": "nonpayable",
      "type": "function"
    }
  ],
  "bytecode": "0x6101606040523480156200001257600080fd5b50604051620046d7380380620046d7833981016040819052620000359162000488565b338380604051806040016040528060018152602001603160f81b81525086868160039081620000659190620005d1565b506004620000748282620005d1565b506200008691508390506005620002d0565b6101205262000097816006620002d0565b61014052815160208084019190912060e052815190820120610100524660a0526200012560e05161010051604080517f8b73c3c69bb8fe3d512ecc4cf759cc79239f7b179b0ffacaa9a75d522b39400f60208201529081019290925260608201524660808201523060a082015260009060c00160405160208183030381529060405280519060200120905090565b60805250503060c052506001600160a01b0381166200015f57604051631e4fbdf760e01b8152600060048201526024015b60405180910390fd5b6200016a8162000309565b506001600160a01b038516620001d15760405162461bcd60e51b815260206004820152602560248201527f536c6963653a20496e76616c696420556e697377617020726f75746572206164604482015264647265737360d81b606482015260840162000156565b6001600160a01b038416620002335760405162461bcd60e51b815260206004820152602160248201527f536c6963653a20496e76616c6964205553444320746f6b656e206164647265736044820152607360f81b606482015260840162000156565b8051600003620002865760405162461bcd60e51b815260206004820152601b60248201527f536c6963653a20496e76616c6964206d65746164617461205552490000000000604482015260640162000156565b600c80546001600160a01b038088166001600160a01b031992831617909255600d8054928716929091169190911790556009620002c48282620005d1565b505050505050620006f7565b6000602083511015620002f057620002e8836200035b565b905062000303565b81620002fd8482620005d1565b5060ff90505b92915050565b600880546001600160a01b038381166001600160a01b0319831681179093556040519116919082907f8be0079c531659141344cd1fd0a4f28419497f9722a3daafe3b4186f6b6457e090600090a35050565b600080829050601f8151111562000389578260405163305a27a960e01b81526004016200015691906200069d565b80516200039682620006d2565b179392505050565b80516001600160a01b0381168114620003b657600080fd5b919050565b634e487b7160e01b600052604160045260246000fd5b60005b83811015620003ee578181015183820152602001620003d4565b50506000910152565b600082601f8301126200040957600080fd5b81516001600160401b0380821115620004265762000426620003bb565b604051601f8301601f19908116603f01168101908282118183101715620004515762000451620003bb565b816040528381528660208588010111156200046b57600080fd5b6200047e846020830160208901620003d1565b9695505050505050565b600080600080600060a08688031215620004a157600080fd5b620004ac866200039e565b9450620004bc602087016200039e565b60408701519094506001600160401b0380821115620004da57600080fd5b620004e889838a01620003f7565b94506060880151915080821115620004ff57600080fd5b6200050d89838a01620003f7565b935060808801519150808211156200052457600080fd5b506200053388828901620003f7565b9150509295509295909350565b600181811c908216806200055557607f821691505b6020821081036200057657634e487b7160e01b600052602260045260246000fd5b50919050565b601f821115620005cc576000816000526020600020601f850160051c81016020861015620005a75750805b601f850160051c820191505b81811015620005c857828155600101620005b3565b5050505b505050565b81516001600160401b03811115620005ed57620005ed620003bb565b6200060581620005fe845462000540565b846200057c565b602080601f8311600181146200063d5760008415620006245750858301515b600019600386901b1c1916600185901b178555620005c8565b600085815260208120601f198616915b828110156200066e578886015182559484019460019091019084016200064d565b50858210156200068d5787850151600019600388901b60f8161c191681555b5050505050600190811b01905550565b6020815260008251806020840152620006be816040850160208701620003d1565b601f01601f19169190910160400192915050565b80516020808301519190811015620005765760001960209190910360031b1b16919050565b60805160a05160c05160e051610100516101205161014051613f856200075260003960006129bb0152600061298e01526000611fe101526000611fb901526000611f1401526000611f3e01526000611f680152613f856000f3fe608060405234801561001057600080fd5b50600436106101b05760003560e01c80637d7c2a1c116100ef578063c358234b11610092578063c358234b146103b4578063c55dae63146103c9578063d505accf146103d1578063d9cde4a3146103e4578063dd62ed3e146103f7578063e7078f921461040a578063f2fde38b1461041d578063fa4d40531461043057600080fd5b80637d7c2a1c1461031f5780637ecebe001461032757806384b0196e1461033a5780638d0fac76146103555780638da5cb5b1461037557806395d89b4114610386578063a1c3d3de1461038e578063a9059cbb146103a157600080fd5b806323b872dd1161015757806323b872dd146102895780632e1a7d4d1461029c578063313ce567146102bc5780633644e515146102cb57806347e7ef24146102d357806370a08231146102e6578063715018a61461030f57806377a4d5591461031757600080fd5b8063013a0247146101b557806301ffc9a7146101db57806306fdde03146101fe578063095ea7b3146102135780630cd950fd146102265780631694505e1461023b57806318160ddd146102555780631fd48b9a1461025d575b600080fd5b6101c86101c336600461334d565b610443565b6040519081526020015b60405180910390f35b6101ee6101e93660046133a9565b610571565b60405190151581526020016101d2565b6102066105a8565b6040516101d29190613423565b6101ee610221366004613436565b61063a565b610239610234366004613479565b610652565b005b600c546001600160a01b03165b6040516101d291906134c0565b6002546101c8565b61024861026b3660046134d4565b6001600160a01b039081166000908152600e60205260409020541690565b6101ee6102973660046134f1565b6109f9565b6102af6102aa366004613532565b610a1f565b6040516101d29190613587565b604051601281526020016101d2565b6101c8610bf2565b6101c86102e1366004613436565b610c01565b6101c86102f43660046134d4565b6001600160a01b031660009081526020819052604090205490565b610239610c6f565b610206610c83565b610239610c92565b6101c86103353660046134d4565b611098565b6103426110b6565b6040516101d2979695949392919061359a565b6103686103633660046134d4565b6110fc565b6040516101d29190613635565b6008546001600160a01b0316610248565b6102066111d8565b61023961039c366004613643565b6111e7565b6101ee6103af366004613436565b61137a565b6103bc611388565b6040516101d29190613678565b610248611414565b6102396103df3660046136ba565b611423565b6101c86103f236600461372b565b61154e565b6101c8610405366004613760565b6117b9565b6101c86104183660046134d4565b6117e4565b61023961042b3660046134d4565b61186e565b6102af61043e366004613941565b6118ac565b600080861161046d5760405162461bcd60e51b815260040161046490613a35565b60405180910390fd5b6001600160a01b0387166104935760405162461bcd60e51b815260040161046490613a64565b428510156104b35760405162461bcd60e51b815260040161046490613a9b565b60006104be886110fc565b6020015190506001600160a01b0381166104ec578760405162746ce760e21b815260040161046491906134c0565b60405163d505accf60e01b815233906001600160a01b0383169063d505accf9061052690849030908d908d908d908d908d90600401613acc565b600060405180830381600087803b15801561054057600080fd5b505af1158015610554573d6000803e3d6000fd5b50505050610564818a848b611c09565b9998505050505050505050565b60006001600160e01b031982166301a4a4b960e51b14806105a257506301ffc9a760e01b6001600160e01b03198316145b92915050565b6060600380546105b790613b0d565b80601f01602080910402602001604051908101604052809291908181526020018280546105e390613b0d565b80156106305780601f1061060557610100808354040283529160200191610630565b820191906000526020600020905b81548152906001019060200180831161061357829003601f168201915b5050505050905090565b600033610648818585611d95565b5060019392505050565b6001600160a01b0383166106785760405162461bcd60e51b815260040161046490613a64565b6001600160a01b0382166106d85760405162461bcd60e51b815260206004820152602160248201527f536c6963653a20496e76616c69642070726963652066656564206164647265736044820152607360f81b6064820152608401610464565b61ffff8116158015906106f157506127108161ffff1614155b6107495760405162461bcd60e51b8152602060048201526024808201527f536c6963653a20496e76616c696420616c6c6f636174696f6e2070657263656e6044820152637461676560e01b6064820152608401610464565b6127108161ffff16600b5461075e9190613b57565b11156107b85760405162461bcd60e51b8152602060048201526024808201527f536c6963653a20546f74616c20616c6c6f636174696f6e2065786365656473206044820152633130302560e01b6064820152608401610464565b60006107c3846110fc565b516001600160a01b0316146107ed57826040516363ec8ef160e11b815260040161046491906134c0565b6107fe8363d85c12ef60e01b611da7565b61081d5782604051633624dfe160e21b815260040161046491906134c0565b600a546009190161084157604051635050982560e11b815260040160405180910390fd5b6000836001600160a01b03166338d52e0f6040518163ffffffff1660e01b8152600401602060405180830381865afa158015610881573d6000803e3d6000fd5b505050506040513d601f19601f820116820180604052508101906108a59190613b6a565b604080516060810182526001600160a01b0387811682528381166020830190815261ffff878116948401858152600a8054600181018255600091825295517fc65a7bb8d6351c1cf70c95a316cc6a92839c986682d98bc35f958f4883f9d2a8600290970296870180546001600160a01b03191691871691909117905592517fc65a7bb8d6351c1cf70c95a316cc6a92839c986682d98bc35f958f4883f9d2a990950180549151959094166001600160b01b031990911617600160a01b9490911693909302929092179055600b80549394509192610983908490613b57565b90915550506001600160a01b038181166000818152600e602090815260409182902080546001600160a01b031916888616908117909155915161ffff8716815291938816917fe1e620d79ee4604d298670ecab767901fa18358e431dc956a66abfa6899d5264910160405180910390a450505050565b600033610a07858285611dc3565b610a12858585611e16565b60019150505b9392505050565b606060008211610a415760405162461bcd60e51b815260040161046490613a35565b33610a4c8184611e75565b600a546001600160401b03811115610a6657610a66613799565b604051908082528060200260200182016040528015610a8f578160200160208202803683370190505b5091506000806000610aa060025490565b610aab601288613b87565b610ab59190613b9e565b905060005b600a54811015610be857600a8181548110610ad757610ad7613bc0565b600091825260208083206002909202909101546001600160a01b0316808352600f9091526040909120549094509250610b0e601290565b60ff16610b1b8385613b87565b610b259190613b9e565b868281518110610b3757610b37613bc0565b602002602001018181525050610b7a85878381518110610b5957610b59613bc0565b6020026020010151866001600160a01b0316611eaf9092919063ffffffff16565b846001600160a01b0316846001600160a01b03167f9b1bfa7fa9ee420a16e124f794c35ac9f90472acc99140eb2f6447c714cad8eb888481518110610bc157610bc1613bc0565b6020026020010151604051610bd891815260200190565b60405180910390a3600101610aba565b5050505050919050565b6000610bfc611f07565b905090565b6000808211610c225760405162461bcd60e51b815260040161046490613a35565b6000610c2d846110fc565b6020015190506001600160a01b038116610c5b578360405162746ce760e21b815260040161046491906134c0565b610c6733858386611c09565b949350505050565b610c77612032565b610c81600061205f565b565b6060600980546105b790613b0d565b6000610c9c6120b1565b905060008060008060008060008060008060008060005b8d51811015611088578d8181518110610cce57610cce613bc0565b6020026020010151600001519c508d8181518110610cee57610cee613bc0565b6020026020010151602001519b508d8181518110610d0e57610d0e613bc0565b6020026020010151606001519a508d8181518110610d2e57610d2e613bc0565b60200260200101516080015199508d8181518110610d4e57610d4e613bc0565b602002602001015160a0015198508a8a1015611080578c6001600160a01b0316633ba0b9a96040518163ffffffff1660e01b8152600401602060405180830381865afa158015610da2573d6000803e3d6000fd5b505050506040513d601f19601f82011682018060405250810190610dc69190613bd6565b9650610dd28a8c613bef565b9750610de788670de0b6b3a76400008961269e565b95508815610e1a57898811610e0957610e018d898961154e565b945084610e18565b610e148d8b8961154e565b9450845b505b841561108057610e328c610e2c611414565b876126bc565b610e4d610e3f8688613b57565b610e47611414565b8e612869565b9350610e57611414565b6001600160a01b03166370a08231306040518263ffffffff1660e01b8152600401610e8291906134c0565b602060405180830381865afa158015610e9f573d6000803e3d6000fd5b505050506040513d601f19601f82011682018060405250810190610ec39190613bd6565b925083831015610ee957600d54610ee4906001600160a01b03168d856126bc565b610f00565b600d54610f00906001600160a01b03168d866126bc565b6040516370a0823160e01b81526001600160a01b038d16906370a0823190610f2c9030906004016134c0565b602060405180830381865afa158015610f49573d6000803e3d6000fd5b505050506040513d601f19601f82011682018060405250810190610f6d9190613bd6565b91508b6001600160a01b031663095ea7b38e846040518363ffffffff1660e01b8152600401610f9d929190613c02565b6020604051808303816000875af1158015610fbc573d6000803e3d6000fd5b505050506040513d601f19601f82011682018060405250810190610fe09190613c1b565b50604051636e553f6560e01b81526001600160a01b038e1690636e553f659061100f9085903090600401613c3d565b6020604051808303816000875af115801561102e573d6000803e3d6000fd5b505050506040513d601f19601f820116820180604052508101906110529190613bd6565b6001600160a01b038e166000908152600f60205260408120805490919061107a908490613b57565b90915550505b600101610cb3565b5050505050505050505050505050565b6001600160a01b0381166000908152600760205260408120546105a2565b6000606080600080600060606110ca612987565b6110d26129b4565b60408051600080825260208201909252600f60f81b9b939a50919850469750309650945092509050565b60408051606081018252600080825260208201819052918101829052905b600a548110156111d257826001600160a01b0316600a828154811061114157611141613bc0565b60009182526020909120600290910201546001600160a01b0316036111ca57600a818154811061117357611173613bc0565b60009182526020918290206040805160608101825260029390930290910180546001600160a01b03908116845260019091015490811693830193909352600160a01b90920461ffff16918101919091529392505050565b60010161111a565b50919050565b6060600480546105b790613b0d565b6001600160a01b03821661120d5760405162461bcd60e51b815260040161046490613a64565b61ffff81161580159061122657506127108161ffff1614155b61126e5760405162461bcd60e51b8152602060048201526019602482015278536c6963653a20496e76616c69642070657263656e7461676560381b6044820152606401610464565b6000611279836110fc565b516001600160a01b0316036112a2578160405162746ce760e21b815260040161046491906134c0565b60005b600a5481101561133357826001600160a01b0316600a82815481106112cc576112cc613bc0565b60009182526020909120600290910201546001600160a01b03160361132b5781600a82815481106112ff576112ff613bc0565b906000526020600020906002020160010160146101000a81548161ffff021916908361ffff1602179055505b6001016112a5565b5060405161ffff821681526001600160a01b038316907f961820b4651ecef2378d97b066e501ada836f59c275237b770421b1f46e33dd59060200160405180910390a25050565b600033610648818585611e16565b6060600a805480602002602001604051908101604052809291908181526020016000905b8282101561140b576000848152602090819020604080516060810182526002860290920180546001600160a01b03908116845260019182015490811684860152600160a01b900461ffff169183019190915290835290920191016113ac565b50505050905090565b600d546001600160a01b031690565b834211156114475760405163313c898160e11b815260048101859052602401610464565b60007f6e71edae12b1b97f4d1f60370fef10105fa2faae0126114a169c64845d6126c98888886114948c6001600160a01b0316600090815260076020526040902080546001810190915590565b6040805160208101969096526001600160a01b0394851690860152929091166060840152608083015260a082015260c0810186905260e00160405160208183030381529060405280519060200120905060006114ef826129e1565b905060006114ff82878787612a0e565b9050896001600160a01b0316816001600160a01b03161461153757808a6040516325c0072360e11b8152600401610464929190613c54565b6115428a8a8a611d95565b50505050505050505050565b600080846001600160a01b031663fbfa77cf6040518163ffffffff1660e01b8152600401602060405180830381865afa15801561158f573d6000803e3d6000fd5b505050506040513d601f19601f820116820180604052508101906115b39190613b6a565b90506000816001600160a01b031663ce96cb77876040518263ffffffff1660e01b81526004016115e391906134c0565b602060405180830381865afa158015611600573d6000803e3d6000fd5b505050506040513d601f19601f820116820180604052508101906116249190613bd6565b9050600061163b86670de0b6b3a76400008761269e565b9050816000036116515760009350505050610a18565b61166283631ee878f360e11b611da7565b1561179057604051633ea0e43760e11b8152600481018290526001600160a01b03888116602483018190526044830152841690637d41c86e90606401600060405180830381600087803b1580156116b857600080fd5b505af11580156116cc573d6000803e3d6000fd5b5050505080821015611764576001600160a01b03871662f714ce6116f98488670de0b6b3a764000061269e565b306040518363ffffffff1660e01b8152600401611717929190613c3d565b6020604051808303816000875af1158015611736573d6000803e3d6000fd5b505050506040513d601f19601f8201168201806040525081019061175a9190613bd6565b9350505050610a18565b604051627b8a6760e11b81526001600160a01b0388169062f714ce906117179089903090600401613c3d565b80821015611764576001600160a01b03871662f714ce6116f98488670de0b6b3a764000061269e565b6001600160a01b03918216600090815260016020908152604080832093909416825291909152205490565b6001600160a01b038082166000908152600e6020526040808220548151633fabe5a360e21b815291519293849391169163feaf968c9160048083019260a09291908290030181865afa15801561183e573d6000803e3d6000fd5b505050506040513d601f19601f820116820180604052508101906118629190613c88565b50919695505050505050565b611876612032565b6001600160a01b0381166118a0576000604051631e4fbdf760e01b815260040161046491906134c0565b6118a98161205f565b50565b6060855187511480156118c0575084518751145b80156118cd575083518751145b80156118da575082518751145b80156118e7575081518751145b6119335760405162461bcd60e51b815260206004820152601e60248201527f536c6963653a20646966666572656e74206172726179206c656e6774687300006044820152606401610464565b865133906000906001600160401b0381111561195157611951613799565b60405190808252806020026020018201604052801561197a578160200160208202803683370190505b50905060005b8951811015611bfc57600089828151811061199d5761199d613bc0565b6020026020010151116119c25760405162461bcd60e51b815260040161046490613a35565b60006001600160a01b03168a82815181106119df576119df613bc0565b60200260200101516001600160a01b031603611a0d5760405162461bcd60e51b815260040161046490613a64565b42888281518110611a2057611a20613bc0565b60200260200101511015611a465760405162461bcd60e51b815260040161046490613a9b565b6000611a6a8b8381518110611a5d57611a5d613bc0565b60200260200101516110fc565b6020015190506001600160a01b038116611ab1578a8281518110611a9057611a90613bc0565b602002602001015160405162746ce760e21b815260040161046491906134c0565b806001600160a01b031663d505accf85308d8681518110611ad457611ad4613bc0565b60200260200101518d8781518110611aee57611aee613bc0565b60200260200101518d8881518110611b0857611b08613bc0565b60200260200101518d8981518110611b2257611b22613bc0565b60200260200101518d8a81518110611b3c57611b3c613bc0565b60200260200101516040518863ffffffff1660e01b8152600401611b669796959493929190613acc565b600060405180830381600087803b158015611b8057600080fd5b505af1158015611b94573d6000803e3d6000fd5b50505050611bd6848c8481518110611bae57611bae613bc0565b6020026020010151838d8681518110611bc957611bc9613bc0565b6020026020010151611c09565b838381518110611be857611be8613bc0565b602090810291909101015250600101611980565b5098975050505050505050565b6000611c206001600160a01b038416863085612a3c565b60405163095ea7b360e01b81526001600160a01b0384169063095ea7b390611c4e9087908690600401613c02565b6020604051808303816000875af1158015611c6d573d6000803e3d6000fd5b505050506040513d601f19601f82011682018060405250810190611c919190613c1b565b50604051636e553f6560e01b81526001600160a01b03851690636e553f6590611cc09085903090600401613c3d565b6020604051808303816000875af1158015611cdf573d6000803e3d6000fd5b505050506040513d601f19601f82011682018060405250810190611d039190613bd6565b6001600160a01b0385166000908152600f6020526040812080549293508392909190611d30908490613b57565b90915550611d4090508582612a75565b846001600160a01b0316846001600160a01b03167f5548c837ab068cf56a2c2479df0882a4922fd203edb7517321831d95078c5f6284604051611d8591815260200190565b60405180910390a3949350505050565b611da28383836001612aab565b505050565b6000611db283612b80565b8015610a185750610a188383612bb3565b6000611dcf84846117b9565b90506000198114611e105781811015611e0157828183604051637dc7a0d960e11b815260040161046493929190613cd8565b611e1084848484036000612aab565b50505050565b6001600160a01b038316611e40576000604051634b637e8f60e11b815260040161046491906134c0565b6001600160a01b038216611e6a57600060405163ec442f0560e01b815260040161046491906134c0565b611da2838383612c3d565b6001600160a01b038216611e9f576000604051634b637e8f60e11b815260040161046491906134c0565b611eab82600083612c3d565b5050565b611da283846001600160a01b031663a9059cbb8585604051602401611ed5929190613c02565b604051602081830303815290604052915060e01b6020820180516001600160e01b038381831617835250505050612d54565b6000306001600160a01b037f000000000000000000000000000000000000000000000000000000000000000016148015611f6057507f000000000000000000000000000000000000000000000000000000000000000046145b15611f8a57507f000000000000000000000000000000000000000000000000000000000000000090565b610bfc604080517f8b73c3c69bb8fe3d512ecc4cf759cc79239f7b179b0ffacaa9a75d522b39400f60208201527f0000000000000000000000000000000000000000000000000000000000000000918101919091527f000000000000000000000000000000000000000000000000000000000000000060608201524660808201523060a082015260009060c00160405160208183030381529060405280519060200120905090565b6008546001600160a01b03163314610c81573360405163118cdaa760e01b815260040161046491906134c0565b600880546001600160a01b038381166001600160a01b0319831681179093556040519116919082907f8be0079c531659141344cd1fd0a4f28419497f9722a3daafe3b4186f6b6457e090600090a35050565b606060006120bd612dae565b9050600080600080600080600080600a805490506001600160401b038111156120e8576120e8613799565b60405190808252806020026020018201604052801561216457816020015b6121516040518060c0016040528060006001600160a01b0316815260200160006001600160a01b03168152602001600081526020016000815260200160008152602001600081525090565b8152602001906001900390816121065790505b50995060005b600a5481101561269157600a818154811061218757612187613bc0565b6000918252602090912060029091020154600a80546001600160a01b039092169a5090829081106121ba576121ba613bc0565b600091825260208220600160029092020101546001600160a01b03169850806121e38b8b612e47565b935093505050612710600a84815481106121ff576121ff613bc0565b600091825260209091206002909102016001015461222890600160a01b900461ffff168e613b87565b6122329190613b9e565b9850818a6001600160a01b031663313ce5676040518163ffffffff1660e01b8152600401602060405180830381865afa158015612273573d6000803e3d6000fd5b505050506040513d601f19601f820116820180604052508101906122979190613cf9565b6122a290600a613dfa565b6122ac908b613b87565b6122b69190613b9e565b97506122cb8882670de0b6b3a764000061269e565b6001600160a01b038c166000908152600f6020526040902054909750935086841115612554576122fb8785613bef565b95506123088b878361154e565b9450841561242d5761231c8a610e2c611414565b612324611414565b6001600160a01b03166370a08231306040518263ffffffff1660e01b815260040161234f91906134c0565b602060405180830381865afa15801561236c573d6000803e3d6000fd5b505050506040513d601f19601f820116820180604052508101906123909190613bd6565b600f600061239c611414565b6001600160a01b03166001600160a01b03168152602001908152602001600020819055506040518060c001604052808c6001600160a01b031681526020018b6001600160a01b0316815260200189815260200188815260200187866124019190613bef565b815260200160008152508d848151811061241d5761241d613bc0565b6020026020010181905250612687565b6040518060c001604052808c6001600160a01b031681526020018b6001600160a01b031681526020018981526020018881526020018581526020018c6001600160a01b031663fbfa77cf6040518163ffffffff1660e01b8152600401602060405180830381865afa1580156124a6573d6000803e3d6000fd5b505050506040513d601f19601f820116820180604052508101906124ca9190613b6a565b6001600160a01b0316635ab764ed8e6124e1611414565b6040518363ffffffff1660e01b81526004016124fe929190613c54565b602060405180830381865afa15801561251b573d6000803e3d6000fd5b505050506040513d601f19601f8201168201806040525081019061253f9190613bd6565b8152508d848151811061241d5761241d613bc0565b6040518060c001604052808c6001600160a01b031681526020018b6001600160a01b031681526020018981526020018881526020018581526020018c6001600160a01b031663fbfa77cf6040518163ffffffff1660e01b8152600401602060405180830381865afa1580156125cd573d6000803e3d6000fd5b505050506040513d601f19601f820116820180604052508101906125f19190613b6a565b6001600160a01b0316635ab764ed8e612608611414565b6040518363ffffffff1660e01b8152600401612625929190613c54565b602060405180830381865afa158015612642573d6000803e3d6000fd5b505050506040513d601f19601f820116820180604052508101906126669190613bd6565b8152508d848151811061267b5761267b613bc0565b60200260200101819052505b505060010161216a565b5050505050505050505090565b60008260001904841183021582026126b557600080fd5b5091020490565b60408051600280825260608201835260009260208301908036833701905050905083816000815181106126f1576126f1613bc0565b60200260200101906001600160a01b031690816001600160a01b031681525050828160018151811061272557612725613bc0565b60200260200101906001600160a01b031690816001600160a01b0316815250508060008151811061275857612758613bc0565b60200260200101516001600160a01b031663095ea7b3612780600c546001600160a01b031690565b846040518363ffffffff1660e01b815260040161279e929190613c02565b6020604051808303816000875af11580156127bd573d6000803e3d6000fd5b505050506040513d601f19601f820116820180604052508101906127e19190613c1b565b50600c546040516338ed173960e01b81526001600160a01b03909116906338ed17399061281b908590600090869030904290600401613e43565b6000604051808303816000875af115801561283a573d6000803e3d6000fd5b505050506040513d6000823e601f3d908101601f191682016040526128629190810190613e7f565b5050505050565b6040805160028082526060820183526000928392919060208301908036833701905050905083816000815181106128a2576128a2613bc0565b60200260200101906001600160a01b031690816001600160a01b03168152505082816001815181106128d6576128d6613bc0565b6001600160a01b039283166020918202929092010152600c546040516307c0329d60e21b81526000929190911690631f00ca749061291a9089908690600401613f04565b600060405180830381865afa158015612937573d6000803e3d6000fd5b505050506040513d6000823e601f3d908101601f1916820160405261295f9190810190613e7f565b90508060008151811061297457612974613bc0565b6020026020010151925050509392505050565b6060610bfc7f00000000000000000000000000000000000000000000000000000000000000006005612f72565b6060610bfc7f00000000000000000000000000000000000000000000000000000000000000006006612f72565b60006105a26129ee611f07565b8360405161190160f01b8152600281019290925260228201526042902090565b600080600080612a208888888861301d565b925092509250612a3082826130e2565b50909695505050505050565b6040516001600160a01b038481166024830152838116604483015260648201839052611e109186918216906323b872dd90608401611ed5565b6001600160a01b038216612a9f57600060405163ec442f0560e01b815260040161046491906134c0565b611eab60008383612c3d565b6001600160a01b038416612ad557600060405163e602df0560e01b815260040161046491906134c0565b6001600160a01b038316612aff576000604051634a1406b160e11b815260040161046491906134c0565b6001600160a01b0380851660009081526001602090815260408083209387168352929052208290558015611e1057826001600160a01b0316846001600160a01b03167f8c5be1e5ebec7d5bd14f71427d1e84f3dd0314c0f7b2291e5b200ac8c7c3b92584604051612b7291815260200190565b60405180910390a350505050565b6000612b93826301ffc9a760e01b612bb3565b80156105a25750612bac826001600160e01b0319612bb3565b1592915050565b6040516001600160e01b031982166024820152600090819060440160408051601f19818403018152919052602080820180516001600160e01b03166301ffc9a760e01b178152825192935060009283928392909183918a617530fa92503d91506000519050828015612c26575060208210155b8015612c325750600081115b979650505050505050565b6001600160a01b038316612c68578060026000828254612c5d9190613b57565b90915550612cc79050565b6001600160a01b03831660009081526020819052604090205481811015612ca85783818360405163391434e360e21b815260040161046493929190613cd8565b6001600160a01b03841660009081526020819052604090209082900390555b6001600160a01b038216612ce357600280548290039055612d02565b6001600160a01b03821660009081526020819052604090208054820190555b816001600160a01b0316836001600160a01b03167fddf252ad1be2c89b69c2b068fc378daa952ba7f163c4a11628f55a4df523b3ef83604051612d4791815260200190565b60405180910390a3505050565b6000612d696001600160a01b0384168361319b565b90508051600014158015612d8e575080806020019051810190612d8c9190613c1b565b155b15611da25782604051635274afe760e01b815260040161046491906134c0565b6000805b600a54811015612e43576000612e27600a8381548110612dd457612dd4613bc0565b6000918252602090912060029091020154600a80546001600160a01b039092169185908110612e0557612e05613bc0565b60009182526020909120600160029092020101546001600160a01b0316612e47565b50505090508083612e389190613b57565b925050600101612db2565b5090565b6001600160a01b0382166000818152600f60209081526040808320548151633ba0b9a960e01b815291519394859485948594633ba0b9a992600480830193928290030181865afa158015612e9f573d6000803e3d6000fd5b505050506040513d601f19601f82011682018060405250810190612ec39190613bd6565b9150612ece866117e4565b9250612ee38183670de0b6b3a764000061269e565b9350866001600160a01b031663313ce5676040518163ffffffff1660e01b8152600401602060405180830381865afa158015612f23573d6000803e3d6000fd5b505050506040513d601f19601f82011682018060405250810190612f479190613cf9565b612f5290600a613dfa565b612f5c8486613b87565b612f669190613b9e565b94505092959194509250565b606060ff8314612f8c57612f85836131a9565b90506105a2565b818054612f9890613b0d565b80601f0160208091040260200160405190810160405280929190818152602001828054612fc490613b0d565b80156130115780601f10612fe657610100808354040283529160200191613011565b820191906000526020600020905b815481529060010190602001808311612ff457829003601f168201915b505050505090506105a2565b600080806fa2a8918ca85bafe22016d0b997e4df60600160ff1b0384111561304e57506000915060039050826130d8565b604080516000808252602082018084528a905260ff891692820192909252606081018790526080810186905260019060a0016020604051602081039080840390855afa1580156130a2573d6000803e3d6000fd5b5050604051601f1901519150506001600160a01b0381166130ce575060009250600191508290506130d8565b9250600091508190505b9450945094915050565b60008260038111156130f6576130f6613f1d565b036130ff575050565b600182600381111561311357613113613f1d565b036131315760405163f645eedf60e01b815260040160405180910390fd5b600282600381111561314557613145613f1d565b036131665760405163fce698f760e01b815260048101829052602401610464565b600382600381111561317a5761317a613f1d565b03611eab576040516335e2f38360e21b815260048101829052602401610464565b6060610a18838360006131e8565b606060006131b683613285565b604080516020808252818301909252919250600091906020820181803683375050509182525060208101929092525090565b60608147101561320d573060405163cd78605960e01b815260040161046491906134c0565b600080856001600160a01b031684866040516132299190613f33565b60006040518083038185875af1925050503d8060008114613266576040519150601f19603f3d011682016040523d82523d6000602084013e61326b565b606091505b509150915061327b8683836132ad565b9695505050505050565b600060ff8216601f8111156105a257604051632cd44ac360e21b815260040160405180910390fd5b6060826132c2576132bd82613300565b610a18565b81511580156132d957506001600160a01b0384163b155b156132f95783604051639996b31560e01b815260040161046491906134c0565b5080610a18565b8051156133105780518082602001fd5b604051630a12f52160e11b815260040160405180910390fd5b6001600160a01b03811681146118a957600080fd5b60ff811681146118a957600080fd5b60008060008060008060c0878903121561336657600080fd5b863561337181613329565b95506020870135945060408701359350606087013561338f8161333e565b9598949750929560808101359460a0909101359350915050565b6000602082840312156133bb57600080fd5b81356001600160e01b031981168114610a1857600080fd5b60005b838110156133ee5781810151838201526020016133d6565b50506000910152565b6000815180845261340f8160208601602086016133d3565b601f01601f19169290920160200192915050565b602081526000610a1860208301846133f7565b6000806040838503121561344957600080fd5b823561345481613329565b946020939093013593505050565b803561ffff8116811461347457600080fd5b919050565b60008060006060848603121561348e57600080fd5b833561349981613329565b925060208401356134a981613329565b91506134b760408501613462565b90509250925092565b6001600160a01b0391909116815260200190565b6000602082840312156134e657600080fd5b8135610a1881613329565b60008060006060848603121561350657600080fd5b833561351181613329565b9250602084013561352181613329565b929592945050506040919091013590565b60006020828403121561354457600080fd5b5035919050565b60008151808452602080850194506020840160005b8381101561357c57815187529582019590820190600101613560565b509495945050505050565b602081526000610a18602083018461354b565b60ff60f81b8816815260e0602082015260006135b960e08301896133f7565b82810360408401526135cb81896133f7565b606084018890526001600160a01b038716608085015260a0840186905283810360c085015290506135fc818561354b565b9a9950505050505050505050565b80516001600160a01b0390811683526020808301519091169083015260409081015161ffff16910152565b606081016105a2828461360a565b6000806040838503121561365657600080fd5b823561366181613329565b915061366f60208401613462565b90509250929050565b6020808252825182820181905260009190848201906040850190845b81811015612a30576136a783855161360a565b9284019260609290920191600101613694565b600080600080600080600060e0888a0312156136d557600080fd5b87356136e081613329565b965060208801356136f081613329565b95506040880135945060608801359350608088013561370e8161333e565b9699959850939692959460a0840135945060c09093013592915050565b60008060006060848603121561374057600080fd5b833561374b81613329565b95602085013595506040909401359392505050565b6000806040838503121561377357600080fd5b823561377e81613329565b9150602083013561378e81613329565b809150509250929050565b634e487b7160e01b600052604160045260246000fd5b604051601f8201601f191681016001600160401b03811182821017156137d7576137d7613799565b604052919050565b60006001600160401b038211156137f8576137f8613799565b5060051b60200190565b600082601f83011261381357600080fd5b81356020613828613823836137df565b6137af565b8083825260208201915060208460051b87010193508684111561384a57600080fd5b602086015b8481101561386f57803561386281613329565b835291830191830161384f565b509695505050505050565b600082601f83011261388b57600080fd5b8135602061389b613823836137df565b8083825260208201915060208460051b8701019350868411156138bd57600080fd5b602086015b8481101561386f57803583529183019183016138c2565b600082601f8301126138ea57600080fd5b813560206138fa613823836137df565b8083825260208201915060208460051b87010193508684111561391c57600080fd5b602086015b8481101561386f5780356139348161333e565b8352918301918301613921565b60008060008060008060c0878903121561395a57600080fd5b86356001600160401b038082111561397157600080fd5b61397d8a838b01613802565b9750602089013591508082111561399357600080fd5b61399f8a838b0161387a565b965060408901359150808211156139b557600080fd5b6139c18a838b0161387a565b955060608901359150808211156139d757600080fd5b6139e38a838b016138d9565b945060808901359150808211156139f957600080fd5b613a058a838b0161387a565b935060a0890135915080821115613a1b57600080fd5b50613a2889828a0161387a565b9150509295509295509295565b60208082526015908201527414db1a58d94e88125b9d985b1a5908185b5bdd5b9d605a1b604082015260600190565b6020808252601d908201527f536c6963653a20496e76616c69642061546f6b656e2061646472657373000000604082015260600190565b602080825260179082015276536c6963653a20496e76616c696420646561646c696e6560481b604082015260600190565b6001600160a01b0397881681529590961660208601526040850193909352606084019190915260ff16608083015260a082015260c081019190915260e00190565b600181811c90821680613b2157607f821691505b6020821081036111d257634e487b7160e01b600052602260045260246000fd5b634e487b7160e01b600052601160045260246000fd5b808201808211156105a2576105a2613b41565b600060208284031215613b7c57600080fd5b8151610a1881613329565b80820281158282048414176105a2576105a2613b41565b600082613bbb57634e487b7160e01b600052601260045260246000fd5b500490565b634e487b7160e01b600052603260045260246000fd5b600060208284031215613be857600080fd5b5051919050565b818103818111156105a2576105a2613b41565b6001600160a01b03929092168252602082015260400190565b600060208284031215613c2d57600080fd5b81518015158114610a1857600080fd5b9182526001600160a01b0316602082015260400190565b6001600160a01b0392831681529116602082015260400190565b805169ffffffffffffffffffff8116811461347457600080fd5b600080600080600060a08688031215613ca057600080fd5b613ca986613c6e565b9450602086015193506040860151925060608601519150613ccc60808701613c6e565b90509295509295909350565b6001600160a01b039390931683526020830191909152604082015260600190565b600060208284031215613d0b57600080fd5b8151610a188161333e565b600181815b80851115613d51578160001904821115613d3757613d37613b41565b80851615613d4457918102915b93841c9390800290613d1b565b509250929050565b600082613d68575060016105a2565b81613d75575060006105a2565b8160018114613d8b5760028114613d9557613db1565b60019150506105a2565b60ff841115613da657613da6613b41565b50506001821b6105a2565b5060208310610133831016604e8410600b8410161715613dd4575081810a6105a2565b613dde8383613d16565b8060001904821115613df257613df2613b41565b029392505050565b6000610a1860ff841683613d59565b60008151808452602080850194506020840160005b8381101561357c5781516001600160a01b031687529582019590820190600101613e1e565b85815284602082015260a060408201526000613e6260a0830186613e09565b6001600160a01b0394909416606083015250608001529392505050565b60006020808385031215613e9257600080fd5b82516001600160401b03811115613ea857600080fd5b8301601f81018513613eb957600080fd5b8051613ec7613823826137df565b81815260059190911b82018301908381019087831115613ee657600080fd5b928401925b82841015612c3257835182529284019290840190613eeb565b828152604060208201526000610c676040830184613e09565b634e487b7160e01b600052602160045260246000fd5b60008251613f458184602087016133d3565b919091019291505056fea2646970667358221220129557cb4c8309fb8f383d72a77739477e2b16f59ee227dfb4db25f45b937aee64736f6c63430008180033",
  "linkReferences": {},
  "deployedLinkReferences": {}
}