{
  "_format": "hh-sol-artifact-1",
  "contractName": "SliceFactory",
  "sourceName": "contracts/slice/factory/SliceFactory.sol",
  "abi": [
    {
      "inputs": [],
      "stateMutability": "nonpayable",
      "type": "constructor"
    },
    {
      "inputs": [
        {
          "internalType": "address",
          "name": "owner",
          "type": "address"
        }
      ],
      "name": "OwnableInvalidOwner",
      "type": "error"
    },
    {
      "inputs": [
        {
          "internalType": "address",
          "name": "account",
          "type": "address"
        }
      ],
      "name": "OwnableUnauthorizedAccount",
      "type": "error"
    },
    {
      "anonymous": false,
      "inputs": [
        {
          "indexed": true,
          "internalType": "address",
          "name": "previousOwner",
          "type": "address"
        },
        {
          "indexed": true,
          "internalType": "address",
          "name": "newOwner",
          "type": "address"
        }
      ],
      "name": "OwnershipTransferred",
      "type": "event"
    },
    {
      "anonymous": false,
      "inputs": [
        {
          "indexed": true,
          "internalType": "address",
          "name": "slice",
          "type": "address"
        },
        {
          "indexed": false,
          "internalType": "address",
          "name": "uniswapRouter",
          "type": "address"
        },
        {
          "indexed": false,
          "internalType": "address",
          "name": "usdc",
          "type": "address"
        }
      ],
      "name": "SliceDeployed",
      "type": "event"
    },
    {
      "inputs": [
        {
          "internalType": "string",
          "name": "salt",
          "type": "string"
        },
        {
          "components": [
            {
              "internalType": "address",
              "name": "uniswapRouter",
              "type": "address"
            },
            {
              "internalType": "address",
              "name": "usdc",
              "type": "address"
            },
            {
              "internalType": "string",
              "name": "name",
              "type": "string"
            },
            {
              "internalType": "string",
              "name": "symbol",
              "type": "string"
            },
            {
              "internalType": "string",
              "name": "metadataUri",
              "type": "string"
            }
          ],
          "internalType": "struct ISliceFactory.SliceDetails",
          "name": "sliceDetails",
          "type": "tuple"
        }
      ],
      "name": "deploySlice",
      "outputs": [
        {
          "internalType": "address",
          "name": "slice",
          "type": "address"
        }
      ],
      "stateMutability": "nonpayable",
      "type": "function"
    },
    {
      "inputs": [],
      "name": "owner",
      "outputs": [
        {
          "internalType": "address",
          "name": "",
          "type": "address"
        }
      ],
      "stateMutability": "view",
      "type": "function"
    },
    {
      "inputs": [],
      "name": "renounceOwnership",
      "outputs": [],
      "stateMutability": "nonpayable",
      "type": "function"
    },
    {
      "inputs": [
        {
          "internalType": "bytes4",
          "name": "interfaceId",
          "type": "bytes4"
        }
      ],
      "name": "supportsInterface",
      "outputs": [
        {
          "internalType": "bool",
          "name": "",
          "type": "bool"
        }
      ],
      "stateMutability": "view",
      "type": "function"
    },
    {
      "inputs": [
        {
          "internalType": "address",
          "name": "newOwner",
          "type": "address"
        }
      ],
      "name": "transferOwnership",
      "outputs": [],
      "stateMutability": "nonpayable",
      "type": "function"
    }
  ],
  "bytecode": "0x608060405234801561001057600080fd5b50338061003757604051631e4fbdf760e01b81526000600482015260240160405180910390fd5b61004081610046565b50610096565b600080546001600160a01b038381166001600160a01b0319831681178455604051919092169283917f8be0079c531659141344cd1fd0a4f28419497f9722a3daafe3b4186f6b6457e09190a35050565b615120806100a56000396000f3fe60806040523480156200001157600080fd5b50600436106200005e5760003560e01c806301ffc9a714620000635780636bcaa0ee146200008f578063715018a614620000b55780638da5cb5b14620000c1578063f2fde38b14620000d3575b600080fd5b6200007a620000743660046200065f565b620000ea565b60405190151581526020015b60405180910390f35b620000a6620000a036600462000692565b62000122565b60405162000086919062000734565b620000bf6200043a565b005b6000546001600160a01b0316620000a6565b620000bf620000e436600462000748565b62000452565b60006001600160e01b031982166335e5507760e11b14806200011c57506301ffc9a760e01b6001600160e01b03198316145b92915050565b6000806001600160a01b0316600185856040516200014292919062000773565b908152604051908190036020019020546001600160a01b031614620001ba5760405162461bcd60e51b8152602060048201526024808201527f536c696365466163746f72793a20536c69636520616c7265616479206465706c6044820152631bde595960e21b60648201526084015b60405180910390fd5b6000620001cb602084018462000748565b6001600160a01b031603620002385760405162461bcd60e51b815260206004820152602c60248201527f536c696365466163746f72793a20496e76616c696420556e697377617020526f60448201526b75746572206164647265737360a01b6064820152608401620001b1565b60006200024c604084016020850162000748565b6001600160a01b031603620002af5760405162461bcd60e51b815260206004820152602260248201527f536c696365466163746f72793a20496e76616c69642055534443206164647265604482015261737360f01b6064820152608401620001b1565b620002be608083018362000783565b90506000036200031c5760405162461bcd60e51b815260206004820152602260248201527f536c696365466163746f72793a20496e76616c6964206d657461646174612055604482015261524960f01b6064820152608401620001b1565b6200032984848462000497565b905080600185856040516200034092919062000773565b90815260405190819003602001812080546001600160a01b039384166001600160a01b031990911617905563f2fde38b60e01b81529082169063f2fde38b906200038f90339060040162000734565b600060405180830381600087803b158015620003aa57600080fd5b505af1158015620003bf573d6000803e3d6000fd5b5050506001600160a01b03821690507f161ecf73e3bfe9baee592d61843de85e606e927fa437c4355182cde715d72a92620003fe602085018562000748565b62000410604086016020870162000748565b604080516001600160a01b0393841681529290911660208301520160405180910390a29392505050565b620004446200057b565b620004506000620005ab565b565b6200045c6200057b565b6001600160a01b03811662000489576000604051631e4fbdf760e01b8152600401620001b1919062000734565b6200049481620005ab565b50565b60008060405180602001620004ac9062000651565b601f1982820381018352601f9091011660405290506000620004d2602085018562000748565b620004e4604086016020870162000748565b620004f3604087018762000783565b62000502606089018962000783565b6200051160808b018b62000783565b6040516020016200052a989796959493929190620007fd565b6040516020818303038152906040529050600082826040516020016200055292919062000899565b604051602081830303815290604052905062000570878783620005fb565b979650505050505050565b6000546001600160a01b0316331462000450573360405163118cdaa760e01b8152600401620001b1919062000734565b600080546001600160a01b038381166001600160a01b0319831681178455604051919092169283917f8be0079c531659141344cd1fd0a4f28419497f9722a3daafe3b4186f6b6457e09190a35050565b60008084846040516020016200061392919062000773565b604051602081830303815290604052805190602001209050600083602001845183818334f592505050803b6200064857600080fd5b95945050505050565b61483080620008bb83390190565b6000602082840312156200067257600080fd5b81356001600160e01b0319811681146200068b57600080fd5b9392505050565b600080600060408486031215620006a857600080fd5b833567ffffffffffffffff80821115620006c157600080fd5b818601915086601f830112620006d657600080fd5b813581811115620006e657600080fd5b876020828501011115620006f957600080fd5b6020928301955093509085013590808211156200071557600080fd5b50840160a081870312156200072957600080fd5b809150509250925092565b6001600160a01b0391909116815260200190565b6000602082840312156200075b57600080fd5b81356001600160a01b03811681146200068b57600080fd5b8183823760009101908152919050565b6000808335601e198436030181126200079b57600080fd5b83018035915067ffffffffffffffff821115620007b757600080fd5b602001915036819003821315620007cd57600080fd5b9250929050565b81835281816020850137506000828201602090810191909152601f909101601f19169091010190565b6001600160a01b0389811682528816602082015260a0604082018190526000906200082c908301888a620007d4565b828103606084015262000841818789620007d4565b9050828103608084015262000858818587620007d4565b9b9a5050505050505050505050565b6000815160005b818110156200088a57602081850181015186830152016200086e565b50600093019283525090919050565b6000620008b2620008ab838662000867565b8462000867565b94935050505056fe6101606040523480156200001257600080fd5b506040516200483038038062004830833981016040819052620000359162000488565b338380604051806040016040528060018152602001603160f81b81525086868160039081620000659190620005d1565b506004620000748282620005d1565b506200008691508390506005620002d0565b6101205262000097816006620002d0565b61014052815160208084019190912060e052815190820120610100524660a0526200012560e05161010051604080517f8b73c3c69bb8fe3d512ecc4cf759cc79239f7b179b0ffacaa9a75d522b39400f60208201529081019290925260608201524660808201523060a082015260009060c00160405160208183030381529060405280519060200120905090565b60805250503060c052506001600160a01b0381166200015f57604051631e4fbdf760e01b8152600060048201526024015b60405180910390fd5b6200016a8162000309565b506001600160a01b038516620001d15760405162461bcd60e51b815260206004820152602560248201527f536c6963653a20496e76616c696420556e697377617020726f75746572206164604482015264647265737360d81b606482015260840162000156565b6001600160a01b038416620002335760405162461bcd60e51b815260206004820152602160248201527f536c6963653a20496e76616c6964205553444320746f6b656e206164647265736044820152607360f81b606482015260840162000156565b8051600003620002865760405162461bcd60e51b815260206004820152601b60248201527f536c6963653a20496e76616c6964206d65746164617461205552490000000000604482015260640162000156565b600c80546001600160a01b038088166001600160a01b031992831617909255600d8054928716929091169190911790556009620002c48282620005d1565b505050505050620006f7565b6000602083511015620002f057620002e8836200035b565b905062000303565b81620002fd8482620005d1565b5060ff90505b92915050565b600880546001600160a01b038381166001600160a01b0319831681179093556040519116919082907f8be0079c531659141344cd1fd0a4f28419497f9722a3daafe3b4186f6b6457e090600090a35050565b600080829050601f8151111562000389578260405163305a27a960e01b81526004016200015691906200069d565b80516200039682620006d2565b179392505050565b80516001600160a01b0381168114620003b657600080fd5b919050565b634e487b7160e01b600052604160045260246000fd5b60005b83811015620003ee578181015183820152602001620003d4565b50506000910152565b600082601f8301126200040957600080fd5b81516001600160401b0380821115620004265762000426620003bb565b604051601f8301601f19908116603f01168101908282118183101715620004515762000451620003bb565b816040528381528660208588010111156200046b57600080fd5b6200047e846020830160208901620003d1565b9695505050505050565b600080600080600060a08688031215620004a157600080fd5b620004ac866200039e565b9450620004bc602087016200039e565b60408701519094506001600160401b0380821115620004da57600080fd5b620004e889838a01620003f7565b94506060880151915080821115620004ff57600080fd5b6200050d89838a01620003f7565b935060808801519150808211156200052457600080fd5b506200053388828901620003f7565b9150509295509295909350565b600181811c908216806200055557607f821691505b6020821081036200057657634e487b7160e01b600052602260045260246000fd5b50919050565b601f821115620005cc576000816000526020600020601f850160051c81016020861015620005a75750805b601f850160051c820191505b81811015620005c857828155600101620005b3565b5050505b505050565b81516001600160401b03811115620005ed57620005ed620003bb565b6200060581620005fe845462000540565b846200057c565b602080601f8311600181146200063d5760008415620006245750858301515b600019600386901b1c1916600185901b178555620005c8565b600085815260208120601f198616915b828110156200066e578886015182559484019460019091019084016200064d565b50858210156200068d5787850151600019600388901b60f8161c191681555b5050505050600190811b01905550565b6020815260008251806020840152620006be816040850160208701620003d1565b601f01601f19169190910160400192915050565b80516020808301519190811015620005765760001960209190910360031b1b16919050565b60805160a05160c05160e0516101005161012051610140516140de620007526000396000612aa501526000612a780152600061206c0152600061204401526000611f9f01526000611fc901526000611ff301526140de6000f3fe608060405234801561001057600080fd5b50600436106101b05760003560e01c80637d7c2a1c116100ef578063c358234b11610092578063c358234b146103b4578063c55dae63146103c9578063d505accf146103d1578063d9cde4a3146103e4578063dd62ed3e146103f7578063e7078f921461040a578063f2fde38b1461041d578063fa4d40531461043057600080fd5b80637d7c2a1c1461031f5780637ecebe001461032757806384b0196e1461033a5780638d0fac76146103555780638da5cb5b1461037557806395d89b4114610386578063a1c3d3de1461038e578063a9059cbb146103a157600080fd5b806323b872dd1161015757806323b872dd146102895780632e1a7d4d1461029c578063313ce567146102bc5780633644e515146102cb57806347e7ef24146102d357806370a08231146102e6578063715018a61461030f57806377a4d5591461031757600080fd5b8063013a0247146101b557806301ffc9a7146101db57806306fdde03146101fe578063095ea7b3146102135780630cd950fd146102265780631694505e1461023b57806318160ddd146102555780631fd48b9a1461025d575b600080fd5b6101c86101c3366004613457565b610443565b6040519081526020015b60405180910390f35b6101ee6101e93660046134b3565b610571565b60405190151581526020016101d2565b6102066105a8565b6040516101d2919061352d565b6101ee610221366004613540565b61063a565b610239610234366004613583565b610652565b005b600c546001600160a01b03165b6040516101d291906135ca565b6002546101c8565b61024861026b3660046135de565b6001600160a01b039081166000908152600e60205260409020541690565b6101ee6102973660046135fb565b6109f9565b6102af6102aa36600461363c565b610a1f565b6040516101d29190613691565b604051601281526020016101d2565b6101c8610bf2565b6101c86102e1366004613540565b610c01565b6101c86102f43660046135de565b6001600160a01b031660009081526020819052604090205490565b610239610c6f565b610206610c83565b610239610c92565b6101c86103353660046135de565b611123565b610342611141565b6040516101d297969594939291906136a4565b6103686103633660046135de565b611187565b6040516101d2919061373f565b6008546001600160a01b0316610248565b610206611263565b61023961039c36600461374d565b611272565b6101ee6103af366004613540565b611405565b6103bc611413565b6040516101d29190613782565b61024861149f565b6102396103df3660046137c4565b6114ae565b6101c86103f2366004613835565b6115d9565b6101c861040536600461386a565b611844565b6101c86104183660046135de565b61186f565b61023961042b3660046135de565b6118f9565b6102af61043e366004613a4b565b611937565b600080861161046d5760405162461bcd60e51b815260040161046490613b3f565b60405180910390fd5b6001600160a01b0387166104935760405162461bcd60e51b815260040161046490613b6e565b428510156104b35760405162461bcd60e51b815260040161046490613ba5565b60006104be88611187565b6020015190506001600160a01b0381166104ec578760405162746ce760e21b815260040161046491906135ca565b60405163d505accf60e01b815233906001600160a01b0383169063d505accf9061052690849030908d908d908d908d908d90600401613bd6565b600060405180830381600087803b15801561054057600080fd5b505af1158015610554573d6000803e3d6000fd5b50505050610564818a848b611c94565b9998505050505050505050565b60006001600160e01b031982166301a4a4b960e51b14806105a257506301ffc9a760e01b6001600160e01b03198316145b92915050565b6060600380546105b790613c17565b80601f01602080910402602001604051908101604052809291908181526020018280546105e390613c17565b80156106305780601f1061060557610100808354040283529160200191610630565b820191906000526020600020905b81548152906001019060200180831161061357829003601f168201915b5050505050905090565b600033610648818585611e20565b5060019392505050565b6001600160a01b0383166106785760405162461bcd60e51b815260040161046490613b6e565b6001600160a01b0382166106d85760405162461bcd60e51b815260206004820152602160248201527f536c6963653a20496e76616c69642070726963652066656564206164647265736044820152607360f81b6064820152608401610464565b61ffff8116158015906106f157506127108161ffff1614155b6107495760405162461bcd60e51b8152602060048201526024808201527f536c6963653a20496e76616c696420616c6c6f636174696f6e2070657263656e6044820152637461676560e01b6064820152608401610464565b6127108161ffff16600b5461075e9190613c61565b11156107b85760405162461bcd60e51b8152602060048201526024808201527f536c6963653a20546f74616c20616c6c6f636174696f6e2065786365656473206044820152633130302560e01b6064820152608401610464565b60006107c384611187565b516001600160a01b0316146107ed57826040516363ec8ef160e11b815260040161046491906135ca565b6107fe83630a957a0160e21b611e32565b61081d5782604051633624dfe160e21b815260040161046491906135ca565b600a546009190161084157604051635050982560e11b815260040160405180910390fd5b6000836001600160a01b03166338d52e0f6040518163ffffffff1660e01b8152600401602060405180830381865afa158015610881573d6000803e3d6000fd5b505050506040513d601f19601f820116820180604052508101906108a59190613c74565b604080516060810182526001600160a01b0387811682528381166020830190815261ffff878116948401858152600a8054600181018255600091825295517fc65a7bb8d6351c1cf70c95a316cc6a92839c986682d98bc35f958f4883f9d2a8600290970296870180546001600160a01b03191691871691909117905592517fc65a7bb8d6351c1cf70c95a316cc6a92839c986682d98bc35f958f4883f9d2a990950180549151959094166001600160b01b031990911617600160a01b9490911693909302929092179055600b80549394509192610983908490613c61565b90915550506001600160a01b038181166000818152600e602090815260409182902080546001600160a01b031916888616908117909155915161ffff8716815291938816917fe1e620d79ee4604d298670ecab767901fa18358e431dc956a66abfa6899d5264910160405180910390a450505050565b600033610a07858285611e4e565b610a12858585611ea1565b60019150505b9392505050565b606060008211610a415760405162461bcd60e51b815260040161046490613b3f565b33610a4c8184611f00565b600a546001600160401b03811115610a6657610a666138a3565b604051908082528060200260200182016040528015610a8f578160200160208202803683370190505b5091506000806000610aa060025490565b610aab601288613c91565b610ab59190613ca8565b905060005b600a54811015610be857600a8181548110610ad757610ad7613cca565b600091825260208083206002909202909101546001600160a01b0316808352600f9091526040909120549094509250610b0e601290565b60ff16610b1b8385613c91565b610b259190613ca8565b868281518110610b3757610b37613cca565b602002602001018181525050610b7a85878381518110610b5957610b59613cca565b6020026020010151866001600160a01b0316611f3a9092919063ffffffff16565b846001600160a01b0316846001600160a01b03167f9b1bfa7fa9ee420a16e124f794c35ac9f90472acc99140eb2f6447c714cad8eb888481518110610bc157610bc1613cca565b6020026020010151604051610bd891815260200190565b60405180910390a3600101610aba565b5050505050919050565b6000610bfc611f92565b905090565b6000808211610c225760405162461bcd60e51b815260040161046490613b3f565b6000610c2d84611187565b6020015190506001600160a01b038116610c5b578360405162746ce760e21b815260040161046491906135ca565b610c6733858386611c94565b949350505050565b610c776120bd565b610c8160006120ea565b565b6060600980546105b790613c17565b6000610c9c61213c565b905060008060008060008060008060008060008060005b8d51811015611113578d8181518110610cce57610cce613cca565b6020026020010151600001519c508d8181518110610cee57610cee613cca565b6020026020010151602001519b508d8181518110610d0e57610d0e613cca565b6020026020010151606001519a508d8181518110610d2e57610d2e613cca565b60200260200101516080015199508d8181518110610d4e57610d4e613cca565b602002602001015160a0015198508a8a101561110b578c6001600160a01b0316633ba0b9a96040518163ffffffff1660e01b8152600401602060405180830381865afa158015610da2573d6000803e3d6000fd5b505050506040513d601f19601f82011682018060405250810190610dc69190613ce0565b9650610dd28a8c613cf9565b9750610de788670de0b6b3a76400008961277b565b95508815610e3157898811610e0957610e018d89896115d9565b945084610e18565b610e148d8b896115d9565b9450845b508415610e3157610e318c610e2b61149f565b87612799565b88158015610eb05750610e4261149f565b6001600160a01b03166370a08231306040518263ffffffff1660e01b8152600401610e6d91906135ca565b602060405180830381865afa158015610e8a573d6000803e3d6000fd5b505050506040513d601f19601f82011682018060405250810190610eae9190613ce0565b155b61110b57610ec686610ec061149f565b8e612953565b9350610ed061149f565b6001600160a01b03166370a08231306040518263ffffffff1660e01b8152600401610efb91906135ca565b602060405180830381865afa158015610f18573d6000803e3d6000fd5b505050506040513d601f19601f82011682018060405250810190610f3c9190613ce0565b925083831015610f68578215610f6357600d54610f63906001600160a01b03168d85612799565b610f85565b8315610f8557600d54610f85906001600160a01b03168d86612799565b6040516370a0823160e01b81526001600160a01b038d16906370a0823190610fb19030906004016135ca565b602060405180830381865afa158015610fce573d6000803e3d6000fd5b505050506040513d601f19601f82011682018060405250810190610ff29190613ce0565b9150811561110b578b6001600160a01b031663095ea7b38e846040518363ffffffff1660e01b8152600401611028929190613d0c565b6020604051808303816000875af1158015611047573d6000803e3d6000fd5b505050506040513d601f19601f8201168201806040525081019061106b9190613d25565b50604051636e553f6560e01b81526001600160a01b038e1690636e553f659061109a9085903090600401613d47565b6020604051808303816000875af11580156110b9573d6000803e3d6000fd5b505050506040513d601f19601f820116820180604052508101906110dd9190613ce0565b6001600160a01b038e166000908152600f602052604081208054909190611105908490613c61565b90915550505b600101610cb3565b5050505050505050505050505050565b6001600160a01b0381166000908152600760205260408120546105a2565b600060608060008060006060611155612a71565b61115d612a9e565b60408051600080825260208201909252600f60f81b9b939a50919850469750309650945092509050565b60408051606081018252600080825260208201819052918101829052905b600a5481101561125d57826001600160a01b0316600a82815481106111cc576111cc613cca565b60009182526020909120600290910201546001600160a01b03160361125557600a81815481106111fe576111fe613cca565b60009182526020918290206040805160608101825260029390930290910180546001600160a01b03908116845260019091015490811693830193909352600160a01b90920461ffff16918101919091529392505050565b6001016111a5565b50919050565b6060600480546105b790613c17565b6001600160a01b0382166112985760405162461bcd60e51b815260040161046490613b6e565b61ffff8116158015906112b157506127108161ffff1614155b6112f95760405162461bcd60e51b8152602060048201526019602482015278536c6963653a20496e76616c69642070657263656e7461676560381b6044820152606401610464565b600061130483611187565b516001600160a01b03160361132d578160405162746ce760e21b815260040161046491906135ca565b60005b600a548110156113be57826001600160a01b0316600a828154811061135757611357613cca565b60009182526020909120600290910201546001600160a01b0316036113b65781600a828154811061138a5761138a613cca565b906000526020600020906002020160010160146101000a81548161ffff021916908361ffff1602179055505b600101611330565b5060405161ffff821681526001600160a01b038316907f961820b4651ecef2378d97b066e501ada836f59c275237b770421b1f46e33dd59060200160405180910390a25050565b600033610648818585611ea1565b6060600a805480602002602001604051908101604052809291908181526020016000905b82821015611496576000848152602090819020604080516060810182526002860290920180546001600160a01b03908116845260019182015490811684860152600160a01b900461ffff16918301919091529083529092019101611437565b50505050905090565b600d546001600160a01b031690565b834211156114d25760405163313c898160e11b815260048101859052602401610464565b60007f6e71edae12b1b97f4d1f60370fef10105fa2faae0126114a169c64845d6126c988888861151f8c6001600160a01b0316600090815260076020526040902080546001810190915590565b6040805160208101969096526001600160a01b0394851690860152929091166060840152608083015260a082015260c0810186905260e001604051602081830303815290604052805190602001209050600061157a82612acb565b9050600061158a82878787612af8565b9050896001600160a01b0316816001600160a01b0316146115c257808a6040516325c0072360e11b8152600401610464929190613d5e565b6115cd8a8a8a611e20565b50505050505050505050565b600080846001600160a01b031663fbfa77cf6040518163ffffffff1660e01b8152600401602060405180830381865afa15801561161a573d6000803e3d6000fd5b505050506040513d601f19601f8201168201806040525081019061163e9190613c74565b90506000816001600160a01b031663ce96cb77876040518263ffffffff1660e01b815260040161166e91906135ca565b602060405180830381865afa15801561168b573d6000803e3d6000fd5b505050506040513d601f19601f820116820180604052508101906116af9190613ce0565b905060006116c686670de0b6b3a76400008761277b565b9050816000036116dc5760009350505050610a18565b6116ed83631ee878f360e11b611e32565b1561181b57604051633ea0e43760e11b8152600481018290526001600160a01b03888116602483018190526044830152841690637d41c86e90606401600060405180830381600087803b15801561174357600080fd5b505af1158015611757573d6000803e3d6000fd5b50505050808210156117ef576001600160a01b03871662f714ce6117848488670de0b6b3a764000061277b565b306040518363ffffffff1660e01b81526004016117a2929190613d47565b6020604051808303816000875af11580156117c1573d6000803e3d6000fd5b505050506040513d601f19601f820116820180604052508101906117e59190613ce0565b9350505050610a18565b604051627b8a6760e11b81526001600160a01b0388169062f714ce906117a29089903090600401613d47565b808210156117ef576001600160a01b03871662f714ce6117848488670de0b6b3a764000061277b565b6001600160a01b03918216600090815260016020908152604080832093909416825291909152205490565b6001600160a01b038082166000908152600e6020526040808220548151633fabe5a360e21b815291519293849391169163feaf968c9160048083019260a09291908290030181865afa1580156118c9573d6000803e3d6000fd5b505050506040513d601f19601f820116820180604052508101906118ed9190613d92565b50919695505050505050565b6119016120bd565b6001600160a01b03811661192b576000604051631e4fbdf760e01b815260040161046491906135ca565b611934816120ea565b50565b60608551875114801561194b575084518751145b8015611958575083518751145b8015611965575082518751145b8015611972575081518751145b6119be5760405162461bcd60e51b815260206004820152601e60248201527f536c6963653a20646966666572656e74206172726179206c656e6774687300006044820152606401610464565b865133906000906001600160401b038111156119dc576119dc6138a3565b604051908082528060200260200182016040528015611a05578160200160208202803683370190505b50905060005b8951811015611c87576000898281518110611a2857611a28613cca565b602002602001015111611a4d5760405162461bcd60e51b815260040161046490613b3f565b60006001600160a01b03168a8281518110611a6a57611a6a613cca565b60200260200101516001600160a01b031603611a985760405162461bcd60e51b815260040161046490613b6e565b42888281518110611aab57611aab613cca565b60200260200101511015611ad15760405162461bcd60e51b815260040161046490613ba5565b6000611af58b8381518110611ae857611ae8613cca565b6020026020010151611187565b6020015190506001600160a01b038116611b3c578a8281518110611b1b57611b1b613cca565b602002602001015160405162746ce760e21b815260040161046491906135ca565b806001600160a01b031663d505accf85308d8681518110611b5f57611b5f613cca565b60200260200101518d8781518110611b7957611b79613cca565b60200260200101518d8881518110611b9357611b93613cca565b60200260200101518d8981518110611bad57611bad613cca565b60200260200101518d8a81518110611bc757611bc7613cca565b60200260200101516040518863ffffffff1660e01b8152600401611bf19796959493929190613bd6565b600060405180830381600087803b158015611c0b57600080fd5b505af1158015611c1f573d6000803e3d6000fd5b50505050611c61848c8481518110611c3957611c39613cca565b6020026020010151838d8681518110611c5457611c54613cca565b6020026020010151611c94565b838381518110611c7357611c73613cca565b602090810291909101015250600101611a0b565b5098975050505050505050565b6000611cab6001600160a01b038416863085612b26565b60405163095ea7b360e01b81526001600160a01b0384169063095ea7b390611cd99087908690600401613d0c565b6020604051808303816000875af1158015611cf8573d6000803e3d6000fd5b505050506040513d601f19601f82011682018060405250810190611d1c9190613d25565b50604051636e553f6560e01b81526001600160a01b03851690636e553f6590611d4b9085903090600401613d47565b6020604051808303816000875af1158015611d6a573d6000803e3d6000fd5b505050506040513d601f19601f82011682018060405250810190611d8e9190613ce0565b6001600160a01b0385166000908152600f6020526040812080549293508392909190611dbb908490613c61565b90915550611dcb90508582612b5f565b846001600160a01b0316846001600160a01b03167f5548c837ab068cf56a2c2479df0882a4922fd203edb7517321831d95078c5f6284604051611e1091815260200190565b60405180910390a3949350505050565b611e2d8383836001612b95565b505050565b6000611e3d83612c6a565b8015610a185750610a188383612c9d565b6000611e5a8484611844565b90506000198114611e9b5781811015611e8c57828183604051637dc7a0d960e11b815260040161046493929190613de2565b611e9b84848484036000612b95565b50505050565b6001600160a01b038316611ecb576000604051634b637e8f60e11b815260040161046491906135ca565b6001600160a01b038216611ef557600060405163ec442f0560e01b815260040161046491906135ca565b611e2d838383612d27565b6001600160a01b038216611f2a576000604051634b637e8f60e11b815260040161046491906135ca565b611f3682600083612d27565b5050565b611e2d83846001600160a01b031663a9059cbb8585604051602401611f60929190613d0c565b604051602081830303815290604052915060e01b6020820180516001600160e01b038381831617835250505050612e3e565b6000306001600160a01b037f000000000000000000000000000000000000000000000000000000000000000016148015611feb57507f000000000000000000000000000000000000000000000000000000000000000046145b1561201557507f000000000000000000000000000000000000000000000000000000000000000090565b610bfc604080517f8b73c3c69bb8fe3d512ecc4cf759cc79239f7b179b0ffacaa9a75d522b39400f60208201527f0000000000000000000000000000000000000000000000000000000000000000918101919091527f000000000000000000000000000000000000000000000000000000000000000060608201524660808201523060a082015260009060c00160405160208183030381529060405280519060200120905090565b6008546001600160a01b03163314610c81573360405163118cdaa760e01b815260040161046491906135ca565b600880546001600160a01b038381166001600160a01b0319831681179093556040519116919082907f8be0079c531659141344cd1fd0a4f28419497f9722a3daafe3b4186f6b6457e090600090a35050565b60606000612148612e98565b9050600080600080600080600080600a805490506001600160401b03811115612173576121736138a3565b6040519080825280602002602001820160405280156121ef57816020015b6121dc6040518060c0016040528060006001600160a01b0316815260200160006001600160a01b03168152602001600081526020016000815260200160008152602001600081525090565b8152602001906001900390816121915790505b50995060005b600a5481101561276e57600a818154811061221257612212613cca565b6000918252602090912060029091020154600a80546001600160a01b039092169a50908290811061224557612245613cca565b600091825260208220600160029092020101546001600160a01b031698508061226e8b8b612f31565b935093505050600082116122945760405162461bcd60e51b815260040161046490613e03565b612710600a84815481106122aa576122aa613cca565b60009182526020909120600290910201600101546122d390600160a01b900461ffff168e613c91565b6122dd9190613ca8565b9850818a6001600160a01b031663313ce5676040518163ffffffff1660e01b8152600401602060405180830381865afa15801561231e573d6000803e3d6000fd5b505050506040513d601f19601f820116820180604052508101906123429190613e52565b61234d90600a613f53565b612357908b613c91565b6123619190613ca8565b97506123768882670de0b6b3a764000061277b565b6001600160a01b038c166000908152600f6020526040902054909750935086841115612631576123a68785613cf9565b95506123b38b87836115d9565b9450841561250a576123c78a610e2b61149f565b6123cf61149f565b6001600160a01b03166370a08231306040518263ffffffff1660e01b81526004016123fa91906135ca565b602060405180830381865afa158015612417573d6000803e3d6000fd5b505050506040513d601f19601f8201168201806040525081019061243b9190613ce0565b600f600061244761149f565b6001600160a01b03166001600160a01b031681526020019081526020016000208190555085600f60008d6001600160a01b03166001600160a01b0316815260200190815260200160002060008282546124a09190613cf9565b90915550506040805160c0810182526001600160a01b03808e1682528c16602082015290810189905260608101889052608081016124de8887613cf9565b815260200160008152508d84815181106124fa576124fa613cca565b6020026020010181905250612764565b6040518060c001604052808c6001600160a01b031681526020018b6001600160a01b031681526020018981526020018881526020018581526020018c6001600160a01b031663fbfa77cf6040518163ffffffff1660e01b8152600401602060405180830381865afa158015612583573d6000803e3d6000fd5b505050506040513d601f19601f820116820180604052508101906125a79190613c74565b6001600160a01b03166321e91dea8e6125be61149f565b6040518363ffffffff1660e01b81526004016125db929190613d5e565b602060405180830381865afa1580156125f8573d6000803e3d6000fd5b505050506040513d601f19601f8201168201806040525081019061261c9190613ce0565b8152508d84815181106124fa576124fa613cca565b6040518060c001604052808c6001600160a01b031681526020018b6001600160a01b031681526020018981526020018881526020018581526020018c6001600160a01b031663fbfa77cf6040518163ffffffff1660e01b8152600401602060405180830381865afa1580156126aa573d6000803e3d6000fd5b505050506040513d601f19601f820116820180604052508101906126ce9190613c74565b6001600160a01b03166321e91dea8e6126e561149f565b6040518363ffffffff1660e01b8152600401612702929190613d5e565b602060405180830381865afa15801561271f573d6000803e3d6000fd5b505050506040513d601f19601f820116820180604052508101906127439190613ce0565b8152508d848151811061275857612758613cca565b60200260200101819052505b50506001016121f5565b5050505050505050505090565b600082600019048411830215820261279257600080fd5b5091020490565b806000036127a657505050565b60408051600280825260608201835260009260208301908036833701905050905083816000815181106127db576127db613cca565b60200260200101906001600160a01b031690816001600160a01b031681525050828160018151811061280f5761280f613cca565b60200260200101906001600160a01b031690816001600160a01b0316815250508060008151811061284257612842613cca565b60200260200101516001600160a01b031663095ea7b361286a600c546001600160a01b031690565b846040518363ffffffff1660e01b8152600401612888929190613d0c565b6020604051808303816000875af11580156128a7573d6000803e3d6000fd5b505050506040513d601f19601f820116820180604052508101906128cb9190613d25565b50600c546040516338ed173960e01b81526001600160a01b03909116906338ed173990612905908590600090869030904290600401613f9c565b6000604051808303816000875af1158015612924573d6000803e3d6000fd5b505050506040513d6000823e601f3d908101601f1916820160405261294c9190810190613fd8565b5050505050565b60408051600280825260608201835260009283929190602083019080368337019050509050838160008151811061298c5761298c613cca565b60200260200101906001600160a01b031690816001600160a01b03168152505082816001815181106129c0576129c0613cca565b6001600160a01b039283166020918202929092010152600c546040516307c0329d60e21b81526000929190911690631f00ca7490612a04908990869060040161405d565b600060405180830381865afa158015612a21573d6000803e3d6000fd5b505050506040513d6000823e601f3d908101601f19168201604052612a499190810190613fd8565b905080600081518110612a5e57612a5e613cca565b6020026020010151925050509392505050565b6060610bfc7f0000000000000000000000000000000000000000000000000000000000000000600561307c565b6060610bfc7f0000000000000000000000000000000000000000000000000000000000000000600661307c565b60006105a2612ad8611f92565b8360405161190160f01b8152600281019290925260228201526042902090565b600080600080612b0a88888888613127565b925092509250612b1a82826131ec565b50909695505050505050565b6040516001600160a01b038481166024830152838116604483015260648201839052611e9b9186918216906323b872dd90608401611f60565b6001600160a01b038216612b8957600060405163ec442f0560e01b815260040161046491906135ca565b611f3660008383612d27565b6001600160a01b038416612bbf57600060405163e602df0560e01b815260040161046491906135ca565b6001600160a01b038316612be9576000604051634a1406b160e11b815260040161046491906135ca565b6001600160a01b0380851660009081526001602090815260408083209387168352929052208290558015611e9b57826001600160a01b0316846001600160a01b03167f8c5be1e5ebec7d5bd14f71427d1e84f3dd0314c0f7b2291e5b200ac8c7c3b92584604051612c5c91815260200190565b60405180910390a350505050565b6000612c7d826301ffc9a760e01b612c9d565b80156105a25750612c96826001600160e01b0319612c9d565b1592915050565b6040516001600160e01b031982166024820152600090819060440160408051601f19818403018152919052602080820180516001600160e01b03166301ffc9a760e01b178152825192935060009283928392909183918a617530fa92503d91506000519050828015612d10575060208210155b8015612d1c5750600081115b979650505050505050565b6001600160a01b038316612d52578060026000828254612d479190613c61565b90915550612db19050565b6001600160a01b03831660009081526020819052604090205481811015612d925783818360405163391434e360e21b815260040161046493929190613de2565b6001600160a01b03841660009081526020819052604090209082900390555b6001600160a01b038216612dcd57600280548290039055612dec565b6001600160a01b03821660009081526020819052604090208054820190555b816001600160a01b0316836001600160a01b03167fddf252ad1be2c89b69c2b068fc378daa952ba7f163c4a11628f55a4df523b3ef83604051612e3191815260200190565b60405180910390a3505050565b6000612e536001600160a01b038416836132a5565b90508051600014158015612e78575080806020019051810190612e769190613d25565b155b15611e2d5782604051635274afe760e01b815260040161046491906135ca565b6000805b600a54811015612f2d576000612f11600a8381548110612ebe57612ebe613cca565b6000918252602090912060029091020154600a80546001600160a01b039092169185908110612eef57612eef613cca565b60009182526020909120600160029092020101546001600160a01b0316612f31565b50505090508083612f229190613c61565b925050600101612e9c565b5090565b6001600160a01b0382166000818152600f60209081526040808320548151633ba0b9a960e01b815291519394859485948594633ba0b9a992600480830193928290030181865afa158015612f89573d6000803e3d6000fd5b505050506040513d601f19601f82011682018060405250810190612fad9190613ce0565b9150612fb88661186f565b925060008311612fda5760405162461bcd60e51b815260040161046490613e03565b612fed8183670de0b6b3a764000061277b565b9350866001600160a01b031663313ce5676040518163ffffffff1660e01b8152600401602060405180830381865afa15801561302d573d6000803e3d6000fd5b505050506040513d601f19601f820116820180604052508101906130519190613e52565b61305c90600a613f53565b6130668486613c91565b6130709190613ca8565b94505092959194509250565b606060ff83146130965761308f836132b3565b90506105a2565b8180546130a290613c17565b80601f01602080910402602001604051908101604052809291908181526020018280546130ce90613c17565b801561311b5780601f106130f05761010080835404028352916020019161311b565b820191906000526020600020905b8154815290600101906020018083116130fe57829003601f168201915b505050505090506105a2565b600080806fa2a8918ca85bafe22016d0b997e4df60600160ff1b0384111561315857506000915060039050826131e2565b604080516000808252602082018084528a905260ff891692820192909252606081018790526080810186905260019060a0016020604051602081039080840390855afa1580156131ac573d6000803e3d6000fd5b5050604051601f1901519150506001600160a01b0381166131d8575060009250600191508290506131e2565b9250600091508190505b9450945094915050565b600082600381111561320057613200614076565b03613209575050565b600182600381111561321d5761321d614076565b0361323b5760405163f645eedf60e01b815260040160405180910390fd5b600282600381111561324f5761324f614076565b036132705760405163fce698f760e01b815260048101829052602401610464565b600382600381111561328457613284614076565b03611f36576040516335e2f38360e21b815260048101829052602401610464565b6060610a18838360006132f2565b606060006132c08361338f565b604080516020808252818301909252919250600091906020820181803683375050509182525060208101929092525090565b606081471015613317573060405163cd78605960e01b815260040161046491906135ca565b600080856001600160a01b03168486604051613333919061408c565b60006040518083038185875af1925050503d8060008114613370576040519150601f19603f3d011682016040523d82523d6000602084013e613375565b606091505b50915091506133858683836133b7565b9695505050505050565b600060ff8216601f8111156105a257604051632cd44ac360e21b815260040160405180910390fd5b6060826133cc576133c78261340a565b610a18565b81511580156133e357506001600160a01b0384163b155b156134035783604051639996b31560e01b815260040161046491906135ca565b5080610a18565b80511561341a5780518082602001fd5b604051630a12f52160e11b815260040160405180910390fd5b6001600160a01b038116811461193457600080fd5b60ff8116811461193457600080fd5b60008060008060008060c0878903121561347057600080fd5b863561347b81613433565b95506020870135945060408701359350606087013561349981613448565b9598949750929560808101359460a0909101359350915050565b6000602082840312156134c557600080fd5b81356001600160e01b031981168114610a1857600080fd5b60005b838110156134f85781810151838201526020016134e0565b50506000910152565b600081518084526135198160208601602086016134dd565b601f01601f19169290920160200192915050565b602081526000610a186020830184613501565b6000806040838503121561355357600080fd5b823561355e81613433565b946020939093013593505050565b803561ffff8116811461357e57600080fd5b919050565b60008060006060848603121561359857600080fd5b83356135a381613433565b925060208401356135b381613433565b91506135c16040850161356c565b90509250925092565b6001600160a01b0391909116815260200190565b6000602082840312156135f057600080fd5b8135610a1881613433565b60008060006060848603121561361057600080fd5b833561361b81613433565b9250602084013561362b81613433565b929592945050506040919091013590565b60006020828403121561364e57600080fd5b5035919050565b60008151808452602080850194506020840160005b838110156136865781518752958201959082019060010161366a565b509495945050505050565b602081526000610a186020830184613655565b60ff60f81b8816815260e0602082015260006136c360e0830189613501565b82810360408401526136d58189613501565b606084018890526001600160a01b038716608085015260a0840186905283810360c085015290506137068185613655565b9a9950505050505050505050565b80516001600160a01b0390811683526020808301519091169083015260409081015161ffff16910152565b606081016105a28284613714565b6000806040838503121561376057600080fd5b823561376b81613433565b91506137796020840161356c565b90509250929050565b6020808252825182820181905260009190848201906040850190845b81811015612b1a576137b1838551613714565b928401926060929092019160010161379e565b600080600080600080600060e0888a0312156137df57600080fd5b87356137ea81613433565b965060208801356137fa81613433565b95506040880135945060608801359350608088013561381881613448565b9699959850939692959460a0840135945060c09093013592915050565b60008060006060848603121561384a57600080fd5b833561385581613433565b95602085013595506040909401359392505050565b6000806040838503121561387d57600080fd5b823561388881613433565b9150602083013561389881613433565b809150509250929050565b634e487b7160e01b600052604160045260246000fd5b604051601f8201601f191681016001600160401b03811182821017156138e1576138e16138a3565b604052919050565b60006001600160401b03821115613902576139026138a3565b5060051b60200190565b600082601f83011261391d57600080fd5b8135602061393261392d836138e9565b6138b9565b8083825260208201915060208460051b87010193508684111561395457600080fd5b602086015b8481101561397957803561396c81613433565b8352918301918301613959565b509695505050505050565b600082601f83011261399557600080fd5b813560206139a561392d836138e9565b8083825260208201915060208460051b8701019350868411156139c757600080fd5b602086015b8481101561397957803583529183019183016139cc565b600082601f8301126139f457600080fd5b81356020613a0461392d836138e9565b8083825260208201915060208460051b870101935086841115613a2657600080fd5b602086015b84811015613979578035613a3e81613448565b8352918301918301613a2b565b60008060008060008060c08789031215613a6457600080fd5b86356001600160401b0380821115613a7b57600080fd5b613a878a838b0161390c565b97506020890135915080821115613a9d57600080fd5b613aa98a838b01613984565b96506040890135915080821115613abf57600080fd5b613acb8a838b01613984565b95506060890135915080821115613ae157600080fd5b613aed8a838b016139e3565b94506080890135915080821115613b0357600080fd5b613b0f8a838b01613984565b935060a0890135915080821115613b2557600080fd5b50613b3289828a01613984565b9150509295509295509295565b60208082526015908201527414db1a58d94e88125b9d985b1a5908185b5bdd5b9d605a1b604082015260600190565b6020808252601d908201527f536c6963653a20496e76616c69642061546f6b656e2061646472657373000000604082015260600190565b602080825260179082015276536c6963653a20496e76616c696420646561646c696e6560481b604082015260600190565b6001600160a01b0397881681529590961660208601526040850193909352606084019190915260ff16608083015260a082015260c081019190915260e00190565b600181811c90821680613c2b57607f821691505b60208210810361125d57634e487b7160e01b600052602260045260246000fd5b634e487b7160e01b600052601160045260246000fd5b808201808211156105a2576105a2613c4b565b600060208284031215613c8657600080fd5b8151610a1881613433565b80820281158282048414176105a2576105a2613c4b565b600082613cc557634e487b7160e01b600052601260045260246000fd5b500490565b634e487b7160e01b600052603260045260246000fd5b600060208284031215613cf257600080fd5b5051919050565b818103818111156105a2576105a2613c4b565b6001600160a01b03929092168252602082015260400190565b600060208284031215613d3757600080fd5b81518015158114610a1857600080fd5b9182526001600160a01b0316602082015260400190565b6001600160a01b0392831681529116602082015260400190565b805169ffffffffffffffffffff8116811461357e57600080fd5b600080600080600060a08688031215613daa57600080fd5b613db386613d78565b9450602086015193506040860151925060608601519150613dd660808701613d78565b90509295509295909350565b6001600160a01b039390931683526020830191909152604082015260600190565b6020808252602f908201527f536c6963653a20496e76616c69642070726963652066656564202d207a65726f60408201526e206f72207374616c6520707269636560881b606082015260800190565b600060208284031215613e6457600080fd5b8151610a1881613448565b600181815b80851115613eaa578160001904821115613e9057613e90613c4b565b80851615613e9d57918102915b93841c9390800290613e74565b509250929050565b600082613ec1575060016105a2565b81613ece575060006105a2565b8160018114613ee45760028114613eee57613f0a565b60019150506105a2565b60ff841115613eff57613eff613c4b565b50506001821b6105a2565b5060208310610133831016604e8410600b8410161715613f2d575081810a6105a2565b613f378383613e6f565b8060001904821115613f4b57613f4b613c4b565b029392505050565b6000610a1860ff841683613eb2565b60008151808452602080850194506020840160005b838110156136865781516001600160a01b031687529582019590820190600101613f77565b85815284602082015260a060408201526000613fbb60a0830186613f62565b6001600160a01b0394909416606083015250608001529392505050565b60006020808385031215613feb57600080fd5b82516001600160401b0381111561400157600080fd5b8301601f8101851361401257600080fd5b805161402061392d826138e9565b81815260059190911b8201830190838101908783111561403f57600080fd5b928401925b82841015612d1c57835182529284019290840190614044565b828152604060208201526000610c676040830184613f62565b634e487b7160e01b600052602160045260246000fd5b6000825161409e8184602087016134dd565b919091019291505056fea26469706673582212207211cec24cebf2a0b08b32325d79b1d07a9c7e7fe1b3361f1c67a366a50484ad64736f6c63430008180033a2646970667358221220f3a22470699d36af66986cc6edbe9e8a669ff1ddb4e267f4245ec39a5d96272864736f6c63430008180033",
  "linkReferences": {},
  "deployedLinkReferences": {}
}