{
  "_format": "hh-sol-artifact-1",
  "contractName": "TokenVotes",
  "sourceName": "contracts/erc3643/token/TokenVotes.sol",
  "abi": [
    {
      "inputs": [],
      "stateMutability": "nonpayable",
      "type": "constructor"
    },
    {
      "inputs": [],
      "name": "CheckpointUnorderedInsertion",
      "type": "error"
    },
    {
      "inputs": [],
      "name": "ECDSAInvalidSignature",
      "type": "error"
    },
    {
      "inputs": [
        {
          "internalType": "uint256",
          "name": "length",
          "type": "uint256"
        }
      ],
      "name": "ECDSAInvalidSignatureLength",
      "type": "error"
    },
    {
      "inputs": [
        {
          "internalType": "bytes32",
          "name": "s",
          "type": "bytes32"
        }
      ],
      "name": "ECDSAInvalidSignatureS",
      "type": "error"
    },
    {
      "inputs": [
        {
          "internalType": "uint256",
          "name": "increasedSupply",
          "type": "uint256"
        },
        {
          "internalType": "uint256",
          "name": "cap",
          "type": "uint256"
        }
      ],
      "name": "ERC20ExceededSafeSupply",
      "type": "error"
    },
    {
      "inputs": [
        {
          "internalType": "address",
          "name": "spender",
          "type": "address"
        },
        {
          "internalType": "uint256",
          "name": "allowance",
          "type": "uint256"
        },
        {
          "internalType": "uint256",
          "name": "needed",
          "type": "uint256"
        }
      ],
      "name": "ERC20InsufficientAllowance",
      "type": "error"
    },
    {
      "inputs": [
        {
          "internalType": "address",
          "name": "sender",
          "type": "address"
        },
        {
          "internalType": "uint256",
          "name": "balance",
          "type": "uint256"
        },
        {
          "internalType": "uint256",
          "name": "needed",
          "type": "uint256"
        }
      ],
      "name": "ERC20InsufficientBalance",
      "type": "error"
    },
    {
      "inputs": [
        {
          "internalType": "address",
          "name": "approver",
          "type": "address"
        }
      ],
      "name": "ERC20InvalidApprover",
      "type": "error"
    },
    {
      "inputs": [
        {
          "internalType": "address",
          "name": "receiver",
          "type": "address"
        }
      ],
      "name": "ERC20InvalidReceiver",
      "type": "error"
    },
    {
      "inputs": [
        {
          "internalType": "address",
          "name": "sender",
          "type": "address"
        }
      ],
      "name": "ERC20InvalidSender",
      "type": "error"
    },
    {
      "inputs": [
        {
          "internalType": "address",
          "name": "spender",
          "type": "address"
        }
      ],
      "name": "ERC20InvalidSpender",
      "type": "error"
    },
    {
      "inputs": [
        {
          "internalType": "uint256",
          "name": "deadline",
          "type": "uint256"
        }
      ],
      "name": "ERC2612ExpiredSignature",
      "type": "error"
    },
    {
      "inputs": [
        {
          "internalType": "address",
          "name": "signer",
          "type": "address"
        },
        {
          "internalType": "address",
          "name": "owner",
          "type": "address"
        }
      ],
      "name": "ERC2612InvalidSigner",
      "type": "error"
    },
    {
      "inputs": [
        {
          "internalType": "uint256",
          "name": "timepoint",
          "type": "uint256"
        },
        {
          "internalType": "uint48",
          "name": "clock",
          "type": "uint48"
        }
      ],
      "name": "ERC5805FutureLookup",
      "type": "error"
    },
    {
      "inputs": [],
      "name": "ERC6372InconsistentClock",
      "type": "error"
    },
    {
      "inputs": [],
      "name": "EnforcedPause",
      "type": "error"
    },
    {
      "inputs": [],
      "name": "ExpectedPause",
      "type": "error"
    },
    {
      "inputs": [
        {
          "internalType": "address",
          "name": "account",
          "type": "address"
        },
        {
          "internalType": "uint256",
          "name": "currentNonce",
          "type": "uint256"
        }
      ],
      "name": "InvalidAccountNonce",
      "type": "error"
    },
    {
      "inputs": [],
      "name": "InvalidInitialization",
      "type": "error"
    },
    {
      "inputs": [],
      "name": "NotInitializing",
      "type": "error"
    },
    {
      "inputs": [
        {
          "internalType": "address",
          "name": "owner",
          "type": "address"
        }
      ],
      "name": "OwnableInvalidOwner",
      "type": "error"
    },
    {
      "inputs": [
        {
          "internalType": "address",
          "name": "account",
          "type": "address"
        }
      ],
      "name": "OwnableUnauthorizedAccount",
      "type": "error"
    },
    {
      "inputs": [
        {
          "internalType": "uint8",
          "name": "bits",
          "type": "uint8"
        },
        {
          "internalType": "uint256",
          "name": "value",
          "type": "uint256"
        }
      ],
      "name": "SafeCastOverflowedUintDowncast",
      "type": "error"
    },
    {
      "inputs": [
        {
          "internalType": "uint256",
          "name": "expiry",
          "type": "uint256"
        }
      ],
      "name": "VotesExpiredSignature",
      "type": "error"
    },
    {
      "anonymous": false,
      "inputs": [
        {
          "indexed": true,
          "internalType": "address",
          "name": "_userAddress",
          "type": "address"
        },
        {
          "indexed": true,
          "internalType": "bool",
          "name": "_isFrozen",
          "type": "bool"
        },
        {
          "indexed": true,
          "internalType": "address",
          "name": "_owner",
          "type": "address"
        }
      ],
      "name": "AddressFrozen",
      "type": "event"
    },
    {
      "anonymous": false,
      "inputs": [
        {
          "indexed": true,
          "internalType": "address",
          "name": "_agent",
          "type": "address"
        }
      ],
      "name": "AgentAdded",
      "type": "event"
    },
    {
      "anonymous": false,
      "inputs": [
        {
          "indexed": true,
          "internalType": "address",
          "name": "_agent",
          "type": "address"
        }
      ],
      "name": "AgentRemoved",
      "type": "event"
    },
    {
      "anonymous": false,
      "inputs": [
        {
          "indexed": true,
          "internalType": "address",
          "name": "owner",
          "type": "address"
        },
        {
          "indexed": true,
          "internalType": "address",
          "name": "spender",
          "type": "address"
        },
        {
          "indexed": false,
          "internalType": "uint256",
          "name": "value",
          "type": "uint256"
        }
      ],
      "name": "Approval",
      "type": "event"
    },
    {
      "anonymous": false,
      "inputs": [
        {
          "indexed": true,
          "internalType": "address",
          "name": "_compliance",
          "type": "address"
        }
      ],
      "name": "ComplianceAdded",
      "type": "event"
    },
    {
      "anonymous": false,
      "inputs": [
        {
          "indexed": true,
          "internalType": "address",
          "name": "delegator",
          "type": "address"
        },
        {
          "indexed": true,
          "internalType": "address",
          "name": "fromDelegate",
          "type": "address"
        },
        {
          "indexed": true,
          "internalType": "address",
          "name": "toDelegate",
          "type": "address"
        }
      ],
      "name": "DelegateChanged",
      "type": "event"
    },
    {
      "anonymous": false,
      "inputs": [
        {
          "indexed": true,
          "internalType": "address",
          "name": "delegate",
          "type": "address"
        },
        {
          "indexed": false,
          "internalType": "uint256",
          "name": "previousVotes",
          "type": "uint256"
        },
        {
          "indexed": false,
          "internalType": "uint256",
          "name": "newVotes",
          "type": "uint256"
        }
      ],
      "name": "DelegateVotesChanged",
      "type": "event"
    },
    {
      "anonymous": false,
      "inputs": [],
      "name": "EIP712DomainChanged",
      "type": "event"
    },
    {
      "anonymous": false,
      "inputs": [
        {
          "indexed": true,
          "internalType": "address",
          "name": "_identityRegistry",
          "type": "address"
        }
      ],
      "name": "IdentityRegistryAdded",
      "type": "event"
    },
    {
      "anonymous": false,
      "inputs": [
        {
          "indexed": false,
          "internalType": "uint64",
          "name": "version",
          "type": "uint64"
        }
      ],
      "name": "Initialized",
      "type": "event"
    },
    {
      "anonymous": false,
      "inputs": [
        {
          "indexed": true,
          "internalType": "address",
          "name": "previousOwner",
          "type": "address"
        },
        {
          "indexed": true,
          "internalType": "address",
          "name": "newOwner",
          "type": "address"
        }
      ],
      "name": "OwnershipTransferred",
      "type": "event"
    },
    {
      "anonymous": false,
      "inputs": [
        {
          "indexed": false,
          "internalType": "address",
          "name": "account",
          "type": "address"
        }
      ],
      "name": "Paused",
      "type": "event"
    },
    {
      "anonymous": false,
      "inputs": [
        {
          "indexed": true,
          "internalType": "address",
          "name": "_lostWallet",
          "type": "address"
        },
        {
          "indexed": true,
          "internalType": "address",
          "name": "_newWallet",
          "type": "address"
        },
        {
          "indexed": true,
          "internalType": "address",
          "name": "_investorOnchainID",
          "type": "address"
        }
      ],
      "name": "RecoverySuccess",
      "type": "event"
    },
    {
      "anonymous": false,
      "inputs": [
        {
          "indexed": true,
          "internalType": "address",
          "name": "_userAddress",
          "type": "address"
        },
        {
          "indexed": false,
          "internalType": "uint256",
          "name": "_amount",
          "type": "uint256"
        }
      ],
      "name": "TokensFrozen",
      "type": "event"
    },
    {
      "anonymous": false,
      "inputs": [
        {
          "indexed": true,
          "internalType": "address",
          "name": "_userAddress",
          "type": "address"
        },
        {
          "indexed": false,
          "internalType": "uint256",
          "name": "_amount",
          "type": "uint256"
        }
      ],
      "name": "TokensUnfrozen",
      "type": "event"
    },
    {
      "anonymous": false,
      "inputs": [
        {
          "indexed": true,
          "internalType": "address",
          "name": "from",
          "type": "address"
        },
        {
          "indexed": true,
          "internalType": "address",
          "name": "to",
          "type": "address"
        },
        {
          "indexed": false,
          "internalType": "uint256",
          "name": "value",
          "type": "uint256"
        }
      ],
      "name": "Transfer",
      "type": "event"
    },
    {
      "anonymous": false,
      "inputs": [
        {
          "indexed": false,
          "internalType": "address",
          "name": "account",
          "type": "address"
        }
      ],
      "name": "Unpaused",
      "type": "event"
    },
    {
      "anonymous": false,
      "inputs": [
        {
          "indexed": true,
          "internalType": "string",
          "name": "_newName",
          "type": "string"
        },
        {
          "indexed": true,
          "internalType": "string",
          "name": "_newSymbol",
          "type": "string"
        },
        {
          "indexed": false,
          "internalType": "uint8",
          "name": "_newDecimals",
          "type": "uint8"
        },
        {
          "indexed": false,
          "internalType": "string",
          "name": "_newVersion",
          "type": "string"
        },
        {
          "indexed": true,
          "internalType": "address",
          "name": "_newOnchainID",
          "type": "address"
        }
      ],
      "name": "UpdatedTokenInformation",
      "type": "event"
    },
    {
      "inputs": [],
      "name": "CLOCK_MODE",
      "outputs": [
        {
          "internalType": "string",
          "name": "",
          "type": "string"
        }
      ],
      "stateMutability": "pure",
      "type": "function"
    },
    {
      "inputs": [],
      "name": "DOMAIN_SEPARATOR",
      "outputs": [
        {
          "internalType": "bytes32",
          "name": "",
          "type": "bytes32"
        }
      ],
      "stateMutability": "view",
      "type": "function"
    },
    {
      "inputs": [
        {
          "internalType": "address",
          "name": "_agent",
          "type": "address"
        }
      ],
      "name": "addAgent",
      "outputs": [],
      "stateMutability": "nonpayable",
      "type": "function"
    },
    {
      "inputs": [
        {
          "internalType": "address",
          "name": "owner",
          "type": "address"
        },
        {
          "internalType": "address",
          "name": "spender",
          "type": "address"
        }
      ],
      "name": "allowance",
      "outputs": [
        {
          "internalType": "uint256",
          "name": "",
          "type": "uint256"
        }
      ],
      "stateMutability": "view",
      "type": "function"
    },
    {
      "inputs": [
        {
          "internalType": "address",
          "name": "spender",
          "type": "address"
        },
        {
          "internalType": "uint256",
          "name": "value",
          "type": "uint256"
        }
      ],
      "name": "approve",
      "outputs": [
        {
          "internalType": "bool",
          "name": "",
          "type": "bool"
        }
      ],
      "stateMutability": "nonpayable",
      "type": "function"
    },
    {
      "inputs": [
        {
          "internalType": "address",
          "name": "account",
          "type": "address"
        }
      ],
      "name": "balanceOf",
      "outputs": [
        {
          "internalType": "uint256",
          "name": "",
          "type": "uint256"
        }
      ],
      "stateMutability": "view",
      "type": "function"
    },
    {
      "inputs": [
        {
          "internalType": "address[]",
          "name": "_userAddresses",
          "type": "address[]"
        },
        {
          "internalType": "uint256[]",
          "name": "_amounts",
          "type": "uint256[]"
        }
      ],
      "name": "batchBurn",
      "outputs": [],
      "stateMutability": "nonpayable",
      "type": "function"
    },
    {
      "inputs": [
        {
          "internalType": "address[]",
          "name": "_fromList",
          "type": "address[]"
        },
        {
          "internalType": "address[]",
          "name": "_toList",
          "type": "address[]"
        },
        {
          "internalType": "uint256[]",
          "name": "_amounts",
          "type": "uint256[]"
        }
      ],
      "name": "batchForcedTransfer",
      "outputs": [],
      "stateMutability": "nonpayable",
      "type": "function"
    },
    {
      "inputs": [
        {
          "internalType": "address[]",
          "name": "_userAddresses",
          "type": "address[]"
        },
        {
          "internalType": "uint256[]",
          "name": "_amounts",
          "type": "uint256[]"
        }
      ],
      "name": "batchFreezePartialTokens",
      "outputs": [],
      "stateMutability": "nonpayable",
      "type": "function"
    },
    {
      "inputs": [
        {
          "internalType": "address[]",
          "name": "_toList",
          "type": "address[]"
        },
        {
          "internalType": "uint256[]",
          "name": "_amounts",
          "type": "uint256[]"
        }
      ],
      "name": "batchMint",
      "outputs": [],
      "stateMutability": "nonpayable",
      "type": "function"
    },
    {
      "inputs": [
        {
          "internalType": "address[]",
          "name": "_userAddresses",
          "type": "address[]"
        },
        {
          "internalType": "bool[]",
          "name": "_freeze",
          "type": "bool[]"
        }
      ],
      "name": "batchSetAddressFrozen",
      "outputs": [],
      "stateMutability": "nonpayable",
      "type": "function"
    },
    {
      "inputs": [
        {
          "internalType": "address[]",
          "name": "_toList",
          "type": "address[]"
        },
        {
          "internalType": "uint256[]",
          "name": "_amounts",
          "type": "uint256[]"
        }
      ],
      "name": "batchTransfer",
      "outputs": [],
      "stateMutability": "nonpayable",
      "type": "function"
    },
    {
      "inputs": [
        {
          "internalType": "address[]",
          "name": "_userAddresses",
          "type": "address[]"
        },
        {
          "internalType": "uint256[]",
          "name": "_amounts",
          "type": "uint256[]"
        }
      ],
      "name": "batchUnfreezePartialTokens",
      "outputs": [],
      "stateMutability": "nonpayable",
      "type": "function"
    },
    {
      "inputs": [
        {
          "internalType": "address",
          "name": "_userAddress",
          "type": "address"
        },
        {
          "internalType": "uint256",
          "name": "_amount",
          "type": "uint256"
        }
      ],
      "name": "burn",
      "outputs": [],
      "stateMutability": "nonpayable",
      "type": "function"
    },
    {
      "inputs": [
        {
          "internalType": "address",
          "name": "account",
          "type": "address"
        },
        {
          "internalType": "uint32",
          "name": "pos",
          "type": "uint32"
        }
      ],
      "name": "checkpoints",
      "outputs": [
        {
          "components": [
            {
              "internalType": "uint48",
              "name": "_key",
              "type": "uint48"
            },
            {
              "internalType": "uint208",
              "name": "_value",
              "type": "uint208"
            }
          ],
          "internalType": "struct Checkpoints.Checkpoint208",
          "name": "",
          "type": "tuple"
        }
      ],
      "stateMutability": "view",
      "type": "function"
    },
    {
      "inputs": [],
      "name": "clock",
      "outputs": [
        {
          "internalType": "uint48",
          "name": "",
          "type": "uint48"
        }
      ],
      "stateMutability": "view",
      "type": "function"
    },
    {
      "inputs": [],
      "name": "compliance",
      "outputs": [
        {
          "internalType": "contract IModularCompliance",
          "name": "",
          "type": "address"
        }
      ],
      "stateMutability": "view",
      "type": "function"
    },
    {
      "inputs": [],
      "name": "decimals",
      "outputs": [
        {
          "internalType": "uint8",
          "name": "",
          "type": "uint8"
        }
      ],
      "stateMutability": "view",
      "type": "function"
    },
    {
      "inputs": [
        {
          "internalType": "address",
          "name": "_spender",
          "type": "address"
        },
        {
          "internalType": "uint256",
          "name": "_decreasedValue",
          "type": "uint256"
        }
      ],
      "name": "decreaseAllowance",
      "outputs": [
        {
          "internalType": "bool",
          "name": "",
          "type": "bool"
        }
      ],
      "stateMutability": "nonpayable",
      "type": "function"
    },
    {
      "inputs": [
        {
          "internalType": "address",
          "name": "delegatee",
          "type": "address"
        }
      ],
      "name": "delegate",
      "outputs": [],
      "stateMutability": "nonpayable",
      "type": "function"
    },
    {
      "inputs": [
        {
          "internalType": "address",
          "name": "delegatee",
          "type": "address"
        },
        {
          "internalType": "uint256",
          "name": "nonce",
          "type": "uint256"
        },
        {
          "internalType": "uint256",
          "name": "expiry",
          "type": "uint256"
        },
        {
          "internalType": "uint8",
          "name": "v",
          "type": "uint8"
        },
        {
          "internalType": "bytes32",
          "name": "r",
          "type": "bytes32"
        },
        {
          "internalType": "bytes32",
          "name": "s",
          "type": "bytes32"
        }
      ],
      "name": "delegateBySig",
      "outputs": [],
      "stateMutability": "nonpayable",
      "type": "function"
    },
    {
      "inputs": [
        {
          "internalType": "address",
          "name": "account",
          "type": "address"
        }
      ],
      "name": "delegates",
      "outputs": [
        {
          "internalType": "address",
          "name": "",
          "type": "address"
        }
      ],
      "stateMutability": "view",
      "type": "function"
    },
    {
      "inputs": [],
      "name": "eip712Domain",
      "outputs": [
        {
          "internalType": "bytes1",
          "name": "fields",
          "type": "bytes1"
        },
        {
          "internalType": "string",
          "name": "name",
          "type": "string"
        },
        {
          "internalType": "string",
          "name": "version",
          "type": "string"
        },
        {
          "internalType": "uint256",
          "name": "chainId",
          "type": "uint256"
        },
        {
          "internalType": "address",
          "name": "verifyingContract",
          "type": "address"
        },
        {
          "internalType": "bytes32",
          "name": "salt",
          "type": "bytes32"
        },
        {
          "internalType": "uint256[]",
          "name": "extensions",
          "type": "uint256[]"
        }
      ],
      "stateMutability": "view",
      "type": "function"
    },
    {
      "inputs": [
        {
          "internalType": "address",
          "name": "_from",
          "type": "address"
        },
        {
          "internalType": "address",
          "name": "_to",
          "type": "address"
        },
        {
          "internalType": "uint256",
          "name": "_amount",
          "type": "uint256"
        }
      ],
      "name": "forcedTransfer",
      "outputs": [
        {
          "internalType": "bool",
          "name": "",
          "type": "bool"
        }
      ],
      "stateMutability": "nonpayable",
      "type": "function"
    },
    {
      "inputs": [
        {
          "internalType": "address",
          "name": "_userAddress",
          "type": "address"
        },
        {
          "internalType": "uint256",
          "name": "_amount",
          "type": "uint256"
        }
      ],
      "name": "freezePartialTokens",
      "outputs": [],
      "stateMutability": "nonpayable",
      "type": "function"
    },
    {
      "inputs": [
        {
          "internalType": "address",
          "name": "_userAddress",
          "type": "address"
        }
      ],
      "name": "getFrozenTokens",
      "outputs": [
        {
          "internalType": "uint256",
          "name": "",
          "type": "uint256"
        }
      ],
      "stateMutability": "view",
      "type": "function"
    },
    {
      "inputs": [
        {
          "internalType": "uint256",
          "name": "timepoint",
          "type": "uint256"
        }
      ],
      "name": "getPastTotalSupply",
      "outputs": [
        {
          "internalType": "uint256",
          "name": "",
          "type": "uint256"
        }
      ],
      "stateMutability": "view",
      "type": "function"
    },
    {
      "inputs": [
        {
          "internalType": "address",
          "name": "account",
          "type": "address"
        },
        {
          "internalType": "uint256",
          "name": "timepoint",
          "type": "uint256"
        }
      ],
      "name": "getPastVotes",
      "outputs": [
        {
          "internalType": "uint256",
          "name": "",
          "type": "uint256"
        }
      ],
      "stateMutability": "view",
      "type": "function"
    },
    {
      "inputs": [
        {
          "internalType": "address",
          "name": "account",
          "type": "address"
        }
      ],
      "name": "getVotes",
      "outputs": [
        {
          "internalType": "uint256",
          "name": "",
          "type": "uint256"
        }
      ],
      "stateMutability": "view",
      "type": "function"
    },
    {
      "inputs": [],
      "name": "identityRegistry",
      "outputs": [
        {
          "internalType": "contract IIdentityRegistry",
          "name": "",
          "type": "address"
        }
      ],
      "stateMutability": "view",
      "type": "function"
    },
    {
      "inputs": [
        {
          "internalType": "address",
          "name": "_spender",
          "type": "address"
        },
        {
          "internalType": "uint256",
          "name": "_addedValue",
          "type": "uint256"
        }
      ],
      "name": "increaseAllowance",
      "outputs": [
        {
          "internalType": "bool",
          "name": "",
          "type": "bool"
        }
      ],
      "stateMutability": "nonpayable",
      "type": "function"
    },
    {
      "inputs": [
        {
          "internalType": "address",
          "name": "_identityRegistry",
          "type": "address"
        },
        {
          "internalType": "address",
          "name": "_compliance",
          "type": "address"
        },
        {
          "internalType": "string",
          "name": "_tokenName",
          "type": "string"
        },
        {
          "internalType": "string",
          "name": "_tokenSymbol",
          "type": "string"
        },
        {
          "internalType": "uint8",
          "name": "_tokenDecimals",
          "type": "uint8"
        },
        {
          "internalType": "address",
          "name": "_onchainID",
          "type": "address"
        }
      ],
      "name": "init",
      "outputs": [],
      "stateMutability": "nonpayable",
      "type": "function"
    },
    {
      "inputs": [
        {
          "internalType": "address",
          "name": "_agent",
          "type": "address"
        }
      ],
      "name": "isAgent",
      "outputs": [
        {
          "internalType": "bool",
          "name": "",
          "type": "bool"
        }
      ],
      "stateMutability": "view",
      "type": "function"
    },
    {
      "inputs": [
        {
          "internalType": "address",
          "name": "_userAddress",
          "type": "address"
        }
      ],
      "name": "isFrozen",
      "outputs": [
        {
          "internalType": "bool",
          "name": "",
          "type": "bool"
        }
      ],
      "stateMutability": "view",
      "type": "function"
    },
    {
      "inputs": [
        {
          "internalType": "address",
          "name": "_to",
          "type": "address"
        },
        {
          "internalType": "uint256",
          "name": "_amount",
          "type": "uint256"
        }
      ],
      "name": "mint",
      "outputs": [],
      "stateMutability": "nonpayable",
      "type": "function"
    },
    {
      "inputs": [],
      "name": "name",
      "outputs": [
        {
          "internalType": "string",
          "name": "",
          "type": "string"
        }
      ],
      "stateMutability": "view",
      "type": "function"
    },
    {
      "inputs": [
        {
          "internalType": "address",
          "name": "owner",
          "type": "address"
        }
      ],
      "name": "nonces",
      "outputs": [
        {
          "internalType": "uint256",
          "name": "",
          "type": "uint256"
        }
      ],
      "stateMutability": "view",
      "type": "function"
    },
    {
      "inputs": [
        {
          "internalType": "address",
          "name": "account",
          "type": "address"
        }
      ],
      "name": "numCheckpoints",
      "outputs": [
        {
          "internalType": "uint32",
          "name": "",
          "type": "uint32"
        }
      ],
      "stateMutability": "view",
      "type": "function"
    },
    {
      "inputs": [],
      "name": "onchainID",
      "outputs": [
        {
          "internalType": "address",
          "name": "",
          "type": "address"
        }
      ],
      "stateMutability": "view",
      "type": "function"
    },
    {
      "inputs": [],
      "name": "owner",
      "outputs": [
        {
          "internalType": "address",
          "name": "",
          "type": "address"
        }
      ],
      "stateMutability": "view",
      "type": "function"
    },
    {
      "inputs": [],
      "name": "pause",
      "outputs": [],
      "stateMutability": "nonpayable",
      "type": "function"
    },
    {
      "inputs": [],
      "name": "paused",
      "outputs": [
        {
          "internalType": "bool",
          "name": "",
          "type": "bool"
        }
      ],
      "stateMutability": "view",
      "type": "function"
    },
    {
      "inputs": [
        {
          "internalType": "address",
          "name": "owner",
          "type": "address"
        },
        {
          "internalType": "address",
          "name": "spender",
          "type": "address"
        },
        {
          "internalType": "uint256",
          "name": "value",
          "type": "uint256"
        },
        {
          "internalType": "uint256",
          "name": "deadline",
          "type": "uint256"
        },
        {
          "internalType": "uint8",
          "name": "v",
          "type": "uint8"
        },
        {
          "internalType": "bytes32",
          "name": "r",
          "type": "bytes32"
        },
        {
          "internalType": "bytes32",
          "name": "s",
          "type": "bytes32"
        }
      ],
      "name": "permit",
      "outputs": [],
      "stateMutability": "nonpayable",
      "type": "function"
    },
    {
      "inputs": [
        {
          "internalType": "address",
          "name": "_lostWallet",
          "type": "address"
        },
        {
          "internalType": "address",
          "name": "_newWallet",
          "type": "address"
        },
        {
          "internalType": "address",
          "name": "_investorOnchainID",
          "type": "address"
        }
      ],
      "name": "recoveryAddress",
      "outputs": [
        {
          "internalType": "bool",
          "name": "",
          "type": "bool"
        }
      ],
      "stateMutability": "nonpayable",
      "type": "function"
    },
    {
      "inputs": [
        {
          "internalType": "address",
          "name": "_agent",
          "type": "address"
        }
      ],
      "name": "removeAgent",
      "outputs": [],
      "stateMutability": "nonpayable",
      "type": "function"
    },
    {
      "inputs": [],
      "name": "renounceOwnership",
      "outputs": [],
      "stateMutability": "nonpayable",
      "type": "function"
    },
    {
      "inputs": [
        {
          "internalType": "address",
          "name": "_userAddress",
          "type": "address"
        },
        {
          "internalType": "bool",
          "name": "_freeze",
          "type": "bool"
        }
      ],
      "name": "setAddressFrozen",
      "outputs": [],
      "stateMutability": "nonpayable",
      "type": "function"
    },
    {
      "inputs": [
        {
          "internalType": "address",
          "name": "_compliance",
          "type": "address"
        }
      ],
      "name": "setCompliance",
      "outputs": [],
      "stateMutability": "nonpayable",
      "type": "function"
    },
    {
      "inputs": [
        {
          "internalType": "address",
          "name": "_identityRegistry",
          "type": "address"
        }
      ],
      "name": "setIdentityRegistry",
      "outputs": [],
      "stateMutability": "nonpayable",
      "type": "function"
    },
    {
      "inputs": [
        {
          "internalType": "string",
          "name": "_tokenName",
          "type": "string"
        }
      ],
      "name": "setName",
      "outputs": [],
      "stateMutability": "nonpayable",
      "type": "function"
    },
    {
      "inputs": [
        {
          "internalType": "address",
          "name": "_onchainID",
          "type": "address"
        }
      ],
      "name": "setOnchainID",
      "outputs": [],
      "stateMutability": "nonpayable",
      "type": "function"
    },
    {
      "inputs": [
        {
          "internalType": "string",
          "name": "_tokenSymbol",
          "type": "string"
        }
      ],
      "name": "setSymbol",
      "outputs": [],
      "stateMutability": "nonpayable",
      "type": "function"
    },
    {
      "inputs": [],
      "name": "symbol",
      "outputs": [
        {
          "internalType": "string",
          "name": "",
          "type": "string"
        }
      ],
      "stateMutability": "view",
      "type": "function"
    },
    {
      "inputs": [],
      "name": "totalSupply",
      "outputs": [
        {
          "internalType": "uint256",
          "name": "",
          "type": "uint256"
        }
      ],
      "stateMutability": "view",
      "type": "function"
    },
    {
      "inputs": [
        {
          "internalType": "address",
          "name": "_to",
          "type": "address"
        },
        {
          "internalType": "uint256",
          "name": "_amount",
          "type": "uint256"
        }
      ],
      "name": "transfer",
      "outputs": [
        {
          "internalType": "bool",
          "name": "",
          "type": "bool"
        }
      ],
      "stateMutability": "nonpayable",
      "type": "function"
    },
    {
      "inputs": [
        {
          "internalType": "address",
          "name": "_from",
          "type": "address"
        },
        {
          "internalType": "address",
          "name": "_to",
          "type": "address"
        },
        {
          "internalType": "uint256",
          "name": "_amount",
          "type": "uint256"
        }
      ],
      "name": "transferFrom",
      "outputs": [
        {
          "internalType": "bool",
          "name": "",
          "type": "bool"
        }
      ],
      "stateMutability": "nonpayable",
      "type": "function"
    },
    {
      "inputs": [
        {
          "internalType": "address",
          "name": "newOwner",
          "type": "address"
        }
      ],
      "name": "transferOwnership",
      "outputs": [],
      "stateMutability": "nonpayable",
      "type": "function"
    },
    {
      "inputs": [
        {
          "internalType": "address",
          "name": "_userAddress",
          "type": "address"
        },
        {
          "internalType": "uint256",
          "name": "_amount",
          "type": "uint256"
        }
      ],
      "name": "unfreezePartialTokens",
      "outputs": [],
      "stateMutability": "nonpayable",
      "type": "function"
    },
    {
      "inputs": [],
      "name": "unpause",
      "outputs": [],
      "stateMutability": "nonpayable",
      "type": "function"
    },
    {
      "inputs": [],
      "name": "version",
      "outputs": [
        {
          "internalType": "string",
          "name": "",
          "type": "string"
        }
      ],
      "stateMutability": "pure",
      "type": "function"
    }
  ],
  "bytecode": "0x60806040526006805460ff191690553480156200001b57600080fd5b50620000266200002c565b620000e0565b7ff0c57e16840df040f15088dc2f81fe391c3923bec73e23a9662efc9c229c6a00805468010000000000000000900460ff16156200007d5760405163f92ee8a960e01b815260040160405180910390fd5b80546001600160401b0390811614620000dd5780546001600160401b0319166001600160401b0390811782556040519081527fc7f505b2f371ae2175ee4913f4499e1f2633a7b5936321eed1cdaeb6115181d29060200160405180910390a15b50565b614d9b80620000f06000396000f3fe608060405234801561001057600080fd5b50600436106103245760003560e01c80637ecebe00116101a9578063a9059cbb116100ef578063d505accf1161009d578063d505accf14610742578063dd62ed3e14610755578063e583983614610768578063f1127ed814610794578063f2fde38b146107d3578063f8981789146107e6578063f91b619c146107f9578063fc7e5fa81461080c57600080fd5b8063a9059cbb146106ba578063aba63705146106cd578063b84c8246146106e3578063c3cda520146106f6578063c47f002714610709578063c69c09cf1461071c578063cbf3f8611461072f57600080fd5b806391ddadf41161015757806391ddadf41461062a5780639285948a1461064057806395d89b411461065357806397a6278e1461065b5780639ab24eb01461066e5780639dc29fac146106815780639fc1d0e714610694578063a457c2d7146106a757600080fd5b80637ecebe00146105b35780638456cb59146105c657806384b0196e146105ce57806384e79842146105e957806388d695b2146105fc5780638da5cb5b1461060f5780638e539e8c1461061757600080fd5b80633f4ba83a1161026e578063587cde1e1161021c578063587cde1e1461051e5780635c19a95c146105315780635c975abb146105445780636290865d1461054c578063685731071461055d5780636fcfff451461057057806370a0823114610598578063715018a6146105ab57600080fd5b80633f4ba83a1461047f57806340c10f191461048757806342a47abc1461049a5780634710362d146104ad5780634a6cc677146104c05780634bf5d7e9146104d357806354fd4d50146104fd57600080fd5b80631fe56f7d116102d65780631fe56f7d146103f05780631ffbb0641461040357806323b872dd14610416578063313ce567146104295780633644e5151461043e57806339509351146104465780633a46b1a8146104595780633d1ddc5b1461046c57600080fd5b806306fdde0314610329578063095ea7b314610347578063125c4a331461036a578063134e18f41461037f578063158b1a571461039e57806318160ddd146103d55780631a7af379146103dd575b600080fd5b61033161081f565b60405161033e9190614139565b60405180910390f35b61035a610355366004614168565b6108b1565b604051901515815260200161033e565b61037d610378366004614168565b6108cb565b005b60065461010090046001600160a01b03165b60405161033e9190614192565b6103c76103ac3660046141a6565b6001600160a01b031660009081526005602052604090205490565b60405190815260200161033e565b6103c76109fa565b61037d6103eb36600461420c565b610a0f565b61037d6103fe366004614168565b610a7a565b61035a6104113660046141a6565b610b91565b61035a610424366004614277565b610b9d565b60035460405160ff909116815260200161033e565b6103c7610e14565b61035a610454366004614168565b610e23565b6103c7610467366004614168565b610e4d565b61037d61047a3660046141a6565b610ed2565b61037d610ffd565b61037d610495366004614168565b61106b565b61037d6104a83660046142b3565b61127b565b61037d6104bb36600461420c565b611307565b61037d6104ce36600461420c565b611362565b60408051808201909152600e81526d06d6f64653d74696d657374616d760941b6020820152610331565b604080518082019091526005815264342e312e3360d81b6020820152610331565b61039161052c3660046141a6565b6113bd565b61037d61053f3660046141a6565b6113ec565b61035a6113fb565b6007546001600160a01b0316610391565b61037d61056b36600461420c565b611405565b61058361057e3660046141a6565b611460565b60405163ffffffff909116815260200161033e565b6103c76105a63660046141a6565b61146b565b61037d611496565b6103c76105c13660046141a6565b6114aa565b61037d6114b5565b6105d6611519565b60405161033e979695949392919061434c565b61037d6105f73660046141a6565b6115c2565b61037d61060a36600461420c565b611632565b61039161168e565b6103c76106253660046143e5565b6116bc565b60405165ffffffffffff4216815260200161033e565b61035a61064e3660046143fe565b61172a565b610331611a9c565b61037d6106693660046141a6565b611aab565b6103c761067c3660046141a6565b611b1b565b61037d61068f366004614168565b611b5c565b61035a6106a2366004614277565b611cf3565b61035a6106b5366004614168565b611ea0565b61035a6106c8366004614168565b611ebc565b60035461010090046001600160a01b0316610391565b61037d6106f1366004614441565b6120ce565b61037d6107043660046144c3565b6121f2565b61037d610717366004614441565b6122a6565b61037d61072a366004614529565b612371565b61037d61073d3660046141a6565b6123eb565b61037d610750366004614560565b612445565b6103c76107633660046145ca565b612561565b61035a6107763660046141a6565b6001600160a01b031660009081526004602052604090205460ff1690565b6107a76107a23660046145fd565b61259d565b60408051825165ffffffffffff1681526020928301516001600160d01b0316928101929092520161033e565b61037d6107e13660046141a6565b6125bb565b61037d6107f43660046141a6565b6125f9565b61037d6108073660046146d4565b61271d565b61037d61081a36600461420c565b612a99565b60606001805461082e90614778565b80601f016020809104026020016040519081016040528092919081815260200182805461085a90614778565b80156108a75780601f1061087c576101008083540402835291602001916108a7565b820191906000526020600020905b81548152906001019060200180831161088a57829003601f168201915b5050505050905090565b6000336108bf818585612af4565b60019150505b92915050565b6108d433610b91565b6108f95760405162461bcd60e51b81526004016108f0906147b2565b60405180910390fd5b60006109048361146b565b6001600160a01b03841660009081526005602052604090205490915061092b908390614816565b81101561097a5760405162461bcd60e51b815260206004820181905260248201527f416d6f756e74206578636565647320617661696c61626c652062616c616e636560448201526064016108f0565b6001600160a01b03831660009081526005602052604090205461099e908390614816565b6001600160a01b038416600081815260056020526040908190209290925590517fa065e63c631c86f1b9f66a4a2f63f2093bf1c2168d23290259dbd969e0222a45906109ed9085815260200190565b60405180910390a2505050565b600080610a05612b06565b6002015492915050565b60005b83811015610a7357610a6b858583818110610a2f57610a2f614829565b9050602002016020810190610a4491906141a6565b848484818110610a5657610a56614829565b905060200201602081019061072a919061483f565b600101610a12565b5050505050565b610a8333610b91565b610a9f5760405162461bcd60e51b81526004016108f0906147b2565b6001600160a01b038216600090815260056020526040902054811115610b245760405162461bcd60e51b815260206004820152603460248201527f416d6f756e742073686f756c64206265206c657373207468616e206f7220657160448201527375616c20746f2066726f7a656e20746f6b656e7360601b60648201526084016108f0565b6001600160a01b038216600090815260056020526040902054610b4890829061485c565b6001600160a01b03831660008181526005602052604090819020929092559051600080516020614d2683398151915290610b859084815260200190565b60405180910390a25050565b60006108c58183612b2a565b6000610ba7612bad565b6001600160a01b03831660009081526004602052604090205460ff16158015610be957506001600160a01b03841660009081526004602052604090205460ff16155b610c055760405162461bcd60e51b81526004016108f09061486f565b6001600160a01b038416600090815260056020526040902054610c278561146b565b610c31919061485c565b821115610c505760405162461bcd60e51b81526004016108f090614899565b60065460405163b9209e3360e01b81526101009091046001600160a01b03169063b9209e3390610c84908690600401614192565b602060405180830381865afa158015610ca1573d6000803e3d6000fd5b505050506040513d601f19601f82011682018060405250810190610cc591906148c7565b8015610d4157506007546040516372331c7360e11b81526001600160a01b039091169063e46638e690610d00908790879087906004016148e4565b602060405180830381865afa158015610d1d573d6000803e3d6000fd5b505050506040513d601f19601f82011682018060405250810190610d4191906148c7565b15610dcd5733610d52858285612bd3565b610d5d858585612c26565b6007546040516322ebca6d60e21b81526001600160a01b0390911690638baf29b490610d91908890889088906004016148e4565b600060405180830381600087803b158015610dab57600080fd5b505af1158015610dbf573d6000803e3d6000fd5b505050506001915050610e0d565b60405162461bcd60e51b81526020600482015260156024820152745472616e73666572206e6f7420706f737369626c6560581b60448201526064016108f0565b9392505050565b6000610e1e612c85565b905090565b6000610e44338484610e353388612561565b610e3f9190614816565b612af4565b50600192915050565b600080610e58612c8f565b90504265ffffffffffff81168410610e9457604051637669fc0f60e11b81526004810185905265ffffffffffff821660248201526044016108f0565b610ec0610ea085612cb3565b6001600160a01b0387166000908152600185016020526040902090612cea565b6001600160d01b031695945050505050565b610eda612da0565b604051602001610ef590602080825260009082015260400190565b6040516020818303038152906040528051906020012081604051602001610f1c9190614192565b6040516020818303038152906040528051906020012003610f4f5760405162461bcd60e51b81526004016108f090614908565b60038054610100600160a81b0319166101006001600160a01b03841690810291909117909155610f7d611a9c565b604051610f8a919061493f565b6040518091039020610f9a61081f565b604051610fa7919061493f565b6040518091039020600080516020614d46833981519152610fca60035460ff1690565b6040805180820182526005815264342e312e3360d81b60208201529051610ff292919061495b565b60405180910390a450565b61100633610b91565b6110225760405162461bcd60e51b81526004016108f0906147b2565b61102a612dd2565b611032612df7565b7f5db9ee0a495bf2e6ff9c91a7834c1ba4fdd244a5e8aa4e537bd38aeae4b073aa336040516110619190614192565b60405180910390a1565b61107433610b91565b6110905760405162461bcd60e51b81526004016108f0906147b2565b60065460405163b9209e3360e01b81526101009091046001600160a01b03169063b9209e33906110c4908590600401614192565b602060405180830381865afa1580156110e1573d6000803e3d6000fd5b505050506040513d601f19601f8201168201806040525081019061110591906148c7565b61114d5760405162461bcd60e51b815260206004820152601960248201527824b232b73a34ba3c9034b9903737ba103b32b934b334b2b21760391b60448201526064016108f0565b6007546040516372331c7360e11b81526001600160a01b039091169063e46638e69061118290600090869086906004016148e4565b602060405180830381865afa15801561119f573d6000803e3d6000fd5b505050506040513d601f19601f820116820180604052508101906111c391906148c7565b6112095760405162461bcd60e51b815260206004820152601760248201527610dbdb5c1b1a585b98d9481b9bdd08199bdb1b1bddd959604a1b60448201526064016108f0565b6112138282612e4e565b600754604051635f8dead360e01b81526001600160a01b0390911690635f8dead3906112459085908590600401614977565b600060405180830381600087803b15801561125f57600080fd5b505af1158015611273573d6000803e3d6000fd5b505050505050565b60005b858110156112fe576112f587878381811061129b5761129b614829565b90506020020160208101906112b091906141a6565b8686848181106112c2576112c2614829565b90506020020160208101906112d791906141a6565b8585858181106112e9576112e9614829565b90506020020135611cf3565b5060010161127e565b50505050505050565b60005b83811015610a735761135a85858381811061132757611327614829565b905060200201602081019061133c91906141a6565b84848481811061134e5761134e614829565b90506020020135610a7a565b60010161130a565b60005b83811015610a73576113b585858381811061138257611382614829565b905060200201602081019061139791906141a6565b8484848181106113a9576113a9614829565b90506020020135611b5c565b600101611365565b6000806113c8612c8f565b6001600160a01b039384166000908152602091909152604090205490921692915050565b336113f78183612e84565b5050565b6000610e1e612f0b565b60005b83811015610a735761145885858381811061142557611425614829565b905060200201602081019061143a91906141a6565b84848481811061144c5761144c614829565b9050602002013561106b565b600101611408565b60006108c582612f20565b600080611476612b06565b6001600160a01b0390931660009081526020939093525050604090205490565b61149e612da0565b6114a86000612f52565b565b60006108c582612fc3565b6114be33610b91565b6114da5760405162461bcd60e51b81526004016108f0906147b2565b6114e2612bad565b6114ea612fce565b7f62e78cea01bee320cd4e420270b5ea74000d11b0c9f74754ebdbfc544b05a258336040516110619190614192565b600060608060008060006060600061152f613015565b805490915015801561154357506001810154155b6115875760405162461bcd60e51b81526020600482015260156024820152741152540dcc4c8e88155b9a5b9a5d1a585b1a5e9959605a1b60448201526064016108f0565b61158f613039565b6115976130da565b60408051600080825260208201909252600f60f81b9c939b5091995046985030975095509350915050565b6115ca612da0565b6001600160a01b0381166115f05760405162461bcd60e51b81526004016108f090614990565b6115fb6000826130f7565b6040516001600160a01b038216907ff68e73cec97f2d70aa641fb26e87a4383686e2efacb648f2165aeb02ac562ec590600090a250565b60005b83811015610a735761168585858381811061165257611652614829565b905060200201602081019061166791906141a6565b84848481811061167957611679614829565b90506020020135611ebc565b50600101611635565b7f9016d09d72d40fdae2fd8ceac6b6234c7706214fd39c1cd1e609a0528c199300546001600160a01b031690565b6000806116c7612c8f565b90504265ffffffffffff8116841061170357604051637669fc0f60e11b81526004810185905265ffffffffffff821660248201526044016108f0565b61171961170f85612cb3565b6002840190612cea565b6001600160d01b0316949350505050565b600061173533610b91565b6117515760405162461bcd60e51b81526004016108f0906147b2565b61175a8461146b565b6000036117a05760405162461bcd60e51b81526020600482015260146024820152733737903a37b5b2b739903a37903932b1b7bb32b960611b60448201526064016108f0565b60405182906000906117b6908690602001614192565b60408051808303601f1901815290829052805160209091012063d202158d60e01b8252600482018190526001602483015291506001600160a01b0383169063d202158d90604401602060405180830381865afa15801561181a573d6000803e3d6000fd5b505050506040513d601f19601f8201168201806040525081019061183e91906148c7565b15611a5c57600061184e8761146b565b6001600160a01b0380891660009081526005602052604090819020546006549151637e42683b60e01b8152939450926101009091049091169063454a03e090899087908490637e42683b906118a7908f90600401614192565b602060405180830381865afa1580156118c4573d6000803e3d6000fd5b505050506040513d601f19601f820116820180604052508101906118e891906149c7565b6040516001600160e01b031960e086901b1681526001600160a01b03938416600482015292909116602483015261ffff166044820152606401600060405180830381600087803b15801561193b57600080fd5b505af115801561194f573d6000803e3d6000fd5b5050505061195e888884611cf3565b50801561196f5761196f87826108cb565b6001600160a01b03881660009081526004602052604090205460ff16151560010361199f5761199f876001612371565b60065460405163a8d29d1d60e01b81526101009091046001600160a01b03169063a8d29d1d906119d3908b90600401614192565b600060405180830381600087803b1580156119ed57600080fd5b505af1158015611a01573d6000803e3d6000fd5b50505050856001600160a01b0316876001600160a01b0316896001600160a01b03167ff0c9129a94f30f1caaceb63e44b9811d0a3edf1d6c23757f346093af5553fed060405160405180910390a46001945050505050610e0d565b60405162461bcd60e51b81526020600482015260156024820152745265636f76657279206e6f7420706f737369626c6560581b60448201526064016108f0565b60606002805461082e90614778565b611ab3612da0565b6001600160a01b038116611ad95760405162461bcd60e51b81526004016108f090614990565b611ae4600082613173565b6040516001600160a01b038216907fed9c8ad8d5a0a66898ea49d2956929c93ae2e8bd50281b2ed897c5d1a6737e0b90600090a250565b600080611b26612c8f565b6001600160a01b03841660009081526001820160205260409020909150611b4c906131f5565b6001600160d01b03169392505050565b611b6533610b91565b611b815760405162461bcd60e51b81526004016108f0906147b2565b80611b8b8361146b565b1015611bd95760405162461bcd60e51b815260206004820152601d60248201527f63616e6e6f74206275726e206d6f7265207468616e2062616c616e636500000060448201526064016108f0565b6001600160a01b038216600090815260056020526040812054611bfb8461146b565b611c05919061485c565b905080821115611c89576000611c1b828461485c565b6001600160a01b038516600090815260056020526040902054909150611c4290829061485c565b6001600160a01b03851660008181526005602052604090819020929092559051600080516020614d2683398151915290611c7f9084815260200190565b60405180910390a2505b611c93838361322e565b60075460405163469753b960e11b81526001600160a01b0390911690638d2ea77290611cc59086908690600401614977565b600060405180830381600087803b158015611cdf57600080fd5b505af11580156112fe573d6000803e3d6000fd5b6000611cfe33610b91565b611d1a5760405162461bcd60e51b81526004016108f0906147b2565b81611d248561146b565b1015611d6b5760405162461bcd60e51b815260206004820152601660248201527573656e6465722062616c616e636520746f6f206c6f7760501b60448201526064016108f0565b6001600160a01b038416600090815260056020526040812054611d8d8661146b565b611d97919061485c565b905080831115611e1b576000611dad828561485c565b6001600160a01b038716600090815260056020526040902054909150611dd490829061485c565b6001600160a01b03871660008181526005602052604090819020929092559051600080516020614d2683398151915290611e119084815260200190565b60405180910390a2505b60065460405163b9209e3360e01b81526101009091046001600160a01b03169063b9209e3390611e4f908790600401614192565b602060405180830381865afa158015611e6c573d6000803e3d6000fd5b505050506040513d601f19601f82011682018060405250810190611e9091906148c7565b15610dcd57610d5d858585612c26565b6000610e44338484611eb23388612561565b610e3f919061485c565b6000611ec6612bad565b6001600160a01b03831660009081526004602052604090205460ff16158015611eff57503360009081526004602052604090205460ff16155b611f1b5760405162461bcd60e51b81526004016108f09061486f565b3360008181526005602052604090205490611f359061146b565b611f3f919061485c565b821115611f5e5760405162461bcd60e51b81526004016108f090614899565b60065460405163b9209e3360e01b81526101009091046001600160a01b03169063b9209e3390611f92908690600401614192565b602060405180830381865afa158015611faf573d6000803e3d6000fd5b505050506040513d601f19601f82011682018060405250810190611fd391906148c7565b801561204f57506007546040516372331c7360e11b81526001600160a01b039091169063e46638e69061200e903390879087906004016148e4565b602060405180830381865afa15801561202b573d6000803e3d6000fd5b505050506040513d601f19601f8201168201806040525081019061204f91906148c7565b15610dcd5761205f338484612c26565b6007546040516322ebca6d60e21b81526001600160a01b0390911690638baf29b490612093903390879087906004016148e4565b600060405180830381600087803b1580156120ad57600080fd5b505af11580156120c1573d6000803e3d6000fd5b50505050600190506108c5565b6120d6612da0565b6040516020016120f190602080825260009082015260400190565b60405160208183030381529060405280519060200120828260405160200161211a9291906149eb565b604051602081830303815290604052805190602001200361214d5760405162461bcd60e51b81526004016108f090614908565b600261215a828483614a77565b506003546040516101009091046001600160a01b03169061217e9084908490614b30565b604051809103902061218e61081f565b60405161219b919061493f565b6040518091039020600080516020614d468339815191526121be60035460ff1690565b6040805180820182526005815264342e312e3360d81b602082015290516121e692919061495b565b60405180910390a45050565b8342111561221657604051632341d78760e11b8152600481018590526024016108f0565b604080517fe48329057bfd03d55e49b547132e39cffd9c1820ad7b9d4c5307691425d15adf60208201526001600160a01b038816918101919091526060810186905260808101859052600090612290906122889060a00160405160208183030381529060405280519060200120613264565b858585613291565b905061229c81876132bf565b6112fe8188612e84565b6122ae612da0565b6040516020016122c990602080825260009082015260400190565b6040516020818303038152906040528051906020012082826040516020016122f29291906149eb565b60405160208183030381529060405280519060200120036123255760405162461bcd60e51b81526004016108f090614908565b6001612332828483614a77565b5060035461010090046001600160a01b031661234c611a9c565b604051612359919061493f565b6040518091039020838360405161219b929190614b30565b61237a33610b91565b6123965760405162461bcd60e51b81526004016108f0906147b2565b6001600160a01b038216600081815260046020526040808220805460ff19168515159081179091559051339391927f7fa523c84ab8d7fc5b72f08b9e46dbbf10c39e119a075b3e317002d14bc9f43691a45050565b6123f3612da0565b60068054610100600160a81b0319166101006001600160a01b038416908102919091179091556040517fd2be862d755bca7e0d39772b2cab3a5578da9c285f69199f4c063c2294a7f36c90600090a250565b834211156124695760405163313c898160e11b8152600481018590526024016108f0565b60007f6e71edae12b1b97f4d1f60370fef10105fa2faae0126114a169c64845d6126c98888886124988c6132f0565b6040805160208101969096526001600160a01b0394851690860152929091166060840152608083015260a082015260c0810186905260e00160405160208183030381529060405280519060200120905060006124f382613264565b9050600061250382878787613291565b9050896001600160a01b0316816001600160a01b03161461254a576040516325c0072360e11b81526001600160a01b0380831660048301528b1660248201526044016108f0565b6125558a8a8a612af4565b50505050505050505050565b60008061256c612b06565b6001600160a01b03948516600090815260019190910160209081526040808320959096168252939093525050205490565b6040805180820190915260008082526020820152610e0d8383613332565b6125c3612da0565b6001600160a01b0381166125ed576000604051631e4fbdf760e01b81526004016108f09190614192565b6125f681612f52565b50565b612601612da0565b6007546001600160a01b0316156126755760075460405163040db3b560e41b81526001600160a01b03909116906340db3b5090612642903090600401614192565b600060405180830381600087803b15801561265c57600080fd5b505af1158015612670573d6000803e3d6000fd5b505050505b600780546001600160a01b0319166001600160a01b038316908117909155604051631ffad50160e11b8152633ff5aa02906126b4903090600401614192565b600060405180830381600087803b1580156126ce57600080fd5b505af11580156126e2573d6000803e3d6000fd5b50506040516001600160a01b03841692507f7f3a888862559648ec01d97deb7b5012bff86dc91e654a1de397170db40e35b69150600090a250565b7ff0c57e16840df040f15088dc2f81fe391c3923bec73e23a9662efc9c229c6a008054600160401b810460ff1615906001600160401b03166000811580156127625750825b90506000826001600160401b0316600114801561277e5750303b155b90508115801561278c575080155b156127aa5760405163f92ee8a960e01b815260040160405180910390fd5b845467ffffffffffffffff1916600117855583156127d457845460ff60401b1916600160401b1785555b6001600160a01b038b16158015906127f457506001600160a01b038a1615155b6128105760405162461bcd60e51b81526004016108f090614990565b60405160200161282b90602080825260009082015260400190565b60405160208183030381529060405280519060200120896040516020016128529190614139565b60405160208183030381529060405280519060200120141580156128cc575060405160200161288c90602080825260009082015260400190565b60405160208183030381529060405280519060200120886040516020016128b39190614139565b6040516020818303038152906040528051906020012014155b6128e85760405162461bcd60e51b81526004016108f090614908565b60128760ff1611156129385760405162461bcd60e51b81526020600482015260196024820152780c8cac6d2dac2d8e640c4cae8eecacadc406040c2dcc840627603b1b60448201526064016108f0565b612942898961337f565b61294b89613391565b6129536133bc565b61295b6133c4565b612964336133d4565b60016129708a82614b40565b50600261297d8982614b40565b50600380546001600160a01b038816610100026001600160a81b031990911660ff8a16171790556006805460ff191690556129b78b6123eb565b6129c08a6125f9565b6003546040516101009091046001600160a01b0316906129e290600290614bf9565b604051809103902060016040516129f99190614bf9565b6040518091039020600080516020614d46833981519152601260405180604001604052806005815260200164342e312e3360d81b815250604051612a3e92919061495b565b60405180910390a48315612a8c57845460ff60401b19168555604051600181527fc7f505b2f371ae2175ee4913f4499e1f2633a7b5936321eed1cdaeb6115181d29060200160405180910390a15b5050505050505050505050565b60005b83811015610a7357612aec858583818110612ab957612ab9614829565b9050602002016020810190612ace91906141a6565b848484818110612ae057612ae0614829565b905060200201356108cb565b600101612a9c565b612b0183838360016133e5565b505050565b7f52c63247e1f47db19d5ce0460030c497f067ca4cebf71ba98eeadabe20bace0090565b60006001600160a01b038216612b8d5760405162461bcd60e51b815260206004820152602260248201527f526f6c65733a206163636f756e7420697320746865207a65726f206164647265604482015261737360f01b60648201526084016108f0565b506001600160a01b03166000908152602091909152604090205460ff1690565b612bb56113fb565b156114a85760405163d93c066560e01b815260040160405180910390fd5b6000612bdf8484612561565b90506000198114612c205781811015612c1157828183604051637dc7a0d960e11b81526004016108f093929190614c6f565b612c20848484840360006133e5565b50505050565b6001600160a01b038316612c50576000604051634b637e8f60e11b81526004016108f09190614192565b6001600160a01b038216612c7a57600060405163ec442f0560e01b81526004016108f09190614192565b612b018383836134c9565b6000610e1e6134d4565b7fe8b26c30fad74198956032a3533d903385d56dd795af560196f9c78d4af40d0090565b600065ffffffffffff821115612ce6576040516306dfcc6560e41b815260306004820152602481018390526044016108f0565b5090565b815460009081816005811115612d49576000612d0584613548565b612d0f908561485c565b60008881526020902090915081015465ffffffffffff9081169087161015612d3957809150612d47565b612d44816001614816565b92505b505b6000612d5787878585613630565b90508015612d9257612d7c87612d6e60018461485c565b600091825260209091200190565b54600160301b90046001600160d01b0316612d95565b60005b979650505050505050565b33612da961168e565b6001600160a01b0316146114a8573360405163118cdaa760e01b81526004016108f09190614192565b612dda6113fb565b6114a857604051638dfc202b60e01b815260040160405180910390fd5b612dff612dd2565b6000612e09613692565b805460ff1916815590507f5db9ee0a495bf2e6ff9c91a7834c1ba4fdd244a5e8aa4e537bd38aeae4b073aa335b604051612e439190614192565b60405180910390a150565b6001600160a01b038216612e7857600060405163ec442f0560e01b81526004016108f09190614192565b6113f7600083836134c9565b6000612e8e612c8f565b90506000612e9b846113bd565b6001600160a01b0385811660008181526020869052604080822080546001600160a01b031916898616908117909155905194955093928516927f3134e8a2e6d97e929a7e54011ea5485d7d196dd5f0ba4d4ef95803e8e3fc257f9190a4612c208184612f06876136b6565b6136c1565b600080612f16613692565b5460ff1692915050565b600080612f2b612c8f565b6001600160a01b0384166000908152600182016020526040902054909150610e0d9061383e565b7f9016d09d72d40fdae2fd8ceac6b6234c7706214fd39c1cd1e609a0528c19930080546001600160a01b031981166001600160a01b03848116918217845560405192169182907f8be0079c531659141344cd1fd0a4f28419497f9722a3daafe3b4186f6b6457e090600090a3505050565b60006108c58261386f565b612fd6612bad565b6000612fe0613692565b805460ff1916600117815590507f62e78cea01bee320cd4e420270b5ea74000d11b0c9f74754ebdbfc544b05a258612e363390565b7fa16a46d94261c7517cc8ff89f61c0ce93598e3c849801011dee649a6a557d10090565b60606000613045613015565b905080600201805461305690614778565b80601f016020809104026020016040519081016040528092919081815260200182805461308290614778565b80156130cf5780601f106130a4576101008083540402835291602001916130cf565b820191906000526020600020905b8154815290600101906020018083116130b257829003601f168201915b505050505091505090565b606060006130e6613015565b905080600301805461305690614778565b6131018282612b2a565b1561314e5760405162461bcd60e51b815260206004820152601f60248201527f526f6c65733a206163636f756e7420616c72656164792068617320726f6c650060448201526064016108f0565b6001600160a01b0316600090815260209190915260409020805460ff19166001179055565b61317d8282612b2a565b6131d35760405162461bcd60e51b815260206004820152602160248201527f526f6c65733a206163636f756e7420646f6573206e6f74206861766520726f6c6044820152606560f81b60648201526084016108f0565b6001600160a01b0316600090815260209190915260409020805460ff19169055565b805460009080156132255761320f83612d6e60018461485c565b54600160301b90046001600160d01b0316610e0d565b60009392505050565b6001600160a01b038216613258576000604051634b637e8f60e11b81526004016108f09190614192565b6113f7826000836134c9565b60006108c5613271612c85565b8360405161190160f01b8152600281019290925260228201526042902090565b6000806000806132a388888888613898565b9250925092506132b3828261395d565b50909695505050505050565b60006132ca836132f0565b9050808214612b015782816040516301d4b62360e61b81526004016108f0929190614977565b6001600160a01b031660009081527f5ab42ced628888259c08ac98db1eb0cf702fc1501344311d8b100cd1bfe4bb006020526040902080546001810190915590565b60408051808201909152600080825260208201526000613350612c8f565b6001600160a01b038516600090815260018201602052604090209091506133779084613a16565b949350505050565b613387613a86565b6113f78282613acf565b613399613a86565b6125f681604051806040016040528060018152602001603160f81b815250613b00565b6114a8613a86565b6133cc613a86565b6114a8613b41565b6133dc613a86565b6125f681613b5e565b60006133ef612b06565b90506001600160a01b03851661341b57600060405163e602df0560e01b81526004016108f09190614192565b6001600160a01b038416613445576000604051634a1406b160e11b81526004016108f09190614192565b6001600160a01b03808616600090815260018301602090815260408083209388168352929052208390558115610a7357836001600160a01b0316856001600160a01b03167f8c5be1e5ebec7d5bd14f71427d1e84f3dd0314c0f7b2291e5b200ac8c7c3b925856040516134ba91815260200190565b60405180910390a35050505050565b612b01838383613b66565b60007f8b73c3c69bb8fe3d512ecc4cf759cc79239f7b179b0ffacaa9a75d522b39400f6134ff613bcc565b613507613c33565b60408051602081019490945283019190915260608201524660808201523060a082015260c00160405160208183030381529060405280519060200120905090565b60008160000361355a57506000919050565b6000600161356784613c74565b901c6001901b9050600181848161358057613580614c90565b048201901c9050600181848161359857613598614c90565b048201901c905060018184816135b0576135b0614c90565b048201901c905060018184816135c8576135c8614c90565b048201901c905060018184816135e0576135e0614c90565b048201901c905060018184816135f8576135f8614c90565b048201901c9050600181848161361057613610614c90565b048201901c9050610e0d8182858161362a5761362a614c90565b04613d08565b60005b8183101561368a5760006136478484613d1e565b60008781526020902090915065ffffffffffff86169082015465ffffffffffff16111561367657809250613684565b613681816001614816565b93505b50613633565b509392505050565b7fcd5ed15c6e187e77e9aee88184c21f4f2182ab5827cb3b7e07fbedcd63f0330090565b60006108c58261146b565b60006136cb612c8f565b9050826001600160a01b0316846001600160a01b0316141580156136ef5750600082115b15612c20576001600160a01b03841615613799576001600160a01b03841660009081526001820160205260408120819061373490613d3961372f87613d45565b613d79565b6001600160d01b031691506001600160d01b03169150856001600160a01b03167fdec2bacdd2f05b59de34da9b523dff8be42e5e38e818c82fdb0bae774387a724838360405161378e929190918252602082015260400190565b60405180910390a250505b6001600160a01b03831615612c20576001600160a01b0383166000908152600182016020526040812081906137d490613dab61372f87613d45565b6001600160d01b031691506001600160d01b03169150846001600160a01b03167fdec2bacdd2f05b59de34da9b523dff8be42e5e38e818c82fdb0bae774387a724838360405161382e929190918252602082015260400190565b60405180910390a2505050505050565b600063ffffffff821115612ce6576040516306dfcc6560e41b815260206004820152602481018390526044016108f0565b6000807f5ab42ced628888259c08ac98db1eb0cf702fc1501344311d8b100cd1bfe4bb00611476565b600080806fa2a8918ca85bafe22016d0b997e4df60600160ff1b038411156138c95750600091506003905082613953565b604080516000808252602082018084528a905260ff891692820192909252606081018790526080810186905260019060a0016020604051602081039080840390855afa15801561391d573d6000803e3d6000fd5b5050604051601f1901519150506001600160a01b03811661394957506000925060019150829050613953565b9250600091508190505b9450945094915050565b600082600381111561397157613971614ca6565b0361397a575050565b600182600381111561398e5761398e614ca6565b036139ac5760405163f645eedf60e01b815260040160405180910390fd5b60028260038111156139c0576139c0614ca6565b036139e15760405163fce698f760e01b8152600481018290526024016108f0565b60038260038111156139f5576139f5614ca6565b036113f7576040516335e2f38360e21b8152600481018290526024016108f0565b6040805180820190915260008082526020820152826000018263ffffffff1681548110613a4557613a45614829565b60009182526020918290206040805180820190915291015465ffffffffffff81168252600160301b90046001600160d01b0316918101919091529392505050565b7ff0c57e16840df040f15088dc2f81fe391c3923bec73e23a9662efc9c229c6a0054600160401b900460ff166114a857604051631afcd79f60e31b815260040160405180910390fd5b613ad7613a86565b6000613ae1612b06565b905060038101613af18482614b40565b5060048101612c208382614b40565b613b08613a86565b6000613b12613015565b905060028101613b228482614b40565b5060038101613b318382614b40565b5060008082556001909101555050565b613b49613a86565b6000613b53613692565b805460ff1916905550565b6125c3613a86565b613b71838383613db7565b6001600160a01b038316613bc1576000613b896109fa565b90506001600160d01b0380821115613bbe57604051630e58ae9360e11b815260048101839052602481018290526044016108f0565b50505b612b01838383613dca565b600080613bd7613015565b90506000613be3613039565b805190915015613bfb57805160209091012092915050565b81548015613c0a579392505050565b7fc5d2460186f7233c927e7db2dcc703c0e500b653ca82273b7bfad8045d85a470935050505090565b600080613c3e613015565b90506000613c4a6130da565b805190915015613c6257805160209091012092915050565b60018201548015613c0a579392505050565b600080608083901c15613c8957608092831c92015b604083901c15613c9b57604092831c92015b602083901c15613cad57602092831c92015b601083901c15613cbf57601092831c92015b600883901c15613cd157600892831c92015b600483901c15613ce357600492831c92015b600283901c15613cf557600292831c92015b600183901c156108c55760010192915050565b6000818310613d175781610e0d565b5090919050565b6000613d2d6002848418614cbc565b610e0d90848416614816565b6000610e0d8284614cde565b60006001600160d01b03821115612ce6576040516306dfcc6560e41b815260d06004820152602481018390526044016108f0565b600080613d9e42613d96613d8c886131f5565b868863ffffffff16565b879190613e39565b915091505b935093915050565b6000610e0d8284614d05565b613dbf612bad565b612b01838383613e47565b6000613dd4612c8f565b90506001600160a01b038416613dfa57613df781600201613dab61372f85613d45565b50505b6001600160a01b038316613e1e57613e1b81600201613d3961372f85613d45565b50505b612c20613e2a856113bd565b613e33856113bd565b846136c1565b600080613d9e858585613f6f565b6000613e51612b06565b90506001600160a01b038416613e805781816002016000828254613e759190614816565b90915550613edf9050565b6001600160a01b03841660009081526020829052604090205482811015613ec05784818460405163391434e360e21b81526004016108f093929190614c6f565b6001600160a01b03851660009081526020839052604090209083900390555b6001600160a01b038316613efd576002810180548390039055613f1c565b6001600160a01b03831660009081526020829052604090208054830190555b826001600160a01b0316846001600160a01b03167fddf252ad1be2c89b69c2b068fc378daa952ba7f163c4a11628f55a4df523b3ef84604051613f6191815260200190565b60405180910390a350505050565b82546000908190801561408e576000613f8d87612d6e60018561485c565b60408051808201909152905465ffffffffffff808216808452600160301b9092046001600160d01b031660208401529192509087161015613fe157604051632520601d60e01b815260040160405180910390fd5b805165ffffffffffff80881691160361402d578461400488612d6e60018661485c565b80546001600160d01b0392909216600160301b0265ffffffffffff90921691909117905561407e565b6040805180820190915265ffffffffffff80881682526001600160d01b0380881660208085019182528b54600181018d5560008d81529190912094519151909216600160301b029216919091179101555b602001519250839150613da39050565b50506040805180820190915265ffffffffffff80851682526001600160d01b0380851660208085019182528854600181018a5560008a815291822095519251909316600160301b029190931617920191909155905081613da3565b60005b838110156141045781810151838201526020016140ec565b50506000910152565b600081518084526141258160208601602086016140e9565b601f01601f19169290920160200192915050565b602081526000610e0d602083018461410d565b80356001600160a01b038116811461416357600080fd5b919050565b6000806040838503121561417b57600080fd5b6141848361414c565b946020939093013593505050565b6001600160a01b0391909116815260200190565b6000602082840312156141b857600080fd5b610e0d8261414c565b60008083601f8401126141d357600080fd5b5081356001600160401b038111156141ea57600080fd5b6020830191508360208260051b850101111561420557600080fd5b9250929050565b6000806000806040858703121561422257600080fd5b84356001600160401b038082111561423957600080fd5b614245888389016141c1565b9096509450602087013591508082111561425e57600080fd5b5061426b878288016141c1565b95989497509550505050565b60008060006060848603121561428c57600080fd5b6142958461414c565b92506142a36020850161414c565b9150604084013590509250925092565b600080600080600080606087890312156142cc57600080fd5b86356001600160401b03808211156142e357600080fd5b6142ef8a838b016141c1565b9098509650602089013591508082111561430857600080fd5b6143148a838b016141c1565b9096509450604089013591508082111561432d57600080fd5b5061433a89828a016141c1565b979a9699509497509295939492505050565b60ff60f81b881681526000602060e0602084015261436d60e084018a61410d565b838103604085015261437f818a61410d565b606085018990526001600160a01b038816608086015260a0850187905284810360c08601528551808252602080880193509091019060005b818110156143d3578351835292840192918401916001016143b7565b50909c9b505050505050505050505050565b6000602082840312156143f757600080fd5b5035919050565b60008060006060848603121561441357600080fd5b61441c8461414c565b925061442a6020850161414c565b91506144386040850161414c565b90509250925092565b6000806020838503121561445457600080fd5b82356001600160401b038082111561446b57600080fd5b818501915085601f83011261447f57600080fd5b81358181111561448e57600080fd5b8660208285010111156144a057600080fd5b60209290920196919550909350505050565b803560ff8116811461416357600080fd5b60008060008060008060c087890312156144dc57600080fd5b6144e58761414c565b95506020870135945060408701359350614501606088016144b2565b92506080870135915060a087013590509295509295509295565b80151581146125f657600080fd5b6000806040838503121561453c57600080fd5b6145458361414c565b915060208301356145558161451b565b809150509250929050565b600080600080600080600060e0888a03121561457b57600080fd5b6145848861414c565b96506145926020890161414c565b955060408801359450606088013593506145ae608089016144b2565b925060a0880135915060c0880135905092959891949750929550565b600080604083850312156145dd57600080fd5b6145e68361414c565b91506145f46020840161414c565b90509250929050565b6000806040838503121561461057600080fd5b6146198361414c565b9150602083013563ffffffff8116811461455557600080fd5b634e487b7160e01b600052604160045260246000fd5b600082601f83011261465957600080fd5b81356001600160401b038082111561467357614673614632565b604051601f8301601f19908116603f0116810190828211818310171561469b5761469b614632565b816040528381528660208588010111156146b457600080fd5b836020870160208301376000602085830101528094505050505092915050565b60008060008060008060c087890312156146ed57600080fd5b6146f68761414c565b95506147046020880161414c565b945060408701356001600160401b038082111561472057600080fd5b61472c8a838b01614648565b9550606089013591508082111561474257600080fd5b5061474f89828a01614648565b93505061475e608088016144b2565b915061476c60a0880161414c565b90509295509295509295565b600181811c9082168061478c57607f821691505b6020821081036147ac57634e487b7160e01b600052602260045260246000fd5b50919050565b6020808252602e908201527f4167656e74526f6c653a2063616c6c657220646f6573206e6f7420686176652060408201526d746865204167656e7420726f6c6560901b606082015260800190565b634e487b7160e01b600052601160045260246000fd5b808201808211156108c5576108c5614800565b634e487b7160e01b600052603260045260246000fd5b60006020828403121561485157600080fd5b8135610e0d8161451b565b818103818111156108c5576108c5614800565b60208082526010908201526f3bb0b63632ba1034b990333937bd32b760811b604082015260600190565b602080825260149082015273496e73756666696369656e742042616c616e636560601b604082015260600190565b6000602082840312156148d957600080fd5b8151610e0d8161451b565b6001600160a01b039384168152919092166020820152604081019190915260600190565b6020808252601f908201527f696e76616c696420617267756d656e74202d20656d70747920737472696e6700604082015260600190565b600082516149518184602087016140e9565b9190910192915050565b60ff83168152604060208201526000613377604083018461410d565b6001600160a01b03929092168252602082015260400190565b6020808252601f908201527f696e76616c696420617267756d656e74202d207a65726f206164647265737300604082015260600190565b6000602082840312156149d957600080fd5b815161ffff81168114610e0d57600080fd5b60208152816020820152818360408301376000818301604090810191909152601f909201601f19160101919050565b601f821115612b01576000816000526020600020601f850160051c81016020861015614a435750805b601f850160051c820191505b8181101561127357828155600101614a4f565b600019600383901b1c191660019190911b1790565b6001600160401b03831115614a8e57614a8e614632565b614aa283614a9c8354614778565b83614a1a565b6000601f841160018114614ad05760008515614abe5750838201355b614ac88682614a62565b845550610a73565b600083815260209020601f19861690835b82811015614b015786850135825560209485019460019092019101614ae1565b5086821015614b1e5760001960f88860031b161c19848701351681555b505060018560011b0183555050505050565b8183823760009101908152919050565b81516001600160401b03811115614b5957614b59614632565b614b6d81614b678454614778565b84614a1a565b602080601f831160018114614b9c5760008415614b8a5750858301515b614b948582614a62565b865550611273565b600085815260208120601f198616915b82811015614bcb57888601518255948401946001909101908401614bac565b5085821015614be95787850151600019600388901b60f8161c191681555b5050505050600190811b01905550565b6000808354614c0781614778565b60018281168015614c1f5760018114614c3457614c63565b60ff1984168752821515830287019450614c63565b8760005260208060002060005b85811015614c5a5781548a820152908401908201614c41565b50505082870194505b50929695505050505050565b6001600160a01b039390931683526020830191909152604082015260600190565b634e487b7160e01b600052601260045260246000fd5b634e487b7160e01b600052602160045260246000fd5b600082614cd957634e487b7160e01b600052601260045260246000fd5b500490565b6001600160d01b03828116828216039080821115614cfe57614cfe614800565b5092915050565b6001600160d01b03818116838216019080821115614cfe57614cfe61480056fe9bed35cb62ad0dba04f9d5bfee4b5bc91443e77da8a65c4c84834c51bb08b0d66a1105ac8148a3c319adbc369f9072573e8a11d3a3d195e067e7c40767ec54d1a264697066735822122069e107a01aed523719c3534cd306654f7c9c782aab37b09d5ded7c2496e87a8464736f6c63430008180033",
  "linkReferences": {},
  "deployedLinkReferences": {}
}