{
  "_format": "hh-sol-artifact-1",
  "contractName": "Treasury",
  "sourceName": "contracts/treasury/Treasury.sol",
  "abi": [
    {
      "inputs": [],
      "stateMutability": "nonpayable",
      "type": "constructor"
    },
    {
      "inputs": [],
      "name": "AccessControlBadConfirmation",
      "type": "error"
    },
    {
      "inputs": [
        {
          "internalType": "address",
          "name": "account",
          "type": "address"
        },
        {
          "internalType": "bytes32",
          "name": "neededRole",
          "type": "bytes32"
        }
      ],
      "name": "AccessControlUnauthorizedAccount",
      "type": "error"
    },
    {
      "inputs": [
        {
          "internalType": "address",
          "name": "target",
          "type": "address"
        }
      ],
      "name": "AddressEmptyCode",
      "type": "error"
    },
    {
      "inputs": [
        {
          "internalType": "address",
          "name": "account",
          "type": "address"
        }
      ],
      "name": "AddressInsufficientBalance",
      "type": "error"
    },
    {
      "inputs": [],
      "name": "FailedInnerCall",
      "type": "error"
    },
    {
      "inputs": [],
      "name": "InvalidInitialization",
      "type": "error"
    },
    {
      "inputs": [],
      "name": "NotInitializing",
      "type": "error"
    },
    {
      "inputs": [
        {
          "internalType": "address",
          "name": "token",
          "type": "address"
        }
      ],
      "name": "SafeERC20FailedOperation",
      "type": "error"
    },
    {
      "anonymous": false,
      "inputs": [
        {
          "indexed": true,
          "internalType": "address",
          "name": "from",
          "type": "address"
        },
        {
          "indexed": false,
          "internalType": "uint256",
          "name": "amount",
          "type": "uint256"
        }
      ],
      "name": "Deposit",
      "type": "event"
    },
    {
      "anonymous": false,
      "inputs": [
        {
          "indexed": false,
          "internalType": "uint256",
          "name": "amount",
          "type": "uint256"
        }
      ],
      "name": "ExcessFundsForwarded",
      "type": "event"
    },
    {
      "anonymous": false,
      "inputs": [
        {
          "indexed": false,
          "internalType": "uint256",
          "name": "toBusiness",
          "type": "uint256"
        },
        {
          "indexed": false,
          "internalType": "uint256",
          "name": "toTreasury",
          "type": "uint256"
        }
      ],
      "name": "FundsDistributed",
      "type": "event"
    },
    {
      "anonymous": false,
      "inputs": [
        {
          "indexed": false,
          "internalType": "uint64",
          "name": "version",
          "type": "uint64"
        }
      ],
      "name": "Initialized",
      "type": "event"
    },
    {
      "anonymous": false,
      "inputs": [
        {
          "indexed": true,
          "internalType": "address",
          "name": "to",
          "type": "address"
        },
        {
          "indexed": false,
          "internalType": "uint256",
          "name": "amount",
          "type": "uint256"
        }
      ],
      "name": "Payment",
      "type": "event"
    },
    {
      "anonymous": false,
      "inputs": [
        {
          "indexed": true,
          "internalType": "bytes32",
          "name": "role",
          "type": "bytes32"
        },
        {
          "indexed": true,
          "internalType": "bytes32",
          "name": "previousAdminRole",
          "type": "bytes32"
        },
        {
          "indexed": true,
          "internalType": "bytes32",
          "name": "newAdminRole",
          "type": "bytes32"
        }
      ],
      "name": "RoleAdminChanged",
      "type": "event"
    },
    {
      "anonymous": false,
      "inputs": [
        {
          "indexed": true,
          "internalType": "bytes32",
          "name": "role",
          "type": "bytes32"
        },
        {
          "indexed": true,
          "internalType": "address",
          "name": "account",
          "type": "address"
        },
        {
          "indexed": true,
          "internalType": "address",
          "name": "sender",
          "type": "address"
        }
      ],
      "name": "RoleGranted",
      "type": "event"
    },
    {
      "anonymous": false,
      "inputs": [
        {
          "indexed": true,
          "internalType": "bytes32",
          "name": "role",
          "type": "bytes32"
        },
        {
          "indexed": true,
          "internalType": "address",
          "name": "account",
          "type": "address"
        },
        {
          "indexed": true,
          "internalType": "address",
          "name": "sender",
          "type": "address"
        }
      ],
      "name": "RoleRevoked",
      "type": "event"
    },
    {
      "inputs": [],
      "name": "DEFAULT_ADMIN_ROLE",
      "outputs": [
        {
          "internalType": "bytes32",
          "name": "",
          "type": "bytes32"
        }
      ],
      "stateMutability": "view",
      "type": "function"
    },
    {
      "inputs": [],
      "name": "FACTORY_ROLE",
      "outputs": [
        {
          "internalType": "bytes32",
          "name": "",
          "type": "bytes32"
        }
      ],
      "stateMutability": "view",
      "type": "function"
    },
    {
      "inputs": [],
      "name": "GOVERNANCE_ROLE",
      "outputs": [
        {
          "internalType": "bytes32",
          "name": "",
          "type": "bytes32"
        }
      ],
      "stateMutability": "view",
      "type": "function"
    },
    {
      "inputs": [
        {
          "internalType": "address",
          "name": "_vault",
          "type": "address"
        }
      ],
      "name": "addVault",
      "outputs": [],
      "stateMutability": "nonpayable",
      "type": "function"
    },
    {
      "inputs": [],
      "name": "businessAddress",
      "outputs": [
        {
          "internalType": "address",
          "name": "",
          "type": "address"
        }
      ],
      "stateMutability": "view",
      "type": "function"
    },
    {
      "inputs": [
        {
          "internalType": "uint256",
          "name": "amount",
          "type": "uint256"
        }
      ],
      "name": "deposit",
      "outputs": [],
      "stateMutability": "nonpayable",
      "type": "function"
    },
    {
      "inputs": [
        {
          "internalType": "bytes32",
          "name": "role",
          "type": "bytes32"
        }
      ],
      "name": "getRoleAdmin",
      "outputs": [
        {
          "internalType": "bytes32",
          "name": "",
          "type": "bytes32"
        }
      ],
      "stateMutability": "view",
      "type": "function"
    },
    {
      "inputs": [
        {
          "internalType": "address",
          "name": "factory",
          "type": "address"
        }
      ],
      "name": "grantFactoryRole",
      "outputs": [],
      "stateMutability": "nonpayable",
      "type": "function"
    },
    {
      "inputs": [
        {
          "internalType": "address",
          "name": "governance",
          "type": "address"
        }
      ],
      "name": "grantGovernanceRole",
      "outputs": [],
      "stateMutability": "nonpayable",
      "type": "function"
    },
    {
      "inputs": [
        {
          "internalType": "bytes32",
          "name": "role",
          "type": "bytes32"
        },
        {
          "internalType": "address",
          "name": "account",
          "type": "address"
        }
      ],
      "name": "grantRole",
      "outputs": [],
      "stateMutability": "nonpayable",
      "type": "function"
    },
    {
      "inputs": [
        {
          "internalType": "bytes32",
          "name": "role",
          "type": "bytes32"
        },
        {
          "internalType": "address",
          "name": "account",
          "type": "address"
        }
      ],
      "name": "hasRole",
      "outputs": [
        {
          "internalType": "bool",
          "name": "",
          "type": "bool"
        }
      ],
      "stateMutability": "view",
      "type": "function"
    },
    {
      "inputs": [
        {
          "internalType": "address",
          "name": "_usdcAddress",
          "type": "address"
        },
        {
          "internalType": "uint256",
          "name": "_reserveAmount",
          "type": "uint256"
        },
        {
          "internalType": "uint256",
          "name": "_nPercentage",
          "type": "uint256"
        },
        {
          "internalType": "address",
          "name": "_initialOwner",
          "type": "address"
        },
        {
          "internalType": "address",
          "name": "_businessAddress",
          "type": "address"
        },
        {
          "internalType": "address",
          "name": "_buildingFactory",
          "type": "address"
        }
      ],
      "name": "initialize",
      "outputs": [],
      "stateMutability": "nonpayable",
      "type": "function"
    },
    {
      "inputs": [],
      "name": "mPercentage",
      "outputs": [
        {
          "internalType": "uint256",
          "name": "",
          "type": "uint256"
        }
      ],
      "stateMutability": "view",
      "type": "function"
    },
    {
      "inputs": [
        {
          "internalType": "address",
          "name": "to",
          "type": "address"
        },
        {
          "internalType": "uint256",
          "name": "amount",
          "type": "uint256"
        }
      ],
      "name": "makePayment",
      "outputs": [],
      "stateMutability": "nonpayable",
      "type": "function"
    },
    {
      "inputs": [],
      "name": "nPercentage",
      "outputs": [
        {
          "internalType": "uint256",
          "name": "",
          "type": "uint256"
        }
      ],
      "stateMutability": "view",
      "type": "function"
    },
    {
      "inputs": [
        {
          "internalType": "bytes32",
          "name": "role",
          "type": "bytes32"
        },
        {
          "internalType": "address",
          "name": "callerConfirmation",
          "type": "address"
        }
      ],
      "name": "renounceRole",
      "outputs": [],
      "stateMutability": "nonpayable",
      "type": "function"
    },
    {
      "inputs": [],
      "name": "reserve",
      "outputs": [
        {
          "internalType": "uint256",
          "name": "",
          "type": "uint256"
        }
      ],
      "stateMutability": "view",
      "type": "function"
    },
    {
      "inputs": [
        {
          "internalType": "bytes32",
          "name": "role",
          "type": "bytes32"
        },
        {
          "internalType": "address",
          "name": "account",
          "type": "address"
        }
      ],
      "name": "revokeRole",
      "outputs": [],
      "stateMutability": "nonpayable",
      "type": "function"
    },
    {
      "inputs": [
        {
          "internalType": "uint256",
          "name": "newReserveAmount",
          "type": "uint256"
        }
      ],
      "name": "setReserveAmount",
      "outputs": [],
      "stateMutability": "nonpayable",
      "type": "function"
    },
    {
      "inputs": [
        {
          "internalType": "bytes4",
          "name": "interfaceId",
          "type": "bytes4"
        }
      ],
      "name": "supportsInterface",
      "outputs": [
        {
          "internalType": "bool",
          "name": "",
          "type": "bool"
        }
      ],
      "stateMutability": "view",
      "type": "function"
    },
    {
      "inputs": [],
      "name": "usdc",
      "outputs": [
        {
          "internalType": "address",
          "name": "",
          "type": "address"
        }
      ],
      "stateMutability": "view",
      "type": "function"
    },
    {
      "inputs": [],
      "name": "vault",
      "outputs": [
        {
          "internalType": "address",
          "name": "",
          "type": "address"
        }
      ],
      "stateMutability": "view",
      "type": "function"
    }
  ],
  "bytecode": "0x608060405234801561001057600080fd5b5061001961001e565b6100d0565b7ff0c57e16840df040f15088dc2f81fe391c3923bec73e23a9662efc9c229c6a00805468010000000000000000900460ff161561006e5760405163f92ee8a960e01b815260040160405180910390fd5b80546001600160401b03908116146100cd5780546001600160401b0319166001600160401b0390811782556040519081527fc7f505b2f371ae2175ee4913f4499e1f2633a7b5936321eed1cdaeb6115181d29060200160405180910390a15b50565b6115e7806100df6000396000f3fe608060405234801561001057600080fd5b50600436106101425760003560e01c806385bb0e38116100b8578063b6b55f251161007c578063b6b55f2514610274578063cd3293de14610287578063d547741f1461028f578063f36c8f5c146102a2578063f98cf07c146102b7578063fbfa77cf146102ca57600080fd5b806385bb0e381461022b5780638c4a38151461023357806391d1485414610246578063a217fddf14610259578063b5fd7d4c1461026157600080fd5b8063248a9ca31161010a578063248a9ca3146101c4578063256b5a02146101d75780632f2ff15d146101ea57806336568abe146101fd5780633e413bee14610210578063603607001461021857600080fd5b806301ffc9a714610147578063047bf6741461016f57806304a0fb171461018557806311917b1d1461019a5780631583deb2146101af575b600080fd5b61015a61015536600461127b565b6102d2565b60405190151581526020015b60405180910390f35b610177610309565b604051908152602001610166565b61017760008051602061159283398151915281565b6101ad6101a83660046112c1565b61031e565b005b6101b76105c4565b6040516101669190611327565b6101776101d236600461133b565b6105e2565b6101ad6101e5366004611354565b610602565b6101ad6101f836600461136f565b61064a565b6101ad61020b36600461136f565b61066c565b6101b76106a4565b6101ad610226366004611354565b6106bf565b610177610715565b6101ad61024136600461133b565b61072a565b61015a61025436600461136f565b61077d565b610177600081565b6101ad61026f366004611354565b6107b3565b6101ad61028236600461133b565b610826565b6101776108ac565b6101ad61029d36600461136f565b6108c1565b61017760008051602061157283398151915281565b6101ad6102c536600461139b565b6108dd565b6101b7610a96565b60006001600160e01b03198216637965db0b60e01b148061030357506301ffc9a760e01b6001600160e01b03198316145b92915050565b600080610314610ab4565b6005015492915050565b7ff0c57e16840df040f15088dc2f81fe391c3923bec73e23a9662efc9c229c6a008054600160401b810460ff16159067ffffffffffffffff166000811580156103645750825b905060008267ffffffffffffffff1660011480156103815750303b155b90508115801561038f575080155b156103ad5760405163f92ee8a960e01b815260040160405180910390fd5b845467ffffffffffffffff1916600117855583156103d757845460ff60401b1916600160401b1785555b6001600160a01b038b166104295760405162461bcd60e51b8152602060048201526014602482015273496e76616c69642055534443206164647265737360601b60448201526064015b60405180910390fd5b6001600160a01b03881661044f5760405162461bcd60e51b8152600401610420906113c5565b6127108911156104985760405162461bcd60e51b8152602060048201526014602482015273496e76616c6964204e2070657263656e7461676560601b6044820152606401610420565b60008a116104b85760405162461bcd60e51b8152600401610420906113fc565b60006104c2610ab4565b80546001600160a01b0319166001600160a01b038e16178155600381018c9055600481018b905590506104f78a61271061145a565b60058201556006810180546001600160a01b0319166001600160a01b038a1617905561052460008a610ad8565b5061053d60008051602061159283398151915288610ad8565b506105566000805160206115928339815191528a610ad8565b5061056f6000805160206115728339815191528a610ad8565b505083156105b757845460ff60401b19168555604051600181527fc7f505b2f371ae2175ee4913f4499e1f2633a7b5936321eed1cdaeb6115181d29060200160405180910390a15b5050505050505050505050565b6000806105cf610ab4565b600601546001600160a01b031692915050565b6000806105ed610b79565b60009384526020525050604090206001015490565b60008051602061159283398151915261061a81610b9d565b6000610624610ab4565b60020180546001600160a01b0319166001600160a01b0394909416939093179092555050565b610653826105e2565b61065c81610b9d565b6106668383610ad8565b50505050565b6001600160a01b03811633146106955760405163334bd91960e11b815260040160405180910390fd5b61069f8282610baa565b505050565b6000806106af610ab4565b546001600160a01b031692915050565b6000805160206115928339815191526106d781610b9d565b6001600160a01b0382166106fd5760405162461bcd60e51b8152600401610420906113c5565b61069f60008051602061157283398151915283610ad8565b600080610720610ab4565b6004015492915050565b60008051602061157283398151915261074281610b9d565b600082116107625760405162461bcd60e51b8152600401610420906113fc565b600061076c610ab4565b60038101849055905061069f610c22565b600080610788610b79565b6000948552602090815260408086206001600160a01b03959095168652939052505090205460ff1690565b60006107be81610b9d565b6001600160a01b03821661080e5760405162461bcd60e51b8152602060048201526017602482015276496e76616c696420666163746f7279206164647265737360481b6044820152606401610420565b61069f60008051602061159283398151915283610ad8565b600081116108465760405162461bcd60e51b81526004016104209061146d565b6000610850610ab4565b805490915061086a906001600160a01b0316333085610ddc565b60405182815233907fe1fffcc4923d04b559f4d29a8bfc6cda04eb5b0d3c460751c2402c5c5cc9109c9060200160405180910390a26108a882610e43565b5050565b6000806108b7610ab4565b6003015492915050565b6108ca826105e2565b6108d381610b9d565b6106668383610baa565b6000805160206115728339815191526108f581610b9d565b6001600160a01b0383166109475760405162461bcd60e51b8152602060048201526019602482015278496e76616c696420726563697069656e74206164647265737360381b6044820152606401610420565b600082116109675760405162461bcd60e51b81526004016104209061146d565b6000610971610ab4565b80546040516370a0823160e01b81529192506000916001600160a01b03909116906370a08231906109a6903090600401611327565b602060405180830381865afa1580156109c3573d6000803e3d6000fd5b505050506040513d601f19601f820116820180604052508101906109e791906114a2565b905083811015610a2e5760405162461bcd60e51b8152602060048201526012602482015271496e73756666696369656e742066756e647360701b6044820152606401610420565b8154610a44906001600160a01b03168686610ede565b846001600160a01b03167fd4f43975feb89f48dd30cabbb32011045be187d1e11c8ea9faa43efc3528251985604051610a7f91815260200190565b60405180910390a2610a8f610c22565b5050505050565b600080610aa1610ab4565b600201546001600160a01b031692915050565b7f72a4ccd47996c0aa9e54efd606e03b13bee57794bd0974b6dda8fcd457f3770090565b600080610ae3610b79565b9050610aef848461077d565b610b6f576000848152602082815260408083206001600160a01b03871684529091529020805460ff19166001179055610b253390565b6001600160a01b0316836001600160a01b0316857f2f8788117e7eff1d82e926ec794901d17c78024a50270940304540a733656f0d60405160405180910390a46001915050610303565b6000915050610303565b7f02dd7bc7dec4dceedda775e58dd541e08a116c6c53815c0bd028192f7b62680090565b610ba78133610f04565b50565b600080610bb5610b79565b9050610bc1848461077d565b15610b6f576000848152602082815260408083206001600160a01b0387168085529252808320805460ff1916905551339287917ff6391f5c32d9c69d2a47ea670b442974b53935d1edc7fd64eb21e047a839171b9190a46001915050610303565b6000610c2c610ab4565b60028101549091506001600160a01b0316610c835760405162461bcd60e51b8152602060048201526017602482015276151c99585cdd5c9e4e881b5a5cdcda5b99c81d985d5b1d604a1b6044820152606401610420565b80546040516370a0823160e01b81526000916001600160a01b0316906370a0823190610cb3903090600401611327565b602060405180830381865afa158015610cd0573d6000803e3d6000fd5b505050506040513d601f19601f82011682018060405250810190610cf491906114a2565b905081600301548111156108a8576000826003015482610d14919061145a565b60028401548454919250610d35916001600160a01b03908116911683610f2f565b600283015483546040516309feb8f560e41b81526001600160a01b0392831692639feb8f5092610d6c9291169085906004016114bb565b600060405180830381600087803b158015610d8657600080fd5b505af1158015610d9a573d6000803e3d6000fd5b505050507f0f667efc3742e4603daefd5701e8a80813b86ed2ad102d1dec5c9840af7926da81604051610dcf91815260200190565b60405180910390a1505050565b6040516001600160a01b0384811660248301528381166044830152606482018390526106669186918216906323b872dd906084015b604051602081830303815290604052915060e01b6020820180516001600160e01b038381831617835250505050610fb9565b6000610e4d610ab4565b90506000612710826004015484610e6491906114d4565b610e6e91906114eb565b90506000610e7c828561145a565b60068401548454919250610e9d916001600160a01b03908116911684610ede565b60408051838152602081018390527f40d8c854b6d5329fd5fccae04f5a931d7529963fbab81aced7337394e737cb4d910160405180910390a1610666610c22565b61069f83846001600160a01b031663a9059cbb8585604051602401610e119291906114bb565b610f0e828261077d565b6108a857808260405163e2517d3f60e01b81526004016104209291906114bb565b604051636eb1769f60e11b81523060048201526001600160a01b0383811660248301526000919085169063dd62ed3e90604401602060405180830381865afa158015610f7f573d6000803e3d6000fd5b505050506040513d601f19601f82011682018060405250810190610fa391906114a2565b90506106668484610fb4858561150d565b611013565b6000610fce6001600160a01b038416836110a5565b90508051600014158015610ff3575080806020019051810190610ff19190611520565b155b1561069f5782604051635274afe760e01b81526004016104209190611327565b6000836001600160a01b031663095ea7b384846040516024016110379291906114bb565b604051602081830303815290604052915060e01b6020820180516001600160e01b038381831617835250505050905061107084826110ba565b6106665761109b84856001600160a01b031663095ea7b3866000604051602401610e119291906114bb565b6106668482610fb9565b60606110b383836000611162565b9392505050565b6000806000846001600160a01b0316846040516110d79190611542565b6000604051808303816000865af19150503d8060008114611114576040519150601f19603f3d011682016040523d82523d6000602084013e611119565b606091505b50915091508180156111435750805115806111435750808060200190518101906111439190611520565b801561115957506000856001600160a01b03163b115b95945050505050565b606081471015611187573060405163cd78605960e01b81526004016104209190611327565b600080856001600160a01b031684866040516111a39190611542565b60006040518083038185875af1925050503d80600081146111e0576040519150601f19603f3d011682016040523d82523d6000602084013e6111e5565b606091505b50915091506111f58683836111ff565b9695505050505050565b6060826112145761120f82611252565b6110b3565b815115801561122b57506001600160a01b0384163b155b1561124b5783604051639996b31560e01b81526004016104209190611327565b50806110b3565b8051156112625780518082602001fd5b604051630a12f52160e11b815260040160405180910390fd5b60006020828403121561128d57600080fd5b81356001600160e01b0319811681146110b357600080fd5b80356001600160a01b03811681146112bc57600080fd5b919050565b60008060008060008060c087890312156112da57600080fd5b6112e3876112a5565b955060208701359450604087013593506112ff606088016112a5565b925061130d608088016112a5565b915061131b60a088016112a5565b90509295509295509295565b6001600160a01b0391909116815260200190565b60006020828403121561134d57600080fd5b5035919050565b60006020828403121561136657600080fd5b6110b3826112a5565b6000806040838503121561138257600080fd5b82359150611392602084016112a5565b90509250929050565b600080604083850312156113ae57600080fd5b6113b7836112a5565b946020939093013593505050565b6020808252601a908201527f496e76616c696420676f7665726e616e63652061646472657373000000000000604082015260600190565b60208082526028908201527f5265736572766520616d6f756e74206d7573742062652067726561746572207460408201526768616e207a65726f60c01b606082015260800190565b634e487b7160e01b600052601160045260246000fd5b8181038181111561030357610303611444565b6020808252818101527f416d6f756e74206d7573742062652067726561746572207468616e207a65726f604082015260600190565b6000602082840312156114b457600080fd5b5051919050565b6001600160a01b03929092168252602082015260400190565b808202811582820484141761030357610303611444565b60008261150857634e487b7160e01b600052601260045260246000fd5b500490565b8082018082111561030357610303611444565b60006020828403121561153257600080fd5b815180151581146110b357600080fd5b6000825160005b818110156115635760208186018101518583015201611549565b50600092019182525091905056fe71840dc4906352362b0cdaf79870196c8e42acafade72d5d5a6d59291253ceb1dfbefbf47cfe66b701d8cfdbce1de81c821590819cb07e71cb01b6602fb0ee27a26469706673582212202da3298a312643e7ad5a6874e9946a03ad720a2dc8f617aeb8fccefe25d710d864736f6c63430008180033",
  "linkReferences": {},
  "deployedLinkReferences": {}
}