{
  "_format": "hh-sol-artifact-1",
  "contractName": "Treasury",
  "sourceName": "contracts/treasury/Treasury.sol",
  "abi": [
    {
      "inputs": [],
      "stateMutability": "nonpayable",
      "type": "constructor"
    },
    {
      "inputs": [],
      "name": "AccessControlBadConfirmation",
      "type": "error"
    },
    {
      "inputs": [
        {
          "internalType": "address",
          "name": "account",
          "type": "address"
        },
        {
          "internalType": "bytes32",
          "name": "neededRole",
          "type": "bytes32"
        }
      ],
      "name": "AccessControlUnauthorizedAccount",
      "type": "error"
    },
    {
      "inputs": [
        {
          "internalType": "address",
          "name": "target",
          "type": "address"
        }
      ],
      "name": "AddressEmptyCode",
      "type": "error"
    },
    {
      "inputs": [
        {
          "internalType": "address",
          "name": "account",
          "type": "address"
        }
      ],
      "name": "AddressInsufficientBalance",
      "type": "error"
    },
    {
      "inputs": [],
      "name": "FailedInnerCall",
      "type": "error"
    },
    {
      "inputs": [],
      "name": "InvalidInitialization",
      "type": "error"
    },
    {
      "inputs": [],
      "name": "NotInitializing",
      "type": "error"
    },
    {
      "inputs": [
        {
          "internalType": "address",
          "name": "token",
          "type": "address"
        }
      ],
      "name": "SafeERC20FailedOperation",
      "type": "error"
    },
    {
      "anonymous": false,
      "inputs": [
        {
          "indexed": true,
          "internalType": "address",
          "name": "from",
          "type": "address"
        },
        {
          "indexed": false,
          "internalType": "uint256",
          "name": "amount",
          "type": "uint256"
        }
      ],
      "name": "Deposit",
      "type": "event"
    },
    {
      "anonymous": false,
      "inputs": [
        {
          "indexed": false,
          "internalType": "uint256",
          "name": "amount",
          "type": "uint256"
        }
      ],
      "name": "ExcessFundsForwarded",
      "type": "event"
    },
    {
      "anonymous": false,
      "inputs": [
        {
          "indexed": false,
          "internalType": "uint256",
          "name": "toBusiness",
          "type": "uint256"
        },
        {
          "indexed": false,
          "internalType": "uint256",
          "name": "toTreasury",
          "type": "uint256"
        }
      ],
      "name": "FundsDistributed",
      "type": "event"
    },
    {
      "anonymous": false,
      "inputs": [
        {
          "indexed": false,
          "internalType": "uint64",
          "name": "version",
          "type": "uint64"
        }
      ],
      "name": "Initialized",
      "type": "event"
    },
    {
      "anonymous": false,
      "inputs": [
        {
          "indexed": true,
          "internalType": "address",
          "name": "to",
          "type": "address"
        },
        {
          "indexed": false,
          "internalType": "uint256",
          "name": "amount",
          "type": "uint256"
        }
      ],
      "name": "Payment",
      "type": "event"
    },
    {
      "anonymous": false,
      "inputs": [
        {
          "indexed": true,
          "internalType": "bytes32",
          "name": "role",
          "type": "bytes32"
        },
        {
          "indexed": true,
          "internalType": "bytes32",
          "name": "previousAdminRole",
          "type": "bytes32"
        },
        {
          "indexed": true,
          "internalType": "bytes32",
          "name": "newAdminRole",
          "type": "bytes32"
        }
      ],
      "name": "RoleAdminChanged",
      "type": "event"
    },
    {
      "anonymous": false,
      "inputs": [
        {
          "indexed": true,
          "internalType": "bytes32",
          "name": "role",
          "type": "bytes32"
        },
        {
          "indexed": true,
          "internalType": "address",
          "name": "account",
          "type": "address"
        },
        {
          "indexed": true,
          "internalType": "address",
          "name": "sender",
          "type": "address"
        }
      ],
      "name": "RoleGranted",
      "type": "event"
    },
    {
      "anonymous": false,
      "inputs": [
        {
          "indexed": true,
          "internalType": "bytes32",
          "name": "role",
          "type": "bytes32"
        },
        {
          "indexed": true,
          "internalType": "address",
          "name": "account",
          "type": "address"
        },
        {
          "indexed": true,
          "internalType": "address",
          "name": "sender",
          "type": "address"
        }
      ],
      "name": "RoleRevoked",
      "type": "event"
    },
    {
      "inputs": [],
      "name": "DEFAULT_ADMIN_ROLE",
      "outputs": [
        {
          "internalType": "bytes32",
          "name": "",
          "type": "bytes32"
        }
      ],
      "stateMutability": "view",
      "type": "function"
    },
    {
      "inputs": [],
      "name": "FACTORY_ROLE",
      "outputs": [
        {
          "internalType": "bytes32",
          "name": "",
          "type": "bytes32"
        }
      ],
      "stateMutability": "view",
      "type": "function"
    },
    {
      "inputs": [],
      "name": "GOVERNANCE_ROLE",
      "outputs": [
        {
          "internalType": "bytes32",
          "name": "",
          "type": "bytes32"
        }
      ],
      "stateMutability": "view",
      "type": "function"
    },
    {
      "inputs": [
        {
          "internalType": "address",
          "name": "_vault",
          "type": "address"
        }
      ],
      "name": "addVault",
      "outputs": [],
      "stateMutability": "nonpayable",
      "type": "function"
    },
    {
      "inputs": [
        {
          "internalType": "uint256",
          "name": "amount",
          "type": "uint256"
        }
      ],
      "name": "deposit",
      "outputs": [],
      "stateMutability": "nonpayable",
      "type": "function"
    },
    {
      "inputs": [
        {
          "internalType": "bytes32",
          "name": "role",
          "type": "bytes32"
        }
      ],
      "name": "getRoleAdmin",
      "outputs": [
        {
          "internalType": "bytes32",
          "name": "",
          "type": "bytes32"
        }
      ],
      "stateMutability": "view",
      "type": "function"
    },
    {
      "inputs": [
        {
          "internalType": "address",
          "name": "factory",
          "type": "address"
        }
      ],
      "name": "grantFactoryRole",
      "outputs": [],
      "stateMutability": "nonpayable",
      "type": "function"
    },
    {
      "inputs": [
        {
          "internalType": "address",
          "name": "governance",
          "type": "address"
        }
      ],
      "name": "grantGovernanceRole",
      "outputs": [],
      "stateMutability": "nonpayable",
      "type": "function"
    },
    {
      "inputs": [
        {
          "internalType": "bytes32",
          "name": "role",
          "type": "bytes32"
        },
        {
          "internalType": "address",
          "name": "account",
          "type": "address"
        }
      ],
      "name": "grantRole",
      "outputs": [],
      "stateMutability": "nonpayable",
      "type": "function"
    },
    {
      "inputs": [
        {
          "internalType": "bytes32",
          "name": "role",
          "type": "bytes32"
        },
        {
          "internalType": "address",
          "name": "account",
          "type": "address"
        }
      ],
      "name": "hasRole",
      "outputs": [
        {
          "internalType": "bool",
          "name": "",
          "type": "bool"
        }
      ],
      "stateMutability": "view",
      "type": "function"
    },
    {
      "inputs": [
        {
          "internalType": "address",
          "name": "_usdcAddress",
          "type": "address"
        },
        {
          "internalType": "uint256",
          "name": "_reserveAmount",
          "type": "uint256"
        },
        {
          "internalType": "uint256",
          "name": "_nPercentage",
          "type": "uint256"
        },
        {
          "internalType": "address",
          "name": "_initialOwner",
          "type": "address"
        },
        {
          "internalType": "address",
          "name": "_businessAddress",
          "type": "address"
        },
        {
          "internalType": "address",
          "name": "_buildingFactory",
          "type": "address"
        }
      ],
      "name": "initialize",
      "outputs": [],
      "stateMutability": "nonpayable",
      "type": "function"
    },
    {
      "inputs": [
        {
          "internalType": "address",
          "name": "to",
          "type": "address"
        },
        {
          "internalType": "uint256",
          "name": "amount",
          "type": "uint256"
        }
      ],
      "name": "makePayment",
      "outputs": [],
      "stateMutability": "nonpayable",
      "type": "function"
    },
    {
      "inputs": [
        {
          "internalType": "bytes32",
          "name": "role",
          "type": "bytes32"
        },
        {
          "internalType": "address",
          "name": "callerConfirmation",
          "type": "address"
        }
      ],
      "name": "renounceRole",
      "outputs": [],
      "stateMutability": "nonpayable",
      "type": "function"
    },
    {
      "inputs": [],
      "name": "reserve",
      "outputs": [
        {
          "internalType": "uint256",
          "name": "",
          "type": "uint256"
        }
      ],
      "stateMutability": "view",
      "type": "function"
    },
    {
      "inputs": [
        {
          "internalType": "bytes32",
          "name": "role",
          "type": "bytes32"
        },
        {
          "internalType": "address",
          "name": "account",
          "type": "address"
        }
      ],
      "name": "revokeRole",
      "outputs": [],
      "stateMutability": "nonpayable",
      "type": "function"
    },
    {
      "inputs": [
        {
          "internalType": "uint256",
          "name": "newReserveAmount",
          "type": "uint256"
        }
      ],
      "name": "setReserveAmount",
      "outputs": [],
      "stateMutability": "nonpayable",
      "type": "function"
    },
    {
      "inputs": [
        {
          "internalType": "bytes4",
          "name": "interfaceId",
          "type": "bytes4"
        }
      ],
      "name": "supportsInterface",
      "outputs": [
        {
          "internalType": "bool",
          "name": "",
          "type": "bool"
        }
      ],
      "stateMutability": "view",
      "type": "function"
    },
    {
      "inputs": [],
      "name": "usdc",
      "outputs": [
        {
          "internalType": "address",
          "name": "",
          "type": "address"
        }
      ],
      "stateMutability": "view",
      "type": "function"
    },
    {
      "inputs": [],
      "name": "vault",
      "outputs": [
        {
          "internalType": "address",
          "name": "",
          "type": "address"
        }
      ],
      "stateMutability": "view",
      "type": "function"
    }
  ],
  "bytecode": "0x608060405234801561001057600080fd5b5061001961001e565b6100d0565b7ff0c57e16840df040f15088dc2f81fe391c3923bec73e23a9662efc9c229c6a00805468010000000000000000900460ff161561006e5760405163f92ee8a960e01b815260040160405180910390fd5b80546001600160401b03908116146100cd5780546001600160401b0319166001600160401b0390811782556040519081527fc7f505b2f371ae2175ee4913f4499e1f2633a7b5936321eed1cdaeb6115181d29060200160405180910390a15b50565b611556806100df6000396000f3fe608060405234801561001057600080fd5b50600436106101115760003560e01c80638c4a3815116100ad578063cd3293de11610071578063cd3293de1461023e578063d547741f14610246578063f36c8f5c14610259578063f98cf07c1461026e578063fbfa77cf1461028157600080fd5b80638c4a3815146101ea57806391d14854146101fd578063a217fddf14610210578063b5fd7d4c14610218578063b6b55f251461022b57600080fd5b806301ffc9a71461011657806304a0fb171461013e57806311917b1d14610161578063248a9ca314610176578063256b5a02146101895780632f2ff15d1461019c57806336568abe146101af5780633e413bee146101c257806360360700146101d7575b600080fd5b6101296101243660046111ea565b610289565b60405190151581526020015b60405180910390f35b61015360008051602061150183398151915281565b604051908152602001610135565b61017461016f366004611230565b6102c0565b005b610153610184366004611296565b610566565b6101746101973660046112af565b610586565b6101746101aa3660046112ca565b6105ce565b6101746101bd3660046112ca565b6105f0565b6101ca610628565b60405161013591906112f6565b6101746101e53660046112af565b610643565b6101746101f8366004611296565b610699565b61012961020b3660046112ca565b6106ec565b610153600081565b6101746102263660046112af565b610722565b610174610239366004611296565b610795565b61015361081b565b6101746102543660046112ca565b610830565b6101536000805160206114e183398151915281565b61017461027c36600461130a565b61084c565b6101ca610a05565b60006001600160e01b03198216637965db0b60e01b14806102ba57506301ffc9a760e01b6001600160e01b03198316145b92915050565b7ff0c57e16840df040f15088dc2f81fe391c3923bec73e23a9662efc9c229c6a008054600160401b810460ff16159067ffffffffffffffff166000811580156103065750825b905060008267ffffffffffffffff1660011480156103235750303b155b905081158015610331575080155b1561034f5760405163f92ee8a960e01b815260040160405180910390fd5b845467ffffffffffffffff19166001178555831561037957845460ff60401b1916600160401b1785555b6001600160a01b038b166103cb5760405162461bcd60e51b8152602060048201526014602482015273496e76616c69642055534443206164647265737360601b60448201526064015b60405180910390fd5b6001600160a01b0388166103f15760405162461bcd60e51b81526004016103c290611334565b61271089111561043a5760405162461bcd60e51b8152602060048201526014602482015273496e76616c6964204e2070657263656e7461676560601b60448201526064016103c2565b60008a1161045a5760405162461bcd60e51b81526004016103c29061136b565b6000610464610a23565b80546001600160a01b0319166001600160a01b038e16178155600381018c9055600481018b905590506104998a6127106113c9565b60058201556006810180546001600160a01b0319166001600160a01b038a161790556104c660008a610a47565b506104df60008051602061150183398151915288610a47565b506104f86000805160206115018339815191528a610a47565b506105116000805160206114e18339815191528a610a47565b5050831561055957845460ff60401b19168555604051600181527fc7f505b2f371ae2175ee4913f4499e1f2633a7b5936321eed1cdaeb6115181d29060200160405180910390a15b5050505050505050505050565b600080610571610ae8565b60009384526020525050604090206001015490565b60008051602061150183398151915261059e81610b0c565b60006105a8610a23565b60020180546001600160a01b0319166001600160a01b0394909416939093179092555050565b6105d782610566565b6105e081610b0c565b6105ea8383610a47565b50505050565b6001600160a01b03811633146106195760405163334bd91960e11b815260040160405180910390fd5b6106238282610b19565b505050565b600080610633610a23565b546001600160a01b031692915050565b60008051602061150183398151915261065b81610b0c565b6001600160a01b0382166106815760405162461bcd60e51b81526004016103c290611334565b6106236000805160206114e183398151915283610a47565b6000805160206114e18339815191526106b181610b0c565b600082116106d15760405162461bcd60e51b81526004016103c29061136b565b60006106db610a23565b600381018490559050610623610b91565b6000806106f7610ae8565b6000948552602090815260408086206001600160a01b03959095168652939052505090205460ff1690565b600061072d81610b0c565b6001600160a01b03821661077d5760405162461bcd60e51b8152602060048201526017602482015276496e76616c696420666163746f7279206164647265737360481b60448201526064016103c2565b61062360008051602061150183398151915283610a47565b600081116107b55760405162461bcd60e51b81526004016103c2906113dc565b60006107bf610a23565b80549091506107d9906001600160a01b0316333085610d4b565b60405182815233907fe1fffcc4923d04b559f4d29a8bfc6cda04eb5b0d3c460751c2402c5c5cc9109c9060200160405180910390a261081782610db2565b5050565b600080610826610a23565b6003015492915050565b61083982610566565b61084281610b0c565b6105ea8383610b19565b6000805160206114e183398151915261086481610b0c565b6001600160a01b0383166108b65760405162461bcd60e51b8152602060048201526019602482015278496e76616c696420726563697069656e74206164647265737360381b60448201526064016103c2565b600082116108d65760405162461bcd60e51b81526004016103c2906113dc565b60006108e0610a23565b80546040516370a0823160e01b81529192506000916001600160a01b03909116906370a08231906109159030906004016112f6565b602060405180830381865afa158015610932573d6000803e3d6000fd5b505050506040513d601f19601f820116820180604052508101906109569190611411565b90508381101561099d5760405162461bcd60e51b8152602060048201526012602482015271496e73756666696369656e742066756e647360701b60448201526064016103c2565b81546109b3906001600160a01b03168686610e4d565b846001600160a01b03167fd4f43975feb89f48dd30cabbb32011045be187d1e11c8ea9faa43efc35282519856040516109ee91815260200190565b60405180910390a26109fe610b91565b5050505050565b600080610a10610a23565b600201546001600160a01b031692915050565b7f72a4ccd47996c0aa9e54efd606e03b13bee57794bd0974b6dda8fcd457f3770090565b600080610a52610ae8565b9050610a5e84846106ec565b610ade576000848152602082815260408083206001600160a01b03871684529091529020805460ff19166001179055610a943390565b6001600160a01b0316836001600160a01b0316857f2f8788117e7eff1d82e926ec794901d17c78024a50270940304540a733656f0d60405160405180910390a460019150506102ba565b60009150506102ba565b7f02dd7bc7dec4dceedda775e58dd541e08a116c6c53815c0bd028192f7b62680090565b610b168133610e73565b50565b600080610b24610ae8565b9050610b3084846106ec565b15610ade576000848152602082815260408083206001600160a01b0387168085529252808320805460ff1916905551339287917ff6391f5c32d9c69d2a47ea670b442974b53935d1edc7fd64eb21e047a839171b9190a460019150506102ba565b6000610b9b610a23565b60028101549091506001600160a01b0316610bf25760405162461bcd60e51b8152602060048201526017602482015276151c99585cdd5c9e4e881b5a5cdcda5b99c81d985d5b1d604a1b60448201526064016103c2565b80546040516370a0823160e01b81526000916001600160a01b0316906370a0823190610c229030906004016112f6565b602060405180830381865afa158015610c3f573d6000803e3d6000fd5b505050506040513d601f19601f82011682018060405250810190610c639190611411565b90508160030154811115610817576000826003015482610c8391906113c9565b60028401548454919250610ca4916001600160a01b03908116911683610e9e565b600283015483546040516309feb8f560e41b81526001600160a01b0392831692639feb8f5092610cdb92911690859060040161142a565b600060405180830381600087803b158015610cf557600080fd5b505af1158015610d09573d6000803e3d6000fd5b505050507f0f667efc3742e4603daefd5701e8a80813b86ed2ad102d1dec5c9840af7926da81604051610d3e91815260200190565b60405180910390a1505050565b6040516001600160a01b0384811660248301528381166044830152606482018390526105ea9186918216906323b872dd906084015b604051602081830303815290604052915060e01b6020820180516001600160e01b038381831617835250505050610f28565b6000610dbc610a23565b90506000612710826004015484610dd39190611443565b610ddd919061145a565b90506000610deb82856113c9565b60068401548454919250610e0c916001600160a01b03908116911684610e4d565b60408051838152602081018390527f40d8c854b6d5329fd5fccae04f5a931d7529963fbab81aced7337394e737cb4d910160405180910390a16105ea610b91565b61062383846001600160a01b031663a9059cbb8585604051602401610d8092919061142a565b610e7d82826106ec565b61081757808260405163e2517d3f60e01b81526004016103c292919061142a565b604051636eb1769f60e11b81523060048201526001600160a01b0383811660248301526000919085169063dd62ed3e90604401602060405180830381865afa158015610eee573d6000803e3d6000fd5b505050506040513d601f19601f82011682018060405250810190610f129190611411565b90506105ea8484610f23858561147c565b610f82565b6000610f3d6001600160a01b03841683611014565b90508051600014158015610f62575080806020019051810190610f60919061148f565b155b156106235782604051635274afe760e01b81526004016103c291906112f6565b6000836001600160a01b031663095ea7b38484604051602401610fa692919061142a565b604051602081830303815290604052915060e01b6020820180516001600160e01b0383818316178352505050509050610fdf8482611029565b6105ea5761100a84856001600160a01b031663095ea7b3866000604051602401610d8092919061142a565b6105ea8482610f28565b6060611022838360006110d1565b9392505050565b6000806000846001600160a01b03168460405161104691906114b1565b6000604051808303816000865af19150503d8060008114611083576040519150601f19603f3d011682016040523d82523d6000602084013e611088565b606091505b50915091508180156110b25750805115806110b25750808060200190518101906110b2919061148f565b80156110c857506000856001600160a01b03163b115b95945050505050565b6060814710156110f6573060405163cd78605960e01b81526004016103c291906112f6565b600080856001600160a01b0316848660405161111291906114b1565b60006040518083038185875af1925050503d806000811461114f576040519150601f19603f3d011682016040523d82523d6000602084013e611154565b606091505b509150915061116486838361116e565b9695505050505050565b6060826111835761117e826111c1565b611022565b815115801561119a57506001600160a01b0384163b155b156111ba5783604051639996b31560e01b81526004016103c291906112f6565b5080611022565b8051156111d15780518082602001fd5b604051630a12f52160e11b815260040160405180910390fd5b6000602082840312156111fc57600080fd5b81356001600160e01b03198116811461102257600080fd5b80356001600160a01b038116811461122b57600080fd5b919050565b60008060008060008060c0878903121561124957600080fd5b61125287611214565b9550602087013594506040870135935061126e60608801611214565b925061127c60808801611214565b915061128a60a08801611214565b90509295509295509295565b6000602082840312156112a857600080fd5b5035919050565b6000602082840312156112c157600080fd5b61102282611214565b600080604083850312156112dd57600080fd5b823591506112ed60208401611214565b90509250929050565b6001600160a01b0391909116815260200190565b6000806040838503121561131d57600080fd5b61132683611214565b946020939093013593505050565b6020808252601a908201527f496e76616c696420676f7665726e616e63652061646472657373000000000000604082015260600190565b60208082526028908201527f5265736572766520616d6f756e74206d7573742062652067726561746572207460408201526768616e207a65726f60c01b606082015260800190565b634e487b7160e01b600052601160045260246000fd5b818103818111156102ba576102ba6113b3565b6020808252818101527f416d6f756e74206d7573742062652067726561746572207468616e207a65726f604082015260600190565b60006020828403121561142357600080fd5b5051919050565b6001600160a01b03929092168252602082015260400190565b80820281158282048414176102ba576102ba6113b3565b60008261147757634e487b7160e01b600052601260045260246000fd5b500490565b808201808211156102ba576102ba6113b3565b6000602082840312156114a157600080fd5b8151801515811461102257600080fd5b6000825160005b818110156114d257602081860181015185830152016114b8565b50600092019182525091905056fe71840dc4906352362b0cdaf79870196c8e42acafade72d5d5a6d59291253ceb1dfbefbf47cfe66b701d8cfdbce1de81c821590819cb07e71cb01b6602fb0ee27a2646970667358221220f655299b4b9f087e7b9f9440938f34213e851fe820d982b884e8f4468af7e67f64736f6c63430008180033",
  "linkReferences": {},
  "deployedLinkReferences": {}
}