{
  "_format": "hh-sol-artifact-1",
  "contractName": "TREXFactory",
  "sourceName": "contracts/erc3643/factory/TREXFactory.sol",
  "abi": [
    {
      "inputs": [
        {
          "internalType": "address",
          "name": "implementationAuthority_",
          "type": "address"
        },
        {
          "internalType": "address",
          "name": "idFactory_",
          "type": "address"
        }
      ],
      "stateMutability": "nonpayable",
      "type": "constructor"
    },
    {
      "inputs": [
        {
          "internalType": "address",
          "name": "owner",
          "type": "address"
        }
      ],
      "name": "OwnableInvalidOwner",
      "type": "error"
    },
    {
      "inputs": [
        {
          "internalType": "address",
          "name": "account",
          "type": "address"
        }
      ],
      "name": "OwnableUnauthorizedAccount",
      "type": "error"
    },
    {
      "anonymous": false,
      "inputs": [
        {
          "indexed": true,
          "internalType": "address",
          "name": "_addr",
          "type": "address"
        }
      ],
      "name": "Deployed",
      "type": "event"
    },
    {
      "anonymous": false,
      "inputs": [
        {
          "indexed": false,
          "internalType": "address",
          "name": "_idFactory",
          "type": "address"
        }
      ],
      "name": "IdFactorySet",
      "type": "event"
    },
    {
      "anonymous": false,
      "inputs": [
        {
          "indexed": false,
          "internalType": "address",
          "name": "_implementationAuthority",
          "type": "address"
        }
      ],
      "name": "ImplementationAuthoritySet",
      "type": "event"
    },
    {
      "anonymous": false,
      "inputs": [
        {
          "indexed": true,
          "internalType": "address",
          "name": "previousOwner",
          "type": "address"
        },
        {
          "indexed": true,
          "internalType": "address",
          "name": "newOwner",
          "type": "address"
        }
      ],
      "name": "OwnershipTransferred",
      "type": "event"
    },
    {
      "anonymous": false,
      "inputs": [
        {
          "indexed": true,
          "internalType": "address",
          "name": "_token",
          "type": "address"
        },
        {
          "indexed": false,
          "internalType": "address",
          "name": "_ir",
          "type": "address"
        },
        {
          "indexed": false,
          "internalType": "address",
          "name": "_irs",
          "type": "address"
        },
        {
          "indexed": false,
          "internalType": "address",
          "name": "_tir",
          "type": "address"
        },
        {
          "indexed": false,
          "internalType": "address",
          "name": "_ctr",
          "type": "address"
        },
        {
          "indexed": false,
          "internalType": "address",
          "name": "_mc",
          "type": "address"
        },
        {
          "indexed": true,
          "internalType": "string",
          "name": "_salt",
          "type": "string"
        }
      ],
      "name": "TREXSuiteDeployed",
      "type": "event"
    },
    {
      "inputs": [
        {
          "internalType": "string",
          "name": "_salt",
          "type": "string"
        },
        {
          "components": [
            {
              "internalType": "address",
              "name": "owner",
              "type": "address"
            },
            {
              "internalType": "string",
              "name": "name",
              "type": "string"
            },
            {
              "internalType": "string",
              "name": "symbol",
              "type": "string"
            },
            {
              "internalType": "uint8",
              "name": "decimals",
              "type": "uint8"
            },
            {
              "internalType": "address",
              "name": "irs",
              "type": "address"
            },
            {
              "internalType": "address",
              "name": "ONCHAINID",
              "type": "address"
            },
            {
              "internalType": "address[]",
              "name": "irAgents",
              "type": "address[]"
            },
            {
              "internalType": "address[]",
              "name": "tokenAgents",
              "type": "address[]"
            },
            {
              "internalType": "address[]",
              "name": "complianceModules",
              "type": "address[]"
            },
            {
              "internalType": "bytes[]",
              "name": "complianceSettings",
              "type": "bytes[]"
            }
          ],
          "internalType": "struct ITREXFactory.TokenDetails",
          "name": "_tokenDetails",
          "type": "tuple"
        },
        {
          "components": [
            {
              "internalType": "uint256[]",
              "name": "claimTopics",
              "type": "uint256[]"
            },
            {
              "internalType": "address[]",
              "name": "issuers",
              "type": "address[]"
            },
            {
              "internalType": "uint256[][]",
              "name": "issuerClaims",
              "type": "uint256[][]"
            }
          ],
          "internalType": "struct ITREXFactory.ClaimDetails",
          "name": "_claimDetails",
          "type": "tuple"
        }
      ],
      "name": "deployTREXSuite",
      "outputs": [],
      "stateMutability": "nonpayable",
      "type": "function"
    },
    {
      "inputs": [],
      "name": "getIdFactory",
      "outputs": [
        {
          "internalType": "address",
          "name": "",
          "type": "address"
        }
      ],
      "stateMutability": "view",
      "type": "function"
    },
    {
      "inputs": [],
      "name": "getImplementationAuthority",
      "outputs": [
        {
          "internalType": "address",
          "name": "",
          "type": "address"
        }
      ],
      "stateMutability": "view",
      "type": "function"
    },
    {
      "inputs": [
        {
          "internalType": "string",
          "name": "_salt",
          "type": "string"
        }
      ],
      "name": "getToken",
      "outputs": [
        {
          "internalType": "address",
          "name": "",
          "type": "address"
        }
      ],
      "stateMutability": "view",
      "type": "function"
    },
    {
      "inputs": [],
      "name": "owner",
      "outputs": [
        {
          "internalType": "address",
          "name": "",
          "type": "address"
        }
      ],
      "stateMutability": "view",
      "type": "function"
    },
    {
      "inputs": [
        {
          "internalType": "address",
          "name": "_contract",
          "type": "address"
        },
        {
          "internalType": "address",
          "name": "_newOwner",
          "type": "address"
        }
      ],
      "name": "recoverContractOwnership",
      "outputs": [],
      "stateMutability": "nonpayable",
      "type": "function"
    },
    {
      "inputs": [],
      "name": "renounceOwnership",
      "outputs": [],
      "stateMutability": "nonpayable",
      "type": "function"
    },
    {
      "inputs": [
        {
          "internalType": "address",
          "name": "idFactory_",
          "type": "address"
        }
      ],
      "name": "setIdFactory",
      "outputs": [],
      "stateMutability": "nonpayable",
      "type": "function"
    },
    {
      "inputs": [
        {
          "internalType": "address",
          "name": "implementationAuthority_",
          "type": "address"
        }
      ],
      "name": "setImplementationAuthority",
      "outputs": [],
      "stateMutability": "nonpayable",
      "type": "function"
    },
    {
      "inputs": [
        {
          "internalType": "string",
          "name": "",
          "type": "string"
        }
      ],
      "name": "tokenDeployed",
      "outputs": [
        {
          "internalType": "address",
          "name": "",
          "type": "address"
        }
      ],
      "stateMutability": "view",
      "type": "function"
    },
    {
      "inputs": [
        {
          "internalType": "address",
          "name": "newOwner",
          "type": "address"
        }
      ],
      "name": "transferOwnership",
      "outputs": [],
      "stateMutability": "nonpayable",
      "type": "function"
    }
  ],
  "bytecode": "0x60806040523480156200001157600080fd5b506040516200264f3803806200264f8339810160408190526200003491620005e9565b33806200005c57604051631e4fbdf760e01b8152600060048201526024015b60405180910390fd5b620000678162000086565b506200007382620000d6565b6200007e81620004ea565b505062000646565b600080546001600160a01b038381166001600160a01b0319831681178455604051919092169283917f8be0079c531659141344cd1fd0a4f28419497f9722a3daafe3b4186f6b6457e09190a35050565b620000e06200059b565b6001600160a01b038116620001385760405162461bcd60e51b815260206004820152601f60248201527f696e76616c696420617267756d656e74202d207a65726f206164647265737300604482015260640162000053565b60006001600160a01b0316816001600160a01b031663709bc7f36040518163ffffffff1660e01b8152600401602060405180830381865afa15801562000182573d6000803e3d6000fd5b505050506040513d601f19601f82011682018060405250810190620001a8919062000621565b6001600160a01b03161415801562000237575060006001600160a01b0316816001600160a01b0316636ff6e83f6040518163ffffffff1660e01b8152600401602060405180830381865afa15801562000205573d6000803e3d6000fd5b505050506040513d601f19601f820116820180604052508101906200022b919062000621565b6001600160a01b031614155b8015620002bb575060006001600160a01b0316816001600160a01b0316631ee9ce8b6040518163ffffffff1660e01b8152600401602060405180830381865afa15801562000289573d6000803e3d6000fd5b505050506040513d601f19601f82011682018060405250810190620002af919062000621565b6001600160a01b031614155b80156200033f575060006001600160a01b0316816001600160a01b0316639e3e7bb96040518163ffffffff1660e01b8152600401602060405180830381865afa1580156200030d573d6000803e3d6000fd5b505050506040513d601f19601f8201168201806040525081019062000333919062000621565b6001600160a01b031614155b8015620003c3575060006001600160a01b0316816001600160a01b03166361f898256040518163ffffffff1660e01b8152600401602060405180830381865afa15801562000391573d6000803e3d6000fd5b505050506040513d601f19601f82011682018060405250810190620003b7919062000621565b6001600160a01b031614155b801562000447575060006001600160a01b0316816001600160a01b031663fedcc0526040518163ffffffff1660e01b8152600401602060405180830381865afa15801562000415573d6000803e3d6000fd5b505050506040513d601f19601f820116820180604052508101906200043b919062000621565b6001600160a01b031614155b620004955760405162461bcd60e51b815260206004820181905260248201527f696e76616c696420496d706c656d656e746174696f6e20417574686f72697479604482015260640162000053565b600180546001600160a01b0319166001600160a01b0383169081179091556040519081527f3b1074392ed8e8424715d0dda2197eede67080b377fc8370e26f3e882207f6b8906020015b60405180910390a150565b620004f46200059b565b6001600160a01b0381166200054c5760405162461bcd60e51b815260206004820152601f60248201527f696e76616c696420617267756d656e74202d207a65726f206164647265737300604482015260640162000053565b600280546001600160a01b0319166001600160a01b0383169081179091556040519081527fae81f4fee1b2d830e39ae449967642aaa0e5a1771aa200d0a50853010992242c90602001620004df565b6000546001600160a01b03163314620005ca5760405163118cdaa760e01b815233600482015260240162000053565b565b80516001600160a01b0381168114620005e457600080fd5b919050565b60008060408385031215620005fd57600080fd5b6200060883620005cc565b91506200061860208401620005cc565b90509250929050565b6000602082840312156200063457600080fd5b6200063f82620005cc565b9392505050565b611ff980620006566000396000f3fe608060405234801561001057600080fd5b50600436106100a95760003560e01c806392dd9d651161007157806392dd9d6514610110578063c1733f6814610123578063ccd41cce14610136578063cf753d3714610149578063f2fde38b1461015c578063fb88d79c1461016f57600080fd5b80632d5f1187146100ae57806350b01838146100d15780635f2773a5146100e6578063715018a6146100f75780638da5cb5b146100ff575b600080fd5b6001546001600160a01b03165b6040516100c89190611798565b60405180910390f35b6100e46100df3660046117d1565b6101a3565b005b6002546001600160a01b03166100bb565b6100e461020d565b6000546001600160a01b03166100bb565b6100e461011e36600461180a565b610221565b6100bb61013136600461182e565b6105f2565b6100e461014436600461180a565b610627565b6100e4610157366004611941565b6106a0565b6100e461016a36600461180a565b6116dd565b6100bb61017d3660046119d8565b80516020818301810180516003825292820191909301209152546001600160a01b031681565b6101ab61171b565b60405163f2fde38b60e01b81526001600160a01b0383169063f2fde38b906101d7908490600401611798565b600060405180830381600087803b1580156101f157600080fd5b505af1158015610205573d6000803e3d6000fd5b505050505050565b61021561171b565b61021f6000611748565b565b61022961171b565b6001600160a01b0381166102585760405162461bcd60e51b815260040161024f90611a14565b60405180910390fd5b60006001600160a01b0316816001600160a01b031663709bc7f36040518163ffffffff1660e01b8152600401602060405180830381865afa1580156102a1573d6000803e3d6000fd5b505050506040513d601f19601f820116820180604052508101906102c59190611a4b565b6001600160a01b031614158015610350575060006001600160a01b0316816001600160a01b0316636ff6e83f6040518163ffffffff1660e01b8152600401602060405180830381865afa158015610320573d6000803e3d6000fd5b505050506040513d601f19601f820116820180604052508101906103449190611a4b565b6001600160a01b031614155b80156103d0575060006001600160a01b0316816001600160a01b0316631ee9ce8b6040518163ffffffff1660e01b8152600401602060405180830381865afa1580156103a0573d6000803e3d6000fd5b505050506040513d601f19601f820116820180604052508101906103c49190611a4b565b6001600160a01b031614155b8015610450575060006001600160a01b0316816001600160a01b0316639e3e7bb96040518163ffffffff1660e01b8152600401602060405180830381865afa158015610420573d6000803e3d6000fd5b505050506040513d601f19601f820116820180604052508101906104449190611a4b565b6001600160a01b031614155b80156104d0575060006001600160a01b0316816001600160a01b03166361f898256040518163ffffffff1660e01b8152600401602060405180830381865afa1580156104a0573d6000803e3d6000fd5b505050506040513d601f19601f820116820180604052508101906104c49190611a4b565b6001600160a01b031614155b8015610550575060006001600160a01b0316816001600160a01b031663fedcc0526040518163ffffffff1660e01b8152600401602060405180830381865afa158015610520573d6000803e3d6000fd5b505050506040513d601f19601f820116820180604052508101906105449190611a4b565b6001600160a01b031614155b61059c5760405162461bcd60e51b815260206004820181905260248201527f696e76616c696420496d706c656d656e746174696f6e20417574686f72697479604482015260640161024f565b600180546001600160a01b0319166001600160a01b0383161790556040517f3b1074392ed8e8424715d0dda2197eede67080b377fc8370e26f3e882207f6b8906105e7908390611798565b60405180910390a150565b600060038383604051610606929190611a68565b908152604051908190036020019020546001600160a01b0316905092915050565b61062f61171b565b6001600160a01b0381166106555760405162461bcd60e51b815260040161024f90611a14565b600280546001600160a01b0319166001600160a01b0383161790556040517fae81f4fee1b2d830e39ae449967642aaa0e5a1771aa200d0a50853010992242c906105e7908390611798565b6106a861171b565b60006001600160a01b03166003846040516106c39190611a9c565b908152604051908190036020019020546001600160a01b0316146107225760405162461bcd60e51b81526020600482015260166024820152751d1bdad95b88185b1c9958591e4819195c1b1bde595960521b604482015260640161024f565b61072f6040820182611ab8565b905061073e6020830183611ab8565b9050146107875760405162461bcd60e51b815260206004820152601760248201527618db185a5b481c185d1d195c9b881b9bdd081d985b1a59604a1b604482015260640161024f565b60056107966020830183611ab8565b905011156107f05760405162461bcd60e51b815260206004820152602160248201527f6d6178203520636c61696d2069737375657273206174206465706c6f796d656e6044820152601d60fa1b606482015260840161024f565b60056107fc8280611ab8565b9050111561084c5760405162461bcd60e51b815260206004820181905260248201527f6d6178203520636c61696d20746f70696373206174206465706c6f796d656e74604482015260640161024f565b600561085b60c0840184611ab8565b90501115801561087a5750600561087560e0840184611ab8565b905011155b6108c65760405162461bcd60e51b815260206004820152601a60248201527f6d61782035206167656e7473206174206465706c6f796d656e74000000000000604482015260640161024f565b601e6108d6610100840184611ab8565b905011156109325760405162461bcd60e51b815260206004820152602360248201527f6d6178203330206d6f64756c6520616374696f6e73206174206465706c6f796d604482015262195b9d60ea1b606482015260840161024f565b610940610120830183611ab8565b9050610950610100840184611ab8565b905010156109a05760405162461bcd60e51b815260206004820152601a60248201527f696e76616c696420636f6d706c69616e6365207061747465726e000000000000604482015260640161024f565b600154604051630afb244160e11b815260009173__$58ce7a7e95f74335dc6b752a3e9da7fbbd$__916315f64882916109e79188916001600160a01b031690600401611b34565b602060405180830381865af4158015610a04573d6000803e3d6000fd5b505050506040513d601f19601f82011682018060405250810190610a289190611a4b565b60015460405163a55a5e5d60e01b815291925060009173__$58ce7a7e95f74335dc6b752a3e9da7fbbd$__9163a55a5e5d91610a749189916001600160a01b0390911690600401611b34565b602060405180830381865af4158015610a91573d6000803e3d6000fd5b505050506040513d601f19601f82011682018060405250810190610ab59190611a4b565b600154604051631f6f432b60e21b815291925060009173__$58ce7a7e95f74335dc6b752a3e9da7fbbd$__91637dbd0cac91610b01918a916001600160a01b0390911690600401611b34565b602060405180830381865af4158015610b1e573d6000803e3d6000fd5b505050506040513d601f19601f82011682018060405250810190610b429190611a4b565b9050600080610b5760a088016080890161180a565b6001600160a01b031603610bf35760015460405163145e56c360e21b815273__$58ce7a7e95f74335dc6b752a3e9da7fbbd$__916351795b0c91610bab918b916001600160a01b0390911690600401611b34565b602060405180830381865af4158015610bc8573d6000803e3d6000fd5b505050506040513d601f19601f82011682018060405250810190610bec9190611a4b565b9050610c06565b610c0360a087016080880161180a565b90505b600154604051639e8e196360e01b815260009173__$58ce7a7e95f74335dc6b752a3e9da7fbbd$__91639e8e196391610c53918c916001600160a01b0316908a908a908990600401611b5e565b602060405180830381865af4158015610c70573d6000803e3d6000fd5b505050506040513d601f19601f82011682018060405250810190610c949190611a4b565b60015460405163dfa1b2b960e01b815291925060009173__$58ce7a7e95f74335dc6b752a3e9da7fbbd$__9163dfa1b2b991610ce6918d916001600160a01b039091169087908a908f90600401611d14565b602060405180830381865af4158015610d03573d6000803e3d6000fd5b505050506040513d601f19601f82011682018060405250810190610d279190611a4b565b90506000610d3b60c08a0160a08b0161180a565b6001600160a01b031603610e30576002546000906001600160a01b0316633d56ff6683610d6b60208d018d61180a565b8d6040518463ffffffff1660e01b8152600401610d8a93929190611e9a565b6020604051808303816000875af1158015610da9573d6000803e3d6000fd5b505050506040513d601f19601f82011682018060405250810190610dcd9190611a4b565b604051633d1ddc5b60e01b81529091506001600160a01b03831690633d1ddc5b90610dfc908490600401611798565b600060405180830381600087803b158015610e1657600080fd5b505af1158015610e2a573d6000803e3d6000fd5b50505050505b60005b610e3d8880611ab8565b9050811015610ed2576001600160a01b03861663c7b22551610e5f8a80611ab8565b84818110610e6f57610e6f611ecf565b905060200201356040518263ffffffff1660e01b8152600401610e9491815260200190565b600060405180830381600087803b158015610eae57600080fd5b505af1158015610ec2573d6000803e3d6000fd5b505060019092019150610e339050565b5060005b610ee36020890189611ab8565b9050811015610fb8576001600160a01b038716639f63ea98610f0860208b018b611ab8565b84818110610f1857610f18611ecf565b9050602002016020810190610f2d919061180a565b610f3a60408c018c611ab8565b85818110610f4a57610f4a611ecf565b9050602002810190610f5c9190611ab8565b6040518463ffffffff1660e01b8152600401610f7a93929190611ee5565b600060405180830381600087803b158015610f9457600080fd5b505af1158015610fa8573d6000803e3d6000fd5b505060019092019150610ed69050565b5060405163690a49f960e01b81526001600160a01b0384169063690a49f990610fe5908590600401611798565b600060405180830381600087803b158015610fff57600080fd5b505af1158015611013573d6000803e3d6000fd5b5050604051634273cc2160e11b81526001600160a01b03851692506384e798429150611043908490600401611798565b600060405180830381600087803b15801561105d57600080fd5b505af1158015611071573d6000803e3d6000fd5b5050505060005b61108560c08a018a611ab8565b9050811015611129576001600160a01b0383166384e798426110aa60c08c018c611ab8565b848181106110ba576110ba611ecf565b90506020020160208101906110cf919061180a565b6040518263ffffffff1660e01b81526004016110eb9190611798565b600060405180830381600087803b15801561110557600080fd5b505af1158015611119573d6000803e3d6000fd5b5050600190920191506110789050565b5060005b61113a60e08a018a611ab8565b90508110156111de576001600160a01b0382166384e7984261115f60e08c018c611ab8565b8481811061116f5761116f611ecf565b9050602002016020810190611184919061180a565b6040518263ffffffff1660e01b81526004016111a09190611798565b600060405180830381600087803b1580156111ba57600080fd5b505af11580156111ce573d6000803e3d6000fd5b50506001909201915061112d9050565b5060005b6111f06101008a018a611ab8565b905081101561140f576001600160a01b03851663a446d49f6112166101008c018c611ab8565b8481811061122657611226611ecf565b905060200201602081019061123b919061180a565b6040518263ffffffff1660e01b81526004016112579190611798565b602060405180830381865afa158015611274573d6000803e3d6000fd5b505050506040513d601f19601f820116820180604052508101906112989190611f2f565b61132d576001600160a01b038516631ed86f196112b96101008c018c611ab8565b848181106112c9576112c9611ecf565b90506020020160208101906112de919061180a565b6040518263ffffffff1660e01b81526004016112fa9190611798565b600060405180830381600087803b15801561131457600080fd5b505af1158015611328573d6000803e3d6000fd5b505050505b61133b6101208a018a611ab8565b9050811015611407576001600160a01b03851663efb22d336113616101208c018c611ab8565b8481811061137157611371611ecf565b90506020028101906113839190611f51565b6113916101008e018e611ab8565b868181106113a1576113a1611ecf565b90506020020160208101906113b6919061180a565b6040518463ffffffff1660e01b81526004016113d493929190611f97565b600060405180830381600087803b1580156113ee57600080fd5b505af1158015611402573d6000803e3d6000fd5b505050505b6001016111e2565b508060038a6040516114219190611a9c565b9081526040516020918190038201902080546001600160a01b0319166001600160a01b039384161790559082169063f2fde38b90611461908b018b61180a565b6040518263ffffffff1660e01b815260040161147d9190611798565b600060405180830381600087803b15801561149757600080fd5b505af11580156114ab573d6000803e3d6000fd5b5050506001600160a01b038316905063f2fde38b6114cc60208b018b61180a565b6040518263ffffffff1660e01b81526004016114e89190611798565b600060405180830381600087803b15801561150257600080fd5b505af1158015611516573d6000803e3d6000fd5b5050506001600160a01b038716905063f2fde38b61153760208b018b61180a565b6040518263ffffffff1660e01b81526004016115539190611798565b600060405180830381600087803b15801561156d57600080fd5b505af1158015611581573d6000803e3d6000fd5b5050506001600160a01b038616905063f2fde38b6115a260208b018b61180a565b6040518263ffffffff1660e01b81526004016115be9190611798565b600060405180830381600087803b1580156115d857600080fd5b505af11580156115ec573d6000803e3d6000fd5b5050506001600160a01b038516905063f2fde38b61160d60208b018b61180a565b6040518263ffffffff1660e01b81526004016116299190611798565b600060405180830381600087803b15801561164357600080fd5b505af1158015611657573d6000803e3d6000fd5b50505050886040516116699190611a9c565b604080519182900382206001600160a01b0385811684528681166020850152898116848401528881166060850152878116608085015291519092918416917f057adae5fa3e9caa8a0d584edff60f61558d33f073412ec2d66d558b739e0a41919081900360a00190a3505050505050505050565b6116e561171b565b6001600160a01b03811661170f576000604051631e4fbdf760e01b815260040161024f9190611798565b61171881611748565b50565b6000546001600160a01b0316331461021f573360405163118cdaa760e01b815260040161024f9190611798565b600080546001600160a01b038381166001600160a01b0319831681178455604051919092169283917f8be0079c531659141344cd1fd0a4f28419497f9722a3daafe3b4186f6b6457e09190a35050565b6001600160a01b0391909116815260200190565b6001600160a01b038116811461171857600080fd5b80356117cc816117ac565b919050565b600080604083850312156117e457600080fd5b82356117ef816117ac565b915060208301356117ff816117ac565b809150509250929050565b60006020828403121561181c57600080fd5b8135611827816117ac565b9392505050565b6000806020838503121561184157600080fd5b82356001600160401b038082111561185857600080fd5b818501915085601f83011261186c57600080fd5b81358181111561187b57600080fd5b86602082850101111561188d57600080fd5b60209290920196919550909350505050565b634e487b7160e01b600052604160045260246000fd5b600082601f8301126118c657600080fd5b81356001600160401b03808211156118e0576118e061189f565b604051601f8301601f19908116603f011681019082821181831017156119085761190861189f565b8160405283815286602085880101111561192157600080fd5b836020870160208301376000602085830101528094505050505092915050565b60008060006060848603121561195657600080fd5b83356001600160401b038082111561196d57600080fd5b611979878388016118b5565b9450602086013591508082111561198f57600080fd5b9085019061014082880312156119a457600080fd5b909250604085013590808211156119ba57600080fd5b508401606081870312156119cd57600080fd5b809150509250925092565b6000602082840312156119ea57600080fd5b81356001600160401b03811115611a0057600080fd5b611a0c848285016118b5565b949350505050565b6020808252601f908201527f696e76616c696420617267756d656e74202d207a65726f206164647265737300604082015260600190565b600060208284031215611a5d57600080fd5b8151611827816117ac565b8183823760009101908152919050565b60005b83811015611a93578181015183820152602001611a7b565b50506000910152565b60008251611aae818460208701611a78565b9190910192915050565b6000808335601e19843603018112611acf57600080fd5b8301803591506001600160401b03821115611ae957600080fd5b6020019150600581901b3603821315611b0157600080fd5b9250929050565b60008151808452611b20816020860160208601611a78565b601f01601f19169290920160200192915050565b604081526000611b476040830185611b08565b905060018060a01b03831660208301529392505050565b60a081526000611b7160a0830188611b08565b6001600160a01b0396871660208401529486166040830152509184166060830152909216608090920191909152919050565b6000808335601e19843603018112611bba57600080fd5b83016020810192503590506001600160401b03811115611bd957600080fd5b803603821315611b0157600080fd5b81835281816020850137506000828201602090810191909152601f909101601f19169091010190565b803560ff811681146117cc57600080fd5b6000808335601e19843603018112611c3957600080fd5b83016020810192503590506001600160401b03811115611c5857600080fd5b8060051b3603821315611b0157600080fd5b8183526000602080850194508260005b85811015611ca8578135611c8d816117ac565b6001600160a01b031687529582019590820190600101611c7a565b509495945050505050565b6000838385526020808601955060208560051b8301018460005b87811015611d0757848303601f19018952611ce88288611ba3565b611cf3858284611be8565b9a86019a9450505090830190600101611ccd565b5090979650505050505050565b60a081526000611d2760a0830188611b08565b6001600160a01b0387811660208501528681166040850152851660608401528281036080840152610140611d6b82611d5e876117c1565b6001600160a01b03169052565b611d786020860186611ba3565b826020850152611d8b8385018284611be8565b92505050611d9c6040860186611ba3565b8383036040850152611daf838284611be8565b92505050611dbf60608601611c11565b60ff166060830152611dd3608086016117c1565b6001600160a01b03166080830152611ded60a086016117c1565b6001600160a01b031660a0830152611e0860c0860186611c22565b83830360c0850152611e1b838284611c6a565b92505050611e2c60e0860186611c22565b83830360e0850152611e3f838284611c6a565b92505050610100611e5281870187611c22565b84840383860152611e64848284611c6a565b9350505050610120611e7881870187611c22565b84840383860152611e8a848284611cb3565b9c9b505050505050505050505050565b6001600160a01b03848116825283166020820152606060408201819052600090611ec690830184611b08565b95945050505050565b634e487b7160e01b600052603260045260246000fd5b6001600160a01b0384168152604060208201819052810182905260006001600160fb1b03831115611f1557600080fd5b8260051b8085606085013791909101606001949350505050565b600060208284031215611f4157600080fd5b8151801515811461182757600080fd5b6000808335601e19843603018112611f6857600080fd5b8301803591506001600160401b03821115611f8257600080fd5b602001915036819003821315611b0157600080fd5b604081526000611fab604083018587611be8565b905060018060a01b038316602083015294935050505056fea26469706673582212203227f4647eef5ae6ab3a02f7bd2da6d915f654bafeccc463fd4581767475e5b164736f6c63430008180033",
  "linkReferences": {
    "contracts/erc3643/factory/libraries/TREXDeployments.sol": {
      "TREXDeployments": [
        {
          "length": 20,
          "start": 4107
        },
        {
          "length": 20,
          "start": 4246
        },
        {
          "length": 20,
          "start": 4387
        },
        {
          "length": 20,
          "start": 4557
        },
        {
          "length": 20,
          "start": 4721
        },
        {
          "length": 20,
          "start": 4866
        }
      ]
    }
  },
  "deployedLinkReferences": {
    "contracts/erc3643/factory/libraries/TREXDeployments.sol": {
      "TREXDeployments": [
        {
          "length": 20,
          "start": 2485
        },
        {
          "length": 20,
          "start": 2624
        },
        {
          "length": 20,
          "start": 2765
        },
        {
          "length": 20,
          "start": 2935
        },
        {
          "length": 20,
          "start": 3099
        },
        {
          "length": 20,
          "start": 3244
        }
      ]
    }
  }
}