{
  "_format": "hh-sol-artifact-1",
  "contractName": "TREXFactoryAts",
  "sourceName": "contracts/erc3643/factory/TREXFactoryAts.sol",
  "abi": [
    {
      "inputs": [
        {
          "internalType": "address",
          "name": "implementationAuthority_",
          "type": "address"
        },
        {
          "internalType": "address",
          "name": "idFactory_",
          "type": "address"
        }
      ],
      "stateMutability": "nonpayable",
      "type": "constructor"
    },
    {
      "inputs": [
        {
          "internalType": "address",
          "name": "owner",
          "type": "address"
        }
      ],
      "name": "OwnableInvalidOwner",
      "type": "error"
    },
    {
      "inputs": [
        {
          "internalType": "address",
          "name": "account",
          "type": "address"
        }
      ],
      "name": "OwnableUnauthorizedAccount",
      "type": "error"
    },
    {
      "anonymous": false,
      "inputs": [
        {
          "indexed": true,
          "internalType": "address",
          "name": "_addr",
          "type": "address"
        }
      ],
      "name": "Deployed",
      "type": "event"
    },
    {
      "anonymous": false,
      "inputs": [
        {
          "indexed": false,
          "internalType": "address",
          "name": "_idFactory",
          "type": "address"
        }
      ],
      "name": "IdFactorySet",
      "type": "event"
    },
    {
      "anonymous": false,
      "inputs": [
        {
          "indexed": false,
          "internalType": "address",
          "name": "_implementationAuthority",
          "type": "address"
        }
      ],
      "name": "ImplementationAuthoritySet",
      "type": "event"
    },
    {
      "anonymous": false,
      "inputs": [
        {
          "indexed": true,
          "internalType": "address",
          "name": "previousOwner",
          "type": "address"
        },
        {
          "indexed": true,
          "internalType": "address",
          "name": "newOwner",
          "type": "address"
        }
      ],
      "name": "OwnershipTransferred",
      "type": "event"
    },
    {
      "anonymous": false,
      "inputs": [
        {
          "indexed": true,
          "internalType": "address",
          "name": "_token",
          "type": "address"
        },
        {
          "indexed": false,
          "internalType": "address",
          "name": "_ir",
          "type": "address"
        },
        {
          "indexed": false,
          "internalType": "address",
          "name": "_irs",
          "type": "address"
        },
        {
          "indexed": false,
          "internalType": "address",
          "name": "_tir",
          "type": "address"
        },
        {
          "indexed": false,
          "internalType": "address",
          "name": "_ctr",
          "type": "address"
        },
        {
          "indexed": false,
          "internalType": "address",
          "name": "_mc",
          "type": "address"
        },
        {
          "indexed": true,
          "internalType": "string",
          "name": "_salt",
          "type": "string"
        }
      ],
      "name": "TREXSuiteDeployed",
      "type": "event"
    },
    {
      "inputs": [
        {
          "internalType": "string",
          "name": "_salt",
          "type": "string"
        },
        {
          "components": [
            {
              "internalType": "address",
              "name": "owner",
              "type": "address"
            },
            {
              "internalType": "string",
              "name": "name",
              "type": "string"
            },
            {
              "internalType": "string",
              "name": "symbol",
              "type": "string"
            },
            {
              "internalType": "uint8",
              "name": "decimals",
              "type": "uint8"
            },
            {
              "internalType": "address",
              "name": "irs",
              "type": "address"
            },
            {
              "internalType": "address",
              "name": "ONCHAINID",
              "type": "address"
            },
            {
              "internalType": "address[]",
              "name": "irAgents",
              "type": "address[]"
            },
            {
              "internalType": "address[]",
              "name": "tokenAgents",
              "type": "address[]"
            },
            {
              "internalType": "address[]",
              "name": "complianceModules",
              "type": "address[]"
            },
            {
              "internalType": "bytes[]",
              "name": "complianceSettings",
              "type": "bytes[]"
            }
          ],
          "internalType": "struct ITREXFactory.TokenDetails",
          "name": "_tokenDetails",
          "type": "tuple"
        },
        {
          "components": [
            {
              "internalType": "uint256[]",
              "name": "claimTopics",
              "type": "uint256[]"
            },
            {
              "internalType": "address[]",
              "name": "issuers",
              "type": "address[]"
            },
            {
              "internalType": "uint256[][]",
              "name": "issuerClaims",
              "type": "uint256[][]"
            }
          ],
          "internalType": "struct ITREXFactory.ClaimDetails",
          "name": "_claimDetails",
          "type": "tuple"
        }
      ],
      "name": "deployTREXSuite",
      "outputs": [],
      "stateMutability": "nonpayable",
      "type": "function"
    },
    {
      "inputs": [
        {
          "internalType": "string",
          "name": "_salt",
          "type": "string"
        },
        {
          "components": [
            {
              "internalType": "address",
              "name": "owner",
              "type": "address"
            },
            {
              "internalType": "address",
              "name": "irs",
              "type": "address"
            },
            {
              "internalType": "address",
              "name": "ONCHAINID",
              "type": "address"
            },
            {
              "internalType": "address[]",
              "name": "irAgents",
              "type": "address[]"
            },
            {
              "internalType": "address[]",
              "name": "tokenAgents",
              "type": "address[]"
            },
            {
              "internalType": "address[]",
              "name": "complianceModules",
              "type": "address[]"
            },
            {
              "internalType": "bytes[]",
              "name": "complianceSettings",
              "type": "bytes[]"
            }
          ],
          "internalType": "struct ITREXFactoryAts.TokenDetailsAts",
          "name": "_tokenDetails",
          "type": "tuple"
        },
        {
          "components": [
            {
              "internalType": "uint256[]",
              "name": "claimTopics",
              "type": "uint256[]"
            },
            {
              "internalType": "address[]",
              "name": "issuers",
              "type": "address[]"
            },
            {
              "internalType": "uint256[][]",
              "name": "issuerClaims",
              "type": "uint256[][]"
            }
          ],
          "internalType": "struct ITREXFactory.ClaimDetails",
          "name": "_claimDetails",
          "type": "tuple"
        },
        {
          "components": [
            {
              "components": [
                {
                  "internalType": "bool",
                  "name": "arePartitionsProtected",
                  "type": "bool"
                },
                {
                  "internalType": "bool",
                  "name": "isMultiPartition",
                  "type": "bool"
                },
                {
                  "internalType": "contract TRexIBusinessLogicResolver",
                  "name": "resolver",
                  "type": "address"
                },
                {
                  "components": [
                    {
                      "internalType": "bytes32",
                      "name": "key",
                      "type": "bytes32"
                    },
                    {
                      "internalType": "uint256",
                      "name": "version",
                      "type": "uint256"
                    }
                  ],
                  "internalType": "struct ITREXFactoryAts.ResolverProxyConfiguration",
                  "name": "resolverProxyConfiguration",
                  "type": "tuple"
                },
                {
                  "components": [
                    {
                      "internalType": "bytes32",
                      "name": "role",
                      "type": "bytes32"
                    },
                    {
                      "internalType": "address[]",
                      "name": "members",
                      "type": "address[]"
                    }
                  ],
                  "internalType": "struct TRexIResolverProxy.Rbac[]",
                  "name": "rbacs",
                  "type": "tuple[]"
                },
                {
                  "internalType": "bool",
                  "name": "isControllable",
                  "type": "bool"
                },
                {
                  "internalType": "bool",
                  "name": "isWhiteList",
                  "type": "bool"
                },
                {
                  "internalType": "uint256",
                  "name": "maxSupply",
                  "type": "uint256"
                },
                {
                  "components": [
                    {
                      "internalType": "string",
                      "name": "name",
                      "type": "string"
                    },
                    {
                      "internalType": "string",
                      "name": "symbol",
                      "type": "string"
                    },
                    {
                      "internalType": "string",
                      "name": "isin",
                      "type": "string"
                    },
                    {
                      "internalType": "uint8",
                      "name": "decimals",
                      "type": "uint8"
                    }
                  ],
                  "internalType": "struct TRexIERC20.ERC20MetadataInfo",
                  "name": "erc20MetadataInfo",
                  "type": "tuple"
                },
                {
                  "internalType": "bool",
                  "name": "clearingActive",
                  "type": "bool"
                },
                {
                  "internalType": "bool",
                  "name": "internalKycActivated",
                  "type": "bool"
                },
                {
                  "internalType": "address[]",
                  "name": "externalPauses",
                  "type": "address[]"
                },
                {
                  "internalType": "address[]",
                  "name": "externalControlLists",
                  "type": "address[]"
                },
                {
                  "internalType": "address[]",
                  "name": "externalKycLists",
                  "type": "address[]"
                },
                {
                  "internalType": "bool",
                  "name": "erc20VotesActivated",
                  "type": "bool"
                },
                {
                  "internalType": "address",
                  "name": "compliance",
                  "type": "address"
                },
                {
                  "internalType": "address",
                  "name": "identityRegistry",
                  "type": "address"
                }
              ],
              "internalType": "struct ITREXFactoryAts.SecurityData",
              "name": "security",
              "type": "tuple"
            },
            {
              "components": [
                {
                  "internalType": "bool",
                  "name": "votingRight",
                  "type": "bool"
                },
                {
                  "internalType": "bool",
                  "name": "informationRight",
                  "type": "bool"
                },
                {
                  "internalType": "bool",
                  "name": "liquidationRight",
                  "type": "bool"
                },
                {
                  "internalType": "bool",
                  "name": "subscriptionRight",
                  "type": "bool"
                },
                {
                  "internalType": "bool",
                  "name": "conversionRight",
                  "type": "bool"
                },
                {
                  "internalType": "bool",
                  "name": "redemptionRight",
                  "type": "bool"
                },
                {
                  "internalType": "bool",
                  "name": "putRight",
                  "type": "bool"
                },
                {
                  "internalType": "enum TRexIEquity.DividendType",
                  "name": "dividendRight",
                  "type": "uint8"
                },
                {
                  "internalType": "bytes3",
                  "name": "currency",
                  "type": "bytes3"
                },
                {
                  "internalType": "uint256",
                  "name": "nominalValue",
                  "type": "uint256"
                }
              ],
              "internalType": "struct TRexIEquity.EquityDetailsData",
              "name": "equityDetails",
              "type": "tuple"
            }
          ],
          "internalType": "struct ITREXFactoryAts.EquityData",
          "name": "_equityData",
          "type": "tuple"
        },
        {
          "components": [
            {
              "internalType": "enum RegulationType",
              "name": "regulationType",
              "type": "uint8"
            },
            {
              "internalType": "enum RegulationSubType",
              "name": "regulationSubType",
              "type": "uint8"
            },
            {
              "components": [
                {
                  "internalType": "bool",
                  "name": "countriesControlListType",
                  "type": "bool"
                },
                {
                  "internalType": "string",
                  "name": "listOfCountries",
                  "type": "string"
                },
                {
                  "internalType": "string",
                  "name": "info",
                  "type": "string"
                }
              ],
              "internalType": "struct AdditionalSecurityData",
              "name": "additionalSecurityData",
              "type": "tuple"
            }
          ],
          "internalType": "struct FactoryRegulationData",
          "name": "_factoryRegulationData",
          "type": "tuple"
        }
      ],
      "name": "deployTREXSuiteAtsEquity",
      "outputs": [],
      "stateMutability": "nonpayable",
      "type": "function"
    },
    {
      "inputs": [],
      "name": "getIdFactory",
      "outputs": [
        {
          "internalType": "address",
          "name": "",
          "type": "address"
        }
      ],
      "stateMutability": "view",
      "type": "function"
    },
    {
      "inputs": [],
      "name": "getImplementationAuthority",
      "outputs": [
        {
          "internalType": "address",
          "name": "",
          "type": "address"
        }
      ],
      "stateMutability": "view",
      "type": "function"
    },
    {
      "inputs": [
        {
          "internalType": "string",
          "name": "_salt",
          "type": "string"
        }
      ],
      "name": "getToken",
      "outputs": [
        {
          "internalType": "address",
          "name": "",
          "type": "address"
        }
      ],
      "stateMutability": "view",
      "type": "function"
    },
    {
      "inputs": [],
      "name": "owner",
      "outputs": [
        {
          "internalType": "address",
          "name": "",
          "type": "address"
        }
      ],
      "stateMutability": "view",
      "type": "function"
    },
    {
      "inputs": [
        {
          "internalType": "address",
          "name": "_contract",
          "type": "address"
        },
        {
          "internalType": "address",
          "name": "_newOwner",
          "type": "address"
        }
      ],
      "name": "recoverContractOwnership",
      "outputs": [],
      "stateMutability": "nonpayable",
      "type": "function"
    },
    {
      "inputs": [],
      "name": "renounceOwnership",
      "outputs": [],
      "stateMutability": "nonpayable",
      "type": "function"
    },
    {
      "inputs": [
        {
          "internalType": "address",
          "name": "idFactory_",
          "type": "address"
        }
      ],
      "name": "setIdFactory",
      "outputs": [],
      "stateMutability": "nonpayable",
      "type": "function"
    },
    {
      "inputs": [
        {
          "internalType": "address",
          "name": "implementationAuthority_",
          "type": "address"
        }
      ],
      "name": "setImplementationAuthority",
      "outputs": [],
      "stateMutability": "nonpayable",
      "type": "function"
    },
    {
      "inputs": [
        {
          "internalType": "string",
          "name": "",
          "type": "string"
        }
      ],
      "name": "tokenDeployed",
      "outputs": [
        {
          "internalType": "address",
          "name": "",
          "type": "address"
        }
      ],
      "stateMutability": "view",
      "type": "function"
    },
    {
      "inputs": [
        {
          "internalType": "address",
          "name": "newOwner",
          "type": "address"
        }
      ],
      "name": "transferOwnership",
      "outputs": [],
      "stateMutability": "nonpayable",
      "type": "function"
    }
  ],
  "bytecode": "0x60806040523480156200001157600080fd5b506040516200286d3803806200286d8339810160408190526200003491620005e9565b33806200005c57604051631e4fbdf760e01b8152600060048201526024015b60405180910390fd5b620000678162000086565b506200007382620000d6565b6200007e81620004ea565b505062000646565b600080546001600160a01b038381166001600160a01b0319831681178455604051919092169283917f8be0079c531659141344cd1fd0a4f28419497f9722a3daafe3b4186f6b6457e09190a35050565b620000e06200059b565b6001600160a01b038116620001385760405162461bcd60e51b815260206004820152601f60248201527f696e76616c696420617267756d656e74202d207a65726f206164647265737300604482015260640162000053565b60006001600160a01b0316816001600160a01b031663709bc7f36040518163ffffffff1660e01b8152600401602060405180830381865afa15801562000182573d6000803e3d6000fd5b505050506040513d601f19601f82011682018060405250810190620001a8919062000621565b6001600160a01b03161415801562000237575060006001600160a01b0316816001600160a01b0316636ff6e83f6040518163ffffffff1660e01b8152600401602060405180830381865afa15801562000205573d6000803e3d6000fd5b505050506040513d601f19601f820116820180604052508101906200022b919062000621565b6001600160a01b031614155b8015620002bb575060006001600160a01b0316816001600160a01b0316631ee9ce8b6040518163ffffffff1660e01b8152600401602060405180830381865afa15801562000289573d6000803e3d6000fd5b505050506040513d601f19601f82011682018060405250810190620002af919062000621565b6001600160a01b031614155b80156200033f575060006001600160a01b0316816001600160a01b0316639e3e7bb96040518163ffffffff1660e01b8152600401602060405180830381865afa1580156200030d573d6000803e3d6000fd5b505050506040513d601f19601f8201168201806040525081019062000333919062000621565b6001600160a01b031614155b8015620003c3575060006001600160a01b0316816001600160a01b03166361f898256040518163ffffffff1660e01b8152600401602060405180830381865afa15801562000391573d6000803e3d6000fd5b505050506040513d601f19601f82011682018060405250810190620003b7919062000621565b6001600160a01b031614155b801562000447575060006001600160a01b0316816001600160a01b031663fedcc0526040518163ffffffff1660e01b8152600401602060405180830381865afa15801562000415573d6000803e3d6000fd5b505050506040513d601f19601f820116820180604052508101906200043b919062000621565b6001600160a01b031614155b620004955760405162461bcd60e51b815260206004820181905260248201527f696e76616c696420496d706c656d656e746174696f6e20417574686f72697479604482015260640162000053565b600180546001600160a01b0319166001600160a01b0383169081179091556040519081527f3b1074392ed8e8424715d0dda2197eede67080b377fc8370e26f3e882207f6b8906020015b60405180910390a150565b620004f46200059b565b6001600160a01b0381166200054c5760405162461bcd60e51b815260206004820152601f60248201527f696e76616c696420617267756d656e74202d207a65726f206164647265737300604482015260640162000053565b600280546001600160a01b0319166001600160a01b0383169081179091556040519081527fae81f4fee1b2d830e39ae449967642aaa0e5a1771aa200d0a50853010992242c90602001620004df565b6000546001600160a01b03163314620005ca5760405163118cdaa760e01b815233600482015260240162000053565b565b80516001600160a01b0381168114620005e457600080fd5b919050565b60008060408385031215620005fd57600080fd5b6200060883620005cc565b91506200061860208401620005cc565b90509250929050565b6000602082840312156200063457600080fd5b6200063f82620005cc565b9392505050565b61221780620006566000396000f3fe608060405234801561001057600080fd5b50600436106100b45760003560e01c8063c1733f6811610071578063c1733f681461012e578063ccd41cce14610141578063cf753d3714610154578063e6822e2b14610167578063f2fde38b1461017a578063fb88d79c1461018d57600080fd5b80632d5f1187146100b957806350b01838146100dc5780635f2773a5146100f1578063715018a6146101025780638da5cb5b1461010a57806392dd9d651461011b575b600080fd5b6001546001600160a01b03165b6040516100d39190611906565b60405180910390f35b6100ef6100ea36600461192f565b6101c1565b005b6002546001600160a01b03166100c6565b6100ef61022b565b6000546001600160a01b03166100c6565b6100ef610129366004611968565b61023f565b6100c661013c36600461198c565b610610565b6100ef61014f366004611968565b610645565b6100ef610162366004611ad2565b6106be565b6100ef610175366004611b87565b610700565b6100ef610188366004611968565b61094b565b6100c661019b366004611c58565b80516020818301810180516003825292820191909301209152546001600160a01b031681565b6101c9610989565b60405163f2fde38b60e01b81526001600160a01b0383169063f2fde38b906101f5908490600401611906565b600060405180830381600087803b15801561020f57600080fd5b505af1158015610223573d6000803e3d6000fd5b505050505050565b610233610989565b61023d60006109b6565b565b610247610989565b6001600160a01b0381166102765760405162461bcd60e51b815260040161026d90611c94565b60405180910390fd5b60006001600160a01b0316816001600160a01b031663709bc7f36040518163ffffffff1660e01b8152600401602060405180830381865afa1580156102bf573d6000803e3d6000fd5b505050506040513d601f19601f820116820180604052508101906102e39190611ccb565b6001600160a01b03161415801561036e575060006001600160a01b0316816001600160a01b0316636ff6e83f6040518163ffffffff1660e01b8152600401602060405180830381865afa15801561033e573d6000803e3d6000fd5b505050506040513d601f19601f820116820180604052508101906103629190611ccb565b6001600160a01b031614155b80156103ee575060006001600160a01b0316816001600160a01b0316631ee9ce8b6040518163ffffffff1660e01b8152600401602060405180830381865afa1580156103be573d6000803e3d6000fd5b505050506040513d601f19601f820116820180604052508101906103e29190611ccb565b6001600160a01b031614155b801561046e575060006001600160a01b0316816001600160a01b0316639e3e7bb96040518163ffffffff1660e01b8152600401602060405180830381865afa15801561043e573d6000803e3d6000fd5b505050506040513d601f19601f820116820180604052508101906104629190611ccb565b6001600160a01b031614155b80156104ee575060006001600160a01b0316816001600160a01b03166361f898256040518163ffffffff1660e01b8152600401602060405180830381865afa1580156104be573d6000803e3d6000fd5b505050506040513d601f19601f820116820180604052508101906104e29190611ccb565b6001600160a01b031614155b801561056e575060006001600160a01b0316816001600160a01b031663fedcc0526040518163ffffffff1660e01b8152600401602060405180830381865afa15801561053e573d6000803e3d6000fd5b505050506040513d601f19601f820116820180604052508101906105629190611ccb565b6001600160a01b031614155b6105ba5760405162461bcd60e51b815260206004820181905260248201527f696e76616c696420496d706c656d656e746174696f6e20417574686f72697479604482015260640161026d565b600180546001600160a01b0319166001600160a01b0383161790556040517f3b1074392ed8e8424715d0dda2197eede67080b377fc8370e26f3e882207f6b890610605908390611906565b60405180910390a150565b600060038383604051610624929190611ce8565b908152604051908190036020019020546001600160a01b0316905092915050565b61064d610989565b6001600160a01b0381166106735760405162461bcd60e51b815260040161026d90611c94565b600280546001600160a01b0319166001600160a01b0383161790556040517fae81f4fee1b2d830e39ae449967642aaa0e5a1771aa200d0a50853010992242c90610605908390611906565b6106c6610989565b60405162461bcd60e51b815260206004820152600f60248201526e1b9bdd081a5b5c1b195b595b9d1959608a1b604482015260640161026d565b6040805161014081019091526000908061071d6020880188611968565b6001600160a01b031681526020016107358580611cf8565b61074490610120810190611d19565b61074e9080611d2f565b8080601f0160208091040260200160405190810160405280939291908181526020018383808284376000920191909152505050908252506020016107928580611cf8565b6107a190610120810190611d19565b6107af906020810190611d2f565b8080601f0160208091040260200160405190810160405280939291908181526020018383808284376000920191909152505050908252506020016107f38580611cf8565b61080290610120810190611d19565b610813906080810190606001611d7c565b60ff16815260200161082b6060880160408901611968565b6001600160a01b0316815260200186602001602081019061084c9190611968565b6001600160a01b031681526020016108676060880188611d9f565b808060200260200160405190810160405280939291908181526020018383602002808284376000920191909152505050908252506020016108ab6080880188611d9f565b808060200260200160405190810160405280939291908181526020018383602002808284376000920191909152505050908252506020016108ef60a0880188611d9f565b8080602002602001604051908101604052809392919081815260200183836020028082843760009201919091525050509082525060200161093360c0880188611d9f565b61093c91611de8565b90529050610223868286610a06565b610953610989565b6001600160a01b03811661097d576000604051631e4fbdf760e01b815260040161026d9190611906565b610986816109b6565b50565b6000546001600160a01b0316331461023d573360405163118cdaa760e01b815260040161026d9190611906565b600080546001600160a01b038381166001600160a01b0319831681178455604051919092169283917f8be0079c531659141344cd1fd0a4f28419497f9722a3daafe3b4186f6b6457e09190a35050565b60006001600160a01b0316600384604051610a219190611ea5565b908152604051908190036020019020546001600160a01b031614610a805760405162461bcd60e51b81526020600482015260166024820152751d1bdad95b88185b1c9958591e4819195c1b1bde595960521b604482015260640161026d565b610a8d6040820182611d9f565b9050610a9c6020830183611d9f565b905014610ae55760405162461bcd60e51b815260206004820152601760248201527618db185a5b481c185d1d195c9b881b9bdd081d985b1a59604a1b604482015260640161026d565b6005610af46020830183611d9f565b90501115610b4e5760405162461bcd60e51b815260206004820152602160248201527f6d6178203520636c61696d2069737375657273206174206465706c6f796d656e6044820152601d60fa1b606482015260840161026d565b6005610b5a8280611d9f565b90501115610baa5760405162461bcd60e51b815260206004820181905260248201527f6d6178203520636c61696d20746f70696373206174206465706c6f796d656e74604482015260640161026d565b60058260c001515111158015610bc6575060058260e001515111155b610c125760405162461bcd60e51b815260206004820152601a60248201527f6d61782035206167656e7473206174206465706c6f796d656e74000000000000604482015260640161026d565b601e826101000151511115610c755760405162461bcd60e51b815260206004820152602360248201527f6d6178203330206d6f64756c6520616374696f6e73206174206465706c6f796d604482015262195b9d60ea1b606482015260840161026d565b81610120015151826101000151511015610cd15760405162461bcd60e51b815260206004820152601a60248201527f696e76616c696420636f6d706c69616e6365207061747465726e000000000000604482015260640161026d565b600154604051630afb244160e11b815260009173__$58ce7a7e95f74335dc6b752a3e9da7fbbd$__916315f6488291610d189188916001600160a01b031690600401611ee3565b602060405180830381865af4158015610d35573d6000803e3d6000fd5b505050506040513d601f19601f82011682018060405250810190610d599190611ccb565b60015460405163a55a5e5d60e01b815291925060009173__$58ce7a7e95f74335dc6b752a3e9da7fbbd$__9163a55a5e5d91610da59189916001600160a01b0390911690600401611ee3565b602060405180830381865af4158015610dc2573d6000803e3d6000fd5b505050506040513d601f19601f82011682018060405250810190610de69190611ccb565b600154604051631f6f432b60e21b815291925060009173__$58ce7a7e95f74335dc6b752a3e9da7fbbd$__91637dbd0cac91610e32918a916001600160a01b0390911690600401611ee3565b602060405180830381865af4158015610e4f573d6000803e3d6000fd5b505050506040513d601f19601f82011682018060405250810190610e739190611ccb565b60808601519091506000906001600160a01b0316610f195760015460405163145e56c360e21b815273__$58ce7a7e95f74335dc6b752a3e9da7fbbd$__916351795b0c91610ed1918b916001600160a01b0390911690600401611ee3565b602060405180830381865af4158015610eee573d6000803e3d6000fd5b505050506040513d601f19601f82011682018060405250810190610f129190611ccb565b9050610f20565b5060808501515b600154604051639e8e196360e01b815260009173__$58ce7a7e95f74335dc6b752a3e9da7fbbd$__91639e8e196391610f6d918c916001600160a01b0316908a908a908990600401611f0d565b602060405180830381865af4158015610f8a573d6000803e3d6000fd5b505050506040513d601f19601f82011682018060405250810190610fae9190611ccb565b60015460405163dfa1b2b960e01b815291925060009173__$58ce7a7e95f74335dc6b752a3e9da7fbbd$__9163dfa1b2b991611000918d916001600160a01b039091169087908a908f90600401611ff1565b602060405180830381865af415801561101d573d6000803e3d6000fd5b505050506040513d601f19601f820116820180604052508101906110419190611ccb565b60a08901519091506001600160a01b0316611131576002548851604051631eab7fb360e11b81526000926001600160a01b031691633d56ff669161108b9186918f9060040161212a565b6020604051808303816000875af11580156110aa573d6000803e3d6000fd5b505050506040513d601f19601f820116820180604052508101906110ce9190611ccb565b604051633d1ddc5b60e01b81529091506001600160a01b03831690633d1ddc5b906110fd908490600401611906565b600060405180830381600087803b15801561111757600080fd5b505af115801561112b573d6000803e3d6000fd5b50505050505b60005b61113e8880611d9f565b90508110156111d3576001600160a01b03861663c7b225516111608a80611d9f565b848181106111705761117061215f565b905060200201356040518263ffffffff1660e01b815260040161119591815260200190565b600060405180830381600087803b1580156111af57600080fd5b505af11580156111c3573d6000803e3d6000fd5b5050600190920191506111349050565b5060005b6111e46020890189611d9f565b90508110156112b9576001600160a01b038716639f63ea9861120960208b018b611d9f565b848181106112195761121961215f565b905060200201602081019061122e9190611968565b61123b60408c018c611d9f565b8581811061124b5761124b61215f565b905060200281019061125d9190611d9f565b6040518463ffffffff1660e01b815260040161127b93929190612175565b600060405180830381600087803b15801561129557600080fd5b505af11580156112a9573d6000803e3d6000fd5b5050600190920191506111d79050565b5060405163690a49f960e01b81526001600160a01b0384169063690a49f9906112e6908590600401611906565b600060405180830381600087803b15801561130057600080fd5b505af1158015611314573d6000803e3d6000fd5b5050604051634273cc2160e11b81526001600160a01b03851692506384e798429150611344908490600401611906565b600060405180830381600087803b15801561135e57600080fd5b505af1158015611372573d6000803e3d6000fd5b5050505060005b8860c001515181101561140d57826001600160a01b03166384e798428a60c0015183815181106113ab576113ab61215f565b60200260200101516040518263ffffffff1660e01b81526004016113cf9190611906565b600060405180830381600087803b1580156113e957600080fd5b505af11580156113fd573d6000803e3d6000fd5b5050600190920191506113799050565b5060005b8860e00151518110156114a557816001600160a01b03166384e798428a60e0015183815181106114435761144361215f565b60200260200101516040518263ffffffff1660e01b81526004016114679190611906565b600060405180830381600087803b15801561148157600080fd5b505af1158015611495573d6000803e3d6000fd5b5050600190920191506114119050565b5060005b8861010001515181101561167657846001600160a01b031663a446d49f8a610100015183815181106114dd576114dd61215f565b60200260200101516040518263ffffffff1660e01b81526004016115019190611906565b602060405180830381865afa15801561151e573d6000803e3d6000fd5b505050506040513d601f19601f8201168201806040525081019061154291906121bf565b6115c357846001600160a01b0316631ed86f198a6101000151838151811061156c5761156c61215f565b60200260200101516040518263ffffffff1660e01b81526004016115909190611906565b600060405180830381600087803b1580156115aa57600080fd5b505af11580156115be573d6000803e3d6000fd5b505050505b8861012001515181101561166e57846001600160a01b031663efb22d338a610120015183815181106115f7576115f761215f565b60200260200101518b610100015184815181106116165761161661215f565b60200260200101516040518363ffffffff1660e01b815260040161163b929190611ee3565b600060405180830381600087803b15801561165557600080fd5b505af1158015611669573d6000803e3d6000fd5b505050505b6001016114a9565b508060038a6040516116889190611ea5565b90815260405190819003602001812080546001600160a01b039384166001600160a01b0319909116179055895163f2fde38b60e01b82529183169163f2fde38b916116d69190600401611906565b600060405180830381600087803b1580156116f057600080fd5b505af1158015611704573d6000803e3d6000fd5b5050895160405163f2fde38b60e01b81526001600160a01b038616935063f2fde38b92506117359190600401611906565b600060405180830381600087803b15801561174f57600080fd5b505af1158015611763573d6000803e3d6000fd5b5050895160405163f2fde38b60e01b81526001600160a01b038a16935063f2fde38b92506117949190600401611906565b600060405180830381600087803b1580156117ae57600080fd5b505af11580156117c2573d6000803e3d6000fd5b5050895160405163f2fde38b60e01b81526001600160a01b038916935063f2fde38b92506117f39190600401611906565b600060405180830381600087803b15801561180d57600080fd5b505af1158015611821573d6000803e3d6000fd5b5050895160405163f2fde38b60e01b81526001600160a01b038816935063f2fde38b92506118529190600401611906565b600060405180830381600087803b15801561186c57600080fd5b505af1158015611880573d6000803e3d6000fd5b50505050886040516118929190611ea5565b604080519182900382206001600160a01b0385811684528681166020850152898116848401528881166060850152878116608085015291519092918416917f057adae5fa3e9caa8a0d584edff60f61558d33f073412ec2d66d558b739e0a41919081900360a00190a3505050505050505050565b6001600160a01b0391909116815260200190565b6001600160a01b038116811461098657600080fd5b6000806040838503121561194257600080fd5b823561194d8161191a565b9150602083013561195d8161191a565b809150509250929050565b60006020828403121561197a57600080fd5b81356119858161191a565b9392505050565b6000806020838503121561199f57600080fd5b82356001600160401b03808211156119b657600080fd5b818501915085601f8301126119ca57600080fd5b8135818111156119d957600080fd5b8660208285010111156119eb57600080fd5b60209290920196919550909350505050565b634e487b7160e01b600052604160045260246000fd5b604051601f8201601f191681016001600160401b0381118282101715611a3b57611a3b6119fd565b604052919050565b60006001600160401b03831115611a5c57611a5c6119fd565b611a6f601f8401601f1916602001611a13565b9050828152838383011115611a8357600080fd5b828260208301376000602084830101529392505050565b600082601f830112611aab57600080fd5b61198583833560208501611a43565b600060608284031215611acc57600080fd5b50919050565b600080600060608486031215611ae757600080fd5b83356001600160401b0380821115611afe57600080fd5b611b0a87838801611a9a565b94506020860135915080821115611b2057600080fd5b908501906101408288031215611b3557600080fd5b90925060408501359080821115611b4b57600080fd5b50611b5886828701611aba565b9150509250925092565b600060e08284031215611acc57600080fd5b60006101608284031215611acc57600080fd5b600080600080600060a08688031215611b9f57600080fd5b85356001600160401b0380821115611bb657600080fd5b611bc289838a01611a9a565b96506020880135915080821115611bd857600080fd5b611be489838a01611b62565b95506040880135915080821115611bfa57600080fd5b611c0689838a01611aba565b94506060880135915080821115611c1c57600080fd5b611c2889838a01611b74565b93506080880135915080821115611c3e57600080fd5b50611c4b88828901611aba565b9150509295509295909350565b600060208284031215611c6a57600080fd5b81356001600160401b03811115611c8057600080fd5b611c8c84828501611a9a565b949350505050565b6020808252601f908201527f696e76616c696420617267756d656e74202d207a65726f206164647265737300604082015260600190565b600060208284031215611cdd57600080fd5b81516119858161191a565b8183823760009101908152919050565b6000823561023e19833603018112611d0f57600080fd5b9190910192915050565b60008235607e19833603018112611d0f57600080fd5b6000808335601e19843603018112611d4657600080fd5b8301803591506001600160401b03821115611d6057600080fd5b602001915036819003821315611d7557600080fd5b9250929050565b600060208284031215611d8e57600080fd5b813560ff8116811461198557600080fd5b6000808335601e19843603018112611db657600080fd5b8301803591506001600160401b03821115611dd057600080fd5b6020019150600581901b3603821315611d7557600080fd5b60006001600160401b0380841115611e0257611e026119fd565b8360051b6020611e1460208301611a13565b86815291850191602081019036841115611e2d57600080fd5b865b84811015611e7557803586811115611e475760008081fd5b880136601f820112611e595760008081fd5b611e67368235878401611a43565b845250918301918301611e2f565b50979650505050505050565b60005b83811015611e9c578181015183820152602001611e84565b50506000910152565b60008251611d0f818460208701611e81565b60008151808452611ecf816020860160208601611e81565b601f01601f19169290920160200192915050565b604081526000611ef66040830185611eb7565b905060018060a01b03831660208301529392505050565b60a081526000611f2060a0830188611eb7565b6001600160a01b0396871660208401529486166040830152509184166060830152909216608090920191909152919050565b60008151808452602080850194506020840160005b83811015611f8c5781516001600160a01b031687529582019590820190600101611f67565b509495945050505050565b60008282518085526020808601955060208260051b8401016020860160005b84811015611fe457601f19868403018952611fd2838351611eb7565b98840198925090830190600101611fb6565b5090979650505050505050565b60a08152600061200460a0830188611eb7565b6001600160a01b0387811660208501528681166040850152858116606085015283820360808501528451168152610140602085015181602084015261204b82840182611eb7565b915050604085015182820360408401526120658282611eb7565b915050606085015161207c606084018260ff169052565b50608085015161209760808401826001600160a01b03169052565b5060a08501516120b260a08401826001600160a01b03169052565b5060c085015182820360c08401526120ca8282611f52565b91505060e085015182820360e08401526120e48282611f52565b91505061010080860151838303828501526120ff8382611f52565b92505050610120808601518383038285015261211b8382611f97565b9b9a5050505050505050505050565b6001600160a01b0384811682528316602082015260606040820181905260009061215690830184611eb7565b95945050505050565b634e487b7160e01b600052603260045260246000fd5b6001600160a01b0384168152604060208201819052810182905260006001600160fb1b038311156121a557600080fd5b8260051b8085606085013791909101606001949350505050565b6000602082840312156121d157600080fd5b8151801515811461198557600080fdfea26469706673582212208a40a0378f407b45de8562ae5fa2d7418b50c386a8126b6d6a4dbca948d81a9564736f6c63430008180033",
  "linkReferences": {
    "contracts/erc3643/factory/libraries/TREXDeployments.sol": {
      "TREXDeployments": [
        {
          "length": 20,
          "start": 4924
        },
        {
          "length": 20,
          "start": 5063
        },
        {
          "length": 20,
          "start": 5204
        },
        {
          "length": 20,
          "start": 5363
        },
        {
          "length": 20,
          "start": 5515
        },
        {
          "length": 20,
          "start": 5660
        }
      ]
    }
  },
  "deployedLinkReferences": {
    "contracts/erc3643/factory/libraries/TREXDeployments.sol": {
      "TREXDeployments": [
        {
          "length": 20,
          "start": 3302
        },
        {
          "length": 20,
          "start": 3441
        },
        {
          "length": 20,
          "start": 3582
        },
        {
          "length": 20,
          "start": 3741
        },
        {
          "length": 20,
          "start": 3893
        },
        {
          "length": 20,
          "start": 4038
        }
      ]
    }
  }
}