{
  "_format": "hh-sol-artifact-1",
  "contractName": "UniswapV2Router02",
  "sourceName": "contracts/uniswap/v2-periphery/UniswapV2Router02.sol",
  "abi": [
    {
      "inputs": [
        {
          "internalType": "address",
          "name": "_factory",
          "type": "address"
        },
        {
          "internalType": "address",
          "name": "_WETH",
          "type": "address"
        }
      ],
      "stateMutability": "nonpayable",
      "type": "constructor"
    },
    {
      "inputs": [],
      "name": "WETH",
      "outputs": [
        {
          "internalType": "address",
          "name": "",
          "type": "address"
        }
      ],
      "stateMutability": "view",
      "type": "function"
    },
    {
      "inputs": [
        {
          "internalType": "address",
          "name": "tokenA",
          "type": "address"
        },
        {
          "internalType": "address",
          "name": "tokenB",
          "type": "address"
        },
        {
          "internalType": "uint256",
          "name": "amountADesired",
          "type": "uint256"
        },
        {
          "internalType": "uint256",
          "name": "amountBDesired",
          "type": "uint256"
        },
        {
          "internalType": "uint256",
          "name": "amountAMin",
          "type": "uint256"
        },
        {
          "internalType": "uint256",
          "name": "amountBMin",
          "type": "uint256"
        },
        {
          "internalType": "address",
          "name": "to",
          "type": "address"
        },
        {
          "internalType": "uint256",
          "name": "deadline",
          "type": "uint256"
        }
      ],
      "name": "addLiquidity",
      "outputs": [
        {
          "internalType": "uint256",
          "name": "amountA",
          "type": "uint256"
        },
        {
          "internalType": "uint256",
          "name": "amountB",
          "type": "uint256"
        },
        {
          "internalType": "uint256",
          "name": "liquidity",
          "type": "uint256"
        }
      ],
      "stateMutability": "nonpayable",
      "type": "function"
    },
    {
      "inputs": [
        {
          "internalType": "address",
          "name": "token",
          "type": "address"
        },
        {
          "internalType": "uint256",
          "name": "amountTokenDesired",
          "type": "uint256"
        },
        {
          "internalType": "uint256",
          "name": "amountTokenMin",
          "type": "uint256"
        },
        {
          "internalType": "uint256",
          "name": "amountETHMin",
          "type": "uint256"
        },
        {
          "internalType": "address",
          "name": "to",
          "type": "address"
        },
        {
          "internalType": "uint256",
          "name": "deadline",
          "type": "uint256"
        }
      ],
      "name": "addLiquidityETH",
      "outputs": [
        {
          "internalType": "uint256",
          "name": "amountToken",
          "type": "uint256"
        },
        {
          "internalType": "uint256",
          "name": "amountETH",
          "type": "uint256"
        },
        {
          "internalType": "uint256",
          "name": "liquidity",
          "type": "uint256"
        }
      ],
      "stateMutability": "payable",
      "type": "function"
    },
    {
      "inputs": [
        {
          "components": [
            {
              "internalType": "address",
              "name": "tokenA",
              "type": "address"
            },
            {
              "internalType": "address",
              "name": "tokenB",
              "type": "address"
            },
            {
              "internalType": "uint256",
              "name": "amountADesired",
              "type": "uint256"
            },
            {
              "internalType": "uint256",
              "name": "amountBDesired",
              "type": "uint256"
            },
            {
              "internalType": "uint256",
              "name": "amountAMin",
              "type": "uint256"
            },
            {
              "internalType": "uint256",
              "name": "amountBMin",
              "type": "uint256"
            },
            {
              "internalType": "address",
              "name": "to",
              "type": "address"
            },
            {
              "internalType": "uint256",
              "name": "deadline",
              "type": "uint256"
            },
            {
              "internalType": "uint8[]",
              "name": "v",
              "type": "uint8[]"
            },
            {
              "internalType": "bytes32[]",
              "name": "r",
              "type": "bytes32[]"
            },
            {
              "internalType": "bytes32[]",
              "name": "s",
              "type": "bytes32[]"
            }
          ],
          "internalType": "struct UniswapV2Router02.AddLiquidityWithPermitParams",
          "name": "params",
          "type": "tuple"
        }
      ],
      "name": "addLiquidityWithPermit",
      "outputs": [
        {
          "internalType": "uint256",
          "name": "amountA",
          "type": "uint256"
        },
        {
          "internalType": "uint256",
          "name": "amountB",
          "type": "uint256"
        },
        {
          "internalType": "uint256",
          "name": "liquidity",
          "type": "uint256"
        }
      ],
      "stateMutability": "nonpayable",
      "type": "function"
    },
    {
      "inputs": [],
      "name": "factory",
      "outputs": [
        {
          "internalType": "address",
          "name": "",
          "type": "address"
        }
      ],
      "stateMutability": "view",
      "type": "function"
    },
    {
      "inputs": [
        {
          "internalType": "uint256",
          "name": "amountOut",
          "type": "uint256"
        },
        {
          "internalType": "uint256",
          "name": "reserveIn",
          "type": "uint256"
        },
        {
          "internalType": "uint256",
          "name": "reserveOut",
          "type": "uint256"
        }
      ],
      "name": "getAmountIn",
      "outputs": [
        {
          "internalType": "uint256",
          "name": "amountIn",
          "type": "uint256"
        }
      ],
      "stateMutability": "pure",
      "type": "function"
    },
    {
      "inputs": [
        {
          "internalType": "uint256",
          "name": "amountIn",
          "type": "uint256"
        },
        {
          "internalType": "uint256",
          "name": "reserveIn",
          "type": "uint256"
        },
        {
          "internalType": "uint256",
          "name": "reserveOut",
          "type": "uint256"
        }
      ],
      "name": "getAmountOut",
      "outputs": [
        {
          "internalType": "uint256",
          "name": "amountOut",
          "type": "uint256"
        }
      ],
      "stateMutability": "pure",
      "type": "function"
    },
    {
      "inputs": [
        {
          "internalType": "uint256",
          "name": "amountOut",
          "type": "uint256"
        },
        {
          "internalType": "address[]",
          "name": "path",
          "type": "address[]"
        }
      ],
      "name": "getAmountsIn",
      "outputs": [
        {
          "internalType": "uint256[]",
          "name": "amounts",
          "type": "uint256[]"
        }
      ],
      "stateMutability": "view",
      "type": "function"
    },
    {
      "inputs": [
        {
          "internalType": "uint256",
          "name": "amountIn",
          "type": "uint256"
        },
        {
          "internalType": "address[]",
          "name": "path",
          "type": "address[]"
        }
      ],
      "name": "getAmountsOut",
      "outputs": [
        {
          "internalType": "uint256[]",
          "name": "amounts",
          "type": "uint256[]"
        }
      ],
      "stateMutability": "view",
      "type": "function"
    },
    {
      "inputs": [
        {
          "internalType": "uint256",
          "name": "amountA",
          "type": "uint256"
        },
        {
          "internalType": "uint256",
          "name": "reserveA",
          "type": "uint256"
        },
        {
          "internalType": "uint256",
          "name": "reserveB",
          "type": "uint256"
        }
      ],
      "name": "quote",
      "outputs": [
        {
          "internalType": "uint256",
          "name": "amountB",
          "type": "uint256"
        }
      ],
      "stateMutability": "pure",
      "type": "function"
    },
    {
      "inputs": [
        {
          "internalType": "address",
          "name": "tokenA",
          "type": "address"
        },
        {
          "internalType": "address",
          "name": "tokenB",
          "type": "address"
        },
        {
          "internalType": "uint256",
          "name": "liquidity",
          "type": "uint256"
        },
        {
          "internalType": "uint256",
          "name": "amountAMin",
          "type": "uint256"
        },
        {
          "internalType": "uint256",
          "name": "amountBMin",
          "type": "uint256"
        },
        {
          "internalType": "address",
          "name": "to",
          "type": "address"
        },
        {
          "internalType": "uint256",
          "name": "deadline",
          "type": "uint256"
        }
      ],
      "name": "removeLiquidity",
      "outputs": [
        {
          "internalType": "uint256",
          "name": "amountA",
          "type": "uint256"
        },
        {
          "internalType": "uint256",
          "name": "amountB",
          "type": "uint256"
        }
      ],
      "stateMutability": "nonpayable",
      "type": "function"
    },
    {
      "inputs": [
        {
          "internalType": "address",
          "name": "token",
          "type": "address"
        },
        {
          "internalType": "uint256",
          "name": "liquidity",
          "type": "uint256"
        },
        {
          "internalType": "uint256",
          "name": "amountTokenMin",
          "type": "uint256"
        },
        {
          "internalType": "uint256",
          "name": "amountETHMin",
          "type": "uint256"
        },
        {
          "internalType": "address",
          "name": "to",
          "type": "address"
        },
        {
          "internalType": "uint256",
          "name": "deadline",
          "type": "uint256"
        }
      ],
      "name": "removeLiquidityETH",
      "outputs": [
        {
          "internalType": "uint256",
          "name": "amountToken",
          "type": "uint256"
        },
        {
          "internalType": "uint256",
          "name": "amountETH",
          "type": "uint256"
        }
      ],
      "stateMutability": "nonpayable",
      "type": "function"
    },
    {
      "inputs": [
        {
          "internalType": "address",
          "name": "token",
          "type": "address"
        },
        {
          "internalType": "uint256",
          "name": "liquidity",
          "type": "uint256"
        },
        {
          "internalType": "uint256",
          "name": "amountTokenMin",
          "type": "uint256"
        },
        {
          "internalType": "uint256",
          "name": "amountETHMin",
          "type": "uint256"
        },
        {
          "internalType": "address",
          "name": "to",
          "type": "address"
        },
        {
          "internalType": "uint256",
          "name": "deadline",
          "type": "uint256"
        }
      ],
      "name": "removeLiquidityETHSupportingFeeOnTransferTokens",
      "outputs": [
        {
          "internalType": "uint256",
          "name": "amountETH",
          "type": "uint256"
        }
      ],
      "stateMutability": "nonpayable",
      "type": "function"
    },
    {
      "inputs": [
        {
          "internalType": "address",
          "name": "token",
          "type": "address"
        },
        {
          "internalType": "uint256",
          "name": "liquidity",
          "type": "uint256"
        },
        {
          "internalType": "uint256",
          "name": "amountTokenMin",
          "type": "uint256"
        },
        {
          "internalType": "uint256",
          "name": "amountETHMin",
          "type": "uint256"
        },
        {
          "internalType": "address",
          "name": "to",
          "type": "address"
        },
        {
          "internalType": "uint256",
          "name": "deadline",
          "type": "uint256"
        },
        {
          "internalType": "bool",
          "name": "approveMax",
          "type": "bool"
        },
        {
          "internalType": "uint8",
          "name": "v",
          "type": "uint8"
        },
        {
          "internalType": "bytes32",
          "name": "r",
          "type": "bytes32"
        },
        {
          "internalType": "bytes32",
          "name": "s",
          "type": "bytes32"
        }
      ],
      "name": "removeLiquidityETHWithPermit",
      "outputs": [
        {
          "internalType": "uint256",
          "name": "amountToken",
          "type": "uint256"
        },
        {
          "internalType": "uint256",
          "name": "amountETH",
          "type": "uint256"
        }
      ],
      "stateMutability": "nonpayable",
      "type": "function"
    },
    {
      "inputs": [
        {
          "internalType": "address",
          "name": "token",
          "type": "address"
        },
        {
          "internalType": "uint256",
          "name": "liquidity",
          "type": "uint256"
        },
        {
          "internalType": "uint256",
          "name": "amountTokenMin",
          "type": "uint256"
        },
        {
          "internalType": "uint256",
          "name": "amountETHMin",
          "type": "uint256"
        },
        {
          "internalType": "address",
          "name": "to",
          "type": "address"
        },
        {
          "internalType": "uint256",
          "name": "deadline",
          "type": "uint256"
        },
        {
          "internalType": "bool",
          "name": "approveMax",
          "type": "bool"
        },
        {
          "internalType": "uint8",
          "name": "v",
          "type": "uint8"
        },
        {
          "internalType": "bytes32",
          "name": "r",
          "type": "bytes32"
        },
        {
          "internalType": "bytes32",
          "name": "s",
          "type": "bytes32"
        }
      ],
      "name": "removeLiquidityETHWithPermitSupportingFeeOnTransferTokens",
      "outputs": [
        {
          "internalType": "uint256",
          "name": "amountETH",
          "type": "uint256"
        }
      ],
      "stateMutability": "nonpayable",
      "type": "function"
    },
    {
      "inputs": [
        {
          "internalType": "address",
          "name": "tokenA",
          "type": "address"
        },
        {
          "internalType": "address",
          "name": "tokenB",
          "type": "address"
        },
        {
          "internalType": "uint256",
          "name": "liquidity",
          "type": "uint256"
        },
        {
          "internalType": "uint256",
          "name": "amountAMin",
          "type": "uint256"
        },
        {
          "internalType": "uint256",
          "name": "amountBMin",
          "type": "uint256"
        },
        {
          "internalType": "address",
          "name": "to",
          "type": "address"
        },
        {
          "internalType": "uint256",
          "name": "deadline",
          "type": "uint256"
        },
        {
          "internalType": "bool",
          "name": "approveMax",
          "type": "bool"
        },
        {
          "internalType": "uint8",
          "name": "v",
          "type": "uint8"
        },
        {
          "internalType": "bytes32",
          "name": "r",
          "type": "bytes32"
        },
        {
          "internalType": "bytes32",
          "name": "s",
          "type": "bytes32"
        }
      ],
      "name": "removeLiquidityWithPermit",
      "outputs": [
        {
          "internalType": "uint256",
          "name": "amountA",
          "type": "uint256"
        },
        {
          "internalType": "uint256",
          "name": "amountB",
          "type": "uint256"
        }
      ],
      "stateMutability": "nonpayable",
      "type": "function"
    },
    {
      "inputs": [
        {
          "internalType": "uint256",
          "name": "amountOut",
          "type": "uint256"
        },
        {
          "internalType": "address[]",
          "name": "path",
          "type": "address[]"
        },
        {
          "internalType": "address",
          "name": "to",
          "type": "address"
        },
        {
          "internalType": "uint256",
          "name": "deadline",
          "type": "uint256"
        }
      ],
      "name": "swapETHForExactTokens",
      "outputs": [
        {
          "internalType": "uint256[]",
          "name": "amounts",
          "type": "uint256[]"
        }
      ],
      "stateMutability": "payable",
      "type": "function"
    },
    {
      "inputs": [
        {
          "internalType": "uint256",
          "name": "amountOutMin",
          "type": "uint256"
        },
        {
          "internalType": "address[]",
          "name": "path",
          "type": "address[]"
        },
        {
          "internalType": "address",
          "name": "to",
          "type": "address"
        },
        {
          "internalType": "uint256",
          "name": "deadline",
          "type": "uint256"
        }
      ],
      "name": "swapExactETHForTokens",
      "outputs": [
        {
          "internalType": "uint256[]",
          "name": "amounts",
          "type": "uint256[]"
        }
      ],
      "stateMutability": "payable",
      "type": "function"
    },
    {
      "inputs": [
        {
          "internalType": "uint256",
          "name": "amountOutMin",
          "type": "uint256"
        },
        {
          "internalType": "address[]",
          "name": "path",
          "type": "address[]"
        },
        {
          "internalType": "address",
          "name": "to",
          "type": "address"
        },
        {
          "internalType": "uint256",
          "name": "deadline",
          "type": "uint256"
        }
      ],
      "name": "swapExactETHForTokensSupportingFeeOnTransferTokens",
      "outputs": [],
      "stateMutability": "payable",
      "type": "function"
    },
    {
      "inputs": [
        {
          "internalType": "uint256",
          "name": "amountIn",
          "type": "uint256"
        },
        {
          "internalType": "uint256",
          "name": "amountOutMin",
          "type": "uint256"
        },
        {
          "internalType": "address[]",
          "name": "path",
          "type": "address[]"
        },
        {
          "internalType": "address",
          "name": "to",
          "type": "address"
        },
        {
          "internalType": "uint256",
          "name": "deadline",
          "type": "uint256"
        }
      ],
      "name": "swapExactTokensForETH",
      "outputs": [
        {
          "internalType": "uint256[]",
          "name": "amounts",
          "type": "uint256[]"
        }
      ],
      "stateMutability": "nonpayable",
      "type": "function"
    },
    {
      "inputs": [
        {
          "internalType": "uint256",
          "name": "amountIn",
          "type": "uint256"
        },
        {
          "internalType": "uint256",
          "name": "amountOutMin",
          "type": "uint256"
        },
        {
          "internalType": "address[]",
          "name": "path",
          "type": "address[]"
        },
        {
          "internalType": "address",
          "name": "to",
          "type": "address"
        },
        {
          "internalType": "uint256",
          "name": "deadline",
          "type": "uint256"
        }
      ],
      "name": "swapExactTokensForETHSupportingFeeOnTransferTokens",
      "outputs": [],
      "stateMutability": "nonpayable",
      "type": "function"
    },
    {
      "inputs": [
        {
          "internalType": "uint256",
          "name": "amountIn",
          "type": "uint256"
        },
        {
          "internalType": "uint256",
          "name": "amountOutMin",
          "type": "uint256"
        },
        {
          "internalType": "address[]",
          "name": "path",
          "type": "address[]"
        },
        {
          "internalType": "address",
          "name": "to",
          "type": "address"
        },
        {
          "internalType": "uint256",
          "name": "deadline",
          "type": "uint256"
        }
      ],
      "name": "swapExactTokensForTokens",
      "outputs": [
        {
          "internalType": "uint256[]",
          "name": "amounts",
          "type": "uint256[]"
        }
      ],
      "stateMutability": "nonpayable",
      "type": "function"
    },
    {
      "inputs": [
        {
          "internalType": "uint256",
          "name": "amountIn",
          "type": "uint256"
        },
        {
          "internalType": "uint256",
          "name": "amountOutMin",
          "type": "uint256"
        },
        {
          "internalType": "address[]",
          "name": "path",
          "type": "address[]"
        },
        {
          "internalType": "address",
          "name": "to",
          "type": "address"
        },
        {
          "internalType": "uint256",
          "name": "deadline",
          "type": "uint256"
        }
      ],
      "name": "swapExactTokensForTokensSupportingFeeOnTransferTokens",
      "outputs": [],
      "stateMutability": "nonpayable",
      "type": "function"
    },
    {
      "inputs": [
        {
          "internalType": "uint256",
          "name": "amountOut",
          "type": "uint256"
        },
        {
          "internalType": "uint256",
          "name": "amountInMax",
          "type": "uint256"
        },
        {
          "internalType": "address[]",
          "name": "path",
          "type": "address[]"
        },
        {
          "internalType": "address",
          "name": "to",
          "type": "address"
        },
        {
          "internalType": "uint256",
          "name": "deadline",
          "type": "uint256"
        }
      ],
      "name": "swapTokensForExactETH",
      "outputs": [
        {
          "internalType": "uint256[]",
          "name": "amounts",
          "type": "uint256[]"
        }
      ],
      "stateMutability": "nonpayable",
      "type": "function"
    },
    {
      "inputs": [
        {
          "internalType": "uint256",
          "name": "amountOut",
          "type": "uint256"
        },
        {
          "internalType": "uint256",
          "name": "amountInMax",
          "type": "uint256"
        },
        {
          "internalType": "address[]",
          "name": "path",
          "type": "address[]"
        },
        {
          "internalType": "address",
          "name": "to",
          "type": "address"
        },
        {
          "internalType": "uint256",
          "name": "deadline",
          "type": "uint256"
        }
      ],
      "name": "swapTokensForExactTokens",
      "outputs": [
        {
          "internalType": "uint256[]",
          "name": "amounts",
          "type": "uint256[]"
        }
      ],
      "stateMutability": "nonpayable",
      "type": "function"
    },
    {
      "stateMutability": "payable",
      "type": "receive"
    }
  ],
  "bytecode": "0x60c06040523480156200001157600080fd5b506040516200474c3803806200474c833981016040819052620000349162000069565b6001600160a01b039182166080521660a052620000a1565b80516001600160a01b03811681146200006457600080fd5b919050565b600080604083850312156200007d57600080fd5b62000088836200004c565b915062000098602084016200004c565b90509250929050565b60805160a0516145126200023a6000396000818161016a0152818161037801528181610542015281816105910152818161064d0152818161087001528181610ba901528181610ce40152818161103401528181611119015281816111c70152818161125a01528181611378015281816114060152818161163a015281816116f701528181611a5801528181611ad501528181611b4901528181611f7501528181612169015281816121bf015281816121f301528181612279015281816123c1015281816124d30152612561015260008181610467015281816106c90152818161079b015281816109560152818161098f01528181610a8601528181610c2501528181610cc201528181610df9015281816112d5015281816114380152818161156f0152818161197101528181611b7b01528181611d8201528181611f2301528181611f530152818161207c0152818161219d0152818161243c0152818161259301528181612dcd01528181612e1d015281816130b001528181613259015281816134c10152818161356301526135da01526145126000f3fe60806040526004361061015a5760003560e01c80638803dbee116100c1578063baa2abde1161007a578063baa2abde14610435578063c45a015514610455578063d06ca61f14610489578063ded9382a146104a9578063e8e33700146104c9578063f305d719146104e9578063fb3bdb41146104fc57600080fd5b80638803dbee14610346578063ad5c464814610366578063ad615dec146103a7578063af2979eb146103c7578063b0393128146103e7578063b6f9de951461042257600080fd5b80634a25d94a116101135780634a25d94a146102935780635b0d5984146102b35780635c11d795146102d3578063791ac947146102f35780637ff36ab51461031357806385f8c2591461032657600080fd5b806302751cec1461019e578063054d50d4146101d857806318cbafe5146102065780631f00ca74146102335780632195995c1461025357806338ed17391461027357600080fd5b3661019957336001600160a01b037f0000000000000000000000000000000000000000000000000000000000000000161461019757610197613878565b005b600080fd5b3480156101aa57600080fd5b506101be6101b93660046138b6565b61050f565b604080519283526020830191909152015b60405180910390f35b3480156101e457600080fd5b506101f86101f3366004613914565b61060b565b6040519081526020016101cf565b34801561021257600080fd5b50610226610221366004613984565b610620565b6040516101cf91906139f6565b34801561023f57600080fd5b5061022661024e366004613acc565b61094f565b34801561025f57600080fd5b506101be61026e366004613b95565b610985565b34801561027f57600080fd5b5061022661028e366004613984565b610a5e565b34801561029f57600080fd5b506102266102ae366004613984565b610b7c565b3480156102bf57600080fd5b506101f86102ce366004613c3f565b610cba565b3480156102df57600080fd5b506101976102ee366004613984565b610da7565b3480156102ff57600080fd5b5061019761030e366004613984565b611009565b610226610321366004613cd5565b611235565b34801561033257600080fd5b506101f8610341366004613914565b61153a565b34801561035257600080fd5b50610226610361366004613984565b611547565b34801561037257600080fd5b5061039a7f000000000000000000000000000000000000000000000000000000000000000081565b6040516101cf9190613d3b565b3480156103b357600080fd5b506101f86103c2366004613914565b611604565b3480156103d357600080fd5b506101f86103e23660046138b6565b611611565b3480156103f357600080fd5b50610407610402366004613e14565b611765565b604080519384526020840192909252908201526060016101cf565b610197610430366004613cd5565b611a35565b34801561044157600080fd5b506101be610450366004613f36565b611d57565b34801561046157600080fd5b5061039a7f000000000000000000000000000000000000000000000000000000000000000081565b34801561049557600080fd5b506102266104a4366004613acc565b611f1c565b3480156104b557600080fd5b506101be6104c4366004613c3f565b611f49565b3480156104d557600080fd5b506104076104e4366004613fa8565b61203c565b6104076104f73660046138b6565b61213d565b61022661050a366004613cd5565b61239c565b600080824281101561053c5760405162461bcd60e51b815260040161053390614024565b60405180910390fd5b61056b897f00000000000000000000000000000000000000000000000000000000000000008a8a8a308a611d57565b909350915061057b8986856126d7565b604051632e1a7d4d60e01b8152600481018390527f00000000000000000000000000000000000000000000000000000000000000006001600160a01b031690632e1a7d4d90602401600060405180830381600087803b1580156105dd57600080fd5b505af11580156105f1573d6000803e3d6000fd5b505050506105ff85836127f4565b50965096945050505050565b60006106188484846128c2565b949350505050565b606081428110156106435760405162461bcd60e51b815260040161053390614024565b6001600160a01b037f000000000000000000000000000000000000000000000000000000000000000016868661067a60018261406c565b8181106106895761068961407f565b905060200201602081019061069e9190614095565b6001600160a01b0316146106c45760405162461bcd60e51b8152600401610533906140b9565b6107227f0000000000000000000000000000000000000000000000000000000000000000898888808060200260200160405190810160405280939291908181526020018383602002808284376000920191909152506129a192505050565b9150868260018451610734919061406c565b815181106107445761074461407f565b6020026020010151101561076a5760405162461bcd60e51b8152600401610533906140f0565b61082f868660008181106107805761078061407f565b90506020020160208101906107959190614095565b3361080f7f00000000000000000000000000000000000000000000000000000000000000008a8a60008181106107cd576107cd61407f565b90506020020160208101906107e29190614095565b8b8b60018181106107f5576107f561407f565b905060200201602081019061080a9190614095565b612aef565b856000815181106108225761082261407f565b6020026020010151612bbe565b61086e82878780806020026020016040519081016040528093929190818152602001838360200280828437600092019190915250309250612cea915050565b7f00000000000000000000000000000000000000000000000000000000000000006001600160a01b0316632e1a7d4d83600185516108ac919061406c565b815181106108bc576108bc61407f565b60200260200101516040518263ffffffff1660e01b81526004016108e291815260200190565b600060405180830381600087803b1580156108fc57600080fd5b505af1158015610910573d6000803e3d6000fd5b50505050610944848360018551610927919061406c565b815181106109375761093761407f565b60200260200101516127f4565b509695505050505050565b606061097c7f00000000000000000000000000000000000000000000000000000000000000008484612eeb565b90505b92915050565b60008060006109b57f00000000000000000000000000000000000000000000000000000000000000008f8f612aef565b90506000876109c4578c6109c8565b6000195b60405163d505accf60e01b81529091506001600160a01b0383169063d505accf90610a03903390309086908f908e908e908e9060040161413b565b600060405180830381600087803b158015610a1d57600080fd5b505af1158015610a31573d6000803e3d6000fd5b50505050610a448f8f8f8f8f8f8f611d57565b809450819550505050509b509b9950505050505050505050565b60608142811015610a815760405162461bcd60e51b815260040161053390614024565b610adf7f0000000000000000000000000000000000000000000000000000000000000000898888808060200260200160405190810160405280939291908181526020018383602002808284376000920191909152506129a192505050565b9150868260018451610af1919061406c565b81518110610b0157610b0161407f565b60200260200101511015610b275760405162461bcd60e51b8152600401610533906140f0565b610b3d868660008181106107805761078061407f565b61094482878780806020026020016040519081016040528093929190818152602001838360200280828437600092019190915250899250612cea915050565b60608142811015610b9f5760405162461bcd60e51b815260040161053390614024565b6001600160a01b037f0000000000000000000000000000000000000000000000000000000000000000168686610bd660018261406c565b818110610be557610be561407f565b9050602002016020810190610bfa9190614095565b6001600160a01b031614610c205760405162461bcd60e51b8152600401610533906140b9565b610c7e7f000000000000000000000000000000000000000000000000000000000000000089888880806020026020016040519081016040528093929190818152602001838360200280828437600092019190915250612eeb92505050565b91508682600081518110610c9457610c9461407f565b6020026020010151111561076a5760405162461bcd60e51b81526004016105339061417c565b600080610d087f00000000000000000000000000000000000000000000000000000000000000008d7f0000000000000000000000000000000000000000000000000000000000000000612aef565b9050600086610d17578b610d1b565b6000195b60405163d505accf60e01b81529091506001600160a01b0383169063d505accf90610d56903390309086908e908d908d908d9060040161413b565b600060405180830381600087803b158015610d7057600080fd5b505af1158015610d84573d6000803e3d6000fd5b50505050610d968d8d8d8d8d8d611611565b9d9c50505050505050505050505050565b8042811015610dc85760405162461bcd60e51b815260040161053390614024565b610e5985856000818110610dde57610dde61407f565b9050602002016020810190610df39190614095565b33610e537f000000000000000000000000000000000000000000000000000000000000000089896000818110610e2b57610e2b61407f565b9050602002016020810190610e409190614095565b8a8a60018181106107f5576107f561407f565b8a612bbe565b60008585610e6860018261406c565b818110610e7757610e7761407f565b9050602002016020810190610e8c9190614095565b6001600160a01b03166370a08231856040518263ffffffff1660e01b8152600401610eb79190613d3b565b602060405180830381865afa158015610ed4573d6000803e3d6000fd5b505050506040513d601f19601f82011682018060405250810190610ef891906141c3565b9050610f3886868080602002602001604051908101604052809392919081815260200183836020028082843760009201919091525088925061303b915050565b86818787610f4760018261406c565b818110610f5657610f5661407f565b9050602002016020810190610f6b9190614095565b6001600160a01b03166370a08231876040518263ffffffff1660e01b8152600401610f969190613d3b565b602060405180830381865afa158015610fb3573d6000803e3d6000fd5b505050506040513d601f19601f82011682018060405250810190610fd791906141c3565b610fe1919061406c565b1015610fff5760405162461bcd60e51b8152600401610533906140f0565b5050505050505050565b804281101561102a5760405162461bcd60e51b815260040161053390614024565b6001600160a01b037f000000000000000000000000000000000000000000000000000000000000000016858561106160018261406c565b8181106110705761107061407f565b90506020020160208101906110859190614095565b6001600160a01b0316146110ab5760405162461bcd60e51b8152600401610533906140b9565b6110c185856000818110610dde57610dde61407f565b6110ff85858080602002602001604051908101604052809392919081815260200183836020028082843760009201919091525030925061303b915050565b6040516370a0823160e01b81526000906001600160a01b037f000000000000000000000000000000000000000000000000000000000000000016906370a082319061114e903090600401613d3b565b602060405180830381865afa15801561116b573d6000803e3d6000fd5b505050506040513d601f19601f8201168201806040525081019061118f91906141c3565b9050868110156111b15760405162461bcd60e51b8152600401610533906140f0565b604051632e1a7d4d60e01b8152600481018290527f00000000000000000000000000000000000000000000000000000000000000006001600160a01b031690632e1a7d4d90602401600060405180830381600087803b15801561121357600080fd5b505af1158015611227573d6000803e3d6000fd5b50505050610fff84826127f4565b606081428110156112585760405162461bcd60e51b815260040161053390614024565b7f00000000000000000000000000000000000000000000000000000000000000006001600160a01b0316868660008181106112955761129561407f565b90506020020160208101906112aa9190614095565b6001600160a01b0316146112d05760405162461bcd60e51b8152600401610533906140b9565b61132e7f0000000000000000000000000000000000000000000000000000000000000000348888808060200260200160405190810160405280939291908181526020018383602002808284376000920191909152506129a192505050565b9150868260018451611340919061406c565b815181106113505761135061407f565b602002602001015110156113765760405162461bcd60e51b8152600401610533906140f0565b7f00000000000000000000000000000000000000000000000000000000000000006001600160a01b031663d0e30db0836000815181106113b8576113b861407f565b60200260200101516040518263ffffffff1660e01b81526004016000604051808303818588803b1580156113eb57600080fd5b505af11580156113ff573d6000803e3d6000fd5b50505050507f00000000000000000000000000000000000000000000000000000000000000006001600160a01b031663a9059cbb61146a7f000000000000000000000000000000000000000000000000000000000000000089896000818110610e2b57610e2b61407f565b8460008151811061147d5761147d61407f565b60200260200101516040518363ffffffff1660e01b81526004016114a29291906141dc565b6020604051808303816000875af11580156114c1573d6000803e3d6000fd5b505050506040513d601f19601f820116820180604052508101906114e591906141f5565b6114f1576114f1613878565b61153082878780806020026020016040519081016040528093929190818152602001838360200280828437600092019190915250899250612cea915050565b5095945050505050565b600061061884848461330e565b6060814281101561156a5760405162461bcd60e51b815260040161053390614024565b6115c87f000000000000000000000000000000000000000000000000000000000000000089888880806020026020016040519081016040528093929190818152602001838360200280828437600092019190915250612eeb92505050565b915086826000815181106115de576115de61407f565b60200260200101511115610b275760405162461bcd60e51b81526004016105339061417c565b60006106188484846133f3565b600081428110156116345760405162461bcd60e51b815260040161053390614024565b611663887f00000000000000000000000000000000000000000000000000000000000000008989893089611d57565b6040516370a0823160e01b81529093506116e19150899086906001600160a01b038316906370a082319061169b903090600401613d3b565b602060405180830381865afa1580156116b8573d6000803e3d6000fd5b505050506040513d601f19601f820116820180604052508101906116dc91906141c3565b6126d7565b604051632e1a7d4d60e01b8152600481018390527f00000000000000000000000000000000000000000000000000000000000000006001600160a01b031690632e1a7d4d90602401600060405180830381600087803b15801561174357600080fd5b505af1158015611757573d6000803e3d6000fd5b5050505061094484836127f4565b60008060008360e001514281101561178f5760405162461bcd60e51b815260040161053390614024565b84600001516001600160a01b031663d505accf333088604001518960e001518a61010001516000815181106117c6576117c661407f565b60200260200101518b61012001516000815181106117e6576117e661407f565b60200260200101518c61014001516000815181106118065761180661407f565b60200260200101516040518863ffffffff1660e01b8152600401611830979695949392919061413b565b600060405180830381600087803b15801561184a57600080fd5b505af115801561185e573d6000803e3d6000fd5b5050505084602001516001600160a01b031663d505accf333088606001518960e001518a61010001516001815181106118995761189961407f565b60200260200101518b61012001516001815181106118b9576118b961407f565b60200260200101518c61014001516001815181106118d9576118d961407f565b60200260200101516040518863ffffffff1660e01b8152600401611903979695949392919061413b565b600060405180830381600087803b15801561191d57600080fd5b505af1158015611931573d6000803e3d6000fd5b5050505061195b856000015186602001518760400151886060015189608001518a60a00151613493565b86516020880151929650909450600091611996917f000000000000000000000000000000000000000000000000000000000000000091612aef565b90506119a88660000151338388612bbe565b6119b88660200151338387612bbe565b60c08601516040516335313c2160e11b81526001600160a01b03831691636a627842916119e89190600401613d3b565b6020604051808303816000875af1158015611a07573d6000803e3d6000fd5b505050506040513d601f19601f82011682018060405250810190611a2b91906141c3565b9496939550505050565b8042811015611a565760405162461bcd60e51b815260040161053390614024565b7f00000000000000000000000000000000000000000000000000000000000000006001600160a01b031685856000818110611a9357611a9361407f565b9050602002016020810190611aa89190614095565b6001600160a01b031614611ace5760405162461bcd60e51b8152600401610533906140b9565b60003490507f00000000000000000000000000000000000000000000000000000000000000006001600160a01b031663d0e30db0826040518263ffffffff1660e01b81526004016000604051808303818588803b158015611b2e57600080fd5b505af1158015611b42573d6000803e3d6000fd5b50505050507f00000000000000000000000000000000000000000000000000000000000000006001600160a01b031663a9059cbb611bad7f000000000000000000000000000000000000000000000000000000000000000089896000818110610e2b57610e2b61407f565b836040518363ffffffff1660e01b8152600401611bcb9291906141dc565b6020604051808303816000875af1158015611bea573d6000803e3d6000fd5b505050506040513d601f19601f82011682018060405250810190611c0e91906141f5565b611c1a57611c1a613878565b60008686611c2960018261406c565b818110611c3857611c3861407f565b9050602002016020810190611c4d9190614095565b6001600160a01b03166370a08231866040518263ffffffff1660e01b8152600401611c789190613d3b565b602060405180830381865afa158015611c95573d6000803e3d6000fd5b505050506040513d601f19601f82011682018060405250810190611cb991906141c3565b9050611cf987878080602002602001604051908101604052809392919081815260200183836020028082843760009201919091525089925061303b915050565b87818888611d0860018261406c565b818110611d1757611d1761407f565b9050602002016020810190611d2c9190614095565b6001600160a01b03166370a08231886040518263ffffffff1660e01b8152600401610f969190613d3b565b6000808242811015611d7b5760405162461bcd60e51b815260040161053390614024565b6000611da87f00000000000000000000000000000000000000000000000000000000000000008c8c612aef565b6040516323b872dd60e01b81529091506001600160a01b038216906323b872dd90611ddb90339085908e90600401614212565b6020604051808303816000875af1158015611dfa573d6000803e3d6000fd5b505050506040513d601f19601f82011682018060405250810190611e1e91906141f5565b50600080826001600160a01b03166389afcb44896040518263ffffffff1660e01b8152600401611e4e9190613d3b565b60408051808303816000875af1158015611e6c573d6000803e3d6000fd5b505050506040513d601f19601f82011682018060405250810190611e909190614236565b915091506000611ea08e8e6136b7565b509050806001600160a01b03168e6001600160a01b031614611ec3578183611ec6565b82825b90975095508a871015611eeb5760405162461bcd60e51b81526004016105339061425a565b89861015611f0b5760405162461bcd60e51b8152600401610533906142a0565b505050505097509795505050505050565b606061097c7f000000000000000000000000000000000000000000000000000000000000000084846129a1565b6000806000611f997f00000000000000000000000000000000000000000000000000000000000000008e7f0000000000000000000000000000000000000000000000000000000000000000612aef565b9050600087611fa8578c611fac565b6000195b60405163d505accf60e01b81529091506001600160a01b0383169063d505accf90611fe7903390309086908f908e908e908e9060040161413b565b600060405180830381600087803b15801561200157600080fd5b505af1158015612015573d6000803e3d6000fd5b505050506120278e8e8e8e8e8e61050f565b909f909e509c50505050505050505050505050565b600080600083428110156120625760405162461bcd60e51b815260040161053390614024565b6120708c8c8c8c8c8c613493565b909450925060006120a27f00000000000000000000000000000000000000000000000000000000000000008e8e612aef565b90506120b08d338388612bbe565b6120bc8c338387612bbe565b6040516335313c2160e11b81526001600160a01b03821690636a627842906120e8908a90600401613d3b565b6020604051808303816000875af1158015612107573d6000803e3d6000fd5b505050506040513d601f19601f8201168201806040525081019061212b91906141c3565b92505050985098509895505050505050565b600080600083428110156121635760405162461bcd60e51b815260040161053390614024565b6121918a7f00000000000000000000000000000000000000000000000000000000000000008b348c8c613493565b909450925060006121e37f00000000000000000000000000000000000000000000000000000000000000008c7f0000000000000000000000000000000000000000000000000000000000000000612aef565b90506121f18b338388612bbe565b7f00000000000000000000000000000000000000000000000000000000000000006001600160a01b031663d0e30db0856040518263ffffffff1660e01b81526004016000604051808303818588803b15801561224c57600080fd5b505af1158015612260573d6000803e3d6000fd5b505060405163a9059cbb60e01b81526001600160a01b037f000000000000000000000000000000000000000000000000000000000000000016935063a9059cbb92506122b39150849088906004016141dc565b6020604051808303816000875af11580156122d2573d6000803e3d6000fd5b505050506040513d601f19601f820116820180604052508101906122f691906141f5565b61230257612302613878565b6040516335313c2160e11b81526001600160a01b03821690636a6278429061232e908a90600401613d3b565b6020604051808303816000875af115801561234d573d6000803e3d6000fd5b505050506040513d601f19601f8201168201806040525081019061237191906141c3565b92508334111561238e5761238e33612389863461406c565b6127f4565b505096509650969350505050565b606081428110156123bf5760405162461bcd60e51b815260040161053390614024565b7f00000000000000000000000000000000000000000000000000000000000000006001600160a01b0316868660008181106123fc576123fc61407f565b90506020020160208101906124119190614095565b6001600160a01b0316146124375760405162461bcd60e51b8152600401610533906140b9565b6124957f000000000000000000000000000000000000000000000000000000000000000088888880806020026020016040519081016040528093929190818152602001838360200280828437600092019190915250612eeb92505050565b915034826000815181106124ab576124ab61407f565b602002602001015111156124d15760405162461bcd60e51b81526004016105339061417c565b7f00000000000000000000000000000000000000000000000000000000000000006001600160a01b031663d0e30db0836000815181106125135761251361407f565b60200260200101516040518263ffffffff1660e01b81526004016000604051808303818588803b15801561254657600080fd5b505af115801561255a573d6000803e3d6000fd5b50505050507f00000000000000000000000000000000000000000000000000000000000000006001600160a01b031663a9059cbb6125c57f000000000000000000000000000000000000000000000000000000000000000089896000818110610e2b57610e2b61407f565b846000815181106125d8576125d861407f565b60200260200101516040518363ffffffff1660e01b81526004016125fd9291906141dc565b6020604051808303816000875af115801561261c573d6000803e3d6000fd5b505050506040513d601f19601f8201168201806040525081019061264091906141f5565b61264c5761264c613878565b61268b82878780806020026020016040519081016040528093929190818152602001838360200280828437600092019190915250899250612cea915050565b8160008151811061269e5761269e61407f565b60200260200101513411156115305761153033836000815181106126c4576126c461407f565b602002602001015134612389919061406c565b600080846001600160a01b031663a9059cbb85856040516024016126fc9291906141dc565b6040516020818303038152906040529060e01b6020820180516001600160e01b038381831617835250505050604051612735919061430a565b6000604051808303816000865af19150503d8060008114612772576040519150601f19603f3d011682016040523d82523d6000602084013e612777565b606091505b50915091508180156127a15750805115806127a15750808060200190518101906127a191906141f5565b6127ed5760405162461bcd60e51b815260206004820152601f60248201527f5472616e7366657248656c7065723a205452414e534645525f4641494c4544006044820152606401610533565b5050505050565b604080516000808252602082019092526001600160a01b03841690839060405161281e919061430a565b60006040518083038185875af1925050503d806000811461285b576040519150601f19603f3d011682016040523d82523d6000602084013e612860565b606091505b50509050806128bd5760405162461bcd60e51b815260206004820152602360248201527f5472616e7366657248656c7065723a204554485f5452414e534645525f46414960448201526213115160ea1b6064820152608401610533565b505050565b60008084116129275760405162461bcd60e51b815260206004820152602b60248201527f556e697377617056324c6962726172793a20494e53554646494349454e545f4960448201526a1394155517d05353d5539560aa1b6064820152608401610533565b6000831180156129375750600082115b6129535760405162461bcd60e51b815260040161053390614326565b6000612961856103e561436e565b9050600061296f848361436e565b9050600082612980876103e861436e565b61298a9190614385565b90506129968183614398565b979650505050505050565b60606002825110156129c55760405162461bcd60e51b8152600401610533906143ba565b81516001600160401b038111156129de576129de613a3a565b604051908082528060200260200182016040528015612a07578160200160208202803683370190505b5090508281600081518110612a1e57612a1e61407f565b60200260200101818152505060005b60018351612a3b919061406c565b811015612ae757600080612a8e87868581518110612a5b57612a5b61407f565b602002602001015187866001612a719190614385565b81518110612a8157612a8161407f565b60200260200101516137ae565b91509150612ab6848481518110612aa757612aa761407f565b602002602001015183836128c2565b84612ac2856001614385565b81518110612ad257612ad261407f565b60209081029190910101525050600101612a2d565b509392505050565b6000806000612afe85856136b7565b6040516001600160601b0319606084811b8216602084015283901b1660348201529193509150869060480160405160208183030381529060405280519060200120604051602001612b9c9291906001600160f81b0319815260609290921b6001600160601b031916600183015260158201527fdea1222ed22817f96ed20157be156c80808da15c079040548d4487a79708fe8e603582015260550190565b60408051601f1981840301815291905280516020909101209695505050505050565b600080856001600160a01b03166323b872dd868686604051602401612be593929190614212565b6040516020818303038152906040529060e01b6020820180516001600160e01b038381831617835250505050604051612c1e919061430a565b6000604051808303816000865af19150503d8060008114612c5b576040519150601f19603f3d011682016040523d82523d6000602084013e612c60565b606091505b5091509150818015612c8a575080511580612c8a575080806020019051810190612c8a91906141f5565b612ce25760405162461bcd60e51b8152602060048201526024808201527f5472616e7366657248656c7065723a205452414e534645525f46524f4d5f46416044820152631253115160e21b6064820152608401610533565b505050505050565b60005b60018351612cfb919061406c565b811015612ee557600080848381518110612d1757612d1761407f565b602002602001015185846001612d2d9190614385565b81518110612d3d57612d3d61407f565b6020026020010151915091506000612d5583836136b7565b509050600087612d66866001614385565b81518110612d7657612d7661407f565b60200260200101519050600080836001600160a01b0316866001600160a01b031614612da457826000612da8565b6000835b91509150600060028a51612dbc919061406c565b8810612dc85788612e16565b612e167f0000000000000000000000000000000000000000000000000000000000000000878c612df98c6002614385565b81518110612e0957612e0961407f565b6020026020010151612aef565b9050612e437f00000000000000000000000000000000000000000000000000000000000000008888612aef565b6001600160a01b031663022c0d9f84848460006040519080825280601f01601f191660200182016040528015612e80576020820181803683370190505b506040518563ffffffff1660e01b8152600401612ea094939291906143f1565b600060405180830381600087803b158015612eba57600080fd5b505af1158015612ece573d6000803e3d6000fd5b505060019099019850612ced975050505050505050565b50505050565b6060600282511015612f0f5760405162461bcd60e51b8152600401610533906143ba565b81516001600160401b03811115612f2857612f28613a3a565b604051908082528060200260200182016040528015612f51578160200160208202803683370190505b509050828160018351612f64919061406c565b81518110612f7457612f7461407f565b602002602001018181525050600060018351612f90919061406c565b90505b8015612ae757600080612fd68786612fac60018761406c565b81518110612fbc57612fbc61407f565b6020026020010151878681518110612a8157612a8161407f565b91509150612ffe848481518110612fef57612fef61407f565b6020026020010151838361330e565b8461300a60018661406c565b8151811061301a5761301a61407f565b6020026020010181815250505050808061303390614441565b915050612f93565b60005b6001835161304c919061406c565b8110156128bd576000808483815181106130685761306861407f565b60200260200101518584600161307e9190614385565b8151811061308e5761308e61407f565b60200260200101519150915060006130a683836136b7565b50905060006130d67f00000000000000000000000000000000000000000000000000000000000000008585612aef565b9050600080600080846001600160a01b0316630902f1ac6040518163ffffffff1660e01b8152600401606060405180830381865afa15801561311c573d6000803e3d6000fd5b505050506040513d601f19601f82011682018060405250810190613140919061446f565b506001600160701b031691506001600160701b03169150600080876001600160a01b03168a6001600160a01b03161461317a57828461317d565b83835b91509150818a6001600160a01b03166370a08231896040518263ffffffff1660e01b81526004016131ae9190613d3b565b602060405180830381865afa1580156131cb573d6000803e3d6000fd5b505050506040513d601f19601f820116820180604052508101906131ef91906141c3565b6131f9919061406c565b95506132068683836128c2565b945050505050600080856001600160a01b0316886001600160a01b03161461323057826000613234565b6000835b91509150600060028c51613248919061406c565b8a10613254578a613285565b6132857f0000000000000000000000000000000000000000000000000000000000000000898e612df98e6002614385565b6040805160008152602081019182905263022c0d9f60e01b9091529091506001600160a01b0387169063022c0d9f906132c790869086908690602481016143f1565b600060405180830381600087803b1580156132e157600080fd5b505af11580156132f5573d6000803e3d6000fd5b50506001909b019a5061303e9950505050505050505050565b60008084116133745760405162461bcd60e51b815260206004820152602c60248201527f556e697377617056324c6962726172793a20494e53554646494349454e545f4f60448201526b155514155517d05353d5539560a21b6064820152608401610533565b6000831180156133845750600082115b6133a05760405162461bcd60e51b815260040161053390614326565b60006133ac858561436e565b6133b8906103e861436e565b905060006133c8866103e561436e565b6133d2908561406c565b90506133de8183614398565b6133e9906001614385565b9695505050505050565b60008084116134525760405162461bcd60e51b815260206004820152602560248201527f556e697377617056324c6962726172793a20494e53554646494349454e545f416044820152641353d5539560da1b6064820152608401610533565b6000831180156134625750600082115b61347e5760405162461bcd60e51b815260040161053390614326565b82613489838661436e565b6106189190614398565b60405163e6a4390560e01b81526001600160a01b0387811660048301528681166024830152600091829182917f00000000000000000000000000000000000000000000000000000000000000009091169063e6a4390590604401602060405180830381865afa15801561350a573d6000803e3d6000fd5b505050506040513d601f19601f8201168201806040525081019061352e91906144bf565b6001600160a01b0316036135d2576040516364e329cb60e11b81526001600160a01b03898116600483015288811660248301527f0000000000000000000000000000000000000000000000000000000000000000169063c9c65396906044016020604051808303816000875af11580156135ac573d6000803e3d6000fd5b505050506040513d601f19601f820116820180604052508101906135d091906144bf565b505b6000806136007f00000000000000000000000000000000000000000000000000000000000000008b8b6137ae565b91509150816000148015613612575080155b15613622578793508692506136aa565b600061362f8984846133f3565b905087811161366357858110156136585760405162461bcd60e51b8152600401610533906142a0565b8894509250826136a8565b60006136708984866133f3565b90508981111561368257613682613878565b878110156136a25760405162461bcd60e51b81526004016105339061425a565b94508793505b505b5050965096945050505050565b600080826001600160a01b0316846001600160a01b0316036137295760405162461bcd60e51b815260206004820152602560248201527f556e697377617056324c6962726172793a204944454e544943414c5f41444452604482015264455353455360d81b6064820152608401610533565b826001600160a01b0316846001600160a01b03161061374957828461374c565b83835b90925090506001600160a01b0382166137a75760405162461bcd60e51b815260206004820152601e60248201527f556e697377617056324c6962726172793a205a45524f5f4144445245535300006044820152606401610533565b9250929050565b60008060006137bd85856136b7565b5090506000806137ce888888612aef565b6001600160a01b0316630902f1ac6040518163ffffffff1660e01b8152600401606060405180830381865afa15801561380b573d6000803e3d6000fd5b505050506040513d601f19601f8201168201806040525081019061382f919061446f565b506001600160701b031691506001600160701b03169150826001600160a01b0316876001600160a01b031614613866578082613869565b81815b90999098509650505050505050565b634e487b7160e01b600052600160045260246000fd5b6001600160a01b03811681146138a357600080fd5b50565b80356138b18161388e565b919050565b60008060008060008060c087890312156138cf57600080fd5b86356138da8161388e565b955060208701359450604087013593506060870135925060808701356138ff8161388e565b8092505060a087013590509295509295509295565b60008060006060848603121561392957600080fd5b505081359360208301359350604090920135919050565b60008083601f84011261395257600080fd5b5081356001600160401b0381111561396957600080fd5b6020830191508360208260051b85010111156137a757600080fd5b60008060008060008060a0878903121561399d57600080fd5b863595506020870135945060408701356001600160401b038111156139c157600080fd5b6139cd89828a01613940565b90955093505060608701356139e18161388e565b80925050608087013590509295509295509295565b6020808252825182820181905260009190848201906040850190845b81811015613a2e57835183529284019291840191600101613a12565b50909695505050505050565b634e487b7160e01b600052604160045260246000fd5b60405161016081016001600160401b0381118282101715613a7357613a73613a3a565b60405290565b604051601f8201601f191681016001600160401b0381118282101715613aa157613aa1613a3a565b604052919050565b60006001600160401b03821115613ac257613ac2613a3a565b5060051b60200190565b60008060408385031215613adf57600080fd5b823591506020808401356001600160401b03811115613afd57600080fd5b8401601f81018613613b0e57600080fd5b8035613b21613b1c82613aa9565b613a79565b81815260059190911b82018301908381019088831115613b4057600080fd5b928401925b82841015613b67578335613b588161388e565b82529284019290840190613b45565b80955050505050509250929050565b80151581146138a357600080fd5b803560ff811681146138b157600080fd5b60008060008060008060008060008060006101608c8e031215613bb757600080fd5b8b35613bc28161388e565b9a5060208c0135613bd28161388e565b995060408c0135985060608c0135975060808c0135965060a08c0135613bf78161388e565b955060c08c0135945060e08c0135613c0e81613b76565b9350613c1d6101008d01613b84565b92506101208c013591506101408c013590509295989b509295989b9093969950565b6000806000806000806000806000806101408b8d031215613c5f57600080fd5b8a35613c6a8161388e565b995060208b0135985060408b0135975060608b0135965060808b0135613c8f8161388e565b955060a08b0135945060c08b0135613ca681613b76565b9350613cb460e08c01613b84565b92506101008b013591506101208b013590509295989b9194979a5092959850565b600080600080600060808688031215613ced57600080fd5b8535945060208601356001600160401b03811115613d0a57600080fd5b613d1688828901613940565b9095509350506040860135613d2a8161388e565b949793965091946060013592915050565b6001600160a01b0391909116815260200190565b600082601f830112613d6057600080fd5b81356020613d70613b1c83613aa9565b8083825260208201915060208460051b870101935086841115613d9257600080fd5b602086015b8481101561094457613da881613b84565b8352918301918301613d97565b600082601f830112613dc657600080fd5b81356020613dd6613b1c83613aa9565b8083825260208201915060208460051b870101935086841115613df857600080fd5b602086015b848110156109445780358352918301918301613dfd565b600060208284031215613e2657600080fd5b81356001600160401b0380821115613e3d57600080fd5b908301906101608286031215613e5257600080fd5b613e5a613a50565b613e63836138a6565b8152613e71602084016138a6565b602082015260408301356040820152606083013560608201526080830135608082015260a083013560a0820152613eaa60c084016138a6565b60c082015260e083013560e08201526101008084013583811115613ecd57600080fd5b613ed988828701613d4f565b8284015250506101208084013583811115613ef357600080fd5b613eff88828701613db5565b8284015250506101408084013583811115613f1957600080fd5b613f2588828701613db5565b918301919091525095945050505050565b600080600080600080600060e0888a031215613f5157600080fd5b8735613f5c8161388e565b96506020880135613f6c8161388e565b955060408801359450606088013593506080880135925060a0880135613f918161388e565b8092505060c0880135905092959891949750929550565b600080600080600080600080610100898b031215613fc557600080fd5b8835613fd08161388e565b97506020890135613fe08161388e565b965060408901359550606089013594506080890135935060a0890135925060c089013561400c8161388e565b8092505060e089013590509295985092959890939650565b602080825260189082015277155b9a5cddd85c158c949bdd5d195c8e881156141254915160421b604082015260600190565b634e487b7160e01b600052601160045260246000fd5b8181038181111561097f5761097f614056565b634e487b7160e01b600052603260045260246000fd5b6000602082840312156140a757600080fd5b81356140b28161388e565b9392505050565b6020808252601d908201527f556e69737761705632526f757465723a20494e56414c49445f50415448000000604082015260600190565b6020808252602b908201527f556e69737761705632526f757465723a20494e53554646494349454e545f4f5560408201526a1514155517d05353d5539560aa1b606082015260800190565b6001600160a01b0397881681529590961660208601526040850193909352606084019190915260ff16608083015260a082015260c081019190915260e00190565b60208082526027908201527f556e69737761705632526f757465723a204558434553534956455f494e50555460408201526617d05353d5539560ca1b606082015260800190565b6000602082840312156141d557600080fd5b5051919050565b6001600160a01b03929092168252602082015260400190565b60006020828403121561420757600080fd5b81516140b281613b76565b6001600160a01b039384168152919092166020820152604081019190915260600190565b6000806040838503121561424957600080fd5b505080516020909101519092909150565b60208082526026908201527f556e69737761705632526f757465723a20494e53554646494349454e545f415f604082015265105353d5539560d21b606082015260800190565b60208082526026908201527f556e69737761705632526f757465723a20494e53554646494349454e545f425f604082015265105353d5539560d21b606082015260800190565b60005b838110156143015781810151838201526020016142e9565b50506000910152565b6000825161431c8184602087016142e6565b9190910192915050565b60208082526028908201527f556e697377617056324c6962726172793a20494e53554646494349454e545f4c604082015267495155494449545960c01b606082015260800190565b808202811582820484141761097f5761097f614056565b8082018082111561097f5761097f614056565b6000826143b557634e487b7160e01b600052601260045260246000fd5b500490565b6020808252601e908201527f556e697377617056324c6962726172793a20494e56414c49445f504154480000604082015260600190565b84815283602082015260018060a01b0383166040820152608060608201526000825180608084015261442a8160a08501602087016142e6565b601f01601f19169190910160a00195945050505050565b60008161445057614450614056565b506000190190565b80516001600160701b03811681146138b157600080fd5b60008060006060848603121561448457600080fd5b61448d84614458565b925061449b60208501614458565b9150604084015163ffffffff811681146144b457600080fd5b809150509250925092565b6000602082840312156144d157600080fd5b81516140b28161388e56fea264697066735822122035fd15cf4434a0d52c8031d52b479aa9842cf7f405509e972045caf9f153573864736f6c63430008180033",
  "linkReferences": {},
  "deployedLinkReferences": {}
}