{
  "_format": "hh-sol-artifact-1",
  "contractName": "UpKeeper",
  "sourceName": "contracts/upkeeper/UpKeeper.sol",
  "abi": [
    {
      "inputs": [],
      "stateMutability": "nonpayable",
      "type": "constructor"
    },
    {
      "inputs": [],
      "name": "AccessControlBadConfirmation",
      "type": "error"
    },
    {
      "inputs": [
        {
          "internalType": "address",
          "name": "account",
          "type": "address"
        },
        {
          "internalType": "bytes32",
          "name": "neededRole",
          "type": "bytes32"
        }
      ],
      "name": "AccessControlUnauthorizedAccount",
      "type": "error"
    },
    {
      "inputs": [
        {
          "internalType": "address",
          "name": "target",
          "type": "address"
        },
        {
          "internalType": "bytes4",
          "name": "selector",
          "type": "bytes4"
        },
        {
          "internalType": "bytes",
          "name": "data",
          "type": "bytes"
        },
        {
          "internalType": "bool",
          "name": "success",
          "type": "bool"
        },
        {
          "internalType": "bytes",
          "name": "response",
          "type": "bytes"
        }
      ],
      "name": "Degub",
      "type": "error"
    },
    {
      "inputs": [
        {
          "internalType": "address",
          "name": "notKeeper",
          "type": "address"
        }
      ],
      "name": "NotTaskKeeper",
      "type": "error"
    },
    {
      "inputs": [],
      "name": "ReentrancyGuardReentrantCall",
      "type": "error"
    },
    {
      "inputs": [],
      "name": "TaskAlreadyExists",
      "type": "error"
    },
    {
      "inputs": [
        {
          "internalType": "bytes",
          "name": "response",
          "type": "bytes"
        }
      ],
      "name": "TaskExecutionFailed",
      "type": "error"
    },
    {
      "inputs": [],
      "name": "TaskExecutionReturnedFalse",
      "type": "error"
    },
    {
      "inputs": [],
      "name": "TaskNotFound",
      "type": "error"
    },
    {
      "inputs": [],
      "name": "TaskReentrancyDetected",
      "type": "error"
    },
    {
      "inputs": [],
      "name": "TooManyTasksForKeeper",
      "type": "error"
    },
    {
      "anonymous": false,
      "inputs": [
        {
          "indexed": true,
          "internalType": "bytes32",
          "name": "role",
          "type": "bytes32"
        },
        {
          "indexed": true,
          "internalType": "bytes32",
          "name": "previousAdminRole",
          "type": "bytes32"
        },
        {
          "indexed": true,
          "internalType": "bytes32",
          "name": "newAdminRole",
          "type": "bytes32"
        }
      ],
      "name": "RoleAdminChanged",
      "type": "event"
    },
    {
      "anonymous": false,
      "inputs": [
        {
          "indexed": true,
          "internalType": "bytes32",
          "name": "role",
          "type": "bytes32"
        },
        {
          "indexed": true,
          "internalType": "address",
          "name": "account",
          "type": "address"
        },
        {
          "indexed": true,
          "internalType": "address",
          "name": "sender",
          "type": "address"
        }
      ],
      "name": "RoleGranted",
      "type": "event"
    },
    {
      "anonymous": false,
      "inputs": [
        {
          "indexed": true,
          "internalType": "bytes32",
          "name": "role",
          "type": "bytes32"
        },
        {
          "indexed": true,
          "internalType": "address",
          "name": "account",
          "type": "address"
        },
        {
          "indexed": true,
          "internalType": "address",
          "name": "sender",
          "type": "address"
        }
      ],
      "name": "RoleRevoked",
      "type": "event"
    },
    {
      "anonymous": false,
      "inputs": [
        {
          "indexed": true,
          "internalType": "address",
          "name": "keeper",
          "type": "address"
        },
        {
          "indexed": true,
          "internalType": "address",
          "name": "target",
          "type": "address"
        },
        {
          "indexed": false,
          "internalType": "bytes4",
          "name": "selector",
          "type": "bytes4"
        },
        {
          "indexed": false,
          "internalType": "uint256",
          "name": "executions",
          "type": "uint256"
        }
      ],
      "name": "TaskExecuted",
      "type": "event"
    },
    {
      "anonymous": false,
      "inputs": [
        {
          "indexed": true,
          "internalType": "address",
          "name": "target",
          "type": "address"
        },
        {
          "indexed": false,
          "internalType": "bytes4",
          "name": "selector",
          "type": "bytes4"
        }
      ],
      "name": "TaskRegistered",
      "type": "event"
    },
    {
      "anonymous": false,
      "inputs": [
        {
          "indexed": true,
          "internalType": "address",
          "name": "target",
          "type": "address"
        },
        {
          "indexed": false,
          "internalType": "bytes4",
          "name": "selector",
          "type": "bytes4"
        }
      ],
      "name": "TaskRemoved",
      "type": "event"
    },
    {
      "inputs": [],
      "name": "DEFAULT_ADMIN_ROLE",
      "outputs": [
        {
          "internalType": "bytes32",
          "name": "",
          "type": "bytes32"
        }
      ],
      "stateMutability": "view",
      "type": "function"
    },
    {
      "inputs": [],
      "name": "KEEPER_ROLE",
      "outputs": [
        {
          "internalType": "bytes32",
          "name": "",
          "type": "bytes32"
        }
      ],
      "stateMutability": "view",
      "type": "function"
    },
    {
      "inputs": [],
      "name": "TRUSTED_REGISTRY_ROLE",
      "outputs": [
        {
          "internalType": "bytes32",
          "name": "",
          "type": "bytes32"
        }
      ],
      "stateMutability": "view",
      "type": "function"
    },
    {
      "inputs": [
        {
          "internalType": "bytes32",
          "name": "taskId",
          "type": "bytes32"
        },
        {
          "internalType": "bytes",
          "name": "data",
          "type": "bytes"
        }
      ],
      "name": "executeTask",
      "outputs": [],
      "stateMutability": "nonpayable",
      "type": "function"
    },
    {
      "inputs": [],
      "name": "executeTasks",
      "outputs": [],
      "stateMutability": "nonpayable",
      "type": "function"
    },
    {
      "inputs": [
        {
          "internalType": "bytes[]",
          "name": "data",
          "type": "bytes[]"
        }
      ],
      "name": "executeTasksWithArgs",
      "outputs": [],
      "stateMutability": "nonpayable",
      "type": "function"
    },
    {
      "inputs": [
        {
          "internalType": "bytes32",
          "name": "role",
          "type": "bytes32"
        }
      ],
      "name": "getRoleAdmin",
      "outputs": [
        {
          "internalType": "bytes32",
          "name": "",
          "type": "bytes32"
        }
      ],
      "stateMutability": "view",
      "type": "function"
    },
    {
      "inputs": [
        {
          "internalType": "bytes32",
          "name": "taskId",
          "type": "bytes32"
        }
      ],
      "name": "getTaskInfo",
      "outputs": [
        {
          "components": [
            {
              "internalType": "uint256",
              "name": "executions",
              "type": "uint256"
            },
            {
              "internalType": "address",
              "name": "target",
              "type": "address"
            },
            {
              "internalType": "bytes4",
              "name": "selector",
              "type": "bytes4"
            },
            {
              "internalType": "bool",
              "name": "exists",
              "type": "bool"
            },
            {
              "internalType": "bool",
              "name": "executing",
              "type": "bool"
            }
          ],
          "internalType": "struct IUpKeeper.Task",
          "name": "",
          "type": "tuple"
        }
      ],
      "stateMutability": "view",
      "type": "function"
    },
    {
      "inputs": [],
      "name": "getTaskList",
      "outputs": [
        {
          "internalType": "bytes32[]",
          "name": "",
          "type": "bytes32[]"
        }
      ],
      "stateMutability": "view",
      "type": "function"
    },
    {
      "inputs": [
        {
          "internalType": "bytes32",
          "name": "role",
          "type": "bytes32"
        },
        {
          "internalType": "address",
          "name": "account",
          "type": "address"
        }
      ],
      "name": "grantRole",
      "outputs": [],
      "stateMutability": "nonpayable",
      "type": "function"
    },
    {
      "inputs": [
        {
          "internalType": "bytes32",
          "name": "role",
          "type": "bytes32"
        },
        {
          "internalType": "address",
          "name": "account",
          "type": "address"
        }
      ],
      "name": "hasRole",
      "outputs": [
        {
          "internalType": "bool",
          "name": "",
          "type": "bool"
        }
      ],
      "stateMutability": "view",
      "type": "function"
    },
    {
      "inputs": [
        {
          "internalType": "address",
          "name": "target",
          "type": "address"
        },
        {
          "internalType": "bytes4",
          "name": "selector",
          "type": "bytes4"
        }
      ],
      "name": "registerTask",
      "outputs": [],
      "stateMutability": "nonpayable",
      "type": "function"
    },
    {
      "inputs": [
        {
          "internalType": "address",
          "name": "target",
          "type": "address"
        },
        {
          "internalType": "bytes4",
          "name": "selector",
          "type": "bytes4"
        }
      ],
      "name": "removeTask",
      "outputs": [],
      "stateMutability": "nonpayable",
      "type": "function"
    },
    {
      "inputs": [
        {
          "internalType": "bytes32",
          "name": "role",
          "type": "bytes32"
        },
        {
          "internalType": "address",
          "name": "callerConfirmation",
          "type": "address"
        }
      ],
      "name": "renounceRole",
      "outputs": [],
      "stateMutability": "nonpayable",
      "type": "function"
    },
    {
      "inputs": [
        {
          "internalType": "bytes32",
          "name": "role",
          "type": "bytes32"
        },
        {
          "internalType": "address",
          "name": "account",
          "type": "address"
        }
      ],
      "name": "revokeRole",
      "outputs": [],
      "stateMutability": "nonpayable",
      "type": "function"
    },
    {
      "inputs": [
        {
          "internalType": "bytes4",
          "name": "interfaceId",
          "type": "bytes4"
        }
      ],
      "name": "supportsInterface",
      "outputs": [
        {
          "internalType": "bool",
          "name": "",
          "type": "bool"
        }
      ],
      "stateMutability": "view",
      "type": "function"
    }
  ],
  "bytecode": "0x608060405234801561001057600080fd5b506001805561002060003361007c565b5061004b7f91564d1574d9f6032d44d7ed05ebbcdca9764b2b939d8ee2b775a92cee9146683361007c565b506100767ffc8737ab85eb45125971625a9ebdb75cc78e01d5c1fa80c4c6e5203f47bc4fab3361007c565b50610128565b6000828152602081815260408083206001600160a01b038516845290915281205460ff1661011e576000838152602081815260408083206001600160a01b03861684529091529020805460ff191660011790556100d63390565b6001600160a01b0316826001600160a01b0316847f2f8788117e7eff1d82e926ec794901d17c78024a50270940304540a733656f0d60405160405180910390a4506001610122565b5060005b92915050565b61119c806101376000396000f3fe608060405234801561001057600080fd5b50600436106100e05760003560e01c806336568abe1161008757806336568abe146101ab57806338940fae146101be5780634ad52e02146101d35780635f178458146102d657806365ac0249146102e957806391d14854146102fc578063a217fddf1461030f578063d547741f1461031757600080fd5b806301ffc9a7146100e5578063040e11891461010d578063248a9ca31461011757806326aa4f171461014857806328db58391461015b5780632d495d4f146101705780632f2ff15d14610183578063364bc15a14610196575b600080fd5b6100f86100f3366004610d62565b61032a565b60405190151581526020015b60405180910390f35b610115610361565b005b61013a610125366004610d84565b60009081526020819052604090206001015490565b604051908152602001610104565b610115610156366004610db3565b61042b565b61013a60008051602061114783398151915281565b61011561017e366004610e6e565b6104c5565b610115610191366004610efa565b6105d9565b61013a60008051602061112783398151915281565b6101156101b9366004610efa565b610604565b6101c661063c565b6040516101049190610f26565b6102826101e1366004610d84565b6040805160a08101825260008082526020820181905291810182905260608101829052608081019190915250600090815260026020908152604091829020825160a081018452815481526001909101546001600160a01b038116928201929092526001600160e01b0319600160a01b830460e01b169281019290925260ff600160c01b8204811615156060840152600160c81b909104161515608082015290565b6040516101049190815181526020808301516001600160a01b0316908201526040808301516001600160e01b0319169082015260608083015115159082015260809182015115159181019190915260a00190565b6101156102e4366004610f6a565b610694565b6101156102f7366004610f6a565b610833565b6100f861030a366004610efa565b6109bb565b61013a600081565b610115610325366004610efa565b6109e4565b60006001600160e01b03198216637965db0b60e01b148061035b57506301ffc9a760e01b6001600160e01b03198316145b92915050565b610369610a09565b60008051602061112783398151915261038181610a33565b6004546000036103a45760405163c325ae3360e01b815260040160405180910390fd5b60005b60045481101561041e576000600482815481106103c6576103c6610f94565b60009182526020808320909101548083526002909152604090912060018101549192509060ff600160c01b909104161561041457604080516000815260208101909152610414908390610a40565b50506001016103a7565b505061042960018055565b565b60008281526002602052604090206001810154839190600160c81b900460ff1615610469576040516325f560eb60e21b815260040160405180910390fd5b60018101805460ff60c81b1916600160c81b179055610486610a09565b60008051602061112783398151915261049e81610a33565b6104a88585610a40565b506104b260018055565b600101805460ff60c81b19169055505050565b6104cd610a09565b6000805160206111278339815191526104e581610a33565b6004546000036105085760405163c325ae3360e01b815260040160405180910390fd5b60005b6004548110156105ca5760006004828154811061052a5761052a610f94565b60009182526020808320909101548083526002909152604090912060018101549192509060ff600160c01b90910416156105c0576105c08287878681811061057457610574610f94565b90506020028101906105869190610faa565b8080601f016020809104026020016040519081016040528093929190818152602001838380828437600092019190915250610a4092505050565b505060010161050b565b50506105d560018055565b5050565b6000828152602081905260409020600101546105f481610a33565b6105fe8383610c0f565b50505050565b6001600160a01b038116331461062d5760405163334bd91960e11b815260040160405180910390fd5b6106378282610ca1565b505050565b6060600480548060200260200160405190810160405280929190818152602001828054801561068a57602002820191906000526020600020905b815481526020019060010190808311610676575b5050505050905090565b6000805160206111478339815191526106ac81610a33565b600083836040516020016106c1929190610ff8565b60408051808303601f19018152918152815160209283012060008181526002909352912060010154909150600160c01b900460ff16156107145760405163f2e16b0360e01b815260040160405180910390fd5b6040805160a08101825260008082526001600160a01b0380881660208085018281526001600160e01b03198a16868801908152600160608801818152608089018881528b8952600290955289882098518955925197810180549251935194511515600160c81b0260ff60c81b19951515600160c01b029590951661ffff60c01b1960e09590951c600160a01b026001600160c01b03199094169990971698909817919091179190911693909317179093556004805491820181559091527f8a35acfbc15ff81a39ae7d344fd709f28e8600b4aa8c65c6b64bfe7fe36bd19b0183905590517fb42b8e0872b57c784b7075da0b7005d570bb53eb01eccc90fb4d5c6a08ff399990610825908690611024565b60405180910390a250505050565b60008051602061114783398151915261084b81610a33565b60008383604051602001610860929190610ff8565b60408051808303601f19018152918152815160209283012060008181526002909352912060010154909150600160c01b900460ff166108b25760405163c325ae3360e01b815260040160405180910390fd5b600081815260026020526040812081815560010180546001600160d01b03191690555b6004548110156109815781600482815481106108f3576108f3610f94565b90600052602060002001540361097957600480546109139060019061104f565b8154811061092357610923610f94565b90600052602060002001546004828154811061094157610941610f94565b600091825260209091200155600480548061095e5761095e611062565b60019003818190600052602060002001600090559055610981565b6001016108d5565b50836001600160a01b03167fb2d2abded339b7a71c202fd41d90049c5f730ec1c870d6204a438ad6305c2e4f846040516108259190611024565b6000918252602082815260408084206001600160a01b0393909316845291905290205460ff1690565b6000828152602081905260409020600101546109ff81610a33565b6105fe8383610ca1565b600260015403610a2c57604051633ee5aeb560e01b815260040160405180910390fd5b6002600155565b610a3d8133610d0c565b50565b60008281526002602052604090206001810154600160c01b900460ff16610a7a5760405163c325ae3360e01b815260040160405180910390fd5b600181015460405160009182916001600160a01b03821691600160a01b900460e01b90610aab90879060240161109c565b60408051601f198184030181529181526020820180516001600160e01b03166001600160e01b0319909416939093179092529051610ae991906110cf565b6000604051808303816000865af19150503d8060008114610b26576040519150601f19603f3d011682016040523d82523d6000602084013e610b2b565b606091505b509150915081610b59578060405163099a16e160e21b8152600401610b50919061109c565b60405180910390fd5b8051602003610b935780806020019051810190610b7691906110eb565b610b93576040516388e90f6560e01b815260040160405180910390fd5b8254836000610ba18361110d565b909155505060018301548354604080516001600160e01b0319600160a01b850460e01b16815260208101929092526001600160a01b039092169133917fc4326a7e14cf984b44c34fb78b313ca89cc11d495222575381d943dc44254e54910160405180910390a35050505050565b6000610c1b83836109bb565b610c99576000838152602081815260408083206001600160a01b03861684529091529020805460ff19166001179055610c513390565b6001600160a01b0316826001600160a01b0316847f2f8788117e7eff1d82e926ec794901d17c78024a50270940304540a733656f0d60405160405180910390a450600161035b565b50600061035b565b6000610cad83836109bb565b15610c99576000838152602081815260408083206001600160a01b0386168085529252808320805460ff1916905551339286917ff6391f5c32d9c69d2a47ea670b442974b53935d1edc7fd64eb21e047a839171b9190a450600161035b565b610d1682826109bb565b6105d55760405163e2517d3f60e01b81526001600160a01b038216600482015260248101839052604401610b50565b80356001600160e01b031981168114610d5d57600080fd5b919050565b600060208284031215610d7457600080fd5b610d7d82610d45565b9392505050565b600060208284031215610d9657600080fd5b5035919050565b634e487b7160e01b600052604160045260246000fd5b60008060408385031215610dc657600080fd5b82359150602083013567ffffffffffffffff80821115610de557600080fd5b818501915085601f830112610df957600080fd5b813581811115610e0b57610e0b610d9d565b604051601f8201601f19908116603f01168101908382118183101715610e3357610e33610d9d565b81604052828152886020848701011115610e4c57600080fd5b8260208601602083013760006020848301015280955050505050509250929050565b60008060208385031215610e8157600080fd5b823567ffffffffffffffff80821115610e9957600080fd5b818501915085601f830112610ead57600080fd5b813581811115610ebc57600080fd5b8660208260051b8501011115610ed157600080fd5b60209290920196919550909350505050565b80356001600160a01b0381168114610d5d57600080fd5b60008060408385031215610f0d57600080fd5b82359150610f1d60208401610ee3565b90509250929050565b6020808252825182820181905260009190848201906040850190845b81811015610f5e57835183529284019291840191600101610f42565b50909695505050505050565b60008060408385031215610f7d57600080fd5b610f8683610ee3565b9150610f1d60208401610d45565b634e487b7160e01b600052603260045260246000fd5b6000808335601e19843603018112610fc157600080fd5b83018035915067ffffffffffffffff821115610fdc57600080fd5b602001915036819003821315610ff157600080fd5b9250929050565b60609290921b6bffffffffffffffffffffffff191682526001600160e01b031916601482015260180190565b6001600160e01b031991909116815260200190565b634e487b7160e01b600052601160045260246000fd5b8181038181111561035b5761035b611039565b634e487b7160e01b600052603160045260246000fd5b60005b8381101561109357818101518382015260200161107b565b50506000910152565b60208152600082518060208401526110bb816040850160208701611078565b601f01601f19169190910160400192915050565b600082516110e1818460208701611078565b9190910192915050565b6000602082840312156110fd57600080fd5b81518015158114610d7d57600080fd5b60006001820161111f5761111f611039565b506001019056fefc8737ab85eb45125971625a9ebdb75cc78e01d5c1fa80c4c6e5203f47bc4fab91564d1574d9f6032d44d7ed05ebbcdca9764b2b939d8ee2b775a92cee914668a2646970667358221220042bc594035bfea78fc9aea9e7737e2df1b9bbdf8079d8c002da47e8c89ff66764736f6c63430008180033",
  "linkReferences": {},
  "deployedLinkReferences": {}
}