{
  "_format": "hh-sol-artifact-1",
  "contractName": "USDC",
  "sourceName": "contracts/usdc/USDC.sol",
  "abi": [
    {
      "inputs": [],
      "stateMutability": "nonpayable",
      "type": "constructor"
    },
    {
      "inputs": [],
      "name": "ECDSAInvalidSignature",
      "type": "error"
    },
    {
      "inputs": [
        {
          "internalType": "uint256",
          "name": "length",
          "type": "uint256"
        }
      ],
      "name": "ECDSAInvalidSignatureLength",
      "type": "error"
    },
    {
      "inputs": [
        {
          "internalType": "bytes32",
          "name": "s",
          "type": "bytes32"
        }
      ],
      "name": "ECDSAInvalidSignatureS",
      "type": "error"
    },
    {
      "inputs": [
        {
          "internalType": "address",
          "name": "spender",
          "type": "address"
        },
        {
          "internalType": "uint256",
          "name": "allowance",
          "type": "uint256"
        },
        {
          "internalType": "uint256",
          "name": "needed",
          "type": "uint256"
        }
      ],
      "name": "ERC20InsufficientAllowance",
      "type": "error"
    },
    {
      "inputs": [
        {
          "internalType": "address",
          "name": "sender",
          "type": "address"
        },
        {
          "internalType": "uint256",
          "name": "balance",
          "type": "uint256"
        },
        {
          "internalType": "uint256",
          "name": "needed",
          "type": "uint256"
        }
      ],
      "name": "ERC20InsufficientBalance",
      "type": "error"
    },
    {
      "inputs": [
        {
          "internalType": "address",
          "name": "approver",
          "type": "address"
        }
      ],
      "name": "ERC20InvalidApprover",
      "type": "error"
    },
    {
      "inputs": [
        {
          "internalType": "address",
          "name": "receiver",
          "type": "address"
        }
      ],
      "name": "ERC20InvalidReceiver",
      "type": "error"
    },
    {
      "inputs": [
        {
          "internalType": "address",
          "name": "sender",
          "type": "address"
        }
      ],
      "name": "ERC20InvalidSender",
      "type": "error"
    },
    {
      "inputs": [
        {
          "internalType": "address",
          "name": "spender",
          "type": "address"
        }
      ],
      "name": "ERC20InvalidSpender",
      "type": "error"
    },
    {
      "inputs": [
        {
          "internalType": "uint256",
          "name": "deadline",
          "type": "uint256"
        }
      ],
      "name": "ERC2612ExpiredSignature",
      "type": "error"
    },
    {
      "inputs": [
        {
          "internalType": "address",
          "name": "signer",
          "type": "address"
        },
        {
          "internalType": "address",
          "name": "owner",
          "type": "address"
        }
      ],
      "name": "ERC2612InvalidSigner",
      "type": "error"
    },
    {
      "inputs": [
        {
          "internalType": "address",
          "name": "account",
          "type": "address"
        },
        {
          "internalType": "uint256",
          "name": "currentNonce",
          "type": "uint256"
        }
      ],
      "name": "InvalidAccountNonce",
      "type": "error"
    },
    {
      "inputs": [],
      "name": "InvalidShortString",
      "type": "error"
    },
    {
      "inputs": [
        {
          "internalType": "string",
          "name": "str",
          "type": "string"
        }
      ],
      "name": "StringTooLong",
      "type": "error"
    },
    {
      "anonymous": false,
      "inputs": [
        {
          "indexed": true,
          "internalType": "address",
          "name": "owner",
          "type": "address"
        },
        {
          "indexed": true,
          "internalType": "address",
          "name": "spender",
          "type": "address"
        },
        {
          "indexed": false,
          "internalType": "uint256",
          "name": "value",
          "type": "uint256"
        }
      ],
      "name": "Approval",
      "type": "event"
    },
    {
      "anonymous": false,
      "inputs": [],
      "name": "EIP712DomainChanged",
      "type": "event"
    },
    {
      "anonymous": false,
      "inputs": [
        {
          "indexed": true,
          "internalType": "address",
          "name": "from",
          "type": "address"
        },
        {
          "indexed": true,
          "internalType": "address",
          "name": "to",
          "type": "address"
        },
        {
          "indexed": false,
          "internalType": "uint256",
          "name": "value",
          "type": "uint256"
        }
      ],
      "name": "Transfer",
      "type": "event"
    },
    {
      "inputs": [],
      "name": "DOMAIN_SEPARATOR",
      "outputs": [
        {
          "internalType": "bytes32",
          "name": "",
          "type": "bytes32"
        }
      ],
      "stateMutability": "view",
      "type": "function"
    },
    {
      "inputs": [
        {
          "internalType": "address",
          "name": "owner",
          "type": "address"
        },
        {
          "internalType": "address",
          "name": "spender",
          "type": "address"
        }
      ],
      "name": "allowance",
      "outputs": [
        {
          "internalType": "uint256",
          "name": "",
          "type": "uint256"
        }
      ],
      "stateMutability": "view",
      "type": "function"
    },
    {
      "inputs": [
        {
          "internalType": "address",
          "name": "spender",
          "type": "address"
        },
        {
          "internalType": "uint256",
          "name": "value",
          "type": "uint256"
        }
      ],
      "name": "approve",
      "outputs": [
        {
          "internalType": "bool",
          "name": "",
          "type": "bool"
        }
      ],
      "stateMutability": "nonpayable",
      "type": "function"
    },
    {
      "inputs": [
        {
          "internalType": "address",
          "name": "account",
          "type": "address"
        }
      ],
      "name": "balanceOf",
      "outputs": [
        {
          "internalType": "uint256",
          "name": "",
          "type": "uint256"
        }
      ],
      "stateMutability": "view",
      "type": "function"
    },
    {
      "inputs": [],
      "name": "decimals",
      "outputs": [
        {
          "internalType": "uint8",
          "name": "",
          "type": "uint8"
        }
      ],
      "stateMutability": "view",
      "type": "function"
    },
    {
      "inputs": [],
      "name": "eip712Domain",
      "outputs": [
        {
          "internalType": "bytes1",
          "name": "fields",
          "type": "bytes1"
        },
        {
          "internalType": "string",
          "name": "name",
          "type": "string"
        },
        {
          "internalType": "string",
          "name": "version",
          "type": "string"
        },
        {
          "internalType": "uint256",
          "name": "chainId",
          "type": "uint256"
        },
        {
          "internalType": "address",
          "name": "verifyingContract",
          "type": "address"
        },
        {
          "internalType": "bytes32",
          "name": "salt",
          "type": "bytes32"
        },
        {
          "internalType": "uint256[]",
          "name": "extensions",
          "type": "uint256[]"
        }
      ],
      "stateMutability": "view",
      "type": "function"
    },
    {
      "inputs": [
        {
          "internalType": "address",
          "name": "to",
          "type": "address"
        },
        {
          "internalType": "uint256",
          "name": "amount",
          "type": "uint256"
        }
      ],
      "name": "mint",
      "outputs": [],
      "stateMutability": "nonpayable",
      "type": "function"
    },
    {
      "inputs": [],
      "name": "name",
      "outputs": [
        {
          "internalType": "string",
          "name": "",
          "type": "string"
        }
      ],
      "stateMutability": "view",
      "type": "function"
    },
    {
      "inputs": [
        {
          "internalType": "address",
          "name": "owner",
          "type": "address"
        }
      ],
      "name": "nonces",
      "outputs": [
        {
          "internalType": "uint256",
          "name": "",
          "type": "uint256"
        }
      ],
      "stateMutability": "view",
      "type": "function"
    },
    {
      "inputs": [
        {
          "internalType": "address",
          "name": "owner",
          "type": "address"
        },
        {
          "internalType": "address",
          "name": "spender",
          "type": "address"
        },
        {
          "internalType": "uint256",
          "name": "value",
          "type": "uint256"
        },
        {
          "internalType": "uint256",
          "name": "deadline",
          "type": "uint256"
        },
        {
          "internalType": "uint8",
          "name": "v",
          "type": "uint8"
        },
        {
          "internalType": "bytes32",
          "name": "r",
          "type": "bytes32"
        },
        {
          "internalType": "bytes32",
          "name": "s",
          "type": "bytes32"
        }
      ],
      "name": "permit",
      "outputs": [],
      "stateMutability": "nonpayable",
      "type": "function"
    },
    {
      "inputs": [],
      "name": "symbol",
      "outputs": [
        {
          "internalType": "string",
          "name": "",
          "type": "string"
        }
      ],
      "stateMutability": "view",
      "type": "function"
    },
    {
      "inputs": [],
      "name": "totalSupply",
      "outputs": [
        {
          "internalType": "uint256",
          "name": "",
          "type": "uint256"
        }
      ],
      "stateMutability": "view",
      "type": "function"
    },
    {
      "inputs": [
        {
          "internalType": "address",
          "name": "to",
          "type": "address"
        },
        {
          "internalType": "uint256",
          "name": "value",
          "type": "uint256"
        }
      ],
      "name": "transfer",
      "outputs": [
        {
          "internalType": "bool",
          "name": "",
          "type": "bool"
        }
      ],
      "stateMutability": "nonpayable",
      "type": "function"
    },
    {
      "inputs": [
        {
          "internalType": "address",
          "name": "from",
          "type": "address"
        },
        {
          "internalType": "address",
          "name": "to",
          "type": "address"
        },
        {
          "internalType": "uint256",
          "name": "value",
          "type": "uint256"
        }
      ],
      "name": "transferFrom",
      "outputs": [
        {
          "internalType": "bool",
          "name": "",
          "type": "bool"
        }
      ],
      "stateMutability": "nonpayable",
      "type": "function"
    }
  ],
  "bytecode": "0x6101606040523480156200001257600080fd5b50604051806040016040528060088152602001672aa9a21021b7b4b760c11b81525080604051806040016040528060018152602001603160f81b815250604051806040016040528060088152602001672aa9a21021b7b4b760c11b815250604051806040016040528060048152602001635553444360e01b81525081600390816200009e91906200029a565b506004620000ad82826200029a565b50620000bf915083905060056200016e565b61012052620000d08160066200016e565b61014052815160208084019190912060e052815190820120610100524660a0526200015e60e05161010051604080517f8b73c3c69bb8fe3d512ecc4cf759cc79239f7b179b0ffacaa9a75d522b39400f60208201529081019290925260608201524660808201523060a082015260009060c00160405160208183030381529060405280519060200120905090565b60805250503060c05250620003dc565b60006020835110156200018e576200018683620001a7565b9050620001a1565b816200019b84826200029a565b5060ff90505b92915050565b600080829050601f81511115620001de578260405163305a27a960e01b8152600401620001d5919062000366565b60405180910390fd5b8051620001eb82620003b7565b179392505050565b634e487b7160e01b600052604160045260246000fd5b600181811c908216806200021e57607f821691505b6020821081036200023f57634e487b7160e01b600052602260045260246000fd5b50919050565b601f82111562000295576000816000526020600020601f850160051c81016020861015620002705750805b601f850160051c820191505b8181101562000291578281556001016200027c565b5050505b505050565b81516001600160401b03811115620002b657620002b6620001f3565b620002ce81620002c7845462000209565b8462000245565b602080601f831160018114620003065760008415620002ed5750858301515b600019600386901b1c1916600185901b17855562000291565b600085815260208120601f198616915b82811015620003375788860151825594840194600190910190840162000316565b5085821015620003565787850151600019600388901b60f8161c191681555b5050505050600190811b01905550565b60006020808352835180602085015260005b81811015620003965785810183015185820160400152820162000378565b506000604082860101526040601f19601f8301168501019250505092915050565b805160208083015191908110156200023f5760001960209190910360031b1b16919050565b60805160a05160c05160e051610100516101205161014051610f3f62000437600039600061072a015260006106fd0152600061066f01526000610647015260006105a2015260006105cc015260006105f60152610f3f6000f3fe608060405234801561001057600080fd5b50600436106100ca5760003560e01c806370a082311161007c57806370a08231146101615780637ecebe001461018a57806384b0196e1461019d57806395d89b41146101b8578063a9059cbb146101c0578063d505accf146101d3578063dd62ed3e146101e657600080fd5b806306fdde03146100cf578063095ea7b3146100ed57806318160ddd1461011057806323b872dd14610122578063313ce567146101355780633644e5151461014457806340c10f191461014c575b600080fd5b6100d76101f9565b6040516100e49190610c6d565b60405180910390f35b6101006100fb366004610ca3565b61028b565b60405190151581526020016100e4565b6002545b6040519081526020016100e4565b610100610130366004610ccd565b6102a5565b604051600681526020016100e4565b6101146102c9565b61015f61015a366004610ca3565b6102d8565b005b61011461016f366004610d09565b6001600160a01b031660009081526020819052604090205490565b610114610198366004610d09565b6102e6565b6101a5610304565b6040516100e49796959493929190610d24565b6100d761034a565b6101006101ce366004610ca3565b610359565b61015f6101e1366004610dbd565b610367565b6101146101f4366004610e30565b6104a6565b60606003805461020890610e63565b80601f016020809104026020016040519081016040528092919081815260200182805461023490610e63565b80156102815780601f1061025657610100808354040283529160200191610281565b820191906000526020600020905b81548152906001019060200180831161026457829003601f168201915b5050505050905090565b6000336102998185856104d1565b60019150505b92915050565b6000336102b38582856104e3565b6102be858585610536565b506001949350505050565b60006102d3610595565b905090565b6102e282826106c0565b5050565b6001600160a01b03811660009081526007602052604081205461029f565b6000606080600080600060606103186106f6565b610320610723565b60408051600080825260208201909252600f60f81b9b939a50919850469750309650945092509050565b60606004805461020890610e63565b600033610299818585610536565b834211156103905760405163313c898160e11b8152600481018590526024015b60405180910390fd5b60007f6e71edae12b1b97f4d1f60370fef10105fa2faae0126114a169c64845d6126c98888886103dd8c6001600160a01b0316600090815260076020526040902080546001810190915590565b6040805160208101969096526001600160a01b0394851690860152929091166060840152608083015260a082015260c0810186905260e001604051602081830303815290604052805190602001209050600061043882610750565b905060006104488287878761077d565b9050896001600160a01b0316816001600160a01b03161461048f576040516325c0072360e11b81526001600160a01b0380831660048301528b166024820152604401610387565b61049a8a8a8a6104d1565b50505050505050505050565b6001600160a01b03918216600090815260016020908152604080832093909416825291909152205490565b6104de83838360016107ab565b505050565b60006104ef84846104a6565b90506000198114610530578181101561052157828183604051637dc7a0d960e11b815260040161038793929190610e9d565b610530848484840360006107ab565b50505050565b6001600160a01b038316610560576000604051634b637e8f60e11b81526004016103879190610ebe565b6001600160a01b03821661058a57600060405163ec442f0560e01b81526004016103879190610ebe565b6104de838383610880565b6000306001600160a01b037f0000000000000000000000000000000000000000000000000000000000000000161480156105ee57507f000000000000000000000000000000000000000000000000000000000000000046145b1561061857507f000000000000000000000000000000000000000000000000000000000000000090565b6102d3604080517f8b73c3c69bb8fe3d512ecc4cf759cc79239f7b179b0ffacaa9a75d522b39400f60208201527f0000000000000000000000000000000000000000000000000000000000000000918101919091527f000000000000000000000000000000000000000000000000000000000000000060608201524660808201523060a082015260009060c00160405160208183030381529060405280519060200120905090565b6001600160a01b0382166106ea57600060405163ec442f0560e01b81526004016103879190610ebe565b6102e260008383610880565b60606102d37f00000000000000000000000000000000000000000000000000000000000000006005610997565b60606102d37f00000000000000000000000000000000000000000000000000000000000000006006610997565b600061029f61075d610595565b8360405161190160f01b8152600281019290925260228201526042902090565b60008060008061078f88888888610a42565b92509250925061079f8282610b07565b50909695505050505050565b6001600160a01b0384166107d557600060405163e602df0560e01b81526004016103879190610ebe565b6001600160a01b0383166107ff576000604051634a1406b160e11b81526004016103879190610ebe565b6001600160a01b038085166000908152600160209081526040808320938716835292905220829055801561053057826001600160a01b0316846001600160a01b03167f8c5be1e5ebec7d5bd14f71427d1e84f3dd0314c0f7b2291e5b200ac8c7c3b9258460405161087291815260200190565b60405180910390a350505050565b6001600160a01b0383166108ab5780600260008282546108a09190610ed2565b9091555061090a9050565b6001600160a01b038316600090815260208190526040902054818110156108eb5783818360405163391434e360e21b815260040161038793929190610e9d565b6001600160a01b03841660009081526020819052604090209082900390555b6001600160a01b03821661092657600280548290039055610945565b6001600160a01b03821660009081526020819052604090208054820190555b816001600160a01b0316836001600160a01b03167fddf252ad1be2c89b69c2b068fc378daa952ba7f163c4a11628f55a4df523b3ef8360405161098a91815260200190565b60405180910390a3505050565b606060ff83146109b1576109aa83610bc0565b905061029f565b8180546109bd90610e63565b80601f01602080910402602001604051908101604052809291908181526020018280546109e990610e63565b8015610a365780601f10610a0b57610100808354040283529160200191610a36565b820191906000526020600020905b815481529060010190602001808311610a1957829003601f168201915b5050505050905061029f565b600080806fa2a8918ca85bafe22016d0b997e4df60600160ff1b03841115610a735750600091506003905082610afd565b604080516000808252602082018084528a905260ff891692820192909252606081018790526080810186905260019060a0016020604051602081039080840390855afa158015610ac7573d6000803e3d6000fd5b5050604051601f1901519150506001600160a01b038116610af357506000925060019150829050610afd565b9250600091508190505b9450945094915050565b6000826003811115610b1b57610b1b610ef3565b03610b24575050565b6001826003811115610b3857610b38610ef3565b03610b565760405163f645eedf60e01b815260040160405180910390fd5b6002826003811115610b6a57610b6a610ef3565b03610b8b5760405163fce698f760e01b815260048101829052602401610387565b6003826003811115610b9f57610b9f610ef3565b036102e2576040516335e2f38360e21b815260048101829052602401610387565b60606000610bcd83610bff565b604080516020808252818301909252919250600091906020820181803683375050509182525060208101929092525090565b600060ff8216601f81111561029f57604051632cd44ac360e21b815260040160405180910390fd5b6000815180845260005b81811015610c4d57602081850181015186830182015201610c31565b506000602082860101526020601f19601f83011685010191505092915050565b602081526000610c806020830184610c27565b9392505050565b80356001600160a01b0381168114610c9e57600080fd5b919050565b60008060408385031215610cb657600080fd5b610cbf83610c87565b946020939093013593505050565b600080600060608486031215610ce257600080fd5b610ceb84610c87565b9250610cf960208501610c87565b9150604084013590509250925092565b600060208284031215610d1b57600080fd5b610c8082610c87565b60ff60f81b881681526000602060e06020840152610d4560e084018a610c27565b8381036040850152610d57818a610c27565b606085018990526001600160a01b038816608086015260a0850187905284810360c08601528551808252602080880193509091019060005b81811015610dab57835183529284019291840191600101610d8f565b50909c9b505050505050505050505050565b600080600080600080600060e0888a031215610dd857600080fd5b610de188610c87565b9650610def60208901610c87565b95506040880135945060608801359350608088013560ff81168114610e1357600080fd5b9699959850939692959460a0840135945060c09093013592915050565b60008060408385031215610e4357600080fd5b610e4c83610c87565b9150610e5a60208401610c87565b90509250929050565b600181811c90821680610e7757607f821691505b602082108103610e9757634e487b7160e01b600052602260045260246000fd5b50919050565b6001600160a01b039390931683526020830191909152604082015260600190565b6001600160a01b0391909116815260200190565b8082018082111561029f57634e487b7160e01b600052601160045260246000fd5b634e487b7160e01b600052602160045260246000fdfea2646970667358221220c6e277b7e96176178c0b55629d60598cd2cf3ebc131f5d15c0691d4861b5076c64736f6c63430008180033",
  "linkReferences": {},
  "deployedLinkReferences": {}
}