{
  "_format": "hh-sol-artifact-1",
  "contractName": "VaultFactory",
  "sourceName": "contracts/erc4626/factory/VaultFactory.sol",
  "abi": [
    {
      "inputs": [
        {
          "internalType": "address",
          "name": "_idGateway",
          "type": "address"
        }
      ],
      "stateMutability": "nonpayable",
      "type": "constructor"
    },
    {
      "inputs": [
        {
          "internalType": "address",
          "name": "owner",
          "type": "address"
        }
      ],
      "name": "OwnableInvalidOwner",
      "type": "error"
    },
    {
      "inputs": [
        {
          "internalType": "address",
          "name": "account",
          "type": "address"
        }
      ],
      "name": "OwnableUnauthorizedAccount",
      "type": "error"
    },
    {
      "inputs": [
        {
          "internalType": "uint256",
          "name": "value",
          "type": "uint256"
        },
        {
          "internalType": "uint256",
          "name": "length",
          "type": "uint256"
        }
      ],
      "name": "StringsInsufficientHexLength",
      "type": "error"
    },
    {
      "anonymous": false,
      "inputs": [
        {
          "indexed": true,
          "internalType": "address",
          "name": "previousOwner",
          "type": "address"
        },
        {
          "indexed": true,
          "internalType": "address",
          "name": "newOwner",
          "type": "address"
        }
      ],
      "name": "OwnershipTransferred",
      "type": "event"
    },
    {
      "anonymous": false,
      "inputs": [
        {
          "indexed": true,
          "internalType": "address",
          "name": "vault",
          "type": "address"
        },
        {
          "indexed": true,
          "internalType": "address",
          "name": "asset",
          "type": "address"
        },
        {
          "indexed": false,
          "internalType": "string",
          "name": "name",
          "type": "string"
        },
        {
          "indexed": false,
          "internalType": "string",
          "name": "symbol",
          "type": "string"
        }
      ],
      "name": "VaultDeployed",
      "type": "event"
    },
    {
      "inputs": [
        {
          "internalType": "string",
          "name": "salt",
          "type": "string"
        },
        {
          "components": [
            {
              "internalType": "address",
              "name": "stakingToken",
              "type": "address"
            },
            {
              "internalType": "string",
              "name": "shareTokenName",
              "type": "string"
            },
            {
              "internalType": "string",
              "name": "shareTokenSymbol",
              "type": "string"
            },
            {
              "internalType": "address",
              "name": "vaultRewardController",
              "type": "address"
            },
            {
              "internalType": "address",
              "name": "feeConfigController",
              "type": "address"
            },
            {
              "internalType": "uint32",
              "name": "cliff",
              "type": "uint32"
            },
            {
              "internalType": "uint32",
              "name": "unlockDuration",
              "type": "uint32"
            }
          ],
          "internalType": "struct IVaultFactory.VaultDetails",
          "name": "vaultDetails",
          "type": "tuple"
        },
        {
          "components": [
            {
              "internalType": "address",
              "name": "receiver",
              "type": "address"
            },
            {
              "internalType": "address",
              "name": "token",
              "type": "address"
            },
            {
              "internalType": "uint256",
              "name": "feePercentage",
              "type": "uint256"
            }
          ],
          "internalType": "struct FeeConfiguration.FeeConfig",
          "name": "feeConfig",
          "type": "tuple"
        }
      ],
      "name": "deployVault",
      "outputs": [
        {
          "internalType": "address",
          "name": "vault",
          "type": "address"
        }
      ],
      "stateMutability": "payable",
      "type": "function"
    },
    {
      "inputs": [
        {
          "internalType": "address",
          "name": "deployer",
          "type": "address"
        },
        {
          "internalType": "address",
          "name": "token",
          "type": "address"
        },
        {
          "internalType": "uint256",
          "name": "nonce",
          "type": "uint256"
        }
      ],
      "name": "generateSalt",
      "outputs": [
        {
          "internalType": "string",
          "name": "",
          "type": "string"
        }
      ],
      "stateMutability": "pure",
      "type": "function"
    },
    {
      "inputs": [],
      "name": "owner",
      "outputs": [
        {
          "internalType": "address",
          "name": "",
          "type": "address"
        }
      ],
      "stateMutability": "view",
      "type": "function"
    },
    {
      "inputs": [],
      "name": "renounceOwnership",
      "outputs": [],
      "stateMutability": "nonpayable",
      "type": "function"
    },
    {
      "inputs": [
        {
          "internalType": "bytes4",
          "name": "interfaceId",
          "type": "bytes4"
        }
      ],
      "name": "supportsInterface",
      "outputs": [
        {
          "internalType": "bool",
          "name": "",
          "type": "bool"
        }
      ],
      "stateMutability": "view",
      "type": "function"
    },
    {
      "inputs": [
        {
          "internalType": "address",
          "name": "newOwner",
          "type": "address"
        }
      ],
      "name": "transferOwnership",
      "outputs": [],
      "stateMutability": "nonpayable",
      "type": "function"
    },
    {
      "inputs": [
        {
          "internalType": "string",
          "name": "",
          "type": "string"
        }
      ],
      "name": "vaultDeployed",
      "outputs": [
        {
          "internalType": "address",
          "name": "",
          "type": "address"
        }
      ],
      "stateMutability": "view",
      "type": "function"
    }
  ],
  "bytecode": "0x608060405234801561001057600080fd5b50604051620057a7380380620057a7833981016040819052610031916100d6565b338061005757604051631e4fbdf760e01b81526000600482015260240160405180910390fd5b61006081610086565b50600280546001600160a01b0319166001600160a01b0392909216919091179055610106565b600080546001600160a01b038381166001600160a01b0319831681178455604051919092169283917f8be0079c531659141344cd1fd0a4f28419497f9722a3daafe3b4186f6b6457e09190a35050565b6000602082840312156100e857600080fd5b81516001600160a01b03811681146100ff57600080fd5b9392505050565b61569180620001166000396000f3fe608060405260043610620000685760003560e01c806301ffc9a7146200006d57806326f927db14620000a7578063715018a614620000cd5780638da5cb5b14620000e7578063a166bf061462000107578063f2fde38b146200013b578063fe738c831462000160575b600080fd5b3480156200007a57600080fd5b50620000926200008c36600462000c84565b620001a5565b60405190151581526020015b60405180910390f35b620000be620000b836600462000cd0565b620001dd565b6040516200009e919062000d84565b348015620000da57600080fd5b50620000e562000688565b005b348015620000f457600080fd5b506000546001600160a01b0316620000be565b3480156200011457600080fd5b506200012c6200012636600462000dae565b620006a0565b6040516200009e919062000e1a565b3480156200014857600080fd5b50620000e56200015a36600462000e4f565b62000705565b3480156200016d57600080fd5b50620000be6200017f36600462000e85565b80516020818301810180516001825292820191909301209152546001600160a01b031681565b60006001600160e01b0319821663879f98dd60e01b1480620001d757506301ffc9a760e01b6001600160e01b03198316145b92915050565b6000806001600160a01b031660018686604051620001fd92919062000f40565b908152604051908190036020019020546001600160a01b031614620002755760405162461bcd60e51b8152602060048201526024808201527f5661756c74466163746f72793a205661756c7420616c7265616479206465706c6044820152631bde595960e21b60648201526084015b60405180910390fd5b600062000286602085018562000e4f565b6001600160a01b031603620002ea5760405162461bcd60e51b815260206004820152602360248201527f5661756c74466163746f72793a20496e76616c6964207374616b696e6720746f60448201526235b2b760e91b60648201526084016200026c565b6000620002fe608085016060860162000e4f565b6001600160a01b0316036200036e5760405162461bcd60e51b815260206004820152602f60248201527f5661756c74466163746f72793a20496e76616c69642072657761726420636f6e60448201526e74726f6c6c6572206164647265737360881b60648201526084016200026c565b60006200038260a085016080860162000e4f565b6001600160a01b031603620003ef5760405162461bcd60e51b815260206004820152602c60248201527f5661756c74466163746f72793a20496e76616c69642066656520636f6e74726f60448201526b6c6c6572206164647265737360a01b60648201526084016200026c565b620003fd858585856200074a565b905080600186866040516200041492919062000f40565b9081526040516020918190038201902080546001600160a01b0319166001600160a01b039390931692909217909155600090620004549085018562000e4f565b9050806001600160a01b031663134e18f46040518163ffffffff1660e01b8152600401602060405180830381865afa925050508015620004b3575060408051601f3d908101601f19168201909252620004b09181019062000f50565b60015b15620005a657600254604051633e8e6e8b60e01b81526000916001600160a01b031690633e8e6e8b90620004ec90879060040162000d84565b6020604051808303816000875af11580156200050c573d6000803e3d6000fd5b505050506040513d601f19601f8201168201806040525081019062000532919062000f50565b60405163022a501f60e51b81526001600160a01b038681166004830152808316602483015261034860448301529192509083169063454a03e090606401600060405180830381600087803b1580156200058a57600080fd5b505af11580156200059f573d6000803e3d6000fd5b5050505050505b60405163f2fde38b60e01b81526001600160a01b0383169063f2fde38b90620005d490339060040162000d84565b600060405180830381600087803b158015620005ef57600080fd5b505af115801562000604573d6000803e3d6000fd5b506200061892505050602085018562000e4f565b6001600160a01b039081169083167ffd7439309318fc0abb0976e1dddf30d112c3b5c6f4438cca5ee7f70342f97f5962000656602088018862000f70565b6200066560408a018a62000f70565b60405162000677949392919062000fea565b60405180910390a350949350505050565b6200069262000889565b6200069e6000620008b9565b565b6060620006b8846001600160a01b0316601462000909565b620006ce846001600160a01b0316601462000909565b620006d98462000aa7565b604051602001620006ed9392919062001020565b60405160208183030381529060405290509392505050565b6200070f62000889565b6001600160a01b0381166200073c576000604051631e4fbdf760e01b81526004016200026c919062000d84565b6200074781620008b9565b50565b600080604051806020016200075f9062000c76565b601f1982820381018352601f909101166040529050600062000785602086018662000e4f565b62000794602087018762000f70565b620007a3604089018962000f70565b620007b260208a018a62000e4f565b620007c460408b0160208c0162000e4f565b60408b0135620007db60808e0160608f0162000e4f565b8d6080016020810190620007f0919062000e4f565b8e60a001602081019062000805919062001069565b8f60c00160208101906200081a919062001069565b604051602001620008379c9b9a9998979695949392919062001091565b6040516020818303038152906040529050600082826040516020016200085f92919062001123565b60405160208183030381529060405290506200087d88888362000b41565b98975050505050505050565b6000546001600160a01b031633146200069e573360405163118cdaa760e01b81526004016200026c919062000d84565b600080546001600160a01b038381166001600160a01b0319831681178455604051919092169283917f8be0079c531659141344cd1fd0a4f28419497f9722a3daafe3b4186f6b6457e09190a35050565b60608260006200091b8460026200116c565b6200092890600262001186565b67ffffffffffffffff81111562000943576200094362000e6f565b6040519080825280601f01601f1916602001820160405280156200096e576020820181803683370190505b509050600360fc1b816000815181106200098c576200098c6200119c565b60200101906001600160f81b031916908160001a905350600f60fb1b81600181518110620009be57620009be6200119c565b60200101906001600160f81b031916908160001a9053506000620009e48560026200116c565b620009f190600162001186565b90505b600181111562000a73576f181899199a1a9b1b9c1cb0b131b232b360811b83600f166010811062000a295762000a296200119c565b1a60f81b82828151811062000a425762000a426200119c565b60200101906001600160f81b031916908160001a90535060049290921c9162000a6b81620011b2565b9050620009f4565b50811562000a9f5760405163e22e27eb60e01b815260048101869052602481018590526044016200026c565b949350505050565b6060600062000ab68362000b97565b600101905060008167ffffffffffffffff81111562000ad95762000ad962000e6f565b6040519080825280601f01601f19166020018201604052801562000b04576020820181803683370190505b5090508181016020015b600019016f181899199a1a9b1b9c1cb0b131b232b360811b600a86061a8153600a850494508462000b0e57509392505050565b600080848460405160200162000b5992919062000f40565b604051602081830303815290604052805190602001209050600083602001845183818334f592505050803b62000b8e57600080fd5b95945050505050565b60008072184f03e93ff9f4daa797ed6e38ed64bf6a1f0160401b831062000bd75772184f03e93ff9f4daa797ed6e38ed64bf6a1f0160401b830492506040015b6d04ee2d6d415b85acef8100000000831062000c04576d04ee2d6d415b85acef8100000000830492506020015b662386f26fc10000831062000c2357662386f26fc10000830492506010015b6305f5e100831062000c3c576305f5e100830492506008015b612710831062000c5157612710830492506004015b6064831062000c64576064830492506002015b600a8310620001d75760010192915050565b61448f80620011cd83390190565b60006020828403121562000c9757600080fd5b81356001600160e01b03198116811462000cb057600080fd5b9392505050565b60006060828403121562000cca57600080fd5b50919050565b60008060008060a0858703121562000ce757600080fd5b843567ffffffffffffffff8082111562000d0057600080fd5b818701915087601f83011262000d1557600080fd5b81358181111562000d2557600080fd5b88602082850101111562000d3857600080fd5b60209283019650945090860135908082111562000d5457600080fd5b50850160e0818803121562000d6857600080fd5b915062000d79866040870162000cb7565b905092959194509250565b6001600160a01b0391909116815260200190565b6001600160a01b03811681146200074757600080fd5b60008060006060848603121562000dc457600080fd5b833562000dd18162000d98565b9250602084013562000de38162000d98565b929592945050506040919091013590565b60005b8381101562000e1157818101518382015260200162000df7565b50506000910152565b602081526000825180602084015262000e3b81604085016020870162000df4565b601f01601f19169190910160400192915050565b60006020828403121562000e6257600080fd5b813562000cb08162000d98565b634e487b7160e01b600052604160045260246000fd5b60006020828403121562000e9857600080fd5b813567ffffffffffffffff8082111562000eb157600080fd5b818401915084601f83011262000ec657600080fd5b81358181111562000edb5762000edb62000e6f565b604051601f8201601f19908116603f0116810190838211818310171562000f065762000f0662000e6f565b8160405282815287602084870101111562000f2057600080fd5b826020860160208301376000928101602001929092525095945050505050565b8183823760009101908152919050565b60006020828403121562000f6357600080fd5b815162000cb08162000d98565b6000808335601e1984360301811262000f8857600080fd5b83018035915067ffffffffffffffff82111562000fa457600080fd5b60200191503681900382131562000fba57600080fd5b9250929050565b81835281816020850137506000828201602090810191909152601f909101601f19169091010190565b6040815260006200100060408301868862000fc1565b82810360208401526200101581858762000fc1565b979650505050505050565b600084516200103481846020890162000df4565b8451908301906200104a81836020890162000df4565b84519101906200105f81836020880162000df4565b0195945050505050565b6000602082840312156200107c57600080fd5b813563ffffffff8116811462000cb057600080fd5b6001600160a01b038d16815261014060208201819052600090620010b99083018d8f62000fc1565b8281036040840152620010ce818c8e62000fc1565b6001600160a01b039a8b166060850152988a166080840152505060a081019590955292861660c0850152941660e083015263ffffffff9384166101008301529092166101209092019190915295945050505050565b600083516200113781846020880162000df4565b8351908301906200114d81836020880162000df4565b01949350505050565b634e487b7160e01b600052601160045260246000fd5b8082028115828204841417620001d757620001d762001156565b80820180821115620001d757620001d762001156565b634e487b7160e01b600052603260045260246000fd5b600081620011c457620011c462001156565b50600019019056fe6101a06040526040516200448f3803806200448f8339810160408190526200002791620006dd565b33888880604051806040016040528060018152602001603160f81b8152508b8b81600390816200005891906200088f565b5060046200006782826200088f565b506200007991508390506005620001fa565b610120526200008a816006620001fa565b61014052815160208084019190912060e052815190820120610100524660a0526200011860e05161010051604080517f8b73c3c69bb8fe3d512ecc4cf759cc79239f7b179b0ffacaa9a75d522b39400f60208201529081019290925260608201524660808201523060a082015260009060c00160405160208183030381529060405280519060200120905090565b60805250503060c05250600080620001308362000233565b91509150816200014257601262000144565b805b60ff166101805250506001600160a01b039081166101605281166200018457604051631e4fbdf760e01b8152600060048201526024015b60405180910390fd5b6200018f8162000318565b506001600d557fb5311d7a8ac81ee4993288bc4c98b414fbe1c746351a804bd1a32db330eae700620001c38686866200036a565b80546001600160401b03191664010000000063ffffffff9485160263ffffffff1916179190921617905550620009ed945050505050565b60006020835110156200021a576200021283620003f0565b90506200022d565b816200022784826200088f565b5060ff90505b92915050565b60408051600481526024810182526020810180516001600160e01b031663313ce56760e01b17905290516000918291829182916001600160a01b038716916200027c916200095b565b600060405180830381855afa9150503d8060008114620002b9576040519150601f19603f3d011682016040523d82523d6000602084013e620002be565b606091505b5091509150818015620002d357506020815110155b156200030b57600081806020019051810190620002f1919062000979565b905060ff811162000309576001969095509350505050565b505b5060009485945092505050565b600c80546001600160a01b038381166001600160a01b0319831681179093556040519116919082907f8be0079c531659141344cd1fd0a4f28419497f9722a3daafe3b4186f6b6457e090600090a35050565b8251602084015160408501516200038392919062000433565b62000390600033620004f3565b50620003bd7f477fc23fb51bb5d5aa814872a393b0e4f35d0916c7503c0fd96584681070d41083620004f3565b50620003ea7f74e458455daa935f28c556b43e0cc4ad001a8a090f5feee376681e97d4618f4682620004f3565b50505050565b600080829050601f815111156200041e578260405163305a27a960e01b81526004016200017b919062000993565b80516200042b82620009c8565b179392505050565b6127108110620004785760405162461bcd60e51b815260206004820152600f60248201526e46433a20496e76616c69642066656560881b60448201526064016200017b565b600980546001600160a01b038581166001600160a01b03199283168117909355600a8054918616919092168117909155600b83905560408051928352602083019190915281018290527febd34b2df88ea5c9f67c04b13b08e5e63c2d17e269aab73b866fe47a8736a2649060600160405180910390a1505050565b60008281526008602090815260408083206001600160a01b038516845290915281205460ff166200059c5760008381526008602090815260408083206001600160a01b03861684529091529020805460ff19166001179055620005533390565b6001600160a01b0316826001600160a01b0316847f2f8788117e7eff1d82e926ec794901d17c78024a50270940304540a733656f0d60405160405180910390a45060016200022d565b5060006200022d565b6001600160a01b0381168114620005bb57600080fd5b50565b634e487b7160e01b600052604160045260246000fd5b604051606081016001600160401b0381118282101715620005f957620005f9620005be565b60405290565b60005b838110156200061c57818101518382015260200162000602565b50506000910152565b600082601f8301126200063757600080fd5b81516001600160401b0380821115620006545762000654620005be565b604051601f8301601f19908116603f011681019082821181831017156200067f576200067f620005be565b816040528381528660208588010111156200069957600080fd5b620006ac846020830160208901620005ff565b9695505050505050565b8051620006c381620005a5565b919050565b805163ffffffff81168114620006c357600080fd5b600080600080600080600080888a03610140811215620006fc57600080fd5b89516200070981620005a5565b60208b01519099506001600160401b03808211156200072757600080fd5b620007358d838e0162000625565b995060408c01519150808211156200074c57600080fd5b506200075b8c828d0162000625565b9750506060605f19820112156200077157600080fd5b506200077c620005d4565b60608a01516200078c81620005a5565b815260808a01516200079e81620005a5565b602082015260a08a015160408201529450620007bd60c08a01620006b6565b9350620007cd60e08a01620006b6565b9250620007de6101008a01620006c8565b9150620007ef6101208a01620006c8565b90509295985092959890939650565b600181811c908216806200081357607f821691505b6020821081036200083457634e487b7160e01b600052602260045260246000fd5b50919050565b601f8211156200088a576000816000526020600020601f850160051c81016020861015620008655750805b601f850160051c820191505b81811015620008865782815560010162000871565b5050505b505050565b81516001600160401b03811115620008ab57620008ab620005be565b620008c381620008bc8454620007fe565b846200083a565b602080601f831160018114620008fb5760008415620008e25750858301515b600019600386901b1c1916600185901b17855562000886565b600085815260208120601f198616915b828110156200092c578886015182559484019460019091019084016200090b565b50858210156200094b5787850151600019600388901b60f8161c191681555b5050505050600190811b01905550565b600082516200096f818460208701620005ff565b9190910192915050565b6000602082840312156200098c57600080fd5b5051919050565b6020815260008251806020840152620009b4816040850160208701620005ff565b601f01601f19169190910160400192915050565b80516020808301519190811015620008345760001960209190910360031b1b16919050565b60805160a05160c05160e0516101005161012051610140516101605161018051613a1562000a7a6000396000611fb501526000818161056b015281816109e0015281816111060152818161222001526125d60152600061249b0152600061246e015260006120b30152600061208b01526000611fe6015260006120100152600061203a0152613a156000f3fe6080604052600436106102d55760003560e01c80638a1fcd601161017b578063c4f59f9b116100d7578063d547741f11610085578063d547741f14610906578063d905777e14610926578063dd62ed3e14610946578063ef8b30f714610851578063efa6f42514610966578063f2fde38b14610986578063fba8619a146109a657600080fd5b8063c4f59f9b1461082f578063c63d75b614610598578063c6e6f59214610851578063caad546e14610871578063cd26c0e614610891578063ce96cb77146108c6578063d505accf146108e657600080fd5b8063a217fddf11610134578063a217fddf14610746578063a5f1e2821461075b578063a9059cbb1461077b578063b3d7f6b91461079b578063b460af94146107bb578063b4f6d613146107db578063ba0876521461080f57600080fd5b80638a1fcd60146106ab5780638da5cb5b146106c057806391d14854146106de57806394bf804d146106fe57806395d89b411461071e5780639feb8f501461073357600080fd5b8063313ce567116102355780635ab764ed116101e35780635ab764ed146105b85780636e553f65146105d85780636f26a436146105f857806370a0823114610618578063715018a61461064e5780637ecebe001461066357806384b0196e1461068357600080fd5b8063313ce567146104d3578063362a3fad146104fa5780633644e5151461052757806336568abe1461053c57806338d52e0f1461055c578063402d267d146105985780634cdad5061461038857600080fd5b80630a28a477116102925780630a28a477146103c857806313d033c0146103e857806318160ddd146104125780631e5eb1d01461042757806323b872dd14610461578063248a9ca3146104815780632f2ff15d146104b157600080fd5b806301e1d114146102da57806301ffc9a71461030257806305fb2a511461033257806306fdde031461036657806307a2d13a14610388578063095ea7b3146103a8575b600080fd5b3480156102e657600080fd5b506102ef6109c6565b6040519081526020015b60405180910390f35b34801561030e57600080fd5b5061032261031d3660046132ad565b610a5b565b60405190151581526020016102f9565b34801561033e57600080fd5b506102ef7f74e458455daa935f28c556b43e0cc4ad001a8a090f5feee376681e97d4618f4681565b34801561037257600080fd5b5061037b610a86565b6040516102f99190613327565b34801561039457600080fd5b506102ef6103a336600461333a565b610b18565b3480156103b457600080fd5b506103226103c336600461336f565b610b25565b3480156103d457600080fd5b506102ef6103e336600461333a565b610b3d565b3480156103f457600080fd5b506103fd610b4a565b60405163ffffffff90911681526020016102f9565b34801561041e57600080fd5b506002546102ef565b34801561043357600080fd5b50600954600a54600b54610452926001600160a01b0390811692169083565b6040516102f993929190613399565b34801561046d57600080fd5b5061032261047c3660046133bd565b610b6a565b34801561048d57600080fd5b506102ef61049c36600461333a565b60009081526008602052604090206001015490565b3480156104bd57600080fd5b506104d16104cc3660046133f9565b610b90565b005b3480156104df57600080fd5b506104e8610bbb565b60405160ff90911681526020016102f9565b34801561050657600080fd5b5061051a610515366004613425565b610bc5565b6040516102f9919061347c565b34801561053357600080fd5b506102ef610c89565b34801561054857600080fd5b506104d16105573660046133f9565b610c93565b34801561056857600080fd5b507f00000000000000000000000000000000000000000000000000000000000000005b6040516102f9919061348f565b3480156105a457600080fd5b506102ef6105b3366004613425565b610ccb565b3480156105c457600080fd5b506102ef6105d33660046134a3565b610cd2565b3480156105e457600080fd5b506102ef6105f33660046133f9565b610df9565b34801561060457600080fd5b506104d16106133660046134cd565b610eb1565b34801561062457600080fd5b506102ef610633366004613425565b6001600160a01b031660009081526020819052604090205490565b34801561065a57600080fd5b506104d1610f12565b34801561066f57600080fd5b506102ef61067e366004613425565b610f26565b34801561068f57600080fd5b50610698610f44565b6040516102f997969594939291906134f3565b3480156106b757600080fd5b506103fd610f8a565b3480156106cc57600080fd5b50600c546001600160a01b031661058b565b3480156106ea57600080fd5b506103226106f93660046133f9565b610fa2565b34801561070a57600080fd5b506102ef6107193660046133f9565b610fcd565b34801561072a57600080fd5b5061037b611071565b6104d161074136600461336f565b611080565b34801561075257600080fd5b506102ef600081565b34801561076757600080fd5b506102ef610776366004613425565b6113d0565b34801561078757600080fd5b5061032261079636600461336f565b611420565b3480156107a757600080fd5b506102ef6107b636600461333a565b61142e565b3480156107c757600080fd5b506102ef6107d6366004613563565b61143b565b3480156107e757600080fd5b506102ef7f477fc23fb51bb5d5aa814872a393b0e4f35d0916c7503c0fd96584681070d41081565b34801561081b57600080fd5b506102ef61082a366004613563565b6114eb565b34801561083b57600080fd5b506108446115bb565b6040516102f9919061359f565b34801561085d57600080fd5b506102ef61086c36600461333a565b611627565b34801561087d57600080fd5b506102ef61088c366004613425565b611634565b34801561089d57600080fd5b506108b16108ac3660046133f9565b61163f565b604080519283526020830191909152016102f9565b3480156108d257600080fd5b506102ef6108e1366004613425565b6118b2565b3480156108f257600080fd5b506104d16109013660046135e0565b6118c7565b34801561091257600080fd5b506104d16109213660046133f9565b611a01565b34801561093257600080fd5b506102ef610941366004613425565b611a26565b34801561095257600080fd5b506102ef6109613660046134a3565b611a31565b34801561097257600080fd5b506104d1610981366004613669565b611a5c565b34801561099257600080fd5b506104d16109a1366004613425565b611aa1565b3480156109b257600080fd5b506104d16109c13660046133bd565b611adf565b6040516370a0823160e01b81526000906001600160a01b037f000000000000000000000000000000000000000000000000000000000000000016906370a0823190610a1590309060040161348f565b602060405180830381865afa158015610a32573d6000803e3d6000fd5b505050506040513d601f19601f82011682018060405250810190610a5691906136df565b905090565b60006001600160e01b0319821663043eff2d60e51b1480610a805750610a8082611d93565b92915050565b606060038054610a95906136f8565b80601f0160208091040260200160405190810160405280929190818152602001828054610ac1906136f8565b8015610b0e5780601f10610ae357610100808354040283529160200191610b0e565b820191906000526020600020905b815481529060010190602001808311610af157829003601f168201915b5050505050905090565b6000610a80826000611dc8565b600033610b33818585611e02565b5060019392505050565b6000610a80826001611e0f565b600080610b55611e3f565b54640100000000900463ffffffff1692915050565b600033610b78858285611e63565b610b83858585611eb0565b60019150505b9392505050565b600082815260086020526040902060010154610bab81611f0f565b610bb58383611f19565b50505050565b6000610a56611fad565b60606000610bd1611e3f565b60018101549091508067ffffffffffffffff811115610bf257610bf2613653565b604051908082528060200260200182016040528015610c1b578160200160208202803683370190505b50925060005b81811015610c8157610c5c85846001018381548110610c4257610c42613732565b6000918252602090912001546001600160a01b0316610cd2565b848281518110610c6e57610c6e613732565b6020908102919091010152600101610c21565b505050919050565b6000610a56611fd9565b6001600160a01b0381163314610cbc5760405163334bd91960e11b815260040160405180910390fd5b610cc68282612104565b505050565b5060001990565b600080610cdd611e3f565b6001600160a01b03808516600081815260038401602090815260408083208054958b168452600287018352818420805495855260048101909352922054949550909390919081158015610d2e575080155b15610d425760009650505050505050610a80565b81600003610d5257809650610db7565b6001600160a01b038816600090815260058401602052604090205484811115610d785750835b6000610d84828761375e565b90506000670de0b6b3a7640000610d9b8684613771565b610da5919061379e565b9050610db184826137b2565b99505050505b86600003610dc457600196505b600b5415610ded576000610ddd88600960020154612171565b9050610de9818961375e565b9750505b50505050505092915050565b6000610e036121f1565b6001600160a01b038216610e325760405162461bcd60e51b8152600401610e29906137c5565b60405180910390fd5b6000610e3d83610ccb565b905080841115610e6657828482604051633c8097d960e11b8152600401610e299392919061380a565b610e6f84611627565b915081600003610e915760405162461bcd60e51b8152600401610e299061382b565b610e9d3384868561221b565b610ea6846122ad565b50610a806001600d55565b610eb96123e8565b6000610ec3611e3f565b805463ffffffff191663ffffffff841690811782556040519081529091507f30131881e801ec5c72cbec6e47ad340b66e5165fa10332f449a92f188a8f27479060200160405180910390a15050565b610f1a6123e8565b610f246000612415565b565b6001600160a01b038116600090815260076020526040812054610a80565b600060608060008060006060610f58612467565b610f60612494565b60408051600080825260208201909252600f60f81b9b939a50919850469750309650945092509050565b600080610f95611e3f565b5463ffffffff1692915050565b60009182526008602090815260408084206001600160a01b0393909316845291905290205460ff1690565b6000610fd76121f1565b6001600160a01b038216610ffd5760405162461bcd60e51b8152600401610e29906137c5565b600061100883610ccb565b9050808411156110315782848260405163284ff66760e01b8152600401610e299392919061380a565b61103a8461142e565b91508160000361105c5760405162461bcd60e51b8152600401610e299061382b565b6110683384848761221b565b610ea6826122ad565b606060048054610a95906136f8565b7f477fc23fb51bb5d5aa814872a393b0e4f35d0916c7503c0fd96584681070d4106110aa81611f0f565b816000036111045760405162461bcd60e51b815260206004820152602160248201527f4865646572615661756c743a20416d6f756e742063616e2774206265207a65726044820152606f60f81b6064820152608401610e29565b7f00000000000000000000000000000000000000000000000000000000000000006001600160a01b0316836001600160a01b03161415801561114f57506001600160a01b0383163014155b6111b95760405162461bcd60e51b815260206004820152603560248201527f4865646572615661756c743a2052657761726420616e64205374616b696e6720604482015274746f6b656e732063616e6e6f742062652073616d6560581b6064820152608401610e29565b6001600160a01b0383166112195760405162461bcd60e51b815260206004820152602160248201527f4865646572615661756c743a20496e76616c69642072657761726420746f6b656044820152603760f91b6064820152608401610e29565b6112216109c6565b6000036112705760405162461bcd60e51b815260206004820181905260248201527f4865646572615661756c743a204e6f20746f6b656e207374616b6564207965746044820152606401610e29565b600061127a611e3f565b6001810154909150600a036112a257604051637561e0ab60e01b815260040160405180910390fd5b60006112c0670de0b6b3a76400006112b86109c6565b8691906124c1565b6001600160a01b0386166000908152600384016020526040902060018101549192509060ff1661134057600183810180548083018255600091825260209091200180546001600160a01b0319166001600160a01b038916908117909155828201805460ff191690921790915582825561133b903330886124df565b611385565b6001600160a01b03861660009081526003840160205260408120805484929061136a9084906137b2565b9091555061138590506001600160a01b0387163330886124df565b856001600160a01b03167fac24935fd910bc682b5ccb1a07b718cadf8cf2f6d1404c4f3ddc3662dae40e29866040516113c091815260200190565b60405180910390a2505050505050565b6000806113db611e3f565b90506113e683611634565b6001600160a01b03841660009081526002808401602052604090912090810154600190910154611416919061375e565b610b89919061375e565b600033610b33818585611eb0565b6000610a80826001611dc8565b60006114456121f1565b6001600160a01b03831661146b5760405162461bcd60e51b8152600401610e29906137c5565b6000611476836118b2565b90508085111561149f57828582604051633fa733bb60e21b8152600401610e299392919061380a565b6114a885612539565b6114b185610b3d565b9150816000036114d35760405162461bcd60e51b8152600401610e299061382b565b6114e033858588866125a3565b50610b896001600d55565b60006114f56121f1565b6001600160a01b03831661151b5760405162461bcd60e51b8152600401610e29906137c5565b600061152683611a26565b90508085111561154f57828582604051632e52afbb60e21b8152600401610e299392919061380a565b61155882612539565b61156185610b18565b9150816000036115ae5760405162461bcd60e51b81526020600482015260186024820152774865646572615661756c743a205a65726f2061737365747360401b6044820152606401610e29565b6114e033858585896125a3565b606060006115c7611e3f565b6001810180546040805160208084028201810190925282815293945083018282801561161c57602002820191906000526020600020905b81546001600160a01b031681526001909101906020018083116115fe575b505050505091505090565b6000610a80826000611e0f565b6000610a8082612663565b600080600061164c611e3f565b6001810154600a54919250906001600160a01b03166000808381036116bf5760405162461bcd60e51b815260206004820152602360248201527f4865646572615661756c743a204e6f2072657761726420746f6b656e732065786044820152621a5cdd60ea1b6064820152608401610e29565b336000908152600286016020526040902054895b858110156118a1578660010181815481106116f0576116f0613732565b6000918252602090912001546001600160a01b031693506117113385610cd2565b9250821561189957811561177857600061173484670de0b6b3a7640000856124c1565b33600090815260028a01602090815260408083206001600160a01b038a1684526005019091528120805492935083929091906117719084906137b2565b9091555050505b33600090815260028801602090815260408083206001600160a01b0388168452600401909152902054801561181b578381106117f15733600090815260028901602090815260408083206001600160a01b0389168452600401909152812080548692906117e690849061375e565b9091555061181b9050565b33600090815260028901602090815260408083206001600160a01b03891684526004019091528120555b6001600160a01b038616156118365761183384612744565b93505b61184a6001600160a01b0386168c8661284e565b8a6001600160a01b0316856001600160a01b03167f0aa4d283470c904c551d18bb894d37e17674920f3261a7f854be501e25f421b78660405161188f91815260200190565b60405180910390a3505b6001016116d3565b509899939850929650505050505050565b6000610a806118c083611634565b6000611dc8565b834211156118eb5760405163313c898160e11b815260048101859052602401610e29565b60007f6e71edae12b1b97f4d1f60370fef10105fa2faae0126114a169c64845d6126c98888886119388c6001600160a01b0316600090815260076020526040902080546001810190915590565b6040805160208101969096526001600160a01b0394851690860152929091166060840152608083015260a082015260c0810186905260e00160405160208183030381529060405280519060200120905060006119938261287f565b905060006119a3828787876128ac565b9050896001600160a01b0316816001600160a01b0316146119ea576040516325c0072360e11b81526001600160a01b0380831660048301528b166024820152604401610e29565b6119f58a8a8a611e02565b50505050505050505050565b600082815260086020526040902060010154611a1c81611f0f565b610bb58383612104565b6000610a8082611634565b6001600160a01b03918216600090815260016020908152604080832093909416825291909152205490565b7f74e458455daa935f28c556b43e0cc4ad001a8a090f5feee376681e97d4618f46611a8681611f0f565b611a9d8260000151836020015184604001516128da565b5050565b611aa96123e8565b6001600160a01b038116611ad3576000604051631e4fbdf760e01b8152600401610e29919061348f565b611adc81612415565b50565b6000611ae9611e3f565b6001600160a01b0385166000908152600382016020526040902060010154909150339060ff16611b675760405162461bcd60e51b815260206004820152602360248201527f4865646572615661756c743a20496e636f72726563742072657761726420746f60448201526235b2b760e91b6064820152608401610e29565b6000611b738287610cd2565b905083811015611bdc5760405162461bcd60e51b815260206004820152602e60248201527f4865646572615661756c743a2041637475616c20726577617264206973206c6560448201526d1cdcc81d1a185b881c185cdcd95960921b6064820152608401610e29565b6001600160a01b03821660009081526002840160205260409020548015611c5b576000611c1286670de0b6b3a7640000846124c1565b6001600160a01b0380861660009081526002880160209081526040808320938d1683526005909301905290812080549293508392909190611c549084906137b2565b9091555050505b6001600160a01b0380841660009081526002860160209081526040808320938b1683526004909301905220548015611d0b57858110611cdc576001600160a01b0380851660009081526002870160209081526040808320938c168352600490930190529081208054889290611cd190849061375e565b90915550611d0b9050565b6001600160a01b0380851660009081526002870160209081526040808320938c16835260049093019052908120555b600a546001600160a01b031615611d2857611d2586612744565b95505b611d3c6001600160a01b038916888861284e565b866001600160a01b0316886001600160a01b03167f0aa4d283470c904c551d18bb894d37e17674920f3261a7f854be501e25f421b788604051611d8191815260200190565b60405180910390a35050505050505050565b60006001600160e01b03198216637965db0b60e01b1480610a8057506301ffc9a760e01b6001600160e01b0319831614610a80565b6000610b89611dd56109c6565b611de09060016137b2565b611dec6000600a613941565b600254611df991906137b2565b85919085612998565b610cc683838360016129e9565b6000610b89611e1f82600a613941565b600254611e2c91906137b2565b611e346109c6565b611df99060016137b2565b7fb5311d7a8ac81ee4993288bc4c98b414fbe1c746351a804bd1a32db330eae70090565b6000611e6f8484611a31565b90506000198114610bb55781811015611ea157828183604051637dc7a0d960e11b8152600401610e299392919061380a565b610bb5848484840360006129e9565b6001600160a01b038316611eda576000604051634b637e8f60e11b8152600401610e29919061348f565b6001600160a01b038216611f0457600060405163ec442f0560e01b8152600401610e29919061348f565b610cc6838383612ab0565b611adc8133612bc7565b6000611f258383610fa2565b611fa55760008381526008602090815260408083206001600160a01b03861684529091529020805460ff19166001179055611f5d3390565b6001600160a01b0316826001600160a01b0316847f2f8788117e7eff1d82e926ec794901d17c78024a50270940304540a733656f0d60405160405180910390a4506001610a80565b506000610a80565b6000610a56817f0000000000000000000000000000000000000000000000000000000000000000613950565b6000306001600160a01b037f00000000000000000000000000000000000000000000000000000000000000001614801561203257507f000000000000000000000000000000000000000000000000000000000000000046145b1561205c57507f000000000000000000000000000000000000000000000000000000000000000090565b610a56604080517f8b73c3c69bb8fe3d512ecc4cf759cc79239f7b179b0ffacaa9a75d522b39400f60208201527f0000000000000000000000000000000000000000000000000000000000000000918101919091527f000000000000000000000000000000000000000000000000000000000000000060608201524660808201523060a082015260009060c00160405160208183030381529060405280519060200120905090565b60006121108383610fa2565b15611fa55760008381526008602090815260408083206001600160a01b0386168085529252808320805460ff1916905551339286917ff6391f5c32d9c69d2a47ea670b442974b53935d1edc7fd64eb21e047a839171b9190a4506001610a80565b60006127106121808385613771565b10156121da5760405162461bcd60e51b8152602060048201526024808201527f46433a20546f6f20736d616c6c20616d6f756e7420746f20636f6e73696465726044820152632066656560e01b6064820152608401610e29565b6127106121e78385613771565b610b89919061379e565b6002600d540361221457604051633ee5aeb560e01b815260040160405180910390fd5b6002600d55565b6122477f00000000000000000000000000000000000000000000000000000000000000008530856124df565b6122518382612c00565b826001600160a01b0316846001600160a01b03167fdcbc1c05240f31ff3ad067ef1ee35ce4997762752e3a095284754544f4c709d7848460405161229f929190918252602082015260400190565b60405180910390a350505050565b60006122b7611e3f565b33600090815260028201602052604090206006015490915060ff1661237d5760018101546000805b82811015612345578360010181815481106122fc576122fc613732565b60009182526020808320909101546001600160a01b03168083526003870182526040808420543385526002890184528185208386526005019093529092205591506001016122df565b50503360009081526002929092016020525060409020818155600180820192909255426003820155600601805460ff19169091179055565b3360009081526002820160205260408120805484929061239e9084906137b2565b9091555050336000908152600282016020526040812060010180548492906123c79084906137b2565b90915550503360009081526002820160205260409020426003909101555050565b600c546001600160a01b03163314610f24573360405163118cdaa760e01b8152600401610e29919061348f565b600c80546001600160a01b038381166001600160a01b0319831681179093556040519116919082907f8be0079c531659141344cd1fd0a4f28419497f9722a3daafe3b4186f6b6457e090600090a35050565b6060610a567f00000000000000000000000000000000000000000000000000000000000000006005612c36565b6060610a567f00000000000000000000000000000000000000000000000000000000000000006006612c36565b60008260001904841183021582026124d857600080fd5b5091020490565b610bb584856001600160a01b03166323b872dd86868660405160240161250793929190613399565b604051602081830303815290604052915060e01b6020820180516001600160e01b038381831617835250505050612ce1565b61254233612d3b565b600061254c611e3f565b33600090815260028201602052604081208054929350849290919061257290849061375e565b909155505033600090815260028083016020526040822001805484929061259a9084906137b2565b90915550505050565b826001600160a01b0316856001600160a01b0316146125c7576125c7838683611e63565b6125d18382612e7a565b6125fc7f0000000000000000000000000000000000000000000000000000000000000000858461284e565b826001600160a01b0316846001600160a01b0316866001600160a01b03167ffbde797d201c681b91056529119e0b02407c7bb96a4a2c75c01fc9667232c8db8585604051612654929190918252602082015260400190565b60405180910390a45050505050565b60008061266e611e3f565b6001600160a01b038416600090815260028083016020526040822090810154600182015493945090926126a1919061375e565b835460038401549192506000916126c691640100000000900463ffffffff16906137b2565b9050804210806126d4575081155b156126e55750600095945050505050565b83546000906126fa9063ffffffff16836137b2565b905080421061270b5782955061273a565b6000612717834261375e565b865490915063ffffffff1661272c8286613771565b612736919061379e565b9650505b5050505050919050565b600a54600b546000916001600160a01b0316908290612764908590612171565b905080826001600160a01b03166370a08231306040518263ffffffff1660e01b8152600401612793919061348f565b602060405180830381865afa1580156127b0573d6000803e3d6000fd5b505050506040513d601f19601f820116820180604052508101906127d491906136df565b10156128225760405162461bcd60e51b815260206004820152601e60248201527f46433a20496e73756666696369656e7420746f6b656e2062616c616e636500006044820152606401610e29565b60095461283c906001600160a01b0384811691168361284e565b612846818561375e565b949350505050565b6040516001600160a01b03838116602483015260448201839052610cc691859182169063a9059cbb90606401612507565b6000610a8061288c611fd9565b8360405161190160f01b8152600281019290925260228201526042902090565b6000806000806128be88888888612eb0565b9250925092506128ce8282612f75565b50909695505050505050565b612710811061291d5760405162461bcd60e51b815260206004820152600f60248201526e46433a20496e76616c69642066656560881b6044820152606401610e29565b600980546001600160a01b038581166001600160a01b03199283168117909355600a8054918616919092168117909155600b83905560408051928352602083019190915281018290527febd34b2df88ea5c9f67c04b13b08e5e63c2d17e269aab73b866fe47a8736a2649060600160405180910390a1505050565b6000806129a686868661302e565b90506129b1836130f2565b80156129cd5750600084806129c8576129c8613788565b868809115b156129e0576129dd6001826137b2565b90505b95945050505050565b6001600160a01b038416612a1357600060405163e602df0560e01b8152600401610e29919061348f565b6001600160a01b038316612a3d576000604051634a1406b160e11b8152600401610e29919061348f565b6001600160a01b0380851660009081526001602090815260408083209387168352929052208290558015610bb557826001600160a01b0316846001600160a01b03167f8c5be1e5ebec7d5bd14f71427d1e84f3dd0314c0f7b2291e5b200ac8c7c3b9258460405161229f91815260200190565b6001600160a01b038316612adb578060026000828254612ad091906137b2565b90915550612b3a9050565b6001600160a01b03831660009081526020819052604090205481811015612b1b5783818360405163391434e360e21b8152600401610e299392919061380a565b6001600160a01b03841660009081526020819052604090209082900390555b6001600160a01b038216612b5657600280548290039055612b75565b6001600160a01b03821660009081526020819052604090208054820190555b816001600160a01b0316836001600160a01b03167fddf252ad1be2c89b69c2b068fc378daa952ba7f163c4a11628f55a4df523b3ef83604051612bba91815260200190565b60405180910390a3505050565b612bd18282610fa2565b611a9d5760405163e2517d3f60e01b81526001600160a01b038216600482015260248101839052604401610e29565b6001600160a01b038216612c2a57600060405163ec442f0560e01b8152600401610e29919061348f565b611a9d60008383612ab0565b606060ff8314612c5057612c498361311f565b9050610a80565b818054612c5c906136f8565b80601f0160208091040260200160405190810160405280929190818152602001828054612c88906136f8565b8015612cd55780601f10612caa57610100808354040283529160200191612cd5565b820191906000526020600020905b815481529060010190602001808311612cb857829003601f168201915b50505050509050610a80565b6000612cf66001600160a01b0384168361315e565b90508051600014158015612d1b575080806020019051810190612d199190613969565b155b15610cc65782604051635274afe760e01b8152600401610e29919061348f565b6000612d45611e3f565b6001600160a01b0383166000908152600282016020526040812091925080808080805b6001880154811015612e6f57876001018181548110612d8957612d89613732565b60009182526020808320909101546001600160a01b031680835260038b0182526040808420805460058d019094529320549098509096509450848611612dd0576000612dda565b612dda858761375e565b9350831580612de857508754155b15612df35750612e67565b8754670de0b6b3a764000090612e0a908690613771565b612e14919061379e565b6001600160a01b038816600090815260048a016020526040812080549295508592909190612e439084906137b2565b9091555050506001600160a01b038616600090815260058801602052604090208590555b600101612d68565b505050505050505050565b6001600160a01b038216612ea4576000604051634b637e8f60e11b8152600401610e29919061348f565b611a9d82600083612ab0565b600080806fa2a8918ca85bafe22016d0b997e4df60600160ff1b03841115612ee15750600091506003905082612f6b565b604080516000808252602082018084528a905260ff891692820192909252606081018790526080810186905260019060a0016020604051602081039080840390855afa158015612f35573d6000803e3d6000fd5b5050604051601f1901519150506001600160a01b038116612f6157506000925060019150829050612f6b565b9250600091508190505b9450945094915050565b6000826003811115612f8957612f8961398b565b03612f92575050565b6001826003811115612fa657612fa661398b565b03612fc45760405163f645eedf60e01b815260040160405180910390fd5b6002826003811115612fd857612fd861398b565b03612ff95760405163fce698f760e01b815260048101829052602401610e29565b600382600381111561300d5761300d61398b565b03611a9d576040516335e2f38360e21b815260048101829052602401610e29565b60008383028160001985870982811083820303915050806000036130655783828161305b5761305b613788565b0492505050610b89565b8084116130855760405163227bc15360e01b815260040160405180910390fd5b6000848688096000868103871696879004966002600389028118808a02820302808a02820302808a02820302808a02820302808a02820302808a02909103029181900381900460010186841190950394909402919094039290920491909117919091029150509392505050565b600060028260038111156131085761310861398b565b61311291906139a1565b60ff166001149050919050565b6060600061312c8361316c565b604080516020808252818301909252919250600091906020820181803683375050509182525060208101929092525090565b6060610b8983836000613194565b600060ff8216601f811115610a8057604051632cd44ac360e21b815260040160405180910390fd5b6060814710156131b9573060405163cd78605960e01b8152600401610e29919061348f565b600080856001600160a01b031684866040516131d591906139c3565b60006040518083038185875af1925050503d8060008114613212576040519150601f19603f3d011682016040523d82523d6000602084013e613217565b606091505b5091509150613227868383613231565b9695505050505050565b6060826132465761324182613284565b610b89565b815115801561325d57506001600160a01b0384163b155b1561327d5783604051639996b31560e01b8152600401610e29919061348f565b5080610b89565b8051156132945780518082602001fd5b604051630a12f52160e11b815260040160405180910390fd5b6000602082840312156132bf57600080fd5b81356001600160e01b031981168114610b8957600080fd5b60005b838110156132f25781810151838201526020016132da565b50506000910152565b600081518084526133138160208601602086016132d7565b601f01601f19169290920160200192915050565b602081526000610b8960208301846132fb565b60006020828403121561334c57600080fd5b5035919050565b80356001600160a01b038116811461336a57600080fd5b919050565b6000806040838503121561338257600080fd5b61338b83613353565b946020939093013593505050565b6001600160a01b039384168152919092166020820152604081019190915260600190565b6000806000606084860312156133d257600080fd5b6133db84613353565b92506133e960208501613353565b9150604084013590509250925092565b6000806040838503121561340c57600080fd5b8235915061341c60208401613353565b90509250929050565b60006020828403121561343757600080fd5b610b8982613353565b60008151808452602080850194506020840160005b8381101561347157815187529582019590820190600101613455565b509495945050505050565b602081526000610b896020830184613440565b6001600160a01b0391909116815260200190565b600080604083850312156134b657600080fd5b6134bf83613353565b915061341c60208401613353565b6000602082840312156134df57600080fd5b813563ffffffff81168114610b8957600080fd5b60ff60f81b8816815260e06020820152600061351260e08301896132fb565b828103604084015261352481896132fb565b606084018890526001600160a01b038716608085015260a0840186905283810360c085015290506135558185613440565b9a9950505050505050505050565b60008060006060848603121561357857600080fd5b8335925061358860208501613353565b915061359660408501613353565b90509250925092565b6020808252825182820181905260009190848201906040850190845b818110156128ce5783516001600160a01b0316835292840192918401916001016135bb565b600080600080600080600060e0888a0312156135fb57600080fd5b61360488613353565b965061361260208901613353565b95506040880135945060608801359350608088013560ff8116811461363657600080fd5b9699959850939692959460a0840135945060c09093013592915050565b634e487b7160e01b600052604160045260246000fd5b60006060828403121561367b57600080fd5b6040516060810181811067ffffffffffffffff821117156136ac57634e487b7160e01b600052604160045260246000fd5b6040526136b883613353565b81526136c660208401613353565b6020820152604083013560408201528091505092915050565b6000602082840312156136f157600080fd5b5051919050565b600181811c9082168061370c57607f821691505b60208210810361372c57634e487b7160e01b600052602260045260246000fd5b50919050565b634e487b7160e01b600052603260045260246000fd5b634e487b7160e01b600052601160045260246000fd5b81810381811115610a8057610a80613748565b8082028115828204841417610a8057610a80613748565b634e487b7160e01b600052601260045260246000fd5b6000826137ad576137ad613788565b500490565b80820180821115610a8057610a80613748565b60208082526025908201527f4865646572615661756c743a20496e76616c6964207265636569766572206164604082015264647265737360d81b606082015260800190565b6001600160a01b039390931683526020830191909152604082015260600190565b6020808252601890820152774865646572615661756c743a205a65726f2073686172657360401b604082015260600190565b600181815b8085111561389857816000190482111561387e5761387e613748565b8085161561388b57918102915b93841c9390800290613862565b509250929050565b6000826138af57506001610a80565b816138bc57506000610a80565b81600181146138d257600281146138dc576138f8565b6001915050610a80565b60ff8411156138ed576138ed613748565b50506001821b610a80565b5060208310610133831016604e8410600b841016171561391b575081810a610a80565b613925838361385d565b806000190482111561393957613939613748565b029392505050565b6000610b8960ff8416836138a0565b60ff8181168382160190811115610a8057610a80613748565b60006020828403121561397b57600080fd5b81518015158114610b8957600080fd5b634e487b7160e01b600052602160045260246000fd5b600060ff8316806139b4576139b4613788565b8060ff84160691505092915050565b600082516139d58184602087016132d7565b919091019291505056fea2646970667358221220d435185ebc99819a788242567b5b702f5363ac3a1dc1c0914f8791aaa9187d1464736f6c63430008180033a26469706673582212205b002f3fee56a058e24b5ade9b9d057352981806b6e6c093b42171edea0273d764736f6c63430008180033",
  "linkReferences": {},
  "deployedLinkReferences": {}
}